{
  "_format": "hh-sol-artifact-1",
  "contractName": "LottoMojiTickets",
  "sourceName": "contracts/LottoMojiTickets.sol",
  "abi": [
    {
      "inputs": [
        {
          "internalType": "address",
          "name": "_lotteryContract",
          "type": "address"
        }
      ],
      "stateMutability": "nonpayable",
      "type": "constructor"
    },
    {
      "inputs": [
        {
          "internalType": "address",
          "name": "sender",
          "type": "address"
        },
        {
          "internalType": "uint256",
          "name": "tokenId",
          "type": "uint256"
        },
        {
          "internalType": "address",
          "name": "owner",
          "type": "address"
        }
      ],
      "name": "ERC721IncorrectOwner",
      "type": "error"
    },
    {
      "inputs": [
        {
          "internalType": "address",
          "name": "operator",
          "type": "address"
        },
        {
          "internalType": "uint256",
          "name": "tokenId",
          "type": "uint256"
        }
      ],
      "name": "ERC721InsufficientApproval",
      "type": "error"
    },
    {
      "inputs": [
        {
          "internalType": "address",
          "name": "approver",
          "type": "address"
        }
      ],
      "name": "ERC721InvalidApprover",
      "type": "error"
    },
    {
      "inputs": [
        {
          "internalType": "address",
          "name": "operator",
          "type": "address"
        }
      ],
      "name": "ERC721InvalidOperator",
      "type": "error"
    },
    {
      "inputs": [
        {
          "internalType": "address",
          "name": "owner",
          "type": "address"
        }
      ],
      "name": "ERC721InvalidOwner",
      "type": "error"
    },
    {
      "inputs": [
        {
          "internalType": "address",
          "name": "receiver",
          "type": "address"
        }
      ],
      "name": "ERC721InvalidReceiver",
      "type": "error"
    },
    {
      "inputs": [
        {
          "internalType": "address",
          "name": "sender",
          "type": "address"
        }
      ],
      "name": "ERC721InvalidSender",
      "type": "error"
    },
    {
      "inputs": [
        {
          "internalType": "uint256",
          "name": "tokenId",
          "type": "uint256"
        }
      ],
      "name": "ERC721NonexistentToken",
      "type": "error"
    },
    {
      "inputs": [
        {
          "internalType": "address",
          "name": "owner",
          "type": "address"
        }
      ],
      "name": "OwnableInvalidOwner",
      "type": "error"
    },
    {
      "inputs": [
        {
          "internalType": "address",
          "name": "account",
          "type": "address"
        }
      ],
      "name": "OwnableUnauthorizedAccount",
      "type": "error"
    },
    {
      "anonymous": false,
      "inputs": [
        {
          "indexed": true,
          "internalType": "address",
          "name": "owner",
          "type": "address"
        },
        {
          "indexed": true,
          "internalType": "address",
          "name": "approved",
          "type": "address"
        },
        {
          "indexed": true,
          "internalType": "uint256",
          "name": "tokenId",
          "type": "uint256"
        }
      ],
      "name": "Approval",
      "type": "event"
    },
    {
      "anonymous": false,
      "inputs": [
        {
          "indexed": true,
          "internalType": "address",
          "name": "owner",
          "type": "address"
        },
        {
          "indexed": true,
          "internalType": "address",
          "name": "operator",
          "type": "address"
        },
        {
          "indexed": false,
          "internalType": "bool",
          "name": "approved",
          "type": "bool"
        }
      ],
      "name": "ApprovalForAll",
      "type": "event"
    },
    {
      "anonymous": false,
      "inputs": [
        {
          "indexed": true,
          "internalType": "address",
          "name": "previousOwner",
          "type": "address"
        },
        {
          "indexed": true,
          "internalType": "address",
          "name": "newOwner",
          "type": "address"
        }
      ],
      "name": "OwnershipTransferred",
      "type": "event"
    },
    {
      "anonymous": false,
      "inputs": [
        {
          "indexed": true,
          "internalType": "uint256",
          "name": "tokenId",
          "type": "uint256"
        }
      ],
      "name": "TicketBurned",
      "type": "event"
    },
    {
      "anonymous": false,
      "inputs": [
        {
          "indexed": true,
          "internalType": "uint256",
          "name": "tokenId",
          "type": "uint256"
        },
        {
          "indexed": true,
          "internalType": "address",
          "name": "to",
          "type": "address"
        },
        {
          "indexed": false,
          "internalType": "uint8[4]",
          "name": "numbers",
          "type": "uint8[4]"
        },
        {
          "indexed": false,
          "internalType": "uint256",
          "name": "gameDay",
          "type": "uint256"
        },
        {
          "indexed": false,
          "internalType": "string",
          "name": "cryptoTheme",
          "type": "string"
        }
      ],
      "name": "TicketMinted",
      "type": "event"
    },
    {
      "anonymous": false,
      "inputs": [
        {
          "indexed": true,
          "internalType": "address",
          "name": "from",
          "type": "address"
        },
        {
          "indexed": true,
          "internalType": "address",
          "name": "to",
          "type": "address"
        },
        {
          "indexed": true,
          "internalType": "uint256",
          "name": "tokenId",
          "type": "uint256"
        }
      ],
      "name": "Transfer",
      "type": "event"
    },
    {
      "inputs": [
        {
          "internalType": "uint256",
          "name": "",
          "type": "uint256"
        }
      ],
      "name": "EMOJIS",
      "outputs": [
        {
          "internalType": "string",
          "name": "",
          "type": "string"
        }
      ],
      "stateMutability": "view",
      "type": "function"
    },
    {
      "inputs": [
        {
          "internalType": "uint256",
          "name": "",
          "type": "uint256"
        }
      ],
      "name": "EMOJI_NAMES",
      "outputs": [
        {
          "internalType": "string",
          "name": "",
          "type": "string"
        }
      ],
      "stateMutability": "view",
      "type": "function"
    },
    {
      "inputs": [
        {
          "internalType": "address",
          "name": "to",
          "type": "address"
        },
        {
          "internalType": "uint256",
          "name": "tokenId",
          "type": "uint256"
        }
      ],
      "name": "approve",
      "outputs": [],
      "stateMutability": "nonpayable",
      "type": "function"
    },
    {
      "inputs": [
        {
          "internalType": "address",
          "name": "owner",
          "type": "address"
        }
      ],
      "name": "balanceOf",
      "outputs": [
        {
          "internalType": "uint256",
          "name": "",
          "type": "uint256"
        }
      ],
      "stateMutability": "view",
      "type": "function"
    },
    {
      "inputs": [
        {
          "internalType": "uint256",
          "name": "tokenId",
          "type": "uint256"
        }
      ],
      "name": "burnTicket",
      "outputs": [],
      "stateMutability": "nonpayable",
      "type": "function"
    },
    {
      "inputs": [
        {
          "internalType": "uint8",
          "name": "",
          "type": "uint8"
        }
      ],
      "name": "emojiRarity",
      "outputs": [
        {
          "internalType": "string",
          "name": "",
          "type": "string"
        }
      ],
      "stateMutability": "view",
      "type": "function"
    },
    {
      "inputs": [],
      "name": "getAllEmojis",
      "outputs": [
        {
          "internalType": "string[25]",
          "name": "emojis",
          "type": "string[25]"
        },
        {
          "internalType": "string[25]",
          "name": "names",
          "type": "string[25]"
        },
        {
          "internalType": "string[]",
          "name": "rarities",
          "type": "string[]"
        }
      ],
      "stateMutability": "view",
      "type": "function"
    },
    {
      "inputs": [
        {
          "internalType": "uint256",
          "name": "tokenId",
          "type": "uint256"
        }
      ],
      "name": "getApproved",
      "outputs": [
        {
          "internalType": "address",
          "name": "",
          "type": "address"
        }
      ],
      "stateMutability": "view",
      "type": "function"
    },
    {
      "inputs": [
        {
          "internalType": "uint8",
          "name": "index",
          "type": "uint8"
        }
      ],
      "name": "getEmojiName",
      "outputs": [
        {
          "internalType": "string",
          "name": "",
          "type": "string"
        }
      ],
      "stateMutability": "view",
      "type": "function"
    },
    {
      "inputs": [
        {
          "internalType": "uint8",
          "name": "index",
          "type": "uint8"
        }
      ],
      "name": "getEmojiRarity",
      "outputs": [
        {
          "internalType": "string",
          "name": "",
          "type": "string"
        }
      ],
      "stateMutability": "view",
      "type": "function"
    },
    {
      "inputs": [
        {
          "internalType": "uint256",
          "name": "tokenId",
          "type": "uint256"
        }
      ],
      "name": "getTicketMetadata",
      "outputs": [
        {
          "components": [
            {
              "internalType": "uint256",
              "name": "tokenId",
              "type": "uint256"
            },
            {
              "internalType": "uint8[4]",
              "name": "numbers",
              "type": "uint8[4]"
            },
            {
              "internalType": "uint256",
              "name": "gameDay",
              "type": "uint256"
            },
            {
              "internalType": "uint256",
              "name": "purchaseTime",
              "type": "uint256"
            },
            {
              "internalType": "bool",
              "name": "eligibleForReserve",
              "type": "bool"
            },
            {
              "internalType": "string",
              "name": "cryptoTheme",
              "type": "string"
            },
            {
              "internalType": "uint256",
              "name": "rarityScore",
              "type": "uint256"
            }
          ],
          "internalType": "struct LottoMojiTickets.TicketMetadata",
          "name": "",
          "type": "tuple"
        }
      ],
      "stateMutability": "view",
      "type": "function"
    },
    {
      "inputs": [
        {
          "internalType": "address",
          "name": "owner",
          "type": "address"
        },
        {
          "internalType": "address",
          "name": "operator",
          "type": "address"
        }
      ],
      "name": "isApprovedForAll",
      "outputs": [
        {
          "internalType": "bool",
          "name": "",
          "type": "bool"
        }
      ],
      "stateMutability": "view",
      "type": "function"
    },
    {
      "inputs": [
        {
          "internalType": "uint256",
          "name": "tokenId",
          "type": "uint256"
        }
      ],
      "name": "isTicketBurned",
      "outputs": [
        {
          "internalType": "bool",
          "name": "",
          "type": "bool"
        }
      ],
      "stateMutability": "view",
      "type": "function"
    },
    {
      "inputs": [],
      "name": "lotteryContract",
      "outputs": [
        {
          "internalType": "address",
          "name": "",
          "type": "address"
        }
      ],
      "stateMutability": "view",
      "type": "function"
    },
    {
      "inputs": [
        {
          "internalType": "address",
          "name": "to",
          "type": "address"
        },
        {
          "internalType": "uint256",
          "name": "tokenId",
          "type": "uint256"
        },
        {
          "internalType": "uint8[4]",
          "name": "numbers",
          "type": "uint8[4]"
        },
        {
          "internalType": "uint256",
          "name": "gameDay",
          "type": "uint256"
        }
      ],
      "name": "mintTicket",
      "outputs": [],
      "stateMutability": "nonpayable",
      "type": "function"
    },
    {
      "inputs": [],
      "name": "name",
      "outputs": [
        {
          "internalType": "string",
          "name": "",
          "type": "string"
        }
      ],
      "stateMutability": "view",
      "type": "function"
    },
    {
      "inputs": [],
      "name": "owner",
      "outputs": [
        {
          "internalType": "address",
          "name": "",
          "type": "address"
        }
      ],
      "stateMutability": "view",
      "type": "function"
    },
    {
      "inputs": [
        {
          "internalType": "uint256",
          "name": "tokenId",
          "type": "uint256"
        }
      ],
      "name": "ownerOf",
      "outputs": [
        {
          "internalType": "address",
          "name": "",
          "type": "address"
        }
      ],
      "stateMutability": "view",
      "type": "function"
    },
    {
      "inputs": [],
      "name": "renounceOwnership",
      "outputs": [],
      "stateMutability": "nonpayable",
      "type": "function"
    },
    {
      "inputs": [
        {
          "internalType": "address",
          "name": "from",
          "type": "address"
        },
        {
          "internalType": "address",
          "name": "to",
          "type": "address"
        },
        {
          "internalType": "uint256",
          "name": "tokenId",
          "type": "uint256"
        }
      ],
      "name": "safeTransferFrom",
      "outputs": [],
      "stateMutability": "nonpayable",
      "type": "function"
    },
    {
      "inputs": [
        {
          "internalType": "address",
          "name": "from",
          "type": "address"
        },
        {
          "internalType": "address",
          "name": "to",
          "type": "address"
        },
        {
          "internalType": "uint256",
          "name": "tokenId",
          "type": "uint256"
        },
        {
          "internalType": "bytes",
          "name": "data",
          "type": "bytes"
        }
      ],
      "name": "safeTransferFrom",
      "outputs": [],
      "stateMutability": "nonpayable",
      "type": "function"
    },
    {
      "inputs": [
        {
          "internalType": "address",
          "name": "operator",
          "type": "address"
        },
        {
          "internalType": "bool",
          "name": "approved",
          "type": "bool"
        }
      ],
      "name": "setApprovalForAll",
      "outputs": [],
      "stateMutability": "nonpayable",
      "type": "function"
    },
    {
      "inputs": [
        {
          "internalType": "bytes4",
          "name": "interfaceId",
          "type": "bytes4"
        }
      ],
      "name": "supportsInterface",
      "outputs": [
        {
          "internalType": "bool",
          "name": "",
          "type": "bool"
        }
      ],
      "stateMutability": "view",
      "type": "function"
    },
    {
      "inputs": [],
      "name": "symbol",
      "outputs": [
        {
          "internalType": "string",
          "name": "",
          "type": "string"
        }
      ],
      "stateMutability": "view",
      "type": "function"
    },
    {
      "inputs": [
        {
          "internalType": "uint256",
          "name": "",
          "type": "uint256"
        }
      ],
      "name": "ticketBurned",
      "outputs": [
        {
          "internalType": "bool",
          "name": "",
          "type": "bool"
        }
      ],
      "stateMutability": "view",
      "type": "function"
    },
    {
      "inputs": [
        {
          "internalType": "uint256",
          "name": "",
          "type": "uint256"
        }
      ],
      "name": "ticketMetadata",
      "outputs": [
        {
          "internalType": "uint256",
          "name": "tokenId",
          "type": "uint256"
        },
        {
          "internalType": "uint256",
          "name": "gameDay",
          "type": "uint256"
        },
        {
          "internalType": "uint256",
          "name": "purchaseTime",
          "type": "uint256"
        },
        {
          "internalType": "bool",
          "name": "eligibleForReserve",
          "type": "bool"
        },
        {
          "internalType": "string",
          "name": "cryptoTheme",
          "type": "string"
        },
        {
          "internalType": "uint256",
          "name": "rarityScore",
          "type": "uint256"
        }
      ],
      "stateMutability": "view",
      "type": "function"
    },
    {
      "inputs": [
        {
          "internalType": "uint256",
          "name": "tokenId",
          "type": "uint256"
        }
      ],
      "name": "tokenURI",
      "outputs": [
        {
          "internalType": "string",
          "name": "",
          "type": "string"
        }
      ],
      "stateMutability": "view",
      "type": "function"
    },
    {
      "inputs": [
        {
          "internalType": "address",
          "name": "from",
          "type": "address"
        },
        {
          "internalType": "address",
          "name": "to",
          "type": "address"
        },
        {
          "internalType": "uint256",
          "name": "tokenId",
          "type": "uint256"
        }
      ],
      "name": "transferFrom",
      "outputs": [],
      "stateMutability": "nonpayable",
      "type": "function"
    },
    {
      "inputs": [
        {
          "internalType": "address",
          "name": "newOwner",
          "type": "address"
        }
      ],
      "name": "transferOwnership",
      "outputs": [],
      "stateMutability": "nonpayable",
      "type": "function"
    },
    {
      "inputs": [
        {
          "internalType": "uint256",
          "name": "tokenId",
          "type": "uint256"
        },
        {
          "internalType": "bool",
          "name": "eligible",
          "type": "bool"
        }
      ],
      "name": "updateReserveEligibility",
      "outputs": [],
      "stateMutability": "nonpayable",
      "type": "function"
    }
  ],
  "bytecode": "0x60056103c0818152644d4f4e455960d81b6103e05260a09081526007610400818152661112505353d39160ca1b6104205260c0526006610440818152651493d0d2d15560d21b6104605260e05260046104808181526314d313d560e21b6104a052610100526104c0818152634449434560e01b6104e05261012052610500858152642527a5a2a960d91b61052052610140526105408181526308682a6960e31b61056052610160526105808281526554524f50485960d01b6105a052610180526105c08281526515105491d15560d21b6105e0526101a052610600818152634649524560e01b610620526101c0526009610640908152684c494748544e494e4760b81b610660526101e0526106808181526326a7a7a760e11b6106a052610200526106c08181526329aa20a960e11b6106e0526102205261070083815266535041524b4c4560c81b61072052610240526107408281526543495243555360d01b610760526102605260036107809081526210549560ea1b6107a052610280526107c0838152662aa724a1a7a92760c91b6107e0526102a052610800838152665241494e424f5760c81b610820526102c0526108408281526521a627ab22a960d11b610860526102e052610880838152662a2422a0aa22a960c91b6108a052610300526108c0918252652927a62622a960d11b6108e052610320919091526109009081526347414d4560e01b610920526103405261094092835264135151105360da1b6109605261036092909252600861098090815267434f4e464554544960c01b6109a05261038052610a006040526109c0828152662120a62627a7a760c91b6109e0526103a052620002759190601962000b97565b50604080516103608101825260096103208201818152684d6f6e65792042616760b81b610340840152825282518084018452600780825266111a585b5bdb9960ca1b6020838101919091528085019290925284518086018652600680825265149bd8dad95d60d21b828501528587019190915285518087018752600c8082526b536c6f74204d616368696e6560a01b828601526060870191909152865180880188526004808252634469636560e01b828701526080880191909152875180890189526005808252642537b5b2b960d91b8288015260a08901919091528851808a018a529283526b466c79696e67204d6f6e657960a01b8387015260c0880192909252875180890189528381526554726f70687960d01b8187015260e0880152875180890189528381526515185c99d95d60d21b8187015261010088015287518089018952818152634669726560e01b8187015261012088015287518089018952958652684c696768746e696e6760b81b86860152610140870195909552865180880188528581526326b7b7b760e11b81860152610160870152865180880188529485526329ba30b960e11b8585015261018086019490945285518087018752600a808252692234bd3d3c9029ba30b960b11b828601526101a0870191909152865180880188529182526543697263757360d01b828501526101c086019190915285518087018752600b81526a4172742050616c6574746560a81b818501526101e086015285518087018752828152662ab734b1b7b93760c91b8185015261020086015285518087018752828152665261696e626f7760c81b8185015261022086015285518087018752601081526f2337bab9102632b0b31021b637bb32b960811b8185015261024086015285518087018752600d81526c54686561746572204d61736b7360981b8185015261026086015285518087018752600e81526d2937b63632b91021b7b0b9ba32b960911b818501526102808601528551808701875290815269566964656f2047616d6560b01b818401526102a08501528451808601865292835264135959185b60da1b838301526102c0840192909252835180850185526008815267436f6e666574746960c01b818301526102e08401528351808501909452908352662130b63637b7b760c91b83820152610300820192909252620005e19190601962000b97565b50348015620005ef57600080fd5b5060405162003e8638038062003e86833981016040819052620006129162000c58565b33604051806040016040528060118152602001704c6f74746f4d6f6a69205469636b65747360781b8152506040518060400160405280600381526020016213135560ea1b81525081600090816200066a919062000d2f565b50600162000679828262000d2f565b5050506001600160a01b038116620006ab57604051631e4fbdf760e01b81526000600482015260240160405180910390fd5b620006b681620006d5565b506001600160a01b038116608052620006ce62000727565b5062000e29565b600680546001600160a01b038381166001600160a01b0319831681179093556040519116919082907f8be0079c531659141344cd1fd0a4f28419497f9722a3daafe3b4186f6b6457e090600090a35050565b60408051808201909152600a815269556c747261205261726560b01b6020808301919091526001600052603990527f6f07f90659cdc781ea4d9fa69455ad8c2ec7b10a59bb4222a9a50afe92849fb09062000783908262000d2f565b5060408051808201909152600a815269556c747261205261726560b01b6020808301919091526002600052603990527f14da11d3a545d46fb88e4cc5018cec76493b6788d69758d44d9e98f3fad6392990620007e0908262000d2f565b5060408051808201909152600a815269556c747261205261726560b01b60208083019190915260008052603990527f619fcd35f40c77da8aa64d5f98c1fed669135ecc4f245ce6667721b157f7098f906200083c908262000d2f565b506040805180820190915260048152635261726560e01b602080830191909152600a600052603990527f41834a9e0d30634fd139e754927cbec55ff42736280810a96d4a6e9b088a560d9062000893908262000d2f565b506040805180820190915260048152635261726560e01b602080830191909152600b600052603990527f9bd8474ce528862c1cef0614062278e3905a5613f9bf88705bcb6e3ea70344e290620008ea908262000d2f565b506040805180820190915260048152635261726560e01b6020808301919091526010600052603990527f44d02dd6dd8db515308864d9baad6ddae8d781b63fc6ef00959ceb42f39ff8719062000941908262000d2f565b506040805180820190915260048152635261726560e01b602080830191909152600f600052603990527f7c2dc3e4e6c764c539301236e4aa283a8bcd8a920c73256734cd999e89534ecb9062000998908262000d2f565b506040805180820190915260088152672ab731b7b6b6b7b760c11b6020808301919091526003600052603990527f7a1d31c67145dccaf0cb9ca8d00d91c495aa0503124bb9c46a2ce884ec3cf3d790620009f3908262000d2f565b506040805180820190915260088152672ab731b7b6b6b7b760c11b6020808301919091526004600052603990527ffe56ef448e2f2cf1480c91fc14a43d3c471c6bf6d52368e62ee8a119a50289929062000a4e908262000d2f565b506040805180820190915260088152672ab731b7b6b6b7b760c11b6020808301919091526005600052603990527f35730bb70eb1a1d4e9420b59eeab2c563e4b65c347c9898fa47863c9b0c464d49062000aa9908262000d2f565b506040805180820190915260088152672ab731b7b6b6b7b760c11b6020808301919091526007600052603990527f7fdb60e08312f7679ed5e1706ac20573ca3505279f7a28948cd82afb0aaf75489062000b04908262000d2f565b5060005b60198160ff16101562000b945760ff81166000908152603960205260409020805462000b349062000ca0565b905060000362000b7f57604080518082018252600681526521b7b6b6b7b760d11b60208083019190915260ff841660009081526039909152919091209062000b7d908262000d2f565b505b8062000b8b8162000dfb565b91505062000b08565b50565b826019810192821562000bd5579160200282015b8281111562000bd5578251829062000bc4908262000d2f565b509160200191906001019062000bab565b5062000be392915062000be7565b5090565b8082111562000be357600062000bfe828262000c08565b5060010162000be7565b50805462000c169062000ca0565b6000825580601f1062000c27575050565b601f01602090049060005260206000209081019062000b9491905b8082111562000be3576000815560010162000c42565b60006020828403121562000c6b57600080fd5b81516001600160a01b038116811462000c8357600080fd5b9392505050565b634e487b7160e01b600052604160045260246000fd5b600181811c9082168062000cb557607f821691505b60208210810362000cd657634e487b7160e01b600052602260045260246000fd5b50919050565b601f82111562000d2a57600081815260208120601f850160051c8101602086101562000d055750805b601f850160051c820191505b8181101562000d265782815560010162000d11565b5050505b505050565b81516001600160401b0381111562000d4b5762000d4b62000c8a565b62000d638162000d5c845462000ca0565b8462000cdc565b602080601f83116001811462000d9b576000841562000d825750858301515b600019600386901b1c1916600185901b17855562000d26565b600085815260208120601f198616915b8281101562000dcc5788860151825594840194600190910190840162000dab565b508582101562000deb5787850151600019600388901b60f8161c191681555b5050505050600190811b01905550565b600060ff821660ff810362000e2057634e487b7160e01b600052601160045260246000fd5b60010192915050565b60805161302c62000e5a600039600081816103880152818161089a015281816109b30152610fb4015261302c6000f3fe608060405234801561001057600080fd5b50600436106101da5760003560e01c8063a22cb46511610104578063bae2843a116100a2578063da7df8eb11610071578063da7df8eb14610439578063e985e9c51461044c578063ea05fc511461045f578063f2fde38b1461048457600080fd5b8063bae2843a146103dd578063c72e7bed146103f0578063c87b56dd14610403578063d01ead461461041657600080fd5b8063a7c869fa116100de578063a7c869fa1461036c578063b29c662a14610383578063b88d4fde146103aa578063ba0ae43c146103bd57600080fd5b8063a22cb46514610333578063a476b73d14610346578063a63811181461035957600080fd5b806342842e0e1161017c578063715018a61161014b578063715018a6146102ef5780637ef0cb8e146102f75780638da5cb5b1461031a57806395d89b411461032b57600080fd5b806342842e0e1461029557806355d04b76146102a85780636352211e146102bb57806370a08231146102ce57600080fd5b8063095ea7b3116101b8578063095ea7b3146102475780631aa55d5e1461025c57806323b872dd1461026f5780633645d35c1461028257600080fd5b806301ffc9a7146101df57806306fdde0314610207578063081812fc1461021c575b600080fd5b6101f26101ed366004612393565b610497565b60405190151581526020015b60405180910390f35b61020f6104e9565b6040516101fe9190612407565b61022f61022a36600461241a565b61057b565b6040516001600160a01b0390911681526020016101fe565b61025a61025536600461244f565b6105a4565b005b61020f61026a36600461248a565b6105b3565b61025a61027d3660046124a5565b61064d565b61020f61029036600461248a565b6106dd565b61025a6102a33660046124a5565b6107cf565b61020f6102b636600461241a565b6107ef565b61022f6102c936600461241a565b61080e565b6102e16102dc3660046124e1565b610819565b6040519081526020016101fe565b61025a610861565b6101f261030536600461241a565b603b6020526000908152604090205460ff1681565b6006546001600160a01b031661022f565b61020f610875565b61025a61034136600461250c565b610884565b61025a61035436600461241a565b61088f565b61025a610367366004612586565b6109a8565b610374610b69565b6040516101fe93929190612671565b61022f7f000000000000000000000000000000000000000000000000000000000000000081565b61025a6103b83660046126f8565b610e1c565b6103d06103cb36600461241a565b610e34565b6040516101fe91906127de565b61025a6103eb366004612850565b610fa9565b61020f6103fe36600461241a565b611045565b61020f61041136600461241a565b611055565b6101f261042436600461241a565b6000908152603b602052604090205460ff1690565b61020f61044736600461248a565b611091565b6101f261045a366004612873565b6110f9565b61047261046d36600461241a565b611127565b6040516101fe9695949392919061289d565b61025a6104923660046124e1565b6111ea565b60006001600160e01b031982166380ac58cd60e01b14806104c857506001600160e01b03198216635b5e139f60e01b145b806104e357506301ffc9a760e01b6001600160e01b03198316145b92915050565b6060600080546104f8906128dd565b80601f0160208091040260200160405190810160405280929190818152602001828054610524906128dd565b80156105715780601f1061054657610100808354040283529160200191610571565b820191906000526020600020905b81548152906001019060200180831161055457829003601f168201915b5050505050905090565b600061058682611228565b506000828152600460205260409020546001600160a01b03166104e3565b6105af828233611260565b5050565b603960205260009081526040902080546105cc906128dd565b80601f01602080910402602001604051908101604052809291908181526020018280546105f8906128dd565b80156106455780601f1061061a57610100808354040283529160200191610645565b820191906000526020600020905b81548152906001019060200180831161062857829003601f168201915b505050505081565b6001600160a01b03821661067c57604051633250574960e11b8152600060048201526024015b60405180910390fd5b600061068983833361126d565b9050836001600160a01b0316816001600160a01b0316146106d7576040516364283d7b60e01b81526001600160a01b0380861660048301526024820184905282166044820152606401610673565b50505050565b606060198260ff16106107285760405162461bcd60e51b8152602060048201526013602482015272092dcecc2d8d2c840cadaded4d240d2dcc8caf606b1b6044820152606401610673565b60208260ff166019811061073e5761073e612917565b01805461074a906128dd565b80601f0160208091040260200160405190810160405280929190818152602001828054610776906128dd565b80156107c35780601f10610798576101008083540402835291602001916107c3565b820191906000526020600020905b8154815290600101906020018083116107a657829003601f168201915b50505050509050919050565b6107ea83838360405180602001604052806000815250610e1c565b505050565b602081601981106107ff57600080fd5b0180549091506105cc906128dd565b60006104e382611228565b60006001600160a01b038216610845576040516322718ad960e21b815260006004820152602401610673565b506001600160a01b031660009081526003602052604090205490565b610869611361565b610873600061138e565b565b6060600180546104f8906128dd565b6105af3383836113e0565b336001600160a01b037f000000000000000000000000000000000000000000000000000000000000000016146108d75760405162461bcd60e51b81526004016106739061292d565b60006108e28261147f565b6001600160a01b0316036109085760405162461bcd60e51b81526004016106739061295c565b6000818152603b602052604090205460ff16156109585760405162461bcd60e51b815260206004820152600e60248201526d105b1c9958591e48189d5c9b995960921b6044820152606401610673565b6000818152603b60205260409020805460ff1916600117905561097a8161149a565b60405181907fd6acdc6c4f4076335309cf5eeb3b91b03b26861765e0726fce70f4617de8c7c690600090a250565b336001600160a01b037f000000000000000000000000000000000000000000000000000000000000000016146109f05760405162461bcd60e51b81526004016106739061292d565b60006109fb8461147f565b6001600160a01b031614610a485760405162461bcd60e51b8152602060048201526014602482015273546f6b656e20616c72656164792065786973747360601b6044820152606401610673565b6000610a53836114d5565b90506000610a60846117dd565b6040805160e081018252878152602080820188815282840188905242606084015260016080840181905260a0840188905260c0840186905260008b8152603a9093529390912082518155905193945090929091610ac29190830190600461224a565b506040820151600282015560608201516003820155608082015160048201805460ff191691151591909117905560a08201516005820190610b0390826129d0565b5060c08201518160060155905050610b1b8686611a46565b856001600160a01b0316857f4c38d5902c98c43ff17f5136f8a628d5d1fdabe621c0426c7c28f9a0482c27a1868686604051610b5993929190612a90565b60405180910390a3505050505050565b610b716122dd565b610b796122dd565b604080516103208101909152606090600760196000835b82821015610c33578382018054610ba6906128dd565b80601f0160208091040260200160405190810160405280929190818152602001828054610bd2906128dd565b8015610c1f5780601f10610bf457610100808354040283529160200191610c1f565b820191906000526020600020905b815481529060010190602001808311610c0257829003601f168201915b505050505081526020019060010190610b90565b505060408051610320810190915292955060209150601990506000835b82821015610cf3578382018054610c66906128dd565b80601f0160208091040260200160405190810160405280929190818152602001828054610c92906128dd565b8015610cdf5780601f10610cb457610100808354040283529160200191610cdf565b820191906000526020600020905b815481529060010190602001808311610cc257829003601f168201915b505050505081526020019060010190610c50565b5092945060199250610d03915050565b604051908082528060200260200182016040528015610d3657816020015b6060815260200190600190039081610d215790505b50905060005b60198160ff161015610e165760ff811660009081526039602052604090208054610d65906128dd565b80601f0160208091040260200160405190810160405280929190818152602001828054610d91906128dd565b8015610dde5780601f10610db357610100808354040283529160200191610dde565b820191906000526020600020905b815481529060010190602001808311610dc157829003601f168201915b5050505050828260ff1681518110610df857610df8612917565b60200260200101819052508080610e0e90612ad5565b915050610d3c565b50909192565b610e2784848461064d565b6106d73385858585611aab565b610e3c612305565b6000610e478361147f565b6001600160a01b031603610e6d5760405162461bcd60e51b81526004016106739061295c565b6000828152603a60209081526040808320815160e081018352815481528251608081019384905290949193850192909160018501916004918390855b825461010083900a900460ff16815260206001928301818104948501949093039092029101808411610ea9575050509284525050506002820154602082015260038201546040820152600482015460ff1615156060820152600582018054608090920191610f16906128dd565b80601f0160208091040260200160405190810160405280929190818152602001828054610f42906128dd565b8015610f8f5780601f10610f6457610100808354040283529160200191610f8f565b820191906000526020600020905b815481529060010190602001808311610f7257829003601f168201915b505050505081526020016006820154815250509050919050565b336001600160a01b037f00000000000000000000000000000000000000000000000000000000000000001614610ff15760405162461bcd60e51b81526004016106739061292d565b6000610ffc8361147f565b6001600160a01b0316036110225760405162461bcd60e51b81526004016106739061295c565b6000918252603a6020526040909120600401805460ff1916911515919091179055565b600781601981106107ff57600080fd5b606060006110628361147f565b6001600160a01b0316036110885760405162461bcd60e51b81526004016106739061295c565b6104e382611bd6565b606060198260ff16106110dc5760405162461bcd60e51b8152602060048201526013602482015272092dcecc2d8d2c840cadaded4d240d2dcc8caf606b1b6044820152606401610673565b60ff82166000908152603960205260409020805461074a906128dd565b6001600160a01b03918216600090815260056020908152604080832093909416825291909152205460ff1690565b603a602052600090815260409020805460028201546003830154600484015460058501805494959394929360ff90921692611161906128dd565b80601f016020809104026020016040519081016040528092919081815260200182805461118d906128dd565b80156111da5780601f106111af576101008083540402835291602001916111da565b820191906000526020600020905b8154815290600101906020018083116111bd57829003601f168201915b5050505050908060060154905086565b6111f2611361565b6001600160a01b03811661121c57604051631e4fbdf760e01b815260006004820152602401610673565b6112258161138e565b50565b6000806112348361147f565b90506001600160a01b0381166104e357604051637e27328960e01b815260048101849052602401610673565b6107ea8383836001611db6565b6000806112798461147f565b90506001600160a01b0383161561129557611295818486611ebc565b6001600160a01b038116156112d3576112b2600085600080611db6565b6001600160a01b038116600090815260036020526040902080546000190190555b6001600160a01b03851615611302576001600160a01b0385166000908152600360205260409020805460010190555b60008481526002602052604080822080546001600160a01b0319166001600160a01b0389811691821790925591518793918516917fddf252ad1be2c89b69c2b068fc378daa952ba7f163c4a11628f55a4df523b3ef91a4949350505050565b6006546001600160a01b031633146108735760405163118cdaa760e01b8152336004820152602401610673565b600680546001600160a01b038381166001600160a01b0319831681179093556040519116919082907f8be0079c531659141344cd1fd0a4f28419497f9722a3daafe3b4186f6b6457e090600090a35050565b6001600160a01b03821661141257604051630b61174360e31b81526001600160a01b0383166004820152602401610673565b6001600160a01b03838116600081815260056020908152604080832094871680845294825291829020805460ff191686151590811790915591519182527f17307eab39ab6107e8899845ad3d59bd9653f200f220920489ca2b5937696c31910160405180910390a3505050565b6000908152600260205260409020546001600160a01b031690565b60006114a9600083600061126d565b90506001600160a01b0381166105af57604051637e27328960e01b815260048101839052602401610673565b60606000806000806000805b60048160ff1610156115a7576000888260ff166004811061150457611504612917565b602002015190508060ff1660010361151b57600196505b8060ff1660020361152b57600195505b60ff8116158061153e57508060ff166006145b1561154857600194505b8060ff166003148061155d57508060ff166004145b8061156b57508060ff166005145b1561157557600193505b8060ff16600c148061158a57508060ff166012145b1561159457600192505b508061159f81612ad5565b9150506114e1565b508480156115b25750835b156115ed575050604080518082019091526014815273111a585b5bdb990812185b991cc8149bd8dad95d60621b602082015295945050505050565b8480156115f75750825b1561162b57505060408051808201909152600d81526c4469616d6f6e64204d6f6e657960981b602082015295945050505050565b8380156116355750825b1561166d57505060408051808201909152601181527026b7b732bc903a37903a34329026b7b7b760791b602082015295945050505050565b8180156116775750805b156116ab57505060408051808201909152600d81526c263ab1b5bc9023b0b6b13632b960991b602082015295945050505050565b84156116e057505060408051808201909152600d81526c4469616d6f6e642048616e647360981b602082015295945050505050565b831561171357505060408051808201909152600b81526a2a37903a34329026b7b7b760a91b602082015295945050505050565b821561174657505060408051808201909152600b81526a26b7b732bc9026b0b5b2b960a91b602082015295945050505050565b811561177957505060408051808201909152600b81526a2434b3b4102937b63632b960a91b602082015295945050505050565b80156117ac57505060408051808201909152600b81526a4c75636b7920436861726d60a81b602082015295945050505050565b505060408051808201909152600f81526e21b93cb83a379022bc383637b932b960891b602082015295945050505050565b600080805b60048160ff1610156118e7576000848260ff166004811061180557611805612917565b6020020151905060ff8116158061181f57508060ff166001145b8061182d57508060ff166002145b156118445761183d601984612af4565b92506118d4565b8060ff16600a148061185957508060ff16600b145b8061186757508060ff16600f145b8061187557508060ff166010145b156118855761183d600f84612af4565b8060ff166003148061189a57508060ff166004145b806118a857508060ff166005145b806118b657508060ff166007145b156118c65761183d600a84612af4565b6118d1600584612af4565b92505b50806118df81612ad5565b9150506117e2565b506000805b60048160ff161015611a2a57848160ff166004811061190d5761190d612917565b602002015160ff16158061193d5750848160ff166004811061193157611931612917565b602002015160ff166001145b806119645750848160ff166004811061195857611958612917565b602002015160ff166002145b15611a13576000611976826001612b07565b90505b60048160ff161015611a1157858160ff166004811061199a5761199a612917565b602002015160ff1615806119ca5750858160ff16600481106119be576119be612917565b602002015160ff166001145b806119f15750858160ff16600481106119e5576119e5612917565b602002015160ff166002145b156119ff5760019250611a11565b80611a0981612ad5565b915050611979565b505b81611a2a5780611a2281612ad5565b9150506118ec565b508015611a3f57611a3c603283612af4565b91505b5092915050565b6001600160a01b038216611a7057604051633250574960e11b815260006004820152602401610673565b6000611a7e8383600061126d565b90506001600160a01b038116156107ea576040516339e3563760e11b815260006004820152602401610673565b6001600160a01b0383163b15611bcf57604051630a85bd0160e11b81526001600160a01b0384169063150b7a0290611aed908890889087908790600401612b20565b6020604051808303816000875af1925050508015611b28575060408051601f3d908101601f19168201909252611b2591810190612b5d565b60015b611b91573d808015611b56576040519150601f19603f3d011682016040523d82523d6000602084013e611b5b565b606091505b508051600003611b8957604051633250574960e11b81526001600160a01b0385166004820152602401610673565b805181602001fd5b6001600160e01b03198116630a85bd0160e11b14611bcd57604051633250574960e11b81526001600160a01b0385166004820152602401610673565b505b5050505050565b6000818152603a60209081526040808320815160e08101835281548152825160808101938490526060959491939184019160018401906004908288855b825461010083900a900460ff16815260206001928301818104948501949093039092029101808411611c13575050509284525050506002820154602082015260038201546040820152600482015460ff1615156060820152600582018054608090920191611c80906128dd565b80601f0160208091040260200160405190810160405280929190818152602001828054611cac906128dd565b8015611cf95780601f10611cce57610100808354040283529160200191611cf9565b820191906000526020600020905b815481529060010190602001808311611cdc57829003601f168201915b5050505050815260200160068201548152505090506000611d1984611f20565b604051602001611d299190612b96565b60405160208183030381529060405290506000611d498360400151611f20565b8360a00151604051602001611d5f929190612bd0565b60405160208183030381529060405290506000611d7b84611fb3565b9050828282611d8989611f20565b604051602001611d9c9493929190612c4e565b604051602081830303815290604052945050505050919050565b8080611dca57506001600160a01b03821615155b15611e8c576000611dda84611228565b90506001600160a01b03831615801590611e065750826001600160a01b0316816001600160a01b031614155b8015611e195750611e1781846110f9565b155b15611e425760405163a9fbf51f60e01b81526001600160a01b0384166004820152602401610673565b8115611e8a5783856001600160a01b0316826001600160a01b03167f8c5be1e5ebec7d5bd14f71427d1e84f3dd0314c0f7b2291e5b200ac8c7c3b92560405160405180910390a45b505b5050600090815260046020526040902080546001600160a01b0319166001600160a01b0392909216919091179055565b611ec783838361210c565b6107ea576001600160a01b038316611ef557604051637e27328960e01b815260048101829052602401610673565b60405163177e802f60e01b81526001600160a01b038316600482015260248101829052604401610673565b60606000611f2d83612172565b600101905060008167ffffffffffffffff811115611f4d57611f4d61253f565b6040519080825280601f01601f191660200182016040528015611f77576020820181803683370190505b5090508181016020015b600019016f181899199a1a9b1b9c1cb0b131b232b360811b600a86061a8153600a8504945084611f8157509392505050565b60408051602081019091526000808252606091905b60048160ff16101561207a5781600785602001518360ff1660048110611ff057611ff0612917565b602002015160ff166019811061200857612008612917565b0160038360ff16106120295760405180602001604052806000815250612044565b604051806040016040528060018152602001600160fd1b8152505b60405160200161205693929190612d61565b6040516020818303038152906040529150808061207290612ad5565b915050611fc8565b506120888360400151611f20565b8360a0015161209a8560c00151611f20565b8386608001516120c457604051806040016040528060028152602001614e6f60f01b8152506120e1565b6040518060400160405280600381526020016259657360e81b8152505b6040516020016120f5959493929190612e01565b604051602081830303815290604052915050919050565b60006001600160a01b0383161580159061216a5750826001600160a01b0316846001600160a01b03161480612146575061214684846110f9565b8061216a57506000828152600460205260409020546001600160a01b038481169116145b949350505050565b60008072184f03e93ff9f4daa797ed6e38ed64bf6a1f0160401b83106121b15772184f03e93ff9f4daa797ed6e38ed64bf6a1f0160401b830492506040015b6d04ee2d6d415b85acef810000000083106121dd576d04ee2d6d415b85acef8100000000830492506020015b662386f26fc1000083106121fb57662386f26fc10000830492506010015b6305f5e1008310612213576305f5e100830492506008015b612710831061222757612710830492506004015b60648310612239576064830492506002015b600a83106104e35760010192915050565b6001830191839082156122cd5791602002820160005b8382111561229e57835183826101000a81548160ff021916908360ff1602179055509260200192600101602081600001049283019260010302612260565b80156122cb5782816101000a81549060ff021916905560010160208160000104928301926001030261229e565b505b506122d992915061234a565b5090565b6040518061032001604052806019905b60608152602001906001900390816122ed5790505090565b6040518060e001604052806000815260200161231f61235f565b8152602001600081526020016000815260200160001515815260200160608152602001600081525090565b5b808211156122d9576000815560010161234b565b60405180608001604052806004906020820280368337509192915050565b6001600160e01b03198116811461122557600080fd5b6000602082840312156123a557600080fd5b81356123b08161237d565b9392505050565b60005b838110156123d25781810151838201526020016123ba565b50506000910152565b600081518084526123f38160208601602086016123b7565b601f01601f19169290920160200192915050565b6020815260006123b060208301846123db565b60006020828403121561242c57600080fd5b5035919050565b80356001600160a01b038116811461244a57600080fd5b919050565b6000806040838503121561246257600080fd5b61246b83612433565b946020939093013593505050565b803560ff8116811461244a57600080fd5b60006020828403121561249c57600080fd5b6123b082612479565b6000806000606084860312156124ba57600080fd5b6124c384612433565b92506124d160208501612433565b9150604084013590509250925092565b6000602082840312156124f357600080fd5b6123b082612433565b8035801515811461244a57600080fd5b6000806040838503121561251f57600080fd5b61252883612433565b9150612536602084016124fc565b90509250929050565b634e487b7160e01b600052604160045260246000fd5b604051601f8201601f1916810167ffffffffffffffff8111828210171561257e5761257e61253f565b604052919050565b60008060008060e0858703121561259c57600080fd5b6125a585612433565b9350602080860135935086605f8701126125be57600080fd5b6040516080810181811067ffffffffffffffff821117156125e1576125e161253f565b6040528060c08801898111156125f657600080fd5b604089015b818110156126195761260c81612479565b83529184019184016125fb565b50969995985090965050933593505050565b60008261032081018360005b60198110156126665783830387526126508383516123db565b6020978801979093509190910190600101612637565b509095945050505050565b606081526000612684606083018661262b565b602083820381850152612697828761262b565b915083820360408501528185518084528284019150828160051b85010183880160005b838110156126e857601f198784030185526126d68383516123db565b948601949250908501906001016126ba565b50909a9950505050505050505050565b6000806000806080858703121561270e57600080fd5b61271785612433565b93506020612726818701612433565b935060408601359250606086013567ffffffffffffffff8082111561274a57600080fd5b818801915088601f83011261275e57600080fd5b8135818111156127705761277061253f565b612782601f8201601f19168501612555565b9150808252898482850101111561279857600080fd5b808484018584013760008482840101525080935050505092959194509250565b8060005b60048110156106d757815160ff168452602093840193909101906001016127bc565b6020815281516020820152600060208301516127fd60408401826127b8565b50604083015160c0830152606083015160e08301526080830151151561010083015260a08301516101408061012085015261283c6101608501836123db565b60c095909501519301929092525090919050565b6000806040838503121561286357600080fd5b82359150612536602084016124fc565b6000806040838503121561288657600080fd5b61288f83612433565b915061253660208401612433565b868152856020820152846040820152831515606082015260c0608082015260006128ca60c08301856123db565b90508260a0830152979650505050505050565b600181811c908216806128f157607f821691505b60208210810361291157634e487b7160e01b600052602260045260246000fd5b50919050565b634e487b7160e01b600052603260045260246000fd5b60208082526015908201527413db9b1e481b1bdd1d195c9e4818dbdb9d1c9858dd605a1b604082015260600190565b602080825260149082015273151bdad95b88191bd95cc81b9bdd08195e1a5cdd60621b604082015260600190565b601f8211156107ea57600081815260208120601f850160051c810160208610156129b15750805b601f850160051c820191505b81811015611bcd578281556001016129bd565b815167ffffffffffffffff8111156129ea576129ea61253f565b6129fe816129f884546128dd565b8461298a565b602080601f831160018114612a335760008415612a1b5750858301515b600019600386901b1c1916600185901b178555611bcd565b600085815260208120601f198616915b82811015612a6257888601518255948401946001909101908401612a43565b5085821015612a805787850151600019600388901b60f8161c191681555b5050505050600190811b01905550565b612a9a81856127b8565b82608082015260c060a08201526000612ab660c08301846123db565b95945050505050565b634e487b7160e01b600052601160045260246000fd5b600060ff821660ff8103612aeb57612aeb612abf565b60010192915050565b808201808211156104e3576104e3612abf565b60ff81811683821601908111156104e3576104e3612abf565b6001600160a01b0385811682528416602082015260408101839052608060608201819052600090612b53908301846123db565b9695505050505050565b600060208284031215612b6f57600080fd5b81516123b08161237d565b60008151612b8c8185602086016123b7565b9290920192915050565b714c6f74746f4d6f6a69205469636b6574202360701b815260008251612bc38160128501602087016123b7565b9190910160120192915050565b7f43727970746f20456d6f6a69204c6f7474657279205469636b6574202d204761815266036b2902230bc960cd1b602082015260008351612c188160278501602088016123b7565b6901016902a3432b6b29d160b51b6027918401918201528351612c428160318401602088016123b7565b01603101949350505050565b693d913730b6b2911d101160b11b81528451600090612c7481600a850160208a016123b7565b61088b60f21b600a9184019182018190526f113232b9b1b934b83a34b7b7111d101160811b600c8301528651612cb181601c850160208b016123b7565b601c9201918201526e2261747472696275746573223a205b60881b601e8201528451612ce481602d8401602089016123b7565b61174b60f21b602d92909101918201527f2265787465726e616c5f75726c223a202268747470733a2f2f6c6f74746f6d6f602f820152746a692e76657263656c2e6170702f7469636b65742f60581b604f820152612d56612d486064830186612b7a565b61227d60f01b815260020190565b979650505050505050565b600084516020612d748285838a016123b7565b818401915060008654612d86816128dd565b60018281168015612d9e5760018114612db357612ddf565b60ff1984168752821515830287019450612ddf565b8a6000528560002060005b84811015612dd757815489820152908301908701612dbe565b505082870194505b5050505085519250612df483828489016123b7565b9091019695505050505050565b7f7b2274726169745f74797065223a202247616d6520446179222c202276616c7581526432911d101160d91b602082015260008651612e47816025850160208b016123b7565b62089f4b60ea1b60259184019182018190527f7b2274726169745f74797065223a202243727970746f205468656d65222c20226028830152683b30b63ab2911d101160b91b60488301528751612ea4816051850160208c016123b7565b60519201918201527f7b2274726169745f74797065223a20225261726974792053636f7265222c202260548201526703b30b63ab2911d160c51b6074820152612fea612fa3612f4f612f9d612f5e82612f49612f14612f06607c8a018f612b7a565b611f4b60f21b815260020190565b7f7b2274726169745f74797065223a2022456d6f6a6973222c202276616c7565228152621d101160e91b602082015260230190565b8b612b7a565b62089f4b60ea1b815260030190565b7f7b2274726169745f74797065223a20225265736572766520456c696769626c6581526c111610113b30b63ab2911d101160991b6020820152602d0190565b87612b7a565b7f7b2274726169745f74797065223a202243617465676f7279222c202276616c7581527465223a20224c6f7474657279205469636b6574227d60581b602082015260350190565b9897505050505050505056fea264697066735822122011ba9cdcd48610f477320e1ddbdfdfe5f69a5741fbb8a15c7d5633154b68f95b64736f6c63430008140033",
  "linkReferences": {},
  "deployedLinkReferences": {}
}