{
  "_format": "hh-sol-artifact-1",
  "contractName": "LottoMojiCore",
  "sourceName": "contracts/LottoMojiCore.sol",
  "abi": [
    {
      "inputs": [
        {
          "internalType": "address",
          "name": "_usdcToken",
          "type": "address"
        },
        {
          "internalType": "uint256",
          "name": "_subscriptionId",
          "type": "uint256"
        },
        {
          "internalType": "uint256",
          "name": "_drawTimeUTC",
          "type": "uint256"
        }
      ],
      "stateMutability": "nonpayable",
      "type": "constructor"
    },
    {
      "inputs": [],
      "name": "ERC721EnumerableForbiddenBatchMint",
      "type": "error"
    },
    {
      "inputs": [
        {
          "internalType": "address",
          "name": "sender",
          "type": "address"
        },
        {
          "internalType": "uint256",
          "name": "tokenId",
          "type": "uint256"
        },
        {
          "internalType": "address",
          "name": "owner",
          "type": "address"
        }
      ],
      "name": "ERC721IncorrectOwner",
      "type": "error"
    },
    {
      "inputs": [
        {
          "internalType": "address",
          "name": "operator",
          "type": "address"
        },
        {
          "internalType": "uint256",
          "name": "tokenId",
          "type": "uint256"
        }
      ],
      "name": "ERC721InsufficientApproval",
      "type": "error"
    },
    {
      "inputs": [
        {
          "internalType": "address",
          "name": "approver",
          "type": "address"
        }
      ],
      "name": "ERC721InvalidApprover",
      "type": "error"
    },
    {
      "inputs": [
        {
          "internalType": "address",
          "name": "operator",
          "type": "address"
        }
      ],
      "name": "ERC721InvalidOperator",
      "type": "error"
    },
    {
      "inputs": [
        {
          "internalType": "address",
          "name": "owner",
          "type": "address"
        }
      ],
      "name": "ERC721InvalidOwner",
      "type": "error"
    },
    {
      "inputs": [
        {
          "internalType": "address",
          "name": "receiver",
          "type": "address"
        }
      ],
      "name": "ERC721InvalidReceiver",
      "type": "error"
    },
    {
      "inputs": [
        {
          "internalType": "address",
          "name": "sender",
          "type": "address"
        }
      ],
      "name": "ERC721InvalidSender",
      "type": "error"
    },
    {
      "inputs": [
        {
          "internalType": "uint256",
          "name": "tokenId",
          "type": "uint256"
        }
      ],
      "name": "ERC721NonexistentToken",
      "type": "error"
    },
    {
      "inputs": [
        {
          "internalType": "address",
          "name": "owner",
          "type": "address"
        },
        {
          "internalType": "uint256",
          "name": "index",
          "type": "uint256"
        }
      ],
      "name": "ERC721OutOfBoundsIndex",
      "type": "error"
    },
    {
      "inputs": [
        {
          "internalType": "address",
          "name": "have",
          "type": "address"
        },
        {
          "internalType": "address",
          "name": "want",
          "type": "address"
        }
      ],
      "name": "OnlyCoordinatorCanFulfill",
      "type": "error"
    },
    {
      "inputs": [
        {
          "internalType": "address",
          "name": "have",
          "type": "address"
        },
        {
          "internalType": "address",
          "name": "owner",
          "type": "address"
        },
        {
          "internalType": "address",
          "name": "coordinator",
          "type": "address"
        }
      ],
      "name": "OnlyOwnerOrCoordinator",
      "type": "error"
    },
    {
      "inputs": [],
      "name": "ReentrancyGuardReentrantCall",
      "type": "error"
    },
    {
      "inputs": [],
      "name": "ZeroAddress",
      "type": "error"
    },
    {
      "anonymous": false,
      "inputs": [
        {
          "indexed": true,
          "internalType": "address",
          "name": "owner",
          "type": "address"
        },
        {
          "indexed": true,
          "internalType": "address",
          "name": "approved",
          "type": "address"
        },
        {
          "indexed": true,
          "internalType": "uint256",
          "name": "tokenId",
          "type": "uint256"
        }
      ],
      "name": "Approval",
      "type": "event"
    },
    {
      "anonymous": false,
      "inputs": [
        {
          "indexed": true,
          "internalType": "address",
          "name": "owner",
          "type": "address"
        },
        {
          "indexed": true,
          "internalType": "address",
          "name": "operator",
          "type": "address"
        },
        {
          "indexed": false,
          "internalType": "bool",
          "name": "approved",
          "type": "bool"
        }
      ],
      "name": "ApprovalForAll",
      "type": "event"
    },
    {
      "anonymous": false,
      "inputs": [
        {
          "indexed": false,
          "internalType": "address",
          "name": "vrfCoordinator",
          "type": "address"
        }
      ],
      "name": "CoordinatorSet",
      "type": "event"
    },
    {
      "anonymous": false,
      "inputs": [
        {
          "indexed": true,
          "internalType": "uint256",
          "name": "gameDay",
          "type": "uint256"
        },
        {
          "indexed": false,
          "internalType": "uint256",
          "name": "firstReserveAmount",
          "type": "uint256"
        },
        {
          "indexed": false,
          "internalType": "uint256",
          "name": "secondReserveAmount",
          "type": "uint256"
        },
        {
          "indexed": false,
          "internalType": "uint256",
          "name": "thirdReserveAmount",
          "type": "uint256"
        },
        {
          "indexed": false,
          "internalType": "uint256",
          "name": "totalSent",
          "type": "uint256"
        }
      ],
      "name": "DailyReservesSent",
      "type": "event"
    },
    {
      "anonymous": false,
      "inputs": [
        {
          "indexed": true,
          "internalType": "uint256",
          "name": "gameDay",
          "type": "uint256"
        },
        {
          "indexed": false,
          "internalType": "uint8[4]",
          "name": "winningNumbers",
          "type": "uint8[4]"
        },
        {
          "indexed": false,
          "internalType": "uint256",
          "name": "totalMainPools",
          "type": "uint256"
        }
      ],
      "name": "DrawExecuted",
      "type": "event"
    },
    {
      "anonymous": false,
      "inputs": [
        {
          "indexed": false,
          "internalType": "uint256",
          "name": "oldTime",
          "type": "uint256"
        },
        {
          "indexed": false,
          "internalType": "uint256",
          "name": "newTime",
          "type": "uint256"
        },
        {
          "indexed": false,
          "internalType": "uint256",
          "name": "newGameDay",
          "type": "uint256"
        }
      ],
      "name": "DrawTimeUTCUpdated",
      "type": "event"
    },
    {
      "anonymous": false,
      "inputs": [
        {
          "indexed": false,
          "internalType": "uint256",
          "name": "oldTime",
          "type": "uint256"
        },
        {
          "indexed": false,
          "internalType": "uint256",
          "name": "newTime",
          "type": "uint256"
        },
        {
          "indexed": false,
          "internalType": "uint256",
          "name": "newGameDay",
          "type": "uint256"
        }
      ],
      "name": "LastDrawTimeUpdated",
      "type": "event"
    },
    {
      "anonymous": false,
      "inputs": [
        {
          "indexed": true,
          "internalType": "address",
          "name": "from",
          "type": "address"
        },
        {
          "indexed": true,
          "internalType": "address",
          "name": "to",
          "type": "address"
        }
      ],
      "name": "OwnershipTransferRequested",
      "type": "event"
    },
    {
      "anonymous": false,
      "inputs": [
        {
          "indexed": true,
          "internalType": "address",
          "name": "from",
          "type": "address"
        },
        {
          "indexed": true,
          "internalType": "address",
          "name": "to",
          "type": "address"
        }
      ],
      "name": "OwnershipTransferred",
      "type": "event"
    },
    {
      "anonymous": false,
      "inputs": [
        {
          "indexed": true,
          "internalType": "uint256",
          "name": "ticketId",
          "type": "uint256"
        },
        {
          "indexed": true,
          "internalType": "address",
          "name": "winner",
          "type": "address"
        },
        {
          "indexed": false,
          "internalType": "uint256",
          "name": "amount",
          "type": "uint256"
        },
        {
          "indexed": false,
          "internalType": "uint8",
          "name": "prizeLevel",
          "type": "uint8"
        },
        {
          "indexed": false,
          "internalType": "bool",
          "name": "reserveUsedForRefill",
          "type": "bool"
        }
      ],
      "name": "PrizeClaimed",
      "type": "event"
    },
    {
      "anonymous": false,
      "inputs": [
        {
          "indexed": true,
          "internalType": "uint256",
          "name": "gameDay",
          "type": "uint256"
        },
        {
          "indexed": false,
          "internalType": "uint8",
          "name": "prizeLevel",
          "type": "uint8"
        },
        {
          "indexed": false,
          "internalType": "uint256",
          "name": "amountTransferred",
          "type": "uint256"
        }
      ],
      "name": "ReserveUsedForRefill",
      "type": "event"
    },
    {
      "anonymous": false,
      "inputs": [
        {
          "indexed": true,
          "internalType": "uint256",
          "name": "ticketId",
          "type": "uint256"
        },
        {
          "indexed": true,
          "internalType": "address",
          "name": "buyer",
          "type": "address"
        },
        {
          "indexed": false,
          "internalType": "uint8[4]",
          "name": "numbers",
          "type": "uint8[4]"
        },
        {
          "indexed": false,
          "internalType": "uint256",
          "name": "gameDay",
          "type": "uint256"
        }
      ],
      "name": "TicketPurchased",
      "type": "event"
    },
    {
      "anonymous": false,
      "inputs": [
        {
          "indexed": true,
          "internalType": "address",
          "name": "from",
          "type": "address"
        },
        {
          "indexed": true,
          "internalType": "address",
          "name": "to",
          "type": "address"
        },
        {
          "indexed": true,
          "internalType": "uint256",
          "name": "tokenId",
          "type": "uint256"
        }
      ],
      "name": "Transfer",
      "type": "event"
    },
    {
      "inputs": [],
      "name": "DAILY_RESERVE_PERCENTAGE",
      "outputs": [
        {
          "internalType": "uint256",
          "name": "",
          "type": "uint256"
        }
      ],
      "stateMutability": "view",
      "type": "function"
    },
    {
      "inputs": [],
      "name": "DEVELOPMENT_PERCENTAGE",
      "outputs": [
        {
          "internalType": "uint256",
          "name": "",
          "type": "uint256"
        }
      ],
      "stateMutability": "view",
      "type": "function"
    },
    {
      "inputs": [],
      "name": "DRAW_INTERVAL",
      "outputs": [
        {
          "internalType": "uint256",
          "name": "",
          "type": "uint256"
        }
      ],
      "stateMutability": "view",
      "type": "function"
    },
    {
      "inputs": [],
      "name": "EMOJI_COUNT",
      "outputs": [
        {
          "internalType": "uint8",
          "name": "",
          "type": "uint8"
        }
      ],
      "stateMutability": "view",
      "type": "function"
    },
    {
      "inputs": [],
      "name": "FIRST_PRIZE_PERCENTAGE",
      "outputs": [
        {
          "internalType": "uint256",
          "name": "",
          "type": "uint256"
        }
      ],
      "stateMutability": "view",
      "type": "function"
    },
    {
      "inputs": [],
      "name": "MAIN_POOL_PERCENTAGE",
      "outputs": [
        {
          "internalType": "uint256",
          "name": "",
          "type": "uint256"
        }
      ],
      "stateMutability": "view",
      "type": "function"
    },
    {
      "inputs": [],
      "name": "SECOND_PRIZE_PERCENTAGE",
      "outputs": [
        {
          "internalType": "uint256",
          "name": "",
          "type": "uint256"
        }
      ],
      "stateMutability": "view",
      "type": "function"
    },
    {
      "inputs": [],
      "name": "THIRD_PRIZE_PERCENTAGE",
      "outputs": [
        {
          "internalType": "uint256",
          "name": "",
          "type": "uint256"
        }
      ],
      "stateMutability": "view",
      "type": "function"
    },
    {
      "inputs": [],
      "name": "TICKET_PRICE",
      "outputs": [
        {
          "internalType": "uint256",
          "name": "",
          "type": "uint256"
        }
      ],
      "stateMutability": "view",
      "type": "function"
    },
    {
      "inputs": [],
      "name": "acceptOwnership",
      "outputs": [],
      "stateMutability": "nonpayable",
      "type": "function"
    },
    {
      "inputs": [
        {
          "internalType": "address",
          "name": "to",
          "type": "address"
        },
        {
          "internalType": "uint256",
          "name": "tokenId",
          "type": "uint256"
        }
      ],
      "name": "approve",
      "outputs": [],
      "stateMutability": "nonpayable",
      "type": "function"
    },
    {
      "inputs": [],
      "name": "automationActive",
      "outputs": [
        {
          "internalType": "bool",
          "name": "",
          "type": "bool"
        }
      ],
      "stateMutability": "view",
      "type": "function"
    },
    {
      "inputs": [
        {
          "internalType": "address",
          "name": "owner",
          "type": "address"
        }
      ],
      "name": "balanceOf",
      "outputs": [
        {
          "internalType": "uint256",
          "name": "",
          "type": "uint256"
        }
      ],
      "stateMutability": "view",
      "type": "function"
    },
    {
      "inputs": [
        {
          "internalType": "uint8[4]",
          "name": "_numbers",
          "type": "uint8[4]"
        }
      ],
      "name": "buyTicket",
      "outputs": [],
      "stateMutability": "nonpayable",
      "type": "function"
    },
    {
      "inputs": [
        {
          "internalType": "bytes",
          "name": "",
          "type": "bytes"
        }
      ],
      "name": "checkUpkeep",
      "outputs": [
        {
          "internalType": "bool",
          "name": "upkeepNeeded",
          "type": "bool"
        },
        {
          "internalType": "bytes",
          "name": "",
          "type": "bytes"
        }
      ],
      "stateMutability": "view",
      "type": "function"
    },
    {
      "inputs": [
        {
          "internalType": "uint256",
          "name": "_ticketId",
          "type": "uint256"
        }
      ],
      "name": "claimPrize",
      "outputs": [],
      "stateMutability": "nonpayable",
      "type": "function"
    },
    {
      "inputs": [],
      "name": "currentGameDay",
      "outputs": [
        {
          "internalType": "uint256",
          "name": "",
          "type": "uint256"
        }
      ],
      "stateMutability": "view",
      "type": "function"
    },
    {
      "inputs": [
        {
          "internalType": "uint256",
          "name": "",
          "type": "uint256"
        }
      ],
      "name": "dailyPools",
      "outputs": [
        {
          "internalType": "uint256",
          "name": "totalCollected",
          "type": "uint256"
        },
        {
          "internalType": "uint256",
          "name": "mainPoolPortion",
          "type": "uint256"
        },
        {
          "internalType": "uint256",
          "name": "reservePortion",
          "type": "uint256"
        },
        {
          "internalType": "uint256",
          "name": "firstPrizeDaily",
          "type": "uint256"
        },
        {
          "internalType": "uint256",
          "name": "secondPrizeDaily",
          "type": "uint256"
        },
        {
          "internalType": "uint256",
          "name": "thirdPrizeDaily",
          "type": "uint256"
        },
        {
          "internalType": "uint256",
          "name": "developmentDaily",
          "type": "uint256"
        },
        {
          "internalType": "bool",
          "name": "distributed",
          "type": "bool"
        },
        {
          "internalType": "uint256",
          "name": "distributionTime",
          "type": "uint256"
        },
        {
          "internalType": "bool",
          "name": "drawn",
          "type": "bool"
        },
        {
          "internalType": "bool",
          "name": "reservesSent",
          "type": "bool"
        }
      ],
      "stateMutability": "view",
      "type": "function"
    },
    {
      "inputs": [],
      "name": "drawTimeUTC",
      "outputs": [
        {
          "internalType": "uint256",
          "name": "",
          "type": "uint256"
        }
      ],
      "stateMutability": "view",
      "type": "function"
    },
    {
      "inputs": [],
      "name": "emergencyPause",
      "outputs": [
        {
          "internalType": "bool",
          "name": "",
          "type": "bool"
        }
      ],
      "stateMutability": "view",
      "type": "function"
    },
    {
      "inputs": [],
      "name": "gameActive",
      "outputs": [
        {
          "internalType": "bool",
          "name": "",
          "type": "bool"
        }
      ],
      "stateMutability": "view",
      "type": "function"
    },
    {
      "inputs": [
        {
          "internalType": "uint256",
          "name": "",
          "type": "uint256"
        },
        {
          "internalType": "uint256",
          "name": "",
          "type": "uint256"
        }
      ],
      "name": "gameDayTickets",
      "outputs": [
        {
          "internalType": "uint256",
          "name": "",
          "type": "uint256"
        }
      ],
      "stateMutability": "view",
      "type": "function"
    },
    {
      "inputs": [
        {
          "internalType": "uint256",
          "name": "tokenId",
          "type": "uint256"
        }
      ],
      "name": "getApproved",
      "outputs": [
        {
          "internalType": "address",
          "name": "",
          "type": "address"
        }
      ],
      "stateMutability": "view",
      "type": "function"
    },
    {
      "inputs": [],
      "name": "getCurrentDay",
      "outputs": [
        {
          "internalType": "uint256",
          "name": "",
          "type": "uint256"
        }
      ],
      "stateMutability": "view",
      "type": "function"
    },
    {
      "inputs": [
        {
          "internalType": "uint256",
          "name": "gameDay",
          "type": "uint256"
        }
      ],
      "name": "getDailyPoolInfo",
      "outputs": [
        {
          "internalType": "uint256",
          "name": "totalCollected",
          "type": "uint256"
        },
        {
          "internalType": "uint256",
          "name": "mainPoolPortion",
          "type": "uint256"
        },
        {
          "internalType": "uint256",
          "name": "reservePortion",
          "type": "uint256"
        },
        {
          "internalType": "bool",
          "name": "distributed",
          "type": "bool"
        },
        {
          "internalType": "bool",
          "name": "drawn",
          "type": "bool"
        },
        {
          "internalType": "uint8[4]",
          "name": "winningNumbers",
          "type": "uint8[4]"
        }
      ],
      "stateMutability": "view",
      "type": "function"
    },
    {
      "inputs": [
        {
          "internalType": "uint256",
          "name": "ticketId",
          "type": "uint256"
        }
      ],
      "name": "getFullTicketInfo",
      "outputs": [
        {
          "internalType": "address",
          "name": "ticketOwner",
          "type": "address"
        },
        {
          "internalType": "uint8[4]",
          "name": "numbers",
          "type": "uint8[4]"
        },
        {
          "internalType": "uint256",
          "name": "gameDay",
          "type": "uint256"
        },
        {
          "internalType": "bool",
          "name": "isActive",
          "type": "bool"
        },
        {
          "internalType": "uint256",
          "name": "purchaseTime",
          "type": "uint256"
        },
        {
          "internalType": "bool",
          "name": "eligibleForReserve",
          "type": "bool"
        },
        {
          "internalType": "uint8",
          "name": "prizeLevel",
          "type": "uint8"
        }
      ],
      "stateMutability": "view",
      "type": "function"
    },
    {
      "inputs": [
        {
          "internalType": "uint256",
          "name": "gameDay",
          "type": "uint256"
        }
      ],
      "name": "getGameDayTickets",
      "outputs": [
        {
          "internalType": "uint256[]",
          "name": "",
          "type": "uint256[]"
        }
      ],
      "stateMutability": "view",
      "type": "function"
    },
    {
      "inputs": [],
      "name": "getMainPoolBalances",
      "outputs": [
        {
          "internalType": "uint256",
          "name": "firstPrizeAccumulated",
          "type": "uint256"
        },
        {
          "internalType": "uint256",
          "name": "secondPrizeAccumulated",
          "type": "uint256"
        },
        {
          "internalType": "uint256",
          "name": "thirdPrizeAccumulated",
          "type": "uint256"
        },
        {
          "internalType": "uint256",
          "name": "developmentAccumulated",
          "type": "uint256"
        }
      ],
      "stateMutability": "view",
      "type": "function"
    },
    {
      "inputs": [],
      "name": "getReserveBalances",
      "outputs": [
        {
          "internalType": "uint256",
          "name": "firstPrizeReserve",
          "type": "uint256"
        },
        {
          "internalType": "uint256",
          "name": "secondPrizeReserve",
          "type": "uint256"
        },
        {
          "internalType": "uint256",
          "name": "thirdPrizeReserve",
          "type": "uint256"
        }
      ],
      "stateMutability": "view",
      "type": "function"
    },
    {
      "inputs": [
        {
          "internalType": "uint256",
          "name": "ticketId",
          "type": "uint256"
        }
      ],
      "name": "getTicketInfo",
      "outputs": [
        {
          "internalType": "address",
          "name": "ticketOwner",
          "type": "address"
        },
        {
          "internalType": "uint8[4]",
          "name": "numbers",
          "type": "uint8[4]"
        },
        {
          "internalType": "uint256",
          "name": "gameDay",
          "type": "uint256"
        },
        {
          "internalType": "bool",
          "name": "isActive",
          "type": "bool"
        },
        {
          "internalType": "uint8",
          "name": "prizeLevel",
          "type": "uint8"
        }
      ],
      "stateMutability": "view",
      "type": "function"
    },
    {
      "inputs": [
        {
          "internalType": "uint256",
          "name": "ticketId",
          "type": "uint256"
        }
      ],
      "name": "getTicketPrizeDetails",
      "outputs": [
        {
          "internalType": "uint8",
          "name": "prizeLevel",
          "type": "uint8"
        },
        {
          "internalType": "uint8",
          "name": "exactMatches",
          "type": "uint8"
        },
        {
          "internalType": "uint8",
          "name": "anyOrderMatches",
          "type": "uint8"
        },
        {
          "internalType": "uint256",
          "name": "prizeAmount",
          "type": "uint256"
        },
        {
          "internalType": "string",
          "name": "prizeDescription",
          "type": "string"
        }
      ],
      "stateMutability": "view",
      "type": "function"
    },
    {
      "inputs": [
        {
          "internalType": "address",
          "name": "user",
          "type": "address"
        }
      ],
      "name": "getUserTickets",
      "outputs": [
        {
          "internalType": "uint256[]",
          "name": "",
          "type": "uint256[]"
        }
      ],
      "stateMutability": "view",
      "type": "function"
    },
    {
      "inputs": [
        {
          "internalType": "address",
          "name": "owner",
          "type": "address"
        },
        {
          "internalType": "address",
          "name": "operator",
          "type": "address"
        }
      ],
      "name": "isApprovedForAll",
      "outputs": [
        {
          "internalType": "bool",
          "name": "",
          "type": "bool"
        }
      ],
      "stateMutability": "view",
      "type": "function"
    },
    {
      "inputs": [],
      "name": "lastDrawTime",
      "outputs": [
        {
          "internalType": "uint256",
          "name": "",
          "type": "uint256"
        }
      ],
      "stateMutability": "view",
      "type": "function"
    },
    {
      "inputs": [
        {
          "internalType": "uint256",
          "name": "",
          "type": "uint256"
        }
      ],
      "name": "lastWinningNumbers",
      "outputs": [
        {
          "internalType": "uint8",
          "name": "",
          "type": "uint8"
        }
      ],
      "stateMutability": "view",
      "type": "function"
    },
    {
      "inputs": [],
      "name": "mainPools",
      "outputs": [
        {
          "internalType": "uint256",
          "name": "firstPrizeAccumulated",
          "type": "uint256"
        },
        {
          "internalType": "uint256",
          "name": "secondPrizeAccumulated",
          "type": "uint256"
        },
        {
          "internalType": "uint256",
          "name": "thirdPrizeAccumulated",
          "type": "uint256"
        },
        {
          "internalType": "uint256",
          "name": "developmentAccumulated",
          "type": "uint256"
        }
      ],
      "stateMutability": "view",
      "type": "function"
    },
    {
      "inputs": [],
      "name": "name",
      "outputs": [
        {
          "internalType": "string",
          "name": "",
          "type": "string"
        }
      ],
      "stateMutability": "view",
      "type": "function"
    },
    {
      "inputs": [],
      "name": "owner",
      "outputs": [
        {
          "internalType": "address",
          "name": "",
          "type": "address"
        }
      ],
      "stateMutability": "view",
      "type": "function"
    },
    {
      "inputs": [
        {
          "internalType": "uint256",
          "name": "tokenId",
          "type": "uint256"
        }
      ],
      "name": "ownerOf",
      "outputs": [
        {
          "internalType": "address",
          "name": "",
          "type": "address"
        }
      ],
      "stateMutability": "view",
      "type": "function"
    },
    {
      "inputs": [
        {
          "internalType": "bytes",
          "name": "performData",
          "type": "bytes"
        }
      ],
      "name": "performUpkeep",
      "outputs": [],
      "stateMutability": "nonpayable",
      "type": "function"
    },
    {
      "inputs": [
        {
          "internalType": "uint256",
          "name": "requestId",
          "type": "uint256"
        },
        {
          "internalType": "uint256[]",
          "name": "randomWords",
          "type": "uint256[]"
        }
      ],
      "name": "rawFulfillRandomWords",
      "outputs": [],
      "stateMutability": "nonpayable",
      "type": "function"
    },
    {
      "inputs": [],
      "name": "reserves",
      "outputs": [
        {
          "internalType": "uint256",
          "name": "firstPrizeReserve",
          "type": "uint256"
        },
        {
          "internalType": "uint256",
          "name": "secondPrizeReserve",
          "type": "uint256"
        },
        {
          "internalType": "uint256",
          "name": "thirdPrizeReserve",
          "type": "uint256"
        }
      ],
      "stateMutability": "view",
      "type": "function"
    },
    {
      "inputs": [],
      "name": "s_vrfCoordinator",
      "outputs": [
        {
          "internalType": "contract IVRFCoordinatorV2Plus",
          "name": "",
          "type": "address"
        }
      ],
      "stateMutability": "view",
      "type": "function"
    },
    {
      "inputs": [
        {
          "internalType": "address",
          "name": "from",
          "type": "address"
        },
        {
          "internalType": "address",
          "name": "to",
          "type": "address"
        },
        {
          "internalType": "uint256",
          "name": "tokenId",
          "type": "uint256"
        }
      ],
      "name": "safeTransferFrom",
      "outputs": [],
      "stateMutability": "nonpayable",
      "type": "function"
    },
    {
      "inputs": [
        {
          "internalType": "address",
          "name": "from",
          "type": "address"
        },
        {
          "internalType": "address",
          "name": "to",
          "type": "address"
        },
        {
          "internalType": "uint256",
          "name": "tokenId",
          "type": "uint256"
        },
        {
          "internalType": "bytes",
          "name": "data",
          "type": "bytes"
        }
      ],
      "name": "safeTransferFrom",
      "outputs": [],
      "stateMutability": "nonpayable",
      "type": "function"
    },
    {
      "inputs": [
        {
          "internalType": "address",
          "name": "operator",
          "type": "address"
        },
        {
          "internalType": "bool",
          "name": "approved",
          "type": "bool"
        }
      ],
      "name": "setApprovalForAll",
      "outputs": [],
      "stateMutability": "nonpayable",
      "type": "function"
    },
    {
      "inputs": [
        {
          "internalType": "address",
          "name": "_vrfCoordinator",
          "type": "address"
        }
      ],
      "name": "setCoordinator",
      "outputs": [],
      "stateMutability": "nonpayable",
      "type": "function"
    },
    {
      "inputs": [
        {
          "internalType": "uint256",
          "name": "_hours",
          "type": "uint256"
        }
      ],
      "name": "setDrawTimeUTC",
      "outputs": [],
      "stateMutability": "nonpayable",
      "type": "function"
    },
    {
      "inputs": [
        {
          "internalType": "uint256",
          "name": "_timestamp",
          "type": "uint256"
        }
      ],
      "name": "setLastDrawTime",
      "outputs": [],
      "stateMutability": "nonpayable",
      "type": "function"
    },
    {
      "inputs": [],
      "name": "subscriptionId",
      "outputs": [
        {
          "internalType": "uint256",
          "name": "",
          "type": "uint256"
        }
      ],
      "stateMutability": "view",
      "type": "function"
    },
    {
      "inputs": [
        {
          "internalType": "bytes4",
          "name": "interfaceId",
          "type": "bytes4"
        }
      ],
      "name": "supportsInterface",
      "outputs": [
        {
          "internalType": "bool",
          "name": "",
          "type": "bool"
        }
      ],
      "stateMutability": "view",
      "type": "function"
    },
    {
      "inputs": [],
      "name": "symbol",
      "outputs": [
        {
          "internalType": "string",
          "name": "",
          "type": "string"
        }
      ],
      "stateMutability": "view",
      "type": "function"
    },
    {
      "inputs": [],
      "name": "ticketCounter",
      "outputs": [
        {
          "internalType": "uint256",
          "name": "",
          "type": "uint256"
        }
      ],
      "stateMutability": "view",
      "type": "function"
    },
    {
      "inputs": [
        {
          "internalType": "uint256",
          "name": "",
          "type": "uint256"
        }
      ],
      "name": "tickets",
      "outputs": [
        {
          "internalType": "uint256",
          "name": "tokenId",
          "type": "uint256"
        },
        {
          "internalType": "address",
          "name": "ticketOwner",
          "type": "address"
        },
        {
          "internalType": "uint256",
          "name": "gameDay",
          "type": "uint256"
        },
        {
          "internalType": "bool",
          "name": "isActive",
          "type": "bool"
        },
        {
          "internalType": "uint256",
          "name": "purchaseTime",
          "type": "uint256"
        },
        {
          "internalType": "bool",
          "name": "eligibleForReserve",
          "type": "bool"
        }
      ],
      "stateMutability": "view",
      "type": "function"
    },
    {
      "inputs": [],
      "name": "toggleAutomation",
      "outputs": [],
      "stateMutability": "nonpayable",
      "type": "function"
    },
    {
      "inputs": [],
      "name": "toggleEmergencyPause",
      "outputs": [],
      "stateMutability": "nonpayable",
      "type": "function"
    },
    {
      "inputs": [
        {
          "internalType": "uint256",
          "name": "index",
          "type": "uint256"
        }
      ],
      "name": "tokenByIndex",
      "outputs": [
        {
          "internalType": "uint256",
          "name": "",
          "type": "uint256"
        }
      ],
      "stateMutability": "view",
      "type": "function"
    },
    {
      "inputs": [
        {
          "internalType": "address",
          "name": "owner",
          "type": "address"
        },
        {
          "internalType": "uint256",
          "name": "index",
          "type": "uint256"
        }
      ],
      "name": "tokenOfOwnerByIndex",
      "outputs": [
        {
          "internalType": "uint256",
          "name": "",
          "type": "uint256"
        }
      ],
      "stateMutability": "view",
      "type": "function"
    },
    {
      "inputs": [
        {
          "internalType": "uint256",
          "name": "tokenId",
          "type": "uint256"
        }
      ],
      "name": "tokenURI",
      "outputs": [
        {
          "internalType": "string",
          "name": "",
          "type": "string"
        }
      ],
      "stateMutability": "view",
      "type": "function"
    },
    {
      "inputs": [],
      "name": "totalDrawsExecuted",
      "outputs": [
        {
          "internalType": "uint256",
          "name": "",
          "type": "uint256"
        }
      ],
      "stateMutability": "view",
      "type": "function"
    },
    {
      "inputs": [],
      "name": "totalReservesProcessed",
      "outputs": [
        {
          "internalType": "uint256",
          "name": "",
          "type": "uint256"
        }
      ],
      "stateMutability": "view",
      "type": "function"
    },
    {
      "inputs": [],
      "name": "totalSupply",
      "outputs": [
        {
          "internalType": "uint256",
          "name": "",
          "type": "uint256"
        }
      ],
      "stateMutability": "view",
      "type": "function"
    },
    {
      "inputs": [
        {
          "internalType": "address",
          "name": "from",
          "type": "address"
        },
        {
          "internalType": "address",
          "name": "to",
          "type": "address"
        },
        {
          "internalType": "uint256",
          "name": "tokenId",
          "type": "uint256"
        }
      ],
      "name": "transferFrom",
      "outputs": [],
      "stateMutability": "nonpayable",
      "type": "function"
    },
    {
      "inputs": [
        {
          "internalType": "address",
          "name": "to",
          "type": "address"
        }
      ],
      "name": "transferOwnership",
      "outputs": [],
      "stateMutability": "nonpayable",
      "type": "function"
    },
    {
      "inputs": [],
      "name": "usdcToken",
      "outputs": [
        {
          "internalType": "contract IERC20",
          "name": "",
          "type": "address"
        }
      ],
      "stateMutability": "view",
      "type": "function"
    },
    {
      "inputs": [
        {
          "internalType": "address",
          "name": "",
          "type": "address"
        },
        {
          "internalType": "uint256",
          "name": "",
          "type": "uint256"
        }
      ],
      "name": "userTickets",
      "outputs": [
        {
          "internalType": "uint256",
          "name": "",
          "type": "uint256"
        }
      ],
      "stateMutability": "view",
      "type": "function"
    },
    {
      "inputs": [
        {
          "internalType": "uint8[4]",
          "name": "numbers",
          "type": "uint8[4]"
        }
      ],
      "name": "validateEmojiSelection",
      "outputs": [
        {
          "internalType": "bool",
          "name": "",
          "type": "bool"
        }
      ],
      "stateMutability": "pure",
      "type": "function"
    }
  ],
  "bytecode": "0x60e06040526011805462ffffff19166101011790553480156200002157600080fd5b50604051620047de380380620047de8339810160408190526200004491620002b2565b604080518082018252601081526f131bdd1d1bd35bda9a48151a58dad95d60821b602080830191909152825180840190935260058352644c4d4f4a4960d81b9083015290735c210ef41cd1a72de73bf76ec39637bb0d3d7bee3380600081620000f45760405162461bcd60e51b815260206004820152601860248201527f43616e6e6f7420736574206f776e657220746f207a65726f000000000000000060448201526064015b60405180910390fd5b600080546001600160a01b0319166001600160a01b038481169190911790915581161562000127576200012781620001e0565b5050506001600160a01b038116620001525760405163d92e233d60e01b815260040160405180910390fd5b600280546001600160a01b0319166001600160a01b0392909216919091179055600160035560046200018583826200039c565b5060056200019482826200039c565b5050735c210ef41cd1a72de73bf76ec39637bb0d3d7bee608052506001600160a01b03831660a05260c0829052600e819055620001d06200028b565b60105550504260205550620004b3565b336001600160a01b038216036200023a5760405162461bcd60e51b815260206004820152601760248201527f43616e6e6f74207472616e7366657220746f2073656c660000000000000000006044820152606401620000eb565b600180546001600160a01b0319166001600160a01b0383811691821790925560008054604051929316917fed8889f560326eb138920d842192f0eb3dd22b4f139c87a2c57538e05bae12789190a350565b600062015180600e5442620002a1919062000468565b620002ad919062000490565b905090565b600080600060608486031215620002c857600080fd5b83516001600160a01b0381168114620002e057600080fd5b602085015160409095015190969495509392505050565b634e487b7160e01b600052604160045260246000fd5b600181811c908216806200032257607f821691505b6020821081036200034357634e487b7160e01b600052602260045260246000fd5b50919050565b601f8211156200039757600081815260208120601f850160051c81016020861015620003725750805b601f850160051c820191505b8181101562000393578281556001016200037e565b5050505b505050565b81516001600160401b03811115620003b857620003b8620002f7565b620003d081620003c984546200030d565b8462000349565b602080601f831160018114620004085760008415620003ef5750858301515b600019600386901b1c1916600185901b17855562000393565b600085815260208120601f198616915b82811015620004395788860151825594840194600190910190840162000418565b5085821015620004585787850151600019600388901b60f8161c191681555b5050505050600190811b01905550565b808201808211156200048a57634e487b7160e01b600052601160045260246000fd5b92915050565b600082620004ae57634e487b7160e01b600052601260045260246000fd5b500490565b60805160a05160c0516142e6620004f86000396000818161049801526125c00152600081816104e601528181610fee0152611e8d0152600061263601526142e66000f3fe608060405234801561001057600080fd5b50600436106103f15760003560e01c80636352211e116102155780639eccacf611610125578063cf260baf116100b8578063e73dc02b11610087578063e73dc02b146109cf578063e985e9c5146109e2578063f020044f146109f5578063f2fde38b14610a02578063ff99a06314610a1557600080fd5b8063cf260baf14610983578063d709815414610996578063d85c156c146109a9578063dc85dced146109bc57600080fd5b8063c3708091116100f4578063c370809114610956578063c4aa72451461095e578063c6b749e214610966578063c87b56dd1461097057600080fd5b80639eccacf61461091d578063a22cb46514610930578063b88d4fde14610943578063bc62b32d1461065b57600080fd5b806379ba5097116101a85780638ea98117116101775780638ea98117146108c05780638f8e6f55146108d3578063946fee02146108f957806395b1b4301461090c57806395d89b411461091557600080fd5b806379ba50971461088d5780637e8abef1146108955780638c4d59d0146108a65780638da5cb5b146108af57600080fd5b806370a08231116101e457806370a082311461081a57806375172a8b1461082d5780637624bb871461085a57806377d56a041461087f57600080fd5b80636352211e146107b05780636baf4a74146107c35780636e04ff0d146107d55780636ef9a600146107f657600080fd5b806329f9d9c4116103105780633e6968b6116102a35780634f6ccce7116102725780634f6ccce7146106eb57806350152c4c146106fe57806350b447121461070757806351858e27146107945780635cbbd635146107a757600080fd5b80633e6968b6146106b557806342842e0e146106bd5780634585e33b146106d05780634f687e91146106e357600080fd5b806333f0ef08116102df57806333f0ef081461065b57806338cdf7cc146106635780633995326f1461066c5780633d4962ed146106a257600080fd5b806329f9d9c4146105485780632a1b43591461055b5780632a9936e1146106235780632f745c591461064857600080fd5b80630d50cdb9116103885780631a95f15f116103575780631a95f15f146105185780631fe543e31461052257806323b872dd146105355780632599399e146104c857600080fd5b80630d50cdb9146104d857806311eac855146104e1578063147e291f1461050857806318160ddd1461051057600080fd5b8063095ea7b3116103c4578063095ea7b31461047e57806309c1ba2e146104935780630bc75eb3146104c85780630cbed53a146104d057600080fd5b806301ffc9a7146103f65780630484a22f1461041e57806306fdde031461043e578063081812fc14610453575b600080fd5b6104096104043660046139da565b610a39565b60405190151581526020015b60405180910390f35b61043161042c366004613a13565b610a4a565b6040516104159190613a2e565b610446610ab6565b6040516104159190613ab8565b610466610461366004613acb565b610b48565b6040516001600160a01b039091168152602001610415565b61049161048c366004613ae4565b610b71565b005b6104ba7f000000000000000000000000000000000000000000000000000000000000000081565b604051908152602001610415565b6104ba600581565b6104ba601481565b6104ba60105481565b6104667f000000000000000000000000000000000000000000000000000000000000000081565b610491610b80565b600c546104ba565b6104ba62030d4081565b610491610530366004613b0e565b610bd1565b610491610543366004613b8d565b610c21565b610491610556366004613acb565b610cac565b6105ca610569366004613acb565b6019602052600090815260409020805460018201546002830154600384015460048501546005860154600687015460078801546008890154600a90990154979896979596949593949293919260ff918216929091818116916101009004168b565b604080519b8c5260208c019a909a52988a01979097526060890195909552608088019390935260a087019190915260c0860152151560e08501526101008401521515610120830152151561014082015261016001610415565b610636610631366004613acb565b610d7d565b60405161041596959493929190613bef565b6104ba610656366004613ae4565b610eaf565b6104ba605081565b6104ba600e5481565b6012546013546014546015546106829392919084565b604080519485526020850193909352918301526060820152608001610415565b6104916106b0366004613c74565b610f14565b6104ba61125e565b6104916106cb366004613b8d565b611281565b6104916106de366004613d02565b61129c565b61049161137e565b6104ba6106f9366004613acb565b6113c4565b6104ba601e5481565b61075b610715366004613acb565b601a6020526000908152604090208054600182015460038301546004840154600585015460069095015493946001600160a01b0390931693919260ff9182169290911686565b604080519687526001600160a01b03909516602087015293850192909252151560608401526080830152151560a082015260c001610415565b6011546104099062010000900460ff1681565b6104ba60205481565b6104666107be366004613acb565b61141d565b60115461040990610100900460ff1681565b6107e86107e3366004613d02565b611428565b604051610415929190613d74565b610809610804366004613acb565b6114b9565b604051610415959493929190613d8f565b6104ba610828366004613a13565b61169e565b60165460175460185461083f92919083565b60408051938452602084019290925290820152606001610415565b61086d610868366004613acb565b6116e6565b60405160ff9091168152602001610415565b60165460175460185461083f565b610491611710565b601254601354601454601554610682565b6104ba601d5481565b6000546001600160a01b0316610466565b6104916108ce366004613a13565b6117ba565b6108e66108e1366004613acb565b6118ac565b6040516104159796959493929190613dc3565b6104ba610907366004613e11565b6119ce565b6104ba601f5481565b6104466119ff565b600254610466906001600160a01b031681565b61049161093e366004613e41565b611a0e565b610491610951366004613e78565b611a19565b61086d601981565b6104ba600a81565b6104ba6201518081565b61044661097e366004613acb565b611a30565b6104ba610991366004613ae4565b611c04565b6104916109a4366004613acb565b611c20565b6104096109b7366004613c74565b611f99565b6104316109ca366004613acb565b611feb565b6104916109dd366004613acb565b61204b565b6104096109f0366004613f38565b6120c8565b6011546104099060ff1681565b610491610a10366004613a13565b6120f6565b610a28610a23366004613acb565b612107565b604051610415959493929190613f6b565b6000610a448261220e565b92915050565b6001600160a01b0381166000908152601c6020908152604091829020805483518184028101840190945280845260609392830182828015610aaa57602002820191906000526020600020905b815481526020019060010190808311610a96575b50505050509050919050565b606060048054610ac590613fa8565b80601f0160208091040260200160405190810160405280929190818152602001828054610af190613fa8565b8015610b3e5780601f10610b1357610100808354040283529160200191610b3e565b820191906000526020600020905b815481529060010190602001808311610b2157829003601f168201915b5050505050905090565b6000610b5382612233565b506000828152600860205260409020546001600160a01b0316610a44565b610b7c82823361226c565b5050565b33301480610b8d57503332145b610bb25760405162461bcd60e51b8152600401610ba990613fe2565b60405180910390fd5b6011805462ff0000198116620100009182900460ff1615909102179055565b6002546001600160a01b03163314610c115760025460405163073e64fd60e21b81523360048201526001600160a01b039091166024820152604401610ba9565b610c1c838383612279565b505050565b6001600160a01b038216610c4b57604051633250574960e11b815260006004820152602401610ba9565b6000610c588383336123f0565b9050836001600160a01b0316816001600160a01b031614610ca6576040516364283d7b60e01b81526001600160a01b0380861660048301526024820184905282166044820152606401610ba9565b50505050565b33301480610cb957503332145b610cd55760405162461bcd60e51b8152600401610ba990613fe2565b60188110610d145760405162461bcd60e51b815260206004820152600c60248201526b24b73b30b634b2103437bab960a11b6044820152606401610ba9565b600e54610d2382610e10614020565b600e55610d2e61125e565b6010819055600e546040805184815260208101929092528101919091527fe6316729d2573d521dd8a5bba7255a508adebbde04ef549afa0c66db8f26429c906060015b60405180910390a15050565b6000806000806000610d8d6138fe565b60008781526019602090815260408083208151610180810183528154815260018201549381019390935260028101548383015260038101546060840152600480820154608080860191909152600583015460a0860152600683015460c0860152600783015460ff16151560e0860152600883015461010086015283519081019384905291926101208501929160098501918288855b825461010083900a900460ff16815260206001928301818104948501949093039092029101808411610e2257505050928452505050600a919091015460ff80821615156020808501919091526101009092041615156040928301528251908301519183015160e084015161014085015161012090950151929d939c50909a50985091965090945092505050565b6000610eba8361169e565b8210610eeb5760405163295f44f760e21b81526001600160a01b038416600482015260248101839052604401610ba9565b506001600160a01b03919091166000908152600a60209081526040808320938352929052205490565b610f1c612405565b60115460ff168015610f37575060115462010000900460ff16155b610f755760405162461bcd60e51b815260206004820152600f60248201526e47616d65206e6f742061637469766560881b6044820152606401610ba9565b610f7e81611f99565b610fca5760405162461bcd60e51b815260206004820152601760248201527f496e76616c696420656d6f6a692073656c656374696f6e0000000000000000006044820152606401610ba9565b6040516323b872dd60e01b815233600482015230602482015262030d4060448201527f00000000000000000000000000000000000000000000000000000000000000006001600160a01b0316906323b872dd906064016020604051808303816000875af115801561103f573d6000803e3d6000fd5b505050506040513d601f19601f820116820180604052508101906110639190614037565b6110a65760405162461bcd60e51b81526020600482015260146024820152731554d110c81d1c985b9cd9995c8819985a5b195960621b6044820152606401610ba9565b601d80549060006110b683614054565b919050555060006110c561125e565b6040805160e081018252601d54808252336020808401918252838501888152606085018790526001608086018190524260a087015260c086018190526000948552601a9092529490922083518155905191810180546001600160a01b0319166001600160a01b039093169290921790915591519293509161114c906002830190600461391c565b5060608201516003820155608082015160048201805491151560ff1992831617905560a0830151600583015560c09092015160069091018054911515919092161790556000818152601b60209081526040808320601d80548254600181810185559387528587200155338552601c84528285209054815492830182559085528385209091015583835260199091528120805462030d4092906111ef90849061406d565b909155506111fe90508161242f565b61120a33601d5461250f565b336001600160a01b0316601d547f8d638e5fab80232bf709cdd14d918285207e67414f36a090fb409fde4eb5af358484604051611248929190614080565b60405180910390a35061125b6001600355565b50565b600062015180600e5442611272919061406d565b61127c91906140b1565b905090565b610c1c83838360405180602001604052806000815250611a19565b601154610100900460ff1680156112bc575060115462010000900460ff16155b6112fc5760405162461bcd60e51b8152602060048201526011602482015270105d5d1bdb585d1a5bdb881c185d5cd959607a1b6044820152606401610ba9565b600061130a828401846140c5565b905080801561131c575061131c612574565b15610c1c57602054429060009061133390836140e2565b9050600061134462015180836140b1565b61134f90600161406d565b905061135e6201518082614020565b60205461136b919061406d565b602055611376612591565b505050505050565b3330148061138b57503332145b6113a75760405162461bcd60e51b8152600401610ba990613fe2565b6011805461ff001981166101009182900460ff1615909102179055565b60006113cf600c5490565b82106113f85760405163295f44f760e21b81526000600482015260248101839052604401610ba9565b600c828154811061140b5761140b6140f5565b90600052602060002001549050919050565b6000610a4482612233565b601154600090606090610100900460ff16158061144d575060115462010000900460ff165b1561146a57505060408051602081019091526000808252906114b2565b611472612574565b1561149e57604080516001602082018190529101604051602081830303815290604052915091506114b2565b505060408051602081019091526000808252905b9250929050565b60008060008060606000861180156114d35750601d548611155b6115135760405162461bcd60e51b8152602060048201526011602482015270125b9d985b1a59081d1a58dad95d081251607a1b6044820152606401610ba9565b6000868152601a6020908152604080832060030154808452601990925280832081516080810192839052929392916009909101906004908285855b825461010083900a900460ff1681526020600192830181810494850194909303909202910180841161154e57905050505050509050600061158f89836126ae565b9050600061159d8a8461277a565b905060006115ab8b85612890565b905060006115b98c83612910565b905060608260ff166001036115e85760405180606001604052806025815260200161424660259139905061168a565b8260ff166002036116135760405180606001604052806021815260200161426b60219139905061168a565b8260ff1660030361163e5760405180606001604052806025815260200161428c60259139905061168a565b8260ff166004036116695760405180606001604052806021815260200161422560219139905061168a565b506040805180820190915260088152674e6f207072697a6560c01b60208201525b919c939b5091995090975095509350505050565b60006001600160a01b0382166116ca576040516322718ad960e21b815260006004820152602401610ba9565b506001600160a01b031660009081526007602052604090205490565b600f81600481106116f657600080fd5b60209182820401919006915054906101000a900460ff1681565b6001546001600160a01b031633146117635760405162461bcd60e51b815260206004820152601660248201527526bab9ba10313290383937b837b9b2b21037bbb732b960511b6044820152606401610ba9565b60008054336001600160a01b0319808316821784556001805490911690556040516001600160a01b0390921692909183917f8be0079c531659141344cd1fd0a4f28419497f9722a3daafe3b4186f6b6457e091a350565b6000546001600160a01b031633148015906117e057506002546001600160a01b03163314155b1561183157336117f86000546001600160a01b031690565b60025460405163061db9c160e01b81526001600160a01b0393841660048201529183166024830152919091166044820152606401610ba9565b6001600160a01b0381166118585760405163d92e233d60e01b815260040160405180910390fd5b600280546001600160a01b0319166001600160a01b0383169081179091556040519081527fd1a6a14209a385a964d036e404cb5cfb71f4000cdb03c9366292430787261be69060200160405180910390a150565b60006118b66138fe565b6000838152601a60209081526040808320815160e0810183528154815260018201546001600160a01b03169381019390935281516080810180845285948594859485948594919284019160028401906004908288855b825461010083900a900460ff1681526020600192830181810494850194909303909202910180841161190c57905050505050508152602001600382015481526020016004820160009054906101000a900460ff16151515158152602001600582015481526020016006820160009054906101000a900460ff161515151581525050905080602001518160400151826060015183608001518460a001518560c001516119b68f612a9a565b959f949e50929c50909a509850965090945092505050565b601b60205281600052604060002081815481106119ea57600080fd5b90600052602060002001600091509150505481565b606060058054610ac590613fa8565b610b7c338383612afd565b611a24848484610c21565b610ca684848484612b9c565b6060600082118015611a445750601d548211155b611a875760405162461bcd60e51b8152602060048201526014602482015273151bdad95b88191bd95cc81b9bdd08195e1a5cdd60621b6044820152606401610ba9565b6000828152601a60209081526040808320815160e0810183528154815260018201546001600160a01b031693810193909352815160808101808452919284019160028401906004908288855b825461010083900a900460ff16815260206001928301818104948501949093039092029101808411611ad357905050505091835250506003820154602080830191909152600483015460ff9081161515604080850191909152600585015460608501526006909401541615156080909201919091529051919250611bed91017f646174613a6170706c69636174696f6e2f6a736f6e3b6261736536342c00000081527f65794a755957316c496a6f69544739306447394e62327070494652705932746c601d8201527f64434973496d526c63324e796158423061573975496a6f69544739306447394e603d8201527f62327070494764686257556764476c6a61325630496e303d0000000000000000605d82015260750190565b604051602081830303815290604052915050919050565b601c60205281600052604060002081815481106119ea57600080fd5b611c28612405565b6000818152601a60205260409020600101546001600160a01b03163314611c845760405162461bcd60e51b815260206004820152601060248201526f2737ba103a34b1b5b2ba1037bbb732b960811b6044820152606401610ba9565b6000818152601a602052604090206004015460ff16611cde5760405162461bcd60e51b8152602060048201526016602482015275151a58dad95d08185b1c9958591e4818db185a5b595960521b6044820152606401610ba9565b6000818152601a60209081526040808320600301548084526019909252909120600a015460ff16611d495760405162461bcd60e51b8152602060048201526015602482015274111c985dc81b9bdd08195e1958dd5d1959081e595d605a1b6044820152606401610ba9565b60008181526019602052604080822081516080810192839052611dab928692600901906004908287855b825461010083900a900460ff16815260206001928301818104948501949093039092029101808411611d735790505050505050612890565b905060008160ff1611611e005760405162461bcd60e51b815260206004820152601860248201527f4e6f207072697a6520666f722074686973207469636b657400000000000000006044820152606401610ba9565b6000611e0c8483612910565b905060008111611e535760405162461bcd60e51b81526020600482015260126024820152714e6f207072697a6520617661696c61626c6560701b6044820152606401610ba9565b6000848152601a6020526040908190206004908101805460ff19169055905163a9059cbb60e01b81523391810191909152602481018290527f00000000000000000000000000000000000000000000000000000000000000006001600160a01b03169063a9059cbb906044016020604051808303816000875af1158015611ede573d6000803e3d6000fd5b505050506040513d601f19601f82011682018060405250810190611f029190614037565b611f465760405162461bcd60e51b8152602060048201526015602482015274141c9a5e99481d1c985b9cd9995c8819985a5b1959605a1b6044820152606401610ba9565b6040805182815260ff841660208201526000818301529051339186917f026cdcc366814fb563cebc9794374e5d7aaa2f89b43f7f7661e5439f2c89f8f79181900360600190a350505061125b6001600355565b6000805b6004811015611fe2576019838260048110611fba57611fba6140f5565b602002015160ff1610611fd05750600092915050565b80611fda81614054565b915050611f9d565b50600192915050565b6000818152601b6020908152604091829020805483518184028101840190945280845260609392830182828015610aaa5760200282019190600052602060002090815481526020019060010190808311610a965750505050509050919050565b3330148061205857503332145b6120745760405162461bcd60e51b8152600401610ba990613fe2565b602080549082905561208461125e565b60108190556040805183815260208101859052908101919091527f25e8c695044b1ba4042ca7a8cb42eefaeacad184bacbd43a253f5a68b839581090606001610d71565b6001600160a01b03918216600090815260096020908152604080832093909416825291909152205460ff1690565b6120fe612cc5565b61125b81612d1a565b60006121116138fe565b6000838152601a60209081526040808320815160e0810183528154815260018201546001600160a01b03169381019390935281516080810180845285948594859491939192908401919060028401906004908288855b825461010083900a900460ff16815260206001928301818104948501949093039092029101808411612167575050509284525050506003820154602080830191909152600483015460ff90811615156040808501919091526005850154606080860191909152600690950154909116151560809384015290840151908401519284015191840151939450926121fb8b612a9a565b939b929a50909850965090945092505050565b60006001600160e01b0319821663780e9d6360e01b1480610a445750610a4482612dc3565b6000818152600660205260408120546001600160a01b031680610a4457604051637e27328960e01b815260048101849052602401610ba9565b610c1c8383836001612e13565b600481146122c95760405162461bcd60e51b815260206004820152601e60248201527f496e76616c6964206e756d626572206f662072616e646f6d20776f72647300006044820152606401610ba9565b6122d16138fe565b60005b60048110156123335760198484838181106122f1576122f16140f5565b90506020020135612302919061410b565b828260048110612314576123146140f5565b60ff90921660209290920201528061232b81614054565b9150506122d4565b50612341600f82600461391c565b50600061234c61125e565b600081815260196020526040902090915061236c9060090183600461391c565b506000818152601960205260409020600a01805460ff191660011790556123938183612f19565b601e80549060006123a383614054565b9190505550807fe69a20bd85247c3428aec726bfa23e80608f0c3fdc4cb8b85d1cf67cfa225162836123d3612f36565b6040516123e1929190614080565b60405180910390a25050505050565b60006123fd848484612f64565b949350505050565b60026003540361242857604051633ee5aeb560e01b815260040160405180910390fd5b6002600355565b6000818152601960205260409020805460649061244e90605090614020565b61245891906140b1565b6001820155805460649061246e90601490614020565b61247891906140b1565b6002820155600181015460649061249190605090614020565b61249b91906140b1565b600382015560018101546064906124b490600a90614020565b6124be91906140b1565b600482015560018101546064906124d790600590614020565b6124e191906140b1565b81600501819055506064600582600101546124fc9190614020565b61250691906140b1565b60069091015550565b6001600160a01b03821661253957604051633250574960e11b815260006004820152602401610ba9565b6000612547838360006123f0565b90506001600160a01b03811615610c1c576040516339e3563760e11b815260006004820152602401610ba9565b60008062015180602054612588919061406d565b42101592915050565b6040805160c0810182527f9e1344a1247c8a1785d0a4681a27152bffdb43666ae5bf7d14d24a5efd44bf7181527f0000000000000000000000000000000000000000000000000000000000000000602080830191909152600382840152622625a0606083015260046080830152825190810190925260008083529160a082019061261a90613031565b9052604051634d8e1c2f60e11b81529091506001600160a01b037f00000000000000000000000000000000000000000000000000000000000000001690639b1c385e9061266b90849060040161411f565b6020604051808303816000875af115801561268a573d6000803e3d6000fd5b505050506040513d601f19601f82011682018060405250810190610b7c919061417c565b6000828152601a60205260408082208151608081019283905283929091600201906004908285855b825461010083900a900460ff168152602060019283018181049485019490930390920291018084116126d6579050505050505090506000805b60048110156127715784816004811061272a5761272a6140f5565b602002015160ff16838260048110612744576127446140f5565b602002015160ff160361275f578161275b81614195565b9250505b8061276981614054565b91505061270f565b50949350505050565b6000828152601a60205260408082208151608081019283905283929091600201906004908285855b825461010083900a900460ff168152602060019283018181049485019490930390920291018084116127a25790505050505050905060008390506000805b60048110156128865760005b600481101561287357838160048110612807576128076140f5565b602002015160ff16858360048110612821576128216140f5565b602002015160ff1603612861578261283881614195565b93505060ff84826004811061284f5761284f6140f5565b60ff9092166020929092020152612873565b8061286b81614054565b9150506127ec565b508061287e81614054565b9150506127e0565b5095945050505050565b60008061289d84846126ae565b905060006128ab858561277a565b90508160ff166004036128c357600192505050610a44565b8060ff166004036128d957600292505050610a44565b8160ff166003036128ef57600392505050610a44565b8060ff1660030361290557600492505050610a44565b600092505050610a44565b6000828152601a602090815260408083206003908101548085526019845282852083516101808101855281548152600182015495810195909552600281015485850152918201546060850152600480830154608080870191909152600584015460a0870152600684015460c0870152600784015460ff16151560e087015260088401546101008701528451908101948590529194869490939261012085019290916009850191908288855b825461010083900a900460ff168152602060019283018181049485019490930390920291018084116129bb57505050928452505050600a919091015460ff80821615156020840152610100909104811615156040909201919091529091508416600103612a3d576012546060820151612a34919061406d565b92505050610a44565b8360ff16600203612a5a576013546080820151612a34919061406d565b8360ff16600303612a775760145460a0820151612a34919061406d565b8360ff16600403612a8f5762030d4092505050610a44565b506000949350505050565b6000818152601a602090815260408083206003015480845260198352818420825160808101938490526009909101805460ff1682529193612af6938793916004919083906001908601808411611d735790505050505050612890565b9392505050565b6001600160a01b038216612b2f57604051630b61174360e31b81526001600160a01b0383166004820152602401610ba9565b6001600160a01b03838116600081815260096020908152604080832094871680845294825291829020805460ff191686151590811790915591519182527f17307eab39ab6107e8899845ad3d59bd9653f200f220920489ca2b5937696c31910160405180910390a3505050565b6001600160a01b0383163b15610ca657604051630a85bd0160e11b81526001600160a01b0384169063150b7a0290612bde9033908890879087906004016141b4565b6020604051808303816000875af1925050508015612c19575060408051601f3d908101601f19168201909252612c16918101906141f1565b60015b612c82573d808015612c47576040519150601f19603f3d011682016040523d82523d6000602084013e612c4c565b606091505b508051600003612c7a57604051633250574960e11b81526001600160a01b0385166004820152602401610ba9565b805181602001fd5b6001600160e01b03198116630a85bd0160e11b14612cbe57604051633250574960e11b81526001600160a01b0385166004820152602401610ba9565b5050505050565b6000546001600160a01b03163314612d185760405162461bcd60e51b815260206004820152601660248201527527b7363c9031b0b63630b1363290313c9037bbb732b960511b6044820152606401610ba9565b565b336001600160a01b03821603612d725760405162461bcd60e51b815260206004820152601760248201527f43616e6e6f74207472616e7366657220746f2073656c660000000000000000006044820152606401610ba9565b600180546001600160a01b0319166001600160a01b0383811691821790925560008054604051929316917fed8889f560326eb138920d842192f0eb3dd22b4f139c87a2c57538e05bae12789190a350565b60006001600160e01b031982166380ac58cd60e01b1480612df457506001600160e01b03198216635b5e139f60e01b145b80610a4457506301ffc9a760e01b6001600160e01b0319831614610a44565b8080612e2757506001600160a01b03821615155b15612ee9576000612e3784612233565b90506001600160a01b03831615801590612e635750826001600160a01b0316816001600160a01b031614155b8015612e765750612e7481846120c8565b155b15612e9f5760405163a9fbf51f60e01b81526001600160a01b0384166004820152602401610ba9565b8115612ee75783856001600160a01b0316826001600160a01b03167f8c5be1e5ebec7d5bd14f71427d1e84f3dd0314c0f7b2291e5b200ac8c7c3b92560405160405180910390a45b505b5050600090815260086020526040902080546001600160a01b0319166001600160a01b0392909216919091179055565b612f22826130a2565b612f2c82826131ea565b610b7c828261337f565b6015546014546013546012546000939291612f509161406d565b612f5a919061406d565b61127c919061406d565b600080612f728585856135ae565b90506001600160a01b038116612fcf57612fca84600c80546000838152600d60205260408120829055600182018355919091527fdf6966c971051c3d54ec59162606531493a51404a002842f56009d7e5cf4a8c70155565b612ff2565b846001600160a01b0316816001600160a01b031614612ff257612ff281856136a7565b6001600160a01b03851661300e5761300984613738565b6123fd565b846001600160a01b0316816001600160a01b0316146123fd576123fd85856137e7565b60607f92fd13387c7fe7befbc38d303d6468778fb9731bc4583f17d92989c6fcfdeaaa8260405160240161306a91511515815260200190565b60408051601f198184030181529190526020810180516001600160e01b03166001600160e01b03199093169290921790915292915050565b6000818152601960205260409020600a810154610100900460ff16156130c6575050565b60006064605083600201546130db9190614020565b6130e591906140b1565b905060006064600a84600201546130fc9190614020565b61310691906140b1565b9050600060646005856002015461311d9190614020565b61312791906140b1565b9050826016600001600082825461313e919061406d565b90915550506017805483919060009061315890849061406d565b90915550506018805482919060009061317290849061406d565b9091555050600a8401805461ff001916610100179055601f805490600061319883614054565b909155505060028401546040805185815260208101859052908101839052606081019190915285907fa5d2656a8dcf8630609f3f5ce778cc220baea1b2e804fbc353c4ec0bfbae10ad906080016123e1565b6000828152601b602090815260408083208054825181850281018501909352808352919290919083018282801561324057602002820191906000526020600020905b81548152602001906001019080831161322c575b505050505090506000806000805b84518110156132d057600085828151811061326b5761326b6140f5565b6020026020010151905060006132818289612890565b90508060ff1660010361329757600195506132bb565b8060ff166002036132ab57600194506132bb565b8060ff166003036132bb57600193505b505080806132c890614054565b91505061324e565b50600086815260196020526040902083613301576003810154601280546000906132fb90849061406d565b90915550505b826133235760048101546013805460009061331d90849061406d565b90915550505b816133455760058101546014805460009061333f90849061406d565b90915550505b60068101546015805460009061335c90849061406d565b909155505060078101805460ff1916600117905542600890910155505050505050565b6000828152601b60209081526040808320805482518185028101850190935280835291929091908301828280156133d557602002820191906000526020600020905b8154815260200190600101908083116133c1575b505050505090506000806000805b8451811015613465576000858281518110613400576134006140f5565b6020026020010151905060006134168289612890565b90508060ff1660010361342c5760019550613450565b8060ff166002036134405760019450613450565b8060ff1660030361345057600193505b5050808061345d90614054565b9150506133e3565b508280156134735750601254155b8015613480575060165415155b156134d157601680546012819055600090915560408051600181526020810183905288917f5ca8a835db219361edcc1b27ab6e7593dcb41d1caa8ad58a3a44082acb0b5239910160405180910390a2505b8180156134de5750601354155b80156134eb575060175415155b1561353c57601780546013819055600090915560408051600281526020810183905288917f5ca8a835db219361edcc1b27ab6e7593dcb41d1caa8ad58a3a44082acb0b5239910160405180910390a2505b8080156135495750601454155b8015613556575060185415155b1561137657601880546014819055600090915560408051600381526020810183905288917f5ca8a835db219361edcc1b27ab6e7593dcb41d1caa8ad58a3a44082acb0b5239910160405180910390a250505050505050565b6000828152600660205260408120546001600160a01b03908116908316156135db576135db818486613837565b6001600160a01b03811615613619576135f8600085600080612e13565b6001600160a01b038116600090815260076020526040902080546000190190555b6001600160a01b03851615613648576001600160a01b0385166000908152600760205260409020805460010190555b60008481526006602052604080822080546001600160a01b0319166001600160a01b0389811691821790925591518793918516917fddf252ad1be2c89b69c2b068fc378daa952ba7f163c4a11628f55a4df523b3ef91a4949350505050565b60006136b28361169e565b6000838152600b6020526040902054909150808214613705576001600160a01b0384166000908152600a602090815260408083208584528252808320548484528184208190558352600b90915290208190555b506000918252600b602090815260408084208490556001600160a01b039094168352600a81528383209183525290812055565b600c5460009061374a906001906140e2565b6000838152600d6020526040812054600c8054939450909284908110613772576137726140f5565b9060005260206000200154905080600c8381548110613793576137936140f5565b6000918252602080832090910192909255828152600d9091526040808220849055858252812055600c8054806137cb576137cb61420e565b6001900381819060005260206000200160009055905550505050565b600060016137f48461169e565b6137fe91906140e2565b6001600160a01b039093166000908152600a602090815260408083208684528252808320859055938252600b9052919091209190915550565b61384283838361389b565b610c1c576001600160a01b03831661387057604051637e27328960e01b815260048101829052602401610ba9565b60405163177e802f60e01b81526001600160a01b038316600482015260248101829052604401610ba9565b60006001600160a01b038316158015906123fd5750826001600160a01b0316846001600160a01b031614806138d557506138d584846120c8565b806123fd5750506000908152600860205260409020546001600160a01b03908116911614919050565b60405180608001604052806004906020820280368337509192915050565b60018301918390821561399f5791602002820160005b8382111561397057835183826101000a81548160ff021916908360ff1602179055509260200192600101602081600001049283019260010302613932565b801561399d5782816101000a81549060ff0219169055600101602081600001049283019260010302613970565b505b506139ab9291506139af565b5090565b5b808211156139ab57600081556001016139b0565b6001600160e01b03198116811461125b57600080fd5b6000602082840312156139ec57600080fd5b8135612af6816139c4565b80356001600160a01b0381168114613a0e57600080fd5b919050565b600060208284031215613a2557600080fd5b612af6826139f7565b6020808252825182820181905260009190848201906040850190845b81811015613a6657835183529284019291840191600101613a4a565b50909695505050505050565b6000815180845260005b81811015613a9857602081850181015186830182015201613a7c565b506000602082860101526020601f19601f83011685010191505092915050565b602081526000612af66020830184613a72565b600060208284031215613add57600080fd5b5035919050565b60008060408385031215613af757600080fd5b613b00836139f7565b946020939093013593505050565b600080600060408486031215613b2357600080fd5b83359250602084013567ffffffffffffffff80821115613b4257600080fd5b818601915086601f830112613b5657600080fd5b813581811115613b6557600080fd5b8760208260051b8501011115613b7a57600080fd5b6020830194508093505050509250925092565b600080600060608486031215613ba257600080fd5b613bab846139f7565b9250613bb9602085016139f7565b9150604084013590509250925092565b8060005b6004811015610ca657815160ff16845260209384019390910190600101613bcd565b8681526020810186905260408101859052831515606082015282151560808201526101208101613c2260a0830184613bc9565b979650505050505050565b634e487b7160e01b600052604160045260246000fd5b604051601f8201601f1916810167ffffffffffffffff81118282101715613c6c57613c6c613c2d565b604052919050565b600060808284031215613c8657600080fd5b82601f830112613c9557600080fd5b6040516080810181811067ffffffffffffffff82111715613cb857613cb8613c2d565b604052806080840185811115613ccd57600080fd5b845b81811015613cf757803560ff81168114613ce95760008081fd5b835260209283019201613ccf565b509195945050505050565b60008060208385031215613d1557600080fd5b823567ffffffffffffffff80821115613d2d57600080fd5b818501915085601f830112613d4157600080fd5b813581811115613d5057600080fd5b866020828501011115613d6257600080fd5b60209290920196919550909350505050565b82151581526040602082015260006123fd6040830184613a72565b60ff8616815260ff8516602082015260ff8416604082015282606082015260a060808201526000613c2260a0830184613a72565b6001600160a01b03881681526101408101613de16020830189613bc9565b60a082019690965293151560c085015260e0840192909252151561010083015260ff166101209091015292915050565b60008060408385031215613e2457600080fd5b50508035926020909101359150565b801515811461125b57600080fd5b60008060408385031215613e5457600080fd5b613e5d836139f7565b91506020830135613e6d81613e33565b809150509250929050565b60008060008060808587031215613e8e57600080fd5b613e97856139f7565b93506020613ea68187016139f7565b935060408601359250606086013567ffffffffffffffff80821115613eca57600080fd5b818801915088601f830112613ede57600080fd5b813581811115613ef057613ef0613c2d565b613f02601f8201601f19168501613c43565b91508082528984828501011115613f1857600080fd5b808484018584013760008482840101525080935050505092959194509250565b60008060408385031215613f4b57600080fd5b613f54836139f7565b9150613f62602084016139f7565b90509250929050565b6001600160a01b03861681526101008101613f896020830187613bc9565b60a082019490945291151560c083015260ff1660e09091015292915050565b600181811c90821680613fbc57607f821691505b602082108103613fdc57634e487b7160e01b600052602260045260246000fd5b50919050565b6020808252600e908201526d139bdd08185d5d1a1bdc9a5e995960921b604082015260600190565b634e487b7160e01b600052601160045260246000fd5b8082028115828204841417610a4457610a4461400a565b60006020828403121561404957600080fd5b8151612af681613e33565b6000600182016140665761406661400a565b5060010190565b80820180821115610a4457610a4461400a565b60a0810161408e8285613bc9565b8260808301529392505050565b634e487b7160e01b600052601260045260246000fd5b6000826140c0576140c061409b565b500490565b6000602082840312156140d757600080fd5b8135612af681613e33565b81810381811115610a4457610a4461400a565b634e487b7160e01b600052603260045260246000fd5b60008261411a5761411a61409b565b500690565b60208152815160208201526020820151604082015261ffff60408301511660608201526000606083015163ffffffff80821660808501528060808601511660a0850152505060a083015160c0808401526123fd60e0840182613a72565b60006020828403121561418e57600080fd5b5051919050565b600060ff821660ff81036141ab576141ab61400a565b60010192915050565b6001600160a01b03858116825284166020820152604081018390526080606082018190526000906141e790830184613a72565b9695505050505050565b60006020828403121561420357600080fd5b8151612af6816139c4565b634e487b7160e01b600052603160045260246000fdfe46726565205469636b657473202d203320656d6f6a697320616e79206f726465724669727374205072697a65202d203420656d6f6a697320657861637420706f736974696f6e5365636f6e64205072697a65202d203420656d6f6a697320616e79206f726465725468697264205072697a65202d203320656d6f6a697320657861637420706f736974696f6ea26469706673582212206ecd3db07f2d651ad2c82bf73ac7cb4f044dbd23cfabe2d12370a1f9cb49371764736f6c63430008140033",
  "linkReferences": {},
  "deployedLinkReferences": {}
}