{
  "_format": "hh-sol-artifact-1",
  "contractName": "LottoMojiCore",
  "sourceName": "contracts/LottoMojiCore.sol",
  "abi": [
    {
      "inputs": [
        {
          "internalType": "address",
          "name": "_usdcToken",
          "type": "address"
        },
        {
          "internalType": "uint256",
          "name": "_subscriptionId",
          "type": "uint256"
        }
      ],
      "stateMutability": "nonpayable",
      "type": "constructor"
    },
    {
      "inputs": [],
      "name": "ERC721EnumerableForbiddenBatchMint",
      "type": "error"
    },
    {
      "inputs": [
        {
          "internalType": "address",
          "name": "sender",
          "type": "address"
        },
        {
          "internalType": "uint256",
          "name": "tokenId",
          "type": "uint256"
        },
        {
          "internalType": "address",
          "name": "owner",
          "type": "address"
        }
      ],
      "name": "ERC721IncorrectOwner",
      "type": "error"
    },
    {
      "inputs": [
        {
          "internalType": "address",
          "name": "operator",
          "type": "address"
        },
        {
          "internalType": "uint256",
          "name": "tokenId",
          "type": "uint256"
        }
      ],
      "name": "ERC721InsufficientApproval",
      "type": "error"
    },
    {
      "inputs": [
        {
          "internalType": "address",
          "name": "approver",
          "type": "address"
        }
      ],
      "name": "ERC721InvalidApprover",
      "type": "error"
    },
    {
      "inputs": [
        {
          "internalType": "address",
          "name": "operator",
          "type": "address"
        }
      ],
      "name": "ERC721InvalidOperator",
      "type": "error"
    },
    {
      "inputs": [
        {
          "internalType": "address",
          "name": "owner",
          "type": "address"
        }
      ],
      "name": "ERC721InvalidOwner",
      "type": "error"
    },
    {
      "inputs": [
        {
          "internalType": "address",
          "name": "receiver",
          "type": "address"
        }
      ],
      "name": "ERC721InvalidReceiver",
      "type": "error"
    },
    {
      "inputs": [
        {
          "internalType": "address",
          "name": "sender",
          "type": "address"
        }
      ],
      "name": "ERC721InvalidSender",
      "type": "error"
    },
    {
      "inputs": [
        {
          "internalType": "uint256",
          "name": "tokenId",
          "type": "uint256"
        }
      ],
      "name": "ERC721NonexistentToken",
      "type": "error"
    },
    {
      "inputs": [
        {
          "internalType": "address",
          "name": "owner",
          "type": "address"
        },
        {
          "internalType": "uint256",
          "name": "index",
          "type": "uint256"
        }
      ],
      "name": "ERC721OutOfBoundsIndex",
      "type": "error"
    },
    {
      "inputs": [
        {
          "internalType": "address",
          "name": "have",
          "type": "address"
        },
        {
          "internalType": "address",
          "name": "want",
          "type": "address"
        }
      ],
      "name": "OnlyCoordinatorCanFulfill",
      "type": "error"
    },
    {
      "inputs": [
        {
          "internalType": "address",
          "name": "have",
          "type": "address"
        },
        {
          "internalType": "address",
          "name": "owner",
          "type": "address"
        },
        {
          "internalType": "address",
          "name": "coordinator",
          "type": "address"
        }
      ],
      "name": "OnlyOwnerOrCoordinator",
      "type": "error"
    },
    {
      "inputs": [],
      "name": "ReentrancyGuardReentrantCall",
      "type": "error"
    },
    {
      "inputs": [],
      "name": "ZeroAddress",
      "type": "error"
    },
    {
      "anonymous": false,
      "inputs": [
        {
          "indexed": true,
          "internalType": "address",
          "name": "owner",
          "type": "address"
        },
        {
          "indexed": true,
          "internalType": "address",
          "name": "approved",
          "type": "address"
        },
        {
          "indexed": true,
          "internalType": "uint256",
          "name": "tokenId",
          "type": "uint256"
        }
      ],
      "name": "Approval",
      "type": "event"
    },
    {
      "anonymous": false,
      "inputs": [
        {
          "indexed": true,
          "internalType": "address",
          "name": "owner",
          "type": "address"
        },
        {
          "indexed": true,
          "internalType": "address",
          "name": "operator",
          "type": "address"
        },
        {
          "indexed": false,
          "internalType": "bool",
          "name": "approved",
          "type": "bool"
        }
      ],
      "name": "ApprovalForAll",
      "type": "event"
    },
    {
      "anonymous": false,
      "inputs": [
        {
          "indexed": false,
          "internalType": "address",
          "name": "vrfCoordinator",
          "type": "address"
        }
      ],
      "name": "CoordinatorSet",
      "type": "event"
    },
    {
      "anonymous": false,
      "inputs": [
        {
          "indexed": true,
          "internalType": "uint256",
          "name": "gameDay",
          "type": "uint256"
        },
        {
          "indexed": false,
          "internalType": "uint256",
          "name": "firstReserveAmount",
          "type": "uint256"
        },
        {
          "indexed": false,
          "internalType": "uint256",
          "name": "secondReserveAmount",
          "type": "uint256"
        },
        {
          "indexed": false,
          "internalType": "uint256",
          "name": "thirdReserveAmount",
          "type": "uint256"
        },
        {
          "indexed": false,
          "internalType": "uint256",
          "name": "totalSent",
          "type": "uint256"
        }
      ],
      "name": "DailyReservesSent",
      "type": "event"
    },
    {
      "anonymous": false,
      "inputs": [
        {
          "indexed": true,
          "internalType": "uint256",
          "name": "gameDay",
          "type": "uint256"
        },
        {
          "indexed": false,
          "internalType": "uint8[4]",
          "name": "winningNumbers",
          "type": "uint8[4]"
        },
        {
          "indexed": false,
          "internalType": "uint256",
          "name": "totalMainPools",
          "type": "uint256"
        }
      ],
      "name": "DrawExecuted",
      "type": "event"
    },
    {
      "anonymous": false,
      "inputs": [
        {
          "indexed": true,
          "internalType": "address",
          "name": "from",
          "type": "address"
        },
        {
          "indexed": true,
          "internalType": "address",
          "name": "to",
          "type": "address"
        }
      ],
      "name": "OwnershipTransferRequested",
      "type": "event"
    },
    {
      "anonymous": false,
      "inputs": [
        {
          "indexed": true,
          "internalType": "address",
          "name": "from",
          "type": "address"
        },
        {
          "indexed": true,
          "internalType": "address",
          "name": "to",
          "type": "address"
        }
      ],
      "name": "OwnershipTransferred",
      "type": "event"
    },
    {
      "anonymous": false,
      "inputs": [
        {
          "indexed": true,
          "internalType": "uint256",
          "name": "ticketId",
          "type": "uint256"
        },
        {
          "indexed": true,
          "internalType": "address",
          "name": "winner",
          "type": "address"
        },
        {
          "indexed": false,
          "internalType": "uint256",
          "name": "amount",
          "type": "uint256"
        },
        {
          "indexed": false,
          "internalType": "uint8",
          "name": "prizeLevel",
          "type": "uint8"
        },
        {
          "indexed": false,
          "internalType": "bool",
          "name": "reserveUsedForRefill",
          "type": "bool"
        }
      ],
      "name": "PrizeClaimed",
      "type": "event"
    },
    {
      "anonymous": false,
      "inputs": [
        {
          "indexed": true,
          "internalType": "uint256",
          "name": "ticketId",
          "type": "uint256"
        },
        {
          "indexed": true,
          "internalType": "address",
          "name": "buyer",
          "type": "address"
        },
        {
          "indexed": false,
          "internalType": "uint8[4]",
          "name": "numbers",
          "type": "uint8[4]"
        },
        {
          "indexed": false,
          "internalType": "uint256",
          "name": "gameDay",
          "type": "uint256"
        }
      ],
      "name": "TicketPurchased",
      "type": "event"
    },
    {
      "anonymous": false,
      "inputs": [
        {
          "indexed": true,
          "internalType": "address",
          "name": "from",
          "type": "address"
        },
        {
          "indexed": true,
          "internalType": "address",
          "name": "to",
          "type": "address"
        },
        {
          "indexed": true,
          "internalType": "uint256",
          "name": "tokenId",
          "type": "uint256"
        }
      ],
      "name": "Transfer",
      "type": "event"
    },
    {
      "inputs": [],
      "name": "DAILY_RESERVE_PERCENTAGE",
      "outputs": [
        {
          "internalType": "uint256",
          "name": "",
          "type": "uint256"
        }
      ],
      "stateMutability": "view",
      "type": "function"
    },
    {
      "inputs": [],
      "name": "DEVELOPMENT_PERCENTAGE",
      "outputs": [
        {
          "internalType": "uint256",
          "name": "",
          "type": "uint256"
        }
      ],
      "stateMutability": "view",
      "type": "function"
    },
    {
      "inputs": [],
      "name": "DRAW_INTERVAL",
      "outputs": [
        {
          "internalType": "uint256",
          "name": "",
          "type": "uint256"
        }
      ],
      "stateMutability": "view",
      "type": "function"
    },
    {
      "inputs": [],
      "name": "EMOJI_COUNT",
      "outputs": [
        {
          "internalType": "uint8",
          "name": "",
          "type": "uint8"
        }
      ],
      "stateMutability": "view",
      "type": "function"
    },
    {
      "inputs": [],
      "name": "FIRST_PRIZE_PERCENTAGE",
      "outputs": [
        {
          "internalType": "uint256",
          "name": "",
          "type": "uint256"
        }
      ],
      "stateMutability": "view",
      "type": "function"
    },
    {
      "inputs": [],
      "name": "MAIN_POOL_PERCENTAGE",
      "outputs": [
        {
          "internalType": "uint256",
          "name": "",
          "type": "uint256"
        }
      ],
      "stateMutability": "view",
      "type": "function"
    },
    {
      "inputs": [],
      "name": "SECOND_PRIZE_PERCENTAGE",
      "outputs": [
        {
          "internalType": "uint256",
          "name": "",
          "type": "uint256"
        }
      ],
      "stateMutability": "view",
      "type": "function"
    },
    {
      "inputs": [],
      "name": "THIRD_PRIZE_PERCENTAGE",
      "outputs": [
        {
          "internalType": "uint256",
          "name": "",
          "type": "uint256"
        }
      ],
      "stateMutability": "view",
      "type": "function"
    },
    {
      "inputs": [],
      "name": "TICKET_PRICE",
      "outputs": [
        {
          "internalType": "uint256",
          "name": "",
          "type": "uint256"
        }
      ],
      "stateMutability": "view",
      "type": "function"
    },
    {
      "inputs": [],
      "name": "acceptOwnership",
      "outputs": [],
      "stateMutability": "nonpayable",
      "type": "function"
    },
    {
      "inputs": [
        {
          "internalType": "address",
          "name": "to",
          "type": "address"
        },
        {
          "internalType": "uint256",
          "name": "tokenId",
          "type": "uint256"
        }
      ],
      "name": "approve",
      "outputs": [],
      "stateMutability": "nonpayable",
      "type": "function"
    },
    {
      "inputs": [],
      "name": "automationActive",
      "outputs": [
        {
          "internalType": "bool",
          "name": "",
          "type": "bool"
        }
      ],
      "stateMutability": "view",
      "type": "function"
    },
    {
      "inputs": [
        {
          "internalType": "address",
          "name": "owner",
          "type": "address"
        }
      ],
      "name": "balanceOf",
      "outputs": [
        {
          "internalType": "uint256",
          "name": "",
          "type": "uint256"
        }
      ],
      "stateMutability": "view",
      "type": "function"
    },
    {
      "inputs": [
        {
          "internalType": "uint8[4]",
          "name": "_numbers",
          "type": "uint8[4]"
        }
      ],
      "name": "buyTicket",
      "outputs": [],
      "stateMutability": "nonpayable",
      "type": "function"
    },
    {
      "inputs": [
        {
          "internalType": "bytes",
          "name": "",
          "type": "bytes"
        }
      ],
      "name": "checkUpkeep",
      "outputs": [
        {
          "internalType": "bool",
          "name": "upkeepNeeded",
          "type": "bool"
        },
        {
          "internalType": "bytes",
          "name": "",
          "type": "bytes"
        }
      ],
      "stateMutability": "view",
      "type": "function"
    },
    {
      "inputs": [
        {
          "internalType": "uint256",
          "name": "_ticketId",
          "type": "uint256"
        }
      ],
      "name": "claimPrize",
      "outputs": [],
      "stateMutability": "nonpayable",
      "type": "function"
    },
    {
      "inputs": [],
      "name": "currentGameDay",
      "outputs": [
        {
          "internalType": "uint256",
          "name": "",
          "type": "uint256"
        }
      ],
      "stateMutability": "view",
      "type": "function"
    },
    {
      "inputs": [
        {
          "internalType": "uint256",
          "name": "",
          "type": "uint256"
        }
      ],
      "name": "dailyPools",
      "outputs": [
        {
          "internalType": "uint256",
          "name": "totalCollected",
          "type": "uint256"
        },
        {
          "internalType": "uint256",
          "name": "mainPoolPortion",
          "type": "uint256"
        },
        {
          "internalType": "uint256",
          "name": "reservePortion",
          "type": "uint256"
        },
        {
          "internalType": "uint256",
          "name": "firstPrizeDaily",
          "type": "uint256"
        },
        {
          "internalType": "uint256",
          "name": "secondPrizeDaily",
          "type": "uint256"
        },
        {
          "internalType": "uint256",
          "name": "thirdPrizeDaily",
          "type": "uint256"
        },
        {
          "internalType": "uint256",
          "name": "developmentDaily",
          "type": "uint256"
        },
        {
          "internalType": "bool",
          "name": "distributed",
          "type": "bool"
        },
        {
          "internalType": "uint256",
          "name": "distributionTime",
          "type": "uint256"
        },
        {
          "internalType": "bool",
          "name": "drawn",
          "type": "bool"
        },
        {
          "internalType": "bool",
          "name": "reservesSent",
          "type": "bool"
        }
      ],
      "stateMutability": "view",
      "type": "function"
    },
    {
      "inputs": [],
      "name": "drawTimeUTC",
      "outputs": [
        {
          "internalType": "uint256",
          "name": "",
          "type": "uint256"
        }
      ],
      "stateMutability": "view",
      "type": "function"
    },
    {
      "inputs": [],
      "name": "emergencyPause",
      "outputs": [
        {
          "internalType": "bool",
          "name": "",
          "type": "bool"
        }
      ],
      "stateMutability": "view",
      "type": "function"
    },
    {
      "inputs": [],
      "name": "emergencyWithdraw",
      "outputs": [],
      "stateMutability": "nonpayable",
      "type": "function"
    },
    {
      "inputs": [],
      "name": "gameActive",
      "outputs": [
        {
          "internalType": "bool",
          "name": "",
          "type": "bool"
        }
      ],
      "stateMutability": "view",
      "type": "function"
    },
    {
      "inputs": [
        {
          "internalType": "uint256",
          "name": "",
          "type": "uint256"
        },
        {
          "internalType": "uint256",
          "name": "",
          "type": "uint256"
        }
      ],
      "name": "gameDayTickets",
      "outputs": [
        {
          "internalType": "uint256",
          "name": "",
          "type": "uint256"
        }
      ],
      "stateMutability": "view",
      "type": "function"
    },
    {
      "inputs": [
        {
          "internalType": "uint256",
          "name": "tokenId",
          "type": "uint256"
        }
      ],
      "name": "getApproved",
      "outputs": [
        {
          "internalType": "address",
          "name": "",
          "type": "address"
        }
      ],
      "stateMutability": "view",
      "type": "function"
    },
    {
      "inputs": [],
      "name": "getCurrentDay",
      "outputs": [
        {
          "internalType": "uint256",
          "name": "",
          "type": "uint256"
        }
      ],
      "stateMutability": "view",
      "type": "function"
    },
    {
      "inputs": [
        {
          "internalType": "uint256",
          "name": "gameDay",
          "type": "uint256"
        }
      ],
      "name": "getGameDayTickets",
      "outputs": [
        {
          "internalType": "uint256[]",
          "name": "",
          "type": "uint256[]"
        }
      ],
      "stateMutability": "view",
      "type": "function"
    },
    {
      "inputs": [
        {
          "internalType": "uint256",
          "name": "ticketId",
          "type": "uint256"
        }
      ],
      "name": "getTicketInfo",
      "outputs": [
        {
          "internalType": "address",
          "name": "ticketOwner",
          "type": "address"
        },
        {
          "internalType": "uint8[4]",
          "name": "numbers",
          "type": "uint8[4]"
        },
        {
          "internalType": "uint256",
          "name": "gameDay",
          "type": "uint256"
        },
        {
          "internalType": "bool",
          "name": "isActive",
          "type": "bool"
        },
        {
          "internalType": "uint8",
          "name": "matches",
          "type": "uint8"
        }
      ],
      "stateMutability": "view",
      "type": "function"
    },
    {
      "inputs": [
        {
          "internalType": "address",
          "name": "user",
          "type": "address"
        }
      ],
      "name": "getUserTickets",
      "outputs": [
        {
          "internalType": "uint256[]",
          "name": "",
          "type": "uint256[]"
        }
      ],
      "stateMutability": "view",
      "type": "function"
    },
    {
      "inputs": [
        {
          "internalType": "address",
          "name": "owner",
          "type": "address"
        },
        {
          "internalType": "address",
          "name": "operator",
          "type": "address"
        }
      ],
      "name": "isApprovedForAll",
      "outputs": [
        {
          "internalType": "bool",
          "name": "",
          "type": "bool"
        }
      ],
      "stateMutability": "view",
      "type": "function"
    },
    {
      "inputs": [],
      "name": "lastDrawTime",
      "outputs": [
        {
          "internalType": "uint256",
          "name": "",
          "type": "uint256"
        }
      ],
      "stateMutability": "view",
      "type": "function"
    },
    {
      "inputs": [],
      "name": "lastMaintenanceTime",
      "outputs": [
        {
          "internalType": "uint256",
          "name": "",
          "type": "uint256"
        }
      ],
      "stateMutability": "view",
      "type": "function"
    },
    {
      "inputs": [
        {
          "internalType": "uint256",
          "name": "",
          "type": "uint256"
        }
      ],
      "name": "lastWinningNumbers",
      "outputs": [
        {
          "internalType": "uint8",
          "name": "",
          "type": "uint8"
        }
      ],
      "stateMutability": "view",
      "type": "function"
    },
    {
      "inputs": [],
      "name": "mainPools",
      "outputs": [
        {
          "internalType": "uint256",
          "name": "firstPrizeAccumulated",
          "type": "uint256"
        },
        {
          "internalType": "uint256",
          "name": "secondPrizeAccumulated",
          "type": "uint256"
        },
        {
          "internalType": "uint256",
          "name": "thirdPrizeAccumulated",
          "type": "uint256"
        },
        {
          "internalType": "uint256",
          "name": "developmentAccumulated",
          "type": "uint256"
        }
      ],
      "stateMutability": "view",
      "type": "function"
    },
    {
      "inputs": [],
      "name": "name",
      "outputs": [
        {
          "internalType": "string",
          "name": "",
          "type": "string"
        }
      ],
      "stateMutability": "view",
      "type": "function"
    },
    {
      "inputs": [],
      "name": "owner",
      "outputs": [
        {
          "internalType": "address",
          "name": "",
          "type": "address"
        }
      ],
      "stateMutability": "view",
      "type": "function"
    },
    {
      "inputs": [
        {
          "internalType": "uint256",
          "name": "tokenId",
          "type": "uint256"
        }
      ],
      "name": "ownerOf",
      "outputs": [
        {
          "internalType": "address",
          "name": "",
          "type": "address"
        }
      ],
      "stateMutability": "view",
      "type": "function"
    },
    {
      "inputs": [
        {
          "internalType": "bytes",
          "name": "performData",
          "type": "bytes"
        }
      ],
      "name": "performUpkeep",
      "outputs": [],
      "stateMutability": "nonpayable",
      "type": "function"
    },
    {
      "inputs": [
        {
          "internalType": "uint256",
          "name": "requestId",
          "type": "uint256"
        },
        {
          "internalType": "uint256[]",
          "name": "randomWords",
          "type": "uint256[]"
        }
      ],
      "name": "rawFulfillRandomWords",
      "outputs": [],
      "stateMutability": "nonpayable",
      "type": "function"
    },
    {
      "inputs": [],
      "name": "reserves",
      "outputs": [
        {
          "internalType": "uint256",
          "name": "firstPrizeReserve1",
          "type": "uint256"
        },
        {
          "internalType": "uint256",
          "name": "secondPrizeReserve2",
          "type": "uint256"
        },
        {
          "internalType": "uint256",
          "name": "thirdPrizeReserve3",
          "type": "uint256"
        }
      ],
      "stateMutability": "view",
      "type": "function"
    },
    {
      "inputs": [],
      "name": "s_vrfCoordinator",
      "outputs": [
        {
          "internalType": "contract IVRFCoordinatorV2Plus",
          "name": "",
          "type": "address"
        }
      ],
      "stateMutability": "view",
      "type": "function"
    },
    {
      "inputs": [
        {
          "internalType": "address",
          "name": "from",
          "type": "address"
        },
        {
          "internalType": "address",
          "name": "to",
          "type": "address"
        },
        {
          "internalType": "uint256",
          "name": "tokenId",
          "type": "uint256"
        }
      ],
      "name": "safeTransferFrom",
      "outputs": [],
      "stateMutability": "nonpayable",
      "type": "function"
    },
    {
      "inputs": [
        {
          "internalType": "address",
          "name": "from",
          "type": "address"
        },
        {
          "internalType": "address",
          "name": "to",
          "type": "address"
        },
        {
          "internalType": "uint256",
          "name": "tokenId",
          "type": "uint256"
        },
        {
          "internalType": "bytes",
          "name": "data",
          "type": "bytes"
        }
      ],
      "name": "safeTransferFrom",
      "outputs": [],
      "stateMutability": "nonpayable",
      "type": "function"
    },
    {
      "inputs": [
        {
          "internalType": "address",
          "name": "operator",
          "type": "address"
        },
        {
          "internalType": "bool",
          "name": "approved",
          "type": "bool"
        }
      ],
      "name": "setApprovalForAll",
      "outputs": [],
      "stateMutability": "nonpayable",
      "type": "function"
    },
    {
      "inputs": [
        {
          "internalType": "address",
          "name": "_vrfCoordinator",
          "type": "address"
        }
      ],
      "name": "setCoordinator",
      "outputs": [],
      "stateMutability": "nonpayable",
      "type": "function"
    },
    {
      "inputs": [],
      "name": "subscriptionId",
      "outputs": [
        {
          "internalType": "uint256",
          "name": "",
          "type": "uint256"
        }
      ],
      "stateMutability": "view",
      "type": "function"
    },
    {
      "inputs": [
        {
          "internalType": "bytes4",
          "name": "interfaceId",
          "type": "bytes4"
        }
      ],
      "name": "supportsInterface",
      "outputs": [
        {
          "internalType": "bool",
          "name": "",
          "type": "bool"
        }
      ],
      "stateMutability": "view",
      "type": "function"
    },
    {
      "inputs": [],
      "name": "symbol",
      "outputs": [
        {
          "internalType": "string",
          "name": "",
          "type": "string"
        }
      ],
      "stateMutability": "view",
      "type": "function"
    },
    {
      "inputs": [],
      "name": "ticketCounter",
      "outputs": [
        {
          "internalType": "uint256",
          "name": "",
          "type": "uint256"
        }
      ],
      "stateMutability": "view",
      "type": "function"
    },
    {
      "inputs": [
        {
          "internalType": "uint256",
          "name": "",
          "type": "uint256"
        }
      ],
      "name": "tickets",
      "outputs": [
        {
          "internalType": "uint256",
          "name": "tokenId",
          "type": "uint256"
        },
        {
          "internalType": "address",
          "name": "ticketOwner",
          "type": "address"
        },
        {
          "internalType": "uint256",
          "name": "gameDay",
          "type": "uint256"
        },
        {
          "internalType": "bool",
          "name": "isActive",
          "type": "bool"
        },
        {
          "internalType": "uint256",
          "name": "purchaseTime",
          "type": "uint256"
        },
        {
          "internalType": "bool",
          "name": "eligibleForReserve",
          "type": "bool"
        }
      ],
      "stateMutability": "view",
      "type": "function"
    },
    {
      "inputs": [],
      "name": "toggleAutomation",
      "outputs": [],
      "stateMutability": "nonpayable",
      "type": "function"
    },
    {
      "inputs": [],
      "name": "toggleEmergencyPause",
      "outputs": [],
      "stateMutability": "nonpayable",
      "type": "function"
    },
    {
      "inputs": [
        {
          "internalType": "uint256",
          "name": "index",
          "type": "uint256"
        }
      ],
      "name": "tokenByIndex",
      "outputs": [
        {
          "internalType": "uint256",
          "name": "",
          "type": "uint256"
        }
      ],
      "stateMutability": "view",
      "type": "function"
    },
    {
      "inputs": [
        {
          "internalType": "address",
          "name": "owner",
          "type": "address"
        },
        {
          "internalType": "uint256",
          "name": "index",
          "type": "uint256"
        }
      ],
      "name": "tokenOfOwnerByIndex",
      "outputs": [
        {
          "internalType": "uint256",
          "name": "",
          "type": "uint256"
        }
      ],
      "stateMutability": "view",
      "type": "function"
    },
    {
      "inputs": [
        {
          "internalType": "uint256",
          "name": "tokenId",
          "type": "uint256"
        }
      ],
      "name": "tokenURI",
      "outputs": [
        {
          "internalType": "string",
          "name": "",
          "type": "string"
        }
      ],
      "stateMutability": "view",
      "type": "function"
    },
    {
      "inputs": [],
      "name": "totalDrawsExecuted",
      "outputs": [
        {
          "internalType": "uint256",
          "name": "",
          "type": "uint256"
        }
      ],
      "stateMutability": "view",
      "type": "function"
    },
    {
      "inputs": [],
      "name": "totalReservesProcessed",
      "outputs": [
        {
          "internalType": "uint256",
          "name": "",
          "type": "uint256"
        }
      ],
      "stateMutability": "view",
      "type": "function"
    },
    {
      "inputs": [],
      "name": "totalSupply",
      "outputs": [
        {
          "internalType": "uint256",
          "name": "",
          "type": "uint256"
        }
      ],
      "stateMutability": "view",
      "type": "function"
    },
    {
      "inputs": [
        {
          "internalType": "address",
          "name": "from",
          "type": "address"
        },
        {
          "internalType": "address",
          "name": "to",
          "type": "address"
        },
        {
          "internalType": "uint256",
          "name": "tokenId",
          "type": "uint256"
        }
      ],
      "name": "transferFrom",
      "outputs": [],
      "stateMutability": "nonpayable",
      "type": "function"
    },
    {
      "inputs": [
        {
          "internalType": "address",
          "name": "to",
          "type": "address"
        }
      ],
      "name": "transferOwnership",
      "outputs": [],
      "stateMutability": "nonpayable",
      "type": "function"
    },
    {
      "inputs": [],
      "name": "usdcToken",
      "outputs": [
        {
          "internalType": "contract IERC20",
          "name": "",
          "type": "address"
        }
      ],
      "stateMutability": "view",
      "type": "function"
    },
    {
      "inputs": [
        {
          "internalType": "address",
          "name": "",
          "type": "address"
        },
        {
          "internalType": "uint256",
          "name": "",
          "type": "uint256"
        }
      ],
      "name": "userTickets",
      "outputs": [
        {
          "internalType": "uint256",
          "name": "",
          "type": "uint256"
        }
      ],
      "stateMutability": "view",
      "type": "function"
    },
    {
      "inputs": [
        {
          "internalType": "uint8[4]",
          "name": "numbers",
          "type": "uint8[4]"
        }
      ],
      "name": "validateEmojiSelection",
      "outputs": [
        {
          "internalType": "bool",
          "name": "",
          "type": "bool"
        }
      ],
      "stateMutability": "pure",
      "type": "function"
    }
  ],
  "bytecode": "0x60e0604052612a30600e556011805462ffffff19166101011790553480156200002757600080fd5b50604051620040a3380380620040a38339810160408190526200004a91620002b7565b604080518082018252601081526f131bdd1d1bd35bda9a48151a58dad95d60821b602080830191909152825180840190935260058352644c4d4f4a4960d81b9083015290735c210ef41cd1a72de73bf76ec39637bb0d3d7bee3380600081620000fa5760405162461bcd60e51b815260206004820152601860248201527f43616e6e6f7420736574206f776e657220746f207a65726f000000000000000060448201526064015b60405180910390fd5b600080546001600160a01b0319166001600160a01b03848116919091179091558116156200012d576200012d81620001e5565b5050506001600160a01b038116620001585760405163d92e233d60e01b815260040160405180910390fd5b600280546001600160a01b0319166001600160a01b0392909216919091179055600160035560046200018b838262000398565b5060056200019a828262000398565b5050735c210ef41cd1a72de73bf76ec39637bb0d3d7bee608052506001600160a01b03821660a05260c0819052620001d162000290565b6010555050426020819055602155620004af565b336001600160a01b038216036200023f5760405162461bcd60e51b815260206004820152601760248201527f43616e6e6f74207472616e7366657220746f2073656c660000000000000000006044820152606401620000f1565b600180546001600160a01b0319166001600160a01b0383811691821790925560008054604051929316917fed8889f560326eb138920d842192f0eb3dd22b4f139c87a2c57538e05bae12789190a350565b600062015180600e5442620002a6919062000464565b620002b291906200048c565b905090565b60008060408385031215620002cb57600080fd5b82516001600160a01b0381168114620002e357600080fd5b6020939093015192949293505050565b634e487b7160e01b600052604160045260246000fd5b600181811c908216806200031e57607f821691505b6020821081036200033f57634e487b7160e01b600052602260045260246000fd5b50919050565b601f8211156200039357600081815260208120601f850160051c810160208610156200036e5750805b601f850160051c820191505b818110156200038f578281556001016200037a565b5050505b505050565b81516001600160401b03811115620003b457620003b4620002f3565b620003cc81620003c5845462000309565b8462000345565b602080601f831160018114620004045760008415620003eb5750858301515b600019600386901b1c1916600185901b1785556200038f565b600085815260208120601f198616915b82811015620004355788860151825594840194600190910190840162000414565b5085821015620004545787850151600019600388901b60f8161c191681555b5050505050600190811b01905550565b808201808211156200048657634e487b7160e01b600052601160045260246000fd5b92915050565b600082620004aa57634e487b7160e01b600052601260045260246000fd5b500490565b60805160a05160c051613ba1620005026000396000818161046101526120f60152600081816104af01528181610cec015281816117ed015281816119cb0152611a8b0152600061216c0152613ba16000f3fe608060405234801561001057600080fd5b50600436106103ba5760003560e01c80635cbbd635116101f4578063a22cb4651161011a578063d7098154116100ad578063e985e9c51161007c578063e985e9c514610908578063f020044f1461091b578063f2fde38b14610928578063ff99a0631461093b57600080fd5b8063d7098154146108c7578063d85c156c146108da578063db2e21bc146108ed578063dc85dced146108f557600080fd5b8063c4aa7245116100e9578063c4aa72451461088f578063c6b749e214610897578063c87b56dd146108a1578063cf260baf146108b457600080fd5b8063a22cb46514610861578063b88d4fde14610874578063bc62b32d146105f5578063c37080911461088757600080fd5b806379ba509711610192578063946fee0211610161578063946fee021461082a57806395b1b4301461083d57806395d89b41146108465780639eccacf61461084e57600080fd5b806379ba5097146107f55780638c4d59d0146107fd5780638da5cb5b146108065780638ea981171461081757600080fd5b80636e04ff0d116101ce5780636e04ff0d1461076f57806370a082311461079057806375172a8b146107a35780637624bb87146107d057600080fd5b80635cbbd635146107415780636352211e1461074a5780636baf4a741461075d57600080fd5b80632599399e116102e45780633e6968b6116102775780634f6ccce7116102465780634f6ccce71461068557806350152c4c1461069857806350b44712146106a157806351858e271461072e57600080fd5b80633e6968b61461064f57806342842e0e146106575780634585e33b1461066a5780634f687e911461067d57600080fd5b806333f0ef08116102b357806333f0ef08146105f557806338cdf7cc146105fd5780633995326f146106065780633d4962ed1461063c57600080fd5b80632599399e14610491578063299f91ba146105115780632a1b43591461051a5780632f745c59146105e257600080fd5b80630cbed53a1161035c57806318160ddd1161032b57806318160ddd146104d95780631a95f15f146104e15780631fe543e3146104eb57806323b872dd146104fe57600080fd5b80630cbed53a146104995780630d50cdb9146104a157806311eac855146104aa578063147e291f146104d157600080fd5b8063081812fc11610398578063081812fc1461041c578063095ea7b31461044757806309c1ba2e1461045c5780630bc75eb31461049157600080fd5b806301ffc9a7146103bf5780630484a22f146103e757806306fdde0314610407575b600080fd5b6103d26103cd3660046132e4565b61095f565b60405190151581526020015b60405180910390f35b6103fa6103f536600461331d565b610970565b6040516103de9190613338565b61040f6109dc565b6040516103de91906133cc565b61042f61042a3660046133df565b610a6e565b6040516001600160a01b0390911681526020016103de565b61045a6104553660046133f8565b610a97565b005b6104837f000000000000000000000000000000000000000000000000000000000000000081565b6040519081526020016103de565b610483600581565b610483601481565b61048360105481565b61042f7f000000000000000000000000000000000000000000000000000000000000000081565b61045a610aa6565b600c54610483565b610483621e848081565b61045a6104f9366004613422565b610acd565b61045a61050c3660046134a1565b610b22565b61048360215481565b6105896105283660046133df565b6019602052600090815260409020805460018201546002830154600384015460048501546005860154600687015460078801546008890154600a90990154979896979596949593949293919260ff918216929091818116916101009004168b565b604080519b8c5260208c019a909a52988a01979097526060890195909552608088019390935260a087019190915260c0860152151560e085015261010084015215156101208301521515610140820152610160016103de565b6104836105f03660046133f8565b610bad565b610483605081565b610483600e5481565b60125460135460145460155461061c9392919084565b6040805194855260208501939093529183015260608201526080016103de565b61045a61064a366004613524565b610c12565b610483610f5d565b61045a6106653660046134a1565b610f80565b61045a6106783660046135b2565b610f9b565b61045a611046565b6104836106933660046133df565b61106b565b610483601e5481565b6106f56106af3660046133df565b601a6020526000908152604090208054600182015460038301546004840154600585015460069095015493946001600160a01b0390931693919260ff9182169290911686565b604080519687526001600160a01b03909516602087015293850192909252151560608401526080830152151560a082015260c0016103de565b6011546103d29062010000900460ff1681565b61048360205481565b61042f6107583660046133df565b6110c4565b6011546103d290610100900460ff1681565b61078261077d3660046135b2565b6110cf565b6040516103de929190613624565b61048361079e36600461331d565b611182565b6016546017546018546107b592919083565b604080519384526020840192909252908201526060016103de565b6107e36107de3660046133df565b6111ca565b60405160ff90911681526020016103de565b61045a6111f4565b610483601d5481565b6000546001600160a01b031661042f565b61045a61082536600461331d565b61129e565b61048361083836600461363f565b611390565b610483601f5481565b61040f6113c1565b60025461042f906001600160a01b031681565b61045a61086f36600461366f565b6113d0565b61045a6108823660046136a6565b6113db565b6107e3601981565b610483600a81565b6104836201518081565b61040f6108af3660046133df565b6113f2565b6104836108c23660046133f8565b6115ba565b61045a6108d53660046133df565b6115d6565b6103d26108e8366004613524565b6118f9565b61045a61194b565b6103fa6109033660046133df565b611b86565b6103d2610916366004613766565b611be6565b6011546103d29060ff1681565b61045a61093636600461331d565b611c14565b61094e6109493660046133df565b611c25565b6040516103de9594939291906137bf565b600061096a82611d2c565b92915050565b6001600160a01b0381166000908152601c60209081526040918290208054835181840281018401909452808452606093928301828280156109d057602002820191906000526020600020905b8154815260200190600101908083116109bc575b50505050509050919050565b6060600480546109eb906137fc565b80601f0160208091040260200160405190810160405280929190818152602001828054610a17906137fc565b8015610a645780601f10610a3957610100808354040283529160200191610a64565b820191906000526020600020905b815481529060010190602001808311610a4757829003601f168201915b5050505050905090565b6000610a7982611d51565b506000828152600860205260409020546001600160a01b031661096a565b610aa2828233611d8a565b5050565b610aae611d97565b6011805462ff0000198116620100009182900460ff1615909102179055565b6002546001600160a01b03163314610b125760025460405163073e64fd60e21b81523360048201526001600160a01b0390911660248201526044015b60405180910390fd5b610b1d838383611dea565b505050565b6001600160a01b038216610b4c57604051633250574960e11b815260006004820152602401610b09565b6000610b59838333611f71565b9050836001600160a01b0316816001600160a01b031614610ba7576040516364283d7b60e01b81526001600160a01b0380861660048301526024820184905282166044820152606401610b09565b50505050565b6000610bb883611182565b8210610be95760405163295f44f760e21b81526001600160a01b038416600482015260248101839052604401610b09565b506001600160a01b03919091166000908152600a60209081526040808320938352929052205490565b610c1a611f86565b60115460ff168015610c35575060115462010000900460ff16155b610c735760405162461bcd60e51b815260206004820152600f60248201526e47616d65206e6f742061637469766560881b6044820152606401610b09565b610c7c816118f9565b610cc85760405162461bcd60e51b815260206004820152601760248201527f496e76616c696420656d6f6a692073656c656374696f6e0000000000000000006044820152606401610b09565b6040516323b872dd60e01b8152336004820152306024820152621e848060448201527f00000000000000000000000000000000000000000000000000000000000000006001600160a01b0316906323b872dd906064016020604051808303816000875af1158015610d3d573d6000803e3d6000fd5b505050506040513d601f19601f82011682018060405250810190610d619190613836565b610da45760405162461bcd60e51b81526020600482015260146024820152731554d110c81d1c985b9cd9995c8819985a5b195960621b6044820152606401610b09565b6000610dae610f5d565b601d80549192506000610dc083613869565b90915550506040805160e081018252601d54808252336020808401918252838501878152606085018790526001608086018190524260a087015260c086018190526000948552601a9092529490922083518155905191810180546001600160a01b0319166001600160a01b03909316929092179091559151909190610e4b9060028301906004613208565b5060608201516003820155608082015160048201805491151560ff1992831617905560a0830151600583015560c09092015160069091018054911515919092161790556000818152601b60209081526040808320601d80548254600181810185559387528587200155338552601c845282852090548154928301825590855283852090910155838352601990915281208054621e84809290610eee908490613882565b90915550610efd905081611fb0565b610f0933601d54612090565b336001600160a01b0316601d547f8d638e5fab80232bf709cdd14d918285207e67414f36a090fb409fde4eb5af358484604051610f47929190613895565b60405180910390a350610f5a6001600355565b50565b600062015180600e5442610f719190613882565b610f7b91906138c6565b905090565b610b1d838383604051806020016040528060008152506113db565b601154610100900460ff168015610fbb575060115462010000900460ff16155b610ffb5760405162461bcd60e51b8152602060048201526011602482015270105d5d1bdb585d1a5bdb881c185d5cd959607a1b6044820152606401610b09565b6000611009828401846138da565b905080801561101b575061101b6120aa565b1561102857610b1d6120c7565b8015801561103957506110396121e4565b15610b1d57610b1d6121fe565b61104e611d97565b6011805461ff001981166101009182900460ff1615909102179055565b6000611076600c5490565b821061109f5760405163295f44f760e21b81526000600482015260248101839052604401610b09565b600c82815481106110b2576110b26138f7565b90600052602060002001549050919050565b600061096a82611d51565b601154600090606090610100900460ff1615806110f4575060115462010000900460ff165b15611111575050604080516020810190915260008082529061117b565b6111196120aa565b15611146576040805160016020820181905291015b6040516020818303038152906040529150915061117b565b61114e6121e4565b156111675760408051600060208201526001910161112e565b505060408051602081019091526000808252905b9250929050565b60006001600160a01b0382166111ae576040516322718ad960e21b815260006004820152602401610b09565b506001600160a01b031660009081526007602052604090205490565b600f81600481106111da57600080fd5b60209182820401919006915054906101000a900460ff1681565b6001546001600160a01b031633146112475760405162461bcd60e51b815260206004820152601660248201527526bab9ba10313290383937b837b9b2b21037bbb732b960511b6044820152606401610b09565b60008054336001600160a01b0319808316821784556001805490911690556040516001600160a01b0390921692909183917f8be0079c531659141344cd1fd0a4f28419497f9722a3daafe3b4186f6b6457e091a350565b6000546001600160a01b031633148015906112c457506002546001600160a01b03163314155b1561131557336112dc6000546001600160a01b031690565b60025460405163061db9c160e01b81526001600160a01b0393841660048201529183166024830152919091166044820152606401610b09565b6001600160a01b03811661133c5760405163d92e233d60e01b815260040160405180910390fd5b600280546001600160a01b0319166001600160a01b0383169081179091556040519081527fd1a6a14209a385a964d036e404cb5cfb71f4000cdb03c9366292430787261be69060200160405180910390a150565b601b60205281600052604060002081815481106113ac57600080fd5b90600052602060002001600091509150505481565b6060600580546109eb906137fc565b610aa2338383612279565b6113e6848484610b22565b610ba784848484612318565b6000818152600660205260409020546060906001600160a01b03166114505760405162461bcd60e51b8152602060048201526014602482015273151bdad95b88191bd95cc81b9bdd08195e1a5cdd60621b6044820152606401610b09565b6000828152601a60209081526040808320815160e0810183528154815260018201546001600160a01b031693810193909352815160808101808452919284019160028401906004908288855b825461010083900a900460ff1681526020600192830181810494850194909303909202910180841161149c5750505092845250505060038201546020820152600482015460ff90811615156040808401919091526005840154606084015260069093015416151560809091015281015190915060009061152590825b602002015160ff16612441565b6040830151611535906001611518565b6040840151611545906002611518565b6040850151611555906003611518565b604051602001611568949392919061390d565b604051602081830303815290604052905061158284612441565b816115908460600151612441565b6040516020016115a293929190613985565b60405160208183030381529060405292505050919050565b601c60205281600052604060002081815481106113ac57600080fd5b6115de611f86565b6000818152601a60205260409020600101546001600160a01b0316331461163a5760405162461bcd60e51b815260206004820152601060248201526f2737ba103a34b1b5b2ba1037bbb732b960811b6044820152606401610b09565b6000818152601a602052604090206004015460ff166116945760405162461bcd60e51b8152602060048201526016602482015275151a58dad95d08185b1c9958591e4818db185a5b595960521b6044820152606401610b09565b6000818152601a60209081526040808320600301548084526019909252909120600a015460ff166116ff5760405162461bcd60e51b8152602060048201526015602482015274111c985dc81b9bdd08195e1958dd5d1959081e595d605a1b6044820152606401610b09565b600061170a836124d4565b905060028160ff1610156117605760405162461bcd60e51b815260206004820152601860248201527f4e6f207072697a6520666f722074686973207469636b657400000000000000006044820152606401610b09565b600061176c848361254e565b9050600081116117b35760405162461bcd60e51b81526020600482015260126024820152714e6f207072697a6520617661696c61626c6560701b6044820152606401610b09565b6000848152601a6020526040908190206004908101805460ff19169055905163a9059cbb60e01b81523391810191909152602481018290527f00000000000000000000000000000000000000000000000000000000000000006001600160a01b03169063a9059cbb906044016020604051808303816000875af115801561183e573d6000803e3d6000fd5b505050506040513d601f19601f820116820180604052508101906118629190613836565b6118a65760405162461bcd60e51b8152602060048201526015602482015274141c9a5e99481d1c985b9cd9995c8819985a5b1959605a1b6044820152606401610b09565b6040805182815260ff841660208201526000818301529051339186917f026cdcc366814fb563cebc9794374e5d7aaa2f89b43f7f7661e5439f2c89f8f79181900360600190a3505050610f5a6001600355565b6000805b600481101561194257601983826004811061191a5761191a6138f7565b602002015160ff16106119305750600092915050565b8061193a81613869565b9150506118fd565b50600192915050565b611953611d97565b61195b611f86565b60115462010000900460ff166119b35760405162461bcd60e51b815260206004820152601a60248201527f4d75737420626520696e20656d657267656e63792070617573650000000000006044820152606401610b09565b6040516370a0823160e01b81523060048201526000907f00000000000000000000000000000000000000000000000000000000000000006001600160a01b0316906370a0823190602401602060405180830381865afa158015611a1a573d6000803e3d6000fd5b505050506040513d601f19601f82011682018060405250810190611a3e9190613a28565b905060008111611a895760405162461bcd60e51b81526020600482015260166024820152754e6f2062616c616e636520746f20776974686472617760501b6044820152606401610b09565b7f00000000000000000000000000000000000000000000000000000000000000006001600160a01b031663a9059cbb611aca6000546001600160a01b031690565b6040516001600160e01b031960e084901b1681526001600160a01b039091166004820152602481018490526044016020604051808303816000875af1158015611b17573d6000803e3d6000fd5b505050506040513d601f19601f82011682018060405250810190611b3b9190613836565b611b795760405162461bcd60e51b815260206004820152600f60248201526e151c985b9cd9995c8819985a5b1959608a1b6044820152606401610b09565b50611b846001600355565b565b6000818152601b60209081526040918290208054835181840281018401909452808452606093928301828280156109d057602002820191906000526020600020908154815260200190600101908083116109bc5750505050509050919050565b6001600160a01b03918216600090815260096020908152604080832093909416825291909152205460ff1690565b611c1c611d97565b610f5a816126c0565b6000611c2f61329b565b6000838152601a60209081526040808320815160e0810183528154815260018201546001600160a01b03169381019390935281516080810180845285948594859491939192908401919060028401906004908288855b825461010083900a900460ff16815260206001928301818104948501949093039092029101808411611c85575050509284525050506003820154602080830191909152600483015460ff9081161515604080850191909152600585015460608086019190915260069095015490911615156080938401529084015190840151928401519184015193945092611d198b6124d4565b939b929a50909850965090945092505050565b60006001600160e01b0319821663780e9d6360e01b148061096a575061096a82612769565b6000818152600660205260408120546001600160a01b03168061096a57604051637e27328960e01b815260048101849052602401610b09565b610b1d83838360016127b9565b6000546001600160a01b03163314611b845760405162461bcd60e51b815260206004820152601660248201527527b7363c9031b0b63630b1363290313c9037bbb732b960511b6044820152606401610b09565b60048114611e3a5760405162461bcd60e51b815260206004820152601e60248201527f496e76616c6964206e756d626572206f662072616e646f6d20776f72647300006044820152606401610b09565b611e4261329b565b60005b6004811015611ea4576019848483818110611e6257611e626138f7565b90506020020135611e739190613a41565b828260048110611e8557611e856138f7565b60ff909216602092909202015280611e9c81613869565b915050611e45565b50611eb2600f826004613208565b504260205560006001611ec3610f5d565b611ecd9190613a55565b6000818152601960205260409020909150611eed90600901836004613208565b506000818152601960205260409020600a01805460ff19166001179055611f1481836128bf565b601e8054906000611f2483613869565b9190505550807fe69a20bd85247c3428aec726bfa23e80608f0c3fdc4cb8b85d1cf67cfa22516283611f54612a54565b604051611f62929190613895565b60405180910390a25050505050565b6000611f7e848484612a82565b949350505050565b600260035403611fa957604051633ee5aeb560e01b815260040160405180910390fd5b6002600355565b60008181526019602052604090208054606490611fcf90605090613a68565b611fd991906138c6565b60018201558054606490611fef90601490613a68565b611ff991906138c6565b6002820155600181015460649061201290605090613a68565b61201c91906138c6565b6003820155600181015460649061203590600a90613a68565b61203f91906138c6565b6004820155600181015460649061205890600590613a68565b61206291906138c6565b816005018190555060646005826001015461207d9190613a68565b61208791906138c6565b60069091015550565b610aa2828260405180602001604052806000815250612b4f565b600080620151806020546120be9190613882565b42101592915050565b6040805160c0810182527f9e1344a1247c8a1785d0a4681a27152bffdb43666ae5bf7d14d24a5efd44bf7181527f0000000000000000000000000000000000000000000000000000000000000000602080830191909152600382840152622625a0606083015260046080830152825190810190925260008083529160a082019061215090612b66565b9052604051634d8e1c2f60e11b81529091506001600160a01b037f00000000000000000000000000000000000000000000000000000000000000001690639b1c385e906121a1908490600401613a7f565b6020604051808303816000875af11580156121c0573d6000803e3d6000fd5b505050506040513d601f19601f82011682018060405250810190610aa29190613a28565b6000610e10602154426121f79190613a55565b1015905090565b6000600161220a610f5d565b6122149190613a55565b6000818152601960205260409020600a0154909150610100900460ff1615801561224f57506000818152601960205260409020600a015460ff165b1561225d5761225d81612bd7565b42602155601f805490600061227183613869565b919050555050565b6001600160a01b0382166122ab57604051630b61174360e31b81526001600160a01b0383166004820152602401610b09565b6001600160a01b03838116600081815260096020908152604080832094871680845294825291829020805460ff191686151590811790915591519182527f17307eab39ab6107e8899845ad3d59bd9653f200f220920489ca2b5937696c31910160405180910390a3505050565b6001600160a01b0383163b15610ba757604051630a85bd0160e11b81526001600160a01b0384169063150b7a029061235a903390889087908790600401613adc565b6020604051808303816000875af1925050508015612395575060408051601f3d908101601f1916820190925261239291810190613b19565b60015b6123fe573d8080156123c3576040519150601f19603f3d011682016040523d82523d6000602084013e6123c8565b606091505b5080516000036123f657604051633250574960e11b81526001600160a01b0385166004820152602401610b09565b805181602001fd5b6001600160e01b03198116630a85bd0160e11b1461243a57604051633250574960e11b81526001600160a01b0385166004820152602401610b09565b5050505050565b6060600061244e83612caf565b600101905060008167ffffffffffffffff81111561246e5761246e6134dd565b6040519080825280601f01601f191660200182016040528015612498576020820181803683370190505b5090508181016020015b600019016f181899199a1a9b1b9c1cb0b131b232b360811b600a86061a8153600a85049450846124a257509392505050565b6000818152601a6020908152604080832060030154808452601990925280832081516080810192839052612547928692600901906004908288855b825461010083900a900460ff1681526020600192830181810494850194909303909202910180841161250f5790505050505050612d87565b9392505050565b6000828152601a602090815260408083206003908101548085526019845282852083516101808101855281548152600182015495810195909552600281015485850152918201546060850152600480830154608080870191909152600584015460a0870152600684015460c0870152600784015460ff16151560e087015260088401546101008701528451908101948590529194869490939261012085019290916009850191908288855b825461010083900a900460ff168152602060019283018181049485019490930390920291018084116125f957505050928452505050600a919091015460ff8082161515602084015261010090910481161515604090920191909152909150841660040361267b5760125460608201516126729190613882565b9250505061096a565b8360ff166003036126985760135460808201516126729190613882565b8360ff166002036126b55760145460a08201516126729190613882565b506000949350505050565b336001600160a01b038216036127185760405162461bcd60e51b815260206004820152601760248201527f43616e6e6f74207472616e7366657220746f2073656c660000000000000000006044820152606401610b09565b600180546001600160a01b0319166001600160a01b0383811691821790925560008054604051929316917fed8889f560326eb138920d842192f0eb3dd22b4f139c87a2c57538e05bae12789190a350565b60006001600160e01b031982166380ac58cd60e01b148061279a57506001600160e01b03198216635b5e139f60e01b145b8061096a57506301ffc9a760e01b6001600160e01b031983161461096a565b80806127cd57506001600160a01b03821615155b1561288f5760006127dd84611d51565b90506001600160a01b038316158015906128095750826001600160a01b0316816001600160a01b031614155b801561281c575061281a8184611be6565b155b156128455760405163a9fbf51f60e01b81526001600160a01b0384166004820152602401610b09565b811561288d5783856001600160a01b0316826001600160a01b03167f8c5be1e5ebec7d5bd14f71427d1e84f3dd0314c0f7b2291e5b200ac8c7c3b92560405160405180910390a45b505b5050600090815260086020526040902080546001600160a01b0319166001600160a01b0392909216919091179055565b6000828152601b602090815260408083208054825181850281018501909352808352919290919083018282801561291557602002820191906000526020600020905b815481526020019060010190808311612901575b505050505090506000806000805b84518110156129a5576000858281518110612940576129406138f7565b6020026020010151905060006129568289612d87565b90508060ff1660040361296c5760019550612990565b8060ff166003036129805760019450612990565b8060ff1660020361299057600193505b5050808061299d90613869565b915050612923565b506000868152601960205260409020836129d6576003810154601280546000906129d0908490613882565b90915550505b826129f8576004810154601380546000906129f2908490613882565b90915550505b81612a1a57600581015460148054600090612a14908490613882565b90915550505b600681015460158054600090612a31908490613882565b909155505060078101805460ff1916600117905542600890910155505050505050565b6015546014546013546012546000939291612a6e91613882565b612a789190613882565b610f7b9190613882565b600080612a90858585612e53565b90506001600160a01b038116612aed57612ae884600c80546000838152600d60205260408120829055600182018355919091527fdf6966c971051c3d54ec59162606531493a51404a002842f56009d7e5cf4a8c70155565b612b10565b846001600160a01b0316816001600160a01b031614612b1057612b108185612f4c565b6001600160a01b038516612b2c57612b2784612fdd565b611f7e565b846001600160a01b0316816001600160a01b031614611f7e57611f7e858561308c565b612b5983836130dc565b610b1d6000848484612318565b60607f92fd13387c7fe7befbc38d303d6468778fb9731bc4583f17d92989c6fcfdeaaa82604051602401612b9f91511515815260200190565b60408051601f198184030181529190526020810180516001600160e01b03166001600160e01b03199093169290921790915292915050565b60008181526019602052604081206002810154909190612bf9906003906138c6565b90508060166000016000828254612c109190613882565b909155505060178054829190600090612c2a908490613882565b909155505060188054829190600090612c44908490613882565b9091555050600a8201805461ff00191661010017905560028201546040805183815260208101849052908101839052606081019190915283907fa5d2656a8dcf8630609f3f5ce778cc220baea1b2e804fbc353c4ec0bfbae10ad9060800160405180910390a2505050565b60008072184f03e93ff9f4daa797ed6e38ed64bf6a1f0160401b8310612cee5772184f03e93ff9f4daa797ed6e38ed64bf6a1f0160401b830492506040015b6d04ee2d6d415b85acef81000000008310612d1a576d04ee2d6d415b85acef8100000000830492506020015b662386f26fc100008310612d3857662386f26fc10000830492506010015b6305f5e1008310612d50576305f5e100830492506008015b6127108310612d6457612710830492506004015b60648310612d76576064830492506002015b600a831061096a5760010192915050565b6000828152601a60205260408082208151608081019283905283929091600201906004908285855b825461010083900a900460ff16815260206001928301818104948501949093039092029101808411612daf579050505050505090506000805b6004811015612e4a57848160048110612e0357612e036138f7565b602002015160ff16838260048110612e1d57612e1d6138f7565b602002015160ff1603612e385781612e3481613b36565b9250505b80612e4281613869565b915050612de8565b50949350505050565b6000828152600660205260408120546001600160a01b0390811690831615612e8057612e80818486613141565b6001600160a01b03811615612ebe57612e9d6000856000806127b9565b6001600160a01b038116600090815260076020526040902080546000190190555b6001600160a01b03851615612eed576001600160a01b0385166000908152600760205260409020805460010190555b60008481526006602052604080822080546001600160a01b0319166001600160a01b0389811691821790925591518793918516917fddf252ad1be2c89b69c2b068fc378daa952ba7f163c4a11628f55a4df523b3ef91a4949350505050565b6000612f5783611182565b6000838152600b6020526040902054909150808214612faa576001600160a01b0384166000908152600a602090815260408083208584528252808320548484528184208190558352600b90915290208190555b506000918252600b602090815260408084208490556001600160a01b039094168352600a81528383209183525290812055565b600c54600090612fef90600190613a55565b6000838152600d6020526040812054600c8054939450909284908110613017576130176138f7565b9060005260206000200154905080600c8381548110613038576130386138f7565b6000918252602080832090910192909255828152600d9091526040808220849055858252812055600c80548061307057613070613b55565b6001900381819060005260206000200160009055905550505050565b6000600161309984611182565b6130a39190613a55565b6001600160a01b039093166000908152600a602090815260408083208684528252808320859055938252600b9052919091209190915550565b6001600160a01b03821661310657604051633250574960e11b815260006004820152602401610b09565b600061311483836000611f71565b90506001600160a01b03811615610b1d576040516339e3563760e11b815260006004820152602401610b09565b61314c8383836131a5565b610b1d576001600160a01b03831661317a57604051637e27328960e01b815260048101829052602401610b09565b60405163177e802f60e01b81526001600160a01b038316600482015260248101829052604401610b09565b60006001600160a01b03831615801590611f7e5750826001600160a01b0316846001600160a01b031614806131df57506131df8484611be6565b80611f7e5750506000908152600860205260409020546001600160a01b03908116911614919050565b60018301918390821561328b5791602002820160005b8382111561325c57835183826101000a81548160ff021916908360ff160217905550926020019260010160208160000104928301926001030261321e565b80156132895782816101000a81549060ff021916905560010160208160000104928301926001030261325c565b505b506132979291506132b9565b5090565b60405180608001604052806004906020820280368337509192915050565b5b8082111561329757600081556001016132ba565b6001600160e01b031981168114610f5a57600080fd5b6000602082840312156132f657600080fd5b8135612547816132ce565b80356001600160a01b038116811461331857600080fd5b919050565b60006020828403121561332f57600080fd5b61254782613301565b6020808252825182820181905260009190848201906040850190845b8181101561337057835183529284019291840191600101613354565b50909695505050505050565b60005b8381101561339757818101518382015260200161337f565b50506000910152565b600081518084526133b881602086016020860161337c565b601f01601f19169290920160200192915050565b60208152600061254760208301846133a0565b6000602082840312156133f157600080fd5b5035919050565b6000806040838503121561340b57600080fd5b61341483613301565b946020939093013593505050565b60008060006040848603121561343757600080fd5b83359250602084013567ffffffffffffffff8082111561345657600080fd5b818601915086601f83011261346a57600080fd5b81358181111561347957600080fd5b8760208260051b850101111561348e57600080fd5b6020830194508093505050509250925092565b6000806000606084860312156134b657600080fd5b6134bf84613301565b92506134cd60208501613301565b9150604084013590509250925092565b634e487b7160e01b600052604160045260246000fd5b604051601f8201601f1916810167ffffffffffffffff8111828210171561351c5761351c6134dd565b604052919050565b60006080828403121561353657600080fd5b82601f83011261354557600080fd5b6040516080810181811067ffffffffffffffff82111715613568576135686134dd565b60405280608084018581111561357d57600080fd5b845b818110156135a757803560ff811681146135995760008081fd5b83526020928301920161357f565b509195945050505050565b600080602083850312156135c557600080fd5b823567ffffffffffffffff808211156135dd57600080fd5b818501915085601f8301126135f157600080fd5b81358181111561360057600080fd5b86602082850101111561361257600080fd5b60209290920196919550909350505050565b8215158152604060208201526000611f7e60408301846133a0565b6000806040838503121561365257600080fd5b50508035926020909101359150565b8015158114610f5a57600080fd5b6000806040838503121561368257600080fd5b61368b83613301565b9150602083013561369b81613661565b809150509250929050565b600080600080608085870312156136bc57600080fd5b6136c585613301565b935060206136d4818701613301565b935060408601359250606086013567ffffffffffffffff808211156136f857600080fd5b818801915088601f83011261370c57600080fd5b81358181111561371e5761371e6134dd565b613730601f8201601f191685016134f3565b9150808252898482850101111561374657600080fd5b808484018584013760008482840101525080935050505092959194509250565b6000806040838503121561377957600080fd5b61378283613301565b915061379060208401613301565b90509250929050565b8060005b6004811015610ba757815160ff1684526020938401939091019060010161379d565b6001600160a01b038616815261010081016137dd6020830187613799565b60a082019490945291151560c083015260ff1660e09091015292915050565b600181811c9082168061381057607f821691505b60208210810361383057634e487b7160e01b600052602260045260246000fd5b50919050565b60006020828403121561384857600080fd5b815161254781613661565b634e487b7160e01b600052601160045260246000fd5b60006001820161387b5761387b613853565b5060010190565b8082018082111561096a5761096a613853565b60a081016138a38285613799565b8260808301529392505050565b634e487b7160e01b600052601260045260246000fd5b6000826138d5576138d56138b0565b500490565b6000602082840312156138ec57600080fd5b813561254781613661565b634e487b7160e01b600052603260045260246000fd5b6000855161391f818460208a0161337c565b8083019050600b60fa1b808252865161393f816001850160208b0161337c565b60019201918201819052855161395c816002850160208a0161337c565b6002920191820152835161397781600384016020880161337c565b016003019695505050505050565b7f68747470733a2f2f6c6f74746f6d6f6a692e636f6d2f6170692f6d657461646181526274612f60e81b6020820152600084516139c981602385016020890161337c565b673f656d6f6a69733d60c01b60239184019182015284516139f181602b84016020890161337c565b682667616d654461793d60b81b602b92909101918201528351613a1b81603484016020880161337c565b0160340195945050505050565b600060208284031215613a3a57600080fd5b5051919050565b600082613a5057613a506138b0565b500690565b8181038181111561096a5761096a613853565b808202811582820484141761096a5761096a613853565b60208152815160208201526020820151604082015261ffff60408301511660608201526000606083015163ffffffff80821660808501528060808601511660a0850152505060a083015160c080840152611f7e60e08401826133a0565b6001600160a01b0385811682528416602082015260408101839052608060608201819052600090613b0f908301846133a0565b9695505050505050565b600060208284031215613b2b57600080fd5b8151612547816132ce565b600060ff821660ff8103613b4c57613b4c613853565b60010192915050565b634e487b7160e01b600052603160045260246000fdfea2646970667358221220aaa1c0c4b74a5183654704c2a45a24d40b296aff681e35e01fd8c6408a2534aa64736f6c63430008140033",
  "linkReferences": {},
  "deployedLinkReferences": {}
}