{
  "_format": "hh-sol-artifact-1",
  "contractName": "LottoMojiCore",
  "sourceName": "contracts/LottoMojiCore.sol",
  "abi": [
    {
      "inputs": [
        {
          "internalType": "address",
          "name": "_usdcToken",
          "type": "address"
        },
        {
          "internalType": "uint256",
          "name": "_subscriptionId",
          "type": "uint256"
        }
      ],
      "stateMutability": "nonpayable",
      "type": "constructor"
    },
    {
      "inputs": [],
      "name": "ERC721EnumerableForbiddenBatchMint",
      "type": "error"
    },
    {
      "inputs": [
        {
          "internalType": "address",
          "name": "sender",
          "type": "address"
        },
        {
          "internalType": "uint256",
          "name": "tokenId",
          "type": "uint256"
        },
        {
          "internalType": "address",
          "name": "owner",
          "type": "address"
        }
      ],
      "name": "ERC721IncorrectOwner",
      "type": "error"
    },
    {
      "inputs": [
        {
          "internalType": "address",
          "name": "operator",
          "type": "address"
        },
        {
          "internalType": "uint256",
          "name": "tokenId",
          "type": "uint256"
        }
      ],
      "name": "ERC721InsufficientApproval",
      "type": "error"
    },
    {
      "inputs": [
        {
          "internalType": "address",
          "name": "approver",
          "type": "address"
        }
      ],
      "name": "ERC721InvalidApprover",
      "type": "error"
    },
    {
      "inputs": [
        {
          "internalType": "address",
          "name": "operator",
          "type": "address"
        }
      ],
      "name": "ERC721InvalidOperator",
      "type": "error"
    },
    {
      "inputs": [
        {
          "internalType": "address",
          "name": "owner",
          "type": "address"
        }
      ],
      "name": "ERC721InvalidOwner",
      "type": "error"
    },
    {
      "inputs": [
        {
          "internalType": "address",
          "name": "receiver",
          "type": "address"
        }
      ],
      "name": "ERC721InvalidReceiver",
      "type": "error"
    },
    {
      "inputs": [
        {
          "internalType": "address",
          "name": "sender",
          "type": "address"
        }
      ],
      "name": "ERC721InvalidSender",
      "type": "error"
    },
    {
      "inputs": [
        {
          "internalType": "uint256",
          "name": "tokenId",
          "type": "uint256"
        }
      ],
      "name": "ERC721NonexistentToken",
      "type": "error"
    },
    {
      "inputs": [
        {
          "internalType": "address",
          "name": "owner",
          "type": "address"
        },
        {
          "internalType": "uint256",
          "name": "index",
          "type": "uint256"
        }
      ],
      "name": "ERC721OutOfBoundsIndex",
      "type": "error"
    },
    {
      "inputs": [
        {
          "internalType": "address",
          "name": "have",
          "type": "address"
        },
        {
          "internalType": "address",
          "name": "want",
          "type": "address"
        }
      ],
      "name": "OnlyCoordinatorCanFulfill",
      "type": "error"
    },
    {
      "inputs": [
        {
          "internalType": "address",
          "name": "have",
          "type": "address"
        },
        {
          "internalType": "address",
          "name": "owner",
          "type": "address"
        },
        {
          "internalType": "address",
          "name": "coordinator",
          "type": "address"
        }
      ],
      "name": "OnlyOwnerOrCoordinator",
      "type": "error"
    },
    {
      "inputs": [],
      "name": "ReentrancyGuardReentrantCall",
      "type": "error"
    },
    {
      "inputs": [],
      "name": "ZeroAddress",
      "type": "error"
    },
    {
      "anonymous": false,
      "inputs": [
        {
          "indexed": true,
          "internalType": "address",
          "name": "owner",
          "type": "address"
        },
        {
          "indexed": true,
          "internalType": "address",
          "name": "approved",
          "type": "address"
        },
        {
          "indexed": true,
          "internalType": "uint256",
          "name": "tokenId",
          "type": "uint256"
        }
      ],
      "name": "Approval",
      "type": "event"
    },
    {
      "anonymous": false,
      "inputs": [
        {
          "indexed": true,
          "internalType": "address",
          "name": "owner",
          "type": "address"
        },
        {
          "indexed": true,
          "internalType": "address",
          "name": "operator",
          "type": "address"
        },
        {
          "indexed": false,
          "internalType": "bool",
          "name": "approved",
          "type": "bool"
        }
      ],
      "name": "ApprovalForAll",
      "type": "event"
    },
    {
      "anonymous": false,
      "inputs": [
        {
          "indexed": false,
          "internalType": "address",
          "name": "vrfCoordinator",
          "type": "address"
        }
      ],
      "name": "CoordinatorSet",
      "type": "event"
    },
    {
      "anonymous": false,
      "inputs": [
        {
          "indexed": true,
          "internalType": "uint256",
          "name": "gameDay",
          "type": "uint256"
        },
        {
          "indexed": false,
          "internalType": "uint256",
          "name": "firstReserveAmount",
          "type": "uint256"
        },
        {
          "indexed": false,
          "internalType": "uint256",
          "name": "secondReserveAmount",
          "type": "uint256"
        },
        {
          "indexed": false,
          "internalType": "uint256",
          "name": "thirdReserveAmount",
          "type": "uint256"
        },
        {
          "indexed": false,
          "internalType": "uint256",
          "name": "totalSent",
          "type": "uint256"
        }
      ],
      "name": "DailyReservesSent",
      "type": "event"
    },
    {
      "anonymous": false,
      "inputs": [
        {
          "indexed": true,
          "internalType": "uint256",
          "name": "gameDay",
          "type": "uint256"
        },
        {
          "indexed": false,
          "internalType": "uint8[4]",
          "name": "winningNumbers",
          "type": "uint8[4]"
        },
        {
          "indexed": false,
          "internalType": "uint256",
          "name": "totalMainPools",
          "type": "uint256"
        }
      ],
      "name": "DrawExecuted",
      "type": "event"
    },
    {
      "anonymous": false,
      "inputs": [
        {
          "indexed": true,
          "internalType": "address",
          "name": "from",
          "type": "address"
        },
        {
          "indexed": true,
          "internalType": "address",
          "name": "to",
          "type": "address"
        }
      ],
      "name": "OwnershipTransferRequested",
      "type": "event"
    },
    {
      "anonymous": false,
      "inputs": [
        {
          "indexed": true,
          "internalType": "address",
          "name": "from",
          "type": "address"
        },
        {
          "indexed": true,
          "internalType": "address",
          "name": "to",
          "type": "address"
        }
      ],
      "name": "OwnershipTransferred",
      "type": "event"
    },
    {
      "anonymous": false,
      "inputs": [
        {
          "indexed": true,
          "internalType": "uint256",
          "name": "ticketId",
          "type": "uint256"
        },
        {
          "indexed": true,
          "internalType": "address",
          "name": "winner",
          "type": "address"
        },
        {
          "indexed": false,
          "internalType": "uint256",
          "name": "amount",
          "type": "uint256"
        },
        {
          "indexed": false,
          "internalType": "uint8",
          "name": "prizeLevel",
          "type": "uint8"
        },
        {
          "indexed": false,
          "internalType": "bool",
          "name": "reserveUsedForRefill",
          "type": "bool"
        }
      ],
      "name": "PrizeClaimed",
      "type": "event"
    },
    {
      "anonymous": false,
      "inputs": [
        {
          "indexed": true,
          "internalType": "uint256",
          "name": "ticketId",
          "type": "uint256"
        },
        {
          "indexed": true,
          "internalType": "address",
          "name": "buyer",
          "type": "address"
        },
        {
          "indexed": false,
          "internalType": "uint8[4]",
          "name": "numbers",
          "type": "uint8[4]"
        },
        {
          "indexed": false,
          "internalType": "uint256",
          "name": "gameDay",
          "type": "uint256"
        }
      ],
      "name": "TicketPurchased",
      "type": "event"
    },
    {
      "anonymous": false,
      "inputs": [
        {
          "indexed": true,
          "internalType": "address",
          "name": "from",
          "type": "address"
        },
        {
          "indexed": true,
          "internalType": "address",
          "name": "to",
          "type": "address"
        },
        {
          "indexed": true,
          "internalType": "uint256",
          "name": "tokenId",
          "type": "uint256"
        }
      ],
      "name": "Transfer",
      "type": "event"
    },
    {
      "inputs": [],
      "name": "DAILY_RESERVE_PERCENTAGE",
      "outputs": [
        {
          "internalType": "uint256",
          "name": "",
          "type": "uint256"
        }
      ],
      "stateMutability": "view",
      "type": "function"
    },
    {
      "inputs": [],
      "name": "DEVELOPMENT_PERCENTAGE",
      "outputs": [
        {
          "internalType": "uint256",
          "name": "",
          "type": "uint256"
        }
      ],
      "stateMutability": "view",
      "type": "function"
    },
    {
      "inputs": [],
      "name": "DRAW_INTERVAL",
      "outputs": [
        {
          "internalType": "uint256",
          "name": "",
          "type": "uint256"
        }
      ],
      "stateMutability": "view",
      "type": "function"
    },
    {
      "inputs": [],
      "name": "EMOJI_COUNT",
      "outputs": [
        {
          "internalType": "uint8",
          "name": "",
          "type": "uint8"
        }
      ],
      "stateMutability": "view",
      "type": "function"
    },
    {
      "inputs": [],
      "name": "FIRST_PRIZE_PERCENTAGE",
      "outputs": [
        {
          "internalType": "uint256",
          "name": "",
          "type": "uint256"
        }
      ],
      "stateMutability": "view",
      "type": "function"
    },
    {
      "inputs": [],
      "name": "MAIN_POOL_PERCENTAGE",
      "outputs": [
        {
          "internalType": "uint256",
          "name": "",
          "type": "uint256"
        }
      ],
      "stateMutability": "view",
      "type": "function"
    },
    {
      "inputs": [],
      "name": "SECOND_PRIZE_PERCENTAGE",
      "outputs": [
        {
          "internalType": "uint256",
          "name": "",
          "type": "uint256"
        }
      ],
      "stateMutability": "view",
      "type": "function"
    },
    {
      "inputs": [],
      "name": "THIRD_PRIZE_PERCENTAGE",
      "outputs": [
        {
          "internalType": "uint256",
          "name": "",
          "type": "uint256"
        }
      ],
      "stateMutability": "view",
      "type": "function"
    },
    {
      "inputs": [],
      "name": "TICKET_PRICE",
      "outputs": [
        {
          "internalType": "uint256",
          "name": "",
          "type": "uint256"
        }
      ],
      "stateMutability": "view",
      "type": "function"
    },
    {
      "inputs": [],
      "name": "acceptOwnership",
      "outputs": [],
      "stateMutability": "nonpayable",
      "type": "function"
    },
    {
      "inputs": [
        {
          "internalType": "address",
          "name": "to",
          "type": "address"
        },
        {
          "internalType": "uint256",
          "name": "tokenId",
          "type": "uint256"
        }
      ],
      "name": "approve",
      "outputs": [],
      "stateMutability": "nonpayable",
      "type": "function"
    },
    {
      "inputs": [],
      "name": "automationActive",
      "outputs": [
        {
          "internalType": "bool",
          "name": "",
          "type": "bool"
        }
      ],
      "stateMutability": "view",
      "type": "function"
    },
    {
      "inputs": [
        {
          "internalType": "address",
          "name": "owner",
          "type": "address"
        }
      ],
      "name": "balanceOf",
      "outputs": [
        {
          "internalType": "uint256",
          "name": "",
          "type": "uint256"
        }
      ],
      "stateMutability": "view",
      "type": "function"
    },
    {
      "inputs": [
        {
          "internalType": "uint8[4]",
          "name": "_numbers",
          "type": "uint8[4]"
        }
      ],
      "name": "buyTicket",
      "outputs": [],
      "stateMutability": "nonpayable",
      "type": "function"
    },
    {
      "inputs": [
        {
          "internalType": "bytes",
          "name": "",
          "type": "bytes"
        }
      ],
      "name": "checkUpkeep",
      "outputs": [
        {
          "internalType": "bool",
          "name": "upkeepNeeded",
          "type": "bool"
        },
        {
          "internalType": "bytes",
          "name": "",
          "type": "bytes"
        }
      ],
      "stateMutability": "view",
      "type": "function"
    },
    {
      "inputs": [
        {
          "internalType": "uint256",
          "name": "_ticketId",
          "type": "uint256"
        }
      ],
      "name": "claimPrize",
      "outputs": [],
      "stateMutability": "nonpayable",
      "type": "function"
    },
    {
      "inputs": [],
      "name": "currentGameDay",
      "outputs": [
        {
          "internalType": "uint256",
          "name": "",
          "type": "uint256"
        }
      ],
      "stateMutability": "view",
      "type": "function"
    },
    {
      "inputs": [
        {
          "internalType": "uint256",
          "name": "",
          "type": "uint256"
        }
      ],
      "name": "dailyPools",
      "outputs": [
        {
          "internalType": "uint256",
          "name": "totalCollected",
          "type": "uint256"
        },
        {
          "internalType": "uint256",
          "name": "mainPoolPortion",
          "type": "uint256"
        },
        {
          "internalType": "uint256",
          "name": "reservePortion",
          "type": "uint256"
        },
        {
          "internalType": "uint256",
          "name": "firstPrizeDaily",
          "type": "uint256"
        },
        {
          "internalType": "uint256",
          "name": "secondPrizeDaily",
          "type": "uint256"
        },
        {
          "internalType": "uint256",
          "name": "thirdPrizeDaily",
          "type": "uint256"
        },
        {
          "internalType": "uint256",
          "name": "developmentDaily",
          "type": "uint256"
        },
        {
          "internalType": "bool",
          "name": "distributed",
          "type": "bool"
        },
        {
          "internalType": "uint256",
          "name": "distributionTime",
          "type": "uint256"
        },
        {
          "internalType": "bool",
          "name": "drawn",
          "type": "bool"
        },
        {
          "internalType": "bool",
          "name": "reservesSent",
          "type": "bool"
        }
      ],
      "stateMutability": "view",
      "type": "function"
    },
    {
      "inputs": [],
      "name": "drawTimeUTC",
      "outputs": [
        {
          "internalType": "uint256",
          "name": "",
          "type": "uint256"
        }
      ],
      "stateMutability": "view",
      "type": "function"
    },
    {
      "inputs": [],
      "name": "emergencyPause",
      "outputs": [
        {
          "internalType": "bool",
          "name": "",
          "type": "bool"
        }
      ],
      "stateMutability": "view",
      "type": "function"
    },
    {
      "inputs": [],
      "name": "emergencyWithdraw",
      "outputs": [],
      "stateMutability": "nonpayable",
      "type": "function"
    },
    {
      "inputs": [],
      "name": "gameActive",
      "outputs": [
        {
          "internalType": "bool",
          "name": "",
          "type": "bool"
        }
      ],
      "stateMutability": "view",
      "type": "function"
    },
    {
      "inputs": [
        {
          "internalType": "uint256",
          "name": "",
          "type": "uint256"
        },
        {
          "internalType": "uint256",
          "name": "",
          "type": "uint256"
        }
      ],
      "name": "gameDayTickets",
      "outputs": [
        {
          "internalType": "uint256",
          "name": "",
          "type": "uint256"
        }
      ],
      "stateMutability": "view",
      "type": "function"
    },
    {
      "inputs": [
        {
          "internalType": "uint256",
          "name": "tokenId",
          "type": "uint256"
        }
      ],
      "name": "getApproved",
      "outputs": [
        {
          "internalType": "address",
          "name": "",
          "type": "address"
        }
      ],
      "stateMutability": "view",
      "type": "function"
    },
    {
      "inputs": [],
      "name": "getCurrentDay",
      "outputs": [
        {
          "internalType": "uint256",
          "name": "",
          "type": "uint256"
        }
      ],
      "stateMutability": "view",
      "type": "function"
    },
    {
      "inputs": [
        {
          "internalType": "uint256",
          "name": "ticketId",
          "type": "uint256"
        }
      ],
      "name": "getFullTicketInfo",
      "outputs": [
        {
          "internalType": "address",
          "name": "ticketOwner",
          "type": "address"
        },
        {
          "internalType": "uint8[4]",
          "name": "numbers",
          "type": "uint8[4]"
        },
        {
          "internalType": "uint256",
          "name": "gameDay",
          "type": "uint256"
        },
        {
          "internalType": "bool",
          "name": "isActive",
          "type": "bool"
        },
        {
          "internalType": "uint256",
          "name": "purchaseTime",
          "type": "uint256"
        },
        {
          "internalType": "bool",
          "name": "eligibleForReserve",
          "type": "bool"
        },
        {
          "internalType": "uint8",
          "name": "matches",
          "type": "uint8"
        }
      ],
      "stateMutability": "view",
      "type": "function"
    },
    {
      "inputs": [
        {
          "internalType": "uint256",
          "name": "gameDay",
          "type": "uint256"
        }
      ],
      "name": "getGameDayTickets",
      "outputs": [
        {
          "internalType": "uint256[]",
          "name": "",
          "type": "uint256[]"
        }
      ],
      "stateMutability": "view",
      "type": "function"
    },
    {
      "inputs": [
        {
          "internalType": "uint256",
          "name": "ticketId",
          "type": "uint256"
        }
      ],
      "name": "getTicketInfo",
      "outputs": [
        {
          "internalType": "address",
          "name": "ticketOwner",
          "type": "address"
        },
        {
          "internalType": "uint8[4]",
          "name": "numbers",
          "type": "uint8[4]"
        },
        {
          "internalType": "uint256",
          "name": "gameDay",
          "type": "uint256"
        },
        {
          "internalType": "bool",
          "name": "isActive",
          "type": "bool"
        },
        {
          "internalType": "uint8",
          "name": "matches",
          "type": "uint8"
        }
      ],
      "stateMutability": "view",
      "type": "function"
    },
    {
      "inputs": [
        {
          "internalType": "address",
          "name": "user",
          "type": "address"
        }
      ],
      "name": "getUserTickets",
      "outputs": [
        {
          "internalType": "uint256[]",
          "name": "",
          "type": "uint256[]"
        }
      ],
      "stateMutability": "view",
      "type": "function"
    },
    {
      "inputs": [
        {
          "internalType": "address",
          "name": "owner",
          "type": "address"
        },
        {
          "internalType": "address",
          "name": "operator",
          "type": "address"
        }
      ],
      "name": "isApprovedForAll",
      "outputs": [
        {
          "internalType": "bool",
          "name": "",
          "type": "bool"
        }
      ],
      "stateMutability": "view",
      "type": "function"
    },
    {
      "inputs": [],
      "name": "lastDrawTime",
      "outputs": [
        {
          "internalType": "uint256",
          "name": "",
          "type": "uint256"
        }
      ],
      "stateMutability": "view",
      "type": "function"
    },
    {
      "inputs": [],
      "name": "lastMaintenanceTime",
      "outputs": [
        {
          "internalType": "uint256",
          "name": "",
          "type": "uint256"
        }
      ],
      "stateMutability": "view",
      "type": "function"
    },
    {
      "inputs": [
        {
          "internalType": "uint256",
          "name": "",
          "type": "uint256"
        }
      ],
      "name": "lastWinningNumbers",
      "outputs": [
        {
          "internalType": "uint8",
          "name": "",
          "type": "uint8"
        }
      ],
      "stateMutability": "view",
      "type": "function"
    },
    {
      "inputs": [],
      "name": "mainPools",
      "outputs": [
        {
          "internalType": "uint256",
          "name": "firstPrizeAccumulated",
          "type": "uint256"
        },
        {
          "internalType": "uint256",
          "name": "secondPrizeAccumulated",
          "type": "uint256"
        },
        {
          "internalType": "uint256",
          "name": "thirdPrizeAccumulated",
          "type": "uint256"
        },
        {
          "internalType": "uint256",
          "name": "developmentAccumulated",
          "type": "uint256"
        }
      ],
      "stateMutability": "view",
      "type": "function"
    },
    {
      "inputs": [],
      "name": "name",
      "outputs": [
        {
          "internalType": "string",
          "name": "",
          "type": "string"
        }
      ],
      "stateMutability": "view",
      "type": "function"
    },
    {
      "inputs": [],
      "name": "owner",
      "outputs": [
        {
          "internalType": "address",
          "name": "",
          "type": "address"
        }
      ],
      "stateMutability": "view",
      "type": "function"
    },
    {
      "inputs": [
        {
          "internalType": "uint256",
          "name": "tokenId",
          "type": "uint256"
        }
      ],
      "name": "ownerOf",
      "outputs": [
        {
          "internalType": "address",
          "name": "",
          "type": "address"
        }
      ],
      "stateMutability": "view",
      "type": "function"
    },
    {
      "inputs": [
        {
          "internalType": "bytes",
          "name": "performData",
          "type": "bytes"
        }
      ],
      "name": "performUpkeep",
      "outputs": [],
      "stateMutability": "nonpayable",
      "type": "function"
    },
    {
      "inputs": [
        {
          "internalType": "uint256",
          "name": "requestId",
          "type": "uint256"
        },
        {
          "internalType": "uint256[]",
          "name": "randomWords",
          "type": "uint256[]"
        }
      ],
      "name": "rawFulfillRandomWords",
      "outputs": [],
      "stateMutability": "nonpayable",
      "type": "function"
    },
    {
      "inputs": [],
      "name": "reserves",
      "outputs": [
        {
          "internalType": "uint256",
          "name": "firstPrizeReserve1",
          "type": "uint256"
        },
        {
          "internalType": "uint256",
          "name": "secondPrizeReserve2",
          "type": "uint256"
        },
        {
          "internalType": "uint256",
          "name": "thirdPrizeReserve3",
          "type": "uint256"
        }
      ],
      "stateMutability": "view",
      "type": "function"
    },
    {
      "inputs": [],
      "name": "s_vrfCoordinator",
      "outputs": [
        {
          "internalType": "contract IVRFCoordinatorV2Plus",
          "name": "",
          "type": "address"
        }
      ],
      "stateMutability": "view",
      "type": "function"
    },
    {
      "inputs": [
        {
          "internalType": "address",
          "name": "from",
          "type": "address"
        },
        {
          "internalType": "address",
          "name": "to",
          "type": "address"
        },
        {
          "internalType": "uint256",
          "name": "tokenId",
          "type": "uint256"
        }
      ],
      "name": "safeTransferFrom",
      "outputs": [],
      "stateMutability": "nonpayable",
      "type": "function"
    },
    {
      "inputs": [
        {
          "internalType": "address",
          "name": "from",
          "type": "address"
        },
        {
          "internalType": "address",
          "name": "to",
          "type": "address"
        },
        {
          "internalType": "uint256",
          "name": "tokenId",
          "type": "uint256"
        },
        {
          "internalType": "bytes",
          "name": "data",
          "type": "bytes"
        }
      ],
      "name": "safeTransferFrom",
      "outputs": [],
      "stateMutability": "nonpayable",
      "type": "function"
    },
    {
      "inputs": [
        {
          "internalType": "address",
          "name": "operator",
          "type": "address"
        },
        {
          "internalType": "bool",
          "name": "approved",
          "type": "bool"
        }
      ],
      "name": "setApprovalForAll",
      "outputs": [],
      "stateMutability": "nonpayable",
      "type": "function"
    },
    {
      "inputs": [
        {
          "internalType": "address",
          "name": "_vrfCoordinator",
          "type": "address"
        }
      ],
      "name": "setCoordinator",
      "outputs": [],
      "stateMutability": "nonpayable",
      "type": "function"
    },
    {
      "inputs": [],
      "name": "subscriptionId",
      "outputs": [
        {
          "internalType": "uint256",
          "name": "",
          "type": "uint256"
        }
      ],
      "stateMutability": "view",
      "type": "function"
    },
    {
      "inputs": [
        {
          "internalType": "bytes4",
          "name": "interfaceId",
          "type": "bytes4"
        }
      ],
      "name": "supportsInterface",
      "outputs": [
        {
          "internalType": "bool",
          "name": "",
          "type": "bool"
        }
      ],
      "stateMutability": "view",
      "type": "function"
    },
    {
      "inputs": [],
      "name": "symbol",
      "outputs": [
        {
          "internalType": "string",
          "name": "",
          "type": "string"
        }
      ],
      "stateMutability": "view",
      "type": "function"
    },
    {
      "inputs": [],
      "name": "ticketCounter",
      "outputs": [
        {
          "internalType": "uint256",
          "name": "",
          "type": "uint256"
        }
      ],
      "stateMutability": "view",
      "type": "function"
    },
    {
      "inputs": [
        {
          "internalType": "uint256",
          "name": "",
          "type": "uint256"
        }
      ],
      "name": "tickets",
      "outputs": [
        {
          "internalType": "uint256",
          "name": "tokenId",
          "type": "uint256"
        },
        {
          "internalType": "address",
          "name": "ticketOwner",
          "type": "address"
        },
        {
          "internalType": "uint256",
          "name": "gameDay",
          "type": "uint256"
        },
        {
          "internalType": "bool",
          "name": "isActive",
          "type": "bool"
        },
        {
          "internalType": "uint256",
          "name": "purchaseTime",
          "type": "uint256"
        },
        {
          "internalType": "bool",
          "name": "eligibleForReserve",
          "type": "bool"
        }
      ],
      "stateMutability": "view",
      "type": "function"
    },
    {
      "inputs": [],
      "name": "toggleAutomation",
      "outputs": [],
      "stateMutability": "nonpayable",
      "type": "function"
    },
    {
      "inputs": [],
      "name": "toggleEmergencyPause",
      "outputs": [],
      "stateMutability": "nonpayable",
      "type": "function"
    },
    {
      "inputs": [
        {
          "internalType": "uint256",
          "name": "index",
          "type": "uint256"
        }
      ],
      "name": "tokenByIndex",
      "outputs": [
        {
          "internalType": "uint256",
          "name": "",
          "type": "uint256"
        }
      ],
      "stateMutability": "view",
      "type": "function"
    },
    {
      "inputs": [
        {
          "internalType": "address",
          "name": "owner",
          "type": "address"
        },
        {
          "internalType": "uint256",
          "name": "index",
          "type": "uint256"
        }
      ],
      "name": "tokenOfOwnerByIndex",
      "outputs": [
        {
          "internalType": "uint256",
          "name": "",
          "type": "uint256"
        }
      ],
      "stateMutability": "view",
      "type": "function"
    },
    {
      "inputs": [
        {
          "internalType": "uint256",
          "name": "tokenId",
          "type": "uint256"
        }
      ],
      "name": "tokenURI",
      "outputs": [
        {
          "internalType": "string",
          "name": "",
          "type": "string"
        }
      ],
      "stateMutability": "view",
      "type": "function"
    },
    {
      "inputs": [],
      "name": "totalDrawsExecuted",
      "outputs": [
        {
          "internalType": "uint256",
          "name": "",
          "type": "uint256"
        }
      ],
      "stateMutability": "view",
      "type": "function"
    },
    {
      "inputs": [],
      "name": "totalReservesProcessed",
      "outputs": [
        {
          "internalType": "uint256",
          "name": "",
          "type": "uint256"
        }
      ],
      "stateMutability": "view",
      "type": "function"
    },
    {
      "inputs": [],
      "name": "totalSupply",
      "outputs": [
        {
          "internalType": "uint256",
          "name": "",
          "type": "uint256"
        }
      ],
      "stateMutability": "view",
      "type": "function"
    },
    {
      "inputs": [
        {
          "internalType": "address",
          "name": "from",
          "type": "address"
        },
        {
          "internalType": "address",
          "name": "to",
          "type": "address"
        },
        {
          "internalType": "uint256",
          "name": "tokenId",
          "type": "uint256"
        }
      ],
      "name": "transferFrom",
      "outputs": [],
      "stateMutability": "nonpayable",
      "type": "function"
    },
    {
      "inputs": [
        {
          "internalType": "address",
          "name": "to",
          "type": "address"
        }
      ],
      "name": "transferOwnership",
      "outputs": [],
      "stateMutability": "nonpayable",
      "type": "function"
    },
    {
      "inputs": [],
      "name": "usdcToken",
      "outputs": [
        {
          "internalType": "contract IERC20",
          "name": "",
          "type": "address"
        }
      ],
      "stateMutability": "view",
      "type": "function"
    },
    {
      "inputs": [
        {
          "internalType": "address",
          "name": "",
          "type": "address"
        },
        {
          "internalType": "uint256",
          "name": "",
          "type": "uint256"
        }
      ],
      "name": "userTickets",
      "outputs": [
        {
          "internalType": "uint256",
          "name": "",
          "type": "uint256"
        }
      ],
      "stateMutability": "view",
      "type": "function"
    },
    {
      "inputs": [
        {
          "internalType": "uint8[4]",
          "name": "numbers",
          "type": "uint8[4]"
        }
      ],
      "name": "validateEmojiSelection",
      "outputs": [
        {
          "internalType": "bool",
          "name": "",
          "type": "bool"
        }
      ],
      "stateMutability": "pure",
      "type": "function"
    }
  ],
  "bytecode": "0x60e0604052612a30600e556011805462ffffff19166101011790553480156200002757600080fd5b5060405162004244380380620042448339810160408190526200004a91620002b7565b604080518082018252601081526f131bdd1d1bd35bda9a48151a58dad95d60821b602080830191909152825180840190935260058352644c4d4f4a4960d81b9083015290735c210ef41cd1a72de73bf76ec39637bb0d3d7bee3380600081620000fa5760405162461bcd60e51b815260206004820152601860248201527f43616e6e6f7420736574206f776e657220746f207a65726f000000000000000060448201526064015b60405180910390fd5b600080546001600160a01b0319166001600160a01b03848116919091179091558116156200012d576200012d81620001e5565b5050506001600160a01b038116620001585760405163d92e233d60e01b815260040160405180910390fd5b600280546001600160a01b0319166001600160a01b0392909216919091179055600160035560046200018b838262000398565b5060056200019a828262000398565b5050735c210ef41cd1a72de73bf76ec39637bb0d3d7bee608052506001600160a01b03821660a05260c0819052620001d162000290565b6010555050426020819055602155620004af565b336001600160a01b038216036200023f5760405162461bcd60e51b815260206004820152601760248201527f43616e6e6f74207472616e7366657220746f2073656c660000000000000000006044820152606401620000f1565b600180546001600160a01b0319166001600160a01b0383811691821790925560008054604051929316917fed8889f560326eb138920d842192f0eb3dd22b4f139c87a2c57538e05bae12789190a350565b600062015180600e5442620002a6919062000464565b620002b291906200048c565b905090565b60008060408385031215620002cb57600080fd5b82516001600160a01b0381168114620002e357600080fd5b6020939093015192949293505050565b634e487b7160e01b600052604160045260246000fd5b600181811c908216806200031e57607f821691505b6020821081036200033f57634e487b7160e01b600052602260045260246000fd5b50919050565b601f8211156200039357600081815260208120601f850160051c810160208610156200036e5750805b601f850160051c820191505b818110156200038f578281556001016200037a565b5050505b505050565b81516001600160401b03811115620003b457620003b4620002f3565b620003cc81620003c5845462000309565b8462000345565b602080601f831160018114620004045760008415620003eb5750858301515b600019600386901b1c1916600185901b1785556200038f565b600085815260208120601f198616915b82811015620004355788860151825594840194600190910190840162000414565b5085821015620004545787850151600019600388901b60f8161c191681555b5050505050600190811b01905550565b808201808211156200048657634e487b7160e01b600052601160045260246000fd5b92915050565b600082620004aa57634e487b7160e01b600052601260045260246000fd5b500490565b60805160a05160c051613d42620005026000396000818161046c01526122490152600081816104ba01528181610d1d0152818161194001528181611b1e0152611bde015260006122bf0152613d426000f3fe608060405234801561001057600080fd5b50600436106103c55760003560e01c80635cbbd635116101ff578063a22cb4651161011a578063d7098154116100ad578063e985e9c51161007c578063e985e9c514610939578063f020044f1461094c578063f2fde38b14610959578063ff99a0631461096c57600080fd5b8063d7098154146108f8578063d85c156c1461090b578063db2e21bc1461091e578063dc85dced1461092657600080fd5b8063c4aa7245116100e9578063c4aa7245146108c0578063c6b749e2146108c8578063c87b56dd146108d2578063cf260baf146108e557600080fd5b8063a22cb46514610892578063b88d4fde146108a5578063bc62b32d14610600578063c3708091146108b857600080fd5b80638c4d59d011610192578063946fee0211610161578063946fee021461085b57806395b1b4301461086e57806395d89b41146108775780639eccacf61461087f57600080fd5b80638c4d59d0146108085780638da5cb5b146108115780638ea98117146108225780638f8e6f551461083557600080fd5b806370a08231116101ce57806370a082311461079b57806375172a8b146107ae5780637624bb87146107db57806379ba50971461080057600080fd5b80635cbbd6351461074c5780636352211e146107555780636baf4a74146107685780636e04ff0d1461077a57600080fd5b80632599399e116102ef5780633e6968b6116102825780634f6ccce7116102515780634f6ccce71461069057806350152c4c146106a357806350b44712146106ac57806351858e271461073957600080fd5b80633e6968b61461065a57806342842e0e146106625780634585e33b146106755780634f687e911461068857600080fd5b806333f0ef08116102be57806333f0ef081461060057806338cdf7cc146106085780633995326f146106115780633d4962ed1461064757600080fd5b80632599399e1461049c578063299f91ba1461051c5780632a1b4359146105255780632f745c59146105ed57600080fd5b80630cbed53a1161036757806318160ddd1161033657806318160ddd146104e45780631a95f15f146104ec5780631fe543e3146104f657806323b872dd1461050957600080fd5b80630cbed53a146104a45780630d50cdb9146104ac57806311eac855146104b5578063147e291f146104dc57600080fd5b8063081812fc116103a3578063081812fc14610427578063095ea7b31461045257806309c1ba2e146104675780630bc75eb31461049c57600080fd5b806301ffc9a7146103ca5780630484a22f146103f257806306fdde0314610412575b600080fd5b6103dd6103d8366004613437565b610990565b60405190151581526020015b60405180910390f35b610405610400366004613470565b6109a1565b6040516103e9919061348b565b61041a610a0d565b6040516103e9919061351f565b61043a610435366004613532565b610a9f565b6040516001600160a01b0390911681526020016103e9565b61046561046036600461354b565b610ac8565b005b61048e7f000000000000000000000000000000000000000000000000000000000000000081565b6040519081526020016103e9565b61048e600581565b61048e601481565b61048e60105481565b61043a7f000000000000000000000000000000000000000000000000000000000000000081565b610465610ad7565b600c5461048e565b61048e621e848081565b610465610504366004613575565b610afe565b6104656105173660046135f4565b610b53565b61048e60215481565b610594610533366004613532565b6019602052600090815260409020805460018201546002830154600384015460048501546005860154600687015460078801546008890154600a90990154979896979596949593949293919260ff918216929091818116916101009004168b565b604080519b8c5260208c019a909a52988a01979097526060890195909552608088019390935260a087019190915260c0860152151560e085015261010084015215156101208301521515610140820152610160016103e9565b61048e6105fb36600461354b565b610bde565b61048e605081565b61048e600e5481565b6012546013546014546015546106279392919084565b6040805194855260208501939093529183015260608201526080016103e9565b610465610655366004613677565b610c43565b61048e610f8e565b6104656106703660046135f4565b610fb1565b610465610683366004613705565b610fcc565b610465611077565b61048e61069e366004613532565b61109c565b61048e601e5481565b6107006106ba366004613532565b601a6020526000908152604090208054600182015460038301546004840154600585015460069095015493946001600160a01b0390931693919260ff9182169290911686565b604080519687526001600160a01b03909516602087015293850192909252151560608401526080830152151560a082015260c0016103e9565b6011546103dd9062010000900460ff1681565b61048e60205481565b61043a610763366004613532565b6110f5565b6011546103dd90610100900460ff1681565b61078d610788366004613705565b611100565b6040516103e9929190613777565b61048e6107a9366004613470565b6111b3565b6016546017546018546107c092919083565b604080519384526020840192909252908201526060016103e9565b6107ee6107e9366004613532565b6111fb565b60405160ff90911681526020016103e9565b610465611225565b61048e601d5481565b6000546001600160a01b031661043a565b610465610830366004613470565b6112cf565b610848610843366004613532565b6113c1565b6040516103e997969594939291906137b8565b61048e610869366004613806565b6114e3565b61048e601f5481565b61041a611514565b60025461043a906001600160a01b031681565b6104656108a0366004613836565b611523565b6104656108b336600461386d565b61152e565b6107ee601981565b61048e600a81565b61048e6201518081565b61041a6108e0366004613532565b611545565b61048e6108f336600461354b565b61170d565b610465610906366004613532565b611729565b6103dd610919366004613677565b611a4c565b610465611a9e565b610405610934366004613532565b611cd9565b6103dd61094736600461392d565b611d39565b6011546103dd9060ff1681565b610465610967366004613470565b611d67565b61097f61097a366004613532565b611d78565b6040516103e9959493929190613960565b600061099b82611e7f565b92915050565b6001600160a01b0381166000908152601c6020908152604091829020805483518184028101840190945280845260609392830182828015610a0157602002820191906000526020600020905b8154815260200190600101908083116109ed575b50505050509050919050565b606060048054610a1c9061399d565b80601f0160208091040260200160405190810160405280929190818152602001828054610a489061399d565b8015610a955780601f10610a6a57610100808354040283529160200191610a95565b820191906000526020600020905b815481529060010190602001808311610a7857829003601f168201915b5050505050905090565b6000610aaa82611ea4565b506000828152600860205260409020546001600160a01b031661099b565b610ad3828233611edd565b5050565b610adf611eea565b6011805462ff0000198116620100009182900460ff1615909102179055565b6002546001600160a01b03163314610b435760025460405163073e64fd60e21b81523360048201526001600160a01b0390911660248201526044015b60405180910390fd5b610b4e838383611f3d565b505050565b6001600160a01b038216610b7d57604051633250574960e11b815260006004820152602401610b3a565b6000610b8a8383336120c4565b9050836001600160a01b0316816001600160a01b031614610bd8576040516364283d7b60e01b81526001600160a01b0380861660048301526024820184905282166044820152606401610b3a565b50505050565b6000610be9836111b3565b8210610c1a5760405163295f44f760e21b81526001600160a01b038416600482015260248101839052604401610b3a565b506001600160a01b03919091166000908152600a60209081526040808320938352929052205490565b610c4b6120d9565b60115460ff168015610c66575060115462010000900460ff16155b610ca45760405162461bcd60e51b815260206004820152600f60248201526e47616d65206e6f742061637469766560881b6044820152606401610b3a565b610cad81611a4c565b610cf95760405162461bcd60e51b815260206004820152601760248201527f496e76616c696420656d6f6a692073656c656374696f6e0000000000000000006044820152606401610b3a565b6040516323b872dd60e01b8152336004820152306024820152621e848060448201527f00000000000000000000000000000000000000000000000000000000000000006001600160a01b0316906323b872dd906064016020604051808303816000875af1158015610d6e573d6000803e3d6000fd5b505050506040513d601f19601f82011682018060405250810190610d9291906139d7565b610dd55760405162461bcd60e51b81526020600482015260146024820152731554d110c81d1c985b9cd9995c8819985a5b195960621b6044820152606401610b3a565b6000610ddf610f8e565b601d80549192506000610df183613a0a565b90915550506040805160e081018252601d54808252336020808401918252838501878152606085018790526001608086018190524260a087015260c086018190526000948552601a9092529490922083518155905191810180546001600160a01b0319166001600160a01b03909316929092179091559151909190610e7c906002830190600461335b565b5060608201516003820155608082015160048201805491151560ff1992831617905560a0830151600583015560c09092015160069091018054911515919092161790556000818152601b60209081526040808320601d80548254600181810185559387528587200155338552601c845282852090548154928301825590855283852090910155838352601990915281208054621e84809290610f1f908490613a23565b90915550610f2e905081612103565b610f3a33601d546121e3565b336001600160a01b0316601d547f8d638e5fab80232bf709cdd14d918285207e67414f36a090fb409fde4eb5af358484604051610f78929190613a36565b60405180910390a350610f8b6001600355565b50565b600062015180600e5442610fa29190613a23565b610fac9190613a67565b905090565b610b4e8383836040518060200160405280600081525061152e565b601154610100900460ff168015610fec575060115462010000900460ff16155b61102c5760405162461bcd60e51b8152602060048201526011602482015270105d5d1bdb585d1a5bdb881c185d5cd959607a1b6044820152606401610b3a565b600061103a82840184613a7b565b905080801561104c575061104c6121fd565b1561105957610b4e61221a565b8015801561106a575061106a612337565b15610b4e57610b4e612351565b61107f611eea565b6011805461ff001981166101009182900460ff1615909102179055565b60006110a7600c5490565b82106110d05760405163295f44f760e21b81526000600482015260248101839052604401610b3a565b600c82815481106110e3576110e3613a98565b90600052602060002001549050919050565b600061099b82611ea4565b601154600090606090610100900460ff161580611125575060115462010000900460ff165b1561114257505060408051602081019091526000808252906111ac565b61114a6121fd565b15611177576040805160016020820181905291015b604051602081830303815290604052915091506111ac565b61117f612337565b156111985760408051600060208201526001910161115f565b505060408051602081019091526000808252905b9250929050565b60006001600160a01b0382166111df576040516322718ad960e21b815260006004820152602401610b3a565b506001600160a01b031660009081526007602052604090205490565b600f816004811061120b57600080fd5b60209182820401919006915054906101000a900460ff1681565b6001546001600160a01b031633146112785760405162461bcd60e51b815260206004820152601660248201527526bab9ba10313290383937b837b9b2b21037bbb732b960511b6044820152606401610b3a565b60008054336001600160a01b0319808316821784556001805490911690556040516001600160a01b0390921692909183917f8be0079c531659141344cd1fd0a4f28419497f9722a3daafe3b4186f6b6457e091a350565b6000546001600160a01b031633148015906112f557506002546001600160a01b03163314155b15611346573361130d6000546001600160a01b031690565b60025460405163061db9c160e01b81526001600160a01b0393841660048201529183166024830152919091166044820152606401610b3a565b6001600160a01b03811661136d5760405163d92e233d60e01b815260040160405180910390fd5b600280546001600160a01b0319166001600160a01b0383169081179091556040519081527fd1a6a14209a385a964d036e404cb5cfb71f4000cdb03c9366292430787261be69060200160405180910390a150565b60006113cb6133ee565b6000838152601a60209081526040808320815160e0810183528154815260018201546001600160a01b03169381019390935281516080810180845285948594859485948594919284019160028401906004908288855b825461010083900a900460ff1681526020600192830181810494850194909303909202910180841161142157905050505050508152602001600382015481526020016004820160009054906101000a900460ff16151515158152602001600582015481526020016006820160009054906101000a900460ff161515151581525050905080602001518160400151826060015183608001518460a001518560c001516114cb8f6123cc565b959f949e50929c50909a509850965090945092505050565b601b60205281600052604060002081815481106114ff57600080fd5b90600052602060002001600091509150505481565b606060058054610a1c9061399d565b610ad3338383612446565b611539848484610b53565b610bd8848484846124e5565b6000818152600660205260409020546060906001600160a01b03166115a35760405162461bcd60e51b8152602060048201526014602482015273151bdad95b88191bd95cc81b9bdd08195e1a5cdd60621b6044820152606401610b3a565b6000828152601a60209081526040808320815160e0810183528154815260018201546001600160a01b031693810193909352815160808101808452919284019160028401906004908288855b825461010083900a900460ff168152602060019283018181049485019490930390920291018084116115ef5750505092845250505060038201546020820152600482015460ff90811615156040808401919091526005840154606084015260069093015416151560809091015281015190915060009061167890825b602002015160ff1661260e565b604083015161168890600161166b565b604084015161169890600261166b565b60408501516116a890600361166b565b6040516020016116bb9493929190613aae565b60405160208183030381529060405290506116d58461260e565b816116e3846060015161260e565b6040516020016116f593929190613b26565b60405160208183030381529060405292505050919050565b601c60205281600052604060002081815481106114ff57600080fd5b6117316120d9565b6000818152601a60205260409020600101546001600160a01b0316331461178d5760405162461bcd60e51b815260206004820152601060248201526f2737ba103a34b1b5b2ba1037bbb732b960811b6044820152606401610b3a565b6000818152601a602052604090206004015460ff166117e75760405162461bcd60e51b8152602060048201526016602482015275151a58dad95d08185b1c9958591e4818db185a5b595960521b6044820152606401610b3a565b6000818152601a60209081526040808320600301548084526019909252909120600a015460ff166118525760405162461bcd60e51b8152602060048201526015602482015274111c985dc81b9bdd08195e1958dd5d1959081e595d605a1b6044820152606401610b3a565b600061185d836123cc565b905060028160ff1610156118b35760405162461bcd60e51b815260206004820152601860248201527f4e6f207072697a6520666f722074686973207469636b657400000000000000006044820152606401610b3a565b60006118bf84836126a1565b9050600081116119065760405162461bcd60e51b81526020600482015260126024820152714e6f207072697a6520617661696c61626c6560701b6044820152606401610b3a565b6000848152601a6020526040908190206004908101805460ff19169055905163a9059cbb60e01b81523391810191909152602481018290527f00000000000000000000000000000000000000000000000000000000000000006001600160a01b03169063a9059cbb906044016020604051808303816000875af1158015611991573d6000803e3d6000fd5b505050506040513d601f19601f820116820180604052508101906119b591906139d7565b6119f95760405162461bcd60e51b8152602060048201526015602482015274141c9a5e99481d1c985b9cd9995c8819985a5b1959605a1b6044820152606401610b3a565b6040805182815260ff841660208201526000818301529051339186917f026cdcc366814fb563cebc9794374e5d7aaa2f89b43f7f7661e5439f2c89f8f79181900360600190a3505050610f8b6001600355565b6000805b6004811015611a95576019838260048110611a6d57611a6d613a98565b602002015160ff1610611a835750600092915050565b80611a8d81613a0a565b915050611a50565b50600192915050565b611aa6611eea565b611aae6120d9565b60115462010000900460ff16611b065760405162461bcd60e51b815260206004820152601a60248201527f4d75737420626520696e20656d657267656e63792070617573650000000000006044820152606401610b3a565b6040516370a0823160e01b81523060048201526000907f00000000000000000000000000000000000000000000000000000000000000006001600160a01b0316906370a0823190602401602060405180830381865afa158015611b6d573d6000803e3d6000fd5b505050506040513d601f19601f82011682018060405250810190611b919190613bc9565b905060008111611bdc5760405162461bcd60e51b81526020600482015260166024820152754e6f2062616c616e636520746f20776974686472617760501b6044820152606401610b3a565b7f00000000000000000000000000000000000000000000000000000000000000006001600160a01b031663a9059cbb611c1d6000546001600160a01b031690565b6040516001600160e01b031960e084901b1681526001600160a01b039091166004820152602481018490526044016020604051808303816000875af1158015611c6a573d6000803e3d6000fd5b505050506040513d601f19601f82011682018060405250810190611c8e91906139d7565b611ccc5760405162461bcd60e51b815260206004820152600f60248201526e151c985b9cd9995c8819985a5b1959608a1b6044820152606401610b3a565b50611cd76001600355565b565b6000818152601b6020908152604091829020805483518184028101840190945280845260609392830182828015610a0157602002820191906000526020600020908154815260200190600101908083116109ed5750505050509050919050565b6001600160a01b03918216600090815260096020908152604080832093909416825291909152205460ff1690565b611d6f611eea565b610f8b81612813565b6000611d826133ee565b6000838152601a60209081526040808320815160e0810183528154815260018201546001600160a01b03169381019390935281516080810180845285948594859491939192908401919060028401906004908288855b825461010083900a900460ff16815260206001928301818104948501949093039092029101808411611dd8575050509284525050506003820154602080830191909152600483015460ff9081161515604080850191909152600585015460608086019190915260069095015490911615156080938401529084015190840151928401519184015193945092611e6c8b6123cc565b939b929a50909850965090945092505050565b60006001600160e01b0319821663780e9d6360e01b148061099b575061099b826128bc565b6000818152600660205260408120546001600160a01b03168061099b57604051637e27328960e01b815260048101849052602401610b3a565b610b4e838383600161290c565b6000546001600160a01b03163314611cd75760405162461bcd60e51b815260206004820152601660248201527527b7363c9031b0b63630b1363290313c9037bbb732b960511b6044820152606401610b3a565b60048114611f8d5760405162461bcd60e51b815260206004820152601e60248201527f496e76616c6964206e756d626572206f662072616e646f6d20776f72647300006044820152606401610b3a565b611f956133ee565b60005b6004811015611ff7576019848483818110611fb557611fb5613a98565b90506020020135611fc69190613be2565b828260048110611fd857611fd8613a98565b60ff909216602092909202015280611fef81613a0a565b915050611f98565b50612005600f82600461335b565b504260205560006001612016610f8e565b6120209190613bf6565b60008181526019602052604090209091506120409060090183600461335b565b506000818152601960205260409020600a01805460ff191660011790556120678183612a12565b601e805490600061207783613a0a565b9190505550807fe69a20bd85247c3428aec726bfa23e80608f0c3fdc4cb8b85d1cf67cfa225162836120a7612ba7565b6040516120b5929190613a36565b60405180910390a25050505050565b60006120d1848484612bd5565b949350505050565b6002600354036120fc57604051633ee5aeb560e01b815260040160405180910390fd5b6002600355565b6000818152601960205260409020805460649061212290605090613c09565b61212c9190613a67565b6001820155805460649061214290601490613c09565b61214c9190613a67565b6002820155600181015460649061216590605090613c09565b61216f9190613a67565b6003820155600181015460649061218890600a90613c09565b6121929190613a67565b600482015560018101546064906121ab90600590613c09565b6121b59190613a67565b81600501819055506064600582600101546121d09190613c09565b6121da9190613a67565b60069091015550565b610ad3828260405180602001604052806000815250612ca2565b600080620151806020546122119190613a23565b42101592915050565b6040805160c0810182527f9e1344a1247c8a1785d0a4681a27152bffdb43666ae5bf7d14d24a5efd44bf7181527f0000000000000000000000000000000000000000000000000000000000000000602080830191909152600382840152622625a0606083015260046080830152825190810190925260008083529160a08201906122a390612cb9565b9052604051634d8e1c2f60e11b81529091506001600160a01b037f00000000000000000000000000000000000000000000000000000000000000001690639b1c385e906122f4908490600401613c20565b6020604051808303816000875af1158015612313573d6000803e3d6000fd5b505050506040513d601f19601f82011682018060405250810190610ad39190613bc9565b6000610e106021544261234a9190613bf6565b1015905090565b6000600161235d610f8e565b6123679190613bf6565b6000818152601960205260409020600a0154909150610100900460ff161580156123a257506000818152601960205260409020600a015460ff165b156123b0576123b081612d2a565b42602155601f80549060006123c483613a0a565b919050555050565b6000818152601a602090815260408083206003015480845260199092528083208151608081019283905261243f928692600901906004908288855b825461010083900a900460ff168152602060019283018181049485019490930390920291018084116124075790505050505050612e02565b9392505050565b6001600160a01b03821661247857604051630b61174360e31b81526001600160a01b0383166004820152602401610b3a565b6001600160a01b03838116600081815260096020908152604080832094871680845294825291829020805460ff191686151590811790915591519182527f17307eab39ab6107e8899845ad3d59bd9653f200f220920489ca2b5937696c31910160405180910390a3505050565b6001600160a01b0383163b15610bd857604051630a85bd0160e11b81526001600160a01b0384169063150b7a0290612527903390889087908790600401613c7d565b6020604051808303816000875af1925050508015612562575060408051601f3d908101601f1916820190925261255f91810190613cba565b60015b6125cb573d808015612590576040519150601f19603f3d011682016040523d82523d6000602084013e612595565b606091505b5080516000036125c357604051633250574960e11b81526001600160a01b0385166004820152602401610b3a565b805181602001fd5b6001600160e01b03198116630a85bd0160e11b1461260757604051633250574960e11b81526001600160a01b0385166004820152602401610b3a565b5050505050565b6060600061261b83612ece565b600101905060008167ffffffffffffffff81111561263b5761263b613630565b6040519080825280601f01601f191660200182016040528015612665576020820181803683370190505b5090508181016020015b600019016f181899199a1a9b1b9c1cb0b131b232b360811b600a86061a8153600a850494508461266f57509392505050565b6000828152601a602090815260408083206003908101548085526019845282852083516101808101855281548152600182015495810195909552600281015485850152918201546060850152600480830154608080870191909152600584015460a0870152600684015460c0870152600784015460ff16151560e087015260088401546101008701528451908101948590529194869490939261012085019290916009850191908288855b825461010083900a900460ff1681526020600192830181810494850194909303909202910180841161274c57505050928452505050600a919091015460ff808216151560208401526101009091048116151560409092019190915290915084166004036127ce5760125460608201516127c59190613a23565b9250505061099b565b8360ff166003036127eb5760135460808201516127c59190613a23565b8360ff166002036128085760145460a08201516127c59190613a23565b506000949350505050565b336001600160a01b0382160361286b5760405162461bcd60e51b815260206004820152601760248201527f43616e6e6f74207472616e7366657220746f2073656c660000000000000000006044820152606401610b3a565b600180546001600160a01b0319166001600160a01b0383811691821790925560008054604051929316917fed8889f560326eb138920d842192f0eb3dd22b4f139c87a2c57538e05bae12789190a350565b60006001600160e01b031982166380ac58cd60e01b14806128ed57506001600160e01b03198216635b5e139f60e01b145b8061099b57506301ffc9a760e01b6001600160e01b031983161461099b565b808061292057506001600160a01b03821615155b156129e257600061293084611ea4565b90506001600160a01b0383161580159061295c5750826001600160a01b0316816001600160a01b031614155b801561296f575061296d8184611d39565b155b156129985760405163a9fbf51f60e01b81526001600160a01b0384166004820152602401610b3a565b81156129e05783856001600160a01b0316826001600160a01b03167f8c5be1e5ebec7d5bd14f71427d1e84f3dd0314c0f7b2291e5b200ac8c7c3b92560405160405180910390a45b505b5050600090815260086020526040902080546001600160a01b0319166001600160a01b0392909216919091179055565b6000828152601b6020908152604080832080548251818502810185019093528083529192909190830182828015612a6857602002820191906000526020600020905b815481526020019060010190808311612a54575b505050505090506000806000805b8451811015612af8576000858281518110612a9357612a93613a98565b602002602001015190506000612aa98289612e02565b90508060ff16600403612abf5760019550612ae3565b8060ff16600303612ad35760019450612ae3565b8060ff16600203612ae357600193505b50508080612af090613a0a565b915050612a76565b50600086815260196020526040902083612b2957600381015460128054600090612b23908490613a23565b90915550505b82612b4b57600481015460138054600090612b45908490613a23565b90915550505b81612b6d57600581015460148054600090612b67908490613a23565b90915550505b600681015460158054600090612b84908490613a23565b909155505060078101805460ff1916600117905542600890910155505050505050565b6015546014546013546012546000939291612bc191613a23565b612bcb9190613a23565b610fac9190613a23565b600080612be3858585612fa6565b90506001600160a01b038116612c4057612c3b84600c80546000838152600d60205260408120829055600182018355919091527fdf6966c971051c3d54ec59162606531493a51404a002842f56009d7e5cf4a8c70155565b612c63565b846001600160a01b0316816001600160a01b031614612c6357612c63818561309f565b6001600160a01b038516612c7f57612c7a84613130565b6120d1565b846001600160a01b0316816001600160a01b0316146120d1576120d185856131df565b612cac838361322f565b610b4e60008484846124e5565b60607f92fd13387c7fe7befbc38d303d6468778fb9731bc4583f17d92989c6fcfdeaaa82604051602401612cf291511515815260200190565b60408051601f198184030181529190526020810180516001600160e01b03166001600160e01b03199093169290921790915292915050565b60008181526019602052604081206002810154909190612d4c90600390613a67565b90508060166000016000828254612d639190613a23565b909155505060178054829190600090612d7d908490613a23565b909155505060188054829190600090612d97908490613a23565b9091555050600a8201805461ff00191661010017905560028201546040805183815260208101849052908101839052606081019190915283907fa5d2656a8dcf8630609f3f5ce778cc220baea1b2e804fbc353c4ec0bfbae10ad9060800160405180910390a2505050565b6000828152601a60205260408082208151608081019283905283929091600201906004908285855b825461010083900a900460ff16815260206001928301818104948501949093039092029101808411612e2a579050505050505090506000805b6004811015612ec557848160048110612e7e57612e7e613a98565b602002015160ff16838260048110612e9857612e98613a98565b602002015160ff1603612eb35781612eaf81613cd7565b9250505b80612ebd81613a0a565b915050612e63565b50949350505050565b60008072184f03e93ff9f4daa797ed6e38ed64bf6a1f0160401b8310612f0d5772184f03e93ff9f4daa797ed6e38ed64bf6a1f0160401b830492506040015b6d04ee2d6d415b85acef81000000008310612f39576d04ee2d6d415b85acef8100000000830492506020015b662386f26fc100008310612f5757662386f26fc10000830492506010015b6305f5e1008310612f6f576305f5e100830492506008015b6127108310612f8357612710830492506004015b60648310612f95576064830492506002015b600a831061099b5760010192915050565b6000828152600660205260408120546001600160a01b0390811690831615612fd357612fd3818486613294565b6001600160a01b0381161561301157612ff060008560008061290c565b6001600160a01b038116600090815260076020526040902080546000190190555b6001600160a01b03851615613040576001600160a01b0385166000908152600760205260409020805460010190555b60008481526006602052604080822080546001600160a01b0319166001600160a01b0389811691821790925591518793918516917fddf252ad1be2c89b69c2b068fc378daa952ba7f163c4a11628f55a4df523b3ef91a4949350505050565b60006130aa836111b3565b6000838152600b60205260409020549091508082146130fd576001600160a01b0384166000908152600a602090815260408083208584528252808320548484528184208190558352600b90915290208190555b506000918252600b602090815260408084208490556001600160a01b039094168352600a81528383209183525290812055565b600c5460009061314290600190613bf6565b6000838152600d6020526040812054600c805493945090928490811061316a5761316a613a98565b9060005260206000200154905080600c838154811061318b5761318b613a98565b6000918252602080832090910192909255828152600d9091526040808220849055858252812055600c8054806131c3576131c3613cf6565b6001900381819060005260206000200160009055905550505050565b600060016131ec846111b3565b6131f69190613bf6565b6001600160a01b039093166000908152600a602090815260408083208684528252808320859055938252600b9052919091209190915550565b6001600160a01b03821661325957604051633250574960e11b815260006004820152602401610b3a565b6000613267838360006120c4565b90506001600160a01b03811615610b4e576040516339e3563760e11b815260006004820152602401610b3a565b61329f8383836132f8565b610b4e576001600160a01b0383166132cd57604051637e27328960e01b815260048101829052602401610b3a565b60405163177e802f60e01b81526001600160a01b038316600482015260248101829052604401610b3a565b60006001600160a01b038316158015906120d15750826001600160a01b0316846001600160a01b0316148061333257506133328484611d39565b806120d15750506000908152600860205260409020546001600160a01b03908116911614919050565b6001830191839082156133de5791602002820160005b838211156133af57835183826101000a81548160ff021916908360ff1602179055509260200192600101602081600001049283019260010302613371565b80156133dc5782816101000a81549060ff02191690556001016020816000010492830192600103026133af565b505b506133ea92915061340c565b5090565b60405180608001604052806004906020820280368337509192915050565b5b808211156133ea576000815560010161340d565b6001600160e01b031981168114610f8b57600080fd5b60006020828403121561344957600080fd5b813561243f81613421565b80356001600160a01b038116811461346b57600080fd5b919050565b60006020828403121561348257600080fd5b61243f82613454565b6020808252825182820181905260009190848201906040850190845b818110156134c3578351835292840192918401916001016134a7565b50909695505050505050565b60005b838110156134ea5781810151838201526020016134d2565b50506000910152565b6000815180845261350b8160208601602086016134cf565b601f01601f19169290920160200192915050565b60208152600061243f60208301846134f3565b60006020828403121561354457600080fd5b5035919050565b6000806040838503121561355e57600080fd5b61356783613454565b946020939093013593505050565b60008060006040848603121561358a57600080fd5b83359250602084013567ffffffffffffffff808211156135a957600080fd5b818601915086601f8301126135bd57600080fd5b8135818111156135cc57600080fd5b8760208260051b85010111156135e157600080fd5b6020830194508093505050509250925092565b60008060006060848603121561360957600080fd5b61361284613454565b925061362060208501613454565b9150604084013590509250925092565b634e487b7160e01b600052604160045260246000fd5b604051601f8201601f1916810167ffffffffffffffff8111828210171561366f5761366f613630565b604052919050565b60006080828403121561368957600080fd5b82601f83011261369857600080fd5b6040516080810181811067ffffffffffffffff821117156136bb576136bb613630565b6040528060808401858111156136d057600080fd5b845b818110156136fa57803560ff811681146136ec5760008081fd5b8352602092830192016136d2565b509195945050505050565b6000806020838503121561371857600080fd5b823567ffffffffffffffff8082111561373057600080fd5b818501915085601f83011261374457600080fd5b81358181111561375357600080fd5b86602082850101111561376557600080fd5b60209290920196919550909350505050565b82151581526040602082015260006120d160408301846134f3565b8060005b6004811015610bd857815160ff16845260209384019390910190600101613796565b6001600160a01b038816815261014081016137d66020830189613792565b60a082019690965293151560c085015260e0840192909252151561010083015260ff166101209091015292915050565b6000806040838503121561381957600080fd5b50508035926020909101359150565b8015158114610f8b57600080fd5b6000806040838503121561384957600080fd5b61385283613454565b9150602083013561386281613828565b809150509250929050565b6000806000806080858703121561388357600080fd5b61388c85613454565b9350602061389b818701613454565b935060408601359250606086013567ffffffffffffffff808211156138bf57600080fd5b818801915088601f8301126138d357600080fd5b8135818111156138e5576138e5613630565b6138f7601f8201601f19168501613646565b9150808252898482850101111561390d57600080fd5b808484018584013760008482840101525080935050505092959194509250565b6000806040838503121561394057600080fd5b61394983613454565b915061395760208401613454565b90509250929050565b6001600160a01b0386168152610100810161397e6020830187613792565b60a082019490945291151560c083015260ff1660e09091015292915050565b600181811c908216806139b157607f821691505b6020821081036139d157634e487b7160e01b600052602260045260246000fd5b50919050565b6000602082840312156139e957600080fd5b815161243f81613828565b634e487b7160e01b600052601160045260246000fd5b600060018201613a1c57613a1c6139f4565b5060010190565b8082018082111561099b5761099b6139f4565b60a08101613a448285613792565b8260808301529392505050565b634e487b7160e01b600052601260045260246000fd5b600082613a7657613a76613a51565b500490565b600060208284031215613a8d57600080fd5b813561243f81613828565b634e487b7160e01b600052603260045260246000fd5b60008551613ac0818460208a016134cf565b8083019050600b60fa1b8082528651613ae0816001850160208b016134cf565b600192019182018190528551613afd816002850160208a016134cf565b60029201918201528351613b188160038401602088016134cf565b016003019695505050505050565b7f68747470733a2f2f6c6f74746f6d6f6a692e636f6d2f6170692f6d657461646181526274612f60e81b602082015260008451613b6a8160238501602089016134cf565b673f656d6f6a69733d60c01b6023918401918201528451613b9281602b8401602089016134cf565b682667616d654461793d60b81b602b92909101918201528351613bbc8160348401602088016134cf565b0160340195945050505050565b600060208284031215613bdb57600080fd5b5051919050565b600082613bf157613bf1613a51565b500690565b8181038181111561099b5761099b6139f4565b808202811582820484141761099b5761099b6139f4565b60208152815160208201526020820151604082015261ffff60408301511660608201526000606083015163ffffffff80821660808501528060808601511660a0850152505060a083015160c0808401526120d160e08401826134f3565b6001600160a01b0385811682528416602082015260408101839052608060608201819052600090613cb0908301846134f3565b9695505050505050565b600060208284031215613ccc57600080fd5b815161243f81613421565b600060ff821660ff8103613ced57613ced6139f4565b60010192915050565b634e487b7160e01b600052603160045260246000fdfea2646970667358221220a3c7d7e7eef1dfbde45194d92420695c7884ea7f4bdff225d670ad61724904b764736f6c63430008140033",
  "linkReferences": {},
  "deployedLinkReferences": {}
}