{
  "_format": "hh-sol-artifact-1",
  "contractName": "LottoMojiCore",
  "sourceName": "contracts/LottoMojiCore.sol",
  "abi": [
    {
      "inputs": [
        {
          "internalType": "address",
          "name": "_usdcToken",
          "type": "address"
        },
        {
          "internalType": "uint256",
          "name": "_subscriptionId",
          "type": "uint256"
        }
      ],
      "stateMutability": "nonpayable",
      "type": "constructor"
    },
    {
      "inputs": [],
      "name": "ERC721EnumerableForbiddenBatchMint",
      "type": "error"
    },
    {
      "inputs": [
        {
          "internalType": "address",
          "name": "sender",
          "type": "address"
        },
        {
          "internalType": "uint256",
          "name": "tokenId",
          "type": "uint256"
        },
        {
          "internalType": "address",
          "name": "owner",
          "type": "address"
        }
      ],
      "name": "ERC721IncorrectOwner",
      "type": "error"
    },
    {
      "inputs": [
        {
          "internalType": "address",
          "name": "operator",
          "type": "address"
        },
        {
          "internalType": "uint256",
          "name": "tokenId",
          "type": "uint256"
        }
      ],
      "name": "ERC721InsufficientApproval",
      "type": "error"
    },
    {
      "inputs": [
        {
          "internalType": "address",
          "name": "approver",
          "type": "address"
        }
      ],
      "name": "ERC721InvalidApprover",
      "type": "error"
    },
    {
      "inputs": [
        {
          "internalType": "address",
          "name": "operator",
          "type": "address"
        }
      ],
      "name": "ERC721InvalidOperator",
      "type": "error"
    },
    {
      "inputs": [
        {
          "internalType": "address",
          "name": "owner",
          "type": "address"
        }
      ],
      "name": "ERC721InvalidOwner",
      "type": "error"
    },
    {
      "inputs": [
        {
          "internalType": "address",
          "name": "receiver",
          "type": "address"
        }
      ],
      "name": "ERC721InvalidReceiver",
      "type": "error"
    },
    {
      "inputs": [
        {
          "internalType": "address",
          "name": "sender",
          "type": "address"
        }
      ],
      "name": "ERC721InvalidSender",
      "type": "error"
    },
    {
      "inputs": [
        {
          "internalType": "uint256",
          "name": "tokenId",
          "type": "uint256"
        }
      ],
      "name": "ERC721NonexistentToken",
      "type": "error"
    },
    {
      "inputs": [
        {
          "internalType": "address",
          "name": "owner",
          "type": "address"
        },
        {
          "internalType": "uint256",
          "name": "index",
          "type": "uint256"
        }
      ],
      "name": "ERC721OutOfBoundsIndex",
      "type": "error"
    },
    {
      "inputs": [
        {
          "internalType": "address",
          "name": "have",
          "type": "address"
        },
        {
          "internalType": "address",
          "name": "want",
          "type": "address"
        }
      ],
      "name": "OnlyCoordinatorCanFulfill",
      "type": "error"
    },
    {
      "inputs": [
        {
          "internalType": "address",
          "name": "have",
          "type": "address"
        },
        {
          "internalType": "address",
          "name": "owner",
          "type": "address"
        },
        {
          "internalType": "address",
          "name": "coordinator",
          "type": "address"
        }
      ],
      "name": "OnlyOwnerOrCoordinator",
      "type": "error"
    },
    {
      "inputs": [],
      "name": "ReentrancyGuardReentrantCall",
      "type": "error"
    },
    {
      "inputs": [],
      "name": "ZeroAddress",
      "type": "error"
    },
    {
      "anonymous": false,
      "inputs": [
        {
          "indexed": true,
          "internalType": "address",
          "name": "owner",
          "type": "address"
        },
        {
          "indexed": true,
          "internalType": "address",
          "name": "approved",
          "type": "address"
        },
        {
          "indexed": true,
          "internalType": "uint256",
          "name": "tokenId",
          "type": "uint256"
        }
      ],
      "name": "Approval",
      "type": "event"
    },
    {
      "anonymous": false,
      "inputs": [
        {
          "indexed": true,
          "internalType": "address",
          "name": "owner",
          "type": "address"
        },
        {
          "indexed": true,
          "internalType": "address",
          "name": "operator",
          "type": "address"
        },
        {
          "indexed": false,
          "internalType": "bool",
          "name": "approved",
          "type": "bool"
        }
      ],
      "name": "ApprovalForAll",
      "type": "event"
    },
    {
      "anonymous": false,
      "inputs": [
        {
          "indexed": false,
          "internalType": "address",
          "name": "vrfCoordinator",
          "type": "address"
        }
      ],
      "name": "CoordinatorSet",
      "type": "event"
    },
    {
      "anonymous": false,
      "inputs": [
        {
          "indexed": true,
          "internalType": "uint256",
          "name": "gameDay",
          "type": "uint256"
        },
        {
          "indexed": false,
          "internalType": "uint256",
          "name": "firstReserveAmount",
          "type": "uint256"
        },
        {
          "indexed": false,
          "internalType": "uint256",
          "name": "secondReserveAmount",
          "type": "uint256"
        },
        {
          "indexed": false,
          "internalType": "uint256",
          "name": "thirdReserveAmount",
          "type": "uint256"
        },
        {
          "indexed": false,
          "internalType": "uint256",
          "name": "totalSent",
          "type": "uint256"
        }
      ],
      "name": "DailyReservesSent",
      "type": "event"
    },
    {
      "anonymous": false,
      "inputs": [
        {
          "indexed": true,
          "internalType": "uint256",
          "name": "gameDay",
          "type": "uint256"
        },
        {
          "indexed": false,
          "internalType": "uint8[4]",
          "name": "winningNumbers",
          "type": "uint8[4]"
        },
        {
          "indexed": false,
          "internalType": "uint256",
          "name": "totalMainPools",
          "type": "uint256"
        }
      ],
      "name": "DrawExecuted",
      "type": "event"
    },
    {
      "anonymous": false,
      "inputs": [
        {
          "indexed": false,
          "internalType": "uint256",
          "name": "oldTime",
          "type": "uint256"
        },
        {
          "indexed": false,
          "internalType": "uint256",
          "name": "newTime",
          "type": "uint256"
        },
        {
          "indexed": false,
          "internalType": "uint256",
          "name": "newGameDay",
          "type": "uint256"
        }
      ],
      "name": "DrawTimeUTCUpdated",
      "type": "event"
    },
    {
      "anonymous": false,
      "inputs": [
        {
          "indexed": false,
          "internalType": "uint256",
          "name": "oldTime",
          "type": "uint256"
        },
        {
          "indexed": false,
          "internalType": "uint256",
          "name": "newTime",
          "type": "uint256"
        },
        {
          "indexed": false,
          "internalType": "uint256",
          "name": "newGameDay",
          "type": "uint256"
        }
      ],
      "name": "LastDrawTimeUpdated",
      "type": "event"
    },
    {
      "anonymous": false,
      "inputs": [
        {
          "indexed": true,
          "internalType": "address",
          "name": "from",
          "type": "address"
        },
        {
          "indexed": true,
          "internalType": "address",
          "name": "to",
          "type": "address"
        }
      ],
      "name": "OwnershipTransferRequested",
      "type": "event"
    },
    {
      "anonymous": false,
      "inputs": [
        {
          "indexed": true,
          "internalType": "address",
          "name": "from",
          "type": "address"
        },
        {
          "indexed": true,
          "internalType": "address",
          "name": "to",
          "type": "address"
        }
      ],
      "name": "OwnershipTransferred",
      "type": "event"
    },
    {
      "anonymous": false,
      "inputs": [
        {
          "indexed": true,
          "internalType": "uint256",
          "name": "ticketId",
          "type": "uint256"
        },
        {
          "indexed": true,
          "internalType": "address",
          "name": "winner",
          "type": "address"
        },
        {
          "indexed": false,
          "internalType": "uint256",
          "name": "amount",
          "type": "uint256"
        },
        {
          "indexed": false,
          "internalType": "uint8",
          "name": "prizeLevel",
          "type": "uint8"
        },
        {
          "indexed": false,
          "internalType": "bool",
          "name": "reserveUsedForRefill",
          "type": "bool"
        }
      ],
      "name": "PrizeClaimed",
      "type": "event"
    },
    {
      "anonymous": false,
      "inputs": [
        {
          "indexed": true,
          "internalType": "uint256",
          "name": "gameDay",
          "type": "uint256"
        },
        {
          "indexed": false,
          "internalType": "uint8",
          "name": "prizeLevel",
          "type": "uint8"
        },
        {
          "indexed": false,
          "internalType": "uint256",
          "name": "amountTransferred",
          "type": "uint256"
        }
      ],
      "name": "ReserveUsedForRefill",
      "type": "event"
    },
    {
      "anonymous": false,
      "inputs": [
        {
          "indexed": true,
          "internalType": "uint256",
          "name": "ticketId",
          "type": "uint256"
        },
        {
          "indexed": true,
          "internalType": "address",
          "name": "buyer",
          "type": "address"
        },
        {
          "indexed": false,
          "internalType": "uint8[4]",
          "name": "numbers",
          "type": "uint8[4]"
        },
        {
          "indexed": false,
          "internalType": "uint256",
          "name": "gameDay",
          "type": "uint256"
        }
      ],
      "name": "TicketPurchased",
      "type": "event"
    },
    {
      "anonymous": false,
      "inputs": [
        {
          "indexed": true,
          "internalType": "address",
          "name": "from",
          "type": "address"
        },
        {
          "indexed": true,
          "internalType": "address",
          "name": "to",
          "type": "address"
        },
        {
          "indexed": true,
          "internalType": "uint256",
          "name": "tokenId",
          "type": "uint256"
        }
      ],
      "name": "Transfer",
      "type": "event"
    },
    {
      "inputs": [],
      "name": "DAILY_RESERVE_PERCENTAGE",
      "outputs": [
        {
          "internalType": "uint256",
          "name": "",
          "type": "uint256"
        }
      ],
      "stateMutability": "view",
      "type": "function"
    },
    {
      "inputs": [],
      "name": "DEVELOPMENT_PERCENTAGE",
      "outputs": [
        {
          "internalType": "uint256",
          "name": "",
          "type": "uint256"
        }
      ],
      "stateMutability": "view",
      "type": "function"
    },
    {
      "inputs": [],
      "name": "DRAW_INTERVAL",
      "outputs": [
        {
          "internalType": "uint256",
          "name": "",
          "type": "uint256"
        }
      ],
      "stateMutability": "view",
      "type": "function"
    },
    {
      "inputs": [],
      "name": "EMOJI_COUNT",
      "outputs": [
        {
          "internalType": "uint8",
          "name": "",
          "type": "uint8"
        }
      ],
      "stateMutability": "view",
      "type": "function"
    },
    {
      "inputs": [],
      "name": "FIRST_PRIZE_PERCENTAGE",
      "outputs": [
        {
          "internalType": "uint256",
          "name": "",
          "type": "uint256"
        }
      ],
      "stateMutability": "view",
      "type": "function"
    },
    {
      "inputs": [],
      "name": "MAIN_POOL_PERCENTAGE",
      "outputs": [
        {
          "internalType": "uint256",
          "name": "",
          "type": "uint256"
        }
      ],
      "stateMutability": "view",
      "type": "function"
    },
    {
      "inputs": [],
      "name": "SECOND_PRIZE_PERCENTAGE",
      "outputs": [
        {
          "internalType": "uint256",
          "name": "",
          "type": "uint256"
        }
      ],
      "stateMutability": "view",
      "type": "function"
    },
    {
      "inputs": [],
      "name": "THIRD_PRIZE_PERCENTAGE",
      "outputs": [
        {
          "internalType": "uint256",
          "name": "",
          "type": "uint256"
        }
      ],
      "stateMutability": "view",
      "type": "function"
    },
    {
      "inputs": [],
      "name": "TICKET_PRICE",
      "outputs": [
        {
          "internalType": "uint256",
          "name": "",
          "type": "uint256"
        }
      ],
      "stateMutability": "view",
      "type": "function"
    },
    {
      "inputs": [],
      "name": "acceptOwnership",
      "outputs": [],
      "stateMutability": "nonpayable",
      "type": "function"
    },
    {
      "inputs": [
        {
          "internalType": "address",
          "name": "to",
          "type": "address"
        },
        {
          "internalType": "uint256",
          "name": "tokenId",
          "type": "uint256"
        }
      ],
      "name": "approve",
      "outputs": [],
      "stateMutability": "nonpayable",
      "type": "function"
    },
    {
      "inputs": [],
      "name": "automationActive",
      "outputs": [
        {
          "internalType": "bool",
          "name": "",
          "type": "bool"
        }
      ],
      "stateMutability": "view",
      "type": "function"
    },
    {
      "inputs": [
        {
          "internalType": "address",
          "name": "owner",
          "type": "address"
        }
      ],
      "name": "balanceOf",
      "outputs": [
        {
          "internalType": "uint256",
          "name": "",
          "type": "uint256"
        }
      ],
      "stateMutability": "view",
      "type": "function"
    },
    {
      "inputs": [
        {
          "internalType": "uint8[4]",
          "name": "_numbers",
          "type": "uint8[4]"
        }
      ],
      "name": "buyTicket",
      "outputs": [],
      "stateMutability": "nonpayable",
      "type": "function"
    },
    {
      "inputs": [
        {
          "internalType": "bytes",
          "name": "",
          "type": "bytes"
        }
      ],
      "name": "checkUpkeep",
      "outputs": [
        {
          "internalType": "bool",
          "name": "upkeepNeeded",
          "type": "bool"
        },
        {
          "internalType": "bytes",
          "name": "",
          "type": "bytes"
        }
      ],
      "stateMutability": "view",
      "type": "function"
    },
    {
      "inputs": [
        {
          "internalType": "uint256",
          "name": "_ticketId",
          "type": "uint256"
        }
      ],
      "name": "claimPrize",
      "outputs": [],
      "stateMutability": "nonpayable",
      "type": "function"
    },
    {
      "inputs": [],
      "name": "currentGameDay",
      "outputs": [
        {
          "internalType": "uint256",
          "name": "",
          "type": "uint256"
        }
      ],
      "stateMutability": "view",
      "type": "function"
    },
    {
      "inputs": [
        {
          "internalType": "uint256",
          "name": "",
          "type": "uint256"
        }
      ],
      "name": "dailyPools",
      "outputs": [
        {
          "internalType": "uint256",
          "name": "totalCollected",
          "type": "uint256"
        },
        {
          "internalType": "uint256",
          "name": "mainPoolPortion",
          "type": "uint256"
        },
        {
          "internalType": "uint256",
          "name": "reservePortion",
          "type": "uint256"
        },
        {
          "internalType": "uint256",
          "name": "firstPrizeDaily",
          "type": "uint256"
        },
        {
          "internalType": "uint256",
          "name": "secondPrizeDaily",
          "type": "uint256"
        },
        {
          "internalType": "uint256",
          "name": "thirdPrizeDaily",
          "type": "uint256"
        },
        {
          "internalType": "uint256",
          "name": "developmentDaily",
          "type": "uint256"
        },
        {
          "internalType": "bool",
          "name": "distributed",
          "type": "bool"
        },
        {
          "internalType": "uint256",
          "name": "distributionTime",
          "type": "uint256"
        },
        {
          "internalType": "bool",
          "name": "drawn",
          "type": "bool"
        },
        {
          "internalType": "bool",
          "name": "reservesSent",
          "type": "bool"
        }
      ],
      "stateMutability": "view",
      "type": "function"
    },
    {
      "inputs": [],
      "name": "drawTimeUTC",
      "outputs": [
        {
          "internalType": "uint256",
          "name": "",
          "type": "uint256"
        }
      ],
      "stateMutability": "view",
      "type": "function"
    },
    {
      "inputs": [],
      "name": "emergencyPause",
      "outputs": [
        {
          "internalType": "bool",
          "name": "",
          "type": "bool"
        }
      ],
      "stateMutability": "view",
      "type": "function"
    },
    {
      "inputs": [],
      "name": "emergencyWithdraw",
      "outputs": [],
      "stateMutability": "nonpayable",
      "type": "function"
    },
    {
      "inputs": [],
      "name": "gameActive",
      "outputs": [
        {
          "internalType": "bool",
          "name": "",
          "type": "bool"
        }
      ],
      "stateMutability": "view",
      "type": "function"
    },
    {
      "inputs": [
        {
          "internalType": "uint256",
          "name": "",
          "type": "uint256"
        },
        {
          "internalType": "uint256",
          "name": "",
          "type": "uint256"
        }
      ],
      "name": "gameDayTickets",
      "outputs": [
        {
          "internalType": "uint256",
          "name": "",
          "type": "uint256"
        }
      ],
      "stateMutability": "view",
      "type": "function"
    },
    {
      "inputs": [
        {
          "internalType": "uint256",
          "name": "tokenId",
          "type": "uint256"
        }
      ],
      "name": "getApproved",
      "outputs": [
        {
          "internalType": "address",
          "name": "",
          "type": "address"
        }
      ],
      "stateMutability": "view",
      "type": "function"
    },
    {
      "inputs": [],
      "name": "getCurrentDay",
      "outputs": [
        {
          "internalType": "uint256",
          "name": "",
          "type": "uint256"
        }
      ],
      "stateMutability": "view",
      "type": "function"
    },
    {
      "inputs": [
        {
          "internalType": "uint256",
          "name": "ticketId",
          "type": "uint256"
        }
      ],
      "name": "getFullTicketInfo",
      "outputs": [
        {
          "internalType": "address",
          "name": "ticketOwner",
          "type": "address"
        },
        {
          "internalType": "uint8[4]",
          "name": "numbers",
          "type": "uint8[4]"
        },
        {
          "internalType": "uint256",
          "name": "gameDay",
          "type": "uint256"
        },
        {
          "internalType": "bool",
          "name": "isActive",
          "type": "bool"
        },
        {
          "internalType": "uint256",
          "name": "purchaseTime",
          "type": "uint256"
        },
        {
          "internalType": "bool",
          "name": "eligibleForReserve",
          "type": "bool"
        },
        {
          "internalType": "uint8",
          "name": "matches",
          "type": "uint8"
        }
      ],
      "stateMutability": "view",
      "type": "function"
    },
    {
      "inputs": [
        {
          "internalType": "uint256",
          "name": "gameDay",
          "type": "uint256"
        }
      ],
      "name": "getGameDayTickets",
      "outputs": [
        {
          "internalType": "uint256[]",
          "name": "",
          "type": "uint256[]"
        }
      ],
      "stateMutability": "view",
      "type": "function"
    },
    {
      "inputs": [
        {
          "internalType": "uint256",
          "name": "ticketId",
          "type": "uint256"
        }
      ],
      "name": "getTicketInfo",
      "outputs": [
        {
          "internalType": "address",
          "name": "ticketOwner",
          "type": "address"
        },
        {
          "internalType": "uint8[4]",
          "name": "numbers",
          "type": "uint8[4]"
        },
        {
          "internalType": "uint256",
          "name": "gameDay",
          "type": "uint256"
        },
        {
          "internalType": "bool",
          "name": "isActive",
          "type": "bool"
        },
        {
          "internalType": "uint8",
          "name": "matches",
          "type": "uint8"
        }
      ],
      "stateMutability": "view",
      "type": "function"
    },
    {
      "inputs": [
        {
          "internalType": "address",
          "name": "user",
          "type": "address"
        }
      ],
      "name": "getUserTickets",
      "outputs": [
        {
          "internalType": "uint256[]",
          "name": "",
          "type": "uint256[]"
        }
      ],
      "stateMutability": "view",
      "type": "function"
    },
    {
      "inputs": [
        {
          "internalType": "address",
          "name": "owner",
          "type": "address"
        },
        {
          "internalType": "address",
          "name": "operator",
          "type": "address"
        }
      ],
      "name": "isApprovedForAll",
      "outputs": [
        {
          "internalType": "bool",
          "name": "",
          "type": "bool"
        }
      ],
      "stateMutability": "view",
      "type": "function"
    },
    {
      "inputs": [],
      "name": "lastDrawTime",
      "outputs": [
        {
          "internalType": "uint256",
          "name": "",
          "type": "uint256"
        }
      ],
      "stateMutability": "view",
      "type": "function"
    },
    {
      "inputs": [],
      "name": "lastMaintenanceTime",
      "outputs": [
        {
          "internalType": "uint256",
          "name": "",
          "type": "uint256"
        }
      ],
      "stateMutability": "view",
      "type": "function"
    },
    {
      "inputs": [
        {
          "internalType": "uint256",
          "name": "",
          "type": "uint256"
        }
      ],
      "name": "lastWinningNumbers",
      "outputs": [
        {
          "internalType": "uint8",
          "name": "",
          "type": "uint8"
        }
      ],
      "stateMutability": "view",
      "type": "function"
    },
    {
      "inputs": [],
      "name": "mainPools",
      "outputs": [
        {
          "internalType": "uint256",
          "name": "firstPrizeAccumulated",
          "type": "uint256"
        },
        {
          "internalType": "uint256",
          "name": "secondPrizeAccumulated",
          "type": "uint256"
        },
        {
          "internalType": "uint256",
          "name": "thirdPrizeAccumulated",
          "type": "uint256"
        },
        {
          "internalType": "uint256",
          "name": "developmentAccumulated",
          "type": "uint256"
        }
      ],
      "stateMutability": "view",
      "type": "function"
    },
    {
      "inputs": [],
      "name": "name",
      "outputs": [
        {
          "internalType": "string",
          "name": "",
          "type": "string"
        }
      ],
      "stateMutability": "view",
      "type": "function"
    },
    {
      "inputs": [],
      "name": "owner",
      "outputs": [
        {
          "internalType": "address",
          "name": "",
          "type": "address"
        }
      ],
      "stateMutability": "view",
      "type": "function"
    },
    {
      "inputs": [
        {
          "internalType": "uint256",
          "name": "tokenId",
          "type": "uint256"
        }
      ],
      "name": "ownerOf",
      "outputs": [
        {
          "internalType": "address",
          "name": "",
          "type": "address"
        }
      ],
      "stateMutability": "view",
      "type": "function"
    },
    {
      "inputs": [
        {
          "internalType": "bytes",
          "name": "performData",
          "type": "bytes"
        }
      ],
      "name": "performUpkeep",
      "outputs": [],
      "stateMutability": "nonpayable",
      "type": "function"
    },
    {
      "inputs": [
        {
          "internalType": "uint256",
          "name": "requestId",
          "type": "uint256"
        },
        {
          "internalType": "uint256[]",
          "name": "randomWords",
          "type": "uint256[]"
        }
      ],
      "name": "rawFulfillRandomWords",
      "outputs": [],
      "stateMutability": "nonpayable",
      "type": "function"
    },
    {
      "inputs": [],
      "name": "reserves",
      "outputs": [
        {
          "internalType": "uint256",
          "name": "firstPrizeReserve1",
          "type": "uint256"
        },
        {
          "internalType": "uint256",
          "name": "secondPrizeReserve2",
          "type": "uint256"
        },
        {
          "internalType": "uint256",
          "name": "thirdPrizeReserve3",
          "type": "uint256"
        }
      ],
      "stateMutability": "view",
      "type": "function"
    },
    {
      "inputs": [],
      "name": "s_vrfCoordinator",
      "outputs": [
        {
          "internalType": "contract IVRFCoordinatorV2Plus",
          "name": "",
          "type": "address"
        }
      ],
      "stateMutability": "view",
      "type": "function"
    },
    {
      "inputs": [
        {
          "internalType": "address",
          "name": "from",
          "type": "address"
        },
        {
          "internalType": "address",
          "name": "to",
          "type": "address"
        },
        {
          "internalType": "uint256",
          "name": "tokenId",
          "type": "uint256"
        }
      ],
      "name": "safeTransferFrom",
      "outputs": [],
      "stateMutability": "nonpayable",
      "type": "function"
    },
    {
      "inputs": [
        {
          "internalType": "address",
          "name": "from",
          "type": "address"
        },
        {
          "internalType": "address",
          "name": "to",
          "type": "address"
        },
        {
          "internalType": "uint256",
          "name": "tokenId",
          "type": "uint256"
        },
        {
          "internalType": "bytes",
          "name": "data",
          "type": "bytes"
        }
      ],
      "name": "safeTransferFrom",
      "outputs": [],
      "stateMutability": "nonpayable",
      "type": "function"
    },
    {
      "inputs": [
        {
          "internalType": "address",
          "name": "operator",
          "type": "address"
        },
        {
          "internalType": "bool",
          "name": "approved",
          "type": "bool"
        }
      ],
      "name": "setApprovalForAll",
      "outputs": [],
      "stateMutability": "nonpayable",
      "type": "function"
    },
    {
      "inputs": [
        {
          "internalType": "address",
          "name": "_vrfCoordinator",
          "type": "address"
        }
      ],
      "name": "setCoordinator",
      "outputs": [],
      "stateMutability": "nonpayable",
      "type": "function"
    },
    {
      "inputs": [
        {
          "internalType": "uint256",
          "name": "_drawTimeUTC",
          "type": "uint256"
        }
      ],
      "name": "setDrawTimeUTC",
      "outputs": [],
      "stateMutability": "nonpayable",
      "type": "function"
    },
    {
      "inputs": [
        {
          "internalType": "uint256",
          "name": "_lastDrawTime",
          "type": "uint256"
        }
      ],
      "name": "setLastDrawTime",
      "outputs": [],
      "stateMutability": "nonpayable",
      "type": "function"
    },
    {
      "inputs": [],
      "name": "subscriptionId",
      "outputs": [
        {
          "internalType": "uint256",
          "name": "",
          "type": "uint256"
        }
      ],
      "stateMutability": "view",
      "type": "function"
    },
    {
      "inputs": [
        {
          "internalType": "bytes4",
          "name": "interfaceId",
          "type": "bytes4"
        }
      ],
      "name": "supportsInterface",
      "outputs": [
        {
          "internalType": "bool",
          "name": "",
          "type": "bool"
        }
      ],
      "stateMutability": "view",
      "type": "function"
    },
    {
      "inputs": [],
      "name": "symbol",
      "outputs": [
        {
          "internalType": "string",
          "name": "",
          "type": "string"
        }
      ],
      "stateMutability": "view",
      "type": "function"
    },
    {
      "inputs": [],
      "name": "ticketCounter",
      "outputs": [
        {
          "internalType": "uint256",
          "name": "",
          "type": "uint256"
        }
      ],
      "stateMutability": "view",
      "type": "function"
    },
    {
      "inputs": [
        {
          "internalType": "uint256",
          "name": "",
          "type": "uint256"
        }
      ],
      "name": "tickets",
      "outputs": [
        {
          "internalType": "uint256",
          "name": "tokenId",
          "type": "uint256"
        },
        {
          "internalType": "address",
          "name": "ticketOwner",
          "type": "address"
        },
        {
          "internalType": "uint256",
          "name": "gameDay",
          "type": "uint256"
        },
        {
          "internalType": "bool",
          "name": "isActive",
          "type": "bool"
        },
        {
          "internalType": "uint256",
          "name": "purchaseTime",
          "type": "uint256"
        },
        {
          "internalType": "bool",
          "name": "eligibleForReserve",
          "type": "bool"
        }
      ],
      "stateMutability": "view",
      "type": "function"
    },
    {
      "inputs": [],
      "name": "toggleAutomation",
      "outputs": [],
      "stateMutability": "nonpayable",
      "type": "function"
    },
    {
      "inputs": [],
      "name": "toggleEmergencyPause",
      "outputs": [],
      "stateMutability": "nonpayable",
      "type": "function"
    },
    {
      "inputs": [
        {
          "internalType": "uint256",
          "name": "index",
          "type": "uint256"
        }
      ],
      "name": "tokenByIndex",
      "outputs": [
        {
          "internalType": "uint256",
          "name": "",
          "type": "uint256"
        }
      ],
      "stateMutability": "view",
      "type": "function"
    },
    {
      "inputs": [
        {
          "internalType": "address",
          "name": "owner",
          "type": "address"
        },
        {
          "internalType": "uint256",
          "name": "index",
          "type": "uint256"
        }
      ],
      "name": "tokenOfOwnerByIndex",
      "outputs": [
        {
          "internalType": "uint256",
          "name": "",
          "type": "uint256"
        }
      ],
      "stateMutability": "view",
      "type": "function"
    },
    {
      "inputs": [
        {
          "internalType": "uint256",
          "name": "tokenId",
          "type": "uint256"
        }
      ],
      "name": "tokenURI",
      "outputs": [
        {
          "internalType": "string",
          "name": "",
          "type": "string"
        }
      ],
      "stateMutability": "view",
      "type": "function"
    },
    {
      "inputs": [],
      "name": "totalDrawsExecuted",
      "outputs": [
        {
          "internalType": "uint256",
          "name": "",
          "type": "uint256"
        }
      ],
      "stateMutability": "view",
      "type": "function"
    },
    {
      "inputs": [],
      "name": "totalReservesProcessed",
      "outputs": [
        {
          "internalType": "uint256",
          "name": "",
          "type": "uint256"
        }
      ],
      "stateMutability": "view",
      "type": "function"
    },
    {
      "inputs": [],
      "name": "totalSupply",
      "outputs": [
        {
          "internalType": "uint256",
          "name": "",
          "type": "uint256"
        }
      ],
      "stateMutability": "view",
      "type": "function"
    },
    {
      "inputs": [
        {
          "internalType": "address",
          "name": "from",
          "type": "address"
        },
        {
          "internalType": "address",
          "name": "to",
          "type": "address"
        },
        {
          "internalType": "uint256",
          "name": "tokenId",
          "type": "uint256"
        }
      ],
      "name": "transferFrom",
      "outputs": [],
      "stateMutability": "nonpayable",
      "type": "function"
    },
    {
      "inputs": [
        {
          "internalType": "address",
          "name": "to",
          "type": "address"
        }
      ],
      "name": "transferOwnership",
      "outputs": [],
      "stateMutability": "nonpayable",
      "type": "function"
    },
    {
      "inputs": [],
      "name": "usdcToken",
      "outputs": [
        {
          "internalType": "contract IERC20",
          "name": "",
          "type": "address"
        }
      ],
      "stateMutability": "view",
      "type": "function"
    },
    {
      "inputs": [
        {
          "internalType": "address",
          "name": "",
          "type": "address"
        },
        {
          "internalType": "uint256",
          "name": "",
          "type": "uint256"
        }
      ],
      "name": "userTickets",
      "outputs": [
        {
          "internalType": "uint256",
          "name": "",
          "type": "uint256"
        }
      ],
      "stateMutability": "view",
      "type": "function"
    },
    {
      "inputs": [
        {
          "internalType": "uint8[4]",
          "name": "numbers",
          "type": "uint8[4]"
        }
      ],
      "name": "validateEmojiSelection",
      "outputs": [
        {
          "internalType": "bool",
          "name": "",
          "type": "bool"
        }
      ],
      "stateMutability": "pure",
      "type": "function"
    }
  ],
  "bytecode": "0x60e0604052612a30600e556011805462ffffff19166101011790553480156200002757600080fd5b5060405162004652380380620046528339810160408190526200004a91620002b7565b604080518082018252601081526f131bdd1d1bd35bda9a48151a58dad95d60821b602080830191909152825180840190935260058352644c4d4f4a4960d81b9083015290735c210ef41cd1a72de73bf76ec39637bb0d3d7bee3380600081620000fa5760405162461bcd60e51b815260206004820152601860248201527f43616e6e6f7420736574206f776e657220746f207a65726f000000000000000060448201526064015b60405180910390fd5b600080546001600160a01b0319166001600160a01b03848116919091179091558116156200012d576200012d81620001e5565b5050506001600160a01b038116620001585760405163d92e233d60e01b815260040160405180910390fd5b600280546001600160a01b0319166001600160a01b0392909216919091179055600160035560046200018b838262000398565b5060056200019a828262000398565b5050735c210ef41cd1a72de73bf76ec39637bb0d3d7bee608052506001600160a01b03821660a05260c0819052620001d162000290565b6010555050426020819055602155620004af565b336001600160a01b038216036200023f5760405162461bcd60e51b815260206004820152601760248201527f43616e6e6f74207472616e7366657220746f2073656c660000000000000000006044820152606401620000f1565b600180546001600160a01b0319166001600160a01b0383811691821790925560008054604051929316917fed8889f560326eb138920d842192f0eb3dd22b4f139c87a2c57538e05bae12789190a350565b600062015180600e5442620002a6919062000464565b620002b291906200048c565b905090565b60008060408385031215620002cb57600080fd5b82516001600160a01b0381168114620002e357600080fd5b6020939093015192949293505050565b634e487b7160e01b600052604160045260246000fd5b600181811c908216806200031e57607f821691505b6020821081036200033f57634e487b7160e01b600052602260045260246000fd5b50919050565b601f8211156200039357600081815260208120601f850160051c810160208610156200036e5750805b601f850160051c820191505b818110156200038f578281556001016200037a565b5050505b505050565b81516001600160401b03811115620003b457620003b4620002f3565b620003cc81620003c5845462000309565b8462000345565b602080601f831160018114620004045760008415620003eb5750858301515b600019600386901b1c1916600185901b1785556200038f565b600085815260208120601f198616915b82811015620004355788860151825594840194600190910190840162000414565b5085821015620004545787850151600019600388901b60f8161c191681555b5050505050600190811b01905550565b808201808211156200048657634e487b7160e01b600052601160045260246000fd5b92915050565b600082620004aa57634e487b7160e01b600052601260045260246000fd5b500490565b60805160a05160c051614150620005026000396000818161048201526124db0152600081816104d001528181610e0c01528181611a2f01528181611c0d0152611ccd0152600061255101526141506000f3fe608060405234801561001057600080fd5b50600436106103db5760003560e01c80635cbbd6351161020a578063a22cb46511610125578063d7098154116100b8578063e73dc02b11610087578063e73dc02b14610962578063e985e9c514610975578063f020044f14610988578063f2fde38b14610995578063ff99a063146109a857600080fd5b8063d709815414610921578063d85c156c14610934578063db2e21bc14610947578063dc85dced1461094f57600080fd5b8063c4aa7245116100f4578063c4aa7245146108e9578063c6b749e2146108f1578063c87b56dd146108fb578063cf260baf1461090e57600080fd5b8063a22cb465146108bb578063b88d4fde146108ce578063bc62b32d14610629578063c3708091146108e157600080fd5b80638c4d59d01161019d578063946fee021161016c578063946fee021461088457806395b1b4301461089757806395d89b41146108a05780639eccacf6146108a857600080fd5b80638c4d59d0146108315780638da5cb5b1461083a5780638ea981171461084b5780638f8e6f551461085e57600080fd5b806370a08231116101d957806370a08231146107c457806375172a8b146107d75780637624bb871461080457806379ba50971461082957600080fd5b80635cbbd635146107755780636352211e1461077e5780636baf4a74146107915780636e04ff0d146107a357600080fd5b8063299f91ba116102fa5780633e6968b61161028d5780634f6ccce71161025c5780634f6ccce7146106b957806350152c4c146106cc57806350b44712146106d557806351858e271461076257600080fd5b80633e6968b61461068357806342842e0e1461068b5780634585e33b1461069e5780634f687e91146106b157600080fd5b806333f0ef08116102c957806333f0ef081461062957806338cdf7cc146106315780633995326f1461063a5780633d4962ed1461067057600080fd5b8063299f91ba1461053257806329f9d9c41461053b5780632a1b43591461054e5780632f745c591461061657600080fd5b80630d50cdb9116103725780631a95f15f116103415780631a95f15f146105025780631fe543e31461050c57806323b872dd1461051f5780632599399e146104b257600080fd5b80630d50cdb9146104c257806311eac855146104cb578063147e291f146104f257806318160ddd146104fa57600080fd5b8063095ea7b3116103ae578063095ea7b31461046857806309c1ba2e1461047d5780630bc75eb3146104b25780630cbed53a146104ba57600080fd5b806301ffc9a7146103e05780630484a22f1461040857806306fdde0314610428578063081812fc1461043d575b600080fd5b6103f36103ee366004613845565b6109cc565b60405190151581526020015b60405180910390f35b61041b61041636600461387e565b6109dd565b6040516103ff9190613899565b610430610a49565b6040516103ff919061392d565b61045061044b366004613940565b610adb565b6040516001600160a01b0390911681526020016103ff565b61047b610476366004613959565b610b04565b005b6104a47f000000000000000000000000000000000000000000000000000000000000000081565b6040519081526020016103ff565b6104a4600581565b6104a4601481565b6104a460105481565b6104507f000000000000000000000000000000000000000000000000000000000000000081565b61047b610b13565b600c546104a4565b6104a462030d4081565b61047b61051a366004613983565b610b3a565b61047b61052d366004613a02565b610b8f565b6104a460215481565b61047b610549366004613940565b610c1a565b6105bd61055c366004613940565b6019602052600090815260409020805460018201546002830154600384015460048501546005860154600687015460078801546008890154600a90990154979896979596949593949293919260ff918216929091818116916101009004168b565b604080519b8c5260208c019a909a52988a01979097526060890195909552608088019390935260a087019190915260c0860152151560e085015261010084015215156101208301521515610140820152610160016103ff565b6104a4610624366004613959565b610ccd565b6104a4605081565b6104a4600e5481565b6012546013546014546015546106509392919084565b6040805194855260208501939093529183015260608201526080016103ff565b61047b61067e366004613a85565b610d32565b6104a461107d565b61047b610699366004613a02565b6110a0565b61047b6106ac366004613b13565b6110bb565b61047b611166565b6104a46106c7366004613940565b61118b565b6104a4601e5481565b6107296106e3366004613940565b601a6020526000908152604090208054600182015460038301546004840154600585015460069095015493946001600160a01b0390931693919260ff9182169290911686565b604080519687526001600160a01b03909516602087015293850192909252151560608401526080830152151560a082015260c0016103ff565b6011546103f39062010000900460ff1681565b6104a460205481565b61045061078c366004613940565b6111e4565b6011546103f390610100900460ff1681565b6107b66107b1366004613b13565b6111ef565b6040516103ff929190613b85565b6104a46107d236600461387e565b6112a2565b6016546017546018546107e992919083565b604080519384526020840192909252908201526060016103ff565b610817610812366004613940565b6112ea565b60405160ff90911681526020016103ff565b61047b611314565b6104a4601d5481565b6000546001600160a01b0316610450565b61047b61085936600461387e565b6113be565b61087161086c366004613940565b6114b0565b6040516103ff9796959493929190613bc6565b6104a4610892366004613c14565b6115d2565b6104a4601f5481565b610430611603565b600254610450906001600160a01b031681565b61047b6108c9366004613c44565b611612565b61047b6108dc366004613c7b565b61161d565b610817601981565b6104a4600a81565b6104a46201518081565b610430610909366004613940565b611634565b6104a461091c366004613959565b6117fc565b61047b61092f366004613940565b611818565b6103f3610942366004613a85565b611b3b565b61047b611b8d565b61041b61095d366004613940565b611dc8565b61047b610970366004613940565b611e28565b6103f3610983366004613d3b565b611fcb565b6011546103f39060ff1681565b61047b6109a336600461387e565b611ff9565b6109bb6109b6366004613940565b61200a565b6040516103ff959493929190613d6e565b60006109d782612111565b92915050565b6001600160a01b0381166000908152601c6020908152604091829020805483518184028101840190945280845260609392830182828015610a3d57602002820191906000526020600020905b815481526020019060010190808311610a29575b50505050509050919050565b606060048054610a5890613dab565b80601f0160208091040260200160405190810160405280929190818152602001828054610a8490613dab565b8015610ad15780601f10610aa657610100808354040283529160200191610ad1565b820191906000526020600020905b815481529060010190602001808311610ab457829003601f168201915b5050505050905090565b6000610ae682612136565b506000828152600860205260409020546001600160a01b03166109d7565b610b0f82823361216f565b5050565b610b1b61217c565b6011805462ff0000198116620100009182900460ff1615909102179055565b6002546001600160a01b03163314610b7f5760025460405163073e64fd60e21b81523360048201526001600160a01b0390911660248201526044015b60405180910390fd5b610b8a8383836121cf565b505050565b6001600160a01b038216610bb957604051633250574960e11b815260006004820152602401610b76565b6000610bc6838333612356565b9050836001600160a01b0316816001600160a01b031614610c14576040516364283d7b60e01b81526001600160a01b0380861660048301526024820184905282166044820152606401610b76565b50505050565b610c2261217c565b620151808110610c745760405162461bcd60e51b815260206004820152601c60248201527f447261772074696d65206d7573742062652077697468696e20323468000000006044820152606401610b76565b600e805490829055610c8461107d565b6010819055604080518381526020810185905280820192909252517fe6316729d2573d521dd8a5bba7255a508adebbde04ef549afa0c66db8f26429c9181900360600190a15050565b6000610cd8836112a2565b8210610d095760405163295f44f760e21b81526001600160a01b038416600482015260248101839052604401610b76565b506001600160a01b03919091166000908152600a60209081526040808320938352929052205490565b610d3a61236b565b60115460ff168015610d55575060115462010000900460ff16155b610d935760405162461bcd60e51b815260206004820152600f60248201526e47616d65206e6f742061637469766560881b6044820152606401610b76565b610d9c81611b3b565b610de85760405162461bcd60e51b815260206004820152601760248201527f496e76616c696420656d6f6a692073656c656374696f6e0000000000000000006044820152606401610b76565b6040516323b872dd60e01b815233600482015230602482015262030d4060448201527f00000000000000000000000000000000000000000000000000000000000000006001600160a01b0316906323b872dd906064016020604051808303816000875af1158015610e5d573d6000803e3d6000fd5b505050506040513d601f19601f82011682018060405250810190610e819190613de5565b610ec45760405162461bcd60e51b81526020600482015260146024820152731554d110c81d1c985b9cd9995c8819985a5b195960621b6044820152606401610b76565b6000610ece61107d565b601d80549192506000610ee083613e18565b90915550506040805160e081018252601d54808252336020808401918252838501878152606085018790526001608086018190524260a087015260c086018190526000948552601a9092529490922083518155905191810180546001600160a01b0319166001600160a01b03909316929092179091559151909190610f6b9060028301906004613769565b5060608201516003820155608082015160048201805491151560ff1992831617905560a0830151600583015560c09092015160069091018054911515919092161790556000818152601b60209081526040808320601d80548254600181810185559387528587200155338552601c84528285209054815492830182559085528385209091015583835260199091528120805462030d40929061100e908490613e31565b9091555061101d905081612395565b61102933601d54612475565b336001600160a01b0316601d547f8d638e5fab80232bf709cdd14d918285207e67414f36a090fb409fde4eb5af358484604051611067929190613e44565b60405180910390a35061107a6001600355565b50565b600062015180600e54426110919190613e31565b61109b9190613e75565b905090565b610b8a8383836040518060200160405280600081525061161d565b601154610100900460ff1680156110db575060115462010000900460ff16155b61111b5760405162461bcd60e51b8152602060048201526011602482015270105d5d1bdb585d1a5bdb881c185d5cd959607a1b6044820152606401610b76565b600061112982840184613e89565b905080801561113b575061113b61248f565b1561114857610b8a6124ac565b8015801561115957506111596125c9565b15610b8a57610b8a6125e3565b61116e61217c565b6011805461ff001981166101009182900460ff1615909102179055565b6000611196600c5490565b82106111bf5760405163295f44f760e21b81526000600482015260248101839052604401610b76565b600c82815481106111d2576111d2613ea6565b90600052602060002001549050919050565b60006109d782612136565b601154600090606090610100900460ff161580611214575060115462010000900460ff165b15611231575050604080516020810190915260008082529061129b565b61123961248f565b15611266576040805160016020820181905291015b6040516020818303038152906040529150915061129b565b61126e6125c9565b156112875760408051600060208201526001910161124e565b505060408051602081019091526000808252905b9250929050565b60006001600160a01b0382166112ce576040516322718ad960e21b815260006004820152602401610b76565b506001600160a01b031660009081526007602052604090205490565b600f81600481106112fa57600080fd5b60209182820401919006915054906101000a900460ff1681565b6001546001600160a01b031633146113675760405162461bcd60e51b815260206004820152601660248201527526bab9ba10313290383937b837b9b2b21037bbb732b960511b6044820152606401610b76565b60008054336001600160a01b0319808316821784556001805490911690556040516001600160a01b0390921692909183917f8be0079c531659141344cd1fd0a4f28419497f9722a3daafe3b4186f6b6457e091a350565b6000546001600160a01b031633148015906113e457506002546001600160a01b03163314155b1561143557336113fc6000546001600160a01b031690565b60025460405163061db9c160e01b81526001600160a01b0393841660048201529183166024830152919091166044820152606401610b76565b6001600160a01b03811661145c5760405163d92e233d60e01b815260040160405180910390fd5b600280546001600160a01b0319166001600160a01b0383169081179091556040519081527fd1a6a14209a385a964d036e404cb5cfb71f4000cdb03c9366292430787261be69060200160405180910390a150565b60006114ba6137fc565b6000838152601a60209081526040808320815160e0810183528154815260018201546001600160a01b03169381019390935281516080810180845285948594859485948594919284019160028401906004908288855b825461010083900a900460ff1681526020600192830181810494850194909303909202910180841161151057905050505050508152602001600382015481526020016004820160009054906101000a900460ff16151515158152602001600582015481526020016006820160009054906101000a900460ff161515151581525050905080602001518160400151826060015183608001518460a001518560c001516115ba8f61265e565b959f949e50929c50909a509850965090945092505050565b601b60205281600052604060002081815481106115ee57600080fd5b90600052602060002001600091509150505481565b606060058054610a5890613dab565b610b0f3383836126d8565b611628848484610b8f565b610c1484848484612777565b6000818152600660205260409020546060906001600160a01b03166116925760405162461bcd60e51b8152602060048201526014602482015273151bdad95b88191bd95cc81b9bdd08195e1a5cdd60621b6044820152606401610b76565b6000828152601a60209081526040808320815160e0810183528154815260018201546001600160a01b031693810193909352815160808101808452919284019160028401906004908288855b825461010083900a900460ff168152602060019283018181049485019490930390920291018084116116de5750505092845250505060038201546020820152600482015460ff90811615156040808401919091526005840154606084015260069093015416151560809091015281015190915060009061176790825b602002015160ff166128a0565b604083015161177790600161175a565b604084015161178790600261175a565b604085015161179790600361175a565b6040516020016117aa9493929190613ebc565b60405160208183030381529060405290506117c4846128a0565b816117d284606001516128a0565b6040516020016117e493929190613f34565b60405160208183030381529060405292505050919050565b601c60205281600052604060002081815481106115ee57600080fd5b61182061236b565b6000818152601a60205260409020600101546001600160a01b0316331461187c5760405162461bcd60e51b815260206004820152601060248201526f2737ba103a34b1b5b2ba1037bbb732b960811b6044820152606401610b76565b6000818152601a602052604090206004015460ff166118d65760405162461bcd60e51b8152602060048201526016602482015275151a58dad95d08185b1c9958591e4818db185a5b595960521b6044820152606401610b76565b6000818152601a60209081526040808320600301548084526019909252909120600a015460ff166119415760405162461bcd60e51b8152602060048201526015602482015274111c985dc81b9bdd08195e1958dd5d1959081e595d605a1b6044820152606401610b76565b600061194c8361265e565b905060028160ff1610156119a25760405162461bcd60e51b815260206004820152601860248201527f4e6f207072697a6520666f722074686973207469636b657400000000000000006044820152606401610b76565b60006119ae8483612933565b9050600081116119f55760405162461bcd60e51b81526020600482015260126024820152714e6f207072697a6520617661696c61626c6560701b6044820152606401610b76565b6000848152601a6020526040908190206004908101805460ff19169055905163a9059cbb60e01b81523391810191909152602481018290527f00000000000000000000000000000000000000000000000000000000000000006001600160a01b03169063a9059cbb906044016020604051808303816000875af1158015611a80573d6000803e3d6000fd5b505050506040513d601f19601f82011682018060405250810190611aa49190613de5565b611ae85760405162461bcd60e51b8152602060048201526015602482015274141c9a5e99481d1c985b9cd9995c8819985a5b1959605a1b6044820152606401610b76565b6040805182815260ff841660208201526000818301529051339186917f026cdcc366814fb563cebc9794374e5d7aaa2f89b43f7f7661e5439f2c89f8f79181900360600190a350505061107a6001600355565b6000805b6004811015611b84576019838260048110611b5c57611b5c613ea6565b602002015160ff1610611b725750600092915050565b80611b7c81613e18565b915050611b3f565b50600192915050565b611b9561217c565b611b9d61236b565b60115462010000900460ff16611bf55760405162461bcd60e51b815260206004820152601a60248201527f4d75737420626520696e20656d657267656e63792070617573650000000000006044820152606401610b76565b6040516370a0823160e01b81523060048201526000907f00000000000000000000000000000000000000000000000000000000000000006001600160a01b0316906370a0823190602401602060405180830381865afa158015611c5c573d6000803e3d6000fd5b505050506040513d601f19601f82011682018060405250810190611c809190613fd7565b905060008111611ccb5760405162461bcd60e51b81526020600482015260166024820152754e6f2062616c616e636520746f20776974686472617760501b6044820152606401610b76565b7f00000000000000000000000000000000000000000000000000000000000000006001600160a01b031663a9059cbb611d0c6000546001600160a01b031690565b6040516001600160e01b031960e084901b1681526001600160a01b039091166004820152602481018490526044016020604051808303816000875af1158015611d59573d6000803e3d6000fd5b505050506040513d601f19601f82011682018060405250810190611d7d9190613de5565b611dbb5760405162461bcd60e51b815260206004820152600f60248201526e151c985b9cd9995c8819985a5b1959608a1b6044820152606401610b76565b50611dc66001600355565b565b6000818152601b6020908152604091829020805483518184028101840190945280845260609392830182828015610a3d5760200282019190600052602060002090815481526020019060010190808311610a295750505050509050919050565b611e3061217c565b42811115611e795760405162461bcd60e51b815260206004820152601660248201527543616e6e6f7420736574206675747572652074696d6560501b6044820152606401610b76565b60008111611ebd5760405162461bcd60e51b81526020600482015260116024820152700496e76616c69642074696d657374616d7607c1b6044820152606401610b76565b600062015180611ecd8184613e75565b611ed79190613ff0565b9050600062015180600e5483611eed9190613e31565b611ef79190614007565b905080831480611f125750611f0f6201518082613e31565b83145b611f705760405162461bcd60e51b815260206004820152602960248201527f54696d65206d75737420616c69676e2077697468206472617754696d65555443604482015268207363686564756c6560b81b6064820152608401610b76565b6020805490849055611f8061107d565b6010819055604080518381526020810187905280820192909252517f25e8c695044b1ba4042ca7a8cb42eefaeacad184bacbd43a253f5a68b83958109181900360600190a150505050565b6001600160a01b03918216600090815260096020908152604080832093909416825291909152205460ff1690565b61200161217c565b61107a81612aa5565b60006120146137fc565b6000838152601a60209081526040808320815160e0810183528154815260018201546001600160a01b03169381019390935281516080810180845285948594859491939192908401919060028401906004908288855b825461010083900a900460ff1681526020600192830181810494850194909303909202910180841161206a575050509284525050506003820154602080830191909152600483015460ff90811615156040808501919091526005850154606080860191909152600690950154909116151560809384015290840151908401519284015191840151939450926120fe8b61265e565b939b929a50909850965090945092505050565b60006001600160e01b0319821663780e9d6360e01b14806109d757506109d782612b4e565b6000818152600660205260408120546001600160a01b0316806109d757604051637e27328960e01b815260048101849052602401610b76565b610b8a8383836001612b9e565b6000546001600160a01b03163314611dc65760405162461bcd60e51b815260206004820152601660248201527527b7363c9031b0b63630b1363290313c9037bbb732b960511b6044820152606401610b76565b6004811461221f5760405162461bcd60e51b815260206004820152601e60248201527f496e76616c6964206e756d626572206f662072616e646f6d20776f72647300006044820152606401610b76565b6122276137fc565b60005b600481101561228957601984848381811061224757612247613ea6565b90506020020135612258919061401a565b82826004811061226a5761226a613ea6565b60ff90921660209290920201528061228181613e18565b91505061222a565b50612297600f826004613769565b5042602055600060016122a861107d565b6122b29190614007565b60008181526019602052604090209091506122d290600901836004613769565b506000818152601960205260409020600a01805460ff191660011790556122f98183612ca4565b601e805490600061230983613e18565b9190505550807fe69a20bd85247c3428aec726bfa23e80608f0c3fdc4cb8b85d1cf67cfa22516283612339612f6e565b604051612347929190613e44565b60405180910390a25050505050565b6000612363848484612f9c565b949350505050565b60026003540361238e57604051633ee5aeb560e01b815260040160405180910390fd5b6002600355565b600081815260196020526040902080546064906123b490605090613ff0565b6123be9190613e75565b600182015580546064906123d490601490613ff0565b6123de9190613e75565b600282015560018101546064906123f790605090613ff0565b6124019190613e75565b6003820155600181015460649061241a90600a90613ff0565b6124249190613e75565b6004820155600181015460649061243d90600590613ff0565b6124479190613e75565b81600501819055506064600582600101546124629190613ff0565b61246c9190613e75565b60069091015550565b610b0f828260405180602001604052806000815250613069565b600080620151806020546124a39190613e31565b42101592915050565b6040805160c0810182527f9e1344a1247c8a1785d0a4681a27152bffdb43666ae5bf7d14d24a5efd44bf7181527f0000000000000000000000000000000000000000000000000000000000000000602080830191909152600382840152622625a0606083015260046080830152825190810190925260008083529160a082019061253590613080565b9052604051634d8e1c2f60e11b81529091506001600160a01b037f00000000000000000000000000000000000000000000000000000000000000001690639b1c385e9061258690849060040161402e565b6020604051808303816000875af11580156125a5573d6000803e3d6000fd5b505050506040513d601f19601f82011682018060405250810190610b0f9190613fd7565b6000610e10602154426125dc9190614007565b1015905090565b600060016125ef61107d565b6125f99190614007565b6000818152601960205260409020600a0154909150610100900460ff1615801561263457506000818152601960205260409020600a015460ff165b1561264257612642816130f1565b42602155601f805490600061265683613e18565b919050555050565b6000818152601a60209081526040808320600301548084526019909252808320815160808101928390526126d1928692600901906004908288855b825461010083900a900460ff168152602060019283018181049485019490930390920291018084116126995790505050505050613210565b9392505050565b6001600160a01b03821661270a57604051630b61174360e31b81526001600160a01b0383166004820152602401610b76565b6001600160a01b03838116600081815260096020908152604080832094871680845294825291829020805460ff191686151590811790915591519182527f17307eab39ab6107e8899845ad3d59bd9653f200f220920489ca2b5937696c31910160405180910390a3505050565b6001600160a01b0383163b15610c1457604051630a85bd0160e11b81526001600160a01b0384169063150b7a02906127b990339088908790879060040161408b565b6020604051808303816000875af19250505080156127f4575060408051601f3d908101601f191682019092526127f1918101906140c8565b60015b61285d573d808015612822576040519150601f19603f3d011682016040523d82523d6000602084013e612827565b606091505b50805160000361285557604051633250574960e11b81526001600160a01b0385166004820152602401610b76565b805181602001fd5b6001600160e01b03198116630a85bd0160e11b1461289957604051633250574960e11b81526001600160a01b0385166004820152602401610b76565b5050505050565b606060006128ad836132dc565b600101905060008167ffffffffffffffff8111156128cd576128cd613a3e565b6040519080825280601f01601f1916602001820160405280156128f7576020820181803683370190505b5090508181016020015b600019016f181899199a1a9b1b9c1cb0b131b232b360811b600a86061a8153600a850494508461290157509392505050565b6000828152601a602090815260408083206003908101548085526019845282852083516101808101855281548152600182015495810195909552600281015485850152918201546060850152600480830154608080870191909152600584015460a0870152600684015460c0870152600784015460ff16151560e087015260088401546101008701528451908101948590529194869490939261012085019290916009850191908288855b825461010083900a900460ff168152602060019283018181049485019490930390920291018084116129de57505050928452505050600a919091015460ff80821615156020840152610100909104811615156040909201919091529091508416600403612a60576012546060820151612a579190613e31565b925050506109d7565b8360ff16600303612a7d576013546080820151612a579190613e31565b8360ff16600203612a9a5760145460a0820151612a579190613e31565b506000949350505050565b336001600160a01b03821603612afd5760405162461bcd60e51b815260206004820152601760248201527f43616e6e6f74207472616e7366657220746f2073656c660000000000000000006044820152606401610b76565b600180546001600160a01b0319166001600160a01b0383811691821790925560008054604051929316917fed8889f560326eb138920d842192f0eb3dd22b4f139c87a2c57538e05bae12789190a350565b60006001600160e01b031982166380ac58cd60e01b1480612b7f57506001600160e01b03198216635b5e139f60e01b145b806109d757506301ffc9a760e01b6001600160e01b03198316146109d7565b8080612bb257506001600160a01b03821615155b15612c74576000612bc284612136565b90506001600160a01b03831615801590612bee5750826001600160a01b0316816001600160a01b031614155b8015612c015750612bff8184611fcb565b155b15612c2a5760405163a9fbf51f60e01b81526001600160a01b0384166004820152602401610b76565b8115612c725783856001600160a01b0316826001600160a01b03167f8c5be1e5ebec7d5bd14f71427d1e84f3dd0314c0f7b2291e5b200ac8c7c3b92560405160405180910390a45b505b5050600090815260086020526040902080546001600160a01b0319166001600160a01b0392909216919091179055565b6000828152601b6020908152604080832080548251818502810185019093528083529192909190830182828015612cfa57602002820191906000526020600020905b815481526020019060010190808311612ce6575b505050505090506000806000805b8451811015612d8a576000858281518110612d2557612d25613ea6565b602002602001015190506000612d3b8289613210565b90508060ff16600403612d515760019550612d75565b8060ff16600303612d655760019450612d75565b8060ff16600203612d7557600193505b50508080612d8290613e18565b915050612d08565b50600086815260196020526040902083612dc057600381015460128054600090612db5908490613e31565b90915550612e229050565b601254158015612dd1575060165415155b15612e225760168054601281905560009091556040805160018152602081019290925288917f5ca8a835db219361edcc1b27ab6e7593dcb41d1caa8ad58a3a44082acb0b5239910160405180910390a25b82612e4957600481015460138054600090612e3e908490613e31565b90915550612eab9050565b601354158015612e5a575060175415155b15612eab5760178054601381905560009091556040805160028152602081019290925288917f5ca8a835db219361edcc1b27ab6e7593dcb41d1caa8ad58a3a44082acb0b5239910160405180910390a25b81612ed257600581015460148054600090612ec7908490613e31565b90915550612f349050565b601454158015612ee3575060185415155b15612f345760188054601481905560009091556040805160038152602081019290925288917f5ca8a835db219361edcc1b27ab6e7593dcb41d1caa8ad58a3a44082acb0b5239910160405180910390a25b600681015460158054600090612f4b908490613e31565b909155505060078101805460ff1916600117905542600890910155505050505050565b6015546014546013546012546000939291612f8891613e31565b612f929190613e31565b61109b9190613e31565b600080612faa8585856133b4565b90506001600160a01b0381166130075761300284600c80546000838152600d60205260408120829055600182018355919091527fdf6966c971051c3d54ec59162606531493a51404a002842f56009d7e5cf4a8c70155565b61302a565b846001600160a01b0316816001600160a01b03161461302a5761302a81856134ad565b6001600160a01b038516613046576130418461353e565b612363565b846001600160a01b0316816001600160a01b0316146123635761236385856135ed565b613073838361363d565b610b8a6000848484612777565b60607f92fd13387c7fe7befbc38d303d6468778fb9731bc4583f17d92989c6fcfdeaaa826040516024016130b991511515815260200190565b60408051601f198184030181529190526020810180516001600160e01b03166001600160e01b03199093169290921790915292915050565b6000818152601960205260408120600281015490919060649061311690605090613ff0565b6131209190613e75565b905060006064600a84600201546131379190613ff0565b6131419190613e75565b905060006064600585600201546131589190613ff0565b6131629190613e75565b905082601660000160008282546131799190613e31565b909155505060178054839190600090613193908490613e31565b9091555050601880548291906000906131ad908490613e31565b9091555050600a8401805461ff00191661010017905560028401546040805185815260208101859052908101839052606081019190915285907fa5d2656a8dcf8630609f3f5ce778cc220baea1b2e804fbc353c4ec0bfbae10ad90608001612347565b6000828152601a60205260408082208151608081019283905283929091600201906004908285855b825461010083900a900460ff16815260206001928301818104948501949093039092029101808411613238579050505050505090506000805b60048110156132d35784816004811061328c5761328c613ea6565b602002015160ff168382600481106132a6576132a6613ea6565b602002015160ff16036132c157816132bd816140e5565b9250505b806132cb81613e18565b915050613271565b50949350505050565b60008072184f03e93ff9f4daa797ed6e38ed64bf6a1f0160401b831061331b5772184f03e93ff9f4daa797ed6e38ed64bf6a1f0160401b830492506040015b6d04ee2d6d415b85acef81000000008310613347576d04ee2d6d415b85acef8100000000830492506020015b662386f26fc10000831061336557662386f26fc10000830492506010015b6305f5e100831061337d576305f5e100830492506008015b612710831061339157612710830492506004015b606483106133a3576064830492506002015b600a83106109d75760010192915050565b6000828152600660205260408120546001600160a01b03908116908316156133e1576133e18184866136a2565b6001600160a01b0381161561341f576133fe600085600080612b9e565b6001600160a01b038116600090815260076020526040902080546000190190555b6001600160a01b0385161561344e576001600160a01b0385166000908152600760205260409020805460010190555b60008481526006602052604080822080546001600160a01b0319166001600160a01b0389811691821790925591518793918516917fddf252ad1be2c89b69c2b068fc378daa952ba7f163c4a11628f55a4df523b3ef91a4949350505050565b60006134b8836112a2565b6000838152600b602052604090205490915080821461350b576001600160a01b0384166000908152600a602090815260408083208584528252808320548484528184208190558352600b90915290208190555b506000918252600b602090815260408084208490556001600160a01b039094168352600a81528383209183525290812055565b600c5460009061355090600190614007565b6000838152600d6020526040812054600c805493945090928490811061357857613578613ea6565b9060005260206000200154905080600c838154811061359957613599613ea6565b6000918252602080832090910192909255828152600d9091526040808220849055858252812055600c8054806135d1576135d1614104565b6001900381819060005260206000200160009055905550505050565b600060016135fa846112a2565b6136049190614007565b6001600160a01b039093166000908152600a602090815260408083208684528252808320859055938252600b9052919091209190915550565b6001600160a01b03821661366757604051633250574960e11b815260006004820152602401610b76565b600061367583836000612356565b90506001600160a01b03811615610b8a576040516339e3563760e11b815260006004820152602401610b76565b6136ad838383613706565b610b8a576001600160a01b0383166136db57604051637e27328960e01b815260048101829052602401610b76565b60405163177e802f60e01b81526001600160a01b038316600482015260248101829052604401610b76565b60006001600160a01b038316158015906123635750826001600160a01b0316846001600160a01b0316148061374057506137408484611fcb565b806123635750506000908152600860205260409020546001600160a01b03908116911614919050565b6001830191839082156137ec5791602002820160005b838211156137bd57835183826101000a81548160ff021916908360ff160217905550926020019260010160208160000104928301926001030261377f565b80156137ea5782816101000a81549060ff02191690556001016020816000010492830192600103026137bd565b505b506137f892915061381a565b5090565b60405180608001604052806004906020820280368337509192915050565b5b808211156137f8576000815560010161381b565b6001600160e01b03198116811461107a57600080fd5b60006020828403121561385757600080fd5b81356126d18161382f565b80356001600160a01b038116811461387957600080fd5b919050565b60006020828403121561389057600080fd5b6126d182613862565b6020808252825182820181905260009190848201906040850190845b818110156138d1578351835292840192918401916001016138b5565b50909695505050505050565b60005b838110156138f85781810151838201526020016138e0565b50506000910152565b600081518084526139198160208601602086016138dd565b601f01601f19169290920160200192915050565b6020815260006126d16020830184613901565b60006020828403121561395257600080fd5b5035919050565b6000806040838503121561396c57600080fd5b61397583613862565b946020939093013593505050565b60008060006040848603121561399857600080fd5b83359250602084013567ffffffffffffffff808211156139b757600080fd5b818601915086601f8301126139cb57600080fd5b8135818111156139da57600080fd5b8760208260051b85010111156139ef57600080fd5b6020830194508093505050509250925092565b600080600060608486031215613a1757600080fd5b613a2084613862565b9250613a2e60208501613862565b9150604084013590509250925092565b634e487b7160e01b600052604160045260246000fd5b604051601f8201601f1916810167ffffffffffffffff81118282101715613a7d57613a7d613a3e565b604052919050565b600060808284031215613a9757600080fd5b82601f830112613aa657600080fd5b6040516080810181811067ffffffffffffffff82111715613ac957613ac9613a3e565b604052806080840185811115613ade57600080fd5b845b81811015613b0857803560ff81168114613afa5760008081fd5b835260209283019201613ae0565b509195945050505050565b60008060208385031215613b2657600080fd5b823567ffffffffffffffff80821115613b3e57600080fd5b818501915085601f830112613b5257600080fd5b813581811115613b6157600080fd5b866020828501011115613b7357600080fd5b60209290920196919550909350505050565b82151581526040602082015260006123636040830184613901565b8060005b6004811015610c1457815160ff16845260209384019390910190600101613ba4565b6001600160a01b03881681526101408101613be46020830189613ba0565b60a082019690965293151560c085015260e0840192909252151561010083015260ff166101209091015292915050565b60008060408385031215613c2757600080fd5b50508035926020909101359150565b801515811461107a57600080fd5b60008060408385031215613c5757600080fd5b613c6083613862565b91506020830135613c7081613c36565b809150509250929050565b60008060008060808587031215613c9157600080fd5b613c9a85613862565b93506020613ca9818701613862565b935060408601359250606086013567ffffffffffffffff80821115613ccd57600080fd5b818801915088601f830112613ce157600080fd5b813581811115613cf357613cf3613a3e565b613d05601f8201601f19168501613a54565b91508082528984828501011115613d1b57600080fd5b808484018584013760008482840101525080935050505092959194509250565b60008060408385031215613d4e57600080fd5b613d5783613862565b9150613d6560208401613862565b90509250929050565b6001600160a01b03861681526101008101613d8c6020830187613ba0565b60a082019490945291151560c083015260ff1660e09091015292915050565b600181811c90821680613dbf57607f821691505b602082108103613ddf57634e487b7160e01b600052602260045260246000fd5b50919050565b600060208284031215613df757600080fd5b81516126d181613c36565b634e487b7160e01b600052601160045260246000fd5b600060018201613e2a57613e2a613e02565b5060010190565b808201808211156109d7576109d7613e02565b60a08101613e528285613ba0565b8260808301529392505050565b634e487b7160e01b600052601260045260246000fd5b600082613e8457613e84613e5f565b500490565b600060208284031215613e9b57600080fd5b81356126d181613c36565b634e487b7160e01b600052603260045260246000fd5b60008551613ece818460208a016138dd565b8083019050600b60fa1b8082528651613eee816001850160208b016138dd565b600192019182018190528551613f0b816002850160208a016138dd565b60029201918201528351613f268160038401602088016138dd565b016003019695505050505050565b7f68747470733a2f2f6c6f74746f6d6f6a692e636f6d2f6170692f6d657461646181526274612f60e81b602082015260008451613f788160238501602089016138dd565b673f656d6f6a69733d60c01b6023918401918201528451613fa081602b8401602089016138dd565b682667616d654461793d60b81b602b92909101918201528351613fca8160348401602088016138dd565b0160340195945050505050565b600060208284031215613fe957600080fd5b5051919050565b80820281158282048414176109d7576109d7613e02565b818103818111156109d7576109d7613e02565b60008261402957614029613e5f565b500690565b60208152815160208201526020820151604082015261ffff60408301511660608201526000606083015163ffffffff80821660808501528060808601511660a0850152505060a083015160c08084015261236360e0840182613901565b6001600160a01b03858116825284166020820152604081018390526080606082018190526000906140be90830184613901565b9695505050505050565b6000602082840312156140da57600080fd5b81516126d18161382f565b600060ff821660ff81036140fb576140fb613e02565b60010192915050565b634e487b7160e01b600052603160045260246000fdfea26469706673582212206195eb1e6d95e2d8f4df65c67d18ad777f93828fdd33b4a76e8adb8e4a34ed5d64736f6c63430008140033",
  "linkReferences": {},
  "deployedLinkReferences": {}
}