{
  "_format": "hh-sol-artifact-1",
  "contractName": "LottoMojiCore",
  "sourceName": "contracts/LottoMojiCore.sol",
  "abi": [
    {
      "inputs": [
        {
          "internalType": "address",
          "name": "_usdcToken",
          "type": "address"
        }
      ],
      "stateMutability": "nonpayable",
      "type": "constructor"
    },
    {
      "inputs": [],
      "name": "ERC721EnumerableForbiddenBatchMint",
      "type": "error"
    },
    {
      "inputs": [
        {
          "internalType": "address",
          "name": "sender",
          "type": "address"
        },
        {
          "internalType": "uint256",
          "name": "tokenId",
          "type": "uint256"
        },
        {
          "internalType": "address",
          "name": "owner",
          "type": "address"
        }
      ],
      "name": "ERC721IncorrectOwner",
      "type": "error"
    },
    {
      "inputs": [
        {
          "internalType": "address",
          "name": "operator",
          "type": "address"
        },
        {
          "internalType": "uint256",
          "name": "tokenId",
          "type": "uint256"
        }
      ],
      "name": "ERC721InsufficientApproval",
      "type": "error"
    },
    {
      "inputs": [
        {
          "internalType": "address",
          "name": "approver",
          "type": "address"
        }
      ],
      "name": "ERC721InvalidApprover",
      "type": "error"
    },
    {
      "inputs": [
        {
          "internalType": "address",
          "name": "operator",
          "type": "address"
        }
      ],
      "name": "ERC721InvalidOperator",
      "type": "error"
    },
    {
      "inputs": [
        {
          "internalType": "address",
          "name": "owner",
          "type": "address"
        }
      ],
      "name": "ERC721InvalidOwner",
      "type": "error"
    },
    {
      "inputs": [
        {
          "internalType": "address",
          "name": "receiver",
          "type": "address"
        }
      ],
      "name": "ERC721InvalidReceiver",
      "type": "error"
    },
    {
      "inputs": [
        {
          "internalType": "address",
          "name": "sender",
          "type": "address"
        }
      ],
      "name": "ERC721InvalidSender",
      "type": "error"
    },
    {
      "inputs": [
        {
          "internalType": "uint256",
          "name": "tokenId",
          "type": "uint256"
        }
      ],
      "name": "ERC721NonexistentToken",
      "type": "error"
    },
    {
      "inputs": [
        {
          "internalType": "address",
          "name": "owner",
          "type": "address"
        },
        {
          "internalType": "uint256",
          "name": "index",
          "type": "uint256"
        }
      ],
      "name": "ERC721OutOfBoundsIndex",
      "type": "error"
    },
    {
      "inputs": [
        {
          "internalType": "address",
          "name": "have",
          "type": "address"
        },
        {
          "internalType": "address",
          "name": "want",
          "type": "address"
        }
      ],
      "name": "OnlyCoordinatorCanFulfill",
      "type": "error"
    },
    {
      "inputs": [
        {
          "internalType": "address",
          "name": "have",
          "type": "address"
        },
        {
          "internalType": "address",
          "name": "owner",
          "type": "address"
        },
        {
          "internalType": "address",
          "name": "coordinator",
          "type": "address"
        }
      ],
      "name": "OnlyOwnerOrCoordinator",
      "type": "error"
    },
    {
      "inputs": [],
      "name": "ReentrancyGuardReentrantCall",
      "type": "error"
    },
    {
      "inputs": [],
      "name": "ZeroAddress",
      "type": "error"
    },
    {
      "anonymous": false,
      "inputs": [
        {
          "indexed": true,
          "internalType": "address",
          "name": "owner",
          "type": "address"
        },
        {
          "indexed": true,
          "internalType": "address",
          "name": "approved",
          "type": "address"
        },
        {
          "indexed": true,
          "internalType": "uint256",
          "name": "tokenId",
          "type": "uint256"
        }
      ],
      "name": "Approval",
      "type": "event"
    },
    {
      "anonymous": false,
      "inputs": [
        {
          "indexed": true,
          "internalType": "address",
          "name": "owner",
          "type": "address"
        },
        {
          "indexed": true,
          "internalType": "address",
          "name": "operator",
          "type": "address"
        },
        {
          "indexed": false,
          "internalType": "bool",
          "name": "approved",
          "type": "bool"
        }
      ],
      "name": "ApprovalForAll",
      "type": "event"
    },
    {
      "anonymous": false,
      "inputs": [
        {
          "indexed": false,
          "internalType": "address",
          "name": "vrfCoordinator",
          "type": "address"
        }
      ],
      "name": "CoordinatorSet",
      "type": "event"
    },
    {
      "anonymous": false,
      "inputs": [
        {
          "indexed": true,
          "internalType": "uint256",
          "name": "gameDay",
          "type": "uint256"
        },
        {
          "indexed": false,
          "internalType": "uint256",
          "name": "firstReserveAmount",
          "type": "uint256"
        },
        {
          "indexed": false,
          "internalType": "uint256",
          "name": "secondReserveAmount",
          "type": "uint256"
        },
        {
          "indexed": false,
          "internalType": "uint256",
          "name": "thirdReserveAmount",
          "type": "uint256"
        },
        {
          "indexed": false,
          "internalType": "uint256",
          "name": "totalSent",
          "type": "uint256"
        }
      ],
      "name": "DailyReservesSent",
      "type": "event"
    },
    {
      "anonymous": false,
      "inputs": [
        {
          "indexed": true,
          "internalType": "uint256",
          "name": "gameDay",
          "type": "uint256"
        },
        {
          "indexed": false,
          "internalType": "uint8[4]",
          "name": "winningNumbers",
          "type": "uint8[4]"
        },
        {
          "indexed": false,
          "internalType": "uint256",
          "name": "totalMainPools",
          "type": "uint256"
        }
      ],
      "name": "DrawExecuted",
      "type": "event"
    },
    {
      "anonymous": false,
      "inputs": [
        {
          "indexed": false,
          "internalType": "uint256",
          "name": "oldTime",
          "type": "uint256"
        },
        {
          "indexed": false,
          "internalType": "uint256",
          "name": "newTime",
          "type": "uint256"
        },
        {
          "indexed": false,
          "internalType": "uint256",
          "name": "newGameDay",
          "type": "uint256"
        }
      ],
      "name": "DrawTimeUTCUpdated",
      "type": "event"
    },
    {
      "anonymous": false,
      "inputs": [
        {
          "indexed": false,
          "internalType": "uint256",
          "name": "oldTime",
          "type": "uint256"
        },
        {
          "indexed": false,
          "internalType": "uint256",
          "name": "newTime",
          "type": "uint256"
        },
        {
          "indexed": false,
          "internalType": "uint256",
          "name": "newGameDay",
          "type": "uint256"
        }
      ],
      "name": "LastDrawTimeUpdated",
      "type": "event"
    },
    {
      "anonymous": false,
      "inputs": [
        {
          "indexed": true,
          "internalType": "address",
          "name": "from",
          "type": "address"
        },
        {
          "indexed": true,
          "internalType": "address",
          "name": "to",
          "type": "address"
        }
      ],
      "name": "OwnershipTransferRequested",
      "type": "event"
    },
    {
      "anonymous": false,
      "inputs": [
        {
          "indexed": true,
          "internalType": "address",
          "name": "from",
          "type": "address"
        },
        {
          "indexed": true,
          "internalType": "address",
          "name": "to",
          "type": "address"
        }
      ],
      "name": "OwnershipTransferred",
      "type": "event"
    },
    {
      "anonymous": false,
      "inputs": [
        {
          "indexed": true,
          "internalType": "uint256",
          "name": "ticketId",
          "type": "uint256"
        },
        {
          "indexed": true,
          "internalType": "address",
          "name": "winner",
          "type": "address"
        },
        {
          "indexed": false,
          "internalType": "uint256",
          "name": "amount",
          "type": "uint256"
        },
        {
          "indexed": false,
          "internalType": "uint8",
          "name": "prizeLevel",
          "type": "uint8"
        },
        {
          "indexed": false,
          "internalType": "bool",
          "name": "reserveUsedForRefill",
          "type": "bool"
        }
      ],
      "name": "PrizeClaimed",
      "type": "event"
    },
    {
      "anonymous": false,
      "inputs": [
        {
          "indexed": true,
          "internalType": "uint256",
          "name": "gameDay",
          "type": "uint256"
        },
        {
          "indexed": false,
          "internalType": "uint8",
          "name": "prizeLevel",
          "type": "uint8"
        },
        {
          "indexed": false,
          "internalType": "uint256",
          "name": "amountTransferred",
          "type": "uint256"
        }
      ],
      "name": "ReserveUsedForRefill",
      "type": "event"
    },
    {
      "anonymous": false,
      "inputs": [
        {
          "indexed": true,
          "internalType": "uint256",
          "name": "ticketId",
          "type": "uint256"
        },
        {
          "indexed": true,
          "internalType": "address",
          "name": "buyer",
          "type": "address"
        },
        {
          "indexed": false,
          "internalType": "uint8[4]",
          "name": "numbers",
          "type": "uint8[4]"
        },
        {
          "indexed": false,
          "internalType": "uint256",
          "name": "gameDay",
          "type": "uint256"
        }
      ],
      "name": "TicketPurchased",
      "type": "event"
    },
    {
      "anonymous": false,
      "inputs": [
        {
          "indexed": true,
          "internalType": "address",
          "name": "from",
          "type": "address"
        },
        {
          "indexed": true,
          "internalType": "address",
          "name": "to",
          "type": "address"
        },
        {
          "indexed": true,
          "internalType": "uint256",
          "name": "tokenId",
          "type": "uint256"
        }
      ],
      "name": "Transfer",
      "type": "event"
    },
    {
      "inputs": [],
      "name": "DAILY_RESERVE_PERCENTAGE",
      "outputs": [
        {
          "internalType": "uint256",
          "name": "",
          "type": "uint256"
        }
      ],
      "stateMutability": "view",
      "type": "function"
    },
    {
      "inputs": [],
      "name": "DEVELOPMENT_PERCENTAGE",
      "outputs": [
        {
          "internalType": "uint256",
          "name": "",
          "type": "uint256"
        }
      ],
      "stateMutability": "view",
      "type": "function"
    },
    {
      "inputs": [],
      "name": "DRAW_INTERVAL",
      "outputs": [
        {
          "internalType": "uint256",
          "name": "",
          "type": "uint256"
        }
      ],
      "stateMutability": "view",
      "type": "function"
    },
    {
      "inputs": [],
      "name": "EMOJI_COUNT",
      "outputs": [
        {
          "internalType": "uint8",
          "name": "",
          "type": "uint8"
        }
      ],
      "stateMutability": "view",
      "type": "function"
    },
    {
      "inputs": [],
      "name": "FIRST_PRIZE_PERCENTAGE",
      "outputs": [
        {
          "internalType": "uint256",
          "name": "",
          "type": "uint256"
        }
      ],
      "stateMutability": "view",
      "type": "function"
    },
    {
      "inputs": [],
      "name": "MAIN_POOL_PERCENTAGE",
      "outputs": [
        {
          "internalType": "uint256",
          "name": "",
          "type": "uint256"
        }
      ],
      "stateMutability": "view",
      "type": "function"
    },
    {
      "inputs": [],
      "name": "SECOND_PRIZE_PERCENTAGE",
      "outputs": [
        {
          "internalType": "uint256",
          "name": "",
          "type": "uint256"
        }
      ],
      "stateMutability": "view",
      "type": "function"
    },
    {
      "inputs": [],
      "name": "THIRD_PRIZE_PERCENTAGE",
      "outputs": [
        {
          "internalType": "uint256",
          "name": "",
          "type": "uint256"
        }
      ],
      "stateMutability": "view",
      "type": "function"
    },
    {
      "inputs": [],
      "name": "TICKET_PRICE",
      "outputs": [
        {
          "internalType": "uint256",
          "name": "",
          "type": "uint256"
        }
      ],
      "stateMutability": "view",
      "type": "function"
    },
    {
      "inputs": [],
      "name": "acceptOwnership",
      "outputs": [],
      "stateMutability": "nonpayable",
      "type": "function"
    },
    {
      "inputs": [
        {
          "internalType": "address",
          "name": "to",
          "type": "address"
        },
        {
          "internalType": "uint256",
          "name": "tokenId",
          "type": "uint256"
        }
      ],
      "name": "approve",
      "outputs": [],
      "stateMutability": "nonpayable",
      "type": "function"
    },
    {
      "inputs": [],
      "name": "automationActive",
      "outputs": [
        {
          "internalType": "bool",
          "name": "",
          "type": "bool"
        }
      ],
      "stateMutability": "view",
      "type": "function"
    },
    {
      "inputs": [
        {
          "internalType": "address",
          "name": "owner",
          "type": "address"
        }
      ],
      "name": "balanceOf",
      "outputs": [
        {
          "internalType": "uint256",
          "name": "",
          "type": "uint256"
        }
      ],
      "stateMutability": "view",
      "type": "function"
    },
    {
      "inputs": [
        {
          "internalType": "uint8[4]",
          "name": "_numbers",
          "type": "uint8[4]"
        }
      ],
      "name": "buyTicket",
      "outputs": [],
      "stateMutability": "nonpayable",
      "type": "function"
    },
    {
      "inputs": [
        {
          "internalType": "bytes",
          "name": "",
          "type": "bytes"
        }
      ],
      "name": "checkUpkeep",
      "outputs": [
        {
          "internalType": "bool",
          "name": "upkeepNeeded",
          "type": "bool"
        },
        {
          "internalType": "bytes",
          "name": "",
          "type": "bytes"
        }
      ],
      "stateMutability": "view",
      "type": "function"
    },
    {
      "inputs": [
        {
          "internalType": "uint256",
          "name": "_ticketId",
          "type": "uint256"
        }
      ],
      "name": "claimPrize",
      "outputs": [],
      "stateMutability": "nonpayable",
      "type": "function"
    },
    {
      "inputs": [],
      "name": "currentGameDay",
      "outputs": [
        {
          "internalType": "uint256",
          "name": "",
          "type": "uint256"
        }
      ],
      "stateMutability": "view",
      "type": "function"
    },
    {
      "inputs": [
        {
          "internalType": "uint256",
          "name": "",
          "type": "uint256"
        }
      ],
      "name": "dailyPools",
      "outputs": [
        {
          "internalType": "uint256",
          "name": "totalCollected",
          "type": "uint256"
        },
        {
          "internalType": "uint256",
          "name": "mainPoolPortion",
          "type": "uint256"
        },
        {
          "internalType": "uint256",
          "name": "reservePortion",
          "type": "uint256"
        },
        {
          "internalType": "uint256",
          "name": "firstPrizeDaily",
          "type": "uint256"
        },
        {
          "internalType": "uint256",
          "name": "secondPrizeDaily",
          "type": "uint256"
        },
        {
          "internalType": "uint256",
          "name": "thirdPrizeDaily",
          "type": "uint256"
        },
        {
          "internalType": "uint256",
          "name": "developmentDaily",
          "type": "uint256"
        },
        {
          "internalType": "bool",
          "name": "distributed",
          "type": "bool"
        },
        {
          "internalType": "uint256",
          "name": "distributionTime",
          "type": "uint256"
        },
        {
          "internalType": "bool",
          "name": "drawn",
          "type": "bool"
        },
        {
          "internalType": "bool",
          "name": "reservesSent",
          "type": "bool"
        }
      ],
      "stateMutability": "view",
      "type": "function"
    },
    {
      "inputs": [],
      "name": "drawTimeUTC",
      "outputs": [
        {
          "internalType": "uint256",
          "name": "",
          "type": "uint256"
        }
      ],
      "stateMutability": "view",
      "type": "function"
    },
    {
      "inputs": [],
      "name": "emergencyPause",
      "outputs": [
        {
          "internalType": "bool",
          "name": "",
          "type": "bool"
        }
      ],
      "stateMutability": "view",
      "type": "function"
    },
    {
      "inputs": [],
      "name": "gameActive",
      "outputs": [
        {
          "internalType": "bool",
          "name": "",
          "type": "bool"
        }
      ],
      "stateMutability": "view",
      "type": "function"
    },
    {
      "inputs": [
        {
          "internalType": "uint256",
          "name": "",
          "type": "uint256"
        },
        {
          "internalType": "uint256",
          "name": "",
          "type": "uint256"
        }
      ],
      "name": "gameDayTickets",
      "outputs": [
        {
          "internalType": "uint256",
          "name": "",
          "type": "uint256"
        }
      ],
      "stateMutability": "view",
      "type": "function"
    },
    {
      "inputs": [
        {
          "internalType": "uint256",
          "name": "tokenId",
          "type": "uint256"
        }
      ],
      "name": "getApproved",
      "outputs": [
        {
          "internalType": "address",
          "name": "",
          "type": "address"
        }
      ],
      "stateMutability": "view",
      "type": "function"
    },
    {
      "inputs": [],
      "name": "getCurrentDay",
      "outputs": [
        {
          "internalType": "uint256",
          "name": "",
          "type": "uint256"
        }
      ],
      "stateMutability": "view",
      "type": "function"
    },
    {
      "inputs": [
        {
          "internalType": "uint256",
          "name": "gameDay",
          "type": "uint256"
        }
      ],
      "name": "getDailyPoolInfo",
      "outputs": [
        {
          "internalType": "uint256",
          "name": "totalCollected",
          "type": "uint256"
        },
        {
          "internalType": "uint256",
          "name": "mainPoolPortion",
          "type": "uint256"
        },
        {
          "internalType": "uint256",
          "name": "reservePortion",
          "type": "uint256"
        },
        {
          "internalType": "bool",
          "name": "distributed",
          "type": "bool"
        },
        {
          "internalType": "bool",
          "name": "drawn",
          "type": "bool"
        },
        {
          "internalType": "uint8[4]",
          "name": "winningNumbers",
          "type": "uint8[4]"
        }
      ],
      "stateMutability": "view",
      "type": "function"
    },
    {
      "inputs": [
        {
          "internalType": "uint256",
          "name": "ticketId",
          "type": "uint256"
        }
      ],
      "name": "getFullTicketInfo",
      "outputs": [
        {
          "internalType": "address",
          "name": "ticketOwner",
          "type": "address"
        },
        {
          "internalType": "uint8[4]",
          "name": "numbers",
          "type": "uint8[4]"
        },
        {
          "internalType": "uint256",
          "name": "gameDay",
          "type": "uint256"
        },
        {
          "internalType": "bool",
          "name": "isActive",
          "type": "bool"
        },
        {
          "internalType": "uint256",
          "name": "purchaseTime",
          "type": "uint256"
        },
        {
          "internalType": "bool",
          "name": "eligibleForReserve",
          "type": "bool"
        },
        {
          "internalType": "uint8",
          "name": "matches",
          "type": "uint8"
        }
      ],
      "stateMutability": "view",
      "type": "function"
    },
    {
      "inputs": [
        {
          "internalType": "uint256",
          "name": "gameDay",
          "type": "uint256"
        }
      ],
      "name": "getGameDayTickets",
      "outputs": [
        {
          "internalType": "uint256[]",
          "name": "",
          "type": "uint256[]"
        }
      ],
      "stateMutability": "view",
      "type": "function"
    },
    {
      "inputs": [],
      "name": "getMainPoolBalances",
      "outputs": [
        {
          "internalType": "uint256",
          "name": "firstPrizeAccumulated",
          "type": "uint256"
        },
        {
          "internalType": "uint256",
          "name": "secondPrizeAccumulated",
          "type": "uint256"
        },
        {
          "internalType": "uint256",
          "name": "thirdPrizeAccumulated",
          "type": "uint256"
        },
        {
          "internalType": "uint256",
          "name": "developmentAccumulated",
          "type": "uint256"
        }
      ],
      "stateMutability": "view",
      "type": "function"
    },
    {
      "inputs": [],
      "name": "getReserveBalances",
      "outputs": [
        {
          "internalType": "uint256",
          "name": "firstPrizeReserve",
          "type": "uint256"
        },
        {
          "internalType": "uint256",
          "name": "secondPrizeReserve",
          "type": "uint256"
        },
        {
          "internalType": "uint256",
          "name": "thirdPrizeReserve",
          "type": "uint256"
        }
      ],
      "stateMutability": "view",
      "type": "function"
    },
    {
      "inputs": [
        {
          "internalType": "uint256",
          "name": "ticketId",
          "type": "uint256"
        }
      ],
      "name": "getTicketInfo",
      "outputs": [
        {
          "internalType": "address",
          "name": "ticketOwner",
          "type": "address"
        },
        {
          "internalType": "uint8[4]",
          "name": "numbers",
          "type": "uint8[4]"
        },
        {
          "internalType": "uint256",
          "name": "gameDay",
          "type": "uint256"
        },
        {
          "internalType": "bool",
          "name": "isActive",
          "type": "bool"
        },
        {
          "internalType": "uint8",
          "name": "matches",
          "type": "uint8"
        }
      ],
      "stateMutability": "view",
      "type": "function"
    },
    {
      "inputs": [
        {
          "internalType": "address",
          "name": "user",
          "type": "address"
        }
      ],
      "name": "getUserTickets",
      "outputs": [
        {
          "internalType": "uint256[]",
          "name": "",
          "type": "uint256[]"
        }
      ],
      "stateMutability": "view",
      "type": "function"
    },
    {
      "inputs": [
        {
          "internalType": "address",
          "name": "owner",
          "type": "address"
        },
        {
          "internalType": "address",
          "name": "operator",
          "type": "address"
        }
      ],
      "name": "isApprovedForAll",
      "outputs": [
        {
          "internalType": "bool",
          "name": "",
          "type": "bool"
        }
      ],
      "stateMutability": "view",
      "type": "function"
    },
    {
      "inputs": [],
      "name": "lastDrawTime",
      "outputs": [
        {
          "internalType": "uint256",
          "name": "",
          "type": "uint256"
        }
      ],
      "stateMutability": "view",
      "type": "function"
    },
    {
      "inputs": [
        {
          "internalType": "uint256",
          "name": "",
          "type": "uint256"
        }
      ],
      "name": "lastWinningNumbers",
      "outputs": [
        {
          "internalType": "uint8",
          "name": "",
          "type": "uint8"
        }
      ],
      "stateMutability": "view",
      "type": "function"
    },
    {
      "inputs": [],
      "name": "mainPools",
      "outputs": [
        {
          "internalType": "uint256",
          "name": "firstPrizeAccumulated",
          "type": "uint256"
        },
        {
          "internalType": "uint256",
          "name": "secondPrizeAccumulated",
          "type": "uint256"
        },
        {
          "internalType": "uint256",
          "name": "thirdPrizeAccumulated",
          "type": "uint256"
        },
        {
          "internalType": "uint256",
          "name": "developmentAccumulated",
          "type": "uint256"
        }
      ],
      "stateMutability": "view",
      "type": "function"
    },
    {
      "inputs": [],
      "name": "name",
      "outputs": [
        {
          "internalType": "string",
          "name": "",
          "type": "string"
        }
      ],
      "stateMutability": "view",
      "type": "function"
    },
    {
      "inputs": [],
      "name": "owner",
      "outputs": [
        {
          "internalType": "address",
          "name": "",
          "type": "address"
        }
      ],
      "stateMutability": "view",
      "type": "function"
    },
    {
      "inputs": [
        {
          "internalType": "uint256",
          "name": "tokenId",
          "type": "uint256"
        }
      ],
      "name": "ownerOf",
      "outputs": [
        {
          "internalType": "address",
          "name": "",
          "type": "address"
        }
      ],
      "stateMutability": "view",
      "type": "function"
    },
    {
      "inputs": [
        {
          "internalType": "bytes",
          "name": "performData",
          "type": "bytes"
        }
      ],
      "name": "performUpkeep",
      "outputs": [],
      "stateMutability": "nonpayable",
      "type": "function"
    },
    {
      "inputs": [
        {
          "internalType": "uint256",
          "name": "requestId",
          "type": "uint256"
        },
        {
          "internalType": "uint256[]",
          "name": "randomWords",
          "type": "uint256[]"
        }
      ],
      "name": "rawFulfillRandomWords",
      "outputs": [],
      "stateMutability": "nonpayable",
      "type": "function"
    },
    {
      "inputs": [],
      "name": "reserves",
      "outputs": [
        {
          "internalType": "uint256",
          "name": "firstPrizeReserve",
          "type": "uint256"
        },
        {
          "internalType": "uint256",
          "name": "secondPrizeReserve",
          "type": "uint256"
        },
        {
          "internalType": "uint256",
          "name": "thirdPrizeReserve",
          "type": "uint256"
        }
      ],
      "stateMutability": "view",
      "type": "function"
    },
    {
      "inputs": [],
      "name": "s_vrfCoordinator",
      "outputs": [
        {
          "internalType": "contract IVRFCoordinatorV2Plus",
          "name": "",
          "type": "address"
        }
      ],
      "stateMutability": "view",
      "type": "function"
    },
    {
      "inputs": [
        {
          "internalType": "address",
          "name": "from",
          "type": "address"
        },
        {
          "internalType": "address",
          "name": "to",
          "type": "address"
        },
        {
          "internalType": "uint256",
          "name": "tokenId",
          "type": "uint256"
        }
      ],
      "name": "safeTransferFrom",
      "outputs": [],
      "stateMutability": "nonpayable",
      "type": "function"
    },
    {
      "inputs": [
        {
          "internalType": "address",
          "name": "from",
          "type": "address"
        },
        {
          "internalType": "address",
          "name": "to",
          "type": "address"
        },
        {
          "internalType": "uint256",
          "name": "tokenId",
          "type": "uint256"
        },
        {
          "internalType": "bytes",
          "name": "data",
          "type": "bytes"
        }
      ],
      "name": "safeTransferFrom",
      "outputs": [],
      "stateMutability": "nonpayable",
      "type": "function"
    },
    {
      "inputs": [
        {
          "internalType": "address",
          "name": "operator",
          "type": "address"
        },
        {
          "internalType": "bool",
          "name": "approved",
          "type": "bool"
        }
      ],
      "name": "setApprovalForAll",
      "outputs": [],
      "stateMutability": "nonpayable",
      "type": "function"
    },
    {
      "inputs": [
        {
          "internalType": "address",
          "name": "_vrfCoordinator",
          "type": "address"
        }
      ],
      "name": "setCoordinator",
      "outputs": [],
      "stateMutability": "nonpayable",
      "type": "function"
    },
    {
      "inputs": [
        {
          "internalType": "uint256",
          "name": "_hours",
          "type": "uint256"
        }
      ],
      "name": "setDrawTimeUTC",
      "outputs": [],
      "stateMutability": "nonpayable",
      "type": "function"
    },
    {
      "inputs": [
        {
          "internalType": "uint256",
          "name": "_timestamp",
          "type": "uint256"
        }
      ],
      "name": "setLastDrawTime",
      "outputs": [],
      "stateMutability": "nonpayable",
      "type": "function"
    },
    {
      "inputs": [],
      "name": "subscriptionId",
      "outputs": [
        {
          "internalType": "uint256",
          "name": "",
          "type": "uint256"
        }
      ],
      "stateMutability": "view",
      "type": "function"
    },
    {
      "inputs": [
        {
          "internalType": "bytes4",
          "name": "interfaceId",
          "type": "bytes4"
        }
      ],
      "name": "supportsInterface",
      "outputs": [
        {
          "internalType": "bool",
          "name": "",
          "type": "bool"
        }
      ],
      "stateMutability": "view",
      "type": "function"
    },
    {
      "inputs": [],
      "name": "symbol",
      "outputs": [
        {
          "internalType": "string",
          "name": "",
          "type": "string"
        }
      ],
      "stateMutability": "view",
      "type": "function"
    },
    {
      "inputs": [],
      "name": "ticketCounter",
      "outputs": [
        {
          "internalType": "uint256",
          "name": "",
          "type": "uint256"
        }
      ],
      "stateMutability": "view",
      "type": "function"
    },
    {
      "inputs": [
        {
          "internalType": "uint256",
          "name": "",
          "type": "uint256"
        }
      ],
      "name": "tickets",
      "outputs": [
        {
          "internalType": "uint256",
          "name": "tokenId",
          "type": "uint256"
        },
        {
          "internalType": "address",
          "name": "ticketOwner",
          "type": "address"
        },
        {
          "internalType": "uint256",
          "name": "gameDay",
          "type": "uint256"
        },
        {
          "internalType": "bool",
          "name": "isActive",
          "type": "bool"
        },
        {
          "internalType": "uint256",
          "name": "purchaseTime",
          "type": "uint256"
        },
        {
          "internalType": "bool",
          "name": "eligibleForReserve",
          "type": "bool"
        }
      ],
      "stateMutability": "view",
      "type": "function"
    },
    {
      "inputs": [],
      "name": "toggleAutomation",
      "outputs": [],
      "stateMutability": "nonpayable",
      "type": "function"
    },
    {
      "inputs": [],
      "name": "toggleEmergencyPause",
      "outputs": [],
      "stateMutability": "nonpayable",
      "type": "function"
    },
    {
      "inputs": [
        {
          "internalType": "uint256",
          "name": "index",
          "type": "uint256"
        }
      ],
      "name": "tokenByIndex",
      "outputs": [
        {
          "internalType": "uint256",
          "name": "",
          "type": "uint256"
        }
      ],
      "stateMutability": "view",
      "type": "function"
    },
    {
      "inputs": [
        {
          "internalType": "address",
          "name": "owner",
          "type": "address"
        },
        {
          "internalType": "uint256",
          "name": "index",
          "type": "uint256"
        }
      ],
      "name": "tokenOfOwnerByIndex",
      "outputs": [
        {
          "internalType": "uint256",
          "name": "",
          "type": "uint256"
        }
      ],
      "stateMutability": "view",
      "type": "function"
    },
    {
      "inputs": [
        {
          "internalType": "uint256",
          "name": "tokenId",
          "type": "uint256"
        }
      ],
      "name": "tokenURI",
      "outputs": [
        {
          "internalType": "string",
          "name": "",
          "type": "string"
        }
      ],
      "stateMutability": "view",
      "type": "function"
    },
    {
      "inputs": [],
      "name": "totalDrawsExecuted",
      "outputs": [
        {
          "internalType": "uint256",
          "name": "",
          "type": "uint256"
        }
      ],
      "stateMutability": "view",
      "type": "function"
    },
    {
      "inputs": [],
      "name": "totalReservesProcessed",
      "outputs": [
        {
          "internalType": "uint256",
          "name": "",
          "type": "uint256"
        }
      ],
      "stateMutability": "view",
      "type": "function"
    },
    {
      "inputs": [],
      "name": "totalSupply",
      "outputs": [
        {
          "internalType": "uint256",
          "name": "",
          "type": "uint256"
        }
      ],
      "stateMutability": "view",
      "type": "function"
    },
    {
      "inputs": [
        {
          "internalType": "address",
          "name": "from",
          "type": "address"
        },
        {
          "internalType": "address",
          "name": "to",
          "type": "address"
        },
        {
          "internalType": "uint256",
          "name": "tokenId",
          "type": "uint256"
        }
      ],
      "name": "transferFrom",
      "outputs": [],
      "stateMutability": "nonpayable",
      "type": "function"
    },
    {
      "inputs": [
        {
          "internalType": "address",
          "name": "to",
          "type": "address"
        }
      ],
      "name": "transferOwnership",
      "outputs": [],
      "stateMutability": "nonpayable",
      "type": "function"
    },
    {
      "inputs": [],
      "name": "usdcToken",
      "outputs": [
        {
          "internalType": "contract IERC20",
          "name": "",
          "type": "address"
        }
      ],
      "stateMutability": "view",
      "type": "function"
    },
    {
      "inputs": [
        {
          "internalType": "address",
          "name": "",
          "type": "address"
        },
        {
          "internalType": "uint256",
          "name": "",
          "type": "uint256"
        }
      ],
      "name": "userTickets",
      "outputs": [
        {
          "internalType": "uint256",
          "name": "",
          "type": "uint256"
        }
      ],
      "stateMutability": "view",
      "type": "function"
    },
    {
      "inputs": [
        {
          "internalType": "uint8[4]",
          "name": "numbers",
          "type": "uint8[4]"
        }
      ],
      "name": "validateEmojiSelection",
      "outputs": [
        {
          "internalType": "bool",
          "name": "",
          "type": "bool"
        }
      ],
      "stateMutability": "pure",
      "type": "function"
    }
  ],
  "bytecode": "0x60e0604052612a30600e556011805462ffffff19166101011790553480156200002757600080fd5b50604051620042e4380380620042e48339810160408190526200004a91620002d0565b604080518082018252601081526f131bdd1d1bd35bda9a48151a58dad95d60821b602080830191909152825180840190935260058352644c4d4f4a4960d81b9083015290735c210ef41cd1a72de73bf76ec39637bb0d3d7bee3380600081620000fa5760405162461bcd60e51b815260206004820152601860248201527f43616e6e6f7420736574206f776e657220746f207a65726f000000000000000060448201526064015b60405180910390fd5b600080546001600160a01b0319166001600160a01b03848116919091179091558116156200012d576200012d81620001fe565b5050506001600160a01b038116620001585760405163d92e233d60e01b815260040160405180910390fd5b600280546001600160a01b0319166001600160a01b0392909216919091179055600160035560046200018b8382620003a7565b5060056200019a8282620003a7565b5050735c210ef41cd1a72de73bf76ec39637bb0d3d7bee608052506001600160a01b03811660a0527fea4447cd4c4fbd069f3f8325aa3cd1155556a909f1d37fa272bc2102033eed4b60c052620001f0620002a9565b6010555042602055620004be565b336001600160a01b03821603620002585760405162461bcd60e51b815260206004820152601760248201527f43616e6e6f74207472616e7366657220746f2073656c660000000000000000006044820152606401620000f1565b600180546001600160a01b0319166001600160a01b0383811691821790925560008054604051929316917fed8889f560326eb138920d842192f0eb3dd22b4f139c87a2c57538e05bae12789190a350565b600062015180600e5442620002bf919062000473565b620002cb91906200049b565b905090565b600060208284031215620002e357600080fd5b81516001600160a01b0381168114620002fb57600080fd5b9392505050565b634e487b7160e01b600052604160045260246000fd5b600181811c908216806200032d57607f821691505b6020821081036200034e57634e487b7160e01b600052602260045260246000fd5b50919050565b601f821115620003a257600081815260208120601f850160051c810160208610156200037d5750805b601f850160051c820191505b818110156200039e5782815560010162000389565b5050505b505050565b81516001600160401b03811115620003c357620003c362000302565b620003db81620003d4845462000318565b8462000354565b602080601f831160018114620004135760008415620003fa5750858301515b600019600386901b1c1916600185901b1785556200039e565b600085815260208120601f198616915b82811015620004445788860151825594840194600190910190840162000423565b5085821015620004635787850151600019600388901b60f8161c191681555b5050505050600190811b01905550565b808201808211156200049557634e487b7160e01b600052601160045260246000fd5b92915050565b600082620004b957634e487b7160e01b600052601260045260246000fd5b500490565b60805160a05160c051613de1620005036000396000818161048d01526123110152600081816104db01528181610fbf0152611bce015260006123870152613de16000f3fe608060405234801561001057600080fd5b50600436106103e65760003560e01c80636352211e1161020a5780639eccacf611610125578063cf260baf116100b8578063e73dc02b11610087578063e73dc02b146109a0578063e985e9c5146109b3578063f020044f146109c6578063f2fde38b146109d3578063ff99a063146109e657600080fd5b8063cf260baf14610954578063d709815414610967578063d85c156c1461097a578063dc85dced1461098d57600080fd5b8063c3708091116100f4578063c370809114610927578063c4aa72451461092f578063c6b749e214610937578063c87b56dd1461094157600080fd5b80639eccacf6146108ee578063a22cb46514610901578063b88d4fde14610914578063bc62b32d1461065057600080fd5b80637e8abef11161019d5780638f8e6f551161016c5780638f8e6f55146108a4578063946fee02146108ca57806395b1b430146108dd57806395d89b41146108e657600080fd5b80637e8abef1146108665780638c4d59d0146108775780638da5cb5b146108805780638ea981171461089157600080fd5b806375172a8b116101d957806375172a8b146107fe5780637624bb871461082b57806377d56a041461085057806379ba50971461085e57600080fd5b80636352211e146107a55780636baf4a74146107b85780636e04ff0d146107ca57806370a08231146107eb57600080fd5b806329f9d9c4116103055780633e6968b6116102985780634f6ccce7116102675780634f6ccce7146106e057806350152c4c146106f357806350b44712146106fc57806351858e27146107895780635cbbd6351461079c57600080fd5b80633e6968b6146106aa57806342842e0e146106b25780634585e33b146106c55780634f687e91146106d857600080fd5b806333f0ef08116102d457806333f0ef081461065057806338cdf7cc146106585780633995326f146106615780633d4962ed1461069757600080fd5b806329f9d9c41461053d5780632a1b4359146105505780632a9936e1146106185780632f745c591461063d57600080fd5b80630d50cdb91161037d5780631a95f15f1161034c5780631a95f15f1461050d5780631fe543e31461051757806323b872dd1461052a5780632599399e146104bd57600080fd5b80630d50cdb9146104cd57806311eac855146104d6578063147e291f146104fd57806318160ddd1461050557600080fd5b8063095ea7b3116103b9578063095ea7b31461047357806309c1ba2e146104885780630bc75eb3146104bd5780630cbed53a146104c557600080fd5b806301ffc9a7146103eb5780630484a22f1461041357806306fdde0314610433578063081812fc14610448575b600080fd5b6103fe6103f9366004613595565b610a0a565b60405190151581526020015b60405180910390f35b6104266104213660046135ce565b610a1b565b60405161040a91906135e9565b61043b610a87565b60405161040a9190613673565b61045b610456366004613686565b610b19565b6040516001600160a01b03909116815260200161040a565b61048661048136600461369f565b610b42565b005b6104af7f000000000000000000000000000000000000000000000000000000000000000081565b60405190815260200161040a565b6104af600581565b6104af601481565b6104af60105481565b61045b7f000000000000000000000000000000000000000000000000000000000000000081565b610486610b51565b600c546104af565b6104af62030d4081565b6104866105253660046136c9565b610ba2565b610486610538366004613748565b610bf2565b61048661054b366004613686565b610c7d565b6105bf61055e366004613686565b6019602052600090815260409020805460018201546002830154600384015460048501546005860154600687015460078801546008890154600a90990154979896979596949593949293919260ff918216929091818116916101009004168b565b604080519b8c5260208c019a909a52988a01979097526060890195909552608088019390935260a087019190915260c0860152151560e0850152610100840152151561012083015215156101408201526101600161040a565b61062b610626366004613686565b610d4e565b60405161040a969594939291906137aa565b6104af61064b36600461369f565b610e80565b6104af605081565b6104af600e5481565b6012546013546014546015546106779392919084565b60408051948552602085019390935291830152606082015260800161040a565b6104866106a536600461382f565b610ee5565b6104af61122f565b6104866106c0366004613748565b611252565b6104866106d33660046138bd565b61126d565b6104866112fa565b6104af6106ee366004613686565b611340565b6104af601e5481565b61075061070a366004613686565b601a6020526000908152604090208054600182015460038301546004840154600585015460069095015493946001600160a01b0390931693919260ff9182169290911686565b604080519687526001600160a01b03909516602087015293850192909252151560608401526080830152151560a082015260c00161040a565b6011546103fe9062010000900460ff1681565b6104af60205481565b61045b6107b3366004613686565b611399565b6011546103fe90610100900460ff1681565b6107dd6107d83660046138bd565b6113a4565b60405161040a92919061392f565b6104af6107f93660046135ce565b611435565b60165460175460185461081092919083565b6040805193845260208401929092529082015260600161040a565b61083e610839366004613686565b61147d565b60405160ff909116815260200161040a565b601654601754601854610810565b6104866114a7565b601254601354601454601554610677565b6104af601d5481565b6000546001600160a01b031661045b565b61048661089f3660046135ce565b611551565b6108b76108b2366004613686565b611643565b60405161040a979695949392919061394a565b6104af6108d8366004613998565b611765565b6104af601f5481565b61043b611796565b60025461045b906001600160a01b031681565b61048661090f3660046139c8565b6117a5565b6104866109223660046139ff565b6117b0565b61083e601981565b6104af600a81565b6104af6201518081565b61043b61094f366004613686565b6117c7565b6104af61096236600461369f565b61199b565b610486610975366004613686565b6119b7565b6103fe61098836600461382f565b611cda565b61042661099b366004613686565b611d2c565b6104866109ae366004613686565b611d8c565b6103fe6109c1366004613abf565b611e09565b6011546103fe9060ff1681565b6104866109e13660046135ce565b611e37565b6109f96109f4366004613686565b611e48565b60405161040a959493929190613af2565b6000610a1582611f4f565b92915050565b6001600160a01b0381166000908152601c6020908152604091829020805483518184028101840190945280845260609392830182828015610a7b57602002820191906000526020600020905b815481526020019060010190808311610a67575b50505050509050919050565b606060048054610a9690613b2f565b80601f0160208091040260200160405190810160405280929190818152602001828054610ac290613b2f565b8015610b0f5780601f10610ae457610100808354040283529160200191610b0f565b820191906000526020600020905b815481529060010190602001808311610af257829003601f168201915b5050505050905090565b6000610b2482611f74565b506000828152600860205260409020546001600160a01b0316610a15565b610b4d828233611fad565b5050565b33301480610b5e57503332145b610b835760405162461bcd60e51b8152600401610b7a90613b69565b60405180910390fd5b6011805462ff0000198116620100009182900460ff1615909102179055565b6002546001600160a01b03163314610be25760025460405163073e64fd60e21b81523360048201526001600160a01b039091166024820152604401610b7a565b610bed838383611fba565b505050565b6001600160a01b038216610c1c57604051633250574960e11b815260006004820152602401610b7a565b6000610c29838333612141565b9050836001600160a01b0316816001600160a01b031614610c77576040516364283d7b60e01b81526001600160a01b0380861660048301526024820184905282166044820152606401610b7a565b50505050565b33301480610c8a57503332145b610ca65760405162461bcd60e51b8152600401610b7a90613b69565b60188110610ce55760405162461bcd60e51b815260206004820152600c60248201526b24b73b30b634b2103437bab960a11b6044820152606401610b7a565b600e54610cf482610e10613ba7565b600e55610cff61122f565b6010819055600e546040805184815260208101929092528101919091527fe6316729d2573d521dd8a5bba7255a508adebbde04ef549afa0c66db8f26429c906060015b60405180910390a15050565b6000806000806000610d5e6134b9565b60008781526019602090815260408083208151610180810183528154815260018201549381019390935260028101548383015260038101546060840152600480820154608080860191909152600583015460a0860152600683015460c0860152600783015460ff16151560e0860152600883015461010086015283519081019384905291926101208501929160098501918288855b825461010083900a900460ff16815260206001928301818104948501949093039092029101808411610df357505050928452505050600a919091015460ff80821615156020808501919091526101009092041615156040928301528251908301519183015160e084015161014085015161012090950151929d939c50909a50985091965090945092505050565b6000610e8b83611435565b8210610ebc5760405163295f44f760e21b81526001600160a01b038416600482015260248101839052604401610b7a565b506001600160a01b03919091166000908152600a60209081526040808320938352929052205490565b610eed612156565b60115460ff168015610f08575060115462010000900460ff16155b610f465760405162461bcd60e51b815260206004820152600f60248201526e47616d65206e6f742061637469766560881b6044820152606401610b7a565b610f4f81611cda565b610f9b5760405162461bcd60e51b815260206004820152601760248201527f496e76616c696420656d6f6a692073656c656374696f6e0000000000000000006044820152606401610b7a565b6040516323b872dd60e01b815233600482015230602482015262030d4060448201527f00000000000000000000000000000000000000000000000000000000000000006001600160a01b0316906323b872dd906064016020604051808303816000875af1158015611010573d6000803e3d6000fd5b505050506040513d601f19601f820116820180604052508101906110349190613bbe565b6110775760405162461bcd60e51b81526020600482015260146024820152731554d110c81d1c985b9cd9995c8819985a5b195960621b6044820152606401610b7a565b601d805490600061108783613bdb565b9190505550600061109661122f565b6040805160e081018252601d54808252336020808401918252838501888152606085018790526001608086018190524260a087015260c086018190526000948552601a9092529490922083518155905191810180546001600160a01b0319166001600160a01b039093169290921790915591519293509161111d90600283019060046134d7565b5060608201516003820155608082015160048201805491151560ff1992831617905560a0830151600583015560c09092015160069091018054911515919092161790556000818152601b60209081526040808320601d80548254600181810185559387528587200155338552601c84528285209054815492830182559085528385209091015583835260199091528120805462030d4092906111c0908490613bf4565b909155506111cf905081612180565b6111db33601d54612260565b336001600160a01b0316601d547f8d638e5fab80232bf709cdd14d918285207e67414f36a090fb409fde4eb5af358484604051611219929190613c07565b60405180910390a35061122c6001600355565b50565b600062015180600e54426112439190613bf4565b61124d9190613c38565b905090565b610bed838383604051806020016040528060008152506117b0565b601154610100900460ff16801561128d575060115462010000900460ff16155b6112cd5760405162461bcd60e51b8152602060048201526011602482015270105d5d1bdb585d1a5bdb881c185d5cd959607a1b6044820152606401610b7a565b60006112db82840184613c4c565b90508080156112ed57506112ed6122c5565b15610bed57610bed6122e2565b3330148061130757503332145b6113235760405162461bcd60e51b8152600401610b7a90613b69565b6011805461ff001981166101009182900460ff1615909102179055565b600061134b600c5490565b82106113745760405163295f44f760e21b81526000600482015260248101839052604401610b7a565b600c828154811061138757611387613c69565b90600052602060002001549050919050565b6000610a1582611f74565b601154600090606090610100900460ff1615806113c9575060115462010000900460ff165b156113e6575050604080516020810190915260008082529061142e565b6113ee6122c5565b1561141a576040805160016020820181905291016040516020818303038152906040529150915061142e565b505060408051602081019091526000808252905b9250929050565b60006001600160a01b038216611461576040516322718ad960e21b815260006004820152602401610b7a565b506001600160a01b031660009081526007602052604090205490565b600f816004811061148d57600080fd5b60209182820401919006915054906101000a900460ff1681565b6001546001600160a01b031633146114fa5760405162461bcd60e51b815260206004820152601660248201527526bab9ba10313290383937b837b9b2b21037bbb732b960511b6044820152606401610b7a565b60008054336001600160a01b0319808316821784556001805490911690556040516001600160a01b0390921692909183917f8be0079c531659141344cd1fd0a4f28419497f9722a3daafe3b4186f6b6457e091a350565b6000546001600160a01b0316331480159061157757506002546001600160a01b03163314155b156115c8573361158f6000546001600160a01b031690565b60025460405163061db9c160e01b81526001600160a01b0393841660048201529183166024830152919091166044820152606401610b7a565b6001600160a01b0381166115ef5760405163d92e233d60e01b815260040160405180910390fd5b600280546001600160a01b0319166001600160a01b0383169081179091556040519081527fd1a6a14209a385a964d036e404cb5cfb71f4000cdb03c9366292430787261be69060200160405180910390a150565b600061164d6134b9565b6000838152601a60209081526040808320815160e0810183528154815260018201546001600160a01b03169381019390935281516080810180845285948594859485948594919284019160028401906004908288855b825461010083900a900460ff168152602060019283018181049485019490930390920291018084116116a357905050505050508152602001600382015481526020016004820160009054906101000a900460ff16151515158152602001600582015481526020016006820160009054906101000a900460ff161515151581525050905080602001518160400151826060015183608001518460a001518560c0015161174d8f6123ff565b959f949e50929c50909a509850965090945092505050565b601b602052816000526040600020818154811061178157600080fd5b90600052602060002001600091509150505481565b606060058054610a9690613b2f565b610b4d338383612479565b6117bb848484610bf2565b610c7784848484612518565b60606000821180156117db5750601d548211155b61181e5760405162461bcd60e51b8152602060048201526014602482015273151bdad95b88191bd95cc81b9bdd08195e1a5cdd60621b6044820152606401610b7a565b6000828152601a60209081526040808320815160e0810183528154815260018201546001600160a01b031693810193909352815160808101808452919284019160028401906004908288855b825461010083900a900460ff1681526020600192830181810494850194909303909202910180841161186a57905050505091835250506003820154602080830191909152600483015460ff908116151560408085019190915260058501546060850152600690940154161515608090920191909152905191925061198491017f646174613a6170706c69636174696f6e2f6a736f6e3b6261736536342c00000081527f65794a755957316c496a6f69544739306447394e62327070494652705932746c601d8201527f64434973496d526c63324e796158423061573975496a6f69544739306447394e603d8201527f62327070494764686257556764476c6a61325630496e303d0000000000000000605d82015260750190565b604051602081830303815290604052915050919050565b601c602052816000526040600020818154811061178157600080fd5b6119bf612156565b6000818152601a60205260409020600101546001600160a01b03163314611a1b5760405162461bcd60e51b815260206004820152601060248201526f2737ba103a34b1b5b2ba1037bbb732b960811b6044820152606401610b7a565b6000818152601a602052604090206004015460ff16611a755760405162461bcd60e51b8152602060048201526016602482015275151a58dad95d08185b1c9958591e4818db185a5b595960521b6044820152606401610b7a565b6000818152601a60209081526040808320600301548084526019909252909120600a015460ff16611ae05760405162461bcd60e51b8152602060048201526015602482015274111c985dc81b9bdd08195e1958dd5d1959081e595d605a1b6044820152606401610b7a565b6000611aeb836123ff565b905060028160ff161015611b415760405162461bcd60e51b815260206004820152601860248201527f4e6f207072697a6520666f722074686973207469636b657400000000000000006044820152606401610b7a565b6000611b4d8483612641565b905060008111611b945760405162461bcd60e51b81526020600482015260126024820152714e6f207072697a6520617661696c61626c6560701b6044820152606401610b7a565b6000848152601a6020526040908190206004908101805460ff19169055905163a9059cbb60e01b81523391810191909152602481018290527f00000000000000000000000000000000000000000000000000000000000000006001600160a01b03169063a9059cbb906044016020604051808303816000875af1158015611c1f573d6000803e3d6000fd5b505050506040513d601f19601f82011682018060405250810190611c439190613bbe565b611c875760405162461bcd60e51b8152602060048201526015602482015274141c9a5e99481d1c985b9cd9995c8819985a5b1959605a1b6044820152606401610b7a565b6040805182815260ff841660208201526000818301529051339186917f026cdcc366814fb563cebc9794374e5d7aaa2f89b43f7f7661e5439f2c89f8f79181900360600190a350505061122c6001600355565b6000805b6004811015611d23576019838260048110611cfb57611cfb613c69565b602002015160ff1610611d115750600092915050565b80611d1b81613bdb565b915050611cde565b50600192915050565b6000818152601b6020908152604091829020805483518184028101840190945280845260609392830182828015610a7b5760200282019190600052602060002090815481526020019060010190808311610a675750505050509050919050565b33301480611d9957503332145b611db55760405162461bcd60e51b8152600401610b7a90613b69565b6020805490829055611dc561122f565b60108190556040805183815260208101859052908101919091527f25e8c695044b1ba4042ca7a8cb42eefaeacad184bacbd43a253f5a68b839581090606001610d42565b6001600160a01b03918216600090815260096020908152604080832093909416825291909152205460ff1690565b611e3f6127b3565b61122c81612808565b6000611e526134b9565b6000838152601a60209081526040808320815160e0810183528154815260018201546001600160a01b03169381019390935281516080810180845285948594859491939192908401919060028401906004908288855b825461010083900a900460ff16815260206001928301818104948501949093039092029101808411611ea8575050509284525050506003820154602080830191909152600483015460ff9081161515604080850191909152600585015460608086019190915260069095015490911615156080938401529084015190840151928401519184015193945092611f3c8b6123ff565b939b929a50909850965090945092505050565b60006001600160e01b0319821663780e9d6360e01b1480610a155750610a15826128b1565b6000818152600660205260408120546001600160a01b031680610a1557604051637e27328960e01b815260048101849052602401610b7a565b610bed8383836001612901565b6004811461200a5760405162461bcd60e51b815260206004820152601e60248201527f496e76616c6964206e756d626572206f662072616e646f6d20776f72647300006044820152606401610b7a565b6120126134b9565b60005b600481101561207457601984848381811061203257612032613c69565b905060200201356120439190613c7f565b82826004811061205557612055613c69565b60ff90921660209290920201528061206c81613bdb565b915050612015565b50612082600f8260046134d7565b50426020556000600161209361122f565b61209d9190613c93565b60008181526019602052604090209091506120bd906009018360046134d7565b506000818152601960205260409020600a01805460ff191660011790556120e48183612a07565b601e80549060006120f483613bdb565b9190505550807fe69a20bd85247c3428aec726bfa23e80608f0c3fdc4cb8b85d1cf67cfa22516283612124612a24565b604051612132929190613c07565b60405180910390a25050505050565b600061214e848484612a52565b949350505050565b60026003540361217957604051633ee5aeb560e01b815260040160405180910390fd5b6002600355565b6000818152601960205260409020805460649061219f90605090613ba7565b6121a99190613c38565b600182015580546064906121bf90601490613ba7565b6121c99190613c38565b600282015560018101546064906121e290605090613ba7565b6121ec9190613c38565b6003820155600181015460649061220590600a90613ba7565b61220f9190613c38565b6004820155600181015460649061222890600590613ba7565b6122329190613c38565b816005018190555060646005826001015461224d9190613ba7565b6122579190613c38565b60069091015550565b6001600160a01b03821661228a57604051633250574960e11b815260006004820152602401610b7a565b600061229883836000612141565b90506001600160a01b03811615610bed576040516339e3563760e11b815260006004820152602401610b7a565b600080620151806020546122d99190613bf4565b42101592915050565b6040805160c0810182527f9e1344a1247c8a1785d0a4681a27152bffdb43666ae5bf7d14d24a5efd44bf7181527f0000000000000000000000000000000000000000000000000000000000000000602080830191909152600382840152622625a0606083015260046080830152825190810190925260008083529160a082019061236b90612b1f565b9052604051634d8e1c2f60e11b81529091506001600160a01b037f00000000000000000000000000000000000000000000000000000000000000001690639b1c385e906123bc908490600401613ca6565b6020604051808303816000875af11580156123db573d6000803e3d6000fd5b505050506040513d601f19601f82011682018060405250810190610b4d9190613d03565b6000818152601a6020908152604080832060030154808452601990925280832081516080810192839052612472928692600901906004908288855b825461010083900a900460ff1681526020600192830181810494850194909303909202910180841161243a5790505050505050612b90565b9392505050565b6001600160a01b0382166124ab57604051630b61174360e31b81526001600160a01b0383166004820152602401610b7a565b6001600160a01b03838116600081815260096020908152604080832094871680845294825291829020805460ff191686151590811790915591519182527f17307eab39ab6107e8899845ad3d59bd9653f200f220920489ca2b5937696c31910160405180910390a3505050565b6001600160a01b0383163b15610c7757604051630a85bd0160e11b81526001600160a01b0384169063150b7a029061255a903390889087908790600401613d1c565b6020604051808303816000875af1925050508015612595575060408051601f3d908101601f1916820190925261259291810190613d59565b60015b6125fe573d8080156125c3576040519150601f19603f3d011682016040523d82523d6000602084013e6125c8565b606091505b5080516000036125f657604051633250574960e11b81526001600160a01b0385166004820152602401610b7a565b805181602001fd5b6001600160e01b03198116630a85bd0160e11b1461263a57604051633250574960e11b81526001600160a01b0385166004820152602401610b7a565b5050505050565b6000828152601a602090815260408083206003908101548085526019845282852083516101808101855281548152600182015495810195909552600281015485850152918201546060850152600480830154608080870191909152600584015460a0870152600684015460c0870152600784015460ff16151560e087015260088401546101008701528451908101948590529194869490939261012085019290916009850191908288855b825461010083900a900460ff168152602060019283018181049485019490930390920291018084116126ec57505050928452505050600a919091015460ff8082161515602084015261010090910481161515604090920191909152909150841660040361276e5760125460608201516127659190613bf4565b92505050610a15565b8360ff1660030361278b5760135460808201516127659190613bf4565b8360ff166002036127a85760145460a08201516127659190613bf4565b506000949350505050565b6000546001600160a01b031633146128065760405162461bcd60e51b815260206004820152601660248201527527b7363c9031b0b63630b1363290313c9037bbb732b960511b6044820152606401610b7a565b565b336001600160a01b038216036128605760405162461bcd60e51b815260206004820152601760248201527f43616e6e6f74207472616e7366657220746f2073656c660000000000000000006044820152606401610b7a565b600180546001600160a01b0319166001600160a01b0383811691821790925560008054604051929316917fed8889f560326eb138920d842192f0eb3dd22b4f139c87a2c57538e05bae12789190a350565b60006001600160e01b031982166380ac58cd60e01b14806128e257506001600160e01b03198216635b5e139f60e01b145b80610a1557506301ffc9a760e01b6001600160e01b0319831614610a15565b808061291557506001600160a01b03821615155b156129d757600061292584611f74565b90506001600160a01b038316158015906129515750826001600160a01b0316816001600160a01b031614155b801561296457506129628184611e09565b155b1561298d5760405163a9fbf51f60e01b81526001600160a01b0384166004820152602401610b7a565b81156129d55783856001600160a01b0316826001600160a01b03167f8c5be1e5ebec7d5bd14f71427d1e84f3dd0314c0f7b2291e5b200ac8c7c3b92560405160405180910390a45b505b5050600090815260086020526040902080546001600160a01b0319166001600160a01b0392909216919091179055565b612a1082612c5c565b612a1a8282612da4565b610b4d8282612f39565b6015546014546013546012546000939291612a3e91613bf4565b612a489190613bf4565b61124d9190613bf4565b600080612a60858585613169565b90506001600160a01b038116612abd57612ab884600c80546000838152600d60205260408120829055600182018355919091527fdf6966c971051c3d54ec59162606531493a51404a002842f56009d7e5cf4a8c70155565b612ae0565b846001600160a01b0316816001600160a01b031614612ae057612ae08185613262565b6001600160a01b038516612afc57612af7846132f3565b61214e565b846001600160a01b0316816001600160a01b03161461214e5761214e85856133a2565b60607f92fd13387c7fe7befbc38d303d6468778fb9731bc4583f17d92989c6fcfdeaaa82604051602401612b5891511515815260200190565b60408051601f198184030181529190526020810180516001600160e01b03166001600160e01b03199093169290921790915292915050565b6000828152601a60205260408082208151608081019283905283929091600201906004908285855b825461010083900a900460ff16815260206001928301818104948501949093039092029101808411612bb8579050505050505090506000805b6004811015612c5357848160048110612c0c57612c0c613c69565b602002015160ff16838260048110612c2657612c26613c69565b602002015160ff1603612c415781612c3d81613d76565b9250505b80612c4b81613bdb565b915050612bf1565b50949350505050565b6000818152601960205260409020600a810154610100900460ff1615612c80575050565b6000606460508360020154612c959190613ba7565b612c9f9190613c38565b905060006064600a8460020154612cb69190613ba7565b612cc09190613c38565b90506000606460058560020154612cd79190613ba7565b612ce19190613c38565b90508260166000016000828254612cf89190613bf4565b909155505060178054839190600090612d12908490613bf4565b909155505060188054829190600090612d2c908490613bf4565b9091555050600a8401805461ff001916610100179055601f8054906000612d5283613bdb565b909155505060028401546040805185815260208101859052908101839052606081019190915285907fa5d2656a8dcf8630609f3f5ce778cc220baea1b2e804fbc353c4ec0bfbae10ad90608001612132565b6000828152601b6020908152604080832080548251818502810185019093528083529192909190830182828015612dfa57602002820191906000526020600020905b815481526020019060010190808311612de6575b505050505090506000806000805b8451811015612e8a576000858281518110612e2557612e25613c69565b602002602001015190506000612e3b8289612b90565b90508060ff16600403612e515760019550612e75565b8060ff16600303612e655760019450612e75565b8060ff16600203612e7557600193505b50508080612e8290613bdb565b915050612e08565b50600086815260196020526040902083612ebb57600381015460128054600090612eb5908490613bf4565b90915550505b82612edd57600481015460138054600090612ed7908490613bf4565b90915550505b81612eff57600581015460148054600090612ef9908490613bf4565b90915550505b600681015460158054600090612f16908490613bf4565b909155505060078101805460ff1916600117905542600890910155505050505050565b6000828152601b6020908152604080832080548251818502810185019093528083529192909190830182828015612f8f57602002820191906000526020600020905b815481526020019060010190808311612f7b575b505050505090506000806000805b845181101561301f576000858281518110612fba57612fba613c69565b602002602001015190506000612fd08289612b90565b90508060ff16600403612fe6576001955061300a565b8060ff16600303612ffa576001945061300a565b8060ff1660020361300a57600193505b5050808061301790613bdb565b915050612f9d565b5082801561302d5750601254155b801561303a575060165415155b1561308b57601680546012819055600090915560408051600181526020810183905288917f5ca8a835db219361edcc1b27ab6e7593dcb41d1caa8ad58a3a44082acb0b5239910160405180910390a2505b8180156130985750601354155b80156130a5575060175415155b156130f657601780546013819055600090915560408051600281526020810183905288917f5ca8a835db219361edcc1b27ab6e7593dcb41d1caa8ad58a3a44082acb0b5239910160405180910390a2505b8080156131035750601454155b8015613110575060185415155b1561316157601880546014819055600090915560408051600381526020810183905288917f5ca8a835db219361edcc1b27ab6e7593dcb41d1caa8ad58a3a44082acb0b5239910160405180910390a2505b505050505050565b6000828152600660205260408120546001600160a01b0390811690831615613196576131968184866133f2565b6001600160a01b038116156131d4576131b3600085600080612901565b6001600160a01b038116600090815260076020526040902080546000190190555b6001600160a01b03851615613203576001600160a01b0385166000908152600760205260409020805460010190555b60008481526006602052604080822080546001600160a01b0319166001600160a01b0389811691821790925591518793918516917fddf252ad1be2c89b69c2b068fc378daa952ba7f163c4a11628f55a4df523b3ef91a4949350505050565b600061326d83611435565b6000838152600b60205260409020549091508082146132c0576001600160a01b0384166000908152600a602090815260408083208584528252808320548484528184208190558352600b90915290208190555b506000918252600b602090815260408084208490556001600160a01b039094168352600a81528383209183525290812055565b600c5460009061330590600190613c93565b6000838152600d6020526040812054600c805493945090928490811061332d5761332d613c69565b9060005260206000200154905080600c838154811061334e5761334e613c69565b6000918252602080832090910192909255828152600d9091526040808220849055858252812055600c80548061338657613386613d95565b6001900381819060005260206000200160009055905550505050565b600060016133af84611435565b6133b99190613c93565b6001600160a01b039093166000908152600a602090815260408083208684528252808320859055938252600b9052919091209190915550565b6133fd838383613456565b610bed576001600160a01b03831661342b57604051637e27328960e01b815260048101829052602401610b7a565b60405163177e802f60e01b81526001600160a01b038316600482015260248101829052604401610b7a565b60006001600160a01b0383161580159061214e5750826001600160a01b0316846001600160a01b0316148061349057506134908484611e09565b8061214e5750506000908152600860205260409020546001600160a01b03908116911614919050565b60405180608001604052806004906020820280368337509192915050565b60018301918390821561355a5791602002820160005b8382111561352b57835183826101000a81548160ff021916908360ff16021790555092602001926001016020816000010492830192600103026134ed565b80156135585782816101000a81549060ff021916905560010160208160000104928301926001030261352b565b505b5061356692915061356a565b5090565b5b80821115613566576000815560010161356b565b6001600160e01b03198116811461122c57600080fd5b6000602082840312156135a757600080fd5b81356124728161357f565b80356001600160a01b03811681146135c957600080fd5b919050565b6000602082840312156135e057600080fd5b612472826135b2565b6020808252825182820181905260009190848201906040850190845b8181101561362157835183529284019291840191600101613605565b50909695505050505050565b6000815180845260005b8181101561365357602081850181015186830182015201613637565b506000602082860101526020601f19601f83011685010191505092915050565b602081526000612472602083018461362d565b60006020828403121561369857600080fd5b5035919050565b600080604083850312156136b257600080fd5b6136bb836135b2565b946020939093013593505050565b6000806000604084860312156136de57600080fd5b83359250602084013567ffffffffffffffff808211156136fd57600080fd5b818601915086601f83011261371157600080fd5b81358181111561372057600080fd5b8760208260051b850101111561373557600080fd5b6020830194508093505050509250925092565b60008060006060848603121561375d57600080fd5b613766846135b2565b9250613774602085016135b2565b9150604084013590509250925092565b8060005b6004811015610c7757815160ff16845260209384019390910190600101613788565b86815260208101869052604081018590528315156060820152821515608082015261012081016137dd60a0830184613784565b979650505050505050565b634e487b7160e01b600052604160045260246000fd5b604051601f8201601f1916810167ffffffffffffffff81118282101715613827576138276137e8565b604052919050565b60006080828403121561384157600080fd5b82601f83011261385057600080fd5b6040516080810181811067ffffffffffffffff82111715613873576138736137e8565b60405280608084018581111561388857600080fd5b845b818110156138b257803560ff811681146138a45760008081fd5b83526020928301920161388a565b509195945050505050565b600080602083850312156138d057600080fd5b823567ffffffffffffffff808211156138e857600080fd5b818501915085601f8301126138fc57600080fd5b81358181111561390b57600080fd5b86602082850101111561391d57600080fd5b60209290920196919550909350505050565b821515815260406020820152600061214e604083018461362d565b6001600160a01b038816815261014081016139686020830189613784565b60a082019690965293151560c085015260e0840192909252151561010083015260ff166101209091015292915050565b600080604083850312156139ab57600080fd5b50508035926020909101359150565b801515811461122c57600080fd5b600080604083850312156139db57600080fd5b6139e4836135b2565b915060208301356139f4816139ba565b809150509250929050565b60008060008060808587031215613a1557600080fd5b613a1e856135b2565b93506020613a2d8187016135b2565b935060408601359250606086013567ffffffffffffffff80821115613a5157600080fd5b818801915088601f830112613a6557600080fd5b813581811115613a7757613a776137e8565b613a89601f8201601f191685016137fe565b91508082528984828501011115613a9f57600080fd5b808484018584013760008482840101525080935050505092959194509250565b60008060408385031215613ad257600080fd5b613adb836135b2565b9150613ae9602084016135b2565b90509250929050565b6001600160a01b03861681526101008101613b106020830187613784565b60a082019490945291151560c083015260ff1660e09091015292915050565b600181811c90821680613b4357607f821691505b602082108103613b6357634e487b7160e01b600052602260045260246000fd5b50919050565b6020808252600e908201526d139bdd08185d5d1a1bdc9a5e995960921b604082015260600190565b634e487b7160e01b600052601160045260246000fd5b8082028115828204841417610a1557610a15613b91565b600060208284031215613bd057600080fd5b8151612472816139ba565b600060018201613bed57613bed613b91565b5060010190565b80820180821115610a1557610a15613b91565b60a08101613c158285613784565b8260808301529392505050565b634e487b7160e01b600052601260045260246000fd5b600082613c4757613c47613c22565b500490565b600060208284031215613c5e57600080fd5b8135612472816139ba565b634e487b7160e01b600052603260045260246000fd5b600082613c8e57613c8e613c22565b500690565b81810381811115610a1557610a15613b91565b60208152815160208201526020820151604082015261ffff60408301511660608201526000606083015163ffffffff80821660808501528060808601511660a0850152505060a083015160c08084015261214e60e084018261362d565b600060208284031215613d1557600080fd5b5051919050565b6001600160a01b0385811682528416602082015260408101839052608060608201819052600090613d4f9083018461362d565b9695505050505050565b600060208284031215613d6b57600080fd5b81516124728161357f565b600060ff821660ff8103613d8c57613d8c613b91565b60010192915050565b634e487b7160e01b600052603160045260246000fdfea264697066735822122093ba951bf17b654aa76050252d144c1736b5b8b85ed32b9f5b0cddf69bd980b264736f6c63430008140033",
  "linkReferences": {},
  "deployedLinkReferences": {}
}