{
  "_format": "hh-sol-artifact-1",
  "contractName": "LottoMojiRandom",
  "sourceName": "contracts/LottoMojiRandom.sol",
  "abi": [
    {
      "inputs": [
        {
          "internalType": "uint64",
          "name": "_subscriptionId",
          "type": "uint64"
        },
        {
          "internalType": "address",
          "name": "_lotteryContract",
          "type": "address"
        }
      ],
      "stateMutability": "nonpayable",
      "type": "constructor"
    },
    {
      "inputs": [
        {
          "internalType": "address",
          "name": "have",
          "type": "address"
        },
        {
          "internalType": "address",
          "name": "want",
          "type": "address"
        }
      ],
      "name": "OnlyCoordinatorCanFulfill",
      "type": "error"
    },
    {
      "inputs": [
        {
          "internalType": "address",
          "name": "owner",
          "type": "address"
        }
      ],
      "name": "OwnableInvalidOwner",
      "type": "error"
    },
    {
      "inputs": [
        {
          "internalType": "address",
          "name": "account",
          "type": "address"
        }
      ],
      "name": "OwnableUnauthorizedAccount",
      "type": "error"
    },
    {
      "anonymous": false,
      "inputs": [
        {
          "indexed": true,
          "internalType": "address",
          "name": "previousOwner",
          "type": "address"
        },
        {
          "indexed": true,
          "internalType": "address",
          "name": "newOwner",
          "type": "address"
        }
      ],
      "name": "OwnershipTransferred",
      "type": "event"
    },
    {
      "anonymous": false,
      "inputs": [
        {
          "indexed": true,
          "internalType": "uint256",
          "name": "requestId",
          "type": "uint256"
        },
        {
          "indexed": true,
          "internalType": "uint256",
          "name": "gameDay",
          "type": "uint256"
        },
        {
          "indexed": false,
          "internalType": "uint8[4]",
          "name": "randomNumbers",
          "type": "uint8[4]"
        }
      ],
      "name": "RandomNumbersFulfilled",
      "type": "event"
    },
    {
      "anonymous": false,
      "inputs": [
        {
          "indexed": true,
          "internalType": "uint256",
          "name": "requestId",
          "type": "uint256"
        },
        {
          "indexed": true,
          "internalType": "uint256",
          "name": "gameDay",
          "type": "uint256"
        },
        {
          "indexed": false,
          "internalType": "address",
          "name": "requester",
          "type": "address"
        }
      ],
      "name": "RandomNumbersRequested",
      "type": "event"
    },
    {
      "anonymous": false,
      "inputs": [
        {
          "indexed": true,
          "internalType": "uint256",
          "name": "gameDay",
          "type": "uint256"
        },
        {
          "indexed": false,
          "internalType": "uint8[4]",
          "name": "winningNumbers",
          "type": "uint8[4]"
        },
        {
          "indexed": false,
          "internalType": "uint256",
          "name": "timestamp",
          "type": "uint256"
        }
      ],
      "name": "WinningNumbersGenerated",
      "type": "event"
    },
    {
      "inputs": [
        {
          "internalType": "uint256",
          "name": "gameDay",
          "type": "uint256"
        }
      ],
      "name": "areRandomNumbersReady",
      "outputs": [
        {
          "internalType": "bool",
          "name": "",
          "type": "bool"
        }
      ],
      "stateMutability": "view",
      "type": "function"
    },
    {
      "inputs": [
        {
          "internalType": "uint256",
          "name": "gameDay",
          "type": "uint256"
        }
      ],
      "name": "canRequestRandom",
      "outputs": [
        {
          "internalType": "bool",
          "name": "",
          "type": "bool"
        }
      ],
      "stateMutability": "view",
      "type": "function"
    },
    {
      "inputs": [
        {
          "internalType": "uint8[4]",
          "name": "numbers",
          "type": "uint8[4]"
        }
      ],
      "name": "emergencySetWinningNumbers",
      "outputs": [],
      "stateMutability": "nonpayable",
      "type": "function"
    },
    {
      "inputs": [
        {
          "internalType": "uint256",
          "name": "",
          "type": "uint256"
        }
      ],
      "name": "gameDayToRequestId",
      "outputs": [
        {
          "internalType": "uint256",
          "name": "",
          "type": "uint256"
        }
      ],
      "stateMutability": "view",
      "type": "function"
    },
    {
      "inputs": [],
      "name": "generateWinningNumbers",
      "outputs": [
        {
          "internalType": "uint8[4]",
          "name": "",
          "type": "uint8[4]"
        }
      ],
      "stateMutability": "view",
      "type": "function"
    },
    {
      "inputs": [],
      "name": "getLastWinningNumbers",
      "outputs": [
        {
          "internalType": "uint8[4]",
          "name": "",
          "type": "uint8[4]"
        },
        {
          "internalType": "uint256",
          "name": "",
          "type": "uint256"
        }
      ],
      "stateMutability": "view",
      "type": "function"
    },
    {
      "inputs": [
        {
          "internalType": "uint256",
          "name": "requestId",
          "type": "uint256"
        }
      ],
      "name": "getRequestHistory",
      "outputs": [
        {
          "internalType": "uint256",
          "name": "gameDay",
          "type": "uint256"
        },
        {
          "internalType": "address",
          "name": "requester",
          "type": "address"
        },
        {
          "internalType": "uint256",
          "name": "timestamp",
          "type": "uint256"
        },
        {
          "internalType": "bool",
          "name": "fulfilled",
          "type": "bool"
        },
        {
          "internalType": "uint8[4]",
          "name": "randomNumbers",
          "type": "uint8[4]"
        }
      ],
      "stateMutability": "view",
      "type": "function"
    },
    {
      "inputs": [
        {
          "internalType": "uint256",
          "name": "requestId",
          "type": "uint256"
        }
      ],
      "name": "getRequestStatus",
      "outputs": [
        {
          "internalType": "bool",
          "name": "fulfilled",
          "type": "bool"
        },
        {
          "internalType": "uint8[4]",
          "name": "randomNumbers",
          "type": "uint8[4]"
        },
        {
          "internalType": "uint256",
          "name": "gameDay",
          "type": "uint256"
        }
      ],
      "stateMutability": "view",
      "type": "function"
    },
    {
      "inputs": [],
      "name": "getTotalRequests",
      "outputs": [
        {
          "internalType": "uint256",
          "name": "",
          "type": "uint256"
        }
      ],
      "stateMutability": "view",
      "type": "function"
    },
    {
      "inputs": [],
      "name": "getVRFConfig",
      "outputs": [
        {
          "internalType": "address",
          "name": "coordinator",
          "type": "address"
        },
        {
          "internalType": "bytes32",
          "name": "keyHash",
          "type": "bytes32"
        },
        {
          "internalType": "uint64",
          "name": "subId",
          "type": "uint64"
        },
        {
          "internalType": "uint32",
          "name": "callbackGasLimit",
          "type": "uint32"
        },
        {
          "internalType": "uint16",
          "name": "requestConfirmations",
          "type": "uint16"
        }
      ],
      "stateMutability": "view",
      "type": "function"
    },
    {
      "inputs": [
        {
          "internalType": "uint256",
          "name": "gameDay",
          "type": "uint256"
        }
      ],
      "name": "getWinningNumbers",
      "outputs": [
        {
          "internalType": "uint8[4]",
          "name": "",
          "type": "uint8[4]"
        }
      ],
      "stateMutability": "view",
      "type": "function"
    },
    {
      "inputs": [],
      "name": "lastDrawTime",
      "outputs": [
        {
          "internalType": "uint256",
          "name": "",
          "type": "uint256"
        }
      ],
      "stateMutability": "view",
      "type": "function"
    },
    {
      "inputs": [],
      "name": "lastRequestId",
      "outputs": [
        {
          "internalType": "uint256",
          "name": "",
          "type": "uint256"
        }
      ],
      "stateMutability": "view",
      "type": "function"
    },
    {
      "inputs": [
        {
          "internalType": "uint256",
          "name": "",
          "type": "uint256"
        }
      ],
      "name": "lastWinningNumbers",
      "outputs": [
        {
          "internalType": "uint8",
          "name": "",
          "type": "uint8"
        }
      ],
      "stateMutability": "view",
      "type": "function"
    },
    {
      "inputs": [],
      "name": "lotteryContract",
      "outputs": [
        {
          "internalType": "address",
          "name": "",
          "type": "address"
        }
      ],
      "stateMutability": "view",
      "type": "function"
    },
    {
      "inputs": [
        {
          "internalType": "uint8[4]",
          "name": "numbers",
          "type": "uint8[4]"
        }
      ],
      "name": "numbersToEmojis",
      "outputs": [
        {
          "internalType": "string",
          "name": "",
          "type": "string"
        }
      ],
      "stateMutability": "pure",
      "type": "function"
    },
    {
      "inputs": [],
      "name": "owner",
      "outputs": [
        {
          "internalType": "address",
          "name": "",
          "type": "address"
        }
      ],
      "stateMutability": "view",
      "type": "function"
    },
    {
      "inputs": [
        {
          "internalType": "uint256",
          "name": "",
          "type": "uint256"
        }
      ],
      "name": "randomRequests",
      "outputs": [
        {
          "internalType": "uint256",
          "name": "requestId",
          "type": "uint256"
        },
        {
          "internalType": "uint256",
          "name": "gameDay",
          "type": "uint256"
        },
        {
          "internalType": "address",
          "name": "requester",
          "type": "address"
        },
        {
          "internalType": "uint256",
          "name": "timestamp",
          "type": "uint256"
        },
        {
          "internalType": "bool",
          "name": "fulfilled",
          "type": "bool"
        }
      ],
      "stateMutability": "view",
      "type": "function"
    },
    {
      "inputs": [
        {
          "internalType": "uint256",
          "name": "requestId",
          "type": "uint256"
        },
        {
          "internalType": "uint256[]",
          "name": "randomWords",
          "type": "uint256[]"
        }
      ],
      "name": "rawFulfillRandomWords",
      "outputs": [],
      "stateMutability": "nonpayable",
      "type": "function"
    },
    {
      "inputs": [],
      "name": "renounceOwnership",
      "outputs": [],
      "stateMutability": "nonpayable",
      "type": "function"
    },
    {
      "inputs": [
        {
          "internalType": "uint256",
          "name": "gameDay",
          "type": "uint256"
        }
      ],
      "name": "requestRandomNumbers",
      "outputs": [
        {
          "internalType": "uint256",
          "name": "requestId",
          "type": "uint256"
        }
      ],
      "stateMutability": "nonpayable",
      "type": "function"
    },
    {
      "inputs": [
        {
          "internalType": "uint64",
          "name": "_subscriptionId",
          "type": "uint64"
        }
      ],
      "name": "setSubscriptionId",
      "outputs": [],
      "stateMutability": "nonpayable",
      "type": "function"
    },
    {
      "inputs": [],
      "name": "subscriptionId",
      "outputs": [
        {
          "internalType": "uint64",
          "name": "",
          "type": "uint64"
        }
      ],
      "stateMutability": "view",
      "type": "function"
    },
    {
      "inputs": [
        {
          "internalType": "address",
          "name": "newOwner",
          "type": "address"
        }
      ],
      "name": "transferOwnership",
      "outputs": [],
      "stateMutability": "nonpayable",
      "type": "function"
    },
    {
      "inputs": [
        {
          "internalType": "uint8[4]",
          "name": "numbers",
          "type": "uint8[4]"
        }
      ],
      "name": "validateNumbers",
      "outputs": [
        {
          "internalType": "bool",
          "name": "",
          "type": "bool"
        }
      ],
      "stateMutability": "pure",
      "type": "function"
    }
  ],
  "bytecode": "0x60c06040523480156200001157600080fd5b5060405162001c7a38038062001c7a83398101604081905262000034916200011f565b735c210ef41cd1a72de73bf76ec39637bb0d3d7bee60805233806200007357604051631e4fbdf760e01b81526000600482015260240160405180910390fd5b6200007e81620000cf565b50600180546001600160401b03909316600160a01b026001600160e01b031990931692909217735c210ef41cd1a72de73bf76ec39637bb0d3d7bee179091556001600160a01b031660a05262000174565b600080546001600160a01b038381166001600160a01b0319831681178455604051919092169283917f8be0079c531659141344cd1fd0a4f28419497f9722a3daafe3b4186f6b6457e09190a35050565b600080604083850312156200013357600080fd5b82516001600160401b03811681146200014b57600080fd5b60208401519092506001600160a01b03811681146200016957600080fd5b809150509250929050565b60805160a051611acb620001af6000396000818161034e015281816105870152610c8901526000818161070101526107430152611acb6000f3fe608060405234801561001057600080fd5b50600436106101735760003560e01c80639d5c35ae116100de578063d0c8c17811610097578063ea7b4f7711610071578063ea7b4f771461048b578063f0e22d521461049e578063f2fde38b146104a6578063fc2a88c3146104b957600080fd5b8063d0c8c17814610435578063d6ed1ce814610456578063d8a4676f1461046957600080fd5b80639d5c35ae14610320578063ad70a5f214610333578063b29c662a14610349578063bd6752f714610370578063c602a15f14610390578063ca067ad0146103b357600080fd5b80635e894f58116101305780635e894f5814610225578063715018a6146102495780637624bb87146102515780637da8959d146102765780638da5cb5b146102895780639a5ea6a0146102ae57600080fd5b806309c1ba2e146101785780630dd37ce6146101b1578063123d435e146101c65780631fe543e3146101db5780632adcdda7146101ee5780635cbbd6351461020e575b600080fd5b60015461019390600160a01b900467ffffffffffffffff1681565b60405167ffffffffffffffff90911681526020015b60405180910390f35b6101c46101bf36600461167e565b6104c2565b005b6101ce610574565b6040516101a89190611738565b6101c46101e9366004611746565b6106f6565b6102016101fc36600461167e565b61077e565b6040516101a8919061181c565b61021760065481565b6040519081526020016101a8565b61023861023336600461184f565b610b2c565b6040516101a8959493929190611868565b6101c4610c3e565b61026461025f36600461184f565b610c52565b60405160ff90911681526020016101a8565b61021761028436600461184f565b610c7c565b6000546001600160a01b03165b6040516001600160a01b0390911681526020016101a8565b60015460408051735c210ef41cd1a72de73bf76ec39637bb0d3d7bee81527f8077df514608a09f83e4e8d300645594e5d7cd9f1e39beb9b8ebb88c6f4bb2e46020820152600160a01b90920467ffffffffffffffff169082015262030d4060608201526003608082015260a0016101a8565b6101ce61032e36600461184f565b610f2a565b61033b611053565b6040516101a89291906118a5565b6102967f000000000000000000000000000000000000000000000000000000000000000081565b61021761037e36600461184f565b60036020526000908152604090205481565b6103a361039e36600461167e565b6110b9565b60405190151581526020016101a8565b6103fd6103c136600461184f565b6002602081905260009182526040909120805460018201549282015460038301546004909301549193926001600160a01b039091169160ff1685565b6040805195865260208601949094526001600160a01b039092169284019290925260608301919091521515608082015260a0016101a8565b6103a361044336600461184f565b6000908152600360205260409020541590565b6103a361046436600461184f565b6110ca565b61047c61047736600461184f565b611104565b6040516101a8939291906118c0565b6101c46104993660046118e4565b611203565b600454610217565b6101c46104b4366004611915565b611239565b61021760045481565b6104ca611277565b6104d3816112a4565b6105165760405162461bcd60e51b815260206004820152600f60248201526e496e76616c6964206e756d6265727360881b60448201526064015b60405180910390fd5b6105236005826004611571565b5042600681905561053890620151809061196a565b7f634e12b6ef71a6009bab9756f2a54da7c22f7ddff6b00e990076d46a31ab8a4182426040516105699291906118a5565b60405180910390a250565b61057c611604565b336001600160a01b037f000000000000000000000000000000000000000000000000000000000000000016146105ec5760405162461bcd60e51b815260206004820152601560248201527413db9b1e481b1bdd1d195c9e4818dbdb9d1c9858dd605a1b604482015260640161050d565b600654156106445760408051608081019182905290600590600490826000855b825461010083900a900460ff1681526020600192830181810494850194909303909202910180841161060c5790505050505050905090565b61064c611604565b604080514260208083019190915244828401524360608084019190915233901b6bffffffffffffffffffffffff19166080830152825180830360740181526094909201909252805191012060005b60048110156106ee5760196106b082600861197e565b83901c6106bd9190611995565b8382600481106106cf576106cf6119a9565b60ff9092166020929092020152806106e6816119bf565b91505061069a565b509091505090565b336001600160a01b037f000000000000000000000000000000000000000000000000000000000000000016146107705760405163073e64fd60e21b81523360048201526001600160a01b037f000000000000000000000000000000000000000000000000000000000000000016602482015260440161050d565b61077a82826112f7565b5050565b604080516103608101825260056103208201818152644d4f4e455960d81b6103408401528252825180840184526007808252661112505353d39160ca1b60208084019190915280850192909252845180860186526006808252651493d0d2d15560d21b82850152858701919091528551808701875260048082526314d313d560e21b8286015260608088019290925287518089018952818152634449434560e01b81870152608088015287518089018952868152642527a5a2a960d91b8187015260a0880152875180890189528181526308682a6960e31b8187015260c0880152875180890189528381526554524f50485960d01b8187015260e0880152875180890189528381526515105491d15560d21b8187015261010088015287518089018952818152634649524560e01b818701526101208801528751808901895260098152684c494748544e494e4760b81b81870152610140880152875180890189528181526326a7a7a760e11b81870152610160880152875180890189528181526329aa20a960e11b818701526101808801528751808901895284815266535041524b4c4560c81b818701526101a0880152875180890189528381526543495243555360d01b818701526101c088015287518089018952600381526210549560ea1b818701526101e088015287518089018952848152662aa724a1a7a92760c91b8187015261020088015287518089018952848152665241494e424f5760c81b81870152610220880152875180890189528381526521a627ab22a960d11b8187015261024088015287518089018952848152662a2422a0aa22a960c91b8187015261026088015287518089018952928352652927a62622a960d11b83860152610280870192909252865180880188529182526347414d4560e01b828501526102a08601919091528551808701875293845264135151105360da1b848401526102c0850193909352845180860186526008815267434f4e464554544960c01b818401526102e085015284518086019095528452662120a62627a7a760c91b908401526103008201929092528251819060ff1660198110610a9e57610a9e6119a9565b602002015181846001602002015160ff1660198110610abf57610abf6119a9565b60200201516040850151839060ff1660198110610ade57610ade6119a9565b60200201516060860151849060ff1660198110610afd57610afd6119a9565b6020020151604051602001610b1594939291906119d8565b604051602081830303815290604052915050919050565b600080600080610b3a611604565b6000868152600260205260409020548614610b675760405162461bcd60e51b815260040161050d90611a50565b6000868152600260208181526040808420815160c08101835281548152600182015493810193909352928301546001600160a01b0316828201526003830154606083015260048084015460ff16151560808085019190915282519081019283905292939260a0850192909160058501918288855b825461010083900a900460ff16815260206001928301818104948501949093039092029101808411610bdb575050509290935250505050602081015160408201516060830151608084015160a090940151929b919a509850919650945092505050565b610c46611277565b610c506000611521565b565b60058160048110610c6257600080fd5b60209182820401919006915054906101000a900460ff1681565b6000336001600160a01b037f00000000000000000000000000000000000000000000000000000000000000001614610cee5760405162461bcd60e51b815260206004820152601560248201527413db9b1e481b1bdd1d195c9e4818dbdb9d1c9858dd605a1b604482015260640161050d565b60008281526003602052604090205415610d565760405162461bcd60e51b815260206004820152602360248201527f416c72656164792072657175657374656420666f7220746869732067616d652060448201526264617960e81b606482015260840161050d565b6001546040516305d3b1d360e41b81527f8077df514608a09f83e4e8d300645594e5d7cd9f1e39beb9b8ebb88c6f4bb2e4600480830191909152600160a01b830467ffffffffffffffff1660248301526003604483015262030d40606483015260848201526001600160a01b0390911690635d3b1d309060a4016020604051808303816000875af1158015610def573d6000803e3d6000fd5b505050506040513d601f19601f82011682018060405250810190610e139190611a7c565b6040805160c0810182528281526020808201868152338385019081524260608086019182526000608080880182815289519182018a52828252818801839052818a0183905292810182905260a088019081528982526002968790529790208651815593516001850155915193830180546001600160a01b0319166001600160a01b03909516949094179093559151600382015590516004808301805460ff191692151592909217909155925193945090929091610ed4916005840191611571565b50505060008281526003602090815260409182902083905560048390559051338152839183917fb43b56922ed2a3a315ea19f6f316912d3ca93fe716ffcdd943f5729ca7b0c9b1910160405180910390a3919050565b610f32611604565b60008281526003602052604081205490819003610f915760405162461bcd60e51b815260206004820152601c60248201527f4e6f207265717565737420666f7220746869732067616d652064617900000000604482015260640161050d565b60008181526002602052604090206004015460ff16610ff25760405162461bcd60e51b815260206004820181905260248201527f52616e646f6d206e756d62657273206e6f742066756c66696c6c656420796574604482015260640161050d565b60008181526002602052604080822081516080810192839052926005909101916004918390855b825461010083900a900460ff1681526020600192830181810494850194909303909202910180841161101957509498975050505050505050565b61105b611604565b60065460408051608081019182905260009260059290919083906004908287855b825461010083900a900460ff1681526020600192830181810494850194909303909202910180841161107c57905050505050509150915091509091565b60006110c4826112a4565b92915050565b6000818152600360205260408120548082036110e95750600092915050565b60009081526002602052604090206004015460ff1692915050565b600061110e611604565b600083815260026020526040812054841461113b5760405162461bcd60e51b815260040161050d90611a50565b6000848152600260208181526040808420815160c08101835281548152600182015493810193909352928301546001600160a01b0316828201526003830154606083015260048084015460ff16151560808085019190915282519081019283905292939260a0850192909160058501918288855b825461010083900a900460ff168152602060019283018181049485019490930390920291018084116111af575050509290935250505050608081015160a08201516020909201519097919650945092505050565b61120b611277565b6001805467ffffffffffffffff909216600160a01b0267ffffffffffffffff60a01b19909216919091179055565b611241611277565b6001600160a01b03811661126b57604051631e4fbdf760e01b81526000600482015260240161050d565b61127481611521565b50565b6000546001600160a01b03163314610c505760405163118cdaa760e01b815233600482015260240161050d565b6000805b60048110156112ee5760188382600481106112c5576112c56119a9565b602002015160ff1611156112dc5750600092915050565b806112e6816119bf565b9150506112a8565b50600192915050565b60008281526002602052604090205482146113245760405162461bcd60e51b815260040161050d90611a50565b60008281526002602052604090206004015460ff16156113865760405162461bcd60e51b815260206004820152601960248201527f5265717565737420616c72656164792066756c66696c6c656400000000000000604482015260640161050d565b80516004146113d75760405162461bcd60e51b815260206004820152601e60248201527f496e76616c6964206e756d626572206f662072616e646f6d20776f7264730000604482015260640161050d565b6113df611604565b60005b60048110156114425760198382815181106113ff576113ff6119a9565b60200260200101516114119190611995565b828260048110611423576114236119a9565b60ff90921660209290920201528061143a816119bf565b9150506113e2565b50600083815260026020526040902061146090600501826004611571565b5060008381526002602052604090206004908101805460ff1916600117905561148d906005908390611571565b504260065560008381526002602052604090819020600101549051819085907f15d5ec9fa1cfa9d2a12369c27819f056d9f211dfcc2903d8f5efe3b8a822e69c906114d9908690611738565b60405180910390a3807f634e12b6ef71a6009bab9756f2a54da7c22f7ddff6b00e990076d46a31ab8a4183426040516115139291906118a5565b60405180910390a250505050565b600080546001600160a01b038381166001600160a01b0319831681178455604051919092169283917f8be0079c531659141344cd1fd0a4f28419497f9722a3daafe3b4186f6b6457e09190a35050565b6001830191839082156115f45791602002820160005b838211156115c557835183826101000a81548160ff021916908360ff1602179055509260200192600101602081600001049283019260010302611587565b80156115f25782816101000a81549060ff02191690556001016020816000010492830192600103026115c5565b505b50611600929150611622565b5090565b60405180608001604052806004906020820280368337509192915050565b5b808211156116005760008155600101611623565b634e487b7160e01b600052604160045260246000fd5b604051601f8201601f1916810167ffffffffffffffff8111828210171561167657611676611637565b604052919050565b60006080828403121561169057600080fd5b82601f83011261169f57600080fd5b6040516080810181811067ffffffffffffffff821117156116c2576116c2611637565b6040528060808401858111156116d757600080fd5b845b8181101561170157803560ff811681146116f35760008081fd5b8352602092830192016116d9565b509195945050505050565b8060005b600481101561173257815160ff16845260209384019390910190600101611710565b50505050565b608081016110c4828461170c565b6000806040838503121561175957600080fd5b8235915060208084013567ffffffffffffffff8082111561177957600080fd5b818601915086601f83011261178d57600080fd5b81358181111561179f5761179f611637565b8060051b91506117b084830161164d565b81815291830184019184810190898411156117ca57600080fd5b938501935b838510156117e8578435825293850193908501906117cf565b8096505050505050509250929050565b60005b838110156118135781810151838201526020016117fb565b50506000910152565b602081526000825180602084015261183b8160408501602087016117f8565b601f01601f19169190910160400192915050565b60006020828403121561186157600080fd5b5035919050565b8581526001600160a01b0385166020820152604081018490528215156060820152610100810161189b608083018461170c565b9695505050505050565b60a081016118b3828561170c565b8260808301529392505050565b831515815260c081016118d6602083018561170c565b8260a0830152949350505050565b6000602082840312156118f657600080fd5b813567ffffffffffffffff8116811461190e57600080fd5b9392505050565b60006020828403121561192757600080fd5b81356001600160a01b038116811461190e57600080fd5b634e487b7160e01b600052601260045260246000fd5b634e487b7160e01b600052601160045260246000fd5b6000826119795761197961193e565b500490565b80820281158282048414176110c4576110c4611954565b6000826119a4576119a461193e565b500690565b634e487b7160e01b600052603260045260246000fd5b6000600182016119d1576119d1611954565b5060010190565b600085516119ea818460208a016117f8565b8083019050600160fd1b8082528651611a0a816001850160208b016117f8565b600192019182018190528551611a27816002850160208a016117f8565b60029201918201528351611a428160038401602088016117f8565b016003019695505050505050565b602080825260129082015271125b9d985b1a59081c995c5d595cdd08125160721b604082015260600190565b600060208284031215611a8e57600080fd5b505191905056fea26469706673582212201673a5784999edacd3af804bf911f87ad48c7243eda826ad29168cd248d50a7864736f6c63430008140033",
  "linkReferences": {},
  "deployedLinkReferences": {}
}