{
  "_format": "hh-sol-artifact-1",
  "contractName": "LottoMojiReserves",
  "sourceName": "contracts/LottoMojiReserves.sol",
  "abi": [
    {
      "inputs": [
        {
          "internalType": "address",
          "name": "_usdcToken",
          "type": "address"
        },
        {
          "internalType": "address",
          "name": "_lotteryContract",
          "type": "address"
        }
      ],
      "stateMutability": "nonpayable",
      "type": "constructor"
    },
    {
      "inputs": [
        {
          "internalType": "address",
          "name": "owner",
          "type": "address"
        }
      ],
      "name": "OwnableInvalidOwner",
      "type": "error"
    },
    {
      "inputs": [
        {
          "internalType": "address",
          "name": "account",
          "type": "address"
        }
      ],
      "name": "OwnableUnauthorizedAccount",
      "type": "error"
    },
    {
      "inputs": [],
      "name": "ReentrancyGuardReentrantCall",
      "type": "error"
    },
    {
      "anonymous": false,
      "inputs": [
        {
          "indexed": true,
          "internalType": "uint256",
          "name": "gameDay",
          "type": "uint256"
        },
        {
          "indexed": false,
          "internalType": "uint256",
          "name": "firstAmount",
          "type": "uint256"
        },
        {
          "indexed": false,
          "internalType": "uint256",
          "name": "secondAmount",
          "type": "uint256"
        },
        {
          "indexed": false,
          "internalType": "uint256",
          "name": "thirdAmount",
          "type": "uint256"
        },
        {
          "indexed": false,
          "internalType": "uint256",
          "name": "totalAmount",
          "type": "uint256"
        }
      ],
      "name": "DailyReservesReceived",
      "type": "event"
    },
    {
      "anonymous": false,
      "inputs": [
        {
          "indexed": true,
          "internalType": "address",
          "name": "previousOwner",
          "type": "address"
        },
        {
          "indexed": true,
          "internalType": "address",
          "name": "newOwner",
          "type": "address"
        }
      ],
      "name": "OwnershipTransferred",
      "type": "event"
    },
    {
      "anonymous": false,
      "inputs": [
        {
          "indexed": false,
          "internalType": "uint256",
          "name": "totalReceived",
          "type": "uint256"
        },
        {
          "indexed": false,
          "internalType": "uint256",
          "name": "totalUsedForRefills",
          "type": "uint256"
        },
        {
          "indexed": false,
          "internalType": "uint256",
          "name": "currentTotalReserves",
          "type": "uint256"
        }
      ],
      "name": "ReserveStatisticsUpdated",
      "type": "event"
    },
    {
      "anonymous": false,
      "inputs": [
        {
          "indexed": true,
          "internalType": "uint8",
          "name": "prizeLevel",
          "type": "uint8"
        },
        {
          "indexed": false,
          "internalType": "uint256",
          "name": "amountUsed",
          "type": "uint256"
        },
        {
          "indexed": false,
          "internalType": "uint256",
          "name": "remainingReserve",
          "type": "uint256"
        },
        {
          "indexed": false,
          "internalType": "uint256",
          "name": "gameDay",
          "type": "uint256"
        }
      ],
      "name": "ReserveUsedForRefill",
      "type": "event"
    },
    {
      "inputs": [],
      "name": "DAILY_RESERVE_PERCENTAGE",
      "outputs": [
        {
          "internalType": "uint256",
          "name": "",
          "type": "uint256"
        }
      ],
      "stateMutability": "view",
      "type": "function"
    },
    {
      "inputs": [
        {
          "internalType": "uint8",
          "name": "prizeLevel",
          "type": "uint8"
        },
        {
          "internalType": "uint256",
          "name": "amount",
          "type": "uint256"
        }
      ],
      "name": "canCoverAmount",
      "outputs": [
        {
          "internalType": "bool",
          "name": "",
          "type": "bool"
        }
      ],
      "stateMutability": "view",
      "type": "function"
    },
    {
      "inputs": [
        {
          "internalType": "uint256",
          "name": "",
          "type": "uint256"
        }
      ],
      "name": "dailyContributions",
      "outputs": [
        {
          "internalType": "uint256",
          "name": "gameDay",
          "type": "uint256"
        },
        {
          "internalType": "uint256",
          "name": "firstContribution",
          "type": "uint256"
        },
        {
          "internalType": "uint256",
          "name": "secondContribution",
          "type": "uint256"
        },
        {
          "internalType": "uint256",
          "name": "thirdContribution",
          "type": "uint256"
        },
        {
          "internalType": "uint256",
          "name": "totalContribution",
          "type": "uint256"
        },
        {
          "internalType": "uint256",
          "name": "timestamp",
          "type": "uint256"
        }
      ],
      "stateMutability": "view",
      "type": "function"
    },
    {
      "inputs": [],
      "name": "emergencyWithdrawReserves",
      "outputs": [],
      "stateMutability": "nonpayable",
      "type": "function"
    },
    {
      "inputs": [],
      "name": "getAllReserves",
      "outputs": [
        {
          "internalType": "uint256",
          "name": "firstReserve",
          "type": "uint256"
        },
        {
          "internalType": "uint256",
          "name": "secondReserve",
          "type": "uint256"
        },
        {
          "internalType": "uint256",
          "name": "thirdReserve",
          "type": "uint256"
        },
        {
          "internalType": "uint256",
          "name": "totalReserves",
          "type": "uint256"
        }
      ],
      "stateMutability": "view",
      "type": "function"
    },
    {
      "inputs": [
        {
          "internalType": "uint256",
          "name": "gameDay",
          "type": "uint256"
        }
      ],
      "name": "getDailyContribution",
      "outputs": [
        {
          "components": [
            {
              "internalType": "uint256",
              "name": "gameDay",
              "type": "uint256"
            },
            {
              "internalType": "uint256",
              "name": "firstContribution",
              "type": "uint256"
            },
            {
              "internalType": "uint256",
              "name": "secondContribution",
              "type": "uint256"
            },
            {
              "internalType": "uint256",
              "name": "thirdContribution",
              "type": "uint256"
            },
            {
              "internalType": "uint256",
              "name": "totalContribution",
              "type": "uint256"
            },
            {
              "internalType": "uint256",
              "name": "timestamp",
              "type": "uint256"
            }
          ],
          "internalType": "struct LottoMojiReserves.DailyReserveContribution",
          "name": "",
          "type": "tuple"
        }
      ],
      "stateMutability": "view",
      "type": "function"
    },
    {
      "inputs": [],
      "name": "getReserveCoverage",
      "outputs": [
        {
          "internalType": "uint256",
          "name": "firstPrizeCoverage",
          "type": "uint256"
        },
        {
          "internalType": "uint256",
          "name": "secondPrizeCoverage",
          "type": "uint256"
        },
        {
          "internalType": "uint256",
          "name": "thirdPrizeCoverage",
          "type": "uint256"
        },
        {
          "internalType": "bool",
          "name": "canCoverTypicalPrizes",
          "type": "bool"
        }
      ],
      "stateMutability": "view",
      "type": "function"
    },
    {
      "inputs": [],
      "name": "getReserveEfficiency",
      "outputs": [
        {
          "internalType": "uint256",
          "name": "utilizationPercentage",
          "type": "uint256"
        },
        {
          "internalType": "uint256",
          "name": "currentCoveragePercentage",
          "type": "uint256"
        }
      ],
      "stateMutability": "view",
      "type": "function"
    },
    {
      "inputs": [],
      "name": "getReserveStateSummary",
      "outputs": [
        {
          "internalType": "uint256",
          "name": "totalReserves",
          "type": "uint256"
        },
        {
          "internalType": "uint256",
          "name": "daysSinceLastContribution",
          "type": "uint256"
        },
        {
          "internalType": "bool",
          "name": "allReservesHealthy",
          "type": "bool"
        },
        {
          "internalType": "string",
          "name": "status",
          "type": "string"
        }
      ],
      "stateMutability": "view",
      "type": "function"
    },
    {
      "inputs": [],
      "name": "getReserveStatistics",
      "outputs": [
        {
          "internalType": "uint256",
          "name": "totalReceived",
          "type": "uint256"
        },
        {
          "internalType": "uint256",
          "name": "totalUsedForRefills",
          "type": "uint256"
        },
        {
          "internalType": "uint256",
          "name": "currentTotalReserves",
          "type": "uint256"
        },
        {
          "internalType": "uint256",
          "name": "lastContribution",
          "type": "uint256"
        },
        {
          "internalType": "uint256",
          "name": "totalDays",
          "type": "uint256"
        },
        {
          "internalType": "uint256",
          "name": "averageDailyContribution",
          "type": "uint256"
        }
      ],
      "stateMutability": "view",
      "type": "function"
    },
    {
      "inputs": [
        {
          "internalType": "uint8",
          "name": "prizeLevel",
          "type": "uint8"
        }
      ],
      "name": "getReserveTotal",
      "outputs": [
        {
          "internalType": "uint256",
          "name": "",
          "type": "uint256"
        }
      ],
      "stateMutability": "view",
      "type": "function"
    },
    {
      "inputs": [
        {
          "internalType": "uint256",
          "name": "fromDay",
          "type": "uint256"
        },
        {
          "internalType": "uint256",
          "name": "toDay",
          "type": "uint256"
        }
      ],
      "name": "getReservesHistory",
      "outputs": [
        {
          "components": [
            {
              "internalType": "uint256",
              "name": "gameDay",
              "type": "uint256"
            },
            {
              "internalType": "uint256",
              "name": "firstContribution",
              "type": "uint256"
            },
            {
              "internalType": "uint256",
              "name": "secondContribution",
              "type": "uint256"
            },
            {
              "internalType": "uint256",
              "name": "thirdContribution",
              "type": "uint256"
            },
            {
              "internalType": "uint256",
              "name": "totalContribution",
              "type": "uint256"
            },
            {
              "internalType": "uint256",
              "name": "timestamp",
              "type": "uint256"
            }
          ],
          "internalType": "struct LottoMojiReserves.DailyReserveContribution[]",
          "name": "",
          "type": "tuple[]"
        }
      ],
      "stateMutability": "view",
      "type": "function"
    },
    {
      "inputs": [],
      "name": "getTotalReserves",
      "outputs": [
        {
          "internalType": "uint256",
          "name": "",
          "type": "uint256"
        }
      ],
      "stateMutability": "view",
      "type": "function"
    },
    {
      "inputs": [],
      "name": "lastContributionTime",
      "outputs": [
        {
          "internalType": "uint256",
          "name": "",
          "type": "uint256"
        }
      ],
      "stateMutability": "view",
      "type": "function"
    },
    {
      "inputs": [],
      "name": "lotteryContract",
      "outputs": [
        {
          "internalType": "address",
          "name": "",
          "type": "address"
        }
      ],
      "stateMutability": "view",
      "type": "function"
    },
    {
      "inputs": [],
      "name": "owner",
      "outputs": [
        {
          "internalType": "address",
          "name": "",
          "type": "address"
        }
      ],
      "stateMutability": "view",
      "type": "function"
    },
    {
      "inputs": [
        {
          "internalType": "uint256",
          "name": "daysInFuture",
          "type": "uint256"
        }
      ],
      "name": "predictFutureReserves",
      "outputs": [
        {
          "internalType": "uint256",
          "name": "predictedFirstReserve",
          "type": "uint256"
        },
        {
          "internalType": "uint256",
          "name": "predictedSecondReserve",
          "type": "uint256"
        },
        {
          "internalType": "uint256",
          "name": "predictedThirdReserve",
          "type": "uint256"
        },
        {
          "internalType": "uint256",
          "name": "predictedTotal",
          "type": "uint256"
        }
      ],
      "stateMutability": "view",
      "type": "function"
    },
    {
      "inputs": [
        {
          "internalType": "uint256",
          "name": "gameDay",
          "type": "uint256"
        },
        {
          "internalType": "uint256",
          "name": "firstAmount",
          "type": "uint256"
        },
        {
          "internalType": "uint256",
          "name": "secondAmount",
          "type": "uint256"
        },
        {
          "internalType": "uint256",
          "name": "thirdAmount",
          "type": "uint256"
        }
      ],
      "name": "receiveDailyReserves",
      "outputs": [],
      "stateMutability": "nonpayable",
      "type": "function"
    },
    {
      "inputs": [
        {
          "internalType": "uint8",
          "name": "prizeLevel",
          "type": "uint8"
        },
        {
          "internalType": "uint256",
          "name": "amountNeeded",
          "type": "uint256"
        }
      ],
      "name": "refillMainPool",
      "outputs": [],
      "stateMutability": "nonpayable",
      "type": "function"
    },
    {
      "inputs": [],
      "name": "renounceOwnership",
      "outputs": [],
      "stateMutability": "nonpayable",
      "type": "function"
    },
    {
      "inputs": [],
      "name": "reserves",
      "outputs": [
        {
          "internalType": "uint256",
          "name": "firstPrizeReserve1",
          "type": "uint256"
        },
        {
          "internalType": "uint256",
          "name": "secondPrizeReserve2",
          "type": "uint256"
        },
        {
          "internalType": "uint256",
          "name": "thirdPrizeReserve3",
          "type": "uint256"
        }
      ],
      "stateMutability": "view",
      "type": "function"
    },
    {
      "inputs": [],
      "name": "totalDaysWithContributions",
      "outputs": [
        {
          "internalType": "uint256",
          "name": "",
          "type": "uint256"
        }
      ],
      "stateMutability": "view",
      "type": "function"
    },
    {
      "inputs": [],
      "name": "totalReservesReceived",
      "outputs": [
        {
          "internalType": "uint256",
          "name": "",
          "type": "uint256"
        }
      ],
      "stateMutability": "view",
      "type": "function"
    },
    {
      "inputs": [],
      "name": "totalReservesUsedForRefills",
      "outputs": [
        {
          "internalType": "uint256",
          "name": "",
          "type": "uint256"
        }
      ],
      "stateMutability": "view",
      "type": "function"
    },
    {
      "inputs": [
        {
          "internalType": "address",
          "name": "newOwner",
          "type": "address"
        }
      ],
      "name": "transferOwnership",
      "outputs": [],
      "stateMutability": "nonpayable",
      "type": "function"
    },
    {
      "inputs": [],
      "name": "usdcToken",
      "outputs": [
        {
          "internalType": "contract IERC20",
          "name": "",
          "type": "address"
        }
      ],
      "stateMutability": "view",
      "type": "function"
    }
  ],
  "bytecode": "0x60c06040523480156200001157600080fd5b50604051620018bf380380620018bf8339810160408190526200003491620000f3565b600160005533806200006057604051631e4fbdf760e01b81526000600482015260240160405180910390fd5b6200006b8162000084565b506001600160a01b039182166080521660a0526200012b565b600180546001600160a01b038381166001600160a01b0319831681179093556040519116919082907f8be0079c531659141344cd1fd0a4f28419497f9722a3daafe3b4186f6b6457e090600090a35050565b80516001600160a01b0381168114620000ee57600080fd5b919050565b600080604083850312156200010757600080fd5b6200011283620000d6565b91506200012260208401620000d6565b90509250929050565b60805160a05161174b62000174600039600081816103a6015281816104bd015281816106bd0152610dfa0152600081816101ee015281816106ec015261113d015261174b6000f3fe608060405234801561001057600080fd5b506004361061018e5760003560e01c8063715018a6116100de578063aaa0f1b011610097578063bd8c3b2511610071578063bd8c3b25146103c8578063bdb15a57146103e8578063c64bce07146103fb578063f2fde38b1461043e57600080fd5b8063aaa0f1b01461036f578063ae5dda2a14610399578063b29c662a146103a157600080fd5b8063715018a61461030457806375172a8b1461030c578063788783ba14610339578063790870c7146103425780637e9e08a51461034b5780638da5cb5b1461035e57600080fd5b8063242693d31161014b578063429620ea11610125578063429620ea146102845780634db528d8146102a45780634f9c48fd146102d95780636aa701bf146102fc57600080fd5b8063242693d31461023157806334a96c56146102395780633bc8ca211461026c57600080fd5b806303584d6f146101935780630a014f45146101b55780630cbed53a146101cc57806311784089146101d457806311eac855146101e95780631aa3e9f014610228575b600080fd5b61019b610451565b604080519283526020830191909152015b60405180910390f35b6101be60065481565b6040519081526020016101ac565b6101be601481565b6101e76101e2366004611400565b6104b2565b005b6102107f000000000000000000000000000000000000000000000000000000000000000081565b6040516001600160a01b0390911681526020016101ac565b6101be60095481565b6101be61086b565b61024c61024736600461142a565b610890565b6040805194855260208501939093529183015260608201526080016101ac565b610274610a28565b6040516101ac9493929190611443565b6102976102923660046114a9565b610b7b565b6040516101ac91906114cb565b6102ac610d58565b604080519687526020870195909552938501929092526060840152608083015260a082015260c0016101ac565b6102ec6102e7366004611400565b610d9e565b60405190151581526020016101ac565b61024c610db3565b6101e7610ddb565b60025460035460045461031e92919083565b604080519384526020840192909252908201526060016101ac565b6101be60085481565b6101be60075481565b6101e761035936600461154e565b610def565b6001546001600160a01b0316610210565b6103776110d5565b60408051948552602085019390935291830152151560608201526080016101ac565b6101e761110a565b6102107f000000000000000000000000000000000000000000000000000000000000000081565b6103db6103d636600461142a565b611234565b6040516101ac9190611580565b6101be6103f63660046115c3565b6112c3565b6102ac61040936600461142a565b600560208190526000918252604090912080546001820154600283015460038401546004850154949095015492949193909286565b6101e761044c3660046115e5565b611306565b6000806000600654111561047d57600654600754610470906064611624565b61047a919061163b565b91505b600061048761086b565b600654909150156104ad576006546104a0826064611624565b6104aa919061163b565b91505b509091565b336001600160a01b037f000000000000000000000000000000000000000000000000000000000000000016146105275760405162461bcd60e51b815260206004820152601560248201527413db9b1e481b1bdd1d195c9e4818dbdb9d1c9858dd605a1b60448201526064015b60405180910390fd5b61052f611341565b60018260ff1610158015610547575060038260ff1611155b6105895760405162461bcd60e51b8152602060048201526013602482015272125b9d985b1a59081c1c9a5e99481b195d995b606a1b604482015260640161051e565b600081116105d95760405162461bcd60e51b815260206004820152601760248201527f416d6f756e74206d75737420626520706f736974697665000000000000000000604482015260640161051e565b60006105e4836112c3565b9050818110156106365760405162461bcd60e51b815260206004820152601f60248201527f496e73756666696369656e74207265736572766520666f7220726566696c6c00604482015260640161051e565b8260ff16600103610661578160026000016000828254610656919061165d565b909155506106a69050565b8260ff16600203610681578160026001016000828254610656919061165d565b8260ff166003036106a657816002800160008282546106a0919061165d565b90915550505b60405163a9059cbb60e01b81526001600160a01b037f000000000000000000000000000000000000000000000000000000000000000081166004830152602482018490527f0000000000000000000000000000000000000000000000000000000000000000169063a9059cbb906044016020604051808303816000875af1158015610735573d6000803e3d6000fd5b505050506040513d601f19601f820116820180604052508101906107599190611670565b61079e5760405162461bcd60e51b81526020600482015260166024820152751499599a5b1b081d1c985b9cd9995c8819985a5b195960521b604482015260640161051e565b81600760008282546107b09190611692565b909155505060ff83167feadf3a76c6df00fb512d242066ea58b671307b3e3f2e70d293163b7b5ab7fb69836107e4866112c3565b6107f1620151804261163b565b6040805193845260208401929092529082015260600160405180910390a27fabd7df194190e79e24f299d9ff111d5a5de8ef885b6059a47afbe13dc13a2f2f60065460075461083e61086b565b6040805193845260208401929092529082015260600160405180910390a1506108676001600055565b5050565b6004546003546002546000929161088191611692565b61088b9190611692565b905090565b6000806000806009546000036108be576002546003546004546108b161086b565b9350935093509350610a21565b60008080806108d0620151804261163b565b905060076000805b82811080156108e75750808410155b1561098c5760006108f8828661165d565b600081815260056020526040902054909150156109795760008181526005602052604090206001015461092b9089611692565b60008281526005602052604090206002015490985061094a9088611692565b6000828152600560205260409020600301549097506109699087611692565b955082610975816116a5565b9350505b5080610984816116a5565b9150506108d8565b5080156109b85761099d818761163b565b95506109a9818661163b565b94506109b5818561163b565b93505b6109c28b87611624565b6002546109cf9190611692565b99506109db8b86611624565b6003546109e89190611692565b98506109f48b85611624565b600454610a019190611692565b975087610a0e8a8c611692565b610a189190611692565b96505050505050505b9193509193565b60008060006060610a3761086b565b60085490945015610a61576201518060085442610a54919061165d565b610a5e919061163b565b92505b6002546302faf080908111801590610a7b57506003548111155b8015610a8957506004548111155b925084600003610ad0576040518060400160405280601f81526020017f456d707479202d204e6f20726573657276657320616363756d756c61746564008152509150610b74565b82610af5576040518060600160405280602b81526020016116eb602b91399150610b74565b6002841115610b3b576040518060400160405280601f81526020017f5374616c65202d204e6f20726563656e7420636f6e747269627574696f6e73008152509150610b74565b6040518060400160405280601d81526020017f4865616c746879202d20416c6c2072657365727665732061637469766500000081525091505b5090919293565b606081831115610bc25760405162461bcd60e51b8152602060048201526012602482015271496e76616c696420646174652072616e676560701b604482015260640161051e565b601e610bce848461165d565b1115610c0e5760405162461bcd60e51b815260206004820152600f60248201526e52616e676520746f6f206c6172676560881b604482015260640161051e565b6000610c1a848461165d565b610c25906001611692565b905060008167ffffffffffffffff811115610c4257610c426116be565b604051908082528060200260200182016040528015610cac57816020015b610c996040518060c001604052806000815260200160008152602001600081526020016000815260200160008152602001600081525090565b815260200190600190039081610c605790505b50905060005b82811015610d4d5760056000610cc88389611692565b81526020019081526020016000206040518060c00160405290816000820154815260200160018201548152602001600282015481526020016003820154815260200160048201548152602001600582015481525050828281518110610d2f57610d2f6116d4565b60200260200101819052508080610d45906116a5565b915050610cb2565b509150505b92915050565b6006546007546000808080610d6b61086b565b93506008549250600954915060008211610d86576000610d94565b81600654610d94919061163b565b9050909192939495565b600081610daa846112c3565b10159392505050565b600254600354600454600081610dc98486611692565b610dd39190611692565b905090919293565b610de361136b565b610ded6000611398565b565b336001600160a01b037f00000000000000000000000000000000000000000000000000000000000000001614610e5f5760405162461bcd60e51b815260206004820152601560248201527413db9b1e481b1bdd1d195c9e4818dbdb9d1c9858dd605a1b604482015260640161051e565b610e67611341565b6000831180610e765750600082115b80610e815750600081115b610ec65760405162461bcd60e51b81526020600482015260166024820152754e6f20726573657276657320746f207265636569766560501b604482015260640161051e565b60008481526005602052604090205415610f315760405162461bcd60e51b815260206004820152602660248201527f416c726561647920726563656976656420726573657276657320666f7220746860448201526569732064617960d01b606482015260840161051e565b8260026000016000828254610f469190611692565b909155505060038054839190600090610f60908490611692565b909155505060048054829190600090610f7a908490611692565b909155506000905081610f8d8486611692565b610f979190611692565b6040805160c081018252878152602080820188815282840188815260608401888152608085018781524260a0870190815260008e81526005968790529788209651875593516001870155915160028601555160038501555160048401555191015560068054929350839290919061100f908490611692565b90915550504260085560098054906000611028836116a5565b909155505060408051858152602081018590529081018390526060810182905285907fb4d43d02b9c1694910e6c3ddbdf28156d5ace03b91942b1a63c54d612b5351659060800160405180910390a27fabd7df194190e79e24f299d9ff111d5a5de8ef885b6059a47afbe13dc13a2f2f6006546007546110a661086b565b6040805193845260208401929092529082015260600160405180910390a1506110cf6001600055565b50505050565b60025460035460045460006305f5e1008085108015906110f55750808410155b80156111015750808310155b91505090919293565b61111261136b565b600061111c61086b565b90508015611231576000600281905560038190556004556001600160a01b037f00000000000000000000000000000000000000000000000000000000000000001663a9059cbb6111746001546001600160a01b031690565b6040516001600160e01b031960e084901b1681526001600160a01b039091166004820152602481018490526044016020604051808303816000875af11580156111c1573d6000803e3d6000fd5b505050506040513d601f19601f820116820180604052508101906111e59190611670565b6112315760405162461bcd60e51b815260206004820152601b60248201527f456d657267656e6379207769746864726177616c206661696c65640000000000604482015260640161051e565b50565b61126d6040518060c001604052806000815260200160008152602001600081526020016000815260200160008152602001600081525090565b50600090815260056020818152604092839020835160c08101855281548152600182015492810192909252600281015493820193909352600383015460608201526004830154608082015291015460a082015290565b60008160ff166001036112d857505060025490565b8160ff166002036112eb57505060035490565b8160ff166003036112fe57505060045490565b506000919050565b61130e61136b565b6001600160a01b03811661133857604051631e4fbdf760e01b81526000600482015260240161051e565b61123181611398565b60026000540361136457604051633ee5aeb560e01b815260040160405180910390fd5b6002600055565b6001546001600160a01b03163314610ded5760405163118cdaa760e01b815233600482015260240161051e565b600180546001600160a01b038381166001600160a01b0319831681179093556040519116919082907f8be0079c531659141344cd1fd0a4f28419497f9722a3daafe3b4186f6b6457e090600090a35050565b803560ff811681146113fb57600080fd5b919050565b6000806040838503121561141357600080fd5b61141c836113ea565b946020939093013593505050565b60006020828403121561143c57600080fd5b5035919050565b848152600060208581840152841515604084015260806060840152835180608085015260005b818110156114855785810183015185820160a001528201611469565b50600060a0828601015260a0601f19601f8301168501019250505095945050505050565b600080604083850312156114bc57600080fd5b50508035926020909101359150565b6020808252825182820181905260009190848201906040850190845b818110156115425761152f838551805182526020810151602083015260408101516040830152606081015160608301526080810151608083015260a081015160a08301525050565b9284019260c092909201916001016114e7565b50909695505050505050565b6000806000806080858703121561156457600080fd5b5050823594602084013594506040840135936060013592509050565b60c08101610d528284805182526020810151602083015260408101516040830152606081015160608301526080810151608083015260a081015160a08301525050565b6000602082840312156115d557600080fd5b6115de826113ea565b9392505050565b6000602082840312156115f757600080fd5b81356001600160a01b03811681146115de57600080fd5b634e487b7160e01b600052601160045260246000fd5b8082028115828204841417610d5257610d5261160e565b60008261165857634e487b7160e01b600052601260045260246000fd5b500490565b81810381811115610d5257610d5261160e565b60006020828403121561168257600080fd5b815180151581146115de57600080fd5b80820180821115610d5257610d5261160e565b6000600182016116b7576116b761160e565b5060010190565b634e487b7160e01b600052604160045260246000fd5b634e487b7160e01b600052603260045260246000fdfe4c6f77202d20536f6d652072657365727665732062656c6f77206865616c746879207468726573686f6c64a26469706673582212203a3311673856b671b113c11cb7550e377315f2e88690c70afd476bd90f05447f64736f6c63430008140033",
  "linkReferences": {},
  "deployedLinkReferences": {}
}