{
  "_format": "hh-sol-artifact-1",
  "contractName": "LottoMojiAutomation",
  "sourceName": "contracts/LottoMojiAutomation.sol",
  "abi": [
    {
      "inputs": [
        {
          "internalType": "address",
          "name": "_lotteryContract",
          "type": "address"
        },
        {
          "internalType": "address",
          "name": "_reserveContract",
          "type": "address"
        },
        {
          "internalType": "address",
          "name": "_randomContract",
          "type": "address"
        }
      ],
      "stateMutability": "nonpayable",
      "type": "constructor"
    },
    {
      "inputs": [
        {
          "internalType": "address",
          "name": "owner",
          "type": "address"
        }
      ],
      "name": "OwnableInvalidOwner",
      "type": "error"
    },
    {
      "inputs": [
        {
          "internalType": "address",
          "name": "account",
          "type": "address"
        }
      ],
      "name": "OwnableUnauthorizedAccount",
      "type": "error"
    },
    {
      "anonymous": false,
      "inputs": [
        {
          "indexed": false,
          "internalType": "uint256",
          "name": "newDrawTimeUTC",
          "type": "uint256"
        },
        {
          "indexed": false,
          "internalType": "bool",
          "name": "automationActive",
          "type": "bool"
        }
      ],
      "name": "AutomationConfigUpdated",
      "type": "event"
    },
    {
      "anonymous": false,
      "inputs": [
        {
          "indexed": true,
          "internalType": "uint256",
          "name": "gameDay",
          "type": "uint256"
        },
        {
          "indexed": false,
          "internalType": "enum LottoMojiAutomation.AutomationPhase",
          "name": "phase",
          "type": "uint8"
        },
        {
          "indexed": false,
          "internalType": "uint256",
          "name": "timestamp",
          "type": "uint256"
        }
      ],
      "name": "AutomationTriggered",
      "type": "event"
    },
    {
      "anonymous": false,
      "inputs": [
        {
          "indexed": true,
          "internalType": "uint256",
          "name": "gameDay",
          "type": "uint256"
        },
        {
          "indexed": false,
          "internalType": "uint8[4]",
          "name": "winningNumbers",
          "type": "uint8[4]"
        },
        {
          "indexed": false,
          "internalType": "uint256",
          "name": "totalPool",
          "type": "uint256"
        }
      ],
      "name": "DrawExecutedAutomatically",
      "type": "event"
    },
    {
      "anonymous": false,
      "inputs": [
        {
          "indexed": false,
          "internalType": "bool",
          "name": "paused",
          "type": "bool"
        },
        {
          "indexed": false,
          "internalType": "address",
          "name": "triggeredBy",
          "type": "address"
        }
      ],
      "name": "EmergencyPauseToggled",
      "type": "event"
    },
    {
      "anonymous": false,
      "inputs": [
        {
          "indexed": false,
          "internalType": "uint256",
          "name": "timestamp",
          "type": "uint256"
        },
        {
          "indexed": false,
          "internalType": "string",
          "name": "maintenanceType",
          "type": "string"
        },
        {
          "indexed": false,
          "internalType": "bool",
          "name": "successful",
          "type": "bool"
        }
      ],
      "name": "MaintenancePerformed",
      "type": "event"
    },
    {
      "anonymous": false,
      "inputs": [
        {
          "indexed": true,
          "internalType": "address",
          "name": "previousOwner",
          "type": "address"
        },
        {
          "indexed": true,
          "internalType": "address",
          "name": "newOwner",
          "type": "address"
        }
      ],
      "name": "OwnershipTransferred",
      "type": "event"
    },
    {
      "anonymous": false,
      "inputs": [
        {
          "indexed": true,
          "internalType": "uint256",
          "name": "gameDay",
          "type": "uint256"
        },
        {
          "indexed": false,
          "internalType": "uint256",
          "name": "firstReserveAmount",
          "type": "uint256"
        },
        {
          "indexed": false,
          "internalType": "uint256",
          "name": "secondReserveAmount",
          "type": "uint256"
        },
        {
          "indexed": false,
          "internalType": "uint256",
          "name": "thirdReserveAmount",
          "type": "uint256"
        }
      ],
      "name": "ReservesProcessedAutomatically",
      "type": "event"
    },
    {
      "inputs": [],
      "name": "DRAW_INTERVAL",
      "outputs": [
        {
          "internalType": "uint256",
          "name": "",
          "type": "uint256"
        }
      ],
      "stateMutability": "view",
      "type": "function"
    },
    {
      "inputs": [],
      "name": "SAO_PAULO_OFFSET",
      "outputs": [
        {
          "internalType": "uint256",
          "name": "",
          "type": "uint256"
        }
      ],
      "stateMutability": "view",
      "type": "function"
    },
    {
      "inputs": [
        {
          "internalType": "uint256",
          "name": "gameDay",
          "type": "uint256"
        }
      ],
      "name": "_handleReserveProcessing",
      "outputs": [],
      "stateMutability": "nonpayable",
      "type": "function"
    },
    {
      "inputs": [],
      "name": "_performMaintenanceTasks",
      "outputs": [],
      "stateMutability": "nonpayable",
      "type": "function"
    },
    {
      "inputs": [],
      "name": "automationActive",
      "outputs": [
        {
          "internalType": "bool",
          "name": "",
          "type": "bool"
        }
      ],
      "stateMutability": "view",
      "type": "function"
    },
    {
      "inputs": [
        {
          "internalType": "bytes",
          "name": "",
          "type": "bytes"
        }
      ],
      "name": "checkUpkeep",
      "outputs": [
        {
          "internalType": "bool",
          "name": "upkeepNeeded",
          "type": "bool"
        },
        {
          "internalType": "bytes",
          "name": "performData",
          "type": "bytes"
        }
      ],
      "stateMutability": "view",
      "type": "function"
    },
    {
      "inputs": [],
      "name": "currentPhase",
      "outputs": [
        {
          "internalType": "enum LottoMojiAutomation.AutomationPhase",
          "name": "",
          "type": "uint8"
        }
      ],
      "stateMutability": "view",
      "type": "function"
    },
    {
      "inputs": [],
      "name": "drawTimeUTC",
      "outputs": [
        {
          "internalType": "uint256",
          "name": "",
          "type": "uint256"
        }
      ],
      "stateMutability": "view",
      "type": "function"
    },
    {
      "inputs": [],
      "name": "emergencyExecuteDraw",
      "outputs": [],
      "stateMutability": "nonpayable",
      "type": "function"
    },
    {
      "inputs": [],
      "name": "emergencyPause",
      "outputs": [
        {
          "internalType": "bool",
          "name": "",
          "type": "bool"
        }
      ],
      "stateMutability": "view",
      "type": "function"
    },
    {
      "inputs": [],
      "name": "forceMaintenance",
      "outputs": [],
      "stateMutability": "nonpayable",
      "type": "function"
    },
    {
      "inputs": [],
      "name": "forceReserveProcessing",
      "outputs": [],
      "stateMutability": "nonpayable",
      "type": "function"
    },
    {
      "inputs": [],
      "name": "getAutomationMetrics",
      "outputs": [
        {
          "internalType": "uint256",
          "name": "totalDraws",
          "type": "uint256"
        },
        {
          "internalType": "uint256",
          "name": "totalReserveProcessing",
          "type": "uint256"
        },
        {
          "internalType": "uint256",
          "name": "totalMaintenance",
          "type": "uint256"
        },
        {
          "internalType": "uint256",
          "name": "lastDraw",
          "type": "uint256"
        },
        {
          "internalType": "uint256",
          "name": "lastMaintenance",
          "type": "uint256"
        },
        {
          "internalType": "uint256",
          "name": "uptime",
          "type": "uint256"
        }
      ],
      "stateMutability": "view",
      "type": "function"
    },
    {
      "inputs": [],
      "name": "getAutomationStatus",
      "outputs": [
        {
          "internalType": "bool",
          "name": "active",
          "type": "bool"
        },
        {
          "internalType": "bool",
          "name": "paused",
          "type": "bool"
        },
        {
          "internalType": "enum LottoMojiAutomation.AutomationPhase",
          "name": "phase",
          "type": "uint8"
        },
        {
          "internalType": "uint256",
          "name": "nextDrawTime",
          "type": "uint256"
        },
        {
          "internalType": "uint256",
          "name": "totalDraws",
          "type": "uint256"
        },
        {
          "internalType": "uint256",
          "name": "totalReserves",
          "type": "uint256"
        }
      ],
      "stateMutability": "view",
      "type": "function"
    },
    {
      "inputs": [],
      "name": "getCurrentGameDay",
      "outputs": [
        {
          "internalType": "uint256",
          "name": "",
          "type": "uint256"
        }
      ],
      "stateMutability": "view",
      "type": "function"
    },
    {
      "inputs": [],
      "name": "getTimeUntilNextDraw",
      "outputs": [
        {
          "internalType": "uint256",
          "name": "",
          "type": "uint256"
        }
      ],
      "stateMutability": "view",
      "type": "function"
    },
    {
      "inputs": [],
      "name": "isAutomationHealthy",
      "outputs": [
        {
          "internalType": "bool",
          "name": "healthy",
          "type": "bool"
        },
        {
          "internalType": "string",
          "name": "status",
          "type": "string"
        }
      ],
      "stateMutability": "view",
      "type": "function"
    },
    {
      "inputs": [],
      "name": "lastDrawTime",
      "outputs": [
        {
          "internalType": "uint256",
          "name": "",
          "type": "uint256"
        }
      ],
      "stateMutability": "view",
      "type": "function"
    },
    {
      "inputs": [],
      "name": "lastMaintenanceTime",
      "outputs": [
        {
          "internalType": "uint256",
          "name": "",
          "type": "uint256"
        }
      ],
      "stateMutability": "view",
      "type": "function"
    },
    {
      "inputs": [],
      "name": "lotteryContract",
      "outputs": [
        {
          "internalType": "contract LottoMojiMain",
          "name": "",
          "type": "address"
        }
      ],
      "stateMutability": "view",
      "type": "function"
    },
    {
      "inputs": [],
      "name": "owner",
      "outputs": [
        {
          "internalType": "address",
          "name": "",
          "type": "address"
        }
      ],
      "stateMutability": "view",
      "type": "function"
    },
    {
      "inputs": [
        {
          "internalType": "bytes",
          "name": "performData",
          "type": "bytes"
        }
      ],
      "name": "performUpkeep",
      "outputs": [],
      "stateMutability": "nonpayable",
      "type": "function"
    },
    {
      "inputs": [],
      "name": "randomContract",
      "outputs": [
        {
          "internalType": "contract LottoMojiRandom",
          "name": "",
          "type": "address"
        }
      ],
      "stateMutability": "view",
      "type": "function"
    },
    {
      "inputs": [],
      "name": "renounceOwnership",
      "outputs": [],
      "stateMutability": "nonpayable",
      "type": "function"
    },
    {
      "inputs": [],
      "name": "reserveContract",
      "outputs": [
        {
          "internalType": "contract LottoMojiReserves",
          "name": "",
          "type": "address"
        }
      ],
      "stateMutability": "view",
      "type": "function"
    },
    {
      "inputs": [],
      "name": "toggleEmergencyPause",
      "outputs": [],
      "stateMutability": "nonpayable",
      "type": "function"
    },
    {
      "inputs": [],
      "name": "totalDrawsExecuted",
      "outputs": [
        {
          "internalType": "uint256",
          "name": "",
          "type": "uint256"
        }
      ],
      "stateMutability": "view",
      "type": "function"
    },
    {
      "inputs": [],
      "name": "totalMaintenanceRuns",
      "outputs": [
        {
          "internalType": "uint256",
          "name": "",
          "type": "uint256"
        }
      ],
      "stateMutability": "view",
      "type": "function"
    },
    {
      "inputs": [],
      "name": "totalReservesProcessed",
      "outputs": [
        {
          "internalType": "uint256",
          "name": "",
          "type": "uint256"
        }
      ],
      "stateMutability": "view",
      "type": "function"
    },
    {
      "inputs": [
        {
          "internalType": "address",
          "name": "newOwner",
          "type": "address"
        }
      ],
      "name": "transferOwnership",
      "outputs": [],
      "stateMutability": "nonpayable",
      "type": "function"
    },
    {
      "inputs": [
        {
          "internalType": "uint256",
          "name": "_drawTimeUTC",
          "type": "uint256"
        },
        {
          "internalType": "bool",
          "name": "_automationActive",
          "type": "bool"
        }
      ],
      "name": "updateAutomationConfig",
      "outputs": [],
      "stateMutability": "nonpayable",
      "type": "function"
    }
  ],
  "bytecode": "0x60e060405261546060019081556004805461ffff191690911790556008805460ff191690553480156200003157600080fd5b5060405162001bb938038062001bb983398101604081905262000054916200011b565b33806200007b57604051631e4fbdf760e01b81526000600482015260240160405180910390fd5b6200008681620000ae565b506001600160a01b0392831660805290821660a0521660c05242600281905560035562000165565b600080546001600160a01b038381166001600160a01b0319831681178455604051919092169283917f8be0079c531659141344cd1fd0a4f28419497f9722a3daafe3b4186f6b6457e09190a35050565b80516001600160a01b03811681146200011657600080fd5b919050565b6000806000606084860312156200013157600080fd5b6200013c84620000fe565b92506200014c60208501620000fe565b91506200015c60408501620000fe565b90509250925092565b60805160a05160c0516119fa620001bf600039600081816103ee0152610da6015260008181610351015281816107a001528181610e930152818161118d01526113930152600081816103780152610cb801526119fa6000f3fe608060405234801561001057600080fd5b50600436106101e55760003560e01c80636e04ff0d1161010f578063c3e7f730116100a2578063d4333b9111610071578063d4333b9114610410578063dd5d509f14610418578063f2fde38b14610420578063fa6f5f1e1461043357600080fd5b8063c3e7f7301461039a578063c6b749e2146103d7578063cb849400146103e1578063ccf69e9b146103e957600080fd5b80638ee53860116100de5780638ee538601461033b57806395b1b43014610343578063a7f43acd1461034c578063b29c662a1461037357600080fd5b80636e04ff0d146102e8578063715018a6146102fb57806378e80bbc146103035780638da5cb5b1461031657600080fd5b8063426d83ba1161018757806351858e271161015657806351858e27146102a75780635cbbd635146102c95780636b4b3a1f146102d25780636baf4a74146102db57600080fd5b8063426d83ba146102625780634585e33b146102785780634dcbc6c61461028b57806350152c4c1461029e57600080fd5b8063147e291f116101c3578063147e291f1461023e578063299f91ba1461024857806336be42d01461025157806338cdf7cc1461025957600080fd5b8063055ad42e146101ea57806308e953451461020d5780630cc12a8c14610224575b600080fd5b6008546101f79060ff1681565b604051610204919061149d565b60405180910390f35b610216612a3081565b604051908152602001610204565b61022c61043b565b604051610204969594939291906114b1565b610246610488565b005b61021660035481565b6102466104f1565b61021660015481565b61026a610503565b60405161020492919061153c565b610246610286366004611557565b6105fe565b6102466102993660046115c9565b610754565b61021660055481565b6004546102b990610100900460ff1681565b6040519015158152602001610204565b61021660025481565b61021660075481565b6004546102b99060ff1681565b61026a6102f6366004611557565b61087e565b61024661094f565b6102466103113660046115e2565b610961565b6000546001600160a01b03165b6040516001600160a01b039091168152602001610204565b6102166109be565b61021660065481565b6103237f000000000000000000000000000000000000000000000000000000000000000081565b6103237f000000000000000000000000000000000000000000000000000000000000000081565b60055460065460075460025460035442604080519687526020870195909552938501929092526060840152608083015260a082015260c001610204565b6102166201518081565b6102466109d2565b6103237f000000000000000000000000000000000000000000000000000000000000000081565b610246610a43565b610246610a60565b61024661042e366004611617565b610b01565b610216610b3c565b6004546008546002546000928392839283928392839260ff808416936101009004811692169061046f90620151809061165d565b600554600654949b939a50919850965094509092509050565b610490610b71565b6004805460ff610100808304821615810261ff00199093169290921792839055604080519290930416151581523360208201527f81fb10540499dac6157b25576349c719be885b5774e4a0dda606c2f33947d51f91015b60405180910390a1565b6104f9610b71565b610501610b9e565b565b60045460009060609060ff16610544575050604080518082019091526013815272105d5d1bdb585d1a5bdb88191a5cd8589b1959606a1b6020820152600091565b600454610100900460ff1615610588575050604080518082019091526016815275456d657267656e63792070617573652061637469766560501b6020820152600091565b62015180600254610599919061165d565b6105a590611c2061165d565b4211156105d957505060408051808201909152600f81526e426568696e64207363686564756c6560881b6020820152600091565b50506040805180820190915260078152664865616c74687960c81b6020820152600191565b60045460ff1680156106185750600454610100900460ff16155b61065d5760405162461bcd60e51b8152602060048201526011602482015270105d5d1bdb585d1a5bdb881c185d5cd959607a1b60448201526064015b60405180910390fd5b600061066b82840184611670565b60088054919250829160ff1916600183600481111561068c5761068c611465565b0217905550600061069b6109be565b905060018260048111156106b1576106b1611465565b036106c4576106bf81610cb6565b610707565b60028260048111156106d8576106d8611465565b036106e6576106bf81610e8c565b60038260048111156106fa576106fa611465565b0361070757610707610b9e565b807f0d53c5e8db4dfb258612c9212fc256e7cc885a3bc27ca5feb7e87fd5fd1b5a248342604051610739929190611691565b60405180910390a250506008805460ff191660041790555050565b3330146107985760405162461bcd60e51b8152602060048201526012602482015271496e7465726e616c2063616c6c206f6e6c7960701b6044820152606401610654565b6000806000807f00000000000000000000000000000000000000000000000000000000000000006001600160a01b0316636aa701bf6040518163ffffffff1660e01b8152600401608060405180830381865afa1580156107fc573d6000803e3d6000fd5b505050506040513d601f19601f8201168201806040525081019061082091906116ac565b93509350935093506000805160206119a5833981519152426108418361100a565b60405160200161085191906116e2565b60408051601f198184030181529082905261086f9291600190611736565b60405180910390a15050505050565b60045460009060609060ff16158061089d5750600454610100900460ff165b156108ba5750506040805160208101909152600080825290610948565b6108c2611113565b156108f2576001806040516020016108da919061149d565b60405160208183030381529060405291509150610948565b6108fa611185565b1561091357600160026040516020016108da919061149d565b61091b61123a565b1561093457600160036040516020016108da919061149d565b505060408051602081019091526000808252905b9250929050565b610957610b71565b6105016000611255565b610969610b71565b60018290556004805460ff19168215159081179091556040805184815260208101929092527f4b57dae8f4b1af1dd7e1f68954e84fed94e1ef48185d1c02351aa199601737ae91015b60405180910390a15050565b60006109cd6201518042611777565b905090565b6109da610b71565b600454610100900460ff1615610a2b5760405162461bcd60e51b8152602060048201526016602482015275456d657267656e63792070617573652061637469766560501b6044820152606401610654565b6000610a356109be565b9050610a4081610cb6565b50565b610a4b610b71565b6000610a556109be565b9050610a4081610e8c565b333014610aa45760405162461bcd60e51b8152602060048201526012602482015271496e7465726e616c2063616c6c206f6e6c7960701b6044820152606401610654565b60408051428152606060208201819052601d908201527f53797374656d206865616c746820636865636b20636f6d706c6574656400000060808201526001918101919091526000805160206119a58339815191529060a0016104e7565b610b09610b71565b6001600160a01b038116610b3357604051631e4fbdf760e01b815260006004820152602401610654565b610a4081611255565b60008062015180600254610b50919061165d565b9050804210610b6157600091505090565b610b6b428261178b565b91505090565b6000546001600160a01b031633146105015760405163118cdaa760e01b8152336004820152602401610654565b4260035560078054906000610bb28361179e565b90915550506040805180820182526013815272526f7574696e65206d61696e74656e616e636560681b6020820152815163dd5d509f60e01b81529151600192309163dd5d509f9160048082019260009290919082900301818387803b158015610c1a57600080fd5b505af1925050508015610c2b575060015b610c9157610c376117b7565b806308c379a003610c855750610c4b61183c565b80610c565750610c87565b6000805160206119a583398151915242826000604051610c7893929190611736565b60405180910390a1505050565b505b3d6000803e3d6000fd5b6000805160206119a58339815191524282846040516109b293929190611736565b5050565b7f00000000000000000000000000000000000000000000000000000000000000006001600160a01b031663e3d8b4a86040518163ffffffff1660e01b8152600401600060405180830381600087803b158015610d1157600080fd5b505af1925050508015610d22575060015b610da257610d2e6117b7565b806308c379a003610c855750610d4261183c565b80610d4d5750610c87565b6040805142815260606020820181905260159082015274111c985dc8195e1958dd5d1a5bdb8819985a5b1959605a1b60808201526000918101919091526000805160206119a58339815191529060a0016109b2565b60007f00000000000000000000000000000000000000000000000000000000000000006001600160a01b031663ad70a5f26040518163ffffffff1660e01b815260040160a060405180830381865afa158015610e02573d6000803e3d6000fd5b505050506040513d601f19601f82011682018060405250810190610e2691906118c6565b5042600255600580549192506000610e3d8361179e565b9190505550817f7c291d0a1e54a619340b3e57fd754bf2017d8ac567c681f7ab676e69e999ba2982610e6d600090565b604051610e7b92919061193f565b60405180910390a2610cb2826112a5565b60008060007f00000000000000000000000000000000000000000000000000000000000000006001600160a01b0316636aa701bf6040518163ffffffff1660e01b8152600401608060405180830381865afa158015610eef573d6000803e3d6000fd5b505050506040513d601f19601f82011682018060405250810190610f1391906116ac565b509250925092506000633b9aca00841180610f315750633b9aca0083115b80610f3f5750633b9aca0082115b15610fa45760408051428152606060208201819052601d908201527f48696768207265736572766520616d6f756e7473206465746563746564000000608082015260018183015290516000805160206119a58339815191529181900360a00190a15060015b80156110035760068054906000610fba8361179e565b9091555050604080518581526020810185905290810183905285907fcd205efeb905b6869749498aa583f1615142bc15db1564ecae0f048b4f87aa949060600160405180910390a25b5050505050565b6060816000036110315750506040805180820190915260018152600360fc1b602082015290565b8160005b811561105b57806110458161179e565b91506110549050600a83611777565b9150611035565b60008167ffffffffffffffff811115611076576110766117d3565b6040519080825280601f01601f1916602001820160405280156110a0576020820181803683370190505b5090505b841561110b576110b560018361178b565b91506110c2600a8661197a565b6110cd90603061165d565b60f81b8183815181106110e2576110e261198e565b60200101906001600160f81b031916908160001a905350611104600a86611777565b94506110a4565b949350505050565b600062015180600254611126919061165d565b4210156111335750600090565b6000610e10611145620151804261197a565b61114f9190611777565b90506000610e106001546111639190611777565b905080821015801561117e575061117b81600161165d565b82105b9250505090565b6000806000807f00000000000000000000000000000000000000000000000000000000000000006001600160a01b0316636aa701bf6040518163ffffffff1660e01b8152600401608060405180830381865afa1580156111e9573d6000803e3d6000fd5b505050506040513d601f19601f8201168201806040525081019061120d91906116ac565b509194509250905063773594008084118061122757508083115b8061123157508082115b94505050505090565b600060035462093a8061124d919061165d565b421015905090565b600080546001600160a01b038381166001600160a01b0319831681178455604051919092169283917f8be0079c531659141344cd1fd0a4f28419497f9722a3daafe3b4186f6b6457e09190a35050565b6040516326e5e36360e11b8152600481018290523090634dcbc6c690602401600060405180830381600087803b1580156112de57600080fd5b505af19250505080156112ef575060015b611377576112fb6117b7565b806308c379a003610c85575061130f61183c565b8061131a5750610c87565b604080514281526060602082018190526019908201527f526573657276652070726f63657373696e67206661696c65640000000000000060808201526000918101919091526000805160206119a58339815191529060a0016109b2565b600680549060006113878361179e565b919050555060008060007f00000000000000000000000000000000000000000000000000000000000000006001600160a01b0316636aa701bf6040518163ffffffff1660e01b8152600401608060405180830381865afa1580156113ef573d6000803e3d6000fd5b505050506040513d601f19601f8201168201806040525081019061141391906116ac565b506040805184815260208101849052908101829052929550909350915084907fcd205efeb905b6869749498aa583f1615142bc15db1564ecae0f048b4f87aa949060600160405180910390a250505050565b634e487b7160e01b600052602160045260246000fd5b6005811061149957634e487b7160e01b600052602160045260246000fd5b9052565b602081016114ab828461147b565b92915050565b8615158152851515602082015260c081016114cf604083018761147b565b8460608301528360808301528260a0830152979650505050505050565b60005b838110156115075781810151838201526020016114ef565b50506000910152565b600081518084526115288160208601602086016114ec565b601f01601f19169290920160200192915050565b821515815260406020820152600061110b6040830184611510565b6000806020838503121561156a57600080fd5b823567ffffffffffffffff8082111561158257600080fd5b818501915085601f83011261159657600080fd5b8135818111156115a557600080fd5b8660208285010111156115b757600080fd5b60209290920196919550909350505050565b6000602082840312156115db57600080fd5b5035919050565b600080604083850312156115f557600080fd5b823591506020830135801515811461160c57600080fd5b809150509250929050565b60006020828403121561162957600080fd5b81356001600160a01b038116811461164057600080fd5b9392505050565b634e487b7160e01b600052601160045260246000fd5b808201808211156114ab576114ab611647565b60006020828403121561168257600080fd5b81356005811061164057600080fd5b6040810161169f828561147b565b8260208301529392505050565b600080600080608085870312156116c257600080fd5b505082516020840151604085015160609095015191969095509092509050565b7f52657365727665732076657269666965643a20546f74616c3d0000000000000081526000825161171a8160198501602087016114ec565b64205553444360d81b6019939091019283015250601e01919050565b83815260606020820152600061174f6060830185611510565b90508215156040830152949350505050565b634e487b7160e01b600052601260045260246000fd5b60008261178657611786611761565b500490565b818103818111156114ab576114ab611647565b6000600182016117b0576117b0611647565b5060010190565b600060033d11156117d05760046000803e5060005160e01c5b90565b634e487b7160e01b600052604160045260246000fd5b6080810181811067ffffffffffffffff82111715611809576118096117d3565b60405250565b601f8201601f1916810167ffffffffffffffff81118282101715611835576118356117d3565b6040525050565b600060443d101561184a5790565b6040516003193d81016004833e81513d67ffffffffffffffff816024840111818411171561187a57505050505090565b82850191508151818111156118925750505050505090565b843d87010160208285010111156118ac5750505050505090565b6118bb6020828601018761180f565b509095945050505050565b60008060a083850312156118d957600080fd5b83601f8401126118e857600080fd5b6040516118f4816117e9565b80608085018681111561190657600080fd5b855b8181101561193057805160ff811681146119225760008081fd5b835260209283019201611908565b50519196919550909350505050565b60a08101818460005b600481101561196a57815160ff16835260209283019290910190600101611948565b5050508260808301529392505050565b60008261198957611989611761565b500690565b634e487b7160e01b600052603260045260246000fdfece313bca45178fba62f2abfd43fe6e00533f2ee07b599219d0cf656cb41e8fd5a2646970667358221220cdec5e6ef68a48786f7308603087c5aac62b57a61ec4514c0d1fe817660cf41f64736f6c63430008140033",
  "linkReferences": {},
  "deployedLinkReferences": {}
}