{
  "_format": "hh-sol-artifact-1",
  "contractName": "LottoMojiCoreV2",
  "sourceName": "contracts/LottoMojiCoreV3.sol",
  "abi": [
    {
      "inputs": [
        {
          "internalType": "uint8",
          "name": "_drawHourUTC",
          "type": "uint8"
        },
        {
          "internalType": "address",
          "name": "_paymentToken",
          "type": "address"
        },
        {
          "internalType": "uint256",
          "name": "_ticketPrice",
          "type": "uint256"
        },
        {
          "internalType": "address",
          "name": "_vrfCoordinator",
          "type": "address"
        },
        {
          "internalType": "bytes32",
          "name": "_keyHash",
          "type": "bytes32"
        },
        {
          "internalType": "uint256",
          "name": "_subId",
          "type": "uint256"
        }
      ],
      "stateMutability": "nonpayable",
      "type": "constructor"
    },
    {
      "inputs": [
        {
          "internalType": "address",
          "name": "target",
          "type": "address"
        }
      ],
      "name": "AddressEmptyCode",
      "type": "error"
    },
    {
      "inputs": [
        {
          "internalType": "address",
          "name": "account",
          "type": "address"
        }
      ],
      "name": "AddressInsufficientBalance",
      "type": "error"
    },
    {
      "inputs": [],
      "name": "AlreadyClaimed",
      "type": "error"
    },
    {
      "inputs": [],
      "name": "AutomationPaused",
      "type": "error"
    },
    {
      "inputs": [],
      "name": "BatchDone",
      "type": "error"
    },
    {
      "inputs": [
        {
          "internalType": "address",
          "name": "sender",
          "type": "address"
        },
        {
          "internalType": "uint256",
          "name": "tokenId",
          "type": "uint256"
        },
        {
          "internalType": "address",
          "name": "owner",
          "type": "address"
        }
      ],
      "name": "ERC721IncorrectOwner",
      "type": "error"
    },
    {
      "inputs": [
        {
          "internalType": "address",
          "name": "operator",
          "type": "address"
        },
        {
          "internalType": "uint256",
          "name": "tokenId",
          "type": "uint256"
        }
      ],
      "name": "ERC721InsufficientApproval",
      "type": "error"
    },
    {
      "inputs": [
        {
          "internalType": "address",
          "name": "approver",
          "type": "address"
        }
      ],
      "name": "ERC721InvalidApprover",
      "type": "error"
    },
    {
      "inputs": [
        {
          "internalType": "address",
          "name": "operator",
          "type": "address"
        }
      ],
      "name": "ERC721InvalidOperator",
      "type": "error"
    },
    {
      "inputs": [
        {
          "internalType": "address",
          "name": "owner",
          "type": "address"
        }
      ],
      "name": "ERC721InvalidOwner",
      "type": "error"
    },
    {
      "inputs": [
        {
          "internalType": "address",
          "name": "receiver",
          "type": "address"
        }
      ],
      "name": "ERC721InvalidReceiver",
      "type": "error"
    },
    {
      "inputs": [
        {
          "internalType": "address",
          "name": "sender",
          "type": "address"
        }
      ],
      "name": "ERC721InvalidSender",
      "type": "error"
    },
    {
      "inputs": [
        {
          "internalType": "uint256",
          "name": "tokenId",
          "type": "uint256"
        }
      ],
      "name": "ERC721NonexistentToken",
      "type": "error"
    },
    {
      "inputs": [],
      "name": "EmergencyPaused",
      "type": "error"
    },
    {
      "inputs": [],
      "name": "FailedInnerCall",
      "type": "error"
    },
    {
      "inputs": [],
      "name": "InvalidEmoji",
      "type": "error"
    },
    {
      "inputs": [],
      "name": "NotWinner",
      "type": "error"
    },
    {
      "inputs": [
        {
          "internalType": "address",
          "name": "have",
          "type": "address"
        },
        {
          "internalType": "address",
          "name": "want",
          "type": "address"
        }
      ],
      "name": "OnlyCoordinatorCanFulfill",
      "type": "error"
    },
    {
      "inputs": [
        {
          "internalType": "address",
          "name": "owner",
          "type": "address"
        }
      ],
      "name": "OwnableInvalidOwner",
      "type": "error"
    },
    {
      "inputs": [
        {
          "internalType": "address",
          "name": "account",
          "type": "address"
        }
      ],
      "name": "OwnableUnauthorizedAccount",
      "type": "error"
    },
    {
      "inputs": [],
      "name": "ReentrancyGuardReentrantCall",
      "type": "error"
    },
    {
      "inputs": [
        {
          "internalType": "address",
          "name": "token",
          "type": "address"
        }
      ],
      "name": "SafeERC20FailedOperation",
      "type": "error"
    },
    {
      "inputs": [],
      "name": "TooEarly",
      "type": "error"
    },
    {
      "inputs": [],
      "name": "TooLate",
      "type": "error"
    },
    {
      "anonymous": false,
      "inputs": [
        {
          "indexed": true,
          "internalType": "address",
          "name": "owner",
          "type": "address"
        },
        {
          "indexed": true,
          "internalType": "address",
          "name": "approved",
          "type": "address"
        },
        {
          "indexed": true,
          "internalType": "uint256",
          "name": "tokenId",
          "type": "uint256"
        }
      ],
      "name": "Approval",
      "type": "event"
    },
    {
      "anonymous": false,
      "inputs": [
        {
          "indexed": true,
          "internalType": "address",
          "name": "owner",
          "type": "address"
        },
        {
          "indexed": true,
          "internalType": "address",
          "name": "operator",
          "type": "address"
        },
        {
          "indexed": false,
          "internalType": "bool",
          "name": "approved",
          "type": "bool"
        }
      ],
      "name": "ApprovalForAll",
      "type": "event"
    },
    {
      "anonymous": false,
      "inputs": [
        {
          "indexed": true,
          "internalType": "uint24",
          "name": "day",
          "type": "uint24"
        },
        {
          "indexed": false,
          "internalType": "uint256",
          "name": "from",
          "type": "uint256"
        },
        {
          "indexed": false,
          "internalType": "uint256",
          "name": "to",
          "type": "uint256"
        }
      ],
      "name": "BatchProcessed",
      "type": "event"
    },
    {
      "anonymous": false,
      "inputs": [
        {
          "indexed": false,
          "internalType": "address",
          "name": "to",
          "type": "address"
        },
        {
          "indexed": false,
          "internalType": "uint256",
          "name": "amount",
          "type": "uint256"
        }
      ],
      "name": "DevelopmentWithdrawn",
      "type": "event"
    },
    {
      "anonymous": false,
      "inputs": [
        {
          "indexed": true,
          "internalType": "uint24",
          "name": "day",
          "type": "uint24"
        },
        {
          "indexed": false,
          "internalType": "uint8[4]",
          "name": "numbers",
          "type": "uint8[4]"
        }
      ],
      "name": "DrawNumbers",
      "type": "event"
    },
    {
      "anonymous": false,
      "inputs": [
        {
          "indexed": true,
          "internalType": "uint24",
          "name": "nextDay",
          "type": "uint24"
        },
        {
          "indexed": false,
          "internalType": "uint256",
          "name": "drawTimestamp",
          "type": "uint256"
        }
      ],
      "name": "NextDrawScheduled",
      "type": "event"
    },
    {
      "anonymous": false,
      "inputs": [
        {
          "indexed": true,
          "internalType": "address",
          "name": "previousOwner",
          "type": "address"
        },
        {
          "indexed": true,
          "internalType": "address",
          "name": "newOwner",
          "type": "address"
        }
      ],
      "name": "OwnershipTransferred",
      "type": "event"
    },
    {
      "anonymous": false,
      "inputs": [
        {
          "indexed": true,
          "internalType": "uint24",
          "name": "day",
          "type": "uint24"
        },
        {
          "indexed": true,
          "internalType": "uint256",
          "name": "ticketId",
          "type": "uint256"
        },
        {
          "indexed": false,
          "internalType": "address",
          "name": "winner",
          "type": "address"
        },
        {
          "indexed": false,
          "internalType": "uint8",
          "name": "level",
          "type": "uint8"
        },
        {
          "indexed": false,
          "internalType": "uint256",
          "name": "amount",
          "type": "uint256"
        }
      ],
      "name": "PrizeClaimed",
      "type": "event"
    },
    {
      "anonymous": false,
      "inputs": [
        {
          "indexed": true,
          "internalType": "uint24",
          "name": "day",
          "type": "uint24"
        },
        {
          "indexed": false,
          "internalType": "uint32",
          "name": "first",
          "type": "uint32"
        },
        {
          "indexed": false,
          "internalType": "uint32",
          "name": "second",
          "type": "uint32"
        },
        {
          "indexed": false,
          "internalType": "uint32",
          "name": "third",
          "type": "uint32"
        }
      ],
      "name": "PrizesCalculated",
      "type": "event"
    },
    {
      "anonymous": false,
      "inputs": [
        {
          "indexed": true,
          "internalType": "address",
          "name": "player",
          "type": "address"
        },
        {
          "indexed": true,
          "internalType": "uint256",
          "name": "ticketId",
          "type": "uint256"
        },
        {
          "indexed": true,
          "internalType": "uint24",
          "name": "day",
          "type": "uint24"
        }
      ],
      "name": "TicketPurchased",
      "type": "event"
    },
    {
      "anonymous": false,
      "inputs": [
        {
          "indexed": true,
          "internalType": "address",
          "name": "from",
          "type": "address"
        },
        {
          "indexed": true,
          "internalType": "address",
          "name": "to",
          "type": "address"
        },
        {
          "indexed": true,
          "internalType": "uint256",
          "name": "tokenId",
          "type": "uint256"
        }
      ],
      "name": "Transfer",
      "type": "event"
    },
    {
      "anonymous": false,
      "inputs": [
        {
          "indexed": true,
          "internalType": "uint256",
          "name": "requestId",
          "type": "uint256"
        },
        {
          "indexed": true,
          "internalType": "uint24",
          "name": "day",
          "type": "uint24"
        }
      ],
      "name": "VRFRequested",
      "type": "event"
    },
    {
      "inputs": [],
      "name": "VRF_CALLBACK_GAS_LIMIT",
      "outputs": [
        {
          "internalType": "uint32",
          "name": "",
          "type": "uint32"
        }
      ],
      "stateMutability": "view",
      "type": "function"
    },
    {
      "inputs": [],
      "name": "VRF_CONFIRMATIONS",
      "outputs": [
        {
          "internalType": "uint16",
          "name": "",
          "type": "uint16"
        }
      ],
      "stateMutability": "view",
      "type": "function"
    },
    {
      "inputs": [],
      "name": "VRF_NUM_WORDS",
      "outputs": [
        {
          "internalType": "uint32",
          "name": "",
          "type": "uint32"
        }
      ],
      "stateMutability": "view",
      "type": "function"
    },
    {
      "inputs": [
        {
          "internalType": "address",
          "name": "to",
          "type": "address"
        },
        {
          "internalType": "uint256",
          "name": "tokenId",
          "type": "uint256"
        }
      ],
      "name": "approve",
      "outputs": [],
      "stateMutability": "nonpayable",
      "type": "function"
    },
    {
      "inputs": [],
      "name": "automationActive",
      "outputs": [
        {
          "internalType": "bool",
          "name": "",
          "type": "bool"
        }
      ],
      "stateMutability": "view",
      "type": "function"
    },
    {
      "inputs": [
        {
          "internalType": "address",
          "name": "owner",
          "type": "address"
        }
      ],
      "name": "balanceOf",
      "outputs": [
        {
          "internalType": "uint256",
          "name": "",
          "type": "uint256"
        }
      ],
      "stateMutability": "view",
      "type": "function"
    },
    {
      "inputs": [
        {
          "internalType": "uint8[4]",
          "name": "emojiNumbers",
          "type": "uint8[4]"
        }
      ],
      "name": "buyTicket",
      "outputs": [],
      "stateMutability": "nonpayable",
      "type": "function"
    },
    {
      "inputs": [
        {
          "internalType": "bytes",
          "name": "",
          "type": "bytes"
        }
      ],
      "name": "checkUpkeep",
      "outputs": [
        {
          "internalType": "bool",
          "name": "upkeepNeeded",
          "type": "bool"
        },
        {
          "internalType": "bytes",
          "name": "performData",
          "type": "bytes"
        }
      ],
      "stateMutability": "view",
      "type": "function"
    },
    {
      "inputs": [
        {
          "internalType": "uint256",
          "name": "ticketId",
          "type": "uint256"
        }
      ],
      "name": "claimPrize",
      "outputs": [],
      "stateMutability": "nonpayable",
      "type": "function"
    },
    {
      "inputs": [],
      "name": "currentGameDay",
      "outputs": [
        {
          "internalType": "uint24",
          "name": "",
          "type": "uint24"
        }
      ],
      "stateMutability": "view",
      "type": "function"
    },
    {
      "inputs": [],
      "name": "dailyDrawHourUTC",
      "outputs": [
        {
          "internalType": "uint8",
          "name": "",
          "type": "uint8"
        }
      ],
      "stateMutability": "view",
      "type": "function"
    },
    {
      "inputs": [
        {
          "internalType": "uint24",
          "name": "",
          "type": "uint24"
        }
      ],
      "name": "dayResults",
      "outputs": [
        {
          "internalType": "uint32",
          "name": "processingIndex",
          "type": "uint32"
        },
        {
          "internalType": "uint32",
          "name": "winnersFirst",
          "type": "uint32"
        },
        {
          "internalType": "uint32",
          "name": "winnersSecond",
          "type": "uint32"
        },
        {
          "internalType": "uint32",
          "name": "winnersThird",
          "type": "uint32"
        },
        {
          "internalType": "bool",
          "name": "fullyProcessed",
          "type": "bool"
        }
      ],
      "stateMutability": "view",
      "type": "function"
    },
    {
      "inputs": [],
      "name": "emergencyPause",
      "outputs": [
        {
          "internalType": "bool",
          "name": "",
          "type": "bool"
        }
      ],
      "stateMutability": "view",
      "type": "function"
    },
    {
      "inputs": [
        {
          "internalType": "uint256",
          "name": "tokenId",
          "type": "uint256"
        }
      ],
      "name": "getApproved",
      "outputs": [
        {
          "internalType": "address",
          "name": "",
          "type": "address"
        }
      ],
      "stateMutability": "view",
      "type": "function"
    },
    {
      "inputs": [
        {
          "internalType": "address",
          "name": "owner",
          "type": "address"
        },
        {
          "internalType": "address",
          "name": "operator",
          "type": "address"
        }
      ],
      "name": "isApprovedForAll",
      "outputs": [
        {
          "internalType": "bool",
          "name": "",
          "type": "bool"
        }
      ],
      "stateMutability": "view",
      "type": "function"
    },
    {
      "inputs": [],
      "name": "name",
      "outputs": [
        {
          "internalType": "string",
          "name": "",
          "type": "string"
        }
      ],
      "stateMutability": "view",
      "type": "function"
    },
    {
      "inputs": [],
      "name": "nextDrawTs",
      "outputs": [
        {
          "internalType": "uint256",
          "name": "",
          "type": "uint256"
        }
      ],
      "stateMutability": "view",
      "type": "function"
    },
    {
      "inputs": [],
      "name": "owner",
      "outputs": [
        {
          "internalType": "address",
          "name": "",
          "type": "address"
        }
      ],
      "stateMutability": "view",
      "type": "function"
    },
    {
      "inputs": [
        {
          "internalType": "uint256",
          "name": "tokenId",
          "type": "uint256"
        }
      ],
      "name": "ownerOf",
      "outputs": [
        {
          "internalType": "address",
          "name": "",
          "type": "address"
        }
      ],
      "stateMutability": "view",
      "type": "function"
    },
    {
      "inputs": [],
      "name": "paymentToken",
      "outputs": [
        {
          "internalType": "contract IERC20",
          "name": "",
          "type": "address"
        }
      ],
      "stateMutability": "view",
      "type": "function"
    },
    {
      "inputs": [
        {
          "internalType": "bytes",
          "name": "",
          "type": "bytes"
        }
      ],
      "name": "performUpkeep",
      "outputs": [],
      "stateMutability": "nonpayable",
      "type": "function"
    },
    {
      "inputs": [],
      "name": "pools",
      "outputs": [
        {
          "internalType": "uint256",
          "name": "firstPrize",
          "type": "uint256"
        },
        {
          "internalType": "uint256",
          "name": "secondPrize",
          "type": "uint256"
        },
        {
          "internalType": "uint256",
          "name": "thirdPrize",
          "type": "uint256"
        },
        {
          "internalType": "uint256",
          "name": "devPool",
          "type": "uint256"
        },
        {
          "internalType": "uint256",
          "name": "firstReserve",
          "type": "uint256"
        },
        {
          "internalType": "uint256",
          "name": "secondReserve",
          "type": "uint256"
        },
        {
          "internalType": "uint256",
          "name": "thirdReserve",
          "type": "uint256"
        }
      ],
      "stateMutability": "view",
      "type": "function"
    },
    {
      "inputs": [
        {
          "internalType": "uint24",
          "name": "day",
          "type": "uint24"
        },
        {
          "internalType": "uint256",
          "name": "batchSize",
          "type": "uint256"
        }
      ],
      "name": "processDrawBatch",
      "outputs": [],
      "stateMutability": "nonpayable",
      "type": "function"
    },
    {
      "inputs": [
        {
          "internalType": "uint256",
          "name": "requestId",
          "type": "uint256"
        },
        {
          "internalType": "uint256[]",
          "name": "randomWords",
          "type": "uint256[]"
        }
      ],
      "name": "rawFulfillRandomWords",
      "outputs": [],
      "stateMutability": "nonpayable",
      "type": "function"
    },
    {
      "inputs": [],
      "name": "renounceOwnership",
      "outputs": [],
      "stateMutability": "nonpayable",
      "type": "function"
    },
    {
      "inputs": [
        {
          "internalType": "address",
          "name": "from",
          "type": "address"
        },
        {
          "internalType": "address",
          "name": "to",
          "type": "address"
        },
        {
          "internalType": "uint256",
          "name": "tokenId",
          "type": "uint256"
        }
      ],
      "name": "safeTransferFrom",
      "outputs": [],
      "stateMutability": "nonpayable",
      "type": "function"
    },
    {
      "inputs": [
        {
          "internalType": "address",
          "name": "from",
          "type": "address"
        },
        {
          "internalType": "address",
          "name": "to",
          "type": "address"
        },
        {
          "internalType": "uint256",
          "name": "tokenId",
          "type": "uint256"
        },
        {
          "internalType": "bytes",
          "name": "data",
          "type": "bytes"
        }
      ],
      "name": "safeTransferFrom",
      "outputs": [],
      "stateMutability": "nonpayable",
      "type": "function"
    },
    {
      "inputs": [
        {
          "internalType": "address",
          "name": "operator",
          "type": "address"
        },
        {
          "internalType": "bool",
          "name": "approved",
          "type": "bool"
        }
      ],
      "name": "setApprovalForAll",
      "outputs": [],
      "stateMutability": "nonpayable",
      "type": "function"
    },
    {
      "inputs": [
        {
          "internalType": "bytes4",
          "name": "interfaceId",
          "type": "bytes4"
        }
      ],
      "name": "supportsInterface",
      "outputs": [
        {
          "internalType": "bool",
          "name": "",
          "type": "bool"
        }
      ],
      "stateMutability": "view",
      "type": "function"
    },
    {
      "inputs": [],
      "name": "symbol",
      "outputs": [
        {
          "internalType": "string",
          "name": "",
          "type": "string"
        }
      ],
      "stateMutability": "view",
      "type": "function"
    },
    {
      "inputs": [],
      "name": "ticketPrice",
      "outputs": [
        {
          "internalType": "uint256",
          "name": "",
          "type": "uint256"
        }
      ],
      "stateMutability": "view",
      "type": "function"
    },
    {
      "inputs": [
        {
          "internalType": "uint256",
          "name": "",
          "type": "uint256"
        }
      ],
      "name": "tickets",
      "outputs": [
        {
          "internalType": "uint40",
          "name": "purchaseTime",
          "type": "uint40"
        },
        {
          "internalType": "uint24",
          "name": "gameDay",
          "type": "uint24"
        },
        {
          "internalType": "bool",
          "name": "claimed",
          "type": "bool"
        }
      ],
      "stateMutability": "view",
      "type": "function"
    },
    {
      "inputs": [],
      "name": "toggleAutomation",
      "outputs": [],
      "stateMutability": "nonpayable",
      "type": "function"
    },
    {
      "inputs": [],
      "name": "toggleEmergencyPause",
      "outputs": [],
      "stateMutability": "nonpayable",
      "type": "function"
    },
    {
      "inputs": [
        {
          "internalType": "uint256",
          "name": "tokenId",
          "type": "uint256"
        }
      ],
      "name": "tokenURI",
      "outputs": [
        {
          "internalType": "string",
          "name": "",
          "type": "string"
        }
      ],
      "stateMutability": "view",
      "type": "function"
    },
    {
      "inputs": [
        {
          "internalType": "address",
          "name": "from",
          "type": "address"
        },
        {
          "internalType": "address",
          "name": "to",
          "type": "address"
        },
        {
          "internalType": "uint256",
          "name": "tokenId",
          "type": "uint256"
        }
      ],
      "name": "transferFrom",
      "outputs": [],
      "stateMutability": "nonpayable",
      "type": "function"
    },
    {
      "inputs": [
        {
          "internalType": "address",
          "name": "newOwner",
          "type": "address"
        }
      ],
      "name": "transferOwnership",
      "outputs": [],
      "stateMutability": "nonpayable",
      "type": "function"
    },
    {
      "inputs": [],
      "name": "vrfKeyHash",
      "outputs": [
        {
          "internalType": "bytes32",
          "name": "",
          "type": "bytes32"
        }
      ],
      "stateMutability": "view",
      "type": "function"
    },
    {
      "inputs": [],
      "name": "vrfSubId",
      "outputs": [
        {
          "internalType": "uint256",
          "name": "",
          "type": "uint256"
        }
      ],
      "stateMutability": "view",
      "type": "function"
    },
    {
      "inputs": [
        {
          "internalType": "address",
          "name": "to",
          "type": "address"
        }
      ],
      "name": "withdrawDevelopment",
      "outputs": [],
      "stateMutability": "nonpayable",
      "type": "function"
    }
  ],
  "bytecode": "0x6101606040526009805462ffffff19166001908117909155600a8190556016805461ffff191690911790553480156200003757600080fd5b50604051620034d0380380620034d08339810160408190526200005a91620002ae565b82336040518060400160405280601081526020016f131bdd1d1bd35bda9a48151a58dad95d60821b815250604051806040016040528060058152602001644c4d4a544b60d81b8152508160009081620000b49190620003c0565b506001620000c38282620003c0565b5050506001600160a01b038116620000f657604051631e4fbdf760e01b8152600060048201526024015b60405180910390fd5b6200010181620001d7565b5060016007556001600160a01b0316608052601860ff871610620001525760405162461bcd60e51b81526020600482015260076024820152661a1bdd5c8f0c8d60ca1b6044820152606401620000ed565b60ff861660a0526001600160a01b0380861660e05260c08590528316610100526101208290526101408190526200018a428762000229565b600881905560095460405191825262ffffff16907f70aba4eecfb00a70e5aae193521bc256fc3cbf7a91479f6bcda4b5a82f9869619060200160405180910390a2505050505050620004f5565b600680546001600160a01b038381166001600160a01b0319831681179093556040519116919082907f8be0079c531659141344cd1fd0a4f28419497f9722a3daafe3b4186f6b6457e090600090a35050565b6000806200023b6201518085620004a2565b6200024a9062015180620004c5565b905060006200025f60ff8516610e10620004c5565b6200026b9083620004df565b90508481116200028757620002846201518082620004df565b90505b9150505b92915050565b80516001600160a01b0381168114620002a957600080fd5b919050565b60008060008060008060c08789031215620002c857600080fd5b865160ff81168114620002da57600080fd5b9550620002ea6020880162000291565b945060408701519350620003016060880162000291565b92506080870151915060a087015190509295509295509295565b634e487b7160e01b600052604160045260246000fd5b600181811c908216806200034657607f821691505b6020821081036200036757634e487b7160e01b600052602260045260246000fd5b50919050565b601f821115620003bb57600081815260208120601f850160051c81016020861015620003965750805b601f850160051c820191505b81811015620003b757828155600101620003a2565b5050505b505050565b81516001600160401b03811115620003dc57620003dc6200031b565b620003f481620003ed845462000331565b846200036d565b602080601f8311600181146200042c5760008415620004135750858301515b600019600386901b1c1916600185901b178555620003b7565b600085815260208120601f198616915b828110156200045d578886015182559484019460019091019084016200043c565b50858210156200047c5787850151600019600388901b60f8161c191681555b5050505050600190811b01905550565b634e487b7160e01b600052601160045260246000fd5b600082620004c057634e487b7160e01b600052601260045260246000fd5b500490565b80820281158282048414176200028b576200028b6200048c565b808201808211156200028b576200028b6200048c565b60805160a05160c05160e051610100516101205161014051612f416200058f600039600081816103a30152611ad101526000818161027a0152611aa201526000611b1201526000818161037c01528181610a0a015281816113d3015261147a01526000818161032701528181610a2e0152818161137a01526118e70152600061052d01526000818161084301526108850152612f416000f3fe608060405234801561001057600080fd5b50600436106102485760003560e01c80635d58f9301161013b578063b88d4fde116100b8578063d70981541161007c578063d70981541461061d578063d96226a214610630578063e8cfbe69146106be578063e985e9c5146106d1578063f2fde38b146106e457600080fd5b8063b88d4fde1461058d578063c5c51dca146105a0578063c87b56dd146105f7578063c8d519191461060a578063d01ed8a31461061357600080fd5b8063715018a6116100ff578063715018a6146105205780638d6ef595146105285780638da5cb5b1461056157806395d89b4114610572578063a22cb4651461057a57600080fd5b80635d58f930146104b95780636352211e146104cc5780636baf4a74146104df5780636e04ff0d146104ec57806370a082311461050d57600080fd5b80633013ce29116101c95780634585e33b1161018d5780634585e33b146104065780634f687e911461041957806350b447121461042157806351858e271461048a5780635c900a1a1461049c57600080fd5b80633013ce2914610377578063326156401461039e5780633d4962ed146103c557806340985c98146103d857806342842e0e146103f357600080fd5b80630d50cdb9116102105780630d50cdb9146102ff5780631209b1f614610322578063147e291f146103495780631fe543e31461035157806323b872dd1461036457600080fd5b806301ffc9a71461024d578063041d443e1461027557806306fdde03146102aa578063081812fc146102bf578063095ea7b3146102ea575b600080fd5b61026061025b366004612877565b6106f7565b60405190151581526020015b60405180910390f35b61029c7f000000000000000000000000000000000000000000000000000000000000000081565b60405190815260200161026c565b6102b2610749565b60405161026c91906128e4565b6102d26102cd3660046128f7565b6107db565b6040516001600160a01b03909116815260200161026c565b6102fd6102f836600461292c565b610804565b005b60095461030e9062ffffff1681565b60405162ffffff909116815260200161026c565b61029c7f000000000000000000000000000000000000000000000000000000000000000081565b6102fd610813565b6102fd61035f36600461299d565b610838565b6102fd610372366004612a4f565b6108c1565b6102d27f000000000000000000000000000000000000000000000000000000000000000081565b61029c7f000000000000000000000000000000000000000000000000000000000000000081565b6102fd6103d3366004612a8b565b61094c565b6103e0600381565b60405161ffff909116815260200161026c565b6102fd610401366004612a4f565b610b9f565b6102fd610414366004612ab3565b610bbf565b6102fd610cca565b61046161042f3660046128f7565b600b602052600090815260409020805460029091015464ffffffffff821691600160281b900462ffffff169060ff1683565b6040805164ffffffffff909416845262ffffff909216602084015215159082015260600161026c565b60165461026090610100900460ff1681565b6104a4600181565b60405163ffffffff909116815260200161026c565b6102fd6104c7366004612b38565b610ce6565b6102d26104da3660046128f7565b610f75565b6016546102609060ff1681565b6104ff6104fa366004612ab3565b610f80565b60405161026c929190612b54565b61029c61051b366004612b6f565b610fc9565b6102fd611011565b61054f7f000000000000000000000000000000000000000000000000000000000000000081565b60405160ff909116815260200161026c565b6006546001600160a01b03166102d2565b6102b2611025565b6102fd610588366004612b98565b611034565b6102fd61059b366004612bcf565b61103f565b600d54600e54600f546010546011546012546013546105c29695949392919087565b604080519788526020880196909652948601939093526060850191909152608084015260a083015260c082015260e00161026c565b6102b26106053660046128f7565b611056565b61029c60085481565b6104a4620493e081565b6102fd61062b3660046128f7565b6110cb565b61068661063e366004612c8f565b60146020526000908152604090206001015463ffffffff808216916401000000008104821691600160401b8204811691600160601b810490911690600160801b900460ff1685565b6040805163ffffffff96871681529486166020860152928516928401929092529092166060820152901515608082015260a00161026c565b6102fd6106cc366004612b6f565b61145c565b6102606106df366004612caa565b6114e7565b6102fd6106f2366004612b6f565b611515565b60006001600160e01b031982166380ac58cd60e01b148061072857506001600160e01b03198216635b5e139f60e01b145b8061074357506301ffc9a760e01b6001600160e01b03198316145b92915050565b60606000805461075890612cdd565b80601f016020809104026020016040519081016040528092919081815260200182805461078490612cdd565b80156107d15780601f106107a6576101008083540402835291602001916107d1565b820191906000526020600020905b8154815290600101906020018083116107b457829003601f168201915b5050505050905090565b60006107e682611550565b506000828152600460205260409020546001600160a01b0316610743565b61080f828233611589565b5050565b61081b611596565b6016805461ff001981166101009182900460ff1615909102179055565b336001600160a01b037f000000000000000000000000000000000000000000000000000000000000000016146108b75760405163073e64fd60e21b81523360048201526001600160a01b037f00000000000000000000000000000000000000000000000000000000000000001660248201526044015b60405180910390fd5b61080f82826115c3565b6001600160a01b0382166108eb57604051633250574960e11b8152600060048201526024016108ae565b60006108f883833361171b565b9050836001600160a01b0316816001600160a01b031614610946576040516364283d7b60e01b81526001600160a01b03808616600483015260248201849052821660448201526064016108ae565b50505050565b610954611814565b601654610100900460ff161561097d57604051634cb3183d60e01b815260040160405180910390fd5b600854421061099f5760405163ecdd1c2960e01b815260040160405180910390fd5b60005b60048110156109fc5760188282600481106109bf576109bf612d11565b6020020160208101906109d29190612d27565b60ff1611156109f4576040516308214f1760e21b815260040160405180910390fd5b6001016109a2565b50610a526001600160a01b037f00000000000000000000000000000000000000000000000000000000000000001633307f000000000000000000000000000000000000000000000000000000000000000061183e565b600a805460009182610a6383612d60565b919050559050610a7333826118a5565b604080516080808201835264ffffffffff4216825260095462ffffff1660208301528251808201845291928301919085906004908390839080828437600092018290525092845250506020918201819052838152600b8252604090819020835181549385015162ffffff16600160281b0267ffffffffffffffff1990941664ffffffffff90911617929092178255820151610b14906001830190600461279a565b50606091909101516002909101805460ff19169115159190911790556009805462ffffff9081166000908152600c602090815260408083208054600181018255908452918320909101859055925492519290911691839133917f12eee7f99ea5c9c160467d40a467f18c62607b8d43607d0840f168cc2b55b2e49190a450610b9c6001600755565b50565b610bba8383836040518060200160405280600081525061103f565b505050565b60165460ff161580610bd85750601654610100900460ff165b15610bf65760405163fc5eaefd60e01b815260040160405180910390fd5b600854421015610c195760405163085de62560e01b815260040160405180910390fd5b60095462ffffff16610c2a816118bf565b610c3381611a93565b6009805460019190600090610c4e90849062ffffff16612d79565b92506101000a81548162ffffff021916908362ffffff1602179055506201518060086000828254610c7f9190612d9c565b909155505060095460085460405190815262ffffff909116907f70aba4eecfb00a70e5aae193521bc256fc3cbf7a91479f6bcda4b5a82f9869619060200160405180910390a2505050565b610cd2611596565b6016805460ff19811660ff90911615179055565b801580610cf4575061012c81115b15610cfe575061012c5b62ffffff821660009081526014602052604090206001810154600160801b900460ff1615610d3f57604051631454e6c760e01b815260040160405180910390fd5b62ffffff83166000908152600c602052604081206001830154909163ffffffff90911690610d6d8583612d9c565b8354909150811115610d7d575081545b815b81811015610dbd57610dad848281548110610d9c57610d9c612d11565b906000526020600020015486611bd9565b610db681612d60565b9050610d7f565b5060018401805463ffffffff191663ffffffff8316179055604080518381526020810183905262ffffff8816917f95f2647279697d92fbfbd24a0e306c284798157a253e2126ebf1451515f6fbd9910160405180910390a282548103610f6d5760018401805460ff60801b1916600160801b17908190556040805163ffffffff640100000000840481168252600160401b840481166020830152600160601b9093049092169082015262ffffff8716907f9094b2b67842abb4391fc6c54030e03d20642491efeb4eda225641eac3b101279060600160405180910390a26001840154640100000000900463ffffffff1615801590610ebc575060115415155b15610ee157601154600d8054600090610ed6908490612d9c565b909155505060006011555b6001840154600160401b900463ffffffff1615801590610f02575060125415155b15610f2757601254600e8054600090610f1c908490612d9c565b909155505060006012555b6001840154600160601b900463ffffffff1615801590610f48575060135415155b15610f6d57601354600f8054600090610f62908490612d9c565b909155505060006013555b505050505050565b600061074382611550565b60165460009060609060ff168015610fa05750601654610100900460ff16155b8015610fae57506008544210155b91506040518060200160405280600081525090509250929050565b60006001600160a01b038216610ff5576040516322718ad960e21b8152600060048201526024016108ae565b506001600160a01b031660009081526003602052604090205490565b611019611596565b6110236000611e60565b565b60606001805461075890612cdd565b61080f338383611eb2565b61104a8484846108c1565b61094684848484611f51565b606061106182611550565b50600061107960408051602081019091526000815290565b9050600081511161109957604051806020016040528060008152506110c4565b806110a38461207a565b6040516020016110b4929190612daf565b6040516020818303038152906040525b9392505050565b6110d3611814565b6000818152600b60205260409020600281015460ff161561110757604051630c8d9eab60e31b815260040160405180910390fd5b3361111183610f75565b6001600160a01b031614611138576040516330c6392160e11b815260040160405180910390fd5b8054600160281b900462ffffff1660009081526014602052604090206001810154600160801b900460ff1661119f5760405162461bcd60e51b815260206004820152600d60248201526c646179206e6f7420726561647960981b60448201526064016108ae565b604080516080810191829052600091611241919060018601906004908286855b825461010083900a900460ff168152602060019283018181049485019490930390920291018084116111bf5750506040805160808101918290529450889350600492509050826000855b825461010083900a900460ff16815260206001928301818104948501949093039092029101808411611209579050505050505061210d565b905060008160ff16600114801561126957506001830154640100000000900463ffffffff1615155b156112b0576001830154600d5461128e91640100000000900463ffffffff1690612df4565b905080600d60000160008282546112a59190612e08565b909155506113b79050565b8160ff1660021480156112d357506001830154600160401b900463ffffffff1615155b1561130e576001830154600e546112f791600160401b900463ffffffff1690612df4565b905080600d60010160008282546112a59190612e08565b8160ff16600314801561133157506001830154600160601b900463ffffffff1615155b1561136c576001830154600f5461135591600160601b900463ffffffff1690612df4565b905080600d60020160008282546112a59190612e08565b8160ff1660040361139e57507f00000000000000000000000000000000000000000000000000000000000000006113b7565b6040516330c6392160e11b815260040160405180910390fd5b60028401805460ff191660011790556113fa6001600160a01b037f00000000000000000000000000000000000000000000000000000000000000001633836122b2565b83546040805133815260ff851660208201529081018390528691600160281b900462ffffff16907ffa7d7e6fad77bb2eb32e03cd3103bcb3df591ea9338a7395a149d9c180a170c79060600160405180910390a350505050610b9c6001600755565b611464611596565b6010805460009091556114a16001600160a01b037f00000000000000000000000000000000000000000000000000000000000000001683836122b2565b604080516001600160a01b0384168152602081018390527fc32a4a91927ebe92c55e1f8cd216c8a1d74e53b9b0a82b6b982e5dd3ac71af03910160405180910390a15050565b6001600160a01b03918216600090815260056020908152604080832093909416825291909152205460ff1690565b61151d611596565b6001600160a01b03811661154757604051631e4fbdf760e01b8152600060048201526024016108ae565b610b9c81611e60565b6000818152600260205260408120546001600160a01b03168061074357604051637e27328960e01b8152600481018490526024016108ae565b610bba83838360016122e3565b6006546001600160a01b031633146110235760405163118cdaa760e01b81523360048201526024016108ae565b60008281526015602090815260408083205462ffffff1680845260149092528220835191929091849082906115fa576115fa612d11565b602002602001015190506019816116119190612e1b565b825460ff191660ff9190911617825560081c61162e601982612e1b565b825460ff919091166101000261ff001990911617825560081c611652601982612e1b565b825460ff91909116620100000262ff00001990911617825560081c611678601982612e1b565b825463ff000000198116630100000060ff9384160290811780865560018601805470ff000000000000000000000000ffffffff1916905560408051928516938516939093178252600881901c84166020830152601081901c84168284015260181c90921660608301525162ffffff8516917f9dedf238b51cb2f65e712b6f39ab9f3e89a6268d251b582c9ceec37e6ddfba63919081900360800190a25050505050565b6000828152600260205260408120546001600160a01b0390811690831615611748576117488184866123e9565b6001600160a01b03811615611786576117656000856000806122e3565b6001600160a01b038116600090815260036020526040902080546000190190555b6001600160a01b038516156117b5576001600160a01b0385166000908152600360205260409020805460010190555b60008481526002602052604080822080546001600160a01b0319166001600160a01b0389811691821790925591518793918516917fddf252ad1be2c89b69c2b068fc378daa952ba7f163c4a11628f55a4df523b3ef91a4949350505050565b60026007540361183757604051633ee5aeb560e01b815260040160405180910390fd5b6002600755565b6040516001600160a01b0384811660248301528381166044830152606482018390526109469186918216906323b872dd906084015b604051602081830303815290604052915060e01b6020820180516001600160e01b03838183161783525050505061244d565b61080f8282604051806020016040528060008152506124b0565b62ffffff81166000908152600c6020526040812054908190036118e0575050565b600061190c7f000000000000000000000000000000000000000000000000000000000000000083612e2f565b90506000606461191d605084612e2f565b6119279190612df4565b905060006064611938601485612e2f565b6119429190612df4565b90506064611951605084612e2f565b61195b9190612df4565b600d805460009061196d908490612d9c565b9091555060649050611980600a84612e2f565b61198a9190612df4565b600e805460009061199c908490612d9c565b90915550606490506119af600584612e2f565b6119b99190612df4565b600f80546000906119cb908490612d9c565b90915550606490506119de600584612e2f565b6119e89190612df4565b601080546000906119fa908490612d9c565b9091555060649050611a0d605083612e2f565b611a179190612df4565b60118054600090611a29908490612d9c565b9091555060649050611a3c600a83612e2f565b611a469190612df4565b60128054600090611a58908490612d9c565b9091555060649050611a6b600a83612e2f565b611a759190612df4565b60138054600090611a87908490612d9c565b90915550505050505050565b6040516305d3b1d360e41b81527f0000000000000000000000000000000000000000000000000000000000000000600482015267ffffffffffffffff7f000000000000000000000000000000000000000000000000000000000000000016602482015260036044820152620493e06064820152600160848201526000907f00000000000000000000000000000000000000000000000000000000000000006001600160a01b031690635d3b1d309060a4016020604051808303816000875af1158015611b63573d6000803e3d6000fd5b505050506040513d601f19601f82011682018060405250810190611b879190612e46565b600081815260156020526040808220805462ffffff191662ffffff871690811790915590519293509183917f6d9c99357d359ebc464c51fb3162f671b2bd8fecd626dd9f4f5e329076aa00f291a35050565b6000828152600b60205260408082208151608081019283905290929184906004908285855b825461010083900a900460ff16815260206001928301818104948501949093039092029101808411611bfe579050505050505090506000805b6004811015611c9957828160048110611c5257611c52612d11565b602002015160ff16846001018260048110611c6f57611c6f612d11565b602081049091015460ff601f9092166101000a90041603611c91578160010191505b600101611c37565b508060ff16600403611cea57600184018054600490611cc590640100000000900463ffffffff16612e5f565b91906101000a81548163ffffffff021916908363ffffffff1602179055505050505050565b8060ff16600303611d1457600184018054600c90611cc590600160601b900463ffffffff16612e5f565b611d1c61282d565b6000805b6004811015611d7c5782866001018260048110611d3f57611d3f612d11565b602081049091015460ff601f9092166101000a90041660198110611d6557611d65612d11565b60200201805160ff60019182011690915201611d20565b5060005b6004811015611e0d57600083868360048110611d9e57611d9e612d11565b602002015160ff1660198110611db657611db6612d11565b602002015160ff161115611e055781600101915082858260048110611ddd57611ddd612d11565b602002015160ff1660198110611df557611df5612d11565b6020020180516000190160ff1690525b600101611d80565b508060ff16600403611e5757600186018054600890611e3890600160401b900463ffffffff16612e5f565b91906101000a81548163ffffffff021916908363ffffffff1602179055505b50505050505050565b600680546001600160a01b038381166001600160a01b0319831681179093556040519116919082907f8be0079c531659141344cd1fd0a4f28419497f9722a3daafe3b4186f6b6457e090600090a35050565b6001600160a01b038216611ee457604051630b61174360e31b81526001600160a01b03831660048201526024016108ae565b6001600160a01b03838116600081815260056020908152604080832094871680845294825291829020805460ff191686151590811790915591519182527f17307eab39ab6107e8899845ad3d59bd9653f200f220920489ca2b5937696c31910160405180910390a3505050565b6001600160a01b0383163b1561094657604051630a85bd0160e11b81526001600160a01b0384169063150b7a0290611f93903390889087908790600401612e82565b6020604051808303816000875af1925050508015611fce575060408051601f3d908101601f19168201909252611fcb91810190612eb5565b60015b612037573d808015611ffc576040519150601f19603f3d011682016040523d82523d6000602084013e612001565b606091505b50805160000361202f57604051633250574960e11b81526001600160a01b03851660048201526024016108ae565b805181602001fd5b6001600160e01b03198116630a85bd0160e11b1461207357604051633250574960e11b81526001600160a01b03851660048201526024016108ae565b5050505050565b60606000612087836124c7565b600101905060008167ffffffffffffffff8111156120a7576120a7612956565b6040519080825280601f01601f1916602001820160405280156120d1576020820181803683370190505b5090508181016020015b600019016f181899199a1a9b1b9c1cb0b131b232b360811b600a86061a8153600a85049450846120db57509392505050565b60008060005b60048110156121645783816004811061212e5761212e612d11565b602002015160ff1685826004811061214857612148612d11565b602002015160ff160361215c578160010191505b600101612113565b508060ff1660040361217a576001915050610743565b8060ff1660030361218f576003915050610743565b61219761282d565b6000805b60048110156121e657828782600481106121b7576121b7612d11565b602002015160ff16601981106121cf576121cf612d11565b60200201805160ff6001918201169091520161219b565b5060005b60048110156122775760008387836004811061220857612208612d11565b602002015160ff166019811061222057612220612d11565b602002015160ff16111561226f578160010191508286826004811061224757612247612d11565b602002015160ff166019811061225f5761225f612d11565b6020020180516000190160ff1690525b6001016121ea565b508060ff1660040361228f5760029350505050610743565b8060ff166003036122a65760049350505050610743565b50600095945050505050565b6040516001600160a01b03838116602483015260448201839052610bba91859182169063a9059cbb90606401611873565b80806122f757506001600160a01b03821615155b156123b957600061230784611550565b90506001600160a01b038316158015906123335750826001600160a01b0316816001600160a01b031614155b8015612346575061234481846114e7565b155b1561236f5760405163a9fbf51f60e01b81526001600160a01b03841660048201526024016108ae565b81156123b75783856001600160a01b0316826001600160a01b03167f8c5be1e5ebec7d5bd14f71427d1e84f3dd0314c0f7b2291e5b200ac8c7c3b92560405160405180910390a45b505b5050600090815260046020526040902080546001600160a01b0319166001600160a01b0392909216919091179055565b6123f483838361259f565b610bba576001600160a01b03831661242257604051637e27328960e01b8152600481018290526024016108ae565b60405163177e802f60e01b81526001600160a01b0383166004820152602481018290526044016108ae565b60006124626001600160a01b03841683612605565b905080516000141580156124875750808060200190518101906124859190612ed2565b155b15610bba57604051635274afe760e01b81526001600160a01b03841660048201526024016108ae565b6124ba8383612613565b610bba6000848484611f51565b60008072184f03e93ff9f4daa797ed6e38ed64bf6a1f0160401b83106125065772184f03e93ff9f4daa797ed6e38ed64bf6a1f0160401b830492506040015b6d04ee2d6d415b85acef81000000008310612532576d04ee2d6d415b85acef8100000000830492506020015b662386f26fc10000831061255057662386f26fc10000830492506010015b6305f5e1008310612568576305f5e100830492506008015b612710831061257c57612710830492506004015b6064831061258e576064830492506002015b600a83106107435760010192915050565b60006001600160a01b038316158015906125fd5750826001600160a01b0316846001600160a01b031614806125d957506125d984846114e7565b806125fd57506000828152600460205260409020546001600160a01b038481169116145b949350505050565b60606110c483836000612678565b6001600160a01b03821661263d57604051633250574960e11b8152600060048201526024016108ae565b600061264b8383600061171b565b90506001600160a01b03811615610bba576040516339e3563760e11b8152600060048201526024016108ae565b60608147101561269d5760405163cd78605960e01b81523060048201526024016108ae565b600080856001600160a01b031684866040516126b99190612eef565b60006040518083038185875af1925050503d80600081146126f6576040519150601f19603f3d011682016040523d82523d6000602084013e6126fb565b606091505b509150915061270b868383612715565b9695505050505050565b60608261272a5761272582612771565b6110c4565b815115801561274157506001600160a01b0384163b155b1561276a57604051639996b31560e01b81526001600160a01b03851660048201526024016108ae565b50806110c4565b8051156127815780518082602001fd5b604051630a12f52160e11b815260040160405180910390fd5b60018301918390821561281d5791602002820160005b838211156127ee57835183826101000a81548160ff021916908360ff16021790555092602001926001016020816000010492830192600103026127b0565b801561281b5782816101000a81549060ff02191690556001016020816000010492830192600103026127ee565b505b5061282992915061284c565b5090565b6040518061032001604052806019906020820280368337509192915050565b5b80821115612829576000815560010161284d565b6001600160e01b031981168114610b9c57600080fd5b60006020828403121561288957600080fd5b81356110c481612861565b60005b838110156128af578181015183820152602001612897565b50506000910152565b600081518084526128d0816020860160208601612894565b601f01601f19169290920160200192915050565b6020815260006110c460208301846128b8565b60006020828403121561290957600080fd5b5035919050565b80356001600160a01b038116811461292757600080fd5b919050565b6000806040838503121561293f57600080fd5b61294883612910565b946020939093013593505050565b634e487b7160e01b600052604160045260246000fd5b604051601f8201601f1916810167ffffffffffffffff8111828210171561299557612995612956565b604052919050565b600080604083850312156129b057600080fd5b8235915060208084013567ffffffffffffffff808211156129d057600080fd5b818601915086601f8301126129e457600080fd5b8135818111156129f6576129f6612956565b8060051b9150612a0784830161296c565b8181529183018401918481019089841115612a2157600080fd5b938501935b83851015612a3f57843582529385019390850190612a26565b8096505050505050509250929050565b600080600060608486031215612a6457600080fd5b612a6d84612910565b9250612a7b60208501612910565b9150604084013590509250925092565b600060808284031215612a9d57600080fd5b82608083011115612aad57600080fd5b50919050565b60008060208385031215612ac657600080fd5b823567ffffffffffffffff80821115612ade57600080fd5b818501915085601f830112612af257600080fd5b813581811115612b0157600080fd5b866020828501011115612b1357600080fd5b60209290920196919550909350505050565b803562ffffff8116811461292757600080fd5b60008060408385031215612b4b57600080fd5b61294883612b25565b82151581526040602082015260006125fd60408301846128b8565b600060208284031215612b8157600080fd5b6110c482612910565b8015158114610b9c57600080fd5b60008060408385031215612bab57600080fd5b612bb483612910565b91506020830135612bc481612b8a565b809150509250929050565b60008060008060808587031215612be557600080fd5b612bee85612910565b93506020612bfd818701612910565b935060408601359250606086013567ffffffffffffffff80821115612c2157600080fd5b818801915088601f830112612c3557600080fd5b813581811115612c4757612c47612956565b612c59601f8201601f1916850161296c565b91508082528984828501011115612c6f57600080fd5b808484018584013760008482840101525080935050505092959194509250565b600060208284031215612ca157600080fd5b6110c482612b25565b60008060408385031215612cbd57600080fd5b612cc683612910565b9150612cd460208401612910565b90509250929050565b600181811c90821680612cf157607f821691505b602082108103612aad57634e487b7160e01b600052602260045260246000fd5b634e487b7160e01b600052603260045260246000fd5b600060208284031215612d3957600080fd5b813560ff811681146110c457600080fd5b634e487b7160e01b600052601160045260246000fd5b600060018201612d7257612d72612d4a565b5060010190565b62ffffff818116838216019080821115612d9557612d95612d4a565b5092915050565b8082018082111561074357610743612d4a565b60008351612dc1818460208801612894565b835190830190612dd5818360208801612894565b01949350505050565b634e487b7160e01b600052601260045260246000fd5b600082612e0357612e03612dde565b500490565b8181038181111561074357610743612d4a565b600082612e2a57612e2a612dde565b500690565b808202811582820484141761074357610743612d4a565b600060208284031215612e5857600080fd5b5051919050565b600063ffffffff808316818103612e7857612e78612d4a565b6001019392505050565b6001600160a01b038581168252841660208201526040810183905260806060820181905260009061270b908301846128b8565b600060208284031215612ec757600080fd5b81516110c481612861565b600060208284031215612ee457600080fd5b81516110c481612b8a565b60008251612f01818460208701612894565b919091019291505056fea2646970667358221220f072cb29bd08ea08d3121022f972ba54894589d9c8c967319211304954675f4d64736f6c63430008140033",
  "linkReferences": {},
  "deployedLinkReferences": {}
}