{"contracts/LottoMojiCoreV2.sol":{"LottoMojiCoreV2":{"abi":[{"inputs":[{"internalType":"uint8","name":"_dailyDrawHourUTC","type":"uint8"},{"internalType":"address","name":"_paymentToken","type":"address"},{"internalType":"uint256","name":"_ticketPrice","type":"uint256"},{"internalType":"address","name":"_vrfCoordinator","type":"address"},{"internalType":"bytes32","name":"_keyHash","type":"bytes32"},{"internalType":"uint64","name":"_subId","type":"uint64"}],"stateMutability":"nonpayable","type":"constructor"},{"inputs":[{"internalType":"address","name":"target","type":"address"}],"name":"AddressEmptyCode","type":"error"},{"inputs":[{"internalType":"address","name":"account","type":"address"}],"name":"AddressInsufficientBalance","type":"error"},{"inputs":[],"name":"AlreadyClaimed","type":"error"},{"inputs":[],"name":"AutomationPaused","type":"error"},{"inputs":[],"name":"BatchOOB","type":"error"},{"inputs":[],"name":"DrawNotReady","type":"error"},{"inputs":[{"internalType":"address","name":"sender","type":"address"},{"internalType":"uint256","name":"tokenId","type":"uint256"},{"internalType":"address","name":"owner","type":"address"}],"name":"ERC721IncorrectOwner","type":"error"},{"inputs":[{"internalType":"address","name":"operator","type":"address"},{"internalType":"uint256","name":"tokenId","type":"uint256"}],"name":"ERC721InsufficientApproval","type":"error"},{"inputs":[{"internalType":"address","name":"approver","type":"address"}],"name":"ERC721InvalidApprover","type":"error"},{"inputs":[{"internalType":"address","name":"operator","type":"address"}],"name":"ERC721InvalidOperator","type":"error"},{"inputs":[{"internalType":"address","name":"owner","type":"address"}],"name":"ERC721InvalidOwner","type":"error"},{"inputs":[{"internalType":"address","name":"receiver","type":"address"}],"name":"ERC721InvalidReceiver","type":"error"},{"inputs":[{"internalType":"address","name":"sender","type":"address"}],"name":"ERC721InvalidSender","type":"error"},{"inputs":[{"internalType":"uint256","name":"tokenId","type":"uint256"}],"name":"ERC721NonexistentToken","type":"error"},{"inputs":[],"name":"EmergencyPaused","type":"error"},{"inputs":[],"name":"FailedInnerCall","type":"error"},{"inputs":[],"name":"InvalidEmoji","type":"error"},{"inputs":[],"name":"InvalidNumbers","type":"error"},{"inputs":[],"name":"NotWinner","type":"error"},{"inputs":[],"name":"NothingToProcess","type":"error"},{"inputs":[{"internalType":"address","name":"have","type":"address"},{"internalType":"address","name":"want","type":"address"}],"name":"OnlyCoordinatorCanFulfill","type":"error"},{"inputs":[{"internalType":"address","name":"have","type":"address"},{"internalType":"address","name":"owner","type":"address"},{"internalType":"address","name":"coordinator","type":"address"}],"name":"OnlyOwnerOrCoordinator","type":"error"},{"inputs":[],"name":"ReentrancyGuardReentrantCall","type":"error"},{"inputs":[{"internalType":"address","name":"token","type":"address"}],"name":"SafeERC20FailedOperation","type":"error"},{"inputs":[],"name":"TooEarly","type":"error"},{"inputs":[],"name":"ZeroAddress","type":"error"},{"anonymous":false,"inputs":[{"indexed":true,"internalType":"address","name":"owner","type":"address"},{"indexed":true,"internalType":"address","name":"approved","type":"address"},{"indexed":true,"internalType":"uint256","name":"tokenId","type":"uint256"}],"name":"Approval","type":"event"},{"anonymous":false,"inputs":[{"indexed":true,"internalType":"address","name":"owner","type":"address"},{"indexed":true,"internalType":"address","name":"operator","type":"address"},{"indexed":false,"internalType":"bool","name":"approved","type":"bool"}],"name":"ApprovalForAll","type":"event"},{"anonymous":false,"inputs":[{"indexed":true,"internalType":"uint24","name":"day","type":"uint24"},{"indexed":false,"internalType":"uint256","name":"fromIndex","type":"uint256"},{"indexed":false,"internalType":"uint256","name":"toIndex","type":"uint256"}],"name":"BatchProcessed","type":"event"},{"anonymous":false,"inputs":[{"indexed":false,"internalType":"address","name":"vrfCoordinator","type":"address"}],"name":"CoordinatorSet","type":"event"},{"anonymous":false,"inputs":[{"indexed":true,"internalType":"uint24","name":"day","type":"uint24"},{"indexed":false,"internalType":"uint8[4]","name":"numbers","type":"uint8[4]"}],"name":"DrawNumbers","type":"event"},{"anonymous":false,"inputs":[{"indexed":true,"internalType":"uint24","name":"nextDay","type":"uint24"},{"indexed":false,"internalType":"uint256","name":"drawTimestamp","type":"uint256"}],"name":"NextDrawScheduled","type":"event"},{"anonymous":false,"inputs":[{"indexed":true,"internalType":"address","name":"from","type":"address"},{"indexed":true,"internalType":"address","name":"to","type":"address"}],"name":"OwnershipTransferRequested","type":"event"},{"anonymous":false,"inputs":[{"indexed":true,"internalType":"address","name":"from","type":"address"},{"indexed":true,"internalType":"address","name":"to","type":"address"}],"name":"OwnershipTransferred","type":"event"},{"anonymous":false,"inputs":[{"indexed":true,"internalType":"uint24","name":"day","type":"uint24"},{"indexed":true,"internalType":"uint256","name":"ticketId","type":"uint256"},{"indexed":false,"internalType":"address","name":"winner","type":"address"},{"indexed":false,"internalType":"uint8","name":"prizeLevel","type":"uint8"},{"indexed":false,"internalType":"uint256","name":"amount","type":"uint256"}],"name":"PrizeClaimed","type":"event"},{"anonymous":false,"inputs":[{"indexed":true,"internalType":"uint24","name":"day","type":"uint24"},{"indexed":false,"internalType":"uint32","name":"firstWinners","type":"uint32"},{"indexed":false,"internalType":"uint32","name":"secondWinners","type":"uint32"},{"indexed":false,"internalType":"uint32","name":"thirdWinners","type":"uint32"}],"name":"PrizesCalculated","type":"event"},{"anonymous":false,"inputs":[{"indexed":true,"internalType":"address","name":"player","type":"address"},{"indexed":true,"internalType":"uint256","name":"ticketId","type":"uint256"},{"indexed":true,"internalType":"uint24","name":"day","type":"uint24"}],"name":"TicketPurchased","type":"event"},{"anonymous":false,"inputs":[{"indexed":true,"internalType":"address","name":"from","type":"address"},{"indexed":true,"internalType":"address","name":"to","type":"address"},{"indexed":true,"internalType":"uint256","name":"tokenId","type":"uint256"}],"name":"Transfer","type":"event"},{"anonymous":false,"inputs":[{"indexed":true,"internalType":"uint256","name":"requestId","type":"uint256"},{"indexed":true,"internalType":"uint24","name":"day","type":"uint24"}],"name":"VRFRequested","type":"event"},{"inputs":[],"name":"CALLBACK_GAS_LIMIT","outputs":[{"internalType":"uint32","name":"","type":"uint32"}],"stateMutability":"view","type":"function"},{"inputs":[],"name":"VRF_NUM_WORDS","outputs":[{"internalType":"uint32","name":"","type":"uint32"}],"stateMutability":"view","type":"function"},{"inputs":[],"name":"VRF_REQUEST_CONFIRMATIONS","outputs":[{"internalType":"uint16","name":"","type":"uint16"}],"stateMutability":"view","type":"function"},{"inputs":[],"name":"acceptOwnership","outputs":[],"stateMutability":"nonpayable","type":"function"},{"inputs":[{"internalType":"address","name":"to","type":"address"},{"internalType":"uint256","name":"tokenId","type":"uint256"}],"name":"approve","outputs":[],"stateMutability":"nonpayable","type":"function"},{"inputs":[],"name":"automationActive","outputs":[{"internalType":"bool","name":"","type":"bool"}],"stateMutability":"view","type":"function"},{"inputs":[{"internalType":"address","name":"owner","type":"address"}],"name":"balanceOf","outputs":[{"internalType":"uint256","name":"","type":"uint256"}],"stateMutability":"view","type":"function"},{"inputs":[{"internalType":"uint8[4]","name":"emojiNumbers","type":"uint8[4]"}],"name":"buyTicket","outputs":[],"stateMutability":"nonpayable","type":"function"},{"inputs":[{"internalType":"bytes","name":"","type":"bytes"}],"name":"checkUpkeep","outputs":[{"internalType":"bool","name":"upkeepNeeded","type":"bool"},{"internalType":"bytes","name":"","type":"bytes"}],"stateMutability":"view","type":"function"},{"inputs":[{"internalType":"uint256","name":"ticketId","type":"uint256"}],"name":"claimPrize","outputs":[],"stateMutability":"nonpayable","type":"function"},{"inputs":[],"name":"currentGameDay","outputs":[{"internalType":"uint24","name":"","type":"uint24"}],"stateMutability":"view","type":"function"},{"inputs":[],"name":"dailyDrawHourUTC","outputs":[{"internalType":"uint8","name":"","type":"uint8"}],"stateMutability":"view","type":"function"},{"inputs":[{"internalType":"uint24","name":"","type":"uint24"}],"name":"dayResults","outputs":[{"internalType":"uint32","name":"processingIndex","type":"uint32"},{"internalType":"uint32","name":"winnersFirst","type":"uint32"},{"internalType":"uint32","name":"winnersSecond","type":"uint32"},{"internalType":"uint32","name":"winnersThird","type":"uint32"},{"internalType":"bool","name":"fullyProcessed","type":"bool"}],"stateMutability":"view","type":"function"},{"inputs":[],"name":"emergencyPause","outputs":[{"internalType":"bool","name":"","type":"bool"}],"stateMutability":"view","type":"function"},{"inputs":[{"internalType":"uint256","name":"tokenId","type":"uint256"}],"name":"getApproved","outputs":[{"internalType":"address","name":"","type":"address"}],"stateMutability":"view","type":"function"},{"inputs":[{"internalType":"address","name":"owner","type":"address"},{"internalType":"address","name":"operator","type":"address"}],"name":"isApprovedForAll","outputs":[{"internalType":"bool","name":"","type":"bool"}],"stateMutability":"view","type":"function"},{"inputs":[],"name":"name","outputs":[{"internalType":"string","name":"","type":"string"}],"stateMutability":"view","type":"function"},{"inputs":[],"name":"nextDrawTs","outputs":[{"internalType":"uint256","name":"","type":"uint256"}],"stateMutability":"view","type":"function"},{"inputs":[],"name":"owner","outputs":[{"internalType":"address","name":"","type":"address"}],"stateMutability":"view","type":"function"},{"inputs":[{"internalType":"uint256","name":"tokenId","type":"uint256"}],"name":"ownerOf","outputs":[{"internalType":"address","name":"","type":"address"}],"stateMutability":"view","type":"function"},{"inputs":[],"name":"paymentToken","outputs":[{"internalType":"contract IERC20","name":"","type":"address"}],"stateMutability":"view","type":"function"},{"inputs":[{"internalType":"bytes","name":"","type":"bytes"}],"name":"performUpkeep","outputs":[],"stateMutability":"nonpayable","type":"function"},{"inputs":[],"name":"pools","outputs":[{"internalType":"uint256","name":"firstPrize","type":"uint256"},{"internalType":"uint256","name":"secondPrize","type":"uint256"},{"internalType":"uint256","name":"thirdPrize","type":"uint256"},{"internalType":"uint256","name":"devPool","type":"uint256"},{"internalType":"uint256","name":"firstReserve","type":"uint256"},{"internalType":"uint256","name":"secondReserve","type":"uint256"},{"internalType":"uint256","name":"thirdReserve","type":"uint256"}],"stateMutability":"view","type":"function"},{"inputs":[{"internalType":"uint24","name":"day","type":"uint24"},{"internalType":"uint256","name":"batchSize","type":"uint256"}],"name":"processDrawBatch","outputs":[],"stateMutability":"nonpayable","type":"function"},{"inputs":[{"internalType":"uint256","name":"requestId","type":"uint256"},{"internalType":"uint256[]","name":"randomWords","type":"uint256[]"}],"name":"rawFulfillRandomWords","outputs":[],"stateMutability":"nonpayable","type":"function"},{"inputs":[],"name":"s_vrfCoordinator","outputs":[{"internalType":"contract IVRFCoordinatorV2Plus","name":"","type":"address"}],"stateMutability":"view","type":"function"},{"inputs":[{"internalType":"address","name":"from","type":"address"},{"internalType":"address","name":"to","type":"address"},{"internalType":"uint256","name":"tokenId","type":"uint256"}],"name":"safeTransferFrom","outputs":[],"stateMutability":"nonpayable","type":"function"},{"inputs":[{"internalType":"address","name":"from","type":"address"},{"internalType":"address","name":"to","type":"address"},{"internalType":"uint256","name":"tokenId","type":"uint256"},{"internalType":"bytes","name":"data","type":"bytes"}],"name":"safeTransferFrom","outputs":[],"stateMutability":"nonpayable","type":"function"},{"inputs":[{"internalType":"address","name":"operator","type":"address"},{"internalType":"bool","name":"approved","type":"bool"}],"name":"setApprovalForAll","outputs":[],"stateMutability":"nonpayable","type":"function"},{"inputs":[{"internalType":"address","name":"_vrfCoordinator","type":"address"}],"name":"setCoordinator","outputs":[],"stateMutability":"nonpayable","type":"function"},{"inputs":[{"internalType":"bytes4","name":"interfaceId","type":"bytes4"}],"name":"supportsInterface","outputs":[{"internalType":"bool","name":"","type":"bool"}],"stateMutability":"view","type":"function"},{"inputs":[{"internalType":"address","name":"to","type":"address"}],"name":"sweepDevPool","outputs":[],"stateMutability":"nonpayable","type":"function"},{"inputs":[],"name":"symbol","outputs":[{"internalType":"string","name":"","type":"string"}],"stateMutability":"view","type":"function"},{"inputs":[],"name":"ticketPrice","outputs":[{"internalType":"uint256","name":"","type":"uint256"}],"stateMutability":"view","type":"function"},{"inputs":[{"internalType":"uint256","name":"","type":"uint256"}],"name":"tickets","outputs":[{"internalType":"uint40","name":"purchaseTime","type":"uint40"},{"internalType":"uint24","name":"gameDay","type":"uint24"},{"internalType":"bool","name":"claimed","type":"bool"}],"stateMutability":"view","type":"function"},{"inputs":[],"name":"toggleAutomation","outputs":[],"stateMutability":"nonpayable","type":"function"},{"inputs":[],"name":"toggleEmergencyPause","outputs":[],"stateMutability":"nonpayable","type":"function"},{"inputs":[{"internalType":"uint256","name":"tokenId","type":"uint256"}],"name":"tokenURI","outputs":[{"internalType":"string","name":"","type":"string"}],"stateMutability":"view","type":"function"},{"inputs":[{"internalType":"address","name":"from","type":"address"},{"internalType":"address","name":"to","type":"address"},{"internalType":"uint256","name":"tokenId","type":"uint256"}],"name":"transferFrom","outputs":[],"stateMutability":"nonpayable","type":"function"},{"inputs":[{"internalType":"address","name":"to","type":"address"}],"name":"transferOwnership","outputs":[],"stateMutability":"nonpayable","type":"function"},{"inputs":[],"name":"vrfKeyHash","outputs":[{"internalType":"bytes32","name":"","type":"bytes32"}],"stateMutability":"view","type":"function"},{"inputs":[],"name":"vrfSubId","outputs":[{"internalType":"uint64","name":"","type":"uint64"}],"stateMutability":"view","type":"function"}],"evm":{"bytecode":{"linkReferences":{},"object":"610140604052600b805462ffffff19166001908117909155600c8190556017805461ffff191690911790553480156200003757600080fd5b50604051620038d0380380620038d08339810160408190526200005a91620003a8565b82338060006040518060400160405280601081526020016f131bdd1d1bd35bda9a48151a58dad95d60821b815250604051806040016040528060058152602001644c4d4a544b60d81b8152508160009081620000b79190620004d3565b506001620000c68282620004d3565b50506001600655506001600160a01b0382166200012a5760405162461bcd60e51b815260206004820152601860248201527f43616e6e6f7420736574206f776e657220746f207a65726f000000000000000060448201526064015b60405180910390fd5b600780546001600160a01b0319166001600160a01b03848116919091179091558116156200015d576200015d8162000273565b5050506001600160a01b038116620001885760405163d92e233d60e01b815260040160405180910390fd5b600980546001600160a01b0319166001600160a01b0392909216919091179055601860ff871610620001e75760405162461bcd60e51b81526020600482015260076024820152661a1bdd5c8f0c8d60ca1b604482015260640162000121565b6001600160a01b0380841660e052851660c05260a084905260ff86166080526101208290526001600160401b038116610100526200022642876200031f565b600a819055600b5460405191825262ffffff16907f70aba4eecfb00a70e5aae193521bc256fc3cbf7a91479f6bcda4b5a82f9869619060200160405180910390a250505050505062000631565b336001600160a01b03821603620002cd5760405162461bcd60e51b815260206004820152601760248201527f43616e6e6f74207472616e7366657220746f2073656c66000000000000000000604482015260640162000121565b600880546001600160a01b0319166001600160a01b03838116918217909255600754604051919216907fed8889f560326eb138920d842192f0eb3dd22b4f139c87a2c57538e05bae127890600090a350565b600080620003316201518085620005b5565b905060006200034660ff8516610e10620005d8565b61ffff1662000359836201518062000601565b6200036591906200061b565b905084811162000381576200037e62015180826200061b565b90505b9150505b92915050565b80516001600160a01b0381168114620003a357600080fd5b919050565b60008060008060008060c08789031215620003c257600080fd5b865160ff81168114620003d457600080fd5b9550620003e4602088016200038b565b945060408701519350620003fb606088016200038b565b608088015160a089015191945092506001600160401b03811681146200042057600080fd5b809150509295509295509295565b634e487b7160e01b600052604160045260246000fd5b600181811c908216806200045957607f821691505b6020821081036200047a57634e487b7160e01b600052602260045260246000fd5b50919050565b601f821115620004ce57600081815260208120601f850160051c81016020861015620004a95750805b601f850160051c820191505b81811015620004ca57828155600101620004b5565b5050505b505050565b81516001600160401b03811115620004ef57620004ef6200042e565b620005078162000500845462000444565b8462000480565b602080601f8311600181146200053f5760008415620005265750858301515b600019600386901b1c1916600185901b178555620004ca565b600085815260208120601f198616915b8281101562000570578886015182559484019460019091019084016200054f565b50858210156200058f5787850151600019600388901b60f8161c191681555b5050505050600190811b01905550565b634e487b7160e01b600052601160045260246000fd5b600082620005d357634e487b7160e01b600052601260045260246000fd5b500490565b61ffff818116838216028082169190828114620005f957620005f96200059f565b505092915050565b80820281158282048414176200038557620003856200059f565b808201808211156200038557620003856200059f565b60805160a05160c05160e0516101005161012051613217620006b9600039600081816102900152611c8c0152600081816103e70152611cb801526000611d320152600081816103c00152818161098b01528181610a70015261161501526000818161033d01528181610a94015281816115bc0152611ad40152600061057901526132176000f3fe608060405234801561001057600080fd5b506004361061025e5760003560e01c80635c900a1a1161014657806395d89b41116100c3578063c87b56dd11610087578063c87b56dd14610669578063c8d519191461067c578063d709815414610685578063d96226a214610698578063e985e9c514610726578063f2fde38b1461073957600080fd5b806395d89b41146105d15780639eccacf6146105d9578063a22cb465146105ec578063b88d4fde146105ff578063c5c51dca1461061257600080fd5b806370a082311161010a57806370a082311461055957806379ba50971461056c5780638d6ef595146105745780638da5cb5b146105ad5780638ea98117146105be57600080fd5b80635c900a1a146104fd5780635d58f930146105055780636352211e146105185780636baf4a741461052b5780636e04ff0d1461053857600080fd5b806323b872dd116101df5780633d4962ed116101a35780633d4962ed1461044157806342842e0e146104545780634585e33b146104675780634f687e911461047a57806350b447121461048257806351858e27146104eb57600080fd5b806323b872dd146103955780632516f149146103a85780633013ce29146103bb57806332615640146103e257806333d608f11461042257600080fd5b80630d50cdb9116102265780630d50cdb9146103155780631209b1f614610338578063147e291f1461035f5780631e27580e146103675780631fe543e31461038257600080fd5b806301ffc9a714610263578063041d443e1461028b57806306fdde03146102c0578063081812fc146102d5578063095ea7b314610300575b600080fd5b610276610271366004612b1c565b61074c565b60405190151581526020015b60405180910390f35b6102b27f000000000000000000000000000000000000000000000000000000000000000081565b604051908152602001610282565b6102c861079e565b6040516102829190612b89565b6102e86102e3366004612b9c565b610830565b6040516001600160a01b039091168152602001610282565b61031361030e366004612bd1565b610859565b005b600b546103249062ffffff1681565b60405162ffffff9091168152602001610282565b6102b27f000000000000000000000000000000000000000000000000000000000000000081565b610313610868565b61036f600381565b60405161ffff9091168152602001610282565b610313610390366004612bfb565b61088d565b6103136103a3366004612c7a565b6108e2565b6103136103b6366004612cb6565b61096d565b6102e87f000000000000000000000000000000000000000000000000000000000000000081565b6104097f000000000000000000000000000000000000000000000000000000000000000081565b60405167ffffffffffffffff9091168152602001610282565b61042c627a120081565b60405163ffffffff9091168152602001610282565b61031361044f366004612cd1565b6109b2565b610313610462366004612c7a565b610c05565b610313610475366004612cf9565b610c20565b610313610d2b565b6104c2610490366004612b9c565b600d602052600090815260409020805460029091015464ffffffffff821691600160281b900462ffffff169060ff1683565b6040805164ffffffffff909416845262ffffff9092166020840152151590820152606001610282565b60175461027690610100900460ff1681565b61042c600181565b610313610513366004612d7e565b610d47565b6102e8610526366004612b9c565b610ff6565b6017546102769060ff1681565b61054b610546366004612cf9565b611001565b604051610282929190612d9a565b6102b2610567366004612cb6565b611038565b610313611080565b61059b7f000000000000000000000000000000000000000000000000000000000000000081565b60405160ff9091168152602001610282565b6007546001600160a01b03166102e8565b6103136105cc366004612cb6565b61112e565b6102c8611220565b6009546102e8906001600160a01b031681565b6103136105fa366004612dc3565b61122f565b61031361060d366004612e10565b61123a565b600f546010546011546012546013546014546015546106349695949392919087565b604080519788526020880196909652948601939093526060850191909152608084015260a083015260c082015260e001610282565b6102c8610677366004612b9c565b611251565b6102b2600a5481565b610313610693366004612b9c565b6112c6565b6106ee6106a6366004612eec565b60166020526000908152604090206001015463ffffffff808216916401000000008104821691600160401b8204811691600160601b810490911690600160801b900460ff1685565b6040805163ffffffff96871681529486166020860152928516928401929092529092166060820152901515608082015260a001610282565b610276610734366004612f07565b61169e565b610313610747366004612cb6565b6116cc565b60006001600160e01b031982166380ac58cd60e01b148061077d57506001600160e01b03198216635b5e139f60e01b145b8061079857506301ffc9a760e01b6001600160e01b03198316145b92915050565b6060600080546107ad90612f3a565b80601f01602080910402602001604051908101604052809291908181526020018280546107d990612f3a565b80156108265780601f106107fb57610100808354040283529160200191610826565b820191906000526020600020905b81548152906001019060200180831161080957829003601f168201915b5050505050905090565b600061083b826116dd565b506000828152600460205260409020546001600160a01b0316610798565b610864828233611716565b5050565b610870611723565b6017805461ff001981166101009182900460ff1615909102179055565b6009546001600160a01b031633146108d25760095460405163073e64fd60e21b81523360048201526001600160a01b0390911660248201526044015b60405180910390fd5b6108dd838383611778565b505050565b6001600160a01b03821661090c57604051633250574960e11b8152600060048201526024016108c9565b60006109198383336118d7565b9050836001600160a01b0316816001600160a01b031614610967576040516364283d7b60e01b81526001600160a01b03808616600483015260248201849052821660448201526064016108c9565b50505050565b610975611723565b6012805460009091556108646001600160a01b037f00000000000000000000000000000000000000000000000000000000000000001683836119d0565b6109ba611a2f565b601754610100900460ff16156109e357604051634cb3183d60e01b815260040160405180910390fd5b600a544210610a055760405163085de62560e01b815260040160405180910390fd5b60005b6004811015610a62576018828260048110610a2557610a25612f6e565b602002016020810190610a389190612f84565b60ff161115610a5a576040516308214f1760e21b815260040160405180910390fd5b600101610a08565b50610ab86001600160a01b037f00000000000000000000000000000000000000000000000000000000000000001633307f0000000000000000000000000000000000000000000000000000000000000000611a59565b600c805460009182610ac983612fbd565b919050559050610ad93382611a92565b604080516080808201835264ffffffffff42168252600b5462ffffff1660208301528251808201845291928301919085906004908390839080828437600092018290525092845250506020918201819052838152600d8252604090819020835181549385015162ffffff16600160281b0267ffffffffffffffff1990941664ffffffffff90911617929092178255820151610b7a9060018301906004612a3f565b50606091909101516002909101805460ff1916911515919091179055600b805462ffffff9081166000908152600e602090815260408083208054600181018255908452918320909101859055925492519290911691839133917f12eee7f99ea5c9c160467d40a467f18c62607b8d43607d0840f168cc2b55b2e49190a450610c026001600655565b50565b6108dd8383836040518060200160405280600081525061123a565b60175460ff161580610c395750601754610100900460ff165b15610c575760405163fc5eaefd60e01b815260040160405180910390fd5b600a54421015610c7a5760405163085de62560e01b815260040160405180910390fd5b600b5462ffffff16610c8b81611aac565b610c9481611c80565b600b805460019190600090610caf90849062ffffff16612fd6565b92506101000a81548162ffffff021916908362ffffff16021790555062015180600a6000828254610ce09190612ff9565b9091555050600b54600a5460405190815262ffffff909116907f70aba4eecfb00a70e5aae193521bc256fc3cbf7a91479f6bcda4b5a82f9869619060200160405180910390a2505050565b610d33611723565b6017805460ff19811660ff90911615179055565b801580610d55575061012c81115b15610d5f575061012c5b62ffffff821660009081526016602052604090206001810154600160801b900460ff1615610da057604051630683f18b60e41b815260040160405180910390fd5b62ffffff83166000908152600e602052604090206001820154815463ffffffff909116908110610de2576040516204670360e61b815260040160405180910390fd5b6000610dee8583612ff9565b8354909150811115610dfe575081545b815b81811015610e3e57610e2e848281548110610e1d57610e1d612f6e565b906000526020600020015486611de4565b610e3781612fbd565b9050610e00565b5060018401805463ffffffff191663ffffffff8316179055604080518381526020810183905262ffffff8816917f95f2647279697d92fbfbd24a0e306c284798157a253e2126ebf1451515f6fbd9910160405180910390a282548103610fee5760018401805460ff60801b1916600160801b17908190556040805163ffffffff640100000000840481168252600160401b840481166020830152600160601b9093049092169082015262ffffff8716907f9094b2b67842abb4391fc6c54030e03d20642491efeb4eda225641eac3b101279060600160405180910390a26001840154640100000000900463ffffffff1615801590610f3d575060135415155b15610f6257601354600f8054600090610f57908490612ff9565b909155505060006013555b6001840154600160401b900463ffffffff1615801590610f83575060145415155b15610fa85760145460108054600090610f9d908490612ff9565b909155505060006014555b6001840154600160601b900463ffffffff1615801590610fc9575060155415155b15610fee5760155460118054600090610fe3908490612ff9565b909155505060006015555b505050505050565b6000610798826116dd565b60175460009060609060ff1680156110215750601754610100900460ff16155b801561102f5750600a544210155b91509250929050565b60006001600160a01b038216611064576040516322718ad960e21b8152600060048201526024016108c9565b506001600160a01b031660009081526003602052604090205490565b6008546001600160a01b031633146110d35760405162461bcd60e51b815260206004820152601660248201527526bab9ba10313290383937b837b9b2b21037bbb732b960511b60448201526064016108c9565b600780546001600160a01b0319808216339081179093556008805490911690556040516001600160a01b03909116919082907f8be0079c531659141344cd1fd0a4f28419497f9722a3daafe3b4186f6b6457e090600090a350565b6007546001600160a01b0316331480159061115457506009546001600160a01b03163314155b156111a5573361116c6007546001600160a01b031690565b60095460405163061db9c160e01b81526001600160a01b03938416600482015291831660248301529190911660448201526064016108c9565b6001600160a01b0381166111cc5760405163d92e233d60e01b815260040160405180910390fd5b600980546001600160a01b0319166001600160a01b0383169081179091556040519081527fd1a6a14209a385a964d036e404cb5cfb71f4000cdb03c9366292430787261be69060200160405180910390a150565b6060600180546107ad90612f3a565b61086433838361206d565b6112458484846108e2565b6109678484848461210c565b606061125c826116dd565b50600061127460408051602081019091526000815290565b9050600081511161129457604051806020016040528060008152506112bf565b8061129e84612235565b6040516020016112af92919061300c565b6040516020818303038152906040525b9392505050565b6112ce611a2f565b6000818152600d60205260409020600281015460ff161561130257604051630c8d9eab60e31b815260040160405180910390fd5b3361130c83610ff6565b6001600160a01b031614611333576040516330c6392160e11b815260040160405180910390fd5b8054600160281b900462ffffff1660009081526016602052604090206001810154600160801b900460ff166113a25760405162461bcd60e51b815260206004820152601560248201527419185e481b9bdd081c1c9bd8d95cdcd959081e595d605a1b60448201526064016108c9565b604080516080810191829052600091611444919060018601906004908286855b825461010083900a900460ff168152602060019283018181049485019490930390920291018084116113c25750506040805160808101918290529450889350600492509050826000855b825461010083900a900460ff1681526020600192830181810494850194909303909202910180841161140c57905050505050506122c8565b905060008160ff166001036114c8576001830154640100000000900463ffffffff16600003611486576040516330c6392160e11b815260040160405180910390fd5b6001830154600f546114a691640100000000900463ffffffff1690613051565b905080600f60000160008282546114bd9190613065565b909155506115f99050565b8160ff1660020361153b576001830154600160401b900463ffffffff16600003611505576040516330c6392160e11b815260040160405180910390fd5b600183015460105461152491600160401b900463ffffffff1690613051565b905080600f60010160008282546114bd9190613065565b8160ff166003036115ae576001830154600160601b900463ffffffff16600003611578576040516330c6392160e11b815260040160405180910390fd5b600183015460115461159791600160601b900463ffffffff1690613051565b905080600f60020160008282546114bd9190613065565b8160ff166004036115e057507f00000000000000000000000000000000000000000000000000000000000000006115f9565b6040516330c6392160e11b815260040160405180910390fd5b60028401805460ff1916600117905561163c6001600160a01b037f00000000000000000000000000000000000000000000000000000000000000001633836119d0565b83546040805133815260ff851660208201529081018390528691600160281b900462ffffff16907ffa7d7e6fad77bb2eb32e03cd3103bcb3df591ea9338a7395a149d9c180a170c79060600160405180910390a350505050610c026001600655565b6001600160a01b03918216600090815260056020908152604080832093909416825291909152205460ff1690565b6116d4611723565b610c028161246d565b6000818152600260205260408120546001600160a01b03168061079857604051637e27328960e01b8152600481018490526024016108c9565b6108dd8383836001612517565b6007546001600160a01b031633146117765760405162461bcd60e51b815260206004820152601660248201527527b7363c9031b0b63630b1363290313c9037bbb732b960511b60448201526064016108c9565b565b600b5460009061178f9060019062ffffff16613078565b62ffffff81166000908152601660205260408120919250848482816117b6576117b6612f6e565b9050602002013590506019816117cc9190613094565b825460ff191660ff9190911617825560081c6117e9601982613094565b825460ff919091166101000261ff001990911617825560081c61180d601982613094565b825460ff91909116620100000262ff00001990911617825560081c611833601982613094565b825463ff000000198116630100000060ff9384160290811780865560018601805470ff000000000000000000000000ffffffff1916905560408051928516938516939093178252600881901c84166020830152601081901c84168284015260181c90921660608301525162ffffff8516917f9dedf238b51cb2f65e712b6f39ab9f3e89a6268d251b582c9ceec37e6ddfba63919081900360800190a2505050505050565b6000828152600260205260408120546001600160a01b03908116908316156119045761190481848661261d565b6001600160a01b0381161561194257611921600085600080612517565b6001600160a01b038116600090815260036020526040902080546000190190555b6001600160a01b03851615611971576001600160a01b0385166000908152600360205260409020805460010190555b60008481526002602052604080822080546001600160a01b0319166001600160a01b0389811691821790925591518793918516917fddf252ad1be2c89b69c2b068fc378daa952ba7f163c4a11628f55a4df523b3ef91a4949350505050565b6040516001600160a01b038381166024830152604482018390526108dd91859182169063a9059cbb906064015b604051602081830303815290604052915060e01b6020820180516001600160e01b038381831617835250505050612681565b600260065403611a5257604051633ee5aeb560e01b815260040160405180910390fd5b6002600655565b6040516001600160a01b0384811660248301528381166044830152606482018390526109679186918216906323b872dd906084016119fd565b6108648282604051806020016040528060008152506126e4565b62ffffff81166000908152600e602052604081205490819003611acd575050565b6000611af97f0000000000000000000000000000000000000000000000000000000000000000836130a8565b905060006064611b0a6050846130a8565b611b149190613051565b905060006064611b256014856130a8565b611b2f9190613051565b90506064611b3e6050846130a8565b611b489190613051565b600f8054600090611b5a908490612ff9565b9091555060649050611b6d600a846130a8565b611b779190613051565b60108054600090611b89908490612ff9565b9091555060649050611b9c6005846130a8565b611ba69190613051565b60118054600090611bb8908490612ff9565b9091555060649050611bcb6005846130a8565b611bd59190613051565b60128054600090611be7908490612ff9565b9091555060649050611bfa6050836130a8565b611c049190613051565b60138054600090611c16908490612ff9565b9091555060649050611c29600a836130a8565b611c339190613051565b60148054600090611c45908490612ff9565b9091555060649050611c58600a836130a8565b611c629190613051565b60158054600090611c74908490612ff9565b90915550505050505050565b6040805160c0810182527f0000000000000000000000000000000000000000000000000000000000000000815267ffffffffffffffff7f000000000000000000000000000000000000000000000000000000000000000016602080830191909152600382840152627a1200606083015260016080830152825190810190925260008083529160a0820190611d13906126fb565b9052604051634d8e1c2f60e11b81529091506000906001600160a01b037f00000000000000000000000000000000000000000000000000000000000000001690639b1c385e90611d679085906004016130bf565b6020604051808303816000875af1158015611d86573d6000803e3d6000fd5b505050506040513d601f19601f82011682018060405250810190611daa919061311c565b90508262ffffff16817f6d9c99357d359ebc464c51fb3162f671b2bd8fecd626dd9f4f5e329076aa00f260405160405180910390a3505050565b6000828152600d60205260408082208151608081019283905290929184906004908285855b825461010083900a900460ff16815260206001928301818104948501949093039092029101808411611e095790505050505050905060008060005b6004811015611ea657838160048110611e5f57611e5f612f6e565b602002015160ff16856001018260048110611e7c57611e7c612f6e565b602081049091015460ff601f9092166101000a90041603611e9e578260010192505b600101611e44565b508160ff16600403611ef857600185018054600490611ed290640100000000900463ffffffff16613135565b91906101000a81548163ffffffff021916908363ffffffff160217905550505050505050565b8160ff16600303611f2257600185018054600c90611ed290600160601b900463ffffffff16613135565b611f2a612ad2565b60005b6004811015611f895781866001018260048110611f4c57611f4c612f6e565b602081049091015460ff601f9092166101000a90041660198110611f7257611f72612f6e565b60200201805160ff60019182011690915201611f2d565b5060005b600481101561201a57600082868360048110611fab57611fab612f6e565b602002015160ff1660198110611fc357611fc3612f6e565b602002015160ff1611156120125782600101925081858260048110611fea57611fea612f6e565b602002015160ff166019811061200257612002612f6e565b6020020180516000190160ff1690525b600101611f8d565b508160ff166004036120645760018601805460089061204590600160401b900463ffffffff16613135565b91906101000a81548163ffffffff021916908363ffffffff1602179055505b50505050505050565b6001600160a01b03821661209f57604051630b61174360e31b81526001600160a01b03831660048201526024016108c9565b6001600160a01b03838116600081815260056020908152604080832094871680845294825291829020805460ff191686151590811790915591519182527f17307eab39ab6107e8899845ad3d59bd9653f200f220920489ca2b5937696c31910160405180910390a3505050565b6001600160a01b0383163b1561096757604051630a85bd0160e11b81526001600160a01b0384169063150b7a029061214e903390889087908790600401613158565b6020604051808303816000875af1925050508015612189575060408051601f3d908101601f191682019092526121869181019061318b565b60015b6121f2573d8080156121b7576040519150601f19603f3d011682016040523d82523d6000602084013e6121bc565b606091505b5080516000036121ea57604051633250574960e11b81526001600160a01b03851660048201526024016108c9565b805181602001fd5b6001600160e01b03198116630a85bd0160e11b1461222e57604051633250574960e11b81526001600160a01b03851660048201526024016108c9565b5050505050565b606060006122428361276c565b600101905060008167ffffffffffffffff81111561226257612262612dfa565b6040519080825280601f01601f19166020018201604052801561228c576020820181803683370190505b5090508181016020015b600019016f181899199a1a9b1b9c1cb0b131b232b360811b600a86061a8153600a850494508461229657509392505050565b60008060005b600481101561231f578381600481106122e9576122e9612f6e565b602002015160ff1685826004811061230357612303612f6e565b602002015160ff1603612317578160010191505b6001016122ce565b508060ff16600403612335576001915050610798565b8060ff1660030361234a576003915050610798565b612352612ad2565b6000805b60048110156123a1578287826004811061237257612372612f6e565b602002015160ff166019811061238a5761238a612f6e565b60200201805160ff60019182011690915201612356565b5060005b6004811015612432576000838783600481106123c3576123c3612f6e565b602002015160ff16601981106123db576123db612f6e565b602002015160ff16111561242a578160010191508286826004811061240257612402612f6e565b602002015160ff166019811061241a5761241a612f6e565b6020020180516000190160ff1690525b6001016123a5565b508060ff1660040361244a5760029350505050610798565b8060ff166003036124615760049350505050610798565b50600095945050505050565b336001600160a01b038216036124c55760405162461bcd60e51b815260206004820152601760248201527f43616e6e6f74207472616e7366657220746f2073656c6600000000000000000060448201526064016108c9565b600880546001600160a01b0319166001600160a01b03838116918217909255600754604051919216907fed8889f560326eb138920d842192f0eb3dd22b4f139c87a2c57538e05bae127890600090a350565b808061252b57506001600160a01b03821615155b156125ed57600061253b846116dd565b90506001600160a01b038316158015906125675750826001600160a01b0316816001600160a01b031614155b801561257a5750612578818461169e565b155b156125a35760405163a9fbf51f60e01b81526001600160a01b03841660048201526024016108c9565b81156125eb5783856001600160a01b0316826001600160a01b03167f8c5be1e5ebec7d5bd14f71427d1e84f3dd0314c0f7b2291e5b200ac8c7c3b92560405160405180910390a45b505b5050600090815260046020526040902080546001600160a01b0319166001600160a01b0392909216919091179055565b612628838383612844565b6108dd576001600160a01b03831661265657604051637e27328960e01b8152600481018290526024016108c9565b60405163177e802f60e01b81526001600160a01b0383166004820152602481018290526044016108c9565b60006126966001600160a01b038416836128aa565b905080516000141580156126bb5750808060200190518101906126b991906131a8565b155b156108dd57604051635274afe760e01b81526001600160a01b03841660048201526024016108c9565b6126ee83836128b8565b6108dd600084848461210c565b60607f92fd13387c7fe7befbc38d303d6468778fb9731bc4583f17d92989c6fcfdeaaa8260405160240161273491511515815260200190565b60408051601f198184030181529190526020810180516001600160e01b03166001600160e01b03199093169290921790915292915050565b60008072184f03e93ff9f4daa797ed6e38ed64bf6a1f0160401b83106127ab5772184f03e93ff9f4daa797ed6e38ed64bf6a1f0160401b830492506040015b6d04ee2d6d415b85acef810000000083106127d7576d04ee2d6d415b85acef8100000000830492506020015b662386f26fc1000083106127f557662386f26fc10000830492506010015b6305f5e100831061280d576305f5e100830492506008015b612710831061282157612710830492506004015b60648310612833576064830492506002015b600a83106107985760010192915050565b60006001600160a01b038316158015906128a25750826001600160a01b0316846001600160a01b0316148061287e575061287e848461169e565b806128a257506000828152600460205260409020546001600160a01b038481169116145b949350505050565b60606112bf8383600061291d565b6001600160a01b0382166128e257604051633250574960e11b8152600060048201526024016108c9565b60006128f0838360006118d7565b90506001600160a01b038116156108dd576040516339e3563760e11b8152600060048201526024016108c9565b6060814710156129425760405163cd78605960e01b81523060048201526024016108c9565b600080856001600160a01b0316848660405161295e91906131c5565b60006040518083038185875af1925050503d806000811461299b576040519150601f19603f3d011682016040523d82523d6000602084013e6129a0565b606091505b50915091506129b08683836129ba565b9695505050505050565b6060826129cf576129ca82612a16565b6112bf565b81511580156129e657506001600160a01b0384163b155b15612a0f57604051639996b31560e01b81526001600160a01b03851660048201526024016108c9565b50806112bf565b805115612a265780518082602001fd5b604051630a12f52160e11b815260040160405180910390fd5b600183019183908215612ac25791602002820160005b83821115612a9357835183826101000a81548160ff021916908360ff1602179055509260200192600101602081600001049283019260010302612a55565b8015612ac05782816101000a81549060ff0219169055600101602081600001049283019260010302612a93565b505b50612ace929150612af1565b5090565b6040518061032001604052806019906020820280368337509192915050565b5b80821115612ace5760008155600101612af2565b6001600160e01b031981168114610c0257600080fd5b600060208284031215612b2e57600080fd5b81356112bf81612b06565b60005b83811015612b54578181015183820152602001612b3c565b50506000910152565b60008151808452612b75816020860160208601612b39565b601f01601f19169290920160200192915050565b6020815260006112bf6020830184612b5d565b600060208284031215612bae57600080fd5b5035919050565b80356001600160a01b0381168114612bcc57600080fd5b919050565b60008060408385031215612be457600080fd5b612bed83612bb5565b946020939093013593505050565b600080600060408486031215612c1057600080fd5b83359250602084013567ffffffffffffffff80821115612c2f57600080fd5b818601915086601f830112612c4357600080fd5b813581811115612c5257600080fd5b8760208260051b8501011115612c6757600080fd5b6020830194508093505050509250925092565b600080600060608486031215612c8f57600080fd5b612c9884612bb5565b9250612ca660208501612bb5565b9150604084013590509250925092565b600060208284031215612cc857600080fd5b6112bf82612bb5565b600060808284031215612ce357600080fd5b82608083011115612cf357600080fd5b50919050565b60008060208385031215612d0c57600080fd5b823567ffffffffffffffff80821115612d2457600080fd5b818501915085601f830112612d3857600080fd5b813581811115612d4757600080fd5b866020828501011115612d5957600080fd5b60209290920196919550909350505050565b803562ffffff81168114612bcc57600080fd5b60008060408385031215612d9157600080fd5b612bed83612d6b565b82151581526040602082015260006128a26040830184612b5d565b8015158114610c0257600080fd5b60008060408385031215612dd657600080fd5b612ddf83612bb5565b91506020830135612def81612db5565b809150509250929050565b634e487b7160e01b600052604160045260246000fd5b60008060008060808587031215612e2657600080fd5b612e2f85612bb5565b9350612e3d60208601612bb5565b925060408501359150606085013567ffffffffffffffff80821115612e6157600080fd5b818701915087601f830112612e7557600080fd5b813581811115612e8757612e87612dfa565b604051601f8201601f19908116603f01168101908382118183101715612eaf57612eaf612dfa565b816040528281528a6020848701011115612ec857600080fd5b82602086016020830137600060208483010152809550505050505092959194509250565b600060208284031215612efe57600080fd5b6112bf82612d6b565b60008060408385031215612f1a57600080fd5b612f2383612bb5565b9150612f3160208401612bb5565b90509250929050565b600181811c90821680612f4e57607f821691505b602082108103612cf357634e487b7160e01b600052602260045260246000fd5b634e487b7160e01b600052603260045260246000fd5b600060208284031215612f9657600080fd5b813560ff811681146112bf57600080fd5b634e487b7160e01b600052601160045260246000fd5b600060018201612fcf57612fcf612fa7565b5060010190565b62ffffff818116838216019080821115612ff257612ff2612fa7565b5092915050565b8082018082111561079857610798612fa7565b6000835161301e818460208801612b39565b835190830190613032818360208801612b39565b01949350505050565b634e487b7160e01b600052601260045260246000fd5b6000826130605761306061303b565b500490565b8181038181111561079857610798612fa7565b62ffffff828116828216039080821115612ff257612ff2612fa7565b6000826130a3576130a361303b565b500690565b808202811582820484141761079857610798612fa7565b60208152815160208201526020820151604082015261ffff60408301511660608201526000606083015163ffffffff80821660808501528060808601511660a0850152505060a083015160c0808401526128a260e0840182612b5d565b60006020828403121561312e57600080fd5b5051919050565b600063ffffffff80831681810361314e5761314e612fa7565b6001019392505050565b6001600160a01b03858116825284166020820152604081018390526080606082018190526000906129b090830184612b5d565b60006020828403121561319d57600080fd5b81516112bf81612b06565b6000602082840312156131ba57600080fd5b81516112bf81612db5565b600082516131d7818460208701612b39565b919091019291505056fea2646970667358221220ab3baf86301a3d07561a3915aa71609dc223c2a17f2100ac29ff1fbecdbbbc6764736f6c63430008140033","opcodes":"PUSH2 0x140 PUSH1 0x40 MSTORE PUSH1 0xB DUP1 SLOAD PUSH3 0xFFFFFF NOT AND PUSH1 0x1 SWAP1 DUP2 OR SWAP1 SWAP2 SSTORE PUSH1 0xC DUP2 SWAP1 SSTORE PUSH1 0x17 DUP1 SLOAD PUSH2 0xFFFF NOT AND SWAP1 SWAP2 OR SWAP1 SSTORE CALLVALUE DUP1 ISZERO PUSH3 0x37 JUMPI PUSH1 0x0 DUP1 REVERT JUMPDEST POP PUSH1 0x40 MLOAD PUSH3 0x38D0 CODESIZE SUB DUP1 PUSH3 0x38D0 DUP4 CODECOPY DUP2 ADD PUSH1 0x40 DUP2 SWAP1 MSTORE PUSH3 0x5A SWAP2 PUSH3 0x3A8 JUMP JUMPDEST DUP3 CALLER DUP1 PUSH1 0x0 PUSH1 0x40 MLOAD DUP1 PUSH1 0x40 ADD PUSH1 0x40 MSTORE DUP1 PUSH1 0x10 DUP2 MSTORE PUSH1 0x20 ADD PUSH16 0x131BDD1D1BD35BDA9A48151A58DAD95D PUSH1 0x82 SHL DUP2 MSTORE POP PUSH1 0x40 MLOAD DUP1 PUSH1 0x40 ADD PUSH1 0x40 MSTORE DUP1 PUSH1 0x5 DUP2 MSTORE PUSH1 0x20 ADD PUSH5 0x4C4D4A544B PUSH1 0xD8 SHL DUP2 MSTORE POP DUP2 PUSH1 0x0 SWAP1 DUP2 PUSH3 0xB7 SWAP2 SWAP1 PUSH3 0x4D3 JUMP JUMPDEST POP PUSH1 0x1 PUSH3 0xC6 DUP3 DUP3 PUSH3 0x4D3 JUMP JUMPDEST POP POP PUSH1 0x1 PUSH1 0x6 SSTORE POP PUSH1 0x1 PUSH1 0x1 PUSH1 0xA0 SHL SUB DUP3 AND PUSH3 0x12A JUMPI PUSH1 0x40 MLOAD PUSH3 0x461BCD PUSH1 0xE5 SHL DUP2 MSTORE PUSH1 0x20 PUSH1 0x4 DUP3 ADD MSTORE PUSH1 0x18 PUSH1 0x24 DUP3 ADD MSTORE PUSH32 0x43616E6E6F7420736574206F776E657220746F207A65726F0000000000000000 PUSH1 0x44 DUP3 ADD MSTORE PUSH1 0x64 ADD JUMPDEST PUSH1 0x40 MLOAD DUP1 SWAP2 SUB SWAP1 REVERT JUMPDEST PUSH1 0x7 DUP1 SLOAD PUSH1 0x1 PUSH1 0x1 PUSH1 0xA0 SHL SUB NOT AND PUSH1 0x1 PUSH1 0x1 PUSH1 0xA0 SHL SUB DUP5 DUP2 AND SWAP2 SWAP1 SWAP2 OR SWAP1 SWAP2 SSTORE DUP2 AND ISZERO PUSH3 0x15D JUMPI PUSH3 0x15D DUP2 PUSH3 0x273 JUMP JUMPDEST POP POP POP PUSH1 0x1 PUSH1 0x1 PUSH1 0xA0 SHL SUB DUP2 AND PUSH3 0x188 JUMPI PUSH1 0x40 MLOAD PUSH4 0xD92E233D PUSH1 0xE0 SHL DUP2 MSTORE PUSH1 0x4 ADD PUSH1 0x40 MLOAD DUP1 SWAP2 SUB SWAP1 REVERT JUMPDEST PUSH1 0x9 DUP1 SLOAD PUSH1 0x1 PUSH1 0x1 PUSH1 0xA0 SHL SUB NOT AND PUSH1 0x1 PUSH1 0x1 PUSH1 0xA0 SHL SUB SWAP3 SWAP1 SWAP3 AND SWAP2 SWAP1 SWAP2 OR SWAP1 SSTORE PUSH1 0x18 PUSH1 0xFF DUP8 AND LT PUSH3 0x1E7 JUMPI PUSH1 0x40 MLOAD PUSH3 0x461BCD PUSH1 0xE5 SHL DUP2 MSTORE PUSH1 0x20 PUSH1 0x4 DUP3 ADD MSTORE PUSH1 0x7 PUSH1 0x24 DUP3 ADD MSTORE PUSH7 0x1A1BDD5C8F0C8D PUSH1 0xCA SHL PUSH1 0x44 DUP3 ADD MSTORE PUSH1 0x64 ADD PUSH3 0x121 JUMP JUMPDEST PUSH1 0x1 PUSH1 0x1 PUSH1 0xA0 SHL SUB DUP1 DUP5 AND PUSH1 0xE0 MSTORE DUP6 AND PUSH1 0xC0 MSTORE PUSH1 0xA0 DUP5 SWAP1 MSTORE PUSH1 0xFF DUP7 AND PUSH1 0x80 MSTORE PUSH2 0x120 DUP3 SWAP1 MSTORE PUSH1 0x1 PUSH1 0x1 PUSH1 0x40 SHL SUB DUP2 AND PUSH2 0x100 MSTORE PUSH3 0x226 TIMESTAMP DUP8 PUSH3 0x31F JUMP JUMPDEST PUSH1 0xA DUP2 SWAP1 SSTORE PUSH1 0xB SLOAD PUSH1 0x40 MLOAD SWAP2 DUP3 MSTORE PUSH3 0xFFFFFF AND SWAP1 PUSH32 0x70ABA4EECFB00A70E5AAE193521BC256FC3CBF7A91479F6BCDA4B5A82F986961 SWAP1 PUSH1 0x20 ADD PUSH1 0x40 MLOAD DUP1 SWAP2 SUB SWAP1 LOG2 POP POP POP POP POP POP PUSH3 0x631 JUMP JUMPDEST CALLER PUSH1 0x1 PUSH1 0x1 PUSH1 0xA0 SHL SUB DUP3 AND SUB PUSH3 0x2CD JUMPI PUSH1 0x40 MLOAD PUSH3 0x461BCD PUSH1 0xE5 SHL DUP2 MSTORE PUSH1 0x20 PUSH1 0x4 DUP3 ADD MSTORE PUSH1 0x17 PUSH1 0x24 DUP3 ADD MSTORE PUSH32 0x43616E6E6F74207472616E7366657220746F2073656C66000000000000000000 PUSH1 0x44 DUP3 ADD MSTORE PUSH1 0x64 ADD PUSH3 0x121 JUMP JUMPDEST PUSH1 0x8 DUP1 SLOAD PUSH1 0x1 PUSH1 0x1 PUSH1 0xA0 SHL SUB NOT AND PUSH1 0x1 PUSH1 0x1 PUSH1 0xA0 SHL SUB DUP4 DUP2 AND SWAP2 DUP3 OR SWAP1 SWAP3 SSTORE PUSH1 0x7 SLOAD PUSH1 0x40 MLOAD SWAP2 SWAP3 AND SWAP1 PUSH32 0xED8889F560326EB138920D842192F0EB3DD22B4F139C87A2C57538E05BAE1278 SWAP1 PUSH1 0x0 SWAP1 LOG3 POP JUMP JUMPDEST PUSH1 0x0 DUP1 PUSH3 0x331 PUSH3 0x15180 DUP6 PUSH3 0x5B5 JUMP JUMPDEST SWAP1 POP PUSH1 0x0 PUSH3 0x346 PUSH1 0xFF DUP6 AND PUSH2 0xE10 PUSH3 0x5D8 JUMP JUMPDEST PUSH2 0xFFFF AND PUSH3 0x359 DUP4 PUSH3 0x15180 PUSH3 0x601 JUMP JUMPDEST PUSH3 0x365 SWAP2 SWAP1 PUSH3 0x61B JUMP JUMPDEST SWAP1 POP DUP5 DUP2 GT PUSH3 0x381 JUMPI PUSH3 0x37E PUSH3 0x15180 DUP3 PUSH3 0x61B JUMP JUMPDEST SWAP1 POP JUMPDEST SWAP2 POP POP JUMPDEST SWAP3 SWAP2 POP POP JUMP JUMPDEST DUP1 MLOAD PUSH1 0x1 PUSH1 0x1 PUSH1 0xA0 SHL SUB DUP2 AND DUP2 EQ PUSH3 0x3A3 JUMPI PUSH1 0x0 DUP1 REVERT JUMPDEST SWAP2 SWAP1 POP JUMP JUMPDEST PUSH1 0x0 DUP1 PUSH1 0x0 DUP1 PUSH1 0x0 DUP1 PUSH1 0xC0 DUP8 DUP10 SUB SLT ISZERO PUSH3 0x3C2 JUMPI PUSH1 0x0 DUP1 REVERT JUMPDEST DUP7 MLOAD PUSH1 0xFF DUP2 AND DUP2 EQ PUSH3 0x3D4 JUMPI PUSH1 0x0 DUP1 REVERT JUMPDEST SWAP6 POP PUSH3 0x3E4 PUSH1 0x20 DUP9 ADD PUSH3 0x38B JUMP JUMPDEST SWAP5 POP PUSH1 0x40 DUP8 ADD MLOAD SWAP4 POP PUSH3 0x3FB PUSH1 0x60 DUP9 ADD PUSH3 0x38B JUMP JUMPDEST PUSH1 0x80 DUP9 ADD MLOAD PUSH1 0xA0 DUP10 ADD MLOAD SWAP2 SWAP5 POP SWAP3 POP PUSH1 0x1 PUSH1 0x1 PUSH1 0x40 SHL SUB DUP2 AND DUP2 EQ PUSH3 0x420 JUMPI PUSH1 0x0 DUP1 REVERT JUMPDEST DUP1 SWAP2 POP POP SWAP3 SWAP6 POP SWAP3 SWAP6 POP SWAP3 SWAP6 JUMP JUMPDEST PUSH4 0x4E487B71 PUSH1 0xE0 SHL PUSH1 0x0 MSTORE PUSH1 0x41 PUSH1 0x4 MSTORE PUSH1 0x24 PUSH1 0x0 REVERT JUMPDEST PUSH1 0x1 DUP2 DUP2 SHR SWAP1 DUP3 AND DUP1 PUSH3 0x459 JUMPI PUSH1 0x7F DUP3 AND SWAP2 POP JUMPDEST PUSH1 0x20 DUP3 LT DUP2 SUB PUSH3 0x47A JUMPI PUSH4 0x4E487B71 PUSH1 0xE0 SHL PUSH1 0x0 MSTORE PUSH1 0x22 PUSH1 0x4 MSTORE PUSH1 0x24 PUSH1 0x0 REVERT JUMPDEST POP SWAP2 SWAP1 POP JUMP JUMPDEST PUSH1 0x1F DUP3 GT ISZERO PUSH3 0x4CE JUMPI PUSH1 0x0 DUP2 DUP2 MSTORE PUSH1 0x20 DUP2 KECCAK256 PUSH1 0x1F DUP6 ADD PUSH1 0x5 SHR DUP2 ADD PUSH1 0x20 DUP7 LT ISZERO PUSH3 0x4A9 JUMPI POP DUP1 JUMPDEST PUSH1 0x1F DUP6 ADD PUSH1 0x5 SHR DUP3 ADD SWAP2 POP JUMPDEST DUP2 DUP2 LT ISZERO PUSH3 0x4CA JUMPI DUP3 DUP2 SSTORE PUSH1 0x1 ADD PUSH3 0x4B5 JUMP JUMPDEST POP POP POP JUMPDEST POP POP POP JUMP JUMPDEST DUP2 MLOAD PUSH1 0x1 PUSH1 0x1 PUSH1 0x40 SHL SUB DUP2 GT ISZERO PUSH3 0x4EF JUMPI PUSH3 0x4EF PUSH3 0x42E JUMP JUMPDEST PUSH3 0x507 DUP2 PUSH3 0x500 DUP5 SLOAD PUSH3 0x444 JUMP JUMPDEST DUP5 PUSH3 0x480 JUMP JUMPDEST PUSH1 0x20 DUP1 PUSH1 0x1F DUP4 GT PUSH1 0x1 DUP2 EQ PUSH3 0x53F JUMPI PUSH1 0x0 DUP5 ISZERO PUSH3 0x526 JUMPI POP DUP6 DUP4 ADD MLOAD JUMPDEST PUSH1 0x0 NOT PUSH1 0x3 DUP7 SWAP1 SHL SHR NOT AND PUSH1 0x1 DUP6 SWAP1 SHL OR DUP6 SSTORE PUSH3 0x4CA JUMP JUMPDEST PUSH1 0x0 DUP6 DUP2 MSTORE PUSH1 0x20 DUP2 KECCAK256 PUSH1 0x1F NOT DUP7 AND SWAP2 JUMPDEST DUP3 DUP2 LT ISZERO PUSH3 0x570 JUMPI DUP9 DUP7 ADD MLOAD DUP3 SSTORE SWAP5 DUP5 ADD SWAP5 PUSH1 0x1 SWAP1 SWAP2 ADD SWAP1 DUP5 ADD PUSH3 0x54F JUMP JUMPDEST POP DUP6 DUP3 LT ISZERO PUSH3 0x58F JUMPI DUP8 DUP6 ADD MLOAD PUSH1 0x0 NOT PUSH1 0x3 DUP9 SWAP1 SHL PUSH1 0xF8 AND SHR NOT AND DUP2 SSTORE JUMPDEST POP POP POP POP POP PUSH1 0x1 SWAP1 DUP2 SHL ADD SWAP1 SSTORE POP JUMP JUMPDEST PUSH4 0x4E487B71 PUSH1 0xE0 SHL PUSH1 0x0 MSTORE PUSH1 0x11 PUSH1 0x4 MSTORE PUSH1 0x24 PUSH1 0x0 REVERT JUMPDEST PUSH1 0x0 DUP3 PUSH3 0x5D3 JUMPI PUSH4 0x4E487B71 PUSH1 0xE0 SHL PUSH1 0x0 MSTORE PUSH1 0x12 PUSH1 0x4 MSTORE PUSH1 0x24 PUSH1 0x0 REVERT JUMPDEST POP DIV SWAP1 JUMP JUMPDEST PUSH2 0xFFFF DUP2 DUP2 AND DUP4 DUP3 AND MUL DUP1 DUP3 AND SWAP2 SWAP1 DUP3 DUP2 EQ PUSH3 0x5F9 JUMPI PUSH3 0x5F9 PUSH3 0x59F JUMP JUMPDEST POP POP SWAP3 SWAP2 POP POP JUMP JUMPDEST DUP1 DUP3 MUL DUP2 ISZERO DUP3 DUP3 DIV DUP5 EQ OR PUSH3 0x385 JUMPI PUSH3 0x385 PUSH3 0x59F JUMP JUMPDEST DUP1 DUP3 ADD DUP1 DUP3 GT ISZERO PUSH3 0x385 JUMPI PUSH3 0x385 PUSH3 0x59F JUMP JUMPDEST PUSH1 0x80 MLOAD PUSH1 0xA0 MLOAD PUSH1 0xC0 MLOAD PUSH1 0xE0 MLOAD PUSH2 0x100 MLOAD PUSH2 0x120 MLOAD PUSH2 0x3217 PUSH3 0x6B9 PUSH1 0x0 CODECOPY PUSH1 0x0 DUP2 DUP2 PUSH2 0x290 ADD MSTORE PUSH2 0x1C8C ADD MSTORE PUSH1 0x0 DUP2 DUP2 PUSH2 0x3E7 ADD MSTORE PUSH2 0x1CB8 ADD MSTORE PUSH1 0x0 PUSH2 0x1D32 ADD MSTORE PUSH1 0x0 DUP2 DUP2 PUSH2 0x3C0 ADD MSTORE DUP2 DUP2 PUSH2 0x98B ADD MSTORE DUP2 DUP2 PUSH2 0xA70 ADD MSTORE PUSH2 0x1615 ADD MSTORE PUSH1 0x0 DUP2 DUP2 PUSH2 0x33D ADD MSTORE DUP2 DUP2 PUSH2 0xA94 ADD MSTORE DUP2 DUP2 PUSH2 0x15BC ADD MSTORE PUSH2 0x1AD4 ADD MSTORE PUSH1 0x0 PUSH2 0x579 ADD MSTORE PUSH2 0x3217 PUSH1 0x0 RETURN INVALID PUSH1 0x80 PUSH1 0x40 MSTORE CALLVALUE DUP1 ISZERO PUSH2 0x10 JUMPI PUSH1 0x0 DUP1 REVERT JUMPDEST POP PUSH1 0x4 CALLDATASIZE LT PUSH2 0x25E JUMPI PUSH1 0x0 CALLDATALOAD PUSH1 0xE0 SHR DUP1 PUSH4 0x5C900A1A GT PUSH2 0x146 JUMPI DUP1 PUSH4 0x95D89B41 GT PUSH2 0xC3 JUMPI DUP1 PUSH4 0xC87B56DD GT PUSH2 0x87 JUMPI DUP1 PUSH4 0xC87B56DD EQ PUSH2 0x669 JUMPI DUP1 PUSH4 0xC8D51919 EQ PUSH2 0x67C JUMPI DUP1 PUSH4 0xD7098154 EQ PUSH2 0x685 JUMPI DUP1 PUSH4 0xD96226A2 EQ PUSH2 0x698 JUMPI DUP1 PUSH4 0xE985E9C5 EQ PUSH2 0x726 JUMPI DUP1 PUSH4 0xF2FDE38B EQ PUSH2 0x739 JUMPI PUSH1 0x0 DUP1 REVERT JUMPDEST DUP1 PUSH4 0x95D89B41 EQ PUSH2 0x5D1 JUMPI DUP1 PUSH4 0x9ECCACF6 EQ PUSH2 0x5D9 JUMPI DUP1 PUSH4 0xA22CB465 EQ PUSH2 0x5EC JUMPI DUP1 PUSH4 0xB88D4FDE EQ PUSH2 0x5FF JUMPI DUP1 PUSH4 0xC5C51DCA EQ PUSH2 0x612 JUMPI PUSH1 0x0 DUP1 REVERT JUMPDEST DUP1 PUSH4 0x70A08231 GT PUSH2 0x10A JUMPI DUP1 PUSH4 0x70A08231 EQ PUSH2 0x559 JUMPI DUP1 PUSH4 0x79BA5097 EQ PUSH2 0x56C JUMPI DUP1 PUSH4 0x8D6EF595 EQ PUSH2 0x574 JUMPI DUP1 PUSH4 0x8DA5CB5B EQ PUSH2 0x5AD JUMPI DUP1 PUSH4 0x8EA98117 EQ PUSH2 0x5BE JUMPI PUSH1 0x0 DUP1 REVERT JUMPDEST DUP1 PUSH4 0x5C900A1A EQ PUSH2 0x4FD JUMPI DUP1 PUSH4 0x5D58F930 EQ PUSH2 0x505 JUMPI DUP1 PUSH4 0x6352211E EQ PUSH2 0x518 JUMPI DUP1 PUSH4 0x6BAF4A74 EQ PUSH2 0x52B JUMPI DUP1 PUSH4 0x6E04FF0D EQ PUSH2 0x538 JUMPI PUSH1 0x0 DUP1 REVERT JUMPDEST DUP1 PUSH4 0x23B872DD GT PUSH2 0x1DF JUMPI DUP1 PUSH4 0x3D4962ED GT PUSH2 0x1A3 JUMPI DUP1 PUSH4 0x3D4962ED EQ PUSH2 0x441 JUMPI DUP1 PUSH4 0x42842E0E EQ PUSH2 0x454 JUMPI DUP1 PUSH4 0x4585E33B EQ PUSH2 0x467 JUMPI DUP1 PUSH4 0x4F687E91 EQ PUSH2 0x47A JUMPI DUP1 PUSH4 0x50B44712 EQ PUSH2 0x482 JUMPI DUP1 PUSH4 0x51858E27 EQ PUSH2 0x4EB JUMPI PUSH1 0x0 DUP1 REVERT JUMPDEST DUP1 PUSH4 0x23B872DD EQ PUSH2 0x395 JUMPI DUP1 PUSH4 0x2516F149 EQ PUSH2 0x3A8 JUMPI DUP1 PUSH4 0x3013CE29 EQ PUSH2 0x3BB JUMPI DUP1 PUSH4 0x32615640 EQ PUSH2 0x3E2 JUMPI DUP1 PUSH4 0x33D608F1 EQ PUSH2 0x422 JUMPI PUSH1 0x0 DUP1 REVERT JUMPDEST DUP1 PUSH4 0xD50CDB9 GT PUSH2 0x226 JUMPI DUP1 PUSH4 0xD50CDB9 EQ PUSH2 0x315 JUMPI DUP1 PUSH4 0x1209B1F6 EQ PUSH2 0x338 JUMPI DUP1 PUSH4 0x147E291F EQ PUSH2 0x35F JUMPI DUP1 PUSH4 0x1E27580E EQ PUSH2 0x367 JUMPI DUP1 PUSH4 0x1FE543E3 EQ PUSH2 0x382 JUMPI PUSH1 0x0 DUP1 REVERT JUMPDEST DUP1 PUSH4 0x1FFC9A7 EQ PUSH2 0x263 JUMPI DUP1 PUSH4 0x41D443E EQ PUSH2 0x28B JUMPI DUP1 PUSH4 0x6FDDE03 EQ PUSH2 0x2C0 JUMPI DUP1 PUSH4 0x81812FC EQ PUSH2 0x2D5 JUMPI DUP1 PUSH4 0x95EA7B3 EQ PUSH2 0x300 JUMPI JUMPDEST PUSH1 0x0 DUP1 REVERT JUMPDEST PUSH2 0x276 PUSH2 0x271 CALLDATASIZE PUSH1 0x4 PUSH2 0x2B1C JUMP JUMPDEST PUSH2 0x74C JUMP JUMPDEST PUSH1 0x40 MLOAD SWAP1 ISZERO ISZERO DUP2 MSTORE PUSH1 0x20 ADD JUMPDEST PUSH1 0x40 MLOAD DUP1 SWAP2 SUB SWAP1 RETURN JUMPDEST PUSH2 0x2B2 PUSH32 0x0 DUP2 JUMP JUMPDEST PUSH1 0x40 MLOAD SWAP1 DUP2 MSTORE PUSH1 0x20 ADD PUSH2 0x282 JUMP JUMPDEST PUSH2 0x2C8 PUSH2 0x79E JUMP JUMPDEST PUSH1 0x40 MLOAD PUSH2 0x282 SWAP2 SWAP1 PUSH2 0x2B89 JUMP JUMPDEST PUSH2 0x2E8 PUSH2 0x2E3 CALLDATASIZE PUSH1 0x4 PUSH2 0x2B9C JUMP JUMPDEST PUSH2 0x830 JUMP JUMPDEST PUSH1 0x40 MLOAD PUSH1 0x1 PUSH1 0x1 PUSH1 0xA0 SHL SUB SWAP1 SWAP2 AND DUP2 MSTORE PUSH1 0x20 ADD PUSH2 0x282 JUMP JUMPDEST PUSH2 0x313 PUSH2 0x30E CALLDATASIZE PUSH1 0x4 PUSH2 0x2BD1 JUMP JUMPDEST PUSH2 0x859 JUMP JUMPDEST STOP JUMPDEST PUSH1 0xB SLOAD PUSH2 0x324 SWAP1 PUSH3 0xFFFFFF AND DUP2 JUMP JUMPDEST PUSH1 0x40 MLOAD PUSH3 0xFFFFFF SWAP1 SWAP2 AND DUP2 MSTORE PUSH1 0x20 ADD PUSH2 0x282 JUMP JUMPDEST PUSH2 0x2B2 PUSH32 0x0 DUP2 JUMP JUMPDEST PUSH2 0x313 PUSH2 0x868 JUMP JUMPDEST PUSH2 0x36F PUSH1 0x3 DUP2 JUMP JUMPDEST PUSH1 0x40 MLOAD PUSH2 0xFFFF SWAP1 SWAP2 AND DUP2 MSTORE PUSH1 0x20 ADD PUSH2 0x282 JUMP JUMPDEST PUSH2 0x313 PUSH2 0x390 CALLDATASIZE PUSH1 0x4 PUSH2 0x2BFB JUMP JUMPDEST PUSH2 0x88D JUMP JUMPDEST PUSH2 0x313 PUSH2 0x3A3 CALLDATASIZE PUSH1 0x4 PUSH2 0x2C7A JUMP JUMPDEST PUSH2 0x8E2 JUMP JUMPDEST PUSH2 0x313 PUSH2 0x3B6 CALLDATASIZE PUSH1 0x4 PUSH2 0x2CB6 JUMP JUMPDEST PUSH2 0x96D JUMP JUMPDEST PUSH2 0x2E8 PUSH32 0x0 DUP2 JUMP JUMPDEST PUSH2 0x409 PUSH32 0x0 DUP2 JUMP JUMPDEST PUSH1 0x40 MLOAD PUSH8 0xFFFFFFFFFFFFFFFF SWAP1 SWAP2 AND DUP2 MSTORE PUSH1 0x20 ADD PUSH2 0x282 JUMP JUMPDEST PUSH2 0x42C PUSH3 0x7A1200 DUP2 JUMP JUMPDEST PUSH1 0x40 MLOAD PUSH4 0xFFFFFFFF SWAP1 SWAP2 AND DUP2 MSTORE PUSH1 0x20 ADD PUSH2 0x282 JUMP JUMPDEST PUSH2 0x313 PUSH2 0x44F CALLDATASIZE PUSH1 0x4 PUSH2 0x2CD1 JUMP JUMPDEST PUSH2 0x9B2 JUMP JUMPDEST PUSH2 0x313 PUSH2 0x462 CALLDATASIZE PUSH1 0x4 PUSH2 0x2C7A JUMP JUMPDEST PUSH2 0xC05 JUMP JUMPDEST PUSH2 0x313 PUSH2 0x475 CALLDATASIZE PUSH1 0x4 PUSH2 0x2CF9 JUMP JUMPDEST PUSH2 0xC20 JUMP JUMPDEST PUSH2 0x313 PUSH2 0xD2B JUMP JUMPDEST PUSH2 0x4C2 PUSH2 0x490 CALLDATASIZE PUSH1 0x4 PUSH2 0x2B9C JUMP JUMPDEST PUSH1 0xD PUSH1 0x20 MSTORE PUSH1 0x0 SWAP1 DUP2 MSTORE PUSH1 0x40 SWAP1 KECCAK256 DUP1 SLOAD PUSH1 0x2 SWAP1 SWAP2 ADD SLOAD PUSH5 0xFFFFFFFFFF DUP3 AND SWAP2 PUSH1 0x1 PUSH1 0x28 SHL SWAP1 DIV PUSH3 0xFFFFFF AND SWAP1 PUSH1 0xFF AND DUP4 JUMP JUMPDEST PUSH1 0x40 DUP1 MLOAD PUSH5 0xFFFFFFFFFF SWAP1 SWAP5 AND DUP5 MSTORE PUSH3 0xFFFFFF SWAP1 SWAP3 AND PUSH1 0x20 DUP5 ADD MSTORE ISZERO ISZERO SWAP1 DUP3 ADD MSTORE PUSH1 0x60 ADD PUSH2 0x282 JUMP JUMPDEST PUSH1 0x17 SLOAD PUSH2 0x276 SWAP1 PUSH2 0x100 SWAP1 DIV PUSH1 0xFF AND DUP2 JUMP JUMPDEST PUSH2 0x42C PUSH1 0x1 DUP2 JUMP JUMPDEST PUSH2 0x313 PUSH2 0x513 CALLDATASIZE PUSH1 0x4 PUSH2 0x2D7E JUMP JUMPDEST PUSH2 0xD47 JUMP JUMPDEST PUSH2 0x2E8 PUSH2 0x526 CALLDATASIZE PUSH1 0x4 PUSH2 0x2B9C JUMP JUMPDEST PUSH2 0xFF6 JUMP JUMPDEST PUSH1 0x17 SLOAD PUSH2 0x276 SWAP1 PUSH1 0xFF AND DUP2 JUMP JUMPDEST PUSH2 0x54B PUSH2 0x546 CALLDATASIZE PUSH1 0x4 PUSH2 0x2CF9 JUMP JUMPDEST PUSH2 0x1001 JUMP JUMPDEST PUSH1 0x40 MLOAD PUSH2 0x282 SWAP3 SWAP2 SWAP1 PUSH2 0x2D9A JUMP JUMPDEST PUSH2 0x2B2 PUSH2 0x567 CALLDATASIZE PUSH1 0x4 PUSH2 0x2CB6 JUMP JUMPDEST PUSH2 0x1038 JUMP JUMPDEST PUSH2 0x313 PUSH2 0x1080 JUMP JUMPDEST PUSH2 0x59B PUSH32 0x0 DUP2 JUMP JUMPDEST PUSH1 0x40 MLOAD PUSH1 0xFF SWAP1 SWAP2 AND DUP2 MSTORE PUSH1 0x20 ADD PUSH2 0x282 JUMP JUMPDEST PUSH1 0x7 SLOAD PUSH1 0x1 PUSH1 0x1 PUSH1 0xA0 SHL SUB AND PUSH2 0x2E8 JUMP JUMPDEST PUSH2 0x313 PUSH2 0x5CC CALLDATASIZE PUSH1 0x4 PUSH2 0x2CB6 JUMP JUMPDEST PUSH2 0x112E JUMP JUMPDEST PUSH2 0x2C8 PUSH2 0x1220 JUMP JUMPDEST PUSH1 0x9 SLOAD PUSH2 0x2E8 SWAP1 PUSH1 0x1 PUSH1 0x1 PUSH1 0xA0 SHL SUB AND DUP2 JUMP JUMPDEST PUSH2 0x313 PUSH2 0x5FA CALLDATASIZE PUSH1 0x4 PUSH2 0x2DC3 JUMP JUMPDEST PUSH2 0x122F JUMP JUMPDEST PUSH2 0x313 PUSH2 0x60D CALLDATASIZE PUSH1 0x4 PUSH2 0x2E10 JUMP JUMPDEST PUSH2 0x123A JUMP JUMPDEST PUSH1 0xF SLOAD PUSH1 0x10 SLOAD PUSH1 0x11 SLOAD PUSH1 0x12 SLOAD PUSH1 0x13 SLOAD PUSH1 0x14 SLOAD PUSH1 0x15 SLOAD PUSH2 0x634 SWAP7 SWAP6 SWAP5 SWAP4 SWAP3 SWAP2 SWAP1 DUP8 JUMP JUMPDEST PUSH1 0x40 DUP1 MLOAD SWAP8 DUP9 MSTORE PUSH1 0x20 DUP9 ADD SWAP7 SWAP1 SWAP7 MSTORE SWAP5 DUP7 ADD SWAP4 SWAP1 SWAP4 MSTORE PUSH1 0x60 DUP6 ADD SWAP2 SWAP1 SWAP2 MSTORE PUSH1 0x80 DUP5 ADD MSTORE PUSH1 0xA0 DUP4 ADD MSTORE PUSH1 0xC0 DUP3 ADD MSTORE PUSH1 0xE0 ADD PUSH2 0x282 JUMP JUMPDEST PUSH2 0x2C8 PUSH2 0x677 CALLDATASIZE PUSH1 0x4 PUSH2 0x2B9C JUMP JUMPDEST PUSH2 0x1251 JUMP JUMPDEST PUSH2 0x2B2 PUSH1 0xA SLOAD DUP2 JUMP JUMPDEST PUSH2 0x313 PUSH2 0x693 CALLDATASIZE PUSH1 0x4 PUSH2 0x2B9C JUMP JUMPDEST PUSH2 0x12C6 JUMP JUMPDEST PUSH2 0x6EE PUSH2 0x6A6 CALLDATASIZE PUSH1 0x4 PUSH2 0x2EEC JUMP JUMPDEST PUSH1 0x16 PUSH1 0x20 MSTORE PUSH1 0x0 SWAP1 DUP2 MSTORE PUSH1 0x40 SWAP1 KECCAK256 PUSH1 0x1 ADD SLOAD PUSH4 0xFFFFFFFF DUP1 DUP3 AND SWAP2 PUSH5 0x100000000 DUP2 DIV DUP3 AND SWAP2 PUSH1 0x1 PUSH1 0x40 SHL DUP3 DIV DUP2 AND SWAP2 PUSH1 0x1 PUSH1 0x60 SHL DUP2 DIV SWAP1 SWAP2 AND SWAP1 PUSH1 0x1 PUSH1 0x80 SHL SWAP1 DIV PUSH1 0xFF AND DUP6 JUMP JUMPDEST PUSH1 0x40 DUP1 MLOAD PUSH4 0xFFFFFFFF SWAP7 DUP8 AND DUP2 MSTORE SWAP5 DUP7 AND PUSH1 0x20 DUP7 ADD MSTORE SWAP3 DUP6 AND SWAP3 DUP5 ADD SWAP3 SWAP1 SWAP3 MSTORE SWAP1 SWAP3 AND PUSH1 0x60 DUP3 ADD MSTORE SWAP1 ISZERO ISZERO PUSH1 0x80 DUP3 ADD MSTORE PUSH1 0xA0 ADD PUSH2 0x282 JUMP JUMPDEST PUSH2 0x276 PUSH2 0x734 CALLDATASIZE PUSH1 0x4 PUSH2 0x2F07 JUMP JUMPDEST PUSH2 0x169E JUMP JUMPDEST PUSH2 0x313 PUSH2 0x747 CALLDATASIZE PUSH1 0x4 PUSH2 0x2CB6 JUMP JUMPDEST PUSH2 0x16CC JUMP JUMPDEST PUSH1 0x0 PUSH1 0x1 PUSH1 0x1 PUSH1 0xE0 SHL SUB NOT DUP3 AND PUSH4 0x80AC58CD PUSH1 0xE0 SHL EQ DUP1 PUSH2 0x77D JUMPI POP PUSH1 0x1 PUSH1 0x1 PUSH1 0xE0 SHL SUB NOT DUP3 AND PUSH4 0x5B5E139F PUSH1 0xE0 SHL EQ JUMPDEST DUP1 PUSH2 0x798 JUMPI POP PUSH4 0x1FFC9A7 PUSH1 0xE0 SHL PUSH1 0x1 PUSH1 0x1 PUSH1 0xE0 SHL SUB NOT DUP4 AND EQ JUMPDEST SWAP3 SWAP2 POP POP JUMP JUMPDEST PUSH1 0x60 PUSH1 0x0 DUP1 SLOAD PUSH2 0x7AD SWAP1 PUSH2 0x2F3A JUMP JUMPDEST DUP1 PUSH1 0x1F ADD PUSH1 0x20 DUP1 SWAP2 DIV MUL PUSH1 0x20 ADD PUSH1 0x40 MLOAD SWAP1 DUP2 ADD PUSH1 0x40 MSTORE DUP1 SWAP3 SWAP2 SWAP1 DUP2 DUP2 MSTORE PUSH1 0x20 ADD DUP3 DUP1 SLOAD PUSH2 0x7D9 SWAP1 PUSH2 0x2F3A JUMP JUMPDEST DUP1 ISZERO PUSH2 0x826 JUMPI DUP1 PUSH1 0x1F LT PUSH2 0x7FB JUMPI PUSH2 0x100 DUP1 DUP4 SLOAD DIV MUL DUP4 MSTORE SWAP2 PUSH1 0x20 ADD SWAP2 PUSH2 0x826 JUMP JUMPDEST DUP3 ADD SWAP2 SWAP1 PUSH1 0x0 MSTORE PUSH1 0x20 PUSH1 0x0 KECCAK256 SWAP1 JUMPDEST DUP2 SLOAD DUP2 MSTORE SWAP1 PUSH1 0x1 ADD SWAP1 PUSH1 0x20 ADD DUP1 DUP4 GT PUSH2 0x809 JUMPI DUP3 SWAP1 SUB PUSH1 0x1F AND DUP3 ADD SWAP2 JUMPDEST POP POP POP POP POP SWAP1 POP SWAP1 JUMP JUMPDEST PUSH1 0x0 PUSH2 0x83B DUP3 PUSH2 0x16DD JUMP JUMPDEST POP PUSH1 0x0 DUP3 DUP2 MSTORE PUSH1 0x4 PUSH1 0x20 MSTORE PUSH1 0x40 SWAP1 KECCAK256 SLOAD PUSH1 0x1 PUSH1 0x1 PUSH1 0xA0 SHL SUB AND PUSH2 0x798 JUMP JUMPDEST PUSH2 0x864 DUP3 DUP3 CALLER PUSH2 0x1716 JUMP JUMPDEST POP POP JUMP JUMPDEST PUSH2 0x870 PUSH2 0x1723 JUMP JUMPDEST PUSH1 0x17 DUP1 SLOAD PUSH2 0xFF00 NOT DUP2 AND PUSH2 0x100 SWAP2 DUP3 SWAP1 DIV PUSH1 0xFF AND ISZERO SWAP1 SWAP2 MUL OR SWAP1 SSTORE JUMP JUMPDEST PUSH1 0x9 SLOAD PUSH1 0x1 PUSH1 0x1 PUSH1 0xA0 SHL SUB AND CALLER EQ PUSH2 0x8D2 JUMPI PUSH1 0x9 SLOAD PUSH1 0x40 MLOAD PUSH4 0x73E64FD PUSH1 0xE2 SHL DUP2 MSTORE CALLER PUSH1 0x4 DUP3 ADD MSTORE PUSH1 0x1 PUSH1 0x1 PUSH1 0xA0 SHL SUB SWAP1 SWAP2 AND PUSH1 0x24 DUP3 ADD MSTORE PUSH1 0x44 ADD JUMPDEST PUSH1 0x40 MLOAD DUP1 SWAP2 SUB SWAP1 REVERT JUMPDEST PUSH2 0x8DD DUP4 DUP4 DUP4 PUSH2 0x1778 JUMP JUMPDEST POP POP POP JUMP JUMPDEST PUSH1 0x1 PUSH1 0x1 PUSH1 0xA0 SHL SUB DUP3 AND PUSH2 0x90C JUMPI PUSH1 0x40 MLOAD PUSH4 0x32505749 PUSH1 0xE1 SHL DUP2 MSTORE PUSH1 0x0 PUSH1 0x4 DUP3 ADD MSTORE PUSH1 0x24 ADD PUSH2 0x8C9 JUMP JUMPDEST PUSH1 0x0 PUSH2 0x919 DUP4 DUP4 CALLER PUSH2 0x18D7 JUMP JUMPDEST SWAP1 POP DUP4 PUSH1 0x1 PUSH1 0x1 PUSH1 0xA0 SHL SUB AND DUP2 PUSH1 0x1 PUSH1 0x1 PUSH1 0xA0 SHL SUB AND EQ PUSH2 0x967 JUMPI PUSH1 0x40 MLOAD PUSH4 0x64283D7B PUSH1 0xE0 SHL DUP2 MSTORE PUSH1 0x1 PUSH1 0x1 PUSH1 0xA0 SHL SUB DUP1 DUP7 AND PUSH1 0x4 DUP4 ADD MSTORE PUSH1 0x24 DUP3 ADD DUP5 SWAP1 MSTORE DUP3 AND PUSH1 0x44 DUP3 ADD MSTORE PUSH1 0x64 ADD PUSH2 0x8C9 JUMP JUMPDEST POP POP POP POP JUMP JUMPDEST PUSH2 0x975 PUSH2 0x1723 JUMP JUMPDEST PUSH1 0x12 DUP1 SLOAD PUSH1 0x0 SWAP1 SWAP2 SSTORE PUSH2 0x864 PUSH1 0x1 PUSH1 0x1 PUSH1 0xA0 SHL SUB PUSH32 0x0 AND DUP4 DUP4 PUSH2 0x19D0 JUMP JUMPDEST PUSH2 0x9BA PUSH2 0x1A2F JUMP JUMPDEST PUSH1 0x17 SLOAD PUSH2 0x100 SWAP1 DIV PUSH1 0xFF AND ISZERO PUSH2 0x9E3 JUMPI PUSH1 0x40 MLOAD PUSH4 0x4CB3183D PUSH1 0xE0 SHL DUP2 MSTORE PUSH1 0x4 ADD PUSH1 0x40 MLOAD DUP1 SWAP2 SUB SWAP1 REVERT JUMPDEST PUSH1 0xA SLOAD TIMESTAMP LT PUSH2 0xA05 JUMPI PUSH1 0x40 MLOAD PUSH4 0x85DE625 PUSH1 0xE0 SHL DUP2 MSTORE PUSH1 0x4 ADD PUSH1 0x40 MLOAD DUP1 SWAP2 SUB SWAP1 REVERT JUMPDEST PUSH1 0x0 JUMPDEST PUSH1 0x4 DUP2 LT ISZERO PUSH2 0xA62 JUMPI PUSH1 0x18 DUP3 DUP3 PUSH1 0x4 DUP2 LT PUSH2 0xA25 JUMPI PUSH2 0xA25 PUSH2 0x2F6E JUMP JUMPDEST PUSH1 0x20 MUL ADD PUSH1 0x20 DUP2 ADD SWAP1 PUSH2 0xA38 SWAP2 SWAP1 PUSH2 0x2F84 JUMP JUMPDEST PUSH1 0xFF AND GT ISZERO PUSH2 0xA5A JUMPI PUSH1 0x40 MLOAD PUSH4 0x8214F17 PUSH1 0xE2 SHL DUP2 MSTORE PUSH1 0x4 ADD PUSH1 0x40 MLOAD DUP1 SWAP2 SUB SWAP1 REVERT JUMPDEST PUSH1 0x1 ADD PUSH2 0xA08 JUMP JUMPDEST POP PUSH2 0xAB8 PUSH1 0x1 PUSH1 0x1 PUSH1 0xA0 SHL SUB PUSH32 0x0 AND CALLER ADDRESS PUSH32 0x0 PUSH2 0x1A59 JUMP JUMPDEST PUSH1 0xC DUP1 SLOAD PUSH1 0x0 SWAP2 DUP3 PUSH2 0xAC9 DUP4 PUSH2 0x2FBD JUMP JUMPDEST SWAP2 SWAP1 POP SSTORE SWAP1 POP PUSH2 0xAD9 CALLER DUP3 PUSH2 0x1A92 JUMP JUMPDEST PUSH1 0x40 DUP1 MLOAD PUSH1 0x80 DUP1 DUP3 ADD DUP4 MSTORE PUSH5 0xFFFFFFFFFF TIMESTAMP AND DUP3 MSTORE PUSH1 0xB SLOAD PUSH3 0xFFFFFF AND PUSH1 0x20 DUP4 ADD MSTORE DUP3 MLOAD DUP1 DUP3 ADD DUP5 MSTORE SWAP2 SWAP3 DUP4 ADD SWAP2 SWAP1 DUP6 SWAP1 PUSH1 0x4 SWAP1 DUP4 SWAP1 DUP4 SWAP1 DUP1 DUP3 DUP5 CALLDATACOPY PUSH1 0x0 SWAP3 ADD DUP3 SWAP1 MSTORE POP SWAP3 DUP5 MSTORE POP POP PUSH1 0x20 SWAP2 DUP3 ADD DUP2 SWAP1 MSTORE DUP4 DUP2 MSTORE PUSH1 0xD DUP3 MSTORE PUSH1 0x40 SWAP1 DUP2 SWAP1 KECCAK256 DUP4 MLOAD DUP2 SLOAD SWAP4 DUP6 ADD MLOAD PUSH3 0xFFFFFF AND PUSH1 0x1 PUSH1 0x28 SHL MUL PUSH8 0xFFFFFFFFFFFFFFFF NOT SWAP1 SWAP5 AND PUSH5 0xFFFFFFFFFF SWAP1 SWAP2 AND OR SWAP3 SWAP1 SWAP3 OR DUP3 SSTORE DUP3 ADD MLOAD PUSH2 0xB7A SWAP1 PUSH1 0x1 DUP4 ADD SWAP1 PUSH1 0x4 PUSH2 0x2A3F JUMP JUMPDEST POP PUSH1 0x60 SWAP2 SWAP1 SWAP2 ADD MLOAD PUSH1 0x2 SWAP1 SWAP2 ADD DUP1 SLOAD PUSH1 0xFF NOT AND SWAP2 ISZERO ISZERO SWAP2 SWAP1 SWAP2 OR SWAP1 SSTORE PUSH1 0xB DUP1 SLOAD PUSH3 0xFFFFFF SWAP1 DUP2 AND PUSH1 0x0 SWAP1 DUP2 MSTORE PUSH1 0xE PUSH1 0x20 SWAP1 DUP2 MSTORE PUSH1 0x40 DUP1 DUP4 KECCAK256 DUP1 SLOAD PUSH1 0x1 DUP2 ADD DUP3 SSTORE SWAP1 DUP5 MSTORE SWAP2 DUP4 KECCAK256 SWAP1 SWAP2 ADD DUP6 SWAP1 SSTORE SWAP3 SLOAD SWAP3 MLOAD SWAP3 SWAP1 SWAP2 AND SWAP2 DUP4 SWAP2 CALLER SWAP2 PUSH32 0x12EEE7F99EA5C9C160467D40A467F18C62607B8D43607D0840F168CC2B55B2E4 SWAP2 SWAP1 LOG4 POP PUSH2 0xC02 PUSH1 0x1 PUSH1 0x6 SSTORE JUMP JUMPDEST POP JUMP JUMPDEST PUSH2 0x8DD DUP4 DUP4 DUP4 PUSH1 0x40 MLOAD DUP1 PUSH1 0x20 ADD PUSH1 0x40 MSTORE DUP1 PUSH1 0x0 DUP2 MSTORE POP PUSH2 0x123A JUMP JUMPDEST PUSH1 0x17 SLOAD PUSH1 0xFF AND ISZERO DUP1 PUSH2 0xC39 JUMPI POP PUSH1 0x17 SLOAD PUSH2 0x100 SWAP1 DIV PUSH1 0xFF AND JUMPDEST ISZERO PUSH2 0xC57 JUMPI PUSH1 0x40 MLOAD PUSH4 0xFC5EAEFD PUSH1 0xE0 SHL DUP2 MSTORE PUSH1 0x4 ADD PUSH1 0x40 MLOAD DUP1 SWAP2 SUB SWAP1 REVERT JUMPDEST PUSH1 0xA SLOAD TIMESTAMP LT ISZERO PUSH2 0xC7A JUMPI PUSH1 0x40 MLOAD PUSH4 0x85DE625 PUSH1 0xE0 SHL DUP2 MSTORE PUSH1 0x4 ADD PUSH1 0x40 MLOAD DUP1 SWAP2 SUB SWAP1 REVERT JUMPDEST PUSH1 0xB SLOAD PUSH3 0xFFFFFF AND PUSH2 0xC8B DUP2 PUSH2 0x1AAC JUMP JUMPDEST PUSH2 0xC94 DUP2 PUSH2 0x1C80 JUMP JUMPDEST PUSH1 0xB DUP1 SLOAD PUSH1 0x1 SWAP2 SWAP1 PUSH1 0x0 SWAP1 PUSH2 0xCAF SWAP1 DUP5 SWAP1 PUSH3 0xFFFFFF AND PUSH2 0x2FD6 JUMP JUMPDEST SWAP3 POP PUSH2 0x100 EXP DUP2 SLOAD DUP2 PUSH3 0xFFFFFF MUL NOT AND SWAP1 DUP4 PUSH3 0xFFFFFF AND MUL OR SWAP1 SSTORE POP PUSH3 0x15180 PUSH1 0xA PUSH1 0x0 DUP3 DUP3 SLOAD PUSH2 0xCE0 SWAP2 SWAP1 PUSH2 0x2FF9 JUMP JUMPDEST SWAP1 SWAP2 SSTORE POP POP PUSH1 0xB SLOAD PUSH1 0xA SLOAD PUSH1 0x40 MLOAD SWAP1 DUP2 MSTORE PUSH3 0xFFFFFF SWAP1 SWAP2 AND SWAP1 PUSH32 0x70ABA4EECFB00A70E5AAE193521BC256FC3CBF7A91479F6BCDA4B5A82F986961 SWAP1 PUSH1 0x20 ADD PUSH1 0x40 MLOAD DUP1 SWAP2 SUB SWAP1 LOG2 POP POP POP JUMP JUMPDEST PUSH2 0xD33 PUSH2 0x1723 JUMP JUMPDEST PUSH1 0x17 DUP1 SLOAD PUSH1 0xFF NOT DUP2 AND PUSH1 0xFF SWAP1 SWAP2 AND ISZERO OR SWAP1 SSTORE JUMP JUMPDEST DUP1 ISZERO DUP1 PUSH2 0xD55 JUMPI POP PUSH2 0x12C DUP2 GT JUMPDEST ISZERO PUSH2 0xD5F JUMPI POP PUSH2 0x12C JUMPDEST PUSH3 0xFFFFFF DUP3 AND PUSH1 0x0 SWAP1 DUP2 MSTORE PUSH1 0x16 PUSH1 0x20 MSTORE PUSH1 0x40 SWAP1 KECCAK256 PUSH1 0x1 DUP2 ADD SLOAD PUSH1 0x1 PUSH1 0x80 SHL SWAP1 DIV PUSH1 0xFF AND ISZERO PUSH2 0xDA0 JUMPI PUSH1 0x40 MLOAD PUSH4 0x683F18B PUSH1 0xE4 SHL DUP2 MSTORE PUSH1 0x4 ADD PUSH1 0x40 MLOAD DUP1 SWAP2 SUB SWAP1 REVERT JUMPDEST PUSH3 0xFFFFFF DUP4 AND PUSH1 0x0 SWAP1 DUP2 MSTORE PUSH1 0xE PUSH1 0x20 MSTORE PUSH1 0x40 SWAP1 KECCAK256 PUSH1 0x1 DUP3 ADD SLOAD DUP2 SLOAD PUSH4 0xFFFFFFFF SWAP1 SWAP2 AND SWAP1 DUP2 LT PUSH2 0xDE2 JUMPI PUSH1 0x40 MLOAD PUSH3 0x46703 PUSH1 0xE6 SHL DUP2 MSTORE PUSH1 0x4 ADD PUSH1 0x40 MLOAD DUP1 SWAP2 SUB SWAP1 REVERT JUMPDEST PUSH1 0x0 PUSH2 0xDEE DUP6 DUP4 PUSH2 0x2FF9 JUMP JUMPDEST DUP4 SLOAD SWAP1 SWAP2 POP DUP2 GT ISZERO PUSH2 0xDFE JUMPI POP DUP2 SLOAD JUMPDEST DUP2 JUMPDEST DUP2 DUP2 LT ISZERO PUSH2 0xE3E JUMPI PUSH2 0xE2E DUP5 DUP3 DUP2 SLOAD DUP2 LT PUSH2 0xE1D JUMPI PUSH2 0xE1D PUSH2 0x2F6E JUMP JUMPDEST SWAP1 PUSH1 0x0 MSTORE PUSH1 0x20 PUSH1 0x0 KECCAK256 ADD SLOAD DUP7 PUSH2 0x1DE4 JUMP JUMPDEST PUSH2 0xE37 DUP2 PUSH2 0x2FBD JUMP JUMPDEST SWAP1 POP PUSH2 0xE00 JUMP JUMPDEST POP PUSH1 0x1 DUP5 ADD DUP1 SLOAD PUSH4 0xFFFFFFFF NOT AND PUSH4 0xFFFFFFFF DUP4 AND OR SWAP1 SSTORE PUSH1 0x40 DUP1 MLOAD DUP4 DUP2 MSTORE PUSH1 0x20 DUP2 ADD DUP4 SWAP1 MSTORE PUSH3 0xFFFFFF DUP9 AND SWAP2 PUSH32 0x95F2647279697D92FBFBD24A0E306C284798157A253E2126EBF1451515F6FBD9 SWAP2 ADD PUSH1 0x40 MLOAD DUP1 SWAP2 SUB SWAP1 LOG2 DUP3 SLOAD DUP2 SUB PUSH2 0xFEE JUMPI PUSH1 0x1 DUP5 ADD DUP1 SLOAD PUSH1 0xFF PUSH1 0x80 SHL NOT AND PUSH1 0x1 PUSH1 0x80 SHL OR SWAP1 DUP2 SWAP1 SSTORE PUSH1 0x40 DUP1 MLOAD PUSH4 0xFFFFFFFF PUSH5 0x100000000 DUP5 DIV DUP2 AND DUP3 MSTORE PUSH1 0x1 PUSH1 0x40 SHL DUP5 DIV DUP2 AND PUSH1 0x20 DUP4 ADD MSTORE PUSH1 0x1 PUSH1 0x60 SHL SWAP1 SWAP4 DIV SWAP1 SWAP3 AND SWAP1 DUP3 ADD MSTORE PUSH3 0xFFFFFF DUP8 AND SWAP1 PUSH32 0x9094B2B67842ABB4391FC6C54030E03D20642491EFEB4EDA225641EAC3B10127 SWAP1 PUSH1 0x60 ADD PUSH1 0x40 MLOAD DUP1 SWAP2 SUB SWAP1 LOG2 PUSH1 0x1 DUP5 ADD SLOAD PUSH5 0x100000000 SWAP1 DIV PUSH4 0xFFFFFFFF AND ISZERO DUP1 ISZERO SWAP1 PUSH2 0xF3D JUMPI POP PUSH1 0x13 SLOAD ISZERO ISZERO JUMPDEST ISZERO PUSH2 0xF62 JUMPI PUSH1 0x13 SLOAD PUSH1 0xF DUP1 SLOAD PUSH1 0x0 SWAP1 PUSH2 0xF57 SWAP1 DUP5 SWAP1 PUSH2 0x2FF9 JUMP JUMPDEST SWAP1 SWAP2 SSTORE POP POP PUSH1 0x0 PUSH1 0x13 SSTORE JUMPDEST PUSH1 0x1 DUP5 ADD SLOAD PUSH1 0x1 PUSH1 0x40 SHL SWAP1 DIV PUSH4 0xFFFFFFFF AND ISZERO DUP1 ISZERO SWAP1 PUSH2 0xF83 JUMPI POP PUSH1 0x14 SLOAD ISZERO ISZERO JUMPDEST ISZERO PUSH2 0xFA8 JUMPI PUSH1 0x14 SLOAD PUSH1 0x10 DUP1 SLOAD PUSH1 0x0 SWAP1 PUSH2 0xF9D SWAP1 DUP5 SWAP1 PUSH2 0x2FF9 JUMP JUMPDEST SWAP1 SWAP2 SSTORE POP POP PUSH1 0x0 PUSH1 0x14 SSTORE JUMPDEST PUSH1 0x1 DUP5 ADD SLOAD PUSH1 0x1 PUSH1 0x60 SHL SWAP1 DIV PUSH4 0xFFFFFFFF AND ISZERO DUP1 ISZERO SWAP1 PUSH2 0xFC9 JUMPI POP PUSH1 0x15 SLOAD ISZERO ISZERO JUMPDEST ISZERO PUSH2 0xFEE JUMPI PUSH1 0x15 SLOAD PUSH1 0x11 DUP1 SLOAD PUSH1 0x0 SWAP1 PUSH2 0xFE3 SWAP1 DUP5 SWAP1 PUSH2 0x2FF9 JUMP JUMPDEST SWAP1 SWAP2 SSTORE POP POP PUSH1 0x0 PUSH1 0x15 SSTORE JUMPDEST POP POP POP POP POP POP JUMP JUMPDEST PUSH1 0x0 PUSH2 0x798 DUP3 PUSH2 0x16DD JUMP JUMPDEST PUSH1 0x17 SLOAD PUSH1 0x0 SWAP1 PUSH1 0x60 SWAP1 PUSH1 0xFF AND DUP1 ISZERO PUSH2 0x1021 JUMPI POP PUSH1 0x17 SLOAD PUSH2 0x100 SWAP1 DIV PUSH1 0xFF AND ISZERO JUMPDEST DUP1 ISZERO PUSH2 0x102F JUMPI POP PUSH1 0xA SLOAD TIMESTAMP LT ISZERO JUMPDEST SWAP2 POP SWAP3 POP SWAP3 SWAP1 POP JUMP JUMPDEST PUSH1 0x0 PUSH1 0x1 PUSH1 0x1 PUSH1 0xA0 SHL SUB DUP3 AND PUSH2 0x1064 JUMPI PUSH1 0x40 MLOAD PUSH4 0x22718AD9 PUSH1 0xE2 SHL DUP2 MSTORE PUSH1 0x0 PUSH1 0x4 DUP3 ADD MSTORE PUSH1 0x24 ADD PUSH2 0x8C9 JUMP JUMPDEST POP PUSH1 0x1 PUSH1 0x1 PUSH1 0xA0 SHL SUB AND PUSH1 0x0 SWAP1 DUP2 MSTORE PUSH1 0x3 PUSH1 0x20 MSTORE PUSH1 0x40 SWAP1 KECCAK256 SLOAD SWAP1 JUMP JUMPDEST PUSH1 0x8 SLOAD PUSH1 0x1 PUSH1 0x1 PUSH1 0xA0 SHL SUB AND CALLER EQ PUSH2 0x10D3 JUMPI PUSH1 0x40 MLOAD PUSH3 0x461BCD PUSH1 0xE5 SHL DUP2 MSTORE PUSH1 0x20 PUSH1 0x4 DUP3 ADD MSTORE PUSH1 0x16 PUSH1 0x24 DUP3 ADD MSTORE PUSH22 0x26BAB9BA10313290383937B837B9B2B21037BBB732B9 PUSH1 0x51 SHL PUSH1 0x44 DUP3 ADD MSTORE PUSH1 0x64 ADD PUSH2 0x8C9 JUMP JUMPDEST PUSH1 0x7 DUP1 SLOAD PUSH1 0x1 PUSH1 0x1 PUSH1 0xA0 SHL SUB NOT DUP1 DUP3 AND CALLER SWAP1 DUP2 OR SWAP1 SWAP4 SSTORE PUSH1 0x8 DUP1 SLOAD SWAP1 SWAP2 AND SWAP1 SSTORE PUSH1 0x40 MLOAD PUSH1 0x1 PUSH1 0x1 PUSH1 0xA0 SHL SUB SWAP1 SWAP2 AND SWAP2 SWAP1 DUP3 SWAP1 PUSH32 0x8BE0079C531659141344CD1FD0A4F28419497F9722A3DAAFE3B4186F6B6457E0 SWAP1 PUSH1 0x0 SWAP1 LOG3 POP JUMP JUMPDEST PUSH1 0x7 SLOAD PUSH1 0x1 PUSH1 0x1 PUSH1 0xA0 SHL SUB AND CALLER EQ DUP1 ISZERO SWAP1 PUSH2 0x1154 JUMPI POP PUSH1 0x9 SLOAD PUSH1 0x1 PUSH1 0x1 PUSH1 0xA0 SHL SUB AND CALLER EQ ISZERO JUMPDEST ISZERO PUSH2 0x11A5 JUMPI CALLER PUSH2 0x116C PUSH1 0x7 SLOAD PUSH1 0x1 PUSH1 0x1 PUSH1 0xA0 SHL SUB AND SWAP1 JUMP JUMPDEST PUSH1 0x9 SLOAD PUSH1 0x40 MLOAD PUSH4 0x61DB9C1 PUSH1 0xE0 SHL DUP2 MSTORE PUSH1 0x1 PUSH1 0x1 PUSH1 0xA0 SHL SUB SWAP4 DUP5 AND PUSH1 0x4 DUP3 ADD MSTORE SWAP2 DUP4 AND PUSH1 0x24 DUP4 ADD MSTORE SWAP2 SWAP1 SWAP2 AND PUSH1 0x44 DUP3 ADD MSTORE PUSH1 0x64 ADD PUSH2 0x8C9 JUMP JUMPDEST PUSH1 0x1 PUSH1 0x1 PUSH1 0xA0 SHL SUB DUP2 AND PUSH2 0x11CC JUMPI PUSH1 0x40 MLOAD PUSH4 0xD92E233D PUSH1 0xE0 SHL DUP2 MSTORE PUSH1 0x4 ADD PUSH1 0x40 MLOAD DUP1 SWAP2 SUB SWAP1 REVERT JUMPDEST PUSH1 0x9 DUP1 SLOAD PUSH1 0x1 PUSH1 0x1 PUSH1 0xA0 SHL SUB NOT AND PUSH1 0x1 PUSH1 0x1 PUSH1 0xA0 SHL SUB DUP4 AND SWAP1 DUP2 OR SWAP1 SWAP2 SSTORE PUSH1 0x40 MLOAD SWAP1 DUP2 MSTORE PUSH32 0xD1A6A14209A385A964D036E404CB5CFB71F4000CDB03C9366292430787261BE6 SWAP1 PUSH1 0x20 ADD PUSH1 0x40 MLOAD DUP1 SWAP2 SUB SWAP1 LOG1 POP JUMP JUMPDEST PUSH1 0x60 PUSH1 0x1 DUP1 SLOAD PUSH2 0x7AD SWAP1 PUSH2 0x2F3A JUMP JUMPDEST PUSH2 0x864 CALLER DUP4 DUP4 PUSH2 0x206D JUMP JUMPDEST PUSH2 0x1245 DUP5 DUP5 DUP5 PUSH2 0x8E2 JUMP JUMPDEST PUSH2 0x967 DUP5 DUP5 DUP5 DUP5 PUSH2 0x210C JUMP JUMPDEST PUSH1 0x60 PUSH2 0x125C DUP3 PUSH2 0x16DD JUMP JUMPDEST POP PUSH1 0x0 PUSH2 0x1274 PUSH1 0x40 DUP1 MLOAD PUSH1 0x20 DUP2 ADD SWAP1 SWAP2 MSTORE PUSH1 0x0 DUP2 MSTORE SWAP1 JUMP JUMPDEST SWAP1 POP PUSH1 0x0 DUP2 MLOAD GT PUSH2 0x1294 JUMPI PUSH1 0x40 MLOAD DUP1 PUSH1 0x20 ADD PUSH1 0x40 MSTORE DUP1 PUSH1 0x0 DUP2 MSTORE POP PUSH2 0x12BF JUMP JUMPDEST DUP1 PUSH2 0x129E DUP5 PUSH2 0x2235 JUMP JUMPDEST PUSH1 0x40 MLOAD PUSH1 0x20 ADD PUSH2 0x12AF SWAP3 SWAP2 SWAP1 PUSH2 0x300C JUMP JUMPDEST PUSH1 0x40 MLOAD PUSH1 0x20 DUP2 DUP4 SUB SUB DUP2 MSTORE SWAP1 PUSH1 0x40 MSTORE JUMPDEST SWAP4 SWAP3 POP POP POP JUMP JUMPDEST PUSH2 0x12CE PUSH2 0x1A2F JUMP JUMPDEST PUSH1 0x0 DUP2 DUP2 MSTORE PUSH1 0xD PUSH1 0x20 MSTORE PUSH1 0x40 SWAP1 KECCAK256 PUSH1 0x2 DUP2 ADD SLOAD PUSH1 0xFF AND ISZERO PUSH2 0x1302 JUMPI PUSH1 0x40 MLOAD PUSH4 0xC8D9EAB PUSH1 0xE3 SHL DUP2 MSTORE PUSH1 0x4 ADD PUSH1 0x40 MLOAD DUP1 SWAP2 SUB SWAP1 REVERT JUMPDEST CALLER PUSH2 0x130C DUP4 PUSH2 0xFF6 JUMP JUMPDEST PUSH1 0x1 PUSH1 0x1 PUSH1 0xA0 SHL SUB AND EQ PUSH2 0x1333 JUMPI PUSH1 0x40 MLOAD PUSH4 0x30C63921 PUSH1 0xE1 SHL DUP2 MSTORE PUSH1 0x4 ADD PUSH1 0x40 MLOAD DUP1 SWAP2 SUB SWAP1 REVERT JUMPDEST DUP1 SLOAD PUSH1 0x1 PUSH1 0x28 SHL SWAP1 DIV PUSH3 0xFFFFFF AND PUSH1 0x0 SWAP1 DUP2 MSTORE PUSH1 0x16 PUSH1 0x20 MSTORE PUSH1 0x40 SWAP1 KECCAK256 PUSH1 0x1 DUP2 ADD SLOAD PUSH1 0x1 PUSH1 0x80 SHL SWAP1 DIV PUSH1 0xFF AND PUSH2 0x13A2 JUMPI PUSH1 0x40 MLOAD PUSH3 0x461BCD PUSH1 0xE5 SHL DUP2 MSTORE PUSH1 0x20 PUSH1 0x4 DUP3 ADD MSTORE PUSH1 0x15 PUSH1 0x24 DUP3 ADD MSTORE PUSH21 0x19185E481B9BDD081C1C9BD8D95CDCD959081E595D PUSH1 0x5A SHL PUSH1 0x44 DUP3 ADD MSTORE PUSH1 0x64 ADD PUSH2 0x8C9 JUMP JUMPDEST PUSH1 0x40 DUP1 MLOAD PUSH1 0x80 DUP2 ADD SWAP2 DUP3 SWAP1 MSTORE PUSH1 0x0 SWAP2 PUSH2 0x1444 SWAP2 SWAP1 PUSH1 0x1 DUP7 ADD SWAP1 PUSH1 0x4 SWAP1 DUP3 DUP7 DUP6 JUMPDEST DUP3 SLOAD PUSH2 0x100 DUP4 SWAP1 EXP SWAP1 DIV PUSH1 0xFF AND DUP2 MSTORE PUSH1 0x20 PUSH1 0x1 SWAP3 DUP4 ADD DUP2 DUP2 DIV SWAP5 DUP6 ADD SWAP5 SWAP1 SWAP4 SUB SWAP1 SWAP3 MUL SWAP2 ADD DUP1 DUP5 GT PUSH2 0x13C2 JUMPI POP POP PUSH1 0x40 DUP1 MLOAD PUSH1 0x80 DUP2 ADD SWAP2 DUP3 SWAP1 MSTORE SWAP5 POP DUP9 SWAP4 POP PUSH1 0x4 SWAP3 POP SWAP1 POP DUP3 PUSH1 0x0 DUP6 JUMPDEST DUP3 SLOAD PUSH2 0x100 DUP4 SWAP1 EXP SWAP1 DIV PUSH1 0xFF AND DUP2 MSTORE PUSH1 0x20 PUSH1 0x1 SWAP3 DUP4 ADD DUP2 DUP2 DIV SWAP5 DUP6 ADD SWAP5 SWAP1 SWAP4 SUB SWAP1 SWAP3 MUL SWAP2 ADD DUP1 DUP5 GT PUSH2 0x140C JUMPI SWAP1 POP POP POP POP POP POP PUSH2 0x22C8 JUMP JUMPDEST SWAP1 POP PUSH1 0x0 DUP2 PUSH1 0xFF AND PUSH1 0x1 SUB PUSH2 0x14C8 JUMPI PUSH1 0x1 DUP4 ADD SLOAD PUSH5 0x100000000 SWAP1 DIV PUSH4 0xFFFFFFFF AND PUSH1 0x0 SUB PUSH2 0x1486 JUMPI PUSH1 0x40 MLOAD PUSH4 0x30C63921 PUSH1 0xE1 SHL DUP2 MSTORE PUSH1 0x4 ADD PUSH1 0x40 MLOAD DUP1 SWAP2 SUB SWAP1 REVERT JUMPDEST PUSH1 0x1 DUP4 ADD SLOAD PUSH1 0xF SLOAD PUSH2 0x14A6 SWAP2 PUSH5 0x100000000 SWAP1 DIV PUSH4 0xFFFFFFFF AND SWAP1 PUSH2 0x3051 JUMP JUMPDEST SWAP1 POP DUP1 PUSH1 0xF PUSH1 0x0 ADD PUSH1 0x0 DUP3 DUP3 SLOAD PUSH2 0x14BD SWAP2 SWAP1 PUSH2 0x3065 JUMP JUMPDEST SWAP1 SWAP2 SSTORE POP PUSH2 0x15F9 SWAP1 POP JUMP JUMPDEST DUP2 PUSH1 0xFF AND PUSH1 0x2 SUB PUSH2 0x153B JUMPI PUSH1 0x1 DUP4 ADD SLOAD PUSH1 0x1 PUSH1 0x40 SHL SWAP1 DIV PUSH4 0xFFFFFFFF AND PUSH1 0x0 SUB PUSH2 0x1505 JUMPI PUSH1 0x40 MLOAD PUSH4 0x30C63921 PUSH1 0xE1 SHL DUP2 MSTORE PUSH1 0x4 ADD PUSH1 0x40 MLOAD DUP1 SWAP2 SUB SWAP1 REVERT JUMPDEST PUSH1 0x1 DUP4 ADD SLOAD PUSH1 0x10 SLOAD PUSH2 0x1524 SWAP2 PUSH1 0x1 PUSH1 0x40 SHL SWAP1 DIV PUSH4 0xFFFFFFFF AND SWAP1 PUSH2 0x3051 JUMP JUMPDEST SWAP1 POP DUP1 PUSH1 0xF PUSH1 0x1 ADD PUSH1 0x0 DUP3 DUP3 SLOAD PUSH2 0x14BD SWAP2 SWAP1 PUSH2 0x3065 JUMP JUMPDEST DUP2 PUSH1 0xFF AND PUSH1 0x3 SUB PUSH2 0x15AE JUMPI PUSH1 0x1 DUP4 ADD SLOAD PUSH1 0x1 PUSH1 0x60 SHL SWAP1 DIV PUSH4 0xFFFFFFFF AND PUSH1 0x0 SUB PUSH2 0x1578 JUMPI PUSH1 0x40 MLOAD PUSH4 0x30C63921 PUSH1 0xE1 SHL DUP2 MSTORE PUSH1 0x4 ADD PUSH1 0x40 MLOAD DUP1 SWAP2 SUB SWAP1 REVERT JUMPDEST PUSH1 0x1 DUP4 ADD SLOAD PUSH1 0x11 SLOAD PUSH2 0x1597 SWAP2 PUSH1 0x1 PUSH1 0x60 SHL SWAP1 DIV PUSH4 0xFFFFFFFF AND SWAP1 PUSH2 0x3051 JUMP JUMPDEST SWAP1 POP DUP1 PUSH1 0xF PUSH1 0x2 ADD PUSH1 0x0 DUP3 DUP3 SLOAD PUSH2 0x14BD SWAP2 SWAP1 PUSH2 0x3065 JUMP JUMPDEST DUP2 PUSH1 0xFF AND PUSH1 0x4 SUB PUSH2 0x15E0 JUMPI POP PUSH32 0x0 PUSH2 0x15F9 JUMP JUMPDEST PUSH1 0x40 MLOAD PUSH4 0x30C63921 PUSH1 0xE1 SHL DUP2 MSTORE PUSH1 0x4 ADD PUSH1 0x40 MLOAD DUP1 SWAP2 SUB SWAP1 REVERT JUMPDEST PUSH1 0x2 DUP5 ADD DUP1 SLOAD PUSH1 0xFF NOT AND PUSH1 0x1 OR SWAP1 SSTORE PUSH2 0x163C PUSH1 0x1 PUSH1 0x1 PUSH1 0xA0 SHL SUB PUSH32 0x0 AND CALLER DUP4 PUSH2 0x19D0 JUMP JUMPDEST DUP4 SLOAD PUSH1 0x40 DUP1 MLOAD CALLER DUP2 MSTORE PUSH1 0xFF DUP6 AND PUSH1 0x20 DUP3 ADD MSTORE SWAP1 DUP2 ADD DUP4 SWAP1 MSTORE DUP7 SWAP2 PUSH1 0x1 PUSH1 0x28 SHL SWAP1 DIV PUSH3 0xFFFFFF AND SWAP1 PUSH32 0xFA7D7E6FAD77BB2EB32E03CD3103BCB3DF591EA9338A7395A149D9C180A170C7 SWAP1 PUSH1 0x60 ADD PUSH1 0x40 MLOAD DUP1 SWAP2 SUB SWAP1 LOG3 POP POP POP POP PUSH2 0xC02 PUSH1 0x1 PUSH1 0x6 SSTORE JUMP JUMPDEST PUSH1 0x1 PUSH1 0x1 PUSH1 0xA0 SHL SUB SWAP2 DUP3 AND PUSH1 0x0 SWAP1 DUP2 MSTORE PUSH1 0x5 PUSH1 0x20 SWAP1 DUP2 MSTORE PUSH1 0x40 DUP1 DUP4 KECCAK256 SWAP4 SWAP1 SWAP5 AND DUP3 MSTORE SWAP2 SWAP1 SWAP2 MSTORE KECCAK256 SLOAD PUSH1 0xFF AND SWAP1 JUMP JUMPDEST PUSH2 0x16D4 PUSH2 0x1723 JUMP JUMPDEST PUSH2 0xC02 DUP2 PUSH2 0x246D JUMP JUMPDEST PUSH1 0x0 DUP2 DUP2 MSTORE PUSH1 0x2 PUSH1 0x20 MSTORE PUSH1 0x40 DUP2 KECCAK256 SLOAD PUSH1 0x1 PUSH1 0x1 PUSH1 0xA0 SHL SUB AND DUP1 PUSH2 0x798 JUMPI PUSH1 0x40 MLOAD PUSH4 0x7E273289 PUSH1 0xE0 SHL DUP2 MSTORE PUSH1 0x4 DUP2 ADD DUP5 SWAP1 MSTORE PUSH1 0x24 ADD PUSH2 0x8C9 JUMP JUMPDEST PUSH2 0x8DD DUP4 DUP4 DUP4 PUSH1 0x1 PUSH2 0x2517 JUMP JUMPDEST PUSH1 0x7 SLOAD PUSH1 0x1 PUSH1 0x1 PUSH1 0xA0 SHL SUB AND CALLER EQ PUSH2 0x1776 JUMPI PUSH1 0x40 MLOAD PUSH3 0x461BCD PUSH1 0xE5 SHL DUP2 MSTORE PUSH1 0x20 PUSH1 0x4 DUP3 ADD MSTORE PUSH1 0x16 PUSH1 0x24 DUP3 ADD MSTORE PUSH22 0x27B7363C9031B0B63630B1363290313C9037BBB732B9 PUSH1 0x51 SHL PUSH1 0x44 DUP3 ADD MSTORE PUSH1 0x64 ADD PUSH2 0x8C9 JUMP JUMPDEST JUMP JUMPDEST PUSH1 0xB SLOAD PUSH1 0x0 SWAP1 PUSH2 0x178F SWAP1 PUSH1 0x1 SWAP1 PUSH3 0xFFFFFF AND PUSH2 0x3078 JUMP JUMPDEST PUSH3 0xFFFFFF DUP2 AND PUSH1 0x0 SWAP1 DUP2 MSTORE PUSH1 0x16 PUSH1 0x20 MSTORE PUSH1 0x40 DUP2 KECCAK256 SWAP2 SWAP3 POP DUP5 DUP5 DUP3 DUP2 PUSH2 0x17B6 JUMPI PUSH2 0x17B6 PUSH2 0x2F6E JUMP JUMPDEST SWAP1 POP PUSH1 0x20 MUL ADD CALLDATALOAD SWAP1 POP PUSH1 0x19 DUP2 PUSH2 0x17CC SWAP2 SWAP1 PUSH2 0x3094 JUMP JUMPDEST DUP3 SLOAD PUSH1 0xFF NOT AND PUSH1 0xFF SWAP2 SWAP1 SWAP2 AND OR DUP3 SSTORE PUSH1 0x8 SHR PUSH2 0x17E9 PUSH1 0x19 DUP3 PUSH2 0x3094 JUMP JUMPDEST DUP3 SLOAD PUSH1 0xFF SWAP2 SWAP1 SWAP2 AND PUSH2 0x100 MUL PUSH2 0xFF00 NOT SWAP1 SWAP2 AND OR DUP3 SSTORE PUSH1 0x8 SHR PUSH2 0x180D PUSH1 0x19 DUP3 PUSH2 0x3094 JUMP JUMPDEST DUP3 SLOAD PUSH1 0xFF SWAP2 SWAP1 SWAP2 AND PUSH3 0x10000 MUL PUSH3 0xFF0000 NOT SWAP1 SWAP2 AND OR DUP3 SSTORE PUSH1 0x8 SHR PUSH2 0x1833 PUSH1 0x19 DUP3 PUSH2 0x3094 JUMP JUMPDEST DUP3 SLOAD PUSH4 0xFF000000 NOT DUP2 AND PUSH4 0x1000000 PUSH1 0xFF SWAP4 DUP5 AND MUL SWAP1 DUP2 OR DUP1 DUP7 SSTORE PUSH1 0x1 DUP7 ADD DUP1 SLOAD PUSH17 0xFF000000000000000000000000FFFFFFFF NOT AND SWAP1 SSTORE PUSH1 0x40 DUP1 MLOAD SWAP3 DUP6 AND SWAP4 DUP6 AND SWAP4 SWAP1 SWAP4 OR DUP3 MSTORE PUSH1 0x8 DUP2 SWAP1 SHR DUP5 AND PUSH1 0x20 DUP4 ADD MSTORE PUSH1 0x10 DUP2 SWAP1 SHR DUP5 AND DUP3 DUP5 ADD MSTORE PUSH1 0x18 SHR SWAP1 SWAP3 AND PUSH1 0x60 DUP4 ADD MSTORE MLOAD PUSH3 0xFFFFFF DUP6 AND SWAP2 PUSH32 0x9DEDF238B51CB2F65E712B6F39AB9F3E89A6268D251B582C9CEEC37E6DDFBA63 SWAP2 SWAP1 DUP2 SWAP1 SUB PUSH1 0x80 ADD SWAP1 LOG2 POP POP POP POP POP POP JUMP JUMPDEST PUSH1 0x0 DUP3 DUP2 MSTORE PUSH1 0x2 PUSH1 0x20 MSTORE PUSH1 0x40 DUP2 KECCAK256 SLOAD PUSH1 0x1 PUSH1 0x1 PUSH1 0xA0 SHL SUB SWAP1 DUP2 AND SWAP1 DUP4 AND ISZERO PUSH2 0x1904 JUMPI PUSH2 0x1904 DUP2 DUP5 DUP7 PUSH2 0x261D JUMP JUMPDEST PUSH1 0x1 PUSH1 0x1 PUSH1 0xA0 SHL SUB DUP2 AND ISZERO PUSH2 0x1942 JUMPI PUSH2 0x1921 PUSH1 0x0 DUP6 PUSH1 0x0 DUP1 PUSH2 0x2517 JUMP JUMPDEST PUSH1 0x1 PUSH1 0x1 PUSH1 0xA0 SHL SUB DUP2 AND PUSH1 0x0 SWAP1 DUP2 MSTORE PUSH1 0x3 PUSH1 0x20 MSTORE PUSH1 0x40 SWAP1 KECCAK256 DUP1 SLOAD PUSH1 0x0 NOT ADD SWAP1 SSTORE JUMPDEST PUSH1 0x1 PUSH1 0x1 PUSH1 0xA0 SHL SUB DUP6 AND ISZERO PUSH2 0x1971 JUMPI PUSH1 0x1 PUSH1 0x1 PUSH1 0xA0 SHL SUB DUP6 AND PUSH1 0x0 SWAP1 DUP2 MSTORE PUSH1 0x3 PUSH1 0x20 MSTORE PUSH1 0x40 SWAP1 KECCAK256 DUP1 SLOAD PUSH1 0x1 ADD SWAP1 SSTORE JUMPDEST PUSH1 0x0 DUP5 DUP2 MSTORE PUSH1 0x2 PUSH1 0x20 MSTORE PUSH1 0x40 DUP1 DUP3 KECCAK256 DUP1 SLOAD PUSH1 0x1 PUSH1 0x1 PUSH1 0xA0 SHL SUB NOT AND PUSH1 0x1 PUSH1 0x1 PUSH1 0xA0 SHL SUB DUP10 DUP2 AND SWAP2 DUP3 OR SWAP1 SWAP3 SSTORE SWAP2 MLOAD DUP8 SWAP4 SWAP2 DUP6 AND SWAP2 PUSH32 0xDDF252AD1BE2C89B69C2B068FC378DAA952BA7F163C4A11628F55A4DF523B3EF SWAP2 LOG4 SWAP5 SWAP4 POP POP POP POP JUMP JUMPDEST PUSH1 0x40 MLOAD PUSH1 0x1 PUSH1 0x1 PUSH1 0xA0 SHL SUB DUP4 DUP2 AND PUSH1 0x24 DUP4 ADD MSTORE PUSH1 0x44 DUP3 ADD DUP4 SWAP1 MSTORE PUSH2 0x8DD SWAP2 DUP6 SWAP2 DUP3 AND SWAP1 PUSH4 0xA9059CBB SWAP1 PUSH1 0x64 ADD JUMPDEST PUSH1 0x40 MLOAD PUSH1 0x20 DUP2 DUP4 SUB SUB DUP2 MSTORE SWAP1 PUSH1 0x40 MSTORE SWAP2 POP PUSH1 0xE0 SHL PUSH1 0x20 DUP3 ADD DUP1 MLOAD PUSH1 0x1 PUSH1 0x1 PUSH1 0xE0 SHL SUB DUP4 DUP2 DUP4 AND OR DUP4 MSTORE POP POP POP POP PUSH2 0x2681 JUMP JUMPDEST PUSH1 0x2 PUSH1 0x6 SLOAD SUB PUSH2 0x1A52 JUMPI PUSH1 0x40 MLOAD PUSH4 0x3EE5AEB5 PUSH1 0xE0 SHL DUP2 MSTORE PUSH1 0x4 ADD PUSH1 0x40 MLOAD DUP1 SWAP2 SUB SWAP1 REVERT JUMPDEST PUSH1 0x2 PUSH1 0x6 SSTORE JUMP JUMPDEST PUSH1 0x40 MLOAD PUSH1 0x1 PUSH1 0x1 PUSH1 0xA0 SHL SUB DUP5 DUP2 AND PUSH1 0x24 DUP4 ADD MSTORE DUP4 DUP2 AND PUSH1 0x44 DUP4 ADD MSTORE PUSH1 0x64 DUP3 ADD DUP4 SWAP1 MSTORE PUSH2 0x967 SWAP2 DUP7 SWAP2 DUP3 AND SWAP1 PUSH4 0x23B872DD SWAP1 PUSH1 0x84 ADD PUSH2 0x19FD JUMP JUMPDEST PUSH2 0x864 DUP3 DUP3 PUSH1 0x40 MLOAD DUP1 PUSH1 0x20 ADD PUSH1 0x40 MSTORE DUP1 PUSH1 0x0 DUP2 MSTORE POP PUSH2 0x26E4 JUMP JUMPDEST PUSH3 0xFFFFFF DUP2 AND PUSH1 0x0 SWAP1 DUP2 MSTORE PUSH1 0xE PUSH1 0x20 MSTORE PUSH1 0x40 DUP2 KECCAK256 SLOAD SWAP1 DUP2 SWAP1 SUB PUSH2 0x1ACD JUMPI POP POP JUMP JUMPDEST PUSH1 0x0 PUSH2 0x1AF9 PUSH32 0x0 DUP4 PUSH2 0x30A8 JUMP JUMPDEST SWAP1 POP PUSH1 0x0 PUSH1 0x64 PUSH2 0x1B0A PUSH1 0x50 DUP5 PUSH2 0x30A8 JUMP JUMPDEST PUSH2 0x1B14 SWAP2 SWAP1 PUSH2 0x3051 JUMP JUMPDEST SWAP1 POP PUSH1 0x0 PUSH1 0x64 PUSH2 0x1B25 PUSH1 0x14 DUP6 PUSH2 0x30A8 JUMP JUMPDEST PUSH2 0x1B2F SWAP2 SWAP1 PUSH2 0x3051 JUMP JUMPDEST SWAP1 POP PUSH1 0x64 PUSH2 0x1B3E PUSH1 0x50 DUP5 PUSH2 0x30A8 JUMP JUMPDEST PUSH2 0x1B48 SWAP2 SWAP1 PUSH2 0x3051 JUMP JUMPDEST PUSH1 0xF DUP1 SLOAD PUSH1 0x0 SWAP1 PUSH2 0x1B5A SWAP1 DUP5 SWAP1 PUSH2 0x2FF9 JUMP JUMPDEST SWAP1 SWAP2 SSTORE POP PUSH1 0x64 SWAP1 POP PUSH2 0x1B6D PUSH1 0xA DUP5 PUSH2 0x30A8 JUMP JUMPDEST PUSH2 0x1B77 SWAP2 SWAP1 PUSH2 0x3051 JUMP JUMPDEST PUSH1 0x10 DUP1 SLOAD PUSH1 0x0 SWAP1 PUSH2 0x1B89 SWAP1 DUP5 SWAP1 PUSH2 0x2FF9 JUMP JUMPDEST SWAP1 SWAP2 SSTORE POP PUSH1 0x64 SWAP1 POP PUSH2 0x1B9C PUSH1 0x5 DUP5 PUSH2 0x30A8 JUMP JUMPDEST PUSH2 0x1BA6 SWAP2 SWAP1 PUSH2 0x3051 JUMP JUMPDEST PUSH1 0x11 DUP1 SLOAD PUSH1 0x0 SWAP1 PUSH2 0x1BB8 SWAP1 DUP5 SWAP1 PUSH2 0x2FF9 JUMP JUMPDEST SWAP1 SWAP2 SSTORE POP PUSH1 0x64 SWAP1 POP PUSH2 0x1BCB PUSH1 0x5 DUP5 PUSH2 0x30A8 JUMP JUMPDEST PUSH2 0x1BD5 SWAP2 SWAP1 PUSH2 0x3051 JUMP JUMPDEST PUSH1 0x12 DUP1 SLOAD PUSH1 0x0 SWAP1 PUSH2 0x1BE7 SWAP1 DUP5 SWAP1 PUSH2 0x2FF9 JUMP JUMPDEST SWAP1 SWAP2 SSTORE POP PUSH1 0x64 SWAP1 POP PUSH2 0x1BFA PUSH1 0x50 DUP4 PUSH2 0x30A8 JUMP JUMPDEST PUSH2 0x1C04 SWAP2 SWAP1 PUSH2 0x3051 JUMP JUMPDEST PUSH1 0x13 DUP1 SLOAD PUSH1 0x0 SWAP1 PUSH2 0x1C16 SWAP1 DUP5 SWAP1 PUSH2 0x2FF9 JUMP JUMPDEST SWAP1 SWAP2 SSTORE POP PUSH1 0x64 SWAP1 POP PUSH2 0x1C29 PUSH1 0xA DUP4 PUSH2 0x30A8 JUMP JUMPDEST PUSH2 0x1C33 SWAP2 SWAP1 PUSH2 0x3051 JUMP JUMPDEST PUSH1 0x14 DUP1 SLOAD PUSH1 0x0 SWAP1 PUSH2 0x1C45 SWAP1 DUP5 SWAP1 PUSH2 0x2FF9 JUMP JUMPDEST SWAP1 SWAP2 SSTORE POP PUSH1 0x64 SWAP1 POP PUSH2 0x1C58 PUSH1 0xA DUP4 PUSH2 0x30A8 JUMP JUMPDEST PUSH2 0x1C62 SWAP2 SWAP1 PUSH2 0x3051 JUMP JUMPDEST PUSH1 0x15 DUP1 SLOAD PUSH1 0x0 SWAP1 PUSH2 0x1C74 SWAP1 DUP5 SWAP1 PUSH2 0x2FF9 JUMP JUMPDEST SWAP1 SWAP2 SSTORE POP POP POP POP POP POP POP JUMP JUMPDEST PUSH1 0x40 DUP1 MLOAD PUSH1 0xC0 DUP2 ADD DUP3 MSTORE PUSH32 0x0 DUP2 MSTORE PUSH8 0xFFFFFFFFFFFFFFFF PUSH32 0x0 AND PUSH1 0x20 DUP1 DUP4 ADD SWAP2 SWAP1 SWAP2 MSTORE PUSH1 0x3 DUP3 DUP5 ADD MSTORE PUSH3 0x7A1200 PUSH1 0x60 DUP4 ADD MSTORE PUSH1 0x1 PUSH1 0x80 DUP4 ADD MSTORE DUP3 MLOAD SWAP1 DUP2 ADD SWAP1 SWAP3 MSTORE PUSH1 0x0 DUP1 DUP4 MSTORE SWAP2 PUSH1 0xA0 DUP3 ADD SWAP1 PUSH2 0x1D13 SWAP1 PUSH2 0x26FB JUMP JUMPDEST SWAP1 MSTORE PUSH1 0x40 MLOAD PUSH4 0x4D8E1C2F PUSH1 0xE1 SHL DUP2 MSTORE SWAP1 SWAP2 POP PUSH1 0x0 SWAP1 PUSH1 0x1 PUSH1 0x1 PUSH1 0xA0 SHL SUB PUSH32 0x0 AND SWAP1 PUSH4 0x9B1C385E SWAP1 PUSH2 0x1D67 SWAP1 DUP6 SWAP1 PUSH1 0x4 ADD PUSH2 0x30BF JUMP JUMPDEST PUSH1 0x20 PUSH1 0x40 MLOAD DUP1 DUP4 SUB DUP2 PUSH1 0x0 DUP8 GAS CALL ISZERO DUP1 ISZERO PUSH2 0x1D86 JUMPI RETURNDATASIZE PUSH1 0x0 DUP1 RETURNDATACOPY RETURNDATASIZE PUSH1 0x0 REVERT JUMPDEST POP POP POP POP PUSH1 0x40 MLOAD RETURNDATASIZE PUSH1 0x1F NOT PUSH1 0x1F DUP3 ADD AND DUP3 ADD DUP1 PUSH1 0x40 MSTORE POP DUP2 ADD SWAP1 PUSH2 0x1DAA SWAP2 SWAP1 PUSH2 0x311C JUMP JUMPDEST SWAP1 POP DUP3 PUSH3 0xFFFFFF AND DUP2 PUSH32 0x6D9C99357D359EBC464C51FB3162F671B2BD8FECD626DD9F4F5E329076AA00F2 PUSH1 0x40 MLOAD PUSH1 0x40 MLOAD DUP1 SWAP2 SUB SWAP1 LOG3 POP POP POP JUMP JUMPDEST PUSH1 0x0 DUP3 DUP2 MSTORE PUSH1 0xD PUSH1 0x20 MSTORE PUSH1 0x40 DUP1 DUP3 KECCAK256 DUP2 MLOAD PUSH1 0x80 DUP2 ADD SWAP3 DUP4 SWAP1 MSTORE SWAP1 SWAP3 SWAP2 DUP5 SWAP1 PUSH1 0x4 SWAP1 DUP3 DUP6 DUP6 JUMPDEST DUP3 SLOAD PUSH2 0x100 DUP4 SWAP1 EXP SWAP1 DIV PUSH1 0xFF AND DUP2 MSTORE PUSH1 0x20 PUSH1 0x1 SWAP3 DUP4 ADD DUP2 DUP2 DIV SWAP5 DUP6 ADD SWAP5 SWAP1 SWAP4 SUB SWAP1 SWAP3 MUL SWAP2 ADD DUP1 DUP5 GT PUSH2 0x1E09 JUMPI SWAP1 POP POP POP POP POP POP SWAP1 POP PUSH1 0x0 DUP1 PUSH1 0x0 JUMPDEST PUSH1 0x4 DUP2 LT ISZERO PUSH2 0x1EA6 JUMPI DUP4 DUP2 PUSH1 0x4 DUP2 LT PUSH2 0x1E5F JUMPI PUSH2 0x1E5F PUSH2 0x2F6E JUMP JUMPDEST PUSH1 0x20 MUL ADD MLOAD PUSH1 0xFF AND DUP6 PUSH1 0x1 ADD DUP3 PUSH1 0x4 DUP2 LT PUSH2 0x1E7C JUMPI PUSH2 0x1E7C PUSH2 0x2F6E JUMP JUMPDEST PUSH1 0x20 DUP2 DIV SWAP1 SWAP2 ADD SLOAD PUSH1 0xFF PUSH1 0x1F SWAP1 SWAP3 AND PUSH2 0x100 EXP SWAP1 DIV AND SUB PUSH2 0x1E9E JUMPI DUP3 PUSH1 0x1 ADD SWAP3 POP JUMPDEST PUSH1 0x1 ADD PUSH2 0x1E44 JUMP JUMPDEST POP DUP2 PUSH1 0xFF AND PUSH1 0x4 SUB PUSH2 0x1EF8 JUMPI PUSH1 0x1 DUP6 ADD DUP1 SLOAD PUSH1 0x4 SWAP1 PUSH2 0x1ED2 SWAP1 PUSH5 0x100000000 SWAP1 DIV PUSH4 0xFFFFFFFF AND PUSH2 0x3135 JUMP JUMPDEST SWAP2 SWAP1 PUSH2 0x100 EXP DUP2 SLOAD DUP2 PUSH4 0xFFFFFFFF MUL NOT AND SWAP1 DUP4 PUSH4 0xFFFFFFFF AND MUL OR SWAP1 SSTORE POP POP POP POP POP POP POP JUMP JUMPDEST DUP2 PUSH1 0xFF AND PUSH1 0x3 SUB PUSH2 0x1F22 JUMPI PUSH1 0x1 DUP6 ADD DUP1 SLOAD PUSH1 0xC SWAP1 PUSH2 0x1ED2 SWAP1 PUSH1 0x1 PUSH1 0x60 SHL SWAP1 DIV PUSH4 0xFFFFFFFF AND PUSH2 0x3135 JUMP JUMPDEST PUSH2 0x1F2A PUSH2 0x2AD2 JUMP JUMPDEST PUSH1 0x0 JUMPDEST PUSH1 0x4 DUP2 LT ISZERO PUSH2 0x1F89 JUMPI DUP2 DUP7 PUSH1 0x1 ADD DUP3 PUSH1 0x4 DUP2 LT PUSH2 0x1F4C JUMPI PUSH2 0x1F4C PUSH2 0x2F6E JUMP JUMPDEST PUSH1 0x20 DUP2 DIV SWAP1 SWAP2 ADD SLOAD PUSH1 0xFF PUSH1 0x1F SWAP1 SWAP3 AND PUSH2 0x100 EXP SWAP1 DIV AND PUSH1 0x19 DUP2 LT PUSH2 0x1F72 JUMPI PUSH2 0x1F72 PUSH2 0x2F6E JUMP JUMPDEST PUSH1 0x20 MUL ADD DUP1 MLOAD PUSH1 0xFF PUSH1 0x1 SWAP2 DUP3 ADD AND SWAP1 SWAP2 MSTORE ADD PUSH2 0x1F2D JUMP JUMPDEST POP PUSH1 0x0 JUMPDEST PUSH1 0x4 DUP2 LT ISZERO PUSH2 0x201A JUMPI PUSH1 0x0 DUP3 DUP7 DUP4 PUSH1 0x4 DUP2 LT PUSH2 0x1FAB JUMPI PUSH2 0x1FAB PUSH2 0x2F6E JUMP JUMPDEST PUSH1 0x20 MUL ADD MLOAD PUSH1 0xFF AND PUSH1 0x19 DUP2 LT PUSH2 0x1FC3 JUMPI PUSH2 0x1FC3 PUSH2 0x2F6E JUMP JUMPDEST PUSH1 0x20 MUL ADD MLOAD PUSH1 0xFF AND GT ISZERO PUSH2 0x2012 JUMPI DUP3 PUSH1 0x1 ADD SWAP3 POP DUP2 DUP6 DUP3 PUSH1 0x4 DUP2 LT PUSH2 0x1FEA JUMPI PUSH2 0x1FEA PUSH2 0x2F6E JUMP JUMPDEST PUSH1 0x20 MUL ADD MLOAD PUSH1 0xFF AND PUSH1 0x19 DUP2 LT PUSH2 0x2002 JUMPI PUSH2 0x2002 PUSH2 0x2F6E JUMP JUMPDEST PUSH1 0x20 MUL ADD DUP1 MLOAD PUSH1 0x0 NOT ADD PUSH1 0xFF AND SWAP1 MSTORE JUMPDEST PUSH1 0x1 ADD PUSH2 0x1F8D JUMP JUMPDEST POP DUP2 PUSH1 0xFF AND PUSH1 0x4 SUB PUSH2 0x2064 JUMPI PUSH1 0x1 DUP7 ADD DUP1 SLOAD PUSH1 0x8 SWAP1 PUSH2 0x2045 SWAP1 PUSH1 0x1 PUSH1 0x40 SHL SWAP1 DIV PUSH4 0xFFFFFFFF AND PUSH2 0x3135 JUMP JUMPDEST SWAP2 SWAP1 PUSH2 0x100 EXP DUP2 SLOAD DUP2 PUSH4 0xFFFFFFFF MUL NOT AND SWAP1 DUP4 PUSH4 0xFFFFFFFF AND MUL OR SWAP1 SSTORE POP JUMPDEST POP POP POP POP POP POP POP JUMP JUMPDEST PUSH1 0x1 PUSH1 0x1 PUSH1 0xA0 SHL SUB DUP3 AND PUSH2 0x209F JUMPI PUSH1 0x40 MLOAD PUSH4 0xB611743 PUSH1 0xE3 SHL DUP2 MSTORE PUSH1 0x1 PUSH1 0x1 PUSH1 0xA0 SHL SUB DUP4 AND PUSH1 0x4 DUP3 ADD MSTORE PUSH1 0x24 ADD PUSH2 0x8C9 JUMP JUMPDEST PUSH1 0x1 PUSH1 0x1 PUSH1 0xA0 SHL SUB DUP4 DUP2 AND PUSH1 0x0 DUP2 DUP2 MSTORE PUSH1 0x5 PUSH1 0x20 SWAP1 DUP2 MSTORE PUSH1 0x40 DUP1 DUP4 KECCAK256 SWAP5 DUP8 AND DUP1 DUP5 MSTORE SWAP5 DUP3 MSTORE SWAP2 DUP3 SWAP1 KECCAK256 DUP1 SLOAD PUSH1 0xFF NOT AND DUP7 ISZERO ISZERO SWAP1 DUP2 OR SWAP1 SWAP2 SSTORE SWAP2 MLOAD SWAP2 DUP3 MSTORE PUSH32 0x17307EAB39AB6107E8899845AD3D59BD9653F200F220920489CA2B5937696C31 SWAP2 ADD PUSH1 0x40 MLOAD DUP1 SWAP2 SUB SWAP1 LOG3 POP POP POP JUMP JUMPDEST PUSH1 0x1 PUSH1 0x1 PUSH1 0xA0 SHL SUB DUP4 AND EXTCODESIZE ISZERO PUSH2 0x967 JUMPI PUSH1 0x40 MLOAD PUSH4 0xA85BD01 PUSH1 0xE1 SHL DUP2 MSTORE PUSH1 0x1 PUSH1 0x1 PUSH1 0xA0 SHL SUB DUP5 AND SWAP1 PUSH4 0x150B7A02 SWAP1 PUSH2 0x214E SWAP1 CALLER SWAP1 DUP9 SWAP1 DUP8 SWAP1 DUP8 SWAP1 PUSH1 0x4 ADD PUSH2 0x3158 JUMP JUMPDEST PUSH1 0x20 PUSH1 0x40 MLOAD DUP1 DUP4 SUB DUP2 PUSH1 0x0 DUP8 GAS CALL SWAP3 POP POP POP DUP1 ISZERO PUSH2 0x2189 JUMPI POP PUSH1 0x40 DUP1 MLOAD PUSH1 0x1F RETURNDATASIZE SWAP1 DUP2 ADD PUSH1 0x1F NOT AND DUP3 ADD SWAP1 SWAP3 MSTORE PUSH2 0x2186 SWAP2 DUP2 ADD SWAP1 PUSH2 0x318B JUMP JUMPDEST PUSH1 0x1 JUMPDEST PUSH2 0x21F2 JUMPI RETURNDATASIZE DUP1 DUP1 ISZERO PUSH2 0x21B7 JUMPI PUSH1 0x40 MLOAD SWAP2 POP PUSH1 0x1F NOT PUSH1 0x3F RETURNDATASIZE ADD AND DUP3 ADD PUSH1 0x40 MSTORE RETURNDATASIZE DUP3 MSTORE RETURNDATASIZE PUSH1 0x0 PUSH1 0x20 DUP5 ADD RETURNDATACOPY PUSH2 0x21BC JUMP JUMPDEST PUSH1 0x60 SWAP2 POP JUMPDEST POP DUP1 MLOAD PUSH1 0x0 SUB PUSH2 0x21EA JUMPI PUSH1 0x40 MLOAD PUSH4 0x32505749 PUSH1 0xE1 SHL DUP2 MSTORE PUSH1 0x1 PUSH1 0x1 PUSH1 0xA0 SHL SUB DUP6 AND PUSH1 0x4 DUP3 ADD MSTORE PUSH1 0x24 ADD PUSH2 0x8C9 JUMP JUMPDEST DUP1 MLOAD DUP2 PUSH1 0x20 ADD REVERT JUMPDEST PUSH1 0x1 PUSH1 0x1 PUSH1 0xE0 SHL SUB NOT DUP2 AND PUSH4 0xA85BD01 PUSH1 0xE1 SHL EQ PUSH2 0x222E JUMPI PUSH1 0x40 MLOAD PUSH4 0x32505749 PUSH1 0xE1 SHL DUP2 MSTORE PUSH1 0x1 PUSH1 0x1 PUSH1 0xA0 SHL SUB DUP6 AND PUSH1 0x4 DUP3 ADD MSTORE PUSH1 0x24 ADD PUSH2 0x8C9 JUMP JUMPDEST POP POP POP POP POP JUMP JUMPDEST PUSH1 0x60 PUSH1 0x0 PUSH2 0x2242 DUP4 PUSH2 0x276C JUMP JUMPDEST PUSH1 0x1 ADD SWAP1 POP PUSH1 0x0 DUP2 PUSH8 0xFFFFFFFFFFFFFFFF DUP2 GT ISZERO PUSH2 0x2262 JUMPI PUSH2 0x2262 PUSH2 0x2DFA JUMP JUMPDEST PUSH1 0x40 MLOAD SWAP1 DUP1 DUP3 MSTORE DUP1 PUSH1 0x1F ADD PUSH1 0x1F NOT AND PUSH1 0x20 ADD DUP3 ADD PUSH1 0x40 MSTORE DUP1 ISZERO PUSH2 0x228C JUMPI PUSH1 0x20 DUP3 ADD DUP2 DUP1 CALLDATASIZE DUP4 CALLDATACOPY ADD SWAP1 POP JUMPDEST POP SWAP1 POP DUP2 DUP2 ADD PUSH1 0x20 ADD JUMPDEST PUSH1 0x0 NOT ADD PUSH16 0x181899199A1A9B1B9C1CB0B131B232B3 PUSH1 0x81 SHL PUSH1 0xA DUP7 MOD BYTE DUP2 MSTORE8 PUSH1 0xA DUP6 DIV SWAP5 POP DUP5 PUSH2 0x2296 JUMPI POP SWAP4 SWAP3 POP POP POP JUMP JUMPDEST PUSH1 0x0 DUP1 PUSH1 0x0 JUMPDEST PUSH1 0x4 DUP2 LT ISZERO PUSH2 0x231F JUMPI DUP4 DUP2 PUSH1 0x4 DUP2 LT PUSH2 0x22E9 JUMPI PUSH2 0x22E9 PUSH2 0x2F6E JUMP JUMPDEST PUSH1 0x20 MUL ADD MLOAD PUSH1 0xFF AND DUP6 DUP3 PUSH1 0x4 DUP2 LT PUSH2 0x2303 JUMPI PUSH2 0x2303 PUSH2 0x2F6E JUMP JUMPDEST PUSH1 0x20 MUL ADD MLOAD PUSH1 0xFF AND SUB PUSH2 0x2317 JUMPI DUP2 PUSH1 0x1 ADD SWAP2 POP JUMPDEST PUSH1 0x1 ADD PUSH2 0x22CE JUMP JUMPDEST POP DUP1 PUSH1 0xFF AND PUSH1 0x4 SUB PUSH2 0x2335 JUMPI PUSH1 0x1 SWAP2 POP POP PUSH2 0x798 JUMP JUMPDEST DUP1 PUSH1 0xFF AND PUSH1 0x3 SUB PUSH2 0x234A JUMPI PUSH1 0x3 SWAP2 POP POP PUSH2 0x798 JUMP JUMPDEST PUSH2 0x2352 PUSH2 0x2AD2 JUMP JUMPDEST PUSH1 0x0 DUP1 JUMPDEST PUSH1 0x4 DUP2 LT ISZERO PUSH2 0x23A1 JUMPI DUP3 DUP8 DUP3 PUSH1 0x4 DUP2 LT PUSH2 0x2372 JUMPI PUSH2 0x2372 PUSH2 0x2F6E JUMP JUMPDEST PUSH1 0x20 MUL ADD MLOAD PUSH1 0xFF AND PUSH1 0x19 DUP2 LT PUSH2 0x238A JUMPI PUSH2 0x238A PUSH2 0x2F6E JUMP JUMPDEST PUSH1 0x20 MUL ADD DUP1 MLOAD PUSH1 0xFF PUSH1 0x1 SWAP2 DUP3 ADD AND SWAP1 SWAP2 MSTORE ADD PUSH2 0x2356 JUMP JUMPDEST POP PUSH1 0x0 JUMPDEST PUSH1 0x4 DUP2 LT ISZERO PUSH2 0x2432 JUMPI PUSH1 0x0 DUP4 DUP8 DUP4 PUSH1 0x4 DUP2 LT PUSH2 0x23C3 JUMPI PUSH2 0x23C3 PUSH2 0x2F6E JUMP JUMPDEST PUSH1 0x20 MUL ADD MLOAD PUSH1 0xFF AND PUSH1 0x19 DUP2 LT PUSH2 0x23DB JUMPI PUSH2 0x23DB PUSH2 0x2F6E JUMP JUMPDEST PUSH1 0x20 MUL ADD MLOAD PUSH1 0xFF AND GT ISZERO PUSH2 0x242A JUMPI DUP2 PUSH1 0x1 ADD SWAP2 POP DUP3 DUP7 DUP3 PUSH1 0x4 DUP2 LT PUSH2 0x2402 JUMPI PUSH2 0x2402 PUSH2 0x2F6E JUMP JUMPDEST PUSH1 0x20 MUL ADD MLOAD PUSH1 0xFF AND PUSH1 0x19 DUP2 LT PUSH2 0x241A JUMPI PUSH2 0x241A PUSH2 0x2F6E JUMP JUMPDEST PUSH1 0x20 MUL ADD DUP1 MLOAD PUSH1 0x0 NOT ADD PUSH1 0xFF AND SWAP1 MSTORE JUMPDEST PUSH1 0x1 ADD PUSH2 0x23A5 JUMP JUMPDEST POP DUP1 PUSH1 0xFF AND PUSH1 0x4 SUB PUSH2 0x244A JUMPI PUSH1 0x2 SWAP4 POP POP POP POP PUSH2 0x798 JUMP JUMPDEST DUP1 PUSH1 0xFF AND PUSH1 0x3 SUB PUSH2 0x2461 JUMPI PUSH1 0x4 SWAP4 POP POP POP POP PUSH2 0x798 JUMP JUMPDEST POP PUSH1 0x0 SWAP6 SWAP5 POP POP POP POP POP JUMP JUMPDEST CALLER PUSH1 0x1 PUSH1 0x1 PUSH1 0xA0 SHL SUB DUP3 AND SUB PUSH2 0x24C5 JUMPI PUSH1 0x40 MLOAD PUSH3 0x461BCD PUSH1 0xE5 SHL DUP2 MSTORE PUSH1 0x20 PUSH1 0x4 DUP3 ADD MSTORE PUSH1 0x17 PUSH1 0x24 DUP3 ADD MSTORE PUSH32 0x43616E6E6F74207472616E7366657220746F2073656C66000000000000000000 PUSH1 0x44 DUP3 ADD MSTORE PUSH1 0x64 ADD PUSH2 0x8C9 JUMP JUMPDEST PUSH1 0x8 DUP1 SLOAD PUSH1 0x1 PUSH1 0x1 PUSH1 0xA0 SHL SUB NOT AND PUSH1 0x1 PUSH1 0x1 PUSH1 0xA0 SHL SUB DUP4 DUP2 AND SWAP2 DUP3 OR SWAP1 SWAP3 SSTORE PUSH1 0x7 SLOAD PUSH1 0x40 MLOAD SWAP2 SWAP3 AND SWAP1 PUSH32 0xED8889F560326EB138920D842192F0EB3DD22B4F139C87A2C57538E05BAE1278 SWAP1 PUSH1 0x0 SWAP1 LOG3 POP JUMP JUMPDEST DUP1 DUP1 PUSH2 0x252B JUMPI POP PUSH1 0x1 PUSH1 0x1 PUSH1 0xA0 SHL SUB DUP3 AND ISZERO ISZERO JUMPDEST ISZERO PUSH2 0x25ED JUMPI PUSH1 0x0 PUSH2 0x253B DUP5 PUSH2 0x16DD JUMP JUMPDEST SWAP1 POP PUSH1 0x1 PUSH1 0x1 PUSH1 0xA0 SHL SUB DUP4 AND ISZERO DUP1 ISZERO SWAP1 PUSH2 0x2567 JUMPI POP DUP3 PUSH1 0x1 PUSH1 0x1 PUSH1 0xA0 SHL SUB AND DUP2 PUSH1 0x1 PUSH1 0x1 PUSH1 0xA0 SHL SUB AND EQ ISZERO JUMPDEST DUP1 ISZERO PUSH2 0x257A JUMPI POP PUSH2 0x2578 DUP2 DUP5 PUSH2 0x169E JUMP JUMPDEST ISZERO JUMPDEST ISZERO PUSH2 0x25A3 JUMPI PUSH1 0x40 MLOAD PUSH4 0xA9FBF51F PUSH1 0xE0 SHL DUP2 MSTORE PUSH1 0x1 PUSH1 0x1 PUSH1 0xA0 SHL SUB DUP5 AND PUSH1 0x4 DUP3 ADD MSTORE PUSH1 0x24 ADD PUSH2 0x8C9 JUMP JUMPDEST DUP2 ISZERO PUSH2 0x25EB JUMPI DUP4 DUP6 PUSH1 0x1 PUSH1 0x1 PUSH1 0xA0 SHL SUB AND DUP3 PUSH1 0x1 PUSH1 0x1 PUSH1 0xA0 SHL SUB AND PUSH32 0x8C5BE1E5EBEC7D5BD14F71427D1E84F3DD0314C0F7B2291E5B200AC8C7C3B925 PUSH1 0x40 MLOAD PUSH1 0x40 MLOAD DUP1 SWAP2 SUB SWAP1 LOG4 JUMPDEST POP JUMPDEST POP POP PUSH1 0x0 SWAP1 DUP2 MSTORE PUSH1 0x4 PUSH1 0x20 MSTORE PUSH1 0x40 SWAP1 KECCAK256 DUP1 SLOAD PUSH1 0x1 PUSH1 0x1 PUSH1 0xA0 SHL SUB NOT AND PUSH1 0x1 PUSH1 0x1 PUSH1 0xA0 SHL SUB SWAP3 SWAP1 SWAP3 AND SWAP2 SWAP1 SWAP2 OR SWAP1 SSTORE JUMP JUMPDEST PUSH2 0x2628 DUP4 DUP4 DUP4 PUSH2 0x2844 JUMP JUMPDEST PUSH2 0x8DD JUMPI PUSH1 0x1 PUSH1 0x1 PUSH1 0xA0 SHL SUB DUP4 AND PUSH2 0x2656 JUMPI PUSH1 0x40 MLOAD PUSH4 0x7E273289 PUSH1 0xE0 SHL DUP2 MSTORE PUSH1 0x4 DUP2 ADD DUP3 SWAP1 MSTORE PUSH1 0x24 ADD PUSH2 0x8C9 JUMP JUMPDEST PUSH1 0x40 MLOAD PUSH4 0x177E802F PUSH1 0xE0 SHL DUP2 MSTORE PUSH1 0x1 PUSH1 0x1 PUSH1 0xA0 SHL SUB DUP4 AND PUSH1 0x4 DUP3 ADD MSTORE PUSH1 0x24 DUP2 ADD DUP3 SWAP1 MSTORE PUSH1 0x44 ADD PUSH2 0x8C9 JUMP JUMPDEST PUSH1 0x0 PUSH2 0x2696 PUSH1 0x1 PUSH1 0x1 PUSH1 0xA0 SHL SUB DUP5 AND DUP4 PUSH2 0x28AA JUMP JUMPDEST SWAP1 POP DUP1 MLOAD PUSH1 0x0 EQ ISZERO DUP1 ISZERO PUSH2 0x26BB JUMPI POP DUP1 DUP1 PUSH1 0x20 ADD SWAP1 MLOAD DUP2 ADD SWAP1 PUSH2 0x26B9 SWAP2 SWAP1 PUSH2 0x31A8 JUMP JUMPDEST ISZERO JUMPDEST ISZERO PUSH2 0x8DD JUMPI PUSH1 0x40 MLOAD PUSH4 0x5274AFE7 PUSH1 0xE0 SHL DUP2 MSTORE PUSH1 0x1 PUSH1 0x1 PUSH1 0xA0 SHL SUB DUP5 AND PUSH1 0x4 DUP3 ADD MSTORE PUSH1 0x24 ADD PUSH2 0x8C9 JUMP JUMPDEST PUSH2 0x26EE DUP4 DUP4 PUSH2 0x28B8 JUMP JUMPDEST PUSH2 0x8DD PUSH1 0x0 DUP5 DUP5 DUP5 PUSH2 0x210C JUMP JUMPDEST PUSH1 0x60 PUSH32 0x92FD13387C7FE7BEFBC38D303D6468778FB9731BC4583F17D92989C6FCFDEAAA DUP3 PUSH1 0x40 MLOAD PUSH1 0x24 ADD PUSH2 0x2734 SWAP2 MLOAD ISZERO ISZERO DUP2 MSTORE PUSH1 0x20 ADD SWAP1 JUMP JUMPDEST PUSH1 0x40 DUP1 MLOAD PUSH1 0x1F NOT DUP2 DUP5 SUB ADD DUP2 MSTORE SWAP2 SWAP1 MSTORE PUSH1 0x20 DUP2 ADD DUP1 MLOAD PUSH1 0x1 PUSH1 0x1 PUSH1 0xE0 SHL SUB AND PUSH1 0x1 PUSH1 0x1 PUSH1 0xE0 SHL SUB NOT SWAP1 SWAP4 AND SWAP3 SWAP1 SWAP3 OR SWAP1 SWAP2 MSTORE SWAP3 SWAP2 POP POP JUMP JUMPDEST PUSH1 0x0 DUP1 PUSH19 0x184F03E93FF9F4DAA797ED6E38ED64BF6A1F01 PUSH1 0x40 SHL DUP4 LT PUSH2 0x27AB JUMPI PUSH19 0x184F03E93FF9F4DAA797ED6E38ED64BF6A1F01 PUSH1 0x40 SHL DUP4 DIV SWAP3 POP PUSH1 0x40 ADD JUMPDEST PUSH14 0x4EE2D6D415B85ACEF8100000000 DUP4 LT PUSH2 0x27D7 JUMPI PUSH14 0x4EE2D6D415B85ACEF8100000000 DUP4 DIV SWAP3 POP PUSH1 0x20 ADD JUMPDEST PUSH7 0x2386F26FC10000 DUP4 LT PUSH2 0x27F5 JUMPI PUSH7 0x2386F26FC10000 DUP4 DIV SWAP3 POP PUSH1 0x10 ADD JUMPDEST PUSH4 0x5F5E100 DUP4 LT PUSH2 0x280D JUMPI PUSH4 0x5F5E100 DUP4 DIV SWAP3 POP PUSH1 0x8 ADD JUMPDEST PUSH2 0x2710 DUP4 LT PUSH2 0x2821 JUMPI PUSH2 0x2710 DUP4 DIV SWAP3 POP PUSH1 0x4 ADD JUMPDEST PUSH1 0x64 DUP4 LT PUSH2 0x2833 JUMPI PUSH1 0x64 DUP4 DIV SWAP3 POP PUSH1 0x2 ADD JUMPDEST PUSH1 0xA DUP4 LT PUSH2 0x798 JUMPI PUSH1 0x1 ADD SWAP3 SWAP2 POP POP JUMP JUMPDEST PUSH1 0x0 PUSH1 0x1 PUSH1 0x1 PUSH1 0xA0 SHL SUB DUP4 AND ISZERO DUP1 ISZERO SWAP1 PUSH2 0x28A2 JUMPI POP DUP3 PUSH1 0x1 PUSH1 0x1 PUSH1 0xA0 SHL SUB AND DUP5 PUSH1 0x1 PUSH1 0x1 PUSH1 0xA0 SHL SUB AND EQ DUP1 PUSH2 0x287E JUMPI POP PUSH2 0x287E DUP5 DUP5 PUSH2 0x169E JUMP JUMPDEST DUP1 PUSH2 0x28A2 JUMPI POP PUSH1 0x0 DUP3 DUP2 MSTORE PUSH1 0x4 PUSH1 0x20 MSTORE PUSH1 0x40 SWAP1 KECCAK256 SLOAD PUSH1 0x1 PUSH1 0x1 PUSH1 0xA0 SHL SUB DUP5 DUP2 AND SWAP2 AND EQ JUMPDEST SWAP5 SWAP4 POP POP POP POP JUMP JUMPDEST PUSH1 0x60 PUSH2 0x12BF DUP4 DUP4 PUSH1 0x0 PUSH2 0x291D JUMP JUMPDEST PUSH1 0x1 PUSH1 0x1 PUSH1 0xA0 SHL SUB DUP3 AND PUSH2 0x28E2 JUMPI PUSH1 0x40 MLOAD PUSH4 0x32505749 PUSH1 0xE1 SHL DUP2 MSTORE PUSH1 0x0 PUSH1 0x4 DUP3 ADD MSTORE PUSH1 0x24 ADD PUSH2 0x8C9 JUMP JUMPDEST PUSH1 0x0 PUSH2 0x28F0 DUP4 DUP4 PUSH1 0x0 PUSH2 0x18D7 JUMP JUMPDEST SWAP1 POP PUSH1 0x1 PUSH1 0x1 PUSH1 0xA0 SHL SUB DUP2 AND ISZERO PUSH2 0x8DD JUMPI PUSH1 0x40 MLOAD PUSH4 0x39E35637 PUSH1 0xE1 SHL DUP2 MSTORE PUSH1 0x0 PUSH1 0x4 DUP3 ADD MSTORE PUSH1 0x24 ADD PUSH2 0x8C9 JUMP JUMPDEST PUSH1 0x60 DUP2 SELFBALANCE LT ISZERO PUSH2 0x2942 JUMPI PUSH1 0x40 MLOAD PUSH4 0xCD786059 PUSH1 0xE0 SHL DUP2 MSTORE ADDRESS PUSH1 0x4 DUP3 ADD MSTORE PUSH1 0x24 ADD PUSH2 0x8C9 JUMP JUMPDEST PUSH1 0x0 DUP1 DUP6 PUSH1 0x1 PUSH1 0x1 PUSH1 0xA0 SHL SUB AND DUP5 DUP7 PUSH1 0x40 MLOAD PUSH2 0x295E SWAP2 SWAP1 PUSH2 0x31C5 JUMP JUMPDEST PUSH1 0x0 PUSH1 0x40 MLOAD DUP1 DUP4 SUB DUP2 DUP6 DUP8 GAS CALL SWAP3 POP POP POP RETURNDATASIZE DUP1 PUSH1 0x0 DUP2 EQ PUSH2 0x299B JUMPI PUSH1 0x40 MLOAD SWAP2 POP PUSH1 0x1F NOT PUSH1 0x3F RETURNDATASIZE ADD AND DUP3 ADD PUSH1 0x40 MSTORE RETURNDATASIZE DUP3 MSTORE RETURNDATASIZE PUSH1 0x0 PUSH1 0x20 DUP5 ADD RETURNDATACOPY PUSH2 0x29A0 JUMP JUMPDEST PUSH1 0x60 SWAP2 POP JUMPDEST POP SWAP2 POP SWAP2 POP PUSH2 0x29B0 DUP7 DUP4 DUP4 PUSH2 0x29BA JUMP JUMPDEST SWAP7 SWAP6 POP POP POP POP POP POP JUMP JUMPDEST PUSH1 0x60 DUP3 PUSH2 0x29CF JUMPI PUSH2 0x29CA DUP3 PUSH2 0x2A16 JUMP JUMPDEST PUSH2 0x12BF JUMP JUMPDEST DUP2 MLOAD ISZERO DUP1 ISZERO PUSH2 0x29E6 JUMPI POP PUSH1 0x1 PUSH1 0x1 PUSH1 0xA0 SHL SUB DUP5 AND EXTCODESIZE ISZERO JUMPDEST ISZERO PUSH2 0x2A0F JUMPI PUSH1 0x40 MLOAD PUSH4 0x9996B315 PUSH1 0xE0 SHL DUP2 MSTORE PUSH1 0x1 PUSH1 0x1 PUSH1 0xA0 SHL SUB DUP6 AND PUSH1 0x4 DUP3 ADD MSTORE PUSH1 0x24 ADD PUSH2 0x8C9 JUMP JUMPDEST POP DUP1 PUSH2 0x12BF JUMP JUMPDEST DUP1 MLOAD ISZERO PUSH2 0x2A26 JUMPI DUP1 MLOAD DUP1 DUP3 PUSH1 0x20 ADD REVERT JUMPDEST PUSH1 0x40 MLOAD PUSH4 0xA12F521 PUSH1 0xE1 SHL DUP2 MSTORE PUSH1 0x4 ADD PUSH1 0x40 MLOAD DUP1 SWAP2 SUB SWAP1 REVERT JUMPDEST PUSH1 0x1 DUP4 ADD SWAP2 DUP4 SWAP1 DUP3 ISZERO PUSH2 0x2AC2 JUMPI SWAP2 PUSH1 0x20 MUL DUP3 ADD PUSH1 0x0 JUMPDEST DUP4 DUP3 GT ISZERO PUSH2 0x2A93 JUMPI DUP4 MLOAD DUP4 DUP3 PUSH2 0x100 EXP DUP2 SLOAD DUP2 PUSH1 0xFF MUL NOT AND SWAP1 DUP4 PUSH1 0xFF AND MUL OR SWAP1 SSTORE POP SWAP3 PUSH1 0x20 ADD SWAP3 PUSH1 0x1 ADD PUSH1 0x20 DUP2 PUSH1 0x0 ADD DIV SWAP3 DUP4 ADD SWAP3 PUSH1 0x1 SUB MUL PUSH2 0x2A55 JUMP JUMPDEST DUP1 ISZERO PUSH2 0x2AC0 JUMPI DUP3 DUP2 PUSH2 0x100 EXP DUP2 SLOAD SWAP1 PUSH1 0xFF MUL NOT AND SWAP1 SSTORE PUSH1 0x1 ADD PUSH1 0x20 DUP2 PUSH1 0x0 ADD DIV SWAP3 DUP4 ADD SWAP3 PUSH1 0x1 SUB MUL PUSH2 0x2A93 JUMP JUMPDEST POP JUMPDEST POP PUSH2 0x2ACE SWAP3 SWAP2 POP PUSH2 0x2AF1 JUMP JUMPDEST POP SWAP1 JUMP JUMPDEST PUSH1 0x40 MLOAD DUP1 PUSH2 0x320 ADD PUSH1 0x40 MSTORE DUP1 PUSH1 0x19 SWAP1 PUSH1 0x20 DUP3 MUL DUP1 CALLDATASIZE DUP4 CALLDATACOPY POP SWAP2 SWAP3 SWAP2 POP POP JUMP JUMPDEST JUMPDEST DUP1 DUP3 GT ISZERO PUSH2 0x2ACE JUMPI PUSH1 0x0 DUP2 SSTORE PUSH1 0x1 ADD PUSH2 0x2AF2 JUMP JUMPDEST PUSH1 0x1 PUSH1 0x1 PUSH1 0xE0 SHL SUB NOT DUP2 AND DUP2 EQ PUSH2 0xC02 JUMPI PUSH1 0x0 DUP1 REVERT JUMPDEST PUSH1 0x0 PUSH1 0x20 DUP3 DUP5 SUB SLT ISZERO PUSH2 0x2B2E JUMPI PUSH1 0x0 DUP1 REVERT JUMPDEST DUP2 CALLDATALOAD PUSH2 0x12BF DUP2 PUSH2 0x2B06 JUMP JUMPDEST PUSH1 0x0 JUMPDEST DUP4 DUP2 LT ISZERO PUSH2 0x2B54 JUMPI DUP2 DUP2 ADD MLOAD DUP4 DUP3 ADD MSTORE PUSH1 0x20 ADD PUSH2 0x2B3C JUMP JUMPDEST POP POP PUSH1 0x0 SWAP2 ADD MSTORE JUMP JUMPDEST PUSH1 0x0 DUP2 MLOAD DUP1 DUP5 MSTORE PUSH2 0x2B75 DUP2 PUSH1 0x20 DUP7 ADD PUSH1 0x20 DUP7 ADD PUSH2 0x2B39 JUMP JUMPDEST PUSH1 0x1F ADD PUSH1 0x1F NOT AND SWAP3 SWAP1 SWAP3 ADD PUSH1 0x20 ADD SWAP3 SWAP2 POP POP JUMP JUMPDEST PUSH1 0x20 DUP2 MSTORE PUSH1 0x0 PUSH2 0x12BF PUSH1 0x20 DUP4 ADD DUP5 PUSH2 0x2B5D JUMP JUMPDEST PUSH1 0x0 PUSH1 0x20 DUP3 DUP5 SUB SLT ISZERO PUSH2 0x2BAE JUMPI PUSH1 0x0 DUP1 REVERT JUMPDEST POP CALLDATALOAD SWAP2 SWAP1 POP JUMP JUMPDEST DUP1 CALLDATALOAD PUSH1 0x1 PUSH1 0x1 PUSH1 0xA0 SHL SUB DUP2 AND DUP2 EQ PUSH2 0x2BCC JUMPI PUSH1 0x0 DUP1 REVERT JUMPDEST SWAP2 SWAP1 POP JUMP JUMPDEST PUSH1 0x0 DUP1 PUSH1 0x40 DUP4 DUP6 SUB SLT ISZERO PUSH2 0x2BE4 JUMPI PUSH1 0x0 DUP1 REVERT JUMPDEST PUSH2 0x2BED DUP4 PUSH2 0x2BB5 JUMP JUMPDEST SWAP5 PUSH1 0x20 SWAP4 SWAP1 SWAP4 ADD CALLDATALOAD SWAP4 POP POP POP JUMP JUMPDEST PUSH1 0x0 DUP1 PUSH1 0x0 PUSH1 0x40 DUP5 DUP7 SUB SLT ISZERO PUSH2 0x2C10 JUMPI PUSH1 0x0 DUP1 REVERT JUMPDEST DUP4 CALLDATALOAD SWAP3 POP PUSH1 0x20 DUP5 ADD CALLDATALOAD PUSH8 0xFFFFFFFFFFFFFFFF DUP1 DUP3 GT ISZERO PUSH2 0x2C2F JUMPI PUSH1 0x0 DUP1 REVERT JUMPDEST DUP2 DUP7 ADD SWAP2 POP DUP7 PUSH1 0x1F DUP4 ADD SLT PUSH2 0x2C43 JUMPI PUSH1 0x0 DUP1 REVERT JUMPDEST DUP2 CALLDATALOAD DUP2 DUP2 GT ISZERO PUSH2 0x2C52 JUMPI PUSH1 0x0 DUP1 REVERT JUMPDEST DUP8 PUSH1 0x20 DUP3 PUSH1 0x5 SHL DUP6 ADD ADD GT ISZERO PUSH2 0x2C67 JUMPI PUSH1 0x0 DUP1 REVERT JUMPDEST PUSH1 0x20 DUP4 ADD SWAP5 POP DUP1 SWAP4 POP POP POP POP SWAP3 POP SWAP3 POP SWAP3 JUMP JUMPDEST PUSH1 0x0 DUP1 PUSH1 0x0 PUSH1 0x60 DUP5 DUP7 SUB SLT ISZERO PUSH2 0x2C8F JUMPI PUSH1 0x0 DUP1 REVERT JUMPDEST PUSH2 0x2C98 DUP5 PUSH2 0x2BB5 JUMP JUMPDEST SWAP3 POP PUSH2 0x2CA6 PUSH1 0x20 DUP6 ADD PUSH2 0x2BB5 JUMP JUMPDEST SWAP2 POP PUSH1 0x40 DUP5 ADD CALLDATALOAD SWAP1 POP SWAP3 POP SWAP3 POP SWAP3 JUMP JUMPDEST PUSH1 0x0 PUSH1 0x20 DUP3 DUP5 SUB SLT ISZERO PUSH2 0x2CC8 JUMPI PUSH1 0x0 DUP1 REVERT JUMPDEST PUSH2 0x12BF DUP3 PUSH2 0x2BB5 JUMP JUMPDEST PUSH1 0x0 PUSH1 0x80 DUP3 DUP5 SUB SLT ISZERO PUSH2 0x2CE3 JUMPI PUSH1 0x0 DUP1 REVERT JUMPDEST DUP3 PUSH1 0x80 DUP4 ADD GT ISZERO PUSH2 0x2CF3 JUMPI PUSH1 0x0 DUP1 REVERT JUMPDEST POP SWAP2 SWAP1 POP JUMP JUMPDEST PUSH1 0x0 DUP1 PUSH1 0x20 DUP4 DUP6 SUB SLT ISZERO PUSH2 0x2D0C JUMPI PUSH1 0x0 DUP1 REVERT JUMPDEST DUP3 CALLDATALOAD PUSH8 0xFFFFFFFFFFFFFFFF DUP1 DUP3 GT ISZERO PUSH2 0x2D24 JUMPI PUSH1 0x0 DUP1 REVERT JUMPDEST DUP2 DUP6 ADD SWAP2 POP DUP6 PUSH1 0x1F DUP4 ADD SLT PUSH2 0x2D38 JUMPI PUSH1 0x0 DUP1 REVERT JUMPDEST DUP2 CALLDATALOAD DUP2 DUP2 GT ISZERO PUSH2 0x2D47 JUMPI PUSH1 0x0 DUP1 REVERT JUMPDEST DUP7 PUSH1 0x20 DUP3 DUP6 ADD ADD GT ISZERO PUSH2 0x2D59 JUMPI PUSH1 0x0 DUP1 REVERT JUMPDEST PUSH1 0x20 SWAP3 SWAP1 SWAP3 ADD SWAP7 SWAP2 SWAP6 POP SWAP1 SWAP4 POP POP POP POP JUMP JUMPDEST DUP1 CALLDATALOAD PUSH3 0xFFFFFF DUP2 AND DUP2 EQ PUSH2 0x2BCC JUMPI PUSH1 0x0 DUP1 REVERT JUMPDEST PUSH1 0x0 DUP1 PUSH1 0x40 DUP4 DUP6 SUB SLT ISZERO PUSH2 0x2D91 JUMPI PUSH1 0x0 DUP1 REVERT JUMPDEST PUSH2 0x2BED DUP4 PUSH2 0x2D6B JUMP JUMPDEST DUP3 ISZERO ISZERO DUP2 MSTORE PUSH1 0x40 PUSH1 0x20 DUP3 ADD MSTORE PUSH1 0x0 PUSH2 0x28A2 PUSH1 0x40 DUP4 ADD DUP5 PUSH2 0x2B5D JUMP JUMPDEST DUP1 ISZERO ISZERO DUP2 EQ PUSH2 0xC02 JUMPI PUSH1 0x0 DUP1 REVERT JUMPDEST PUSH1 0x0 DUP1 PUSH1 0x40 DUP4 DUP6 SUB SLT ISZERO PUSH2 0x2DD6 JUMPI PUSH1 0x0 DUP1 REVERT JUMPDEST PUSH2 0x2DDF DUP4 PUSH2 0x2BB5 JUMP JUMPDEST SWAP2 POP PUSH1 0x20 DUP4 ADD CALLDATALOAD PUSH2 0x2DEF DUP2 PUSH2 0x2DB5 JUMP JUMPDEST DUP1 SWAP2 POP POP SWAP3 POP SWAP3 SWAP1 POP JUMP JUMPDEST PUSH4 0x4E487B71 PUSH1 0xE0 SHL PUSH1 0x0 MSTORE PUSH1 0x41 PUSH1 0x4 MSTORE PUSH1 0x24 PUSH1 0x0 REVERT JUMPDEST PUSH1 0x0 DUP1 PUSH1 0x0 DUP1 PUSH1 0x80 DUP6 DUP8 SUB SLT ISZERO PUSH2 0x2E26 JUMPI PUSH1 0x0 DUP1 REVERT JUMPDEST PUSH2 0x2E2F DUP6 PUSH2 0x2BB5 JUMP JUMPDEST SWAP4 POP PUSH2 0x2E3D PUSH1 0x20 DUP7 ADD PUSH2 0x2BB5 JUMP JUMPDEST SWAP3 POP PUSH1 0x40 DUP6 ADD CALLDATALOAD SWAP2 POP PUSH1 0x60 DUP6 ADD CALLDATALOAD PUSH8 0xFFFFFFFFFFFFFFFF DUP1 DUP3 GT ISZERO PUSH2 0x2E61 JUMPI PUSH1 0x0 DUP1 REVERT JUMPDEST DUP2 DUP8 ADD SWAP2 POP DUP8 PUSH1 0x1F DUP4 ADD SLT PUSH2 0x2E75 JUMPI PUSH1 0x0 DUP1 REVERT JUMPDEST DUP2 CALLDATALOAD DUP2 DUP2 GT ISZERO PUSH2 0x2E87 JUMPI PUSH2 0x2E87 PUSH2 0x2DFA JUMP JUMPDEST PUSH1 0x40 MLOAD PUSH1 0x1F DUP3 ADD PUSH1 0x1F NOT SWAP1 DUP2 AND PUSH1 0x3F ADD AND DUP2 ADD SWAP1 DUP4 DUP3 GT DUP2 DUP4 LT OR ISZERO PUSH2 0x2EAF JUMPI PUSH2 0x2EAF PUSH2 0x2DFA JUMP JUMPDEST DUP2 PUSH1 0x40 MSTORE DUP3 DUP2 MSTORE DUP11 PUSH1 0x20 DUP5 DUP8 ADD ADD GT ISZERO PUSH2 0x2EC8 JUMPI PUSH1 0x0 DUP1 REVERT JUMPDEST DUP3 PUSH1 0x20 DUP7 ADD PUSH1 0x20 DUP4 ADD CALLDATACOPY PUSH1 0x0 PUSH1 0x20 DUP5 DUP4 ADD ADD MSTORE DUP1 SWAP6 POP POP POP POP POP POP SWAP3 SWAP6 SWAP2 SWAP5 POP SWAP3 POP JUMP JUMPDEST PUSH1 0x0 PUSH1 0x20 DUP3 DUP5 SUB SLT ISZERO PUSH2 0x2EFE JUMPI PUSH1 0x0 DUP1 REVERT JUMPDEST PUSH2 0x12BF DUP3 PUSH2 0x2D6B JUMP JUMPDEST PUSH1 0x0 DUP1 PUSH1 0x40 DUP4 DUP6 SUB SLT ISZERO PUSH2 0x2F1A JUMPI PUSH1 0x0 DUP1 REVERT JUMPDEST PUSH2 0x2F23 DUP4 PUSH2 0x2BB5 JUMP JUMPDEST SWAP2 POP PUSH2 0x2F31 PUSH1 0x20 DUP5 ADD PUSH2 0x2BB5 JUMP JUMPDEST SWAP1 POP SWAP3 POP SWAP3 SWAP1 POP JUMP JUMPDEST PUSH1 0x1 DUP2 DUP2 SHR SWAP1 DUP3 AND DUP1 PUSH2 0x2F4E JUMPI PUSH1 0x7F DUP3 AND SWAP2 POP JUMPDEST PUSH1 0x20 DUP3 LT DUP2 SUB PUSH2 0x2CF3 JUMPI PUSH4 0x4E487B71 PUSH1 0xE0 SHL PUSH1 0x0 MSTORE PUSH1 0x22 PUSH1 0x4 MSTORE PUSH1 0x24 PUSH1 0x0 REVERT JUMPDEST PUSH4 0x4E487B71 PUSH1 0xE0 SHL PUSH1 0x0 MSTORE PUSH1 0x32 PUSH1 0x4 MSTORE PUSH1 0x24 PUSH1 0x0 REVERT JUMPDEST PUSH1 0x0 PUSH1 0x20 DUP3 DUP5 SUB SLT ISZERO PUSH2 0x2F96 JUMPI PUSH1 0x0 DUP1 REVERT JUMPDEST DUP2 CALLDATALOAD PUSH1 0xFF DUP2 AND DUP2 EQ PUSH2 0x12BF JUMPI PUSH1 0x0 DUP1 REVERT JUMPDEST PUSH4 0x4E487B71 PUSH1 0xE0 SHL PUSH1 0x0 MSTORE PUSH1 0x11 PUSH1 0x4 MSTORE PUSH1 0x24 PUSH1 0x0 REVERT JUMPDEST PUSH1 0x0 PUSH1 0x1 DUP3 ADD PUSH2 0x2FCF JUMPI PUSH2 0x2FCF PUSH2 0x2FA7 JUMP JUMPDEST POP PUSH1 0x1 ADD SWAP1 JUMP JUMPDEST PUSH3 0xFFFFFF DUP2 DUP2 AND DUP4 DUP3 AND ADD SWAP1 DUP1 DUP3 GT ISZERO PUSH2 0x2FF2 JUMPI PUSH2 0x2FF2 PUSH2 0x2FA7 JUMP JUMPDEST POP SWAP3 SWAP2 POP POP JUMP JUMPDEST DUP1 DUP3 ADD DUP1 DUP3 GT ISZERO PUSH2 0x798 JUMPI PUSH2 0x798 PUSH2 0x2FA7 JUMP JUMPDEST PUSH1 0x0 DUP4 MLOAD PUSH2 0x301E DUP2 DUP5 PUSH1 0x20 DUP9 ADD PUSH2 0x2B39 JUMP JUMPDEST DUP4 MLOAD SWAP1 DUP4 ADD SWAP1 PUSH2 0x3032 DUP2 DUP4 PUSH1 0x20 DUP9 ADD PUSH2 0x2B39 JUMP JUMPDEST ADD SWAP5 SWAP4 POP POP POP POP JUMP JUMPDEST PUSH4 0x4E487B71 PUSH1 0xE0 SHL PUSH1 0x0 MSTORE PUSH1 0x12 PUSH1 0x4 MSTORE PUSH1 0x24 PUSH1 0x0 REVERT JUMPDEST PUSH1 0x0 DUP3 PUSH2 0x3060 JUMPI PUSH2 0x3060 PUSH2 0x303B JUMP JUMPDEST POP DIV SWAP1 JUMP JUMPDEST DUP2 DUP2 SUB DUP2 DUP2 GT ISZERO PUSH2 0x798 JUMPI PUSH2 0x798 PUSH2 0x2FA7 JUMP JUMPDEST PUSH3 0xFFFFFF DUP3 DUP2 AND DUP3 DUP3 AND SUB SWAP1 DUP1 DUP3 GT ISZERO PUSH2 0x2FF2 JUMPI PUSH2 0x2FF2 PUSH2 0x2FA7 JUMP JUMPDEST PUSH1 0x0 DUP3 PUSH2 0x30A3 JUMPI PUSH2 0x30A3 PUSH2 0x303B JUMP JUMPDEST POP MOD SWAP1 JUMP JUMPDEST DUP1 DUP3 MUL DUP2 ISZERO DUP3 DUP3 DIV DUP5 EQ OR PUSH2 0x798 JUMPI PUSH2 0x798 PUSH2 0x2FA7 JUMP JUMPDEST PUSH1 0x20 DUP2 MSTORE DUP2 MLOAD PUSH1 0x20 DUP3 ADD MSTORE PUSH1 0x20 DUP3 ADD MLOAD PUSH1 0x40 DUP3 ADD MSTORE PUSH2 0xFFFF PUSH1 0x40 DUP4 ADD MLOAD AND PUSH1 0x60 DUP3 ADD MSTORE PUSH1 0x0 PUSH1 0x60 DUP4 ADD MLOAD PUSH4 0xFFFFFFFF DUP1 DUP3 AND PUSH1 0x80 DUP6 ADD MSTORE DUP1 PUSH1 0x80 DUP7 ADD MLOAD AND PUSH1 0xA0 DUP6 ADD MSTORE POP POP PUSH1 0xA0 DUP4 ADD MLOAD PUSH1 0xC0 DUP1 DUP5 ADD MSTORE PUSH2 0x28A2 PUSH1 0xE0 DUP5 ADD DUP3 PUSH2 0x2B5D JUMP JUMPDEST PUSH1 0x0 PUSH1 0x20 DUP3 DUP5 SUB SLT ISZERO PUSH2 0x312E JUMPI PUSH1 0x0 DUP1 REVERT JUMPDEST POP MLOAD SWAP2 SWAP1 POP JUMP JUMPDEST PUSH1 0x0 PUSH4 0xFFFFFFFF DUP1 DUP4 AND DUP2 DUP2 SUB PUSH2 0x314E JUMPI PUSH2 0x314E PUSH2 0x2FA7 JUMP JUMPDEST PUSH1 0x1 ADD SWAP4 SWAP3 POP POP POP JUMP JUMPDEST PUSH1 0x1 PUSH1 0x1 PUSH1 0xA0 SHL SUB DUP6 DUP2 AND DUP3 MSTORE DUP5 AND PUSH1 0x20 DUP3 ADD MSTORE PUSH1 0x40 DUP2 ADD DUP4 SWAP1 MSTORE PUSH1 0x80 PUSH1 0x60 DUP3 ADD DUP2 SWAP1 MSTORE PUSH1 0x0 SWAP1 PUSH2 0x29B0 SWAP1 DUP4 ADD DUP5 PUSH2 0x2B5D JUMP JUMPDEST PUSH1 0x0 PUSH1 0x20 DUP3 DUP5 SUB SLT ISZERO PUSH2 0x319D JUMPI PUSH1 0x0 DUP1 REVERT JUMPDEST DUP2 MLOAD PUSH2 0x12BF DUP2 PUSH2 0x2B06 JUMP JUMPDEST PUSH1 0x0 PUSH1 0x20 DUP3 DUP5 SUB SLT ISZERO PUSH2 0x31BA JUMPI PUSH1 0x0 DUP1 REVERT JUMPDEST DUP2 MLOAD PUSH2 0x12BF DUP2 PUSH2 0x2DB5 JUMP JUMPDEST PUSH1 0x0 DUP3 MLOAD PUSH2 0x31D7 DUP2 DUP5 PUSH1 0x20 DUP8 ADD PUSH2 0x2B39 JUMP JUMPDEST SWAP2 SWAP1 SWAP2 ADD SWAP3 SWAP2 POP POP JUMP INVALID LOG2 PUSH5 0x6970667358 0x22 SLT KECCAK256 0xAB EXTCODESIZE 0xAF DUP7 ADDRESS BYTE RETURNDATASIZE SMOD JUMP BYTE CODECOPY ISZERO 0xAA PUSH18 0x609DC223C2A17F2100AC29FF1FBECDBBBC67 PUSH5 0x736F6C6343 STOP ADDMOD EQ STOP CALLER "},"methodIdentifiers":{"CALLBACK_GAS_LIMIT()":"33d608f1","VRF_NUM_WORDS()":"5c900a1a","VRF_REQUEST_CONFIRMATIONS()":"1e27580e","acceptOwnership()":"79ba5097","approve(address,uint256)":"095ea7b3","automationActive()":"6baf4a74","balanceOf(address)":"70a08231","buyTicket(uint8[4])":"3d4962ed","checkUpkeep(bytes)":"6e04ff0d","claimPrize(uint256)":"d7098154","currentGameDay()":"0d50cdb9","dailyDrawHourUTC()":"8d6ef595","dayResults(uint24)":"d96226a2","emergencyPause()":"51858e27","getApproved(uint256)":"081812fc","isApprovedForAll(address,address)":"e985e9c5","name()":"06fdde03","nextDrawTs()":"c8d51919","owner()":"8da5cb5b","ownerOf(uint256)":"6352211e","paymentToken()":"3013ce29","performUpkeep(bytes)":"4585e33b","pools()":"c5c51dca","processDrawBatch(uint24,uint256)":"5d58f930","rawFulfillRandomWords(uint256,uint256[])":"1fe543e3","s_vrfCoordinator()":"9eccacf6","safeTransferFrom(address,address,uint256)":"42842e0e","safeTransferFrom(address,address,uint256,bytes)":"b88d4fde","setApprovalForAll(address,bool)":"a22cb465","setCoordinator(address)":"8ea98117","supportsInterface(bytes4)":"01ffc9a7","sweepDevPool(address)":"2516f149","symbol()":"95d89b41","ticketPrice()":"1209b1f6","tickets(uint256)":"50b44712","toggleAutomation()":"4f687e91","toggleEmergencyPause()":"147e291f","tokenURI(uint256)":"c87b56dd","transferFrom(address,address,uint256)":"23b872dd","transferOwnership(address)":"f2fde38b","vrfKeyHash()":"041d443e","vrfSubId()":"32615640"}}}}}