{"contracts/LottoMojiCoreV4.sol":{"LottoMojiCoreV4":{"abi":[{"inputs":[{"internalType":"uint8","name":"_drawHourUTC","type":"uint8"},{"internalType":"address","name":"_paymentToken","type":"address"},{"internalType":"uint256","name":"_ticketPrice","type":"uint256"},{"internalType":"address","name":"_vrfCoordinator","type":"address"},{"internalType":"bytes32","name":"_keyHash","type":"bytes32"},{"internalType":"uint256","name":"_subId","type":"uint256"}],"stateMutability":"nonpayable","type":"constructor"},{"inputs":[{"internalType":"address","name":"target","type":"address"}],"name":"AddressEmptyCode","type":"error"},{"inputs":[{"internalType":"address","name":"account","type":"address"}],"name":"AddressInsufficientBalance","type":"error"},{"inputs":[],"name":"AlreadyClaimed","type":"error"},{"inputs":[],"name":"AutomationPaused","type":"error"},{"inputs":[],"name":"BatchDone","type":"error"},{"inputs":[],"name":"ERC721EnumerableForbiddenBatchMint","type":"error"},{"inputs":[{"internalType":"address","name":"sender","type":"address"},{"internalType":"uint256","name":"tokenId","type":"uint256"},{"internalType":"address","name":"owner","type":"address"}],"name":"ERC721IncorrectOwner","type":"error"},{"inputs":[{"internalType":"address","name":"operator","type":"address"},{"internalType":"uint256","name":"tokenId","type":"uint256"}],"name":"ERC721InsufficientApproval","type":"error"},{"inputs":[{"internalType":"address","name":"approver","type":"address"}],"name":"ERC721InvalidApprover","type":"error"},{"inputs":[{"internalType":"address","name":"operator","type":"address"}],"name":"ERC721InvalidOperator","type":"error"},{"inputs":[{"internalType":"address","name":"owner","type":"address"}],"name":"ERC721InvalidOwner","type":"error"},{"inputs":[{"internalType":"address","name":"receiver","type":"address"}],"name":"ERC721InvalidReceiver","type":"error"},{"inputs":[{"internalType":"address","name":"sender","type":"address"}],"name":"ERC721InvalidSender","type":"error"},{"inputs":[{"internalType":"uint256","name":"tokenId","type":"uint256"}],"name":"ERC721NonexistentToken","type":"error"},{"inputs":[{"internalType":"address","name":"owner","type":"address"},{"internalType":"uint256","name":"index","type":"uint256"}],"name":"ERC721OutOfBoundsIndex","type":"error"},{"inputs":[],"name":"EmergencyPaused","type":"error"},{"inputs":[],"name":"FailedInnerCall","type":"error"},{"inputs":[],"name":"InvalidEmoji","type":"error"},{"inputs":[],"name":"NotWinner","type":"error"},{"inputs":[{"internalType":"address","name":"have","type":"address"},{"internalType":"address","name":"want","type":"address"}],"name":"OnlyCoordinatorCanFulfill","type":"error"},{"inputs":[{"internalType":"address","name":"have","type":"address"},{"internalType":"address","name":"owner","type":"address"},{"internalType":"address","name":"coordinator","type":"address"}],"name":"OnlyOwnerOrCoordinator","type":"error"},{"inputs":[],"name":"ReentrancyGuardReentrantCall","type":"error"},{"inputs":[{"internalType":"address","name":"token","type":"address"}],"name":"SafeERC20FailedOperation","type":"error"},{"inputs":[],"name":"TooEarly","type":"error"},{"inputs":[],"name":"TooLate","type":"error"},{"inputs":[],"name":"ZeroAddress","type":"error"},{"anonymous":false,"inputs":[{"indexed":true,"internalType":"address","name":"owner","type":"address"},{"indexed":true,"internalType":"address","name":"approved","type":"address"},{"indexed":true,"internalType":"uint256","name":"tokenId","type":"uint256"}],"name":"Approval","type":"event"},{"anonymous":false,"inputs":[{"indexed":true,"internalType":"address","name":"owner","type":"address"},{"indexed":true,"internalType":"address","name":"operator","type":"address"},{"indexed":false,"internalType":"bool","name":"approved","type":"bool"}],"name":"ApprovalForAll","type":"event"},{"anonymous":false,"inputs":[{"indexed":true,"internalType":"uint24","name":"day","type":"uint24"},{"indexed":false,"internalType":"uint256","name":"from","type":"uint256"},{"indexed":false,"internalType":"uint256","name":"to","type":"uint256"}],"name":"BatchProcessed","type":"event"},{"anonymous":false,"inputs":[{"indexed":false,"internalType":"address","name":"vrfCoordinator","type":"address"}],"name":"CoordinatorSet","type":"event"},{"anonymous":false,"inputs":[{"indexed":false,"internalType":"address","name":"to","type":"address"},{"indexed":false,"internalType":"uint256","name":"amount","type":"uint256"}],"name":"DevelopmentWithdrawn","type":"event"},{"anonymous":false,"inputs":[{"indexed":true,"internalType":"uint24","name":"day","type":"uint24"},{"indexed":false,"internalType":"uint8[4]","name":"numbers","type":"uint8[4]"}],"name":"DrawNumbers","type":"event"},{"anonymous":false,"inputs":[{"indexed":true,"internalType":"uint24","name":"nextDay","type":"uint24"},{"indexed":false,"internalType":"uint256","name":"drawTimestamp","type":"uint256"}],"name":"NextDrawScheduled","type":"event"},{"anonymous":false,"inputs":[{"indexed":true,"internalType":"address","name":"from","type":"address"},{"indexed":true,"internalType":"address","name":"to","type":"address"}],"name":"OwnershipTransferRequested","type":"event"},{"anonymous":false,"inputs":[{"indexed":true,"internalType":"address","name":"from","type":"address"},{"indexed":true,"internalType":"address","name":"to","type":"address"}],"name":"OwnershipTransferred","type":"event"},{"anonymous":false,"inputs":[{"indexed":true,"internalType":"uint24","name":"day","type":"uint24"},{"indexed":true,"internalType":"uint256","name":"ticketId","type":"uint256"},{"indexed":false,"internalType":"address","name":"winner","type":"address"},{"indexed":false,"internalType":"uint8","name":"level","type":"uint8"},{"indexed":false,"internalType":"uint256","name":"amount","type":"uint256"}],"name":"PrizeClaimed","type":"event"},{"anonymous":false,"inputs":[{"indexed":true,"internalType":"uint24","name":"day","type":"uint24"},{"indexed":false,"internalType":"uint32","name":"first","type":"uint32"},{"indexed":false,"internalType":"uint32","name":"second","type":"uint32"},{"indexed":false,"internalType":"uint32","name":"third","type":"uint32"}],"name":"PrizesCalculated","type":"event"},{"anonymous":false,"inputs":[{"indexed":true,"internalType":"address","name":"player","type":"address"},{"indexed":true,"internalType":"uint256","name":"ticketId","type":"uint256"},{"indexed":true,"internalType":"uint24","name":"day","type":"uint24"}],"name":"TicketPurchased","type":"event"},{"anonymous":false,"inputs":[{"indexed":true,"internalType":"address","name":"from","type":"address"},{"indexed":true,"internalType":"address","name":"to","type":"address"},{"indexed":true,"internalType":"uint256","name":"tokenId","type":"uint256"}],"name":"Transfer","type":"event"},{"anonymous":false,"inputs":[{"indexed":true,"internalType":"uint256","name":"requestId","type":"uint256"},{"indexed":true,"internalType":"uint24","name":"day","type":"uint24"}],"name":"VRFRequested","type":"event"},{"inputs":[],"name":"VRF_CALLBACK_GAS_LIMIT","outputs":[{"internalType":"uint32","name":"","type":"uint32"}],"stateMutability":"view","type":"function"},{"inputs":[],"name":"VRF_CONFIRMATIONS","outputs":[{"internalType":"uint16","name":"","type":"uint16"}],"stateMutability":"view","type":"function"},{"inputs":[],"name":"VRF_NUM_WORDS","outputs":[{"internalType":"uint32","name":"","type":"uint32"}],"stateMutability":"view","type":"function"},{"inputs":[],"name":"acceptOwnership","outputs":[],"stateMutability":"nonpayable","type":"function"},{"inputs":[{"internalType":"address","name":"to","type":"address"},{"internalType":"uint256","name":"tokenId","type":"uint256"}],"name":"approve","outputs":[],"stateMutability":"nonpayable","type":"function"},{"inputs":[],"name":"automationActive","outputs":[{"internalType":"bool","name":"","type":"bool"}],"stateMutability":"view","type":"function"},{"inputs":[{"internalType":"address","name":"owner","type":"address"}],"name":"balanceOf","outputs":[{"internalType":"uint256","name":"","type":"uint256"}],"stateMutability":"view","type":"function"},{"inputs":[{"internalType":"uint8[4]","name":"emojiNumbers","type":"uint8[4]"}],"name":"buyTicket","outputs":[],"stateMutability":"nonpayable","type":"function"},{"inputs":[{"internalType":"bytes","name":"","type":"bytes"}],"name":"checkUpkeep","outputs":[{"internalType":"bool","name":"upkeepNeeded","type":"bool"},{"internalType":"bytes","name":"performData","type":"bytes"}],"stateMutability":"view","type":"function"},{"inputs":[{"internalType":"uint256","name":"ticketId","type":"uint256"}],"name":"claimPrize","outputs":[],"stateMutability":"nonpayable","type":"function"},{"inputs":[],"name":"currentGameDay","outputs":[{"internalType":"uint24","name":"","type":"uint24"}],"stateMutability":"view","type":"function"},{"inputs":[],"name":"dailyDrawHourUTC","outputs":[{"internalType":"uint8","name":"","type":"uint8"}],"stateMutability":"view","type":"function"},{"inputs":[{"internalType":"uint24","name":"","type":"uint24"}],"name":"dayResults","outputs":[{"internalType":"uint32","name":"processingIndex","type":"uint32"},{"internalType":"uint32","name":"winnersFirst","type":"uint32"},{"internalType":"uint32","name":"winnersSecond","type":"uint32"},{"internalType":"uint32","name":"winnersThird","type":"uint32"},{"internalType":"bool","name":"fullyProcessed","type":"bool"}],"stateMutability":"view","type":"function"},{"inputs":[],"name":"emergencyPause","outputs":[{"internalType":"bool","name":"","type":"bool"}],"stateMutability":"view","type":"function"},{"inputs":[{"internalType":"uint256","name":"tokenId","type":"uint256"}],"name":"getApproved","outputs":[{"internalType":"address","name":"","type":"address"}],"stateMutability":"view","type":"function"},{"inputs":[{"internalType":"address","name":"owner","type":"address"},{"internalType":"address","name":"operator","type":"address"}],"name":"isApprovedForAll","outputs":[{"internalType":"bool","name":"","type":"bool"}],"stateMutability":"view","type":"function"},{"inputs":[],"name":"name","outputs":[{"internalType":"string","name":"","type":"string"}],"stateMutability":"view","type":"function"},{"inputs":[],"name":"nextDrawTs","outputs":[{"internalType":"uint256","name":"","type":"uint256"}],"stateMutability":"view","type":"function"},{"inputs":[],"name":"owner","outputs":[{"internalType":"address","name":"","type":"address"}],"stateMutability":"view","type":"function"},{"inputs":[{"internalType":"uint256","name":"tokenId","type":"uint256"}],"name":"ownerOf","outputs":[{"internalType":"address","name":"","type":"address"}],"stateMutability":"view","type":"function"},{"inputs":[],"name":"paymentToken","outputs":[{"internalType":"contract IERC20","name":"","type":"address"}],"stateMutability":"view","type":"function"},{"inputs":[{"internalType":"bytes","name":"","type":"bytes"}],"name":"performUpkeep","outputs":[],"stateMutability":"nonpayable","type":"function"},{"inputs":[],"name":"pools","outputs":[{"internalType":"uint256","name":"firstPrize","type":"uint256"},{"internalType":"uint256","name":"secondPrize","type":"uint256"},{"internalType":"uint256","name":"thirdPrize","type":"uint256"},{"internalType":"uint256","name":"devPool","type":"uint256"},{"internalType":"uint256","name":"firstReserve","type":"uint256"},{"internalType":"uint256","name":"secondReserve","type":"uint256"},{"internalType":"uint256","name":"thirdReserve","type":"uint256"}],"stateMutability":"view","type":"function"},{"inputs":[{"internalType":"uint24","name":"day","type":"uint24"},{"internalType":"uint256","name":"batchSize","type":"uint256"}],"name":"processDrawBatch","outputs":[],"stateMutability":"nonpayable","type":"function"},{"inputs":[{"internalType":"uint256","name":"requestId","type":"uint256"},{"internalType":"uint256[]","name":"randomWords","type":"uint256[]"}],"name":"rawFulfillRandomWords","outputs":[],"stateMutability":"nonpayable","type":"function"},{"inputs":[],"name":"s_vrfCoordinator","outputs":[{"internalType":"contract IVRFCoordinatorV2Plus","name":"","type":"address"}],"stateMutability":"view","type":"function"},{"inputs":[{"internalType":"address","name":"from","type":"address"},{"internalType":"address","name":"to","type":"address"},{"internalType":"uint256","name":"tokenId","type":"uint256"}],"name":"safeTransferFrom","outputs":[],"stateMutability":"nonpayable","type":"function"},{"inputs":[{"internalType":"address","name":"from","type":"address"},{"internalType":"address","name":"to","type":"address"},{"internalType":"uint256","name":"tokenId","type":"uint256"},{"internalType":"bytes","name":"data","type":"bytes"}],"name":"safeTransferFrom","outputs":[],"stateMutability":"nonpayable","type":"function"},{"inputs":[{"internalType":"address","name":"operator","type":"address"},{"internalType":"bool","name":"approved","type":"bool"}],"name":"setApprovalForAll","outputs":[],"stateMutability":"nonpayable","type":"function"},{"inputs":[{"internalType":"address","name":"_vrfCoordinator","type":"address"}],"name":"setCoordinator","outputs":[],"stateMutability":"nonpayable","type":"function"},{"inputs":[{"internalType":"bytes4","name":"interfaceId","type":"bytes4"}],"name":"supportsInterface","outputs":[{"internalType":"bool","name":"","type":"bool"}],"stateMutability":"view","type":"function"},{"inputs":[],"name":"symbol","outputs":[{"internalType":"string","name":"","type":"string"}],"stateMutability":"view","type":"function"},{"inputs":[],"name":"ticketPrice","outputs":[{"internalType":"uint256","name":"","type":"uint256"}],"stateMutability":"view","type":"function"},{"inputs":[{"internalType":"uint256","name":"","type":"uint256"}],"name":"tickets","outputs":[{"internalType":"uint40","name":"purchaseTime","type":"uint40"},{"internalType":"uint24","name":"gameDay","type":"uint24"},{"internalType":"bool","name":"claimed","type":"bool"}],"stateMutability":"view","type":"function"},{"inputs":[],"name":"toggleAutomation","outputs":[],"stateMutability":"nonpayable","type":"function"},{"inputs":[],"name":"toggleEmergencyPause","outputs":[],"stateMutability":"nonpayable","type":"function"},{"inputs":[{"internalType":"uint256","name":"index","type":"uint256"}],"name":"tokenByIndex","outputs":[{"internalType":"uint256","name":"","type":"uint256"}],"stateMutability":"view","type":"function"},{"inputs":[{"internalType":"address","name":"owner","type":"address"},{"internalType":"uint256","name":"index","type":"uint256"}],"name":"tokenOfOwnerByIndex","outputs":[{"internalType":"uint256","name":"","type":"uint256"}],"stateMutability":"view","type":"function"},{"inputs":[{"internalType":"uint256","name":"tokenId","type":"uint256"}],"name":"tokenURI","outputs":[{"internalType":"string","name":"","type":"string"}],"stateMutability":"view","type":"function"},{"inputs":[],"name":"totalSupply","outputs":[{"internalType":"uint256","name":"","type":"uint256"}],"stateMutability":"view","type":"function"},{"inputs":[{"internalType":"address","name":"from","type":"address"},{"internalType":"address","name":"to","type":"address"},{"internalType":"uint256","name":"tokenId","type":"uint256"}],"name":"transferFrom","outputs":[],"stateMutability":"nonpayable","type":"function"},{"inputs":[{"internalType":"address","name":"to","type":"address"}],"name":"transferOwnership","outputs":[],"stateMutability":"nonpayable","type":"function"},{"inputs":[],"name":"vrfKeyHash","outputs":[{"internalType":"bytes32","name":"","type":"bytes32"}],"stateMutability":"view","type":"function"},{"inputs":[],"name":"vrfSubId","outputs":[{"internalType":"uint256","name":"","type":"uint256"}],"stateMutability":"view","type":"function"},{"inputs":[{"internalType":"address","name":"to","type":"address"}],"name":"withdrawDevelopment","outputs":[],"stateMutability":"nonpayable","type":"function"}],"evm":{"bytecode":{"linkReferences":{},"object":"610140604052600f805462ffffff191660019081179091556010819055601c805461ffff191690911790553480156200003757600080fd5b5060405162003c1d38038062003c1d8339810160408190526200005a91620003a9565b82338060006040518060400160405280601381526020017f4c6f74746f4d6f6a69205469636b65742056340000000000000000000000000081525060405180604001604052806005815260200164131352958d60da1b8152508160009081620000c49190620004bb565b506001620000d38282620004bb565b50506001600a55506001600160a01b038216620001375760405162461bcd60e51b815260206004820152601860248201527f43616e6e6f7420736574206f776e657220746f207a65726f000000000000000060448201526064015b60405180910390fd5b600b80546001600160a01b0319166001600160a01b03848116919091179091558116156200016a576200016a8162000278565b5050506001600160a01b038116620001955760405163d92e233d60e01b815260040160405180910390fd5b600d80546001600160a01b0319166001600160a01b0392909216919091179055601860ff871610620001f45760405162461bcd60e51b81526020600482015260076024820152661a1bdd5c8f0c8d60ca1b60448201526064016200012e565b60ff86166080526001600160a01b0380861660c05260a0859052831660e0526101008290526101208190526200022b428762000324565b600e819055600f5460405191825262ffffff16907f70aba4eecfb00a70e5aae193521bc256fc3cbf7a91479f6bcda4b5a82f9869619060200160405180910390a2505050505050620005f0565b336001600160a01b03821603620002d25760405162461bcd60e51b815260206004820152601760248201527f43616e6e6f74207472616e7366657220746f2073656c6600000000000000000060448201526064016200012e565b600c80546001600160a01b0319166001600160a01b03838116918217909255600b54604051919216907fed8889f560326eb138920d842192f0eb3dd22b4f139c87a2c57538e05bae127890600090a350565b6000806200033662015180856200059d565b620003459062015180620005c0565b905060006200035a60ff8516610e10620005c0565b620003669083620005da565b905084811162000382576200037f6201518082620005da565b90505b9150505b92915050565b80516001600160a01b0381168114620003a457600080fd5b919050565b60008060008060008060c08789031215620003c357600080fd5b865160ff81168114620003d557600080fd5b9550620003e5602088016200038c565b945060408701519350620003fc606088016200038c565b92506080870151915060a087015190509295509295509295565b634e487b7160e01b600052604160045260246000fd5b600181811c908216806200044157607f821691505b6020821081036200046257634e487b7160e01b600052602260045260246000fd5b50919050565b601f821115620004b657600081815260208120601f850160051c81016020861015620004915750805b601f850160051c820191505b81811015620004b2578281556001016200049d565b5050505b505050565b81516001600160401b03811115620004d757620004d762000416565b620004ef81620004e884546200042c565b8462000468565b602080601f8311600181146200052757600084156200050e5750858301515b600019600386901b1c1916600185901b178555620004b2565b600085815260208120601f198616915b82811015620005585788860151825594840194600190910190840162000537565b5085821015620005775787850151600019600388901b60f8161c191681555b5050505050600190811b01905550565b634e487b7160e01b600052601160045260246000fd5b600082620005bb57634e487b7160e01b600052601260045260246000fd5b500490565b808202811582820484141762000386576200038662000587565b8082018082111562000386576200038662000587565b60805160a05160c05160e05161010051610120516135a562000678600039600081816103f50152611c8d0152600081816102b10152611c6701526000611c2d0152600081816103ce01528181610a850152818161162e01526116d501526000818161035e01528181610aa9015281816115d50152611a7d0152600061059201526135a56000f3fe608060405234801561001057600080fd5b506004361061027f5760003560e01c80635c900a1a1161015c5780639eccacf6116100ce578063d01ed8a311610087578063d01ed8a31461069e578063d7098154146106a8578063d96226a2146106bb578063e8cfbe6914610749578063e985e9c51461075c578063f2fde38b1461076f57600080fd5b80639eccacf6146105f2578063a22cb46514610605578063b88d4fde14610618578063c5c51dca1461062b578063c87b56dd14610682578063c8d519191461069557600080fd5b806370a082311161012057806370a082311461057257806379ba5097146105855780638d6ef5951461058d5780638da5cb5b146105c65780638ea98117146105d757806395d89b41146105ea57600080fd5b80635c900a1a146105015780635d58f9301461051e5780636352211e146105315780636baf4a74146105445780636e04ff0d1461055157600080fd5b80632f745c59116101f557806342842e0e116101b957806342842e0e146104455780634585e33b146104585780634f687e911461046b5780634f6ccce71461047357806350b447121461048657806351858e27146104ef57600080fd5b80632f745c59146103b65780633013ce29146103c957806332615640146103f05780633d4962ed1461041757806340985c981461042a57600080fd5b80630d50cdb9116102475780630d50cdb9146103365780631209b1f614610359578063147e291f1461038057806318160ddd146103885780631fe543e31461039057806323b872dd146103a357600080fd5b806301ffc9a714610284578063041d443e146102ac57806306fdde03146102e1578063081812fc146102f6578063095ea7b314610321575b600080fd5b610297610292366004612eb0565b610782565b60405190151581526020015b60405180910390f35b6102d37f000000000000000000000000000000000000000000000000000000000000000081565b6040519081526020016102a3565b6102e9610793565b6040516102a39190612f1d565b610309610304366004612f30565b610825565b6040516001600160a01b0390911681526020016102a3565b61033461032f366004612f65565b61084e565b005b600f546103459062ffffff1681565b60405162ffffff90911681526020016102a3565b6102d37f000000000000000000000000000000000000000000000000000000000000000081565b61033461085d565b6008546102d3565b61033461039e366004612f8f565b610882565b6103346103b136600461300e565b6108d7565b6102d36103c4366004612f65565b610962565b6103097f000000000000000000000000000000000000000000000000000000000000000081565b6102d37f000000000000000000000000000000000000000000000000000000000000000081565b61033461042536600461304a565b6109c7565b610432600381565b60405161ffff90911681526020016102a3565b61033461045336600461300e565b610c1a565b610334610466366004613072565b610c35565b610334610d40565b6102d3610481366004612f30565b610d5c565b6104c6610494366004612f30565b6011602052600090815260409020805460029091015464ffffffffff821691600160281b900462ffffff169060ff1683565b6040805164ffffffffff909416845262ffffff90921660208401521515908201526060016102a3565b601c5461029790610100900460ff1681565b610509600181565b60405163ffffffff90911681526020016102a3565b61033461052c3660046130f7565b610db5565b61030961053f366004612f30565b611044565b601c546102979060ff1681565b61056461055f366004613072565b61104f565b6040516102a3929190613113565b6102d361058036600461312e565b611098565b6103346110e0565b6105b47f000000000000000000000000000000000000000000000000000000000000000081565b60405160ff90911681526020016102a3565b600b546001600160a01b0316610309565b6103346105e536600461312e565b61118e565b6102e9611280565b600d54610309906001600160a01b031681565b610334610613366004613157565b61128f565b6103346106263660046131a4565b61129a565b60135460145460155460165460175460185460195461064d9695949392919087565b604080519788526020880196909652948601939093526060850191909152608084015260a083015260c082015260e0016102a3565b6102e9610690366004612f30565b6112b1565b6102d3600e5481565b610509620493e081565b6103346106b6366004612f30565b611326565b6107116106c9366004613280565b601a6020526000908152604090206001015463ffffffff808216916401000000008104821691600160401b8204811691600160601b810490911690600160801b900460ff1685565b6040805163ffffffff96871681529486166020860152928516928401929092529092166060820152901515608082015260a0016102a3565b61033461075736600461312e565b6116b7565b61029761076a36600461329b565b611742565b61033461077d36600461312e565b611770565b600061078d82611781565b92915050565b6060600080546107a2906132ce565b80601f01602080910402602001604051908101604052809291908181526020018280546107ce906132ce565b801561081b5780601f106107f05761010080835404028352916020019161081b565b820191906000526020600020905b8154815290600101906020018083116107fe57829003601f168201915b5050505050905090565b6000610830826117a6565b506000828152600460205260409020546001600160a01b031661078d565b6108598282336117df565b5050565b6108656117ec565b601c805461ff001981166101009182900460ff1615909102179055565b600d546001600160a01b031633146108c757600d5460405163073e64fd60e21b81523360048201526001600160a01b0390911660248201526044015b60405180910390fd5b6108d2838383611841565b505050565b6001600160a01b03821661090157604051633250574960e11b8152600060048201526024016108be565b600061090e838333611995565b9050836001600160a01b0316816001600160a01b03161461095c576040516364283d7b60e01b81526001600160a01b03808616600483015260248201849052821660448201526064016108be565b50505050565b600061096d83611098565b821061099e5760405163295f44f760e21b81526001600160a01b0384166004820152602481018390526044016108be565b506001600160a01b03919091166000908152600660209081526040808320938352929052205490565b6109cf6119aa565b601c54610100900460ff16156109f857604051634cb3183d60e01b815260040160405180910390fd5b600e544210610a1a5760405163ecdd1c2960e01b815260040160405180910390fd5b60005b6004811015610a77576018828260048110610a3a57610a3a613302565b602002016020810190610a4d9190613318565b60ff161115610a6f576040516308214f1760e21b815260040160405180910390fd5b600101610a1d565b50610acd6001600160a01b037f00000000000000000000000000000000000000000000000000000000000000001633307f00000000000000000000000000000000000000000000000000000000000000006119d4565b6010805460009182610ade83613351565b919050559050610aee3382611a3b565b604080516080808201835264ffffffffff42168252600f5462ffffff166020830152825180820184529192830191908590600490839083908082843760009201829052509284525050602091820181905283815260118252604090819020835181549385015162ffffff16600160281b0267ffffffffffffffff1990941664ffffffffff90911617929092178255820151610b8f9060018301906004612dd3565b50606091909101516002909101805460ff1916911515919091179055600f805462ffffff90811660009081526012602090815260408083208054600181018255908452918320909101859055925492519290911691839133917f12eee7f99ea5c9c160467d40a467f18c62607b8d43607d0840f168cc2b55b2e49190a450610c176001600a55565b50565b6108d28383836040518060200160405280600081525061129a565b601c5460ff161580610c4e5750601c54610100900460ff165b15610c6c5760405163fc5eaefd60e01b815260040160405180910390fd5b600e54421015610c8f5760405163085de62560e01b815260040160405180910390fd5b600f5462ffffff16610ca081611a55565b610ca981611c29565b600f805460019190600090610cc490849062ffffff1661336a565b92506101000a81548162ffffff021916908362ffffff16021790555062015180600e6000828254610cf5919061338d565b9091555050600f54600e5460405190815262ffffff909116907f70aba4eecfb00a70e5aae193521bc256fc3cbf7a91479f6bcda4b5a82f9869619060200160405180910390a2505050565b610d486117ec565b601c805460ff19811660ff90911615179055565b6000610d6760085490565b8210610d905760405163295f44f760e21b815260006004820152602481018390526044016108be565b60088281548110610da357610da3613302565b90600052602060002001549050919050565b801580610dc3575061012c81115b15610dcd575061012c5b62ffffff82166000908152601a602052604090206001810154600160801b900460ff1615610e0e57604051631454e6c760e01b815260040160405180910390fd5b62ffffff831660009081526012602052604081206001830154909163ffffffff90911690610e3c858361338d565b8354909150811115610e4c575081545b815b81811015610e8c57610e7c848281548110610e6b57610e6b613302565b906000526020600020015486611da6565b610e8581613351565b9050610e4e565b5060018401805463ffffffff191663ffffffff8316179055604080518381526020810183905262ffffff8816917f95f2647279697d92fbfbd24a0e306c284798157a253e2126ebf1451515f6fbd9910160405180910390a28254810361103c5760018401805460ff60801b1916600160801b17908190556040805163ffffffff640100000000840481168252600160401b840481166020830152600160601b9093049092169082015262ffffff8716907f9094b2b67842abb4391fc6c54030e03d20642491efeb4eda225641eac3b101279060600160405180910390a26001840154640100000000900463ffffffff1615801590610f8b575060175415155b15610fb05760175460138054600090610fa590849061338d565b909155505060006017555b6001840154600160401b900463ffffffff1615801590610fd1575060185415155b15610ff65760185460148054600090610feb90849061338d565b909155505060006018555b6001840154600160601b900463ffffffff1615801590611017575060195415155b1561103c576019546015805460009061103190849061338d565b909155505060006019555b505050505050565b600061078d826117a6565b601c5460009060609060ff16801561106f5750601c54610100900460ff16155b801561107d5750600e544210155b91506040518060200160405280600081525090509250929050565b60006001600160a01b0382166110c4576040516322718ad960e21b8152600060048201526024016108be565b506001600160a01b031660009081526003602052604090205490565b600c546001600160a01b031633146111335760405162461bcd60e51b815260206004820152601660248201527526bab9ba10313290383937b837b9b2b21037bbb732b960511b60448201526064016108be565b600b80546001600160a01b031980821633908117909355600c805490911690556040516001600160a01b03909116919082907f8be0079c531659141344cd1fd0a4f28419497f9722a3daafe3b4186f6b6457e090600090a350565b600b546001600160a01b031633148015906111b45750600d546001600160a01b03163314155b1561120557336111cc600b546001600160a01b031690565b600d5460405163061db9c160e01b81526001600160a01b03938416600482015291831660248301529190911660448201526064016108be565b6001600160a01b03811661122c5760405163d92e233d60e01b815260040160405180910390fd5b600d80546001600160a01b0319166001600160a01b0383169081179091556040519081527fd1a6a14209a385a964d036e404cb5cfb71f4000cdb03c9366292430787261be69060200160405180910390a150565b6060600180546107a2906132ce565b61085933838361202d565b6112a58484846108d7565b61095c848484846120cc565b60606112bc826117a6565b5060006112d460408051602081019091526000815290565b905060008151116112f4576040518060200160405280600081525061131f565b806112fe846121f5565b60405160200161130f9291906133a0565b6040516020818303038152906040525b9392505050565b61132e6119aa565b6000818152601160205260409020600281015460ff161561136257604051630c8d9eab60e31b815260040160405180910390fd5b3361136c83611044565b6001600160a01b031614611393576040516330c6392160e11b815260040160405180910390fd5b8054600160281b900462ffffff166000908152601a602052604090206001810154600160801b900460ff166113fa5760405162461bcd60e51b815260206004820152600d60248201526c646179206e6f7420726561647960981b60448201526064016108be565b60408051608081019182905260009161149c919060018601906004908286855b825461010083900a900460ff1681526020600192830181810494850194909303909202910180841161141a5750506040805160808101918290529450889350600492509050826000855b825461010083900a900460ff168152602060019283018181049485019490930390920291018084116114645790505050505050612288565b905060008160ff1660011480156114c457506001830154640100000000900463ffffffff1615155b1561150b5760018301546013546114e991640100000000900463ffffffff16906133e5565b9050806013600001600082825461150091906133f9565b909155506116129050565b8160ff16600214801561152e57506001830154600160401b900463ffffffff1615155b1561156957600183015460145461155291600160401b900463ffffffff16906133e5565b9050806013600101600082825461150091906133f9565b8160ff16600314801561158c57506001830154600160601b900463ffffffff1615155b156115c75760018301546015546115b091600160601b900463ffffffff16906133e5565b9050806013600201600082825461150091906133f9565b8160ff166004036115f957507f0000000000000000000000000000000000000000000000000000000000000000611612565b6040516330c6392160e11b815260040160405180910390fd5b60028401805460ff191660011790556116556001600160a01b037f000000000000000000000000000000000000000000000000000000000000000016338361242d565b83546040805133815260ff851660208201529081018390528691600160281b900462ffffff16907ffa7d7e6fad77bb2eb32e03cd3103bcb3df591ea9338a7395a149d9c180a170c79060600160405180910390a350505050610c176001600a55565b6116bf6117ec565b6016805460009091556116fc6001600160a01b037f000000000000000000000000000000000000000000000000000000000000000016838361242d565b604080516001600160a01b0384168152602081018390527fc32a4a91927ebe92c55e1f8cd216c8a1d74e53b9b0a82b6b982e5dd3ac71af03910160405180910390a15050565b6001600160a01b03918216600090815260056020908152604080832093909416825291909152205460ff1690565b6117786117ec565b610c178161245e565b60006001600160e01b0319821663780e9d6360e01b148061078d575061078d82612508565b6000818152600260205260408120546001600160a01b03168061078d57604051637e27328960e01b8152600481018490526024016108be565b6108d28383836001612558565b600b546001600160a01b0316331461183f5760405162461bcd60e51b815260206004820152601660248201527527b7363c9031b0b63630b1363290313c9037bbb732b960511b60448201526064016108be565b565b6000838152601b602090815260408083205462ffffff16808452601a909252822090918484828161187457611874613302565b90506020020135905060198161188a919061340c565b825460ff191660ff9190911617825560081c6118a760198261340c565b825460ff919091166101000261ff001990911617825560081c6118cb60198261340c565b825460ff91909116620100000262ff00001990911617825560081c6118f160198261340c565b825463ff000000198116630100000060ff9384160290811780865560018601805470ff000000000000000000000000ffffffff1916905560408051928516938516939093178252600881901c84166020830152601081901c84168284015260181c90921660608301525162ffffff8516917f9dedf238b51cb2f65e712b6f39ab9f3e89a6268d251b582c9ceec37e6ddfba63919081900360800190a2505050505050565b60006119a284848461265e565b949350505050565b6002600a54036119cd57604051633ee5aeb560e01b815260040160405180910390fd5b6002600a55565b6040516001600160a01b03848116602483015283811660448301526064820183905261095c9186918216906323b872dd906084015b604051602081830303815290604052915060e01b6020820180516001600160e01b03838183161783525050505061272b565b61085982826040518060200160405280600081525061278e565b62ffffff811660009081526012602052604081205490819003611a76575050565b6000611aa27f000000000000000000000000000000000000000000000000000000000000000083613420565b905060006064611ab3605084613420565b611abd91906133e5565b905060006064611ace601485613420565b611ad891906133e5565b90506064611ae7605084613420565b611af191906133e5565b60138054600090611b0390849061338d565b9091555060649050611b16600a84613420565b611b2091906133e5565b60148054600090611b3290849061338d565b9091555060649050611b45600584613420565b611b4f91906133e5565b60158054600090611b6190849061338d565b9091555060649050611b74600584613420565b611b7e91906133e5565b60168054600090611b9090849061338d565b9091555060649050611ba3605083613420565b611bad91906133e5565b60178054600090611bbf90849061338d565b9091555060649050611bd2600a83613420565b611bdc91906133e5565b60188054600090611bee90849061338d565b9091555060649050611c01600a83613420565b611c0b91906133e5565b60198054600090611c1d90849061338d565b90915550505050505050565b60007f00000000000000000000000000000000000000000000000000000000000000006001600160a01b0316639b1c385e6040518060c001604052807f000000000000000000000000000000000000000000000000000000000000000081526020017f00000000000000000000000000000000000000000000000000000000000000008152602001600361ffff168152602001620493e063ffffffff168152602001600163ffffffff168152602001611cf26040518060200160405280600015158152506127a5565b8152506040518263ffffffff1660e01b8152600401611d119190613437565b6020604051808303816000875af1158015611d30573d6000803e3d6000fd5b505050506040513d601f19601f82011682018060405250810190611d549190613494565b6000818152601b6020526040808220805462ffffff191662ffffff871690811790915590519293509183917f6d9c99357d359ebc464c51fb3162f671b2bd8fecd626dd9f4f5e329076aa00f291a35050565b6000828152601160205260408082208151608081019283905290929184906004908285855b825461010083900a900460ff16815260206001928301818104948501949093039092029101808411611dcb579050505050505090506000805b6004811015611e6657828160048110611e1f57611e1f613302565b602002015160ff16846001018260048110611e3c57611e3c613302565b602081049091015460ff601f9092166101000a90041603611e5e578160010191505b600101611e04565b508060ff16600403611eb757600184018054600490611e9290640100000000900463ffffffff166134ad565b91906101000a81548163ffffffff021916908363ffffffff1602179055505050505050565b8060ff16600303611ee157600184018054600c90611e9290600160601b900463ffffffff166134ad565b611ee9612e66565b6000805b6004811015611f495782866001018260048110611f0c57611f0c613302565b602081049091015460ff601f9092166101000a90041660198110611f3257611f32613302565b60200201805160ff60019182011690915201611eed565b5060005b6004811015611fda57600083868360048110611f6b57611f6b613302565b602002015160ff1660198110611f8357611f83613302565b602002015160ff161115611fd25781600101915082858260048110611faa57611faa613302565b602002015160ff1660198110611fc257611fc2613302565b6020020180516000190160ff1690525b600101611f4d565b508060ff166004036120245760018601805460089061200590600160401b900463ffffffff166134ad565b91906101000a81548163ffffffff021916908363ffffffff1602179055505b50505050505050565b6001600160a01b03821661205f57604051630b61174360e31b81526001600160a01b03831660048201526024016108be565b6001600160a01b03838116600081815260056020908152604080832094871680845294825291829020805460ff191686151590811790915591519182527f17307eab39ab6107e8899845ad3d59bd9653f200f220920489ca2b5937696c31910160405180910390a3505050565b6001600160a01b0383163b1561095c57604051630a85bd0160e11b81526001600160a01b0384169063150b7a029061210e9033908890879087906004016134d0565b6020604051808303816000875af1925050508015612149575060408051601f3d908101601f1916820190925261214691810190613503565b60015b6121b2573d808015612177576040519150601f19603f3d011682016040523d82523d6000602084013e61217c565b606091505b5080516000036121aa57604051633250574960e11b81526001600160a01b03851660048201526024016108be565b805181602001fd5b6001600160e01b03198116630a85bd0160e11b146121ee57604051633250574960e11b81526001600160a01b03851660048201526024016108be565b5050505050565b6060600061220283612816565b600101905060008167ffffffffffffffff8111156122225761222261318e565b6040519080825280601f01601f19166020018201604052801561224c576020820181803683370190505b5090508181016020015b600019016f181899199a1a9b1b9c1cb0b131b232b360811b600a86061a8153600a850494508461225657509392505050565b60008060005b60048110156122df578381600481106122a9576122a9613302565b602002015160ff168582600481106122c3576122c3613302565b602002015160ff16036122d7578160010191505b60010161228e565b508060ff166004036122f557600191505061078d565b8060ff1660030361230a57600391505061078d565b612312612e66565b6000805b6004811015612361578287826004811061233257612332613302565b602002015160ff166019811061234a5761234a613302565b60200201805160ff60019182011690915201612316565b5060005b60048110156123f25760008387836004811061238357612383613302565b602002015160ff166019811061239b5761239b613302565b602002015160ff1611156123ea57816001019150828682600481106123c2576123c2613302565b602002015160ff16601981106123da576123da613302565b6020020180516000190160ff1690525b600101612365565b508060ff1660040361240a576002935050505061078d565b8060ff16600303612421576004935050505061078d565b50600095945050505050565b6040516001600160a01b038381166024830152604482018390526108d291859182169063a9059cbb90606401611a09565b336001600160a01b038216036124b65760405162461bcd60e51b815260206004820152601760248201527f43616e6e6f74207472616e7366657220746f2073656c6600000000000000000060448201526064016108be565b600c80546001600160a01b0319166001600160a01b03838116918217909255600b54604051919216907fed8889f560326eb138920d842192f0eb3dd22b4f139c87a2c57538e05bae127890600090a350565b60006001600160e01b031982166380ac58cd60e01b148061253957506001600160e01b03198216635b5e139f60e01b145b8061078d57506301ffc9a760e01b6001600160e01b031983161461078d565b808061256c57506001600160a01b03821615155b1561262e57600061257c846117a6565b90506001600160a01b038316158015906125a85750826001600160a01b0316816001600160a01b031614155b80156125bb57506125b98184611742565b155b156125e45760405163a9fbf51f60e01b81526001600160a01b03841660048201526024016108be565b811561262c5783856001600160a01b0316826001600160a01b03167f8c5be1e5ebec7d5bd14f71427d1e84f3dd0314c0f7b2291e5b200ac8c7c3b92560405160405180910390a45b505b5050600090815260046020526040902080546001600160a01b0319166001600160a01b0392909216919091179055565b60008061266c8585856128ee565b90506001600160a01b0381166126c9576126c484600880546000838152600960205260408120829055600182018355919091527ff3f7a9fe364faab93b216da50a3214154f22a0a2b415b23a84c8169e8b636ee30155565b6126ec565b846001600160a01b0316816001600160a01b0316146126ec576126ec81856129e7565b6001600160a01b0385166127085761270384612a78565b6119a2565b846001600160a01b0316816001600160a01b0316146119a2576119a28585612b27565b60006127406001600160a01b03841683612b77565b905080516000141580156127655750808060200190518101906127639190613520565b155b156108d257604051635274afe760e01b81526001600160a01b03841660048201526024016108be565b6127988383612b85565b6108d260008484846120cc565b60607f92fd13387c7fe7befbc38d303d6468778fb9731bc4583f17d92989c6fcfdeaaa826040516024016127de91511515815260200190565b60408051601f198184030181529190526020810180516001600160e01b03166001600160e01b03199093169290921790915292915050565b60008072184f03e93ff9f4daa797ed6e38ed64bf6a1f0160401b83106128555772184f03e93ff9f4daa797ed6e38ed64bf6a1f0160401b830492506040015b6d04ee2d6d415b85acef81000000008310612881576d04ee2d6d415b85acef8100000000830492506020015b662386f26fc10000831061289f57662386f26fc10000830492506010015b6305f5e10083106128b7576305f5e100830492506008015b61271083106128cb57612710830492506004015b606483106128dd576064830492506002015b600a831061078d5760010192915050565b6000828152600260205260408120546001600160a01b039081169083161561291b5761291b818486612bea565b6001600160a01b0381161561295957612938600085600080612558565b6001600160a01b038116600090815260036020526040902080546000190190555b6001600160a01b03851615612988576001600160a01b0385166000908152600360205260409020805460010190555b60008481526002602052604080822080546001600160a01b0319166001600160a01b0389811691821790925591518793918516917fddf252ad1be2c89b69c2b068fc378daa952ba7f163c4a11628f55a4df523b3ef91a4949350505050565b60006129f283611098565b600083815260076020526040902054909150808214612a45576001600160a01b03841660009081526006602090815260408083208584528252808320548484528184208190558352600790915290208190555b5060009182526007602090815260408084208490556001600160a01b039094168352600681528383209183525290812055565b600854600090612a8a906001906133f9565b60008381526009602052604081205460088054939450909284908110612ab257612ab2613302565b906000526020600020015490508060088381548110612ad357612ad3613302565b6000918252602080832090910192909255828152600990915260408082208490558582528120556008805480612b0b57612b0b61353d565b6001900381819060005260206000200160009055905550505050565b60006001612b3484611098565b612b3e91906133f9565b6001600160a01b039093166000908152600660209081526040808320868452825280832085905593825260079052919091209190915550565b606061131f83836000612c4e565b6001600160a01b038216612baf57604051633250574960e11b8152600060048201526024016108be565b6000612bbd83836000611995565b90506001600160a01b038116156108d2576040516339e3563760e11b8152600060048201526024016108be565b612bf5838383612ceb565b6108d2576001600160a01b038316612c2357604051637e27328960e01b8152600481018290526024016108be565b60405163177e802f60e01b81526001600160a01b0383166004820152602481018290526044016108be565b606081471015612c735760405163cd78605960e01b81523060048201526024016108be565b600080856001600160a01b03168486604051612c8f9190613553565b60006040518083038185875af1925050503d8060008114612ccc576040519150601f19603f3d011682016040523d82523d6000602084013e612cd1565b606091505b5091509150612ce1868383612d4e565b9695505050505050565b60006001600160a01b038316158015906119a25750826001600160a01b0316846001600160a01b03161480612d255750612d258484611742565b806119a25750506000908152600460205260409020546001600160a01b03908116911614919050565b606082612d6357612d5e82612daa565b61131f565b8151158015612d7a57506001600160a01b0384163b155b15612da357604051639996b31560e01b81526001600160a01b03851660048201526024016108be565b508061131f565b805115612dba5780518082602001fd5b604051630a12f52160e11b815260040160405180910390fd5b600183019183908215612e565791602002820160005b83821115612e2757835183826101000a81548160ff021916908360ff1602179055509260200192600101602081600001049283019260010302612de9565b8015612e545782816101000a81549060ff0219169055600101602081600001049283019260010302612e27565b505b50612e62929150612e85565b5090565b6040518061032001604052806019906020820280368337509192915050565b5b80821115612e625760008155600101612e86565b6001600160e01b031981168114610c1757600080fd5b600060208284031215612ec257600080fd5b813561131f81612e9a565b60005b83811015612ee8578181015183820152602001612ed0565b50506000910152565b60008151808452612f09816020860160208601612ecd565b601f01601f19169290920160200192915050565b60208152600061131f6020830184612ef1565b600060208284031215612f4257600080fd5b5035919050565b80356001600160a01b0381168114612f6057600080fd5b919050565b60008060408385031215612f7857600080fd5b612f8183612f49565b946020939093013593505050565b600080600060408486031215612fa457600080fd5b83359250602084013567ffffffffffffffff80821115612fc357600080fd5b818601915086601f830112612fd757600080fd5b813581811115612fe657600080fd5b8760208260051b8501011115612ffb57600080fd5b6020830194508093505050509250925092565b60008060006060848603121561302357600080fd5b61302c84612f49565b925061303a60208501612f49565b9150604084013590509250925092565b60006080828403121561305c57600080fd5b8260808301111561306c57600080fd5b50919050565b6000806020838503121561308557600080fd5b823567ffffffffffffffff8082111561309d57600080fd5b818501915085601f8301126130b157600080fd5b8135818111156130c057600080fd5b8660208285010111156130d257600080fd5b60209290920196919550909350505050565b803562ffffff81168114612f6057600080fd5b6000806040838503121561310a57600080fd5b612f81836130e4565b82151581526040602082015260006119a26040830184612ef1565b60006020828403121561314057600080fd5b61131f82612f49565b8015158114610c1757600080fd5b6000806040838503121561316a57600080fd5b61317383612f49565b9150602083013561318381613149565b809150509250929050565b634e487b7160e01b600052604160045260246000fd5b600080600080608085870312156131ba57600080fd5b6131c385612f49565b93506131d160208601612f49565b925060408501359150606085013567ffffffffffffffff808211156131f557600080fd5b818701915087601f83011261320957600080fd5b81358181111561321b5761321b61318e565b604051601f8201601f19908116603f011681019083821181831017156132435761324361318e565b816040528281528a602084870101111561325c57600080fd5b82602086016020830137600060208483010152809550505050505092959194509250565b60006020828403121561329257600080fd5b61131f826130e4565b600080604083850312156132ae57600080fd5b6132b783612f49565b91506132c560208401612f49565b90509250929050565b600181811c908216806132e257607f821691505b60208210810361306c57634e487b7160e01b600052602260045260246000fd5b634e487b7160e01b600052603260045260246000fd5b60006020828403121561332a57600080fd5b813560ff8116811461131f57600080fd5b634e487b7160e01b600052601160045260246000fd5b6000600182016133635761336361333b565b5060010190565b62ffffff8181168382160190808211156133865761338661333b565b5092915050565b8082018082111561078d5761078d61333b565b600083516133b2818460208801612ecd565b8351908301906133c6818360208801612ecd565b01949350505050565b634e487b7160e01b600052601260045260246000fd5b6000826133f4576133f46133cf565b500490565b8181038181111561078d5761078d61333b565b60008261341b5761341b6133cf565b500690565b808202811582820484141761078d5761078d61333b565b60208152815160208201526020820151604082015261ffff60408301511660608201526000606083015163ffffffff80821660808501528060808601511660a0850152505060a083015160c0808401526119a260e0840182612ef1565b6000602082840312156134a657600080fd5b5051919050565b600063ffffffff8083168181036134c6576134c661333b565b6001019392505050565b6001600160a01b0385811682528416602082015260408101839052608060608201819052600090612ce190830184612ef1565b60006020828403121561351557600080fd5b815161131f81612e9a565b60006020828403121561353257600080fd5b815161131f81613149565b634e487b7160e01b600052603160045260246000fd5b60008251613565818460208701612ecd565b919091019291505056fea26469706673582212208c629a803ec22170eb012cce169bdf1476d52cb0077b3860a447ef6df02dd48364736f6c63430008140033","opcodes":"PUSH2 0x140 PUSH1 0x40 MSTORE PUSH1 0xF DUP1 SLOAD PUSH3 0xFFFFFF NOT AND PUSH1 0x1 SWAP1 DUP2 OR SWAP1 SWAP2 SSTORE PUSH1 0x10 DUP2 SWAP1 SSTORE PUSH1 0x1C DUP1 SLOAD PUSH2 0xFFFF NOT AND SWAP1 SWAP2 OR SWAP1 SSTORE CALLVALUE DUP1 ISZERO PUSH3 0x37 JUMPI PUSH1 0x0 DUP1 REVERT JUMPDEST POP PUSH1 0x40 MLOAD PUSH3 0x3C1D CODESIZE SUB DUP1 PUSH3 0x3C1D DUP4 CODECOPY DUP2 ADD PUSH1 0x40 DUP2 SWAP1 MSTORE PUSH3 0x5A SWAP2 PUSH3 0x3A9 JUMP JUMPDEST DUP3 CALLER DUP1 PUSH1 0x0 PUSH1 0x40 MLOAD DUP1 PUSH1 0x40 ADD PUSH1 0x40 MSTORE DUP1 PUSH1 0x13 DUP2 MSTORE PUSH1 0x20 ADD PUSH32 0x4C6F74746F4D6F6A69205469636B657420563400000000000000000000000000 DUP2 MSTORE POP PUSH1 0x40 MLOAD DUP1 PUSH1 0x40 ADD PUSH1 0x40 MSTORE DUP1 PUSH1 0x5 DUP2 MSTORE PUSH1 0x20 ADD PUSH5 0x131352958D PUSH1 0xDA SHL DUP2 MSTORE POP DUP2 PUSH1 0x0 SWAP1 DUP2 PUSH3 0xC4 SWAP2 SWAP1 PUSH3 0x4BB JUMP JUMPDEST POP PUSH1 0x1 PUSH3 0xD3 DUP3 DUP3 PUSH3 0x4BB JUMP JUMPDEST POP POP PUSH1 0x1 PUSH1 0xA SSTORE POP PUSH1 0x1 PUSH1 0x1 PUSH1 0xA0 SHL SUB DUP3 AND PUSH3 0x137 JUMPI PUSH1 0x40 MLOAD PUSH3 0x461BCD PUSH1 0xE5 SHL DUP2 MSTORE PUSH1 0x20 PUSH1 0x4 DUP3 ADD MSTORE PUSH1 0x18 PUSH1 0x24 DUP3 ADD MSTORE PUSH32 0x43616E6E6F7420736574206F776E657220746F207A65726F0000000000000000 PUSH1 0x44 DUP3 ADD MSTORE PUSH1 0x64 ADD JUMPDEST PUSH1 0x40 MLOAD DUP1 SWAP2 SUB SWAP1 REVERT JUMPDEST PUSH1 0xB DUP1 SLOAD PUSH1 0x1 PUSH1 0x1 PUSH1 0xA0 SHL SUB NOT AND PUSH1 0x1 PUSH1 0x1 PUSH1 0xA0 SHL SUB DUP5 DUP2 AND SWAP2 SWAP1 SWAP2 OR SWAP1 SWAP2 SSTORE DUP2 AND ISZERO PUSH3 0x16A JUMPI PUSH3 0x16A DUP2 PUSH3 0x278 JUMP JUMPDEST POP POP POP PUSH1 0x1 PUSH1 0x1 PUSH1 0xA0 SHL SUB DUP2 AND PUSH3 0x195 JUMPI PUSH1 0x40 MLOAD PUSH4 0xD92E233D PUSH1 0xE0 SHL DUP2 MSTORE PUSH1 0x4 ADD PUSH1 0x40 MLOAD DUP1 SWAP2 SUB SWAP1 REVERT JUMPDEST PUSH1 0xD DUP1 SLOAD PUSH1 0x1 PUSH1 0x1 PUSH1 0xA0 SHL SUB NOT AND PUSH1 0x1 PUSH1 0x1 PUSH1 0xA0 SHL SUB SWAP3 SWAP1 SWAP3 AND SWAP2 SWAP1 SWAP2 OR SWAP1 SSTORE PUSH1 0x18 PUSH1 0xFF DUP8 AND LT PUSH3 0x1F4 JUMPI PUSH1 0x40 MLOAD PUSH3 0x461BCD PUSH1 0xE5 SHL DUP2 MSTORE PUSH1 0x20 PUSH1 0x4 DUP3 ADD MSTORE PUSH1 0x7 PUSH1 0x24 DUP3 ADD MSTORE PUSH7 0x1A1BDD5C8F0C8D PUSH1 0xCA SHL PUSH1 0x44 DUP3 ADD MSTORE PUSH1 0x64 ADD PUSH3 0x12E JUMP JUMPDEST PUSH1 0xFF DUP7 AND PUSH1 0x80 MSTORE PUSH1 0x1 PUSH1 0x1 PUSH1 0xA0 SHL SUB DUP1 DUP7 AND PUSH1 0xC0 MSTORE PUSH1 0xA0 DUP6 SWAP1 MSTORE DUP4 AND PUSH1 0xE0 MSTORE PUSH2 0x100 DUP3 SWAP1 MSTORE PUSH2 0x120 DUP2 SWAP1 MSTORE PUSH3 0x22B TIMESTAMP DUP8 PUSH3 0x324 JUMP JUMPDEST PUSH1 0xE DUP2 SWAP1 SSTORE PUSH1 0xF SLOAD PUSH1 0x40 MLOAD SWAP2 DUP3 MSTORE PUSH3 0xFFFFFF AND SWAP1 PUSH32 0x70ABA4EECFB00A70E5AAE193521BC256FC3CBF7A91479F6BCDA4B5A82F986961 SWAP1 PUSH1 0x20 ADD PUSH1 0x40 MLOAD DUP1 SWAP2 SUB SWAP1 LOG2 POP POP POP POP POP POP PUSH3 0x5F0 JUMP JUMPDEST CALLER PUSH1 0x1 PUSH1 0x1 PUSH1 0xA0 SHL SUB DUP3 AND SUB PUSH3 0x2D2 JUMPI PUSH1 0x40 MLOAD PUSH3 0x461BCD PUSH1 0xE5 SHL DUP2 MSTORE PUSH1 0x20 PUSH1 0x4 DUP3 ADD MSTORE PUSH1 0x17 PUSH1 0x24 DUP3 ADD MSTORE PUSH32 0x43616E6E6F74207472616E7366657220746F2073656C66000000000000000000 PUSH1 0x44 DUP3 ADD MSTORE PUSH1 0x64 ADD PUSH3 0x12E JUMP JUMPDEST PUSH1 0xC DUP1 SLOAD PUSH1 0x1 PUSH1 0x1 PUSH1 0xA0 SHL SUB NOT AND PUSH1 0x1 PUSH1 0x1 PUSH1 0xA0 SHL SUB DUP4 DUP2 AND SWAP2 DUP3 OR SWAP1 SWAP3 SSTORE PUSH1 0xB SLOAD PUSH1 0x40 MLOAD SWAP2 SWAP3 AND SWAP1 PUSH32 0xED8889F560326EB138920D842192F0EB3DD22B4F139C87A2C57538E05BAE1278 SWAP1 PUSH1 0x0 SWAP1 LOG3 POP JUMP JUMPDEST PUSH1 0x0 DUP1 PUSH3 0x336 PUSH3 0x15180 DUP6 PUSH3 0x59D JUMP JUMPDEST PUSH3 0x345 SWAP1 PUSH3 0x15180 PUSH3 0x5C0 JUMP JUMPDEST SWAP1 POP PUSH1 0x0 PUSH3 0x35A PUSH1 0xFF DUP6 AND PUSH2 0xE10 PUSH3 0x5C0 JUMP JUMPDEST PUSH3 0x366 SWAP1 DUP4 PUSH3 0x5DA JUMP JUMPDEST SWAP1 POP DUP5 DUP2 GT PUSH3 0x382 JUMPI PUSH3 0x37F PUSH3 0x15180 DUP3 PUSH3 0x5DA JUMP JUMPDEST SWAP1 POP JUMPDEST SWAP2 POP POP JUMPDEST SWAP3 SWAP2 POP POP JUMP JUMPDEST DUP1 MLOAD PUSH1 0x1 PUSH1 0x1 PUSH1 0xA0 SHL SUB DUP2 AND DUP2 EQ PUSH3 0x3A4 JUMPI PUSH1 0x0 DUP1 REVERT JUMPDEST SWAP2 SWAP1 POP JUMP JUMPDEST PUSH1 0x0 DUP1 PUSH1 0x0 DUP1 PUSH1 0x0 DUP1 PUSH1 0xC0 DUP8 DUP10 SUB SLT ISZERO PUSH3 0x3C3 JUMPI PUSH1 0x0 DUP1 REVERT JUMPDEST DUP7 MLOAD PUSH1 0xFF DUP2 AND DUP2 EQ PUSH3 0x3D5 JUMPI PUSH1 0x0 DUP1 REVERT JUMPDEST SWAP6 POP PUSH3 0x3E5 PUSH1 0x20 DUP9 ADD PUSH3 0x38C JUMP JUMPDEST SWAP5 POP PUSH1 0x40 DUP8 ADD MLOAD SWAP4 POP PUSH3 0x3FC PUSH1 0x60 DUP9 ADD PUSH3 0x38C JUMP JUMPDEST SWAP3 POP PUSH1 0x80 DUP8 ADD MLOAD SWAP2 POP PUSH1 0xA0 DUP8 ADD MLOAD SWAP1 POP SWAP3 SWAP6 POP SWAP3 SWAP6 POP SWAP3 SWAP6 JUMP JUMPDEST PUSH4 0x4E487B71 PUSH1 0xE0 SHL PUSH1 0x0 MSTORE PUSH1 0x41 PUSH1 0x4 MSTORE PUSH1 0x24 PUSH1 0x0 REVERT JUMPDEST PUSH1 0x1 DUP2 DUP2 SHR SWAP1 DUP3 AND DUP1 PUSH3 0x441 JUMPI PUSH1 0x7F DUP3 AND SWAP2 POP JUMPDEST PUSH1 0x20 DUP3 LT DUP2 SUB PUSH3 0x462 JUMPI PUSH4 0x4E487B71 PUSH1 0xE0 SHL PUSH1 0x0 MSTORE PUSH1 0x22 PUSH1 0x4 MSTORE PUSH1 0x24 PUSH1 0x0 REVERT JUMPDEST POP SWAP2 SWAP1 POP JUMP JUMPDEST PUSH1 0x1F DUP3 GT ISZERO PUSH3 0x4B6 JUMPI PUSH1 0x0 DUP2 DUP2 MSTORE PUSH1 0x20 DUP2 KECCAK256 PUSH1 0x1F DUP6 ADD PUSH1 0x5 SHR DUP2 ADD PUSH1 0x20 DUP7 LT ISZERO PUSH3 0x491 JUMPI POP DUP1 JUMPDEST PUSH1 0x1F DUP6 ADD PUSH1 0x5 SHR DUP3 ADD SWAP2 POP JUMPDEST DUP2 DUP2 LT ISZERO PUSH3 0x4B2 JUMPI DUP3 DUP2 SSTORE PUSH1 0x1 ADD PUSH3 0x49D JUMP JUMPDEST POP POP POP JUMPDEST POP POP POP JUMP JUMPDEST DUP2 MLOAD PUSH1 0x1 PUSH1 0x1 PUSH1 0x40 SHL SUB DUP2 GT ISZERO PUSH3 0x4D7 JUMPI PUSH3 0x4D7 PUSH3 0x416 JUMP JUMPDEST PUSH3 0x4EF DUP2 PUSH3 0x4E8 DUP5 SLOAD PUSH3 0x42C JUMP JUMPDEST DUP5 PUSH3 0x468 JUMP JUMPDEST PUSH1 0x20 DUP1 PUSH1 0x1F DUP4 GT PUSH1 0x1 DUP2 EQ PUSH3 0x527 JUMPI PUSH1 0x0 DUP5 ISZERO PUSH3 0x50E JUMPI POP DUP6 DUP4 ADD MLOAD JUMPDEST PUSH1 0x0 NOT PUSH1 0x3 DUP7 SWAP1 SHL SHR NOT AND PUSH1 0x1 DUP6 SWAP1 SHL OR DUP6 SSTORE PUSH3 0x4B2 JUMP JUMPDEST PUSH1 0x0 DUP6 DUP2 MSTORE PUSH1 0x20 DUP2 KECCAK256 PUSH1 0x1F NOT DUP7 AND SWAP2 JUMPDEST DUP3 DUP2 LT ISZERO PUSH3 0x558 JUMPI DUP9 DUP7 ADD MLOAD DUP3 SSTORE SWAP5 DUP5 ADD SWAP5 PUSH1 0x1 SWAP1 SWAP2 ADD SWAP1 DUP5 ADD PUSH3 0x537 JUMP JUMPDEST POP DUP6 DUP3 LT ISZERO PUSH3 0x577 JUMPI DUP8 DUP6 ADD MLOAD PUSH1 0x0 NOT PUSH1 0x3 DUP9 SWAP1 SHL PUSH1 0xF8 AND SHR NOT AND DUP2 SSTORE JUMPDEST POP POP POP POP POP PUSH1 0x1 SWAP1 DUP2 SHL ADD SWAP1 SSTORE POP JUMP JUMPDEST PUSH4 0x4E487B71 PUSH1 0xE0 SHL PUSH1 0x0 MSTORE PUSH1 0x11 PUSH1 0x4 MSTORE PUSH1 0x24 PUSH1 0x0 REVERT JUMPDEST PUSH1 0x0 DUP3 PUSH3 0x5BB JUMPI PUSH4 0x4E487B71 PUSH1 0xE0 SHL PUSH1 0x0 MSTORE PUSH1 0x12 PUSH1 0x4 MSTORE PUSH1 0x24 PUSH1 0x0 REVERT JUMPDEST POP DIV SWAP1 JUMP JUMPDEST DUP1 DUP3 MUL DUP2 ISZERO DUP3 DUP3 DIV DUP5 EQ OR PUSH3 0x386 JUMPI PUSH3 0x386 PUSH3 0x587 JUMP JUMPDEST DUP1 DUP3 ADD DUP1 DUP3 GT ISZERO PUSH3 0x386 JUMPI PUSH3 0x386 PUSH3 0x587 JUMP JUMPDEST PUSH1 0x80 MLOAD PUSH1 0xA0 MLOAD PUSH1 0xC0 MLOAD PUSH1 0xE0 MLOAD PUSH2 0x100 MLOAD PUSH2 0x120 MLOAD PUSH2 0x35A5 PUSH3 0x678 PUSH1 0x0 CODECOPY PUSH1 0x0 DUP2 DUP2 PUSH2 0x3F5 ADD MSTORE PUSH2 0x1C8D ADD MSTORE PUSH1 0x0 DUP2 DUP2 PUSH2 0x2B1 ADD MSTORE PUSH2 0x1C67 ADD MSTORE PUSH1 0x0 PUSH2 0x1C2D ADD MSTORE PUSH1 0x0 DUP2 DUP2 PUSH2 0x3CE ADD MSTORE DUP2 DUP2 PUSH2 0xA85 ADD MSTORE DUP2 DUP2 PUSH2 0x162E ADD MSTORE PUSH2 0x16D5 ADD MSTORE PUSH1 0x0 DUP2 DUP2 PUSH2 0x35E ADD MSTORE DUP2 DUP2 PUSH2 0xAA9 ADD MSTORE DUP2 DUP2 PUSH2 0x15D5 ADD MSTORE PUSH2 0x1A7D ADD MSTORE PUSH1 0x0 PUSH2 0x592 ADD MSTORE PUSH2 0x35A5 PUSH1 0x0 RETURN INVALID PUSH1 0x80 PUSH1 0x40 MSTORE CALLVALUE DUP1 ISZERO PUSH2 0x10 JUMPI PUSH1 0x0 DUP1 REVERT JUMPDEST POP PUSH1 0x4 CALLDATASIZE LT PUSH2 0x27F JUMPI PUSH1 0x0 CALLDATALOAD PUSH1 0xE0 SHR DUP1 PUSH4 0x5C900A1A GT PUSH2 0x15C JUMPI DUP1 PUSH4 0x9ECCACF6 GT PUSH2 0xCE JUMPI DUP1 PUSH4 0xD01ED8A3 GT PUSH2 0x87 JUMPI DUP1 PUSH4 0xD01ED8A3 EQ PUSH2 0x69E JUMPI DUP1 PUSH4 0xD7098154 EQ PUSH2 0x6A8 JUMPI DUP1 PUSH4 0xD96226A2 EQ PUSH2 0x6BB JUMPI DUP1 PUSH4 0xE8CFBE69 EQ PUSH2 0x749 JUMPI DUP1 PUSH4 0xE985E9C5 EQ PUSH2 0x75C JUMPI DUP1 PUSH4 0xF2FDE38B EQ PUSH2 0x76F JUMPI PUSH1 0x0 DUP1 REVERT JUMPDEST DUP1 PUSH4 0x9ECCACF6 EQ PUSH2 0x5F2 JUMPI DUP1 PUSH4 0xA22CB465 EQ PUSH2 0x605 JUMPI DUP1 PUSH4 0xB88D4FDE EQ PUSH2 0x618 JUMPI DUP1 PUSH4 0xC5C51DCA EQ PUSH2 0x62B JUMPI DUP1 PUSH4 0xC87B56DD EQ PUSH2 0x682 JUMPI DUP1 PUSH4 0xC8D51919 EQ PUSH2 0x695 JUMPI PUSH1 0x0 DUP1 REVERT JUMPDEST DUP1 PUSH4 0x70A08231 GT PUSH2 0x120 JUMPI DUP1 PUSH4 0x70A08231 EQ PUSH2 0x572 JUMPI DUP1 PUSH4 0x79BA5097 EQ PUSH2 0x585 JUMPI DUP1 PUSH4 0x8D6EF595 EQ PUSH2 0x58D JUMPI DUP1 PUSH4 0x8DA5CB5B EQ PUSH2 0x5C6 JUMPI DUP1 PUSH4 0x8EA98117 EQ PUSH2 0x5D7 JUMPI DUP1 PUSH4 0x95D89B41 EQ PUSH2 0x5EA JUMPI PUSH1 0x0 DUP1 REVERT JUMPDEST DUP1 PUSH4 0x5C900A1A EQ PUSH2 0x501 JUMPI DUP1 PUSH4 0x5D58F930 EQ PUSH2 0x51E JUMPI DUP1 PUSH4 0x6352211E EQ PUSH2 0x531 JUMPI DUP1 PUSH4 0x6BAF4A74 EQ PUSH2 0x544 JUMPI DUP1 PUSH4 0x6E04FF0D EQ PUSH2 0x551 JUMPI PUSH1 0x0 DUP1 REVERT JUMPDEST DUP1 PUSH4 0x2F745C59 GT PUSH2 0x1F5 JUMPI DUP1 PUSH4 0x42842E0E GT PUSH2 0x1B9 JUMPI DUP1 PUSH4 0x42842E0E EQ PUSH2 0x445 JUMPI DUP1 PUSH4 0x4585E33B EQ PUSH2 0x458 JUMPI DUP1 PUSH4 0x4F687E91 EQ PUSH2 0x46B JUMPI DUP1 PUSH4 0x4F6CCCE7 EQ PUSH2 0x473 JUMPI DUP1 PUSH4 0x50B44712 EQ PUSH2 0x486 JUMPI DUP1 PUSH4 0x51858E27 EQ PUSH2 0x4EF JUMPI PUSH1 0x0 DUP1 REVERT JUMPDEST DUP1 PUSH4 0x2F745C59 EQ PUSH2 0x3B6 JUMPI DUP1 PUSH4 0x3013CE29 EQ PUSH2 0x3C9 JUMPI DUP1 PUSH4 0x32615640 EQ PUSH2 0x3F0 JUMPI DUP1 PUSH4 0x3D4962ED EQ PUSH2 0x417 JUMPI DUP1 PUSH4 0x40985C98 EQ PUSH2 0x42A JUMPI PUSH1 0x0 DUP1 REVERT JUMPDEST DUP1 PUSH4 0xD50CDB9 GT PUSH2 0x247 JUMPI DUP1 PUSH4 0xD50CDB9 EQ PUSH2 0x336 JUMPI DUP1 PUSH4 0x1209B1F6 EQ PUSH2 0x359 JUMPI DUP1 PUSH4 0x147E291F EQ PUSH2 0x380 JUMPI DUP1 PUSH4 0x18160DDD EQ PUSH2 0x388 JUMPI DUP1 PUSH4 0x1FE543E3 EQ PUSH2 0x390 JUMPI DUP1 PUSH4 0x23B872DD EQ PUSH2 0x3A3 JUMPI PUSH1 0x0 DUP1 REVERT JUMPDEST DUP1 PUSH4 0x1FFC9A7 EQ PUSH2 0x284 JUMPI DUP1 PUSH4 0x41D443E EQ PUSH2 0x2AC JUMPI DUP1 PUSH4 0x6FDDE03 EQ PUSH2 0x2E1 JUMPI DUP1 PUSH4 0x81812FC EQ PUSH2 0x2F6 JUMPI DUP1 PUSH4 0x95EA7B3 EQ PUSH2 0x321 JUMPI JUMPDEST PUSH1 0x0 DUP1 REVERT JUMPDEST PUSH2 0x297 PUSH2 0x292 CALLDATASIZE PUSH1 0x4 PUSH2 0x2EB0 JUMP JUMPDEST PUSH2 0x782 JUMP JUMPDEST PUSH1 0x40 MLOAD SWAP1 ISZERO ISZERO DUP2 MSTORE PUSH1 0x20 ADD JUMPDEST PUSH1 0x40 MLOAD DUP1 SWAP2 SUB SWAP1 RETURN JUMPDEST PUSH2 0x2D3 PUSH32 0x0 DUP2 JUMP JUMPDEST PUSH1 0x40 MLOAD SWAP1 DUP2 MSTORE PUSH1 0x20 ADD PUSH2 0x2A3 JUMP JUMPDEST PUSH2 0x2E9 PUSH2 0x793 JUMP JUMPDEST PUSH1 0x40 MLOAD PUSH2 0x2A3 SWAP2 SWAP1 PUSH2 0x2F1D JUMP JUMPDEST PUSH2 0x309 PUSH2 0x304 CALLDATASIZE PUSH1 0x4 PUSH2 0x2F30 JUMP JUMPDEST PUSH2 0x825 JUMP JUMPDEST PUSH1 0x40 MLOAD PUSH1 0x1 PUSH1 0x1 PUSH1 0xA0 SHL SUB SWAP1 SWAP2 AND DUP2 MSTORE PUSH1 0x20 ADD PUSH2 0x2A3 JUMP JUMPDEST PUSH2 0x334 PUSH2 0x32F CALLDATASIZE PUSH1 0x4 PUSH2 0x2F65 JUMP JUMPDEST PUSH2 0x84E JUMP JUMPDEST STOP JUMPDEST PUSH1 0xF SLOAD PUSH2 0x345 SWAP1 PUSH3 0xFFFFFF AND DUP2 JUMP JUMPDEST PUSH1 0x40 MLOAD PUSH3 0xFFFFFF SWAP1 SWAP2 AND DUP2 MSTORE PUSH1 0x20 ADD PUSH2 0x2A3 JUMP JUMPDEST PUSH2 0x2D3 PUSH32 0x0 DUP2 JUMP JUMPDEST PUSH2 0x334 PUSH2 0x85D JUMP JUMPDEST PUSH1 0x8 SLOAD PUSH2 0x2D3 JUMP JUMPDEST PUSH2 0x334 PUSH2 0x39E CALLDATASIZE PUSH1 0x4 PUSH2 0x2F8F JUMP JUMPDEST PUSH2 0x882 JUMP JUMPDEST PUSH2 0x334 PUSH2 0x3B1 CALLDATASIZE PUSH1 0x4 PUSH2 0x300E JUMP JUMPDEST PUSH2 0x8D7 JUMP JUMPDEST PUSH2 0x2D3 PUSH2 0x3C4 CALLDATASIZE PUSH1 0x4 PUSH2 0x2F65 JUMP JUMPDEST PUSH2 0x962 JUMP JUMPDEST PUSH2 0x309 PUSH32 0x0 DUP2 JUMP JUMPDEST PUSH2 0x2D3 PUSH32 0x0 DUP2 JUMP JUMPDEST PUSH2 0x334 PUSH2 0x425 CALLDATASIZE PUSH1 0x4 PUSH2 0x304A JUMP JUMPDEST PUSH2 0x9C7 JUMP JUMPDEST PUSH2 0x432 PUSH1 0x3 DUP2 JUMP JUMPDEST PUSH1 0x40 MLOAD PUSH2 0xFFFF SWAP1 SWAP2 AND DUP2 MSTORE PUSH1 0x20 ADD PUSH2 0x2A3 JUMP JUMPDEST PUSH2 0x334 PUSH2 0x453 CALLDATASIZE PUSH1 0x4 PUSH2 0x300E JUMP JUMPDEST PUSH2 0xC1A JUMP JUMPDEST PUSH2 0x334 PUSH2 0x466 CALLDATASIZE PUSH1 0x4 PUSH2 0x3072 JUMP JUMPDEST PUSH2 0xC35 JUMP JUMPDEST PUSH2 0x334 PUSH2 0xD40 JUMP JUMPDEST PUSH2 0x2D3 PUSH2 0x481 CALLDATASIZE PUSH1 0x4 PUSH2 0x2F30 JUMP JUMPDEST PUSH2 0xD5C JUMP JUMPDEST PUSH2 0x4C6 PUSH2 0x494 CALLDATASIZE PUSH1 0x4 PUSH2 0x2F30 JUMP JUMPDEST PUSH1 0x11 PUSH1 0x20 MSTORE PUSH1 0x0 SWAP1 DUP2 MSTORE PUSH1 0x40 SWAP1 KECCAK256 DUP1 SLOAD PUSH1 0x2 SWAP1 SWAP2 ADD SLOAD PUSH5 0xFFFFFFFFFF DUP3 AND SWAP2 PUSH1 0x1 PUSH1 0x28 SHL SWAP1 DIV PUSH3 0xFFFFFF AND SWAP1 PUSH1 0xFF AND DUP4 JUMP JUMPDEST PUSH1 0x40 DUP1 MLOAD PUSH5 0xFFFFFFFFFF SWAP1 SWAP5 AND DUP5 MSTORE PUSH3 0xFFFFFF SWAP1 SWAP3 AND PUSH1 0x20 DUP5 ADD MSTORE ISZERO ISZERO SWAP1 DUP3 ADD MSTORE PUSH1 0x60 ADD PUSH2 0x2A3 JUMP JUMPDEST PUSH1 0x1C SLOAD PUSH2 0x297 SWAP1 PUSH2 0x100 SWAP1 DIV PUSH1 0xFF AND DUP2 JUMP JUMPDEST PUSH2 0x509 PUSH1 0x1 DUP2 JUMP JUMPDEST PUSH1 0x40 MLOAD PUSH4 0xFFFFFFFF SWAP1 SWAP2 AND DUP2 MSTORE PUSH1 0x20 ADD PUSH2 0x2A3 JUMP JUMPDEST PUSH2 0x334 PUSH2 0x52C CALLDATASIZE PUSH1 0x4 PUSH2 0x30F7 JUMP JUMPDEST PUSH2 0xDB5 JUMP JUMPDEST PUSH2 0x309 PUSH2 0x53F CALLDATASIZE PUSH1 0x4 PUSH2 0x2F30 JUMP JUMPDEST PUSH2 0x1044 JUMP JUMPDEST PUSH1 0x1C SLOAD PUSH2 0x297 SWAP1 PUSH1 0xFF AND DUP2 JUMP JUMPDEST PUSH2 0x564 PUSH2 0x55F CALLDATASIZE PUSH1 0x4 PUSH2 0x3072 JUMP JUMPDEST PUSH2 0x104F JUMP JUMPDEST PUSH1 0x40 MLOAD PUSH2 0x2A3 SWAP3 SWAP2 SWAP1 PUSH2 0x3113 JUMP JUMPDEST PUSH2 0x2D3 PUSH2 0x580 CALLDATASIZE PUSH1 0x4 PUSH2 0x312E JUMP JUMPDEST PUSH2 0x1098 JUMP JUMPDEST PUSH2 0x334 PUSH2 0x10E0 JUMP JUMPDEST PUSH2 0x5B4 PUSH32 0x0 DUP2 JUMP JUMPDEST PUSH1 0x40 MLOAD PUSH1 0xFF SWAP1 SWAP2 AND DUP2 MSTORE PUSH1 0x20 ADD PUSH2 0x2A3 JUMP JUMPDEST PUSH1 0xB SLOAD PUSH1 0x1 PUSH1 0x1 PUSH1 0xA0 SHL SUB AND PUSH2 0x309 JUMP JUMPDEST PUSH2 0x334 PUSH2 0x5E5 CALLDATASIZE PUSH1 0x4 PUSH2 0x312E JUMP JUMPDEST PUSH2 0x118E JUMP JUMPDEST PUSH2 0x2E9 PUSH2 0x1280 JUMP JUMPDEST PUSH1 0xD SLOAD PUSH2 0x309 SWAP1 PUSH1 0x1 PUSH1 0x1 PUSH1 0xA0 SHL SUB AND DUP2 JUMP JUMPDEST PUSH2 0x334 PUSH2 0x613 CALLDATASIZE PUSH1 0x4 PUSH2 0x3157 JUMP JUMPDEST PUSH2 0x128F JUMP JUMPDEST PUSH2 0x334 PUSH2 0x626 CALLDATASIZE PUSH1 0x4 PUSH2 0x31A4 JUMP JUMPDEST PUSH2 0x129A JUMP JUMPDEST PUSH1 0x13 SLOAD PUSH1 0x14 SLOAD PUSH1 0x15 SLOAD PUSH1 0x16 SLOAD PUSH1 0x17 SLOAD PUSH1 0x18 SLOAD PUSH1 0x19 SLOAD PUSH2 0x64D SWAP7 SWAP6 SWAP5 SWAP4 SWAP3 SWAP2 SWAP1 DUP8 JUMP JUMPDEST PUSH1 0x40 DUP1 MLOAD SWAP8 DUP9 MSTORE PUSH1 0x20 DUP9 ADD SWAP7 SWAP1 SWAP7 MSTORE SWAP5 DUP7 ADD SWAP4 SWAP1 SWAP4 MSTORE PUSH1 0x60 DUP6 ADD SWAP2 SWAP1 SWAP2 MSTORE PUSH1 0x80 DUP5 ADD MSTORE PUSH1 0xA0 DUP4 ADD MSTORE PUSH1 0xC0 DUP3 ADD MSTORE PUSH1 0xE0 ADD PUSH2 0x2A3 JUMP JUMPDEST PUSH2 0x2E9 PUSH2 0x690 CALLDATASIZE PUSH1 0x4 PUSH2 0x2F30 JUMP JUMPDEST PUSH2 0x12B1 JUMP JUMPDEST PUSH2 0x2D3 PUSH1 0xE SLOAD DUP2 JUMP JUMPDEST PUSH2 0x509 PUSH3 0x493E0 DUP2 JUMP JUMPDEST PUSH2 0x334 PUSH2 0x6B6 CALLDATASIZE PUSH1 0x4 PUSH2 0x2F30 JUMP JUMPDEST PUSH2 0x1326 JUMP JUMPDEST PUSH2 0x711 PUSH2 0x6C9 CALLDATASIZE PUSH1 0x4 PUSH2 0x3280 JUMP JUMPDEST PUSH1 0x1A PUSH1 0x20 MSTORE PUSH1 0x0 SWAP1 DUP2 MSTORE PUSH1 0x40 SWAP1 KECCAK256 PUSH1 0x1 ADD SLOAD PUSH4 0xFFFFFFFF DUP1 DUP3 AND SWAP2 PUSH5 0x100000000 DUP2 DIV DUP3 AND SWAP2 PUSH1 0x1 PUSH1 0x40 SHL DUP3 DIV DUP2 AND SWAP2 PUSH1 0x1 PUSH1 0x60 SHL DUP2 DIV SWAP1 SWAP2 AND SWAP1 PUSH1 0x1 PUSH1 0x80 SHL SWAP1 DIV PUSH1 0xFF AND DUP6 JUMP JUMPDEST PUSH1 0x40 DUP1 MLOAD PUSH4 0xFFFFFFFF SWAP7 DUP8 AND DUP2 MSTORE SWAP5 DUP7 AND PUSH1 0x20 DUP7 ADD MSTORE SWAP3 DUP6 AND SWAP3 DUP5 ADD SWAP3 SWAP1 SWAP3 MSTORE SWAP1 SWAP3 AND PUSH1 0x60 DUP3 ADD MSTORE SWAP1 ISZERO ISZERO PUSH1 0x80 DUP3 ADD MSTORE PUSH1 0xA0 ADD PUSH2 0x2A3 JUMP JUMPDEST PUSH2 0x334 PUSH2 0x757 CALLDATASIZE PUSH1 0x4 PUSH2 0x312E JUMP JUMPDEST PUSH2 0x16B7 JUMP JUMPDEST PUSH2 0x297 PUSH2 0x76A CALLDATASIZE PUSH1 0x4 PUSH2 0x329B JUMP JUMPDEST PUSH2 0x1742 JUMP JUMPDEST PUSH2 0x334 PUSH2 0x77D CALLDATASIZE PUSH1 0x4 PUSH2 0x312E JUMP JUMPDEST PUSH2 0x1770 JUMP JUMPDEST PUSH1 0x0 PUSH2 0x78D DUP3 PUSH2 0x1781 JUMP JUMPDEST SWAP3 SWAP2 POP POP JUMP JUMPDEST PUSH1 0x60 PUSH1 0x0 DUP1 SLOAD PUSH2 0x7A2 SWAP1 PUSH2 0x32CE JUMP JUMPDEST DUP1 PUSH1 0x1F ADD PUSH1 0x20 DUP1 SWAP2 DIV MUL PUSH1 0x20 ADD PUSH1 0x40 MLOAD SWAP1 DUP2 ADD PUSH1 0x40 MSTORE DUP1 SWAP3 SWAP2 SWAP1 DUP2 DUP2 MSTORE PUSH1 0x20 ADD DUP3 DUP1 SLOAD PUSH2 0x7CE SWAP1 PUSH2 0x32CE JUMP JUMPDEST DUP1 ISZERO PUSH2 0x81B JUMPI DUP1 PUSH1 0x1F LT PUSH2 0x7F0 JUMPI PUSH2 0x100 DUP1 DUP4 SLOAD DIV MUL DUP4 MSTORE SWAP2 PUSH1 0x20 ADD SWAP2 PUSH2 0x81B JUMP JUMPDEST DUP3 ADD SWAP2 SWAP1 PUSH1 0x0 MSTORE PUSH1 0x20 PUSH1 0x0 KECCAK256 SWAP1 JUMPDEST DUP2 SLOAD DUP2 MSTORE SWAP1 PUSH1 0x1 ADD SWAP1 PUSH1 0x20 ADD DUP1 DUP4 GT PUSH2 0x7FE JUMPI DUP3 SWAP1 SUB PUSH1 0x1F AND DUP3 ADD SWAP2 JUMPDEST POP POP POP POP POP SWAP1 POP SWAP1 JUMP JUMPDEST PUSH1 0x0 PUSH2 0x830 DUP3 PUSH2 0x17A6 JUMP JUMPDEST POP PUSH1 0x0 DUP3 DUP2 MSTORE PUSH1 0x4 PUSH1 0x20 MSTORE PUSH1 0x40 SWAP1 KECCAK256 SLOAD PUSH1 0x1 PUSH1 0x1 PUSH1 0xA0 SHL SUB AND PUSH2 0x78D JUMP JUMPDEST PUSH2 0x859 DUP3 DUP3 CALLER PUSH2 0x17DF JUMP JUMPDEST POP POP JUMP JUMPDEST PUSH2 0x865 PUSH2 0x17EC JUMP JUMPDEST PUSH1 0x1C DUP1 SLOAD PUSH2 0xFF00 NOT DUP2 AND PUSH2 0x100 SWAP2 DUP3 SWAP1 DIV PUSH1 0xFF AND ISZERO SWAP1 SWAP2 MUL OR SWAP1 SSTORE JUMP JUMPDEST PUSH1 0xD SLOAD PUSH1 0x1 PUSH1 0x1 PUSH1 0xA0 SHL SUB AND CALLER EQ PUSH2 0x8C7 JUMPI PUSH1 0xD SLOAD PUSH1 0x40 MLOAD PUSH4 0x73E64FD PUSH1 0xE2 SHL DUP2 MSTORE CALLER PUSH1 0x4 DUP3 ADD MSTORE PUSH1 0x1 PUSH1 0x1 PUSH1 0xA0 SHL SUB SWAP1 SWAP2 AND PUSH1 0x24 DUP3 ADD MSTORE PUSH1 0x44 ADD JUMPDEST PUSH1 0x40 MLOAD DUP1 SWAP2 SUB SWAP1 REVERT JUMPDEST PUSH2 0x8D2 DUP4 DUP4 DUP4 PUSH2 0x1841 JUMP JUMPDEST POP POP POP JUMP JUMPDEST PUSH1 0x1 PUSH1 0x1 PUSH1 0xA0 SHL SUB DUP3 AND PUSH2 0x901 JUMPI PUSH1 0x40 MLOAD PUSH4 0x32505749 PUSH1 0xE1 SHL DUP2 MSTORE PUSH1 0x0 PUSH1 0x4 DUP3 ADD MSTORE PUSH1 0x24 ADD PUSH2 0x8BE JUMP JUMPDEST PUSH1 0x0 PUSH2 0x90E DUP4 DUP4 CALLER PUSH2 0x1995 JUMP JUMPDEST SWAP1 POP DUP4 PUSH1 0x1 PUSH1 0x1 PUSH1 0xA0 SHL SUB AND DUP2 PUSH1 0x1 PUSH1 0x1 PUSH1 0xA0 SHL SUB AND EQ PUSH2 0x95C JUMPI PUSH1 0x40 MLOAD PUSH4 0x64283D7B PUSH1 0xE0 SHL DUP2 MSTORE PUSH1 0x1 PUSH1 0x1 PUSH1 0xA0 SHL SUB DUP1 DUP7 AND PUSH1 0x4 DUP4 ADD MSTORE PUSH1 0x24 DUP3 ADD DUP5 SWAP1 MSTORE DUP3 AND PUSH1 0x44 DUP3 ADD MSTORE PUSH1 0x64 ADD PUSH2 0x8BE JUMP JUMPDEST POP POP POP POP JUMP JUMPDEST PUSH1 0x0 PUSH2 0x96D DUP4 PUSH2 0x1098 JUMP JUMPDEST DUP3 LT PUSH2 0x99E JUMPI PUSH1 0x40 MLOAD PUSH4 0x295F44F7 PUSH1 0xE2 SHL DUP2 MSTORE PUSH1 0x1 PUSH1 0x1 PUSH1 0xA0 SHL SUB DUP5 AND PUSH1 0x4 DUP3 ADD MSTORE PUSH1 0x24 DUP2 ADD DUP4 SWAP1 MSTORE PUSH1 0x44 ADD PUSH2 0x8BE JUMP JUMPDEST POP PUSH1 0x1 PUSH1 0x1 PUSH1 0xA0 SHL SUB SWAP2 SWAP1 SWAP2 AND PUSH1 0x0 SWAP1 DUP2 MSTORE PUSH1 0x6 PUSH1 0x20 SWAP1 DUP2 MSTORE PUSH1 0x40 DUP1 DUP4 KECCAK256 SWAP4 DUP4 MSTORE SWAP3 SWAP1 MSTORE KECCAK256 SLOAD SWAP1 JUMP JUMPDEST PUSH2 0x9CF PUSH2 0x19AA JUMP JUMPDEST PUSH1 0x1C SLOAD PUSH2 0x100 SWAP1 DIV PUSH1 0xFF AND ISZERO PUSH2 0x9F8 JUMPI PUSH1 0x40 MLOAD PUSH4 0x4CB3183D PUSH1 0xE0 SHL DUP2 MSTORE PUSH1 0x4 ADD PUSH1 0x40 MLOAD DUP1 SWAP2 SUB SWAP1 REVERT JUMPDEST PUSH1 0xE SLOAD TIMESTAMP LT PUSH2 0xA1A JUMPI PUSH1 0x40 MLOAD PUSH4 0xECDD1C29 PUSH1 0xE0 SHL DUP2 MSTORE PUSH1 0x4 ADD PUSH1 0x40 MLOAD DUP1 SWAP2 SUB SWAP1 REVERT JUMPDEST PUSH1 0x0 JUMPDEST PUSH1 0x4 DUP2 LT ISZERO PUSH2 0xA77 JUMPI PUSH1 0x18 DUP3 DUP3 PUSH1 0x4 DUP2 LT PUSH2 0xA3A JUMPI PUSH2 0xA3A PUSH2 0x3302 JUMP JUMPDEST PUSH1 0x20 MUL ADD PUSH1 0x20 DUP2 ADD SWAP1 PUSH2 0xA4D SWAP2 SWAP1 PUSH2 0x3318 JUMP JUMPDEST PUSH1 0xFF AND GT ISZERO PUSH2 0xA6F JUMPI PUSH1 0x40 MLOAD PUSH4 0x8214F17 PUSH1 0xE2 SHL DUP2 MSTORE PUSH1 0x4 ADD PUSH1 0x40 MLOAD DUP1 SWAP2 SUB SWAP1 REVERT JUMPDEST PUSH1 0x1 ADD PUSH2 0xA1D JUMP JUMPDEST POP PUSH2 0xACD PUSH1 0x1 PUSH1 0x1 PUSH1 0xA0 SHL SUB PUSH32 0x0 AND CALLER ADDRESS PUSH32 0x0 PUSH2 0x19D4 JUMP JUMPDEST PUSH1 0x10 DUP1 SLOAD PUSH1 0x0 SWAP2 DUP3 PUSH2 0xADE DUP4 PUSH2 0x3351 JUMP JUMPDEST SWAP2 SWAP1 POP SSTORE SWAP1 POP PUSH2 0xAEE CALLER DUP3 PUSH2 0x1A3B JUMP JUMPDEST PUSH1 0x40 DUP1 MLOAD PUSH1 0x80 DUP1 DUP3 ADD DUP4 MSTORE PUSH5 0xFFFFFFFFFF TIMESTAMP AND DUP3 MSTORE PUSH1 0xF SLOAD PUSH3 0xFFFFFF AND PUSH1 0x20 DUP4 ADD MSTORE DUP3 MLOAD DUP1 DUP3 ADD DUP5 MSTORE SWAP2 SWAP3 DUP4 ADD SWAP2 SWAP1 DUP6 SWAP1 PUSH1 0x4 SWAP1 DUP4 SWAP1 DUP4 SWAP1 DUP1 DUP3 DUP5 CALLDATACOPY PUSH1 0x0 SWAP3 ADD DUP3 SWAP1 MSTORE POP SWAP3 DUP5 MSTORE POP POP PUSH1 0x20 SWAP2 DUP3 ADD DUP2 SWAP1 MSTORE DUP4 DUP2 MSTORE PUSH1 0x11 DUP3 MSTORE PUSH1 0x40 SWAP1 DUP2 SWAP1 KECCAK256 DUP4 MLOAD DUP2 SLOAD SWAP4 DUP6 ADD MLOAD PUSH3 0xFFFFFF AND PUSH1 0x1 PUSH1 0x28 SHL MUL PUSH8 0xFFFFFFFFFFFFFFFF NOT SWAP1 SWAP5 AND PUSH5 0xFFFFFFFFFF SWAP1 SWAP2 AND OR SWAP3 SWAP1 SWAP3 OR DUP3 SSTORE DUP3 ADD MLOAD PUSH2 0xB8F SWAP1 PUSH1 0x1 DUP4 ADD SWAP1 PUSH1 0x4 PUSH2 0x2DD3 JUMP JUMPDEST POP PUSH1 0x60 SWAP2 SWAP1 SWAP2 ADD MLOAD PUSH1 0x2 SWAP1 SWAP2 ADD DUP1 SLOAD PUSH1 0xFF NOT AND SWAP2 ISZERO ISZERO SWAP2 SWAP1 SWAP2 OR SWAP1 SSTORE PUSH1 0xF DUP1 SLOAD PUSH3 0xFFFFFF SWAP1 DUP2 AND PUSH1 0x0 SWAP1 DUP2 MSTORE PUSH1 0x12 PUSH1 0x20 SWAP1 DUP2 MSTORE PUSH1 0x40 DUP1 DUP4 KECCAK256 DUP1 SLOAD PUSH1 0x1 DUP2 ADD DUP3 SSTORE SWAP1 DUP5 MSTORE SWAP2 DUP4 KECCAK256 SWAP1 SWAP2 ADD DUP6 SWAP1 SSTORE SWAP3 SLOAD SWAP3 MLOAD SWAP3 SWAP1 SWAP2 AND SWAP2 DUP4 SWAP2 CALLER SWAP2 PUSH32 0x12EEE7F99EA5C9C160467D40A467F18C62607B8D43607D0840F168CC2B55B2E4 SWAP2 SWAP1 LOG4 POP PUSH2 0xC17 PUSH1 0x1 PUSH1 0xA SSTORE JUMP JUMPDEST POP JUMP JUMPDEST PUSH2 0x8D2 DUP4 DUP4 DUP4 PUSH1 0x40 MLOAD DUP1 PUSH1 0x20 ADD PUSH1 0x40 MSTORE DUP1 PUSH1 0x0 DUP2 MSTORE POP PUSH2 0x129A JUMP JUMPDEST PUSH1 0x1C SLOAD PUSH1 0xFF AND ISZERO DUP1 PUSH2 0xC4E JUMPI POP PUSH1 0x1C SLOAD PUSH2 0x100 SWAP1 DIV PUSH1 0xFF AND JUMPDEST ISZERO PUSH2 0xC6C JUMPI PUSH1 0x40 MLOAD PUSH4 0xFC5EAEFD PUSH1 0xE0 SHL DUP2 MSTORE PUSH1 0x4 ADD PUSH1 0x40 MLOAD DUP1 SWAP2 SUB SWAP1 REVERT JUMPDEST PUSH1 0xE SLOAD TIMESTAMP LT ISZERO PUSH2 0xC8F JUMPI PUSH1 0x40 MLOAD PUSH4 0x85DE625 PUSH1 0xE0 SHL DUP2 MSTORE PUSH1 0x4 ADD PUSH1 0x40 MLOAD DUP1 SWAP2 SUB SWAP1 REVERT JUMPDEST PUSH1 0xF SLOAD PUSH3 0xFFFFFF AND PUSH2 0xCA0 DUP2 PUSH2 0x1A55 JUMP JUMPDEST PUSH2 0xCA9 DUP2 PUSH2 0x1C29 JUMP JUMPDEST PUSH1 0xF DUP1 SLOAD PUSH1 0x1 SWAP2 SWAP1 PUSH1 0x0 SWAP1 PUSH2 0xCC4 SWAP1 DUP5 SWAP1 PUSH3 0xFFFFFF AND PUSH2 0x336A JUMP JUMPDEST SWAP3 POP PUSH2 0x100 EXP DUP2 SLOAD DUP2 PUSH3 0xFFFFFF MUL NOT AND SWAP1 DUP4 PUSH3 0xFFFFFF AND MUL OR SWAP1 SSTORE POP PUSH3 0x15180 PUSH1 0xE PUSH1 0x0 DUP3 DUP3 SLOAD PUSH2 0xCF5 SWAP2 SWAP1 PUSH2 0x338D JUMP JUMPDEST SWAP1 SWAP2 SSTORE POP POP PUSH1 0xF SLOAD PUSH1 0xE SLOAD PUSH1 0x40 MLOAD SWAP1 DUP2 MSTORE PUSH3 0xFFFFFF SWAP1 SWAP2 AND SWAP1 PUSH32 0x70ABA4EECFB00A70E5AAE193521BC256FC3CBF7A91479F6BCDA4B5A82F986961 SWAP1 PUSH1 0x20 ADD PUSH1 0x40 MLOAD DUP1 SWAP2 SUB SWAP1 LOG2 POP POP POP JUMP JUMPDEST PUSH2 0xD48 PUSH2 0x17EC JUMP JUMPDEST PUSH1 0x1C DUP1 SLOAD PUSH1 0xFF NOT DUP2 AND PUSH1 0xFF SWAP1 SWAP2 AND ISZERO OR SWAP1 SSTORE JUMP JUMPDEST PUSH1 0x0 PUSH2 0xD67 PUSH1 0x8 SLOAD SWAP1 JUMP JUMPDEST DUP3 LT PUSH2 0xD90 JUMPI PUSH1 0x40 MLOAD PUSH4 0x295F44F7 PUSH1 0xE2 SHL DUP2 MSTORE PUSH1 0x0 PUSH1 0x4 DUP3 ADD MSTORE PUSH1 0x24 DUP2 ADD DUP4 SWAP1 MSTORE PUSH1 0x44 ADD PUSH2 0x8BE JUMP JUMPDEST PUSH1 0x8 DUP3 DUP2 SLOAD DUP2 LT PUSH2 0xDA3 JUMPI PUSH2 0xDA3 PUSH2 0x3302 JUMP JUMPDEST SWAP1 PUSH1 0x0 MSTORE PUSH1 0x20 PUSH1 0x0 KECCAK256 ADD SLOAD SWAP1 POP SWAP2 SWAP1 POP JUMP JUMPDEST DUP1 ISZERO DUP1 PUSH2 0xDC3 JUMPI POP PUSH2 0x12C DUP2 GT JUMPDEST ISZERO PUSH2 0xDCD JUMPI POP PUSH2 0x12C JUMPDEST PUSH3 0xFFFFFF DUP3 AND PUSH1 0x0 SWAP1 DUP2 MSTORE PUSH1 0x1A PUSH1 0x20 MSTORE PUSH1 0x40 SWAP1 KECCAK256 PUSH1 0x1 DUP2 ADD SLOAD PUSH1 0x1 PUSH1 0x80 SHL SWAP1 DIV PUSH1 0xFF AND ISZERO PUSH2 0xE0E JUMPI PUSH1 0x40 MLOAD PUSH4 0x1454E6C7 PUSH1 0xE0 SHL DUP2 MSTORE PUSH1 0x4 ADD PUSH1 0x40 MLOAD DUP1 SWAP2 SUB SWAP1 REVERT JUMPDEST PUSH3 0xFFFFFF DUP4 AND PUSH1 0x0 SWAP1 DUP2 MSTORE PUSH1 0x12 PUSH1 0x20 MSTORE PUSH1 0x40 DUP2 KECCAK256 PUSH1 0x1 DUP4 ADD SLOAD SWAP1 SWAP2 PUSH4 0xFFFFFFFF SWAP1 SWAP2 AND SWAP1 PUSH2 0xE3C DUP6 DUP4 PUSH2 0x338D JUMP JUMPDEST DUP4 SLOAD SWAP1 SWAP2 POP DUP2 GT ISZERO PUSH2 0xE4C JUMPI POP DUP2 SLOAD JUMPDEST DUP2 JUMPDEST DUP2 DUP2 LT ISZERO PUSH2 0xE8C JUMPI PUSH2 0xE7C DUP5 DUP3 DUP2 SLOAD DUP2 LT PUSH2 0xE6B JUMPI PUSH2 0xE6B PUSH2 0x3302 JUMP JUMPDEST SWAP1 PUSH1 0x0 MSTORE PUSH1 0x20 PUSH1 0x0 KECCAK256 ADD SLOAD DUP7 PUSH2 0x1DA6 JUMP JUMPDEST PUSH2 0xE85 DUP2 PUSH2 0x3351 JUMP JUMPDEST SWAP1 POP PUSH2 0xE4E JUMP JUMPDEST POP PUSH1 0x1 DUP5 ADD DUP1 SLOAD PUSH4 0xFFFFFFFF NOT AND PUSH4 0xFFFFFFFF DUP4 AND OR SWAP1 SSTORE PUSH1 0x40 DUP1 MLOAD DUP4 DUP2 MSTORE PUSH1 0x20 DUP2 ADD DUP4 SWAP1 MSTORE PUSH3 0xFFFFFF DUP9 AND SWAP2 PUSH32 0x95F2647279697D92FBFBD24A0E306C284798157A253E2126EBF1451515F6FBD9 SWAP2 ADD PUSH1 0x40 MLOAD DUP1 SWAP2 SUB SWAP1 LOG2 DUP3 SLOAD DUP2 SUB PUSH2 0x103C JUMPI PUSH1 0x1 DUP5 ADD DUP1 SLOAD PUSH1 0xFF PUSH1 0x80 SHL NOT AND PUSH1 0x1 PUSH1 0x80 SHL OR SWAP1 DUP2 SWAP1 SSTORE PUSH1 0x40 DUP1 MLOAD PUSH4 0xFFFFFFFF PUSH5 0x100000000 DUP5 DIV DUP2 AND DUP3 MSTORE PUSH1 0x1 PUSH1 0x40 SHL DUP5 DIV DUP2 AND PUSH1 0x20 DUP4 ADD MSTORE PUSH1 0x1 PUSH1 0x60 SHL SWAP1 SWAP4 DIV SWAP1 SWAP3 AND SWAP1 DUP3 ADD MSTORE PUSH3 0xFFFFFF DUP8 AND SWAP1 PUSH32 0x9094B2B67842ABB4391FC6C54030E03D20642491EFEB4EDA225641EAC3B10127 SWAP1 PUSH1 0x60 ADD PUSH1 0x40 MLOAD DUP1 SWAP2 SUB SWAP1 LOG2 PUSH1 0x1 DUP5 ADD SLOAD PUSH5 0x100000000 SWAP1 DIV PUSH4 0xFFFFFFFF AND ISZERO DUP1 ISZERO SWAP1 PUSH2 0xF8B JUMPI POP PUSH1 0x17 SLOAD ISZERO ISZERO JUMPDEST ISZERO PUSH2 0xFB0 JUMPI PUSH1 0x17 SLOAD PUSH1 0x13 DUP1 SLOAD PUSH1 0x0 SWAP1 PUSH2 0xFA5 SWAP1 DUP5 SWAP1 PUSH2 0x338D JUMP JUMPDEST SWAP1 SWAP2 SSTORE POP POP PUSH1 0x0 PUSH1 0x17 SSTORE JUMPDEST PUSH1 0x1 DUP5 ADD SLOAD PUSH1 0x1 PUSH1 0x40 SHL SWAP1 DIV PUSH4 0xFFFFFFFF AND ISZERO DUP1 ISZERO SWAP1 PUSH2 0xFD1 JUMPI POP PUSH1 0x18 SLOAD ISZERO ISZERO JUMPDEST ISZERO PUSH2 0xFF6 JUMPI PUSH1 0x18 SLOAD PUSH1 0x14 DUP1 SLOAD PUSH1 0x0 SWAP1 PUSH2 0xFEB SWAP1 DUP5 SWAP1 PUSH2 0x338D JUMP JUMPDEST SWAP1 SWAP2 SSTORE POP POP PUSH1 0x0 PUSH1 0x18 SSTORE JUMPDEST PUSH1 0x1 DUP5 ADD SLOAD PUSH1 0x1 PUSH1 0x60 SHL SWAP1 DIV PUSH4 0xFFFFFFFF AND ISZERO DUP1 ISZERO SWAP1 PUSH2 0x1017 JUMPI POP PUSH1 0x19 SLOAD ISZERO ISZERO JUMPDEST ISZERO PUSH2 0x103C JUMPI PUSH1 0x19 SLOAD PUSH1 0x15 DUP1 SLOAD PUSH1 0x0 SWAP1 PUSH2 0x1031 SWAP1 DUP5 SWAP1 PUSH2 0x338D JUMP JUMPDEST SWAP1 SWAP2 SSTORE POP POP PUSH1 0x0 PUSH1 0x19 SSTORE JUMPDEST POP POP POP POP POP POP JUMP JUMPDEST PUSH1 0x0 PUSH2 0x78D DUP3 PUSH2 0x17A6 JUMP JUMPDEST PUSH1 0x1C SLOAD PUSH1 0x0 SWAP1 PUSH1 0x60 SWAP1 PUSH1 0xFF AND DUP1 ISZERO PUSH2 0x106F JUMPI POP PUSH1 0x1C SLOAD PUSH2 0x100 SWAP1 DIV PUSH1 0xFF AND ISZERO JUMPDEST DUP1 ISZERO PUSH2 0x107D JUMPI POP PUSH1 0xE SLOAD TIMESTAMP LT ISZERO JUMPDEST SWAP2 POP PUSH1 0x40 MLOAD DUP1 PUSH1 0x20 ADD PUSH1 0x40 MSTORE DUP1 PUSH1 0x0 DUP2 MSTORE POP SWAP1 POP SWAP3 POP SWAP3 SWAP1 POP JUMP JUMPDEST PUSH1 0x0 PUSH1 0x1 PUSH1 0x1 PUSH1 0xA0 SHL SUB DUP3 AND PUSH2 0x10C4 JUMPI PUSH1 0x40 MLOAD PUSH4 0x22718AD9 PUSH1 0xE2 SHL DUP2 MSTORE PUSH1 0x0 PUSH1 0x4 DUP3 ADD MSTORE PUSH1 0x24 ADD PUSH2 0x8BE JUMP JUMPDEST POP PUSH1 0x1 PUSH1 0x1 PUSH1 0xA0 SHL SUB AND PUSH1 0x0 SWAP1 DUP2 MSTORE PUSH1 0x3 PUSH1 0x20 MSTORE PUSH1 0x40 SWAP1 KECCAK256 SLOAD SWAP1 JUMP JUMPDEST PUSH1 0xC SLOAD PUSH1 0x1 PUSH1 0x1 PUSH1 0xA0 SHL SUB AND CALLER EQ PUSH2 0x1133 JUMPI PUSH1 0x40 MLOAD PUSH3 0x461BCD PUSH1 0xE5 SHL DUP2 MSTORE PUSH1 0x20 PUSH1 0x4 DUP3 ADD MSTORE PUSH1 0x16 PUSH1 0x24 DUP3 ADD MSTORE PUSH22 0x26BAB9BA10313290383937B837B9B2B21037BBB732B9 PUSH1 0x51 SHL PUSH1 0x44 DUP3 ADD MSTORE PUSH1 0x64 ADD PUSH2 0x8BE JUMP JUMPDEST PUSH1 0xB DUP1 SLOAD PUSH1 0x1 PUSH1 0x1 PUSH1 0xA0 SHL SUB NOT DUP1 DUP3 AND CALLER SWAP1 DUP2 OR SWAP1 SWAP4 SSTORE PUSH1 0xC DUP1 SLOAD SWAP1 SWAP2 AND SWAP1 SSTORE PUSH1 0x40 MLOAD PUSH1 0x1 PUSH1 0x1 PUSH1 0xA0 SHL SUB SWAP1 SWAP2 AND SWAP2 SWAP1 DUP3 SWAP1 PUSH32 0x8BE0079C531659141344CD1FD0A4F28419497F9722A3DAAFE3B4186F6B6457E0 SWAP1 PUSH1 0x0 SWAP1 LOG3 POP JUMP JUMPDEST PUSH1 0xB SLOAD PUSH1 0x1 PUSH1 0x1 PUSH1 0xA0 SHL SUB AND CALLER EQ DUP1 ISZERO SWAP1 PUSH2 0x11B4 JUMPI POP PUSH1 0xD SLOAD PUSH1 0x1 PUSH1 0x1 PUSH1 0xA0 SHL SUB AND CALLER EQ ISZERO JUMPDEST ISZERO PUSH2 0x1205 JUMPI CALLER PUSH2 0x11CC PUSH1 0xB SLOAD PUSH1 0x1 PUSH1 0x1 PUSH1 0xA0 SHL SUB AND SWAP1 JUMP JUMPDEST PUSH1 0xD SLOAD PUSH1 0x40 MLOAD PUSH4 0x61DB9C1 PUSH1 0xE0 SHL DUP2 MSTORE PUSH1 0x1 PUSH1 0x1 PUSH1 0xA0 SHL SUB SWAP4 DUP5 AND PUSH1 0x4 DUP3 ADD MSTORE SWAP2 DUP4 AND PUSH1 0x24 DUP4 ADD MSTORE SWAP2 SWAP1 SWAP2 AND PUSH1 0x44 DUP3 ADD MSTORE PUSH1 0x64 ADD PUSH2 0x8BE JUMP JUMPDEST PUSH1 0x1 PUSH1 0x1 PUSH1 0xA0 SHL SUB DUP2 AND PUSH2 0x122C JUMPI PUSH1 0x40 MLOAD PUSH4 0xD92E233D PUSH1 0xE0 SHL DUP2 MSTORE PUSH1 0x4 ADD PUSH1 0x40 MLOAD DUP1 SWAP2 SUB SWAP1 REVERT JUMPDEST PUSH1 0xD DUP1 SLOAD PUSH1 0x1 PUSH1 0x1 PUSH1 0xA0 SHL SUB NOT AND PUSH1 0x1 PUSH1 0x1 PUSH1 0xA0 SHL SUB DUP4 AND SWAP1 DUP2 OR SWAP1 SWAP2 SSTORE PUSH1 0x40 MLOAD SWAP1 DUP2 MSTORE PUSH32 0xD1A6A14209A385A964D036E404CB5CFB71F4000CDB03C9366292430787261BE6 SWAP1 PUSH1 0x20 ADD PUSH1 0x40 MLOAD DUP1 SWAP2 SUB SWAP1 LOG1 POP JUMP JUMPDEST PUSH1 0x60 PUSH1 0x1 DUP1 SLOAD PUSH2 0x7A2 SWAP1 PUSH2 0x32CE JUMP JUMPDEST PUSH2 0x859 CALLER DUP4 DUP4 PUSH2 0x202D JUMP JUMPDEST PUSH2 0x12A5 DUP5 DUP5 DUP5 PUSH2 0x8D7 JUMP JUMPDEST PUSH2 0x95C DUP5 DUP5 DUP5 DUP5 PUSH2 0x20CC JUMP JUMPDEST PUSH1 0x60 PUSH2 0x12BC DUP3 PUSH2 0x17A6 JUMP JUMPDEST POP PUSH1 0x0 PUSH2 0x12D4 PUSH1 0x40 DUP1 MLOAD PUSH1 0x20 DUP2 ADD SWAP1 SWAP2 MSTORE PUSH1 0x0 DUP2 MSTORE SWAP1 JUMP JUMPDEST SWAP1 POP PUSH1 0x0 DUP2 MLOAD GT PUSH2 0x12F4 JUMPI PUSH1 0x40 MLOAD DUP1 PUSH1 0x20 ADD PUSH1 0x40 MSTORE DUP1 PUSH1 0x0 DUP2 MSTORE POP PUSH2 0x131F JUMP JUMPDEST DUP1 PUSH2 0x12FE DUP5 PUSH2 0x21F5 JUMP JUMPDEST PUSH1 0x40 MLOAD PUSH1 0x20 ADD PUSH2 0x130F SWAP3 SWAP2 SWAP1 PUSH2 0x33A0 JUMP JUMPDEST PUSH1 0x40 MLOAD PUSH1 0x20 DUP2 DUP4 SUB SUB DUP2 MSTORE SWAP1 PUSH1 0x40 MSTORE JUMPDEST SWAP4 SWAP3 POP POP POP JUMP JUMPDEST PUSH2 0x132E PUSH2 0x19AA JUMP JUMPDEST PUSH1 0x0 DUP2 DUP2 MSTORE PUSH1 0x11 PUSH1 0x20 MSTORE PUSH1 0x40 SWAP1 KECCAK256 PUSH1 0x2 DUP2 ADD SLOAD PUSH1 0xFF AND ISZERO PUSH2 0x1362 JUMPI PUSH1 0x40 MLOAD PUSH4 0xC8D9EAB PUSH1 0xE3 SHL DUP2 MSTORE PUSH1 0x4 ADD PUSH1 0x40 MLOAD DUP1 SWAP2 SUB SWAP1 REVERT JUMPDEST CALLER PUSH2 0x136C DUP4 PUSH2 0x1044 JUMP JUMPDEST PUSH1 0x1 PUSH1 0x1 PUSH1 0xA0 SHL SUB AND EQ PUSH2 0x1393 JUMPI PUSH1 0x40 MLOAD PUSH4 0x30C63921 PUSH1 0xE1 SHL DUP2 MSTORE PUSH1 0x4 ADD PUSH1 0x40 MLOAD DUP1 SWAP2 SUB SWAP1 REVERT JUMPDEST DUP1 SLOAD PUSH1 0x1 PUSH1 0x28 SHL SWAP1 DIV PUSH3 0xFFFFFF AND PUSH1 0x0 SWAP1 DUP2 MSTORE PUSH1 0x1A PUSH1 0x20 MSTORE PUSH1 0x40 SWAP1 KECCAK256 PUSH1 0x1 DUP2 ADD SLOAD PUSH1 0x1 PUSH1 0x80 SHL SWAP1 DIV PUSH1 0xFF AND PUSH2 0x13FA JUMPI PUSH1 0x40 MLOAD PUSH3 0x461BCD PUSH1 0xE5 SHL DUP2 MSTORE PUSH1 0x20 PUSH1 0x4 DUP3 ADD MSTORE PUSH1 0xD PUSH1 0x24 DUP3 ADD MSTORE PUSH13 0x646179206E6F74207265616479 PUSH1 0x98 SHL PUSH1 0x44 DUP3 ADD MSTORE PUSH1 0x64 ADD PUSH2 0x8BE JUMP JUMPDEST PUSH1 0x40 DUP1 MLOAD PUSH1 0x80 DUP2 ADD SWAP2 DUP3 SWAP1 MSTORE PUSH1 0x0 SWAP2 PUSH2 0x149C SWAP2 SWAP1 PUSH1 0x1 DUP7 ADD SWAP1 PUSH1 0x4 SWAP1 DUP3 DUP7 DUP6 JUMPDEST DUP3 SLOAD PUSH2 0x100 DUP4 SWAP1 EXP SWAP1 DIV PUSH1 0xFF AND DUP2 MSTORE PUSH1 0x20 PUSH1 0x1 SWAP3 DUP4 ADD DUP2 DUP2 DIV SWAP5 DUP6 ADD SWAP5 SWAP1 SWAP4 SUB SWAP1 SWAP3 MUL SWAP2 ADD DUP1 DUP5 GT PUSH2 0x141A JUMPI POP POP PUSH1 0x40 DUP1 MLOAD PUSH1 0x80 DUP2 ADD SWAP2 DUP3 SWAP1 MSTORE SWAP5 POP DUP9 SWAP4 POP PUSH1 0x4 SWAP3 POP SWAP1 POP DUP3 PUSH1 0x0 DUP6 JUMPDEST DUP3 SLOAD PUSH2 0x100 DUP4 SWAP1 EXP SWAP1 DIV PUSH1 0xFF AND DUP2 MSTORE PUSH1 0x20 PUSH1 0x1 SWAP3 DUP4 ADD DUP2 DUP2 DIV SWAP5 DUP6 ADD SWAP5 SWAP1 SWAP4 SUB SWAP1 SWAP3 MUL SWAP2 ADD DUP1 DUP5 GT PUSH2 0x1464 JUMPI SWAP1 POP POP POP POP POP POP PUSH2 0x2288 JUMP JUMPDEST SWAP1 POP PUSH1 0x0 DUP2 PUSH1 0xFF AND PUSH1 0x1 EQ DUP1 ISZERO PUSH2 0x14C4 JUMPI POP PUSH1 0x1 DUP4 ADD SLOAD PUSH5 0x100000000 SWAP1 DIV PUSH4 0xFFFFFFFF AND ISZERO ISZERO JUMPDEST ISZERO PUSH2 0x150B JUMPI PUSH1 0x1 DUP4 ADD SLOAD PUSH1 0x13 SLOAD PUSH2 0x14E9 SWAP2 PUSH5 0x100000000 SWAP1 DIV PUSH4 0xFFFFFFFF AND SWAP1 PUSH2 0x33E5 JUMP JUMPDEST SWAP1 POP DUP1 PUSH1 0x13 PUSH1 0x0 ADD PUSH1 0x0 DUP3 DUP3 SLOAD PUSH2 0x1500 SWAP2 SWAP1 PUSH2 0x33F9 JUMP JUMPDEST SWAP1 SWAP2 SSTORE POP PUSH2 0x1612 SWAP1 POP JUMP JUMPDEST DUP2 PUSH1 0xFF AND PUSH1 0x2 EQ DUP1 ISZERO PUSH2 0x152E JUMPI POP PUSH1 0x1 DUP4 ADD SLOAD PUSH1 0x1 PUSH1 0x40 SHL SWAP1 DIV PUSH4 0xFFFFFFFF AND ISZERO ISZERO JUMPDEST ISZERO PUSH2 0x1569 JUMPI PUSH1 0x1 DUP4 ADD SLOAD PUSH1 0x14 SLOAD PUSH2 0x1552 SWAP2 PUSH1 0x1 PUSH1 0x40 SHL SWAP1 DIV PUSH4 0xFFFFFFFF AND SWAP1 PUSH2 0x33E5 JUMP JUMPDEST SWAP1 POP DUP1 PUSH1 0x13 PUSH1 0x1 ADD PUSH1 0x0 DUP3 DUP3 SLOAD PUSH2 0x1500 SWAP2 SWAP1 PUSH2 0x33F9 JUMP JUMPDEST DUP2 PUSH1 0xFF AND PUSH1 0x3 EQ DUP1 ISZERO PUSH2 0x158C JUMPI POP PUSH1 0x1 DUP4 ADD SLOAD PUSH1 0x1 PUSH1 0x60 SHL SWAP1 DIV PUSH4 0xFFFFFFFF AND ISZERO ISZERO JUMPDEST ISZERO PUSH2 0x15C7 JUMPI PUSH1 0x1 DUP4 ADD SLOAD PUSH1 0x15 SLOAD PUSH2 0x15B0 SWAP2 PUSH1 0x1 PUSH1 0x60 SHL SWAP1 DIV PUSH4 0xFFFFFFFF AND SWAP1 PUSH2 0x33E5 JUMP JUMPDEST SWAP1 POP DUP1 PUSH1 0x13 PUSH1 0x2 ADD PUSH1 0x0 DUP3 DUP3 SLOAD PUSH2 0x1500 SWAP2 SWAP1 PUSH2 0x33F9 JUMP JUMPDEST DUP2 PUSH1 0xFF AND PUSH1 0x4 SUB PUSH2 0x15F9 JUMPI POP PUSH32 0x0 PUSH2 0x1612 JUMP JUMPDEST PUSH1 0x40 MLOAD PUSH4 0x30C63921 PUSH1 0xE1 SHL DUP2 MSTORE PUSH1 0x4 ADD PUSH1 0x40 MLOAD DUP1 SWAP2 SUB SWAP1 REVERT JUMPDEST PUSH1 0x2 DUP5 ADD DUP1 SLOAD PUSH1 0xFF NOT AND PUSH1 0x1 OR SWAP1 SSTORE PUSH2 0x1655 PUSH1 0x1 PUSH1 0x1 PUSH1 0xA0 SHL SUB PUSH32 0x0 AND CALLER DUP4 PUSH2 0x242D JUMP JUMPDEST DUP4 SLOAD PUSH1 0x40 DUP1 MLOAD CALLER DUP2 MSTORE PUSH1 0xFF DUP6 AND PUSH1 0x20 DUP3 ADD MSTORE SWAP1 DUP2 ADD DUP4 SWAP1 MSTORE DUP7 SWAP2 PUSH1 0x1 PUSH1 0x28 SHL SWAP1 DIV PUSH3 0xFFFFFF AND SWAP1 PUSH32 0xFA7D7E6FAD77BB2EB32E03CD3103BCB3DF591EA9338A7395A149D9C180A170C7 SWAP1 PUSH1 0x60 ADD PUSH1 0x40 MLOAD DUP1 SWAP2 SUB SWAP1 LOG3 POP POP POP POP PUSH2 0xC17 PUSH1 0x1 PUSH1 0xA SSTORE JUMP JUMPDEST PUSH2 0x16BF PUSH2 0x17EC JUMP JUMPDEST PUSH1 0x16 DUP1 SLOAD PUSH1 0x0 SWAP1 SWAP2 SSTORE PUSH2 0x16FC PUSH1 0x1 PUSH1 0x1 PUSH1 0xA0 SHL SUB PUSH32 0x0 AND DUP4 DUP4 PUSH2 0x242D JUMP JUMPDEST PUSH1 0x40 DUP1 MLOAD PUSH1 0x1 PUSH1 0x1 PUSH1 0xA0 SHL SUB DUP5 AND DUP2 MSTORE PUSH1 0x20 DUP2 ADD DUP4 SWAP1 MSTORE PUSH32 0xC32A4A91927EBE92C55E1F8CD216C8A1D74E53B9B0A82B6B982E5DD3AC71AF03 SWAP2 ADD PUSH1 0x40 MLOAD DUP1 SWAP2 SUB SWAP1 LOG1 POP POP JUMP JUMPDEST PUSH1 0x1 PUSH1 0x1 PUSH1 0xA0 SHL SUB SWAP2 DUP3 AND PUSH1 0x0 SWAP1 DUP2 MSTORE PUSH1 0x5 PUSH1 0x20 SWAP1 DUP2 MSTORE PUSH1 0x40 DUP1 DUP4 KECCAK256 SWAP4 SWAP1 SWAP5 AND DUP3 MSTORE SWAP2 SWAP1 SWAP2 MSTORE KECCAK256 SLOAD PUSH1 0xFF AND SWAP1 JUMP JUMPDEST PUSH2 0x1778 PUSH2 0x17EC JUMP JUMPDEST PUSH2 0xC17 DUP2 PUSH2 0x245E JUMP JUMPDEST PUSH1 0x0 PUSH1 0x1 PUSH1 0x1 PUSH1 0xE0 SHL SUB NOT DUP3 AND PUSH4 0x780E9D63 PUSH1 0xE0 SHL EQ DUP1 PUSH2 0x78D JUMPI POP PUSH2 0x78D DUP3 PUSH2 0x2508 JUMP JUMPDEST PUSH1 0x0 DUP2 DUP2 MSTORE PUSH1 0x2 PUSH1 0x20 MSTORE PUSH1 0x40 DUP2 KECCAK256 SLOAD PUSH1 0x1 PUSH1 0x1 PUSH1 0xA0 SHL SUB AND DUP1 PUSH2 0x78D JUMPI PUSH1 0x40 MLOAD PUSH4 0x7E273289 PUSH1 0xE0 SHL DUP2 MSTORE PUSH1 0x4 DUP2 ADD DUP5 SWAP1 MSTORE PUSH1 0x24 ADD PUSH2 0x8BE JUMP JUMPDEST PUSH2 0x8D2 DUP4 DUP4 DUP4 PUSH1 0x1 PUSH2 0x2558 JUMP JUMPDEST PUSH1 0xB SLOAD PUSH1 0x1 PUSH1 0x1 PUSH1 0xA0 SHL SUB AND CALLER EQ PUSH2 0x183F JUMPI PUSH1 0x40 MLOAD PUSH3 0x461BCD PUSH1 0xE5 SHL DUP2 MSTORE PUSH1 0x20 PUSH1 0x4 DUP3 ADD MSTORE PUSH1 0x16 PUSH1 0x24 DUP3 ADD MSTORE PUSH22 0x27B7363C9031B0B63630B1363290313C9037BBB732B9 PUSH1 0x51 SHL PUSH1 0x44 DUP3 ADD MSTORE PUSH1 0x64 ADD PUSH2 0x8BE JUMP JUMPDEST JUMP JUMPDEST PUSH1 0x0 DUP4 DUP2 MSTORE PUSH1 0x1B PUSH1 0x20 SWAP1 DUP2 MSTORE PUSH1 0x40 DUP1 DUP4 KECCAK256 SLOAD PUSH3 0xFFFFFF AND DUP1 DUP5 MSTORE PUSH1 0x1A SWAP1 SWAP3 MSTORE DUP3 KECCAK256 SWAP1 SWAP2 DUP5 DUP5 DUP3 DUP2 PUSH2 0x1874 JUMPI PUSH2 0x1874 PUSH2 0x3302 JUMP JUMPDEST SWAP1 POP PUSH1 0x20 MUL ADD CALLDATALOAD SWAP1 POP PUSH1 0x19 DUP2 PUSH2 0x188A SWAP2 SWAP1 PUSH2 0x340C JUMP JUMPDEST DUP3 SLOAD PUSH1 0xFF NOT AND PUSH1 0xFF SWAP2 SWAP1 SWAP2 AND OR DUP3 SSTORE PUSH1 0x8 SHR PUSH2 0x18A7 PUSH1 0x19 DUP3 PUSH2 0x340C JUMP JUMPDEST DUP3 SLOAD PUSH1 0xFF SWAP2 SWAP1 SWAP2 AND PUSH2 0x100 MUL PUSH2 0xFF00 NOT SWAP1 SWAP2 AND OR DUP3 SSTORE PUSH1 0x8 SHR PUSH2 0x18CB PUSH1 0x19 DUP3 PUSH2 0x340C JUMP JUMPDEST DUP3 SLOAD PUSH1 0xFF SWAP2 SWAP1 SWAP2 AND PUSH3 0x10000 MUL PUSH3 0xFF0000 NOT SWAP1 SWAP2 AND OR DUP3 SSTORE PUSH1 0x8 SHR PUSH2 0x18F1 PUSH1 0x19 DUP3 PUSH2 0x340C JUMP JUMPDEST DUP3 SLOAD PUSH4 0xFF000000 NOT DUP2 AND PUSH4 0x1000000 PUSH1 0xFF SWAP4 DUP5 AND MUL SWAP1 DUP2 OR DUP1 DUP7 SSTORE PUSH1 0x1 DUP7 ADD DUP1 SLOAD PUSH17 0xFF000000000000000000000000FFFFFFFF NOT AND SWAP1 SSTORE PUSH1 0x40 DUP1 MLOAD SWAP3 DUP6 AND SWAP4 DUP6 AND SWAP4 SWAP1 SWAP4 OR DUP3 MSTORE PUSH1 0x8 DUP2 SWAP1 SHR DUP5 AND PUSH1 0x20 DUP4 ADD MSTORE PUSH1 0x10 DUP2 SWAP1 SHR DUP5 AND DUP3 DUP5 ADD MSTORE PUSH1 0x18 SHR SWAP1 SWAP3 AND PUSH1 0x60 DUP4 ADD MSTORE MLOAD PUSH3 0xFFFFFF DUP6 AND SWAP2 PUSH32 0x9DEDF238B51CB2F65E712B6F39AB9F3E89A6268D251B582C9CEEC37E6DDFBA63 SWAP2 SWAP1 DUP2 SWAP1 SUB PUSH1 0x80 ADD SWAP1 LOG2 POP POP POP POP POP POP JUMP JUMPDEST PUSH1 0x0 PUSH2 0x19A2 DUP5 DUP5 DUP5 PUSH2 0x265E JUMP JUMPDEST SWAP5 SWAP4 POP POP POP POP JUMP JUMPDEST PUSH1 0x2 PUSH1 0xA SLOAD SUB PUSH2 0x19CD JUMPI PUSH1 0x40 MLOAD PUSH4 0x3EE5AEB5 PUSH1 0xE0 SHL DUP2 MSTORE PUSH1 0x4 ADD PUSH1 0x40 MLOAD DUP1 SWAP2 SUB SWAP1 REVERT JUMPDEST PUSH1 0x2 PUSH1 0xA SSTORE JUMP JUMPDEST PUSH1 0x40 MLOAD PUSH1 0x1 PUSH1 0x1 PUSH1 0xA0 SHL SUB DUP5 DUP2 AND PUSH1 0x24 DUP4 ADD MSTORE DUP4 DUP2 AND PUSH1 0x44 DUP4 ADD MSTORE PUSH1 0x64 DUP3 ADD DUP4 SWAP1 MSTORE PUSH2 0x95C SWAP2 DUP7 SWAP2 DUP3 AND SWAP1 PUSH4 0x23B872DD SWAP1 PUSH1 0x84 ADD JUMPDEST PUSH1 0x40 MLOAD PUSH1 0x20 DUP2 DUP4 SUB SUB DUP2 MSTORE SWAP1 PUSH1 0x40 MSTORE SWAP2 POP PUSH1 0xE0 SHL PUSH1 0x20 DUP3 ADD DUP1 MLOAD PUSH1 0x1 PUSH1 0x1 PUSH1 0xE0 SHL SUB DUP4 DUP2 DUP4 AND OR DUP4 MSTORE POP POP POP POP PUSH2 0x272B JUMP JUMPDEST PUSH2 0x859 DUP3 DUP3 PUSH1 0x40 MLOAD DUP1 PUSH1 0x20 ADD PUSH1 0x40 MSTORE DUP1 PUSH1 0x0 DUP2 MSTORE POP PUSH2 0x278E JUMP JUMPDEST PUSH3 0xFFFFFF DUP2 AND PUSH1 0x0 SWAP1 DUP2 MSTORE PUSH1 0x12 PUSH1 0x20 MSTORE PUSH1 0x40 DUP2 KECCAK256 SLOAD SWAP1 DUP2 SWAP1 SUB PUSH2 0x1A76 JUMPI POP POP JUMP JUMPDEST PUSH1 0x0 PUSH2 0x1AA2 PUSH32 0x0 DUP4 PUSH2 0x3420 JUMP JUMPDEST SWAP1 POP PUSH1 0x0 PUSH1 0x64 PUSH2 0x1AB3 PUSH1 0x50 DUP5 PUSH2 0x3420 JUMP JUMPDEST PUSH2 0x1ABD SWAP2 SWAP1 PUSH2 0x33E5 JUMP JUMPDEST SWAP1 POP PUSH1 0x0 PUSH1 0x64 PUSH2 0x1ACE PUSH1 0x14 DUP6 PUSH2 0x3420 JUMP JUMPDEST PUSH2 0x1AD8 SWAP2 SWAP1 PUSH2 0x33E5 JUMP JUMPDEST SWAP1 POP PUSH1 0x64 PUSH2 0x1AE7 PUSH1 0x50 DUP5 PUSH2 0x3420 JUMP JUMPDEST PUSH2 0x1AF1 SWAP2 SWAP1 PUSH2 0x33E5 JUMP JUMPDEST PUSH1 0x13 DUP1 SLOAD PUSH1 0x0 SWAP1 PUSH2 0x1B03 SWAP1 DUP5 SWAP1 PUSH2 0x338D JUMP JUMPDEST SWAP1 SWAP2 SSTORE POP PUSH1 0x64 SWAP1 POP PUSH2 0x1B16 PUSH1 0xA DUP5 PUSH2 0x3420 JUMP JUMPDEST PUSH2 0x1B20 SWAP2 SWAP1 PUSH2 0x33E5 JUMP JUMPDEST PUSH1 0x14 DUP1 SLOAD PUSH1 0x0 SWAP1 PUSH2 0x1B32 SWAP1 DUP5 SWAP1 PUSH2 0x338D JUMP JUMPDEST SWAP1 SWAP2 SSTORE POP PUSH1 0x64 SWAP1 POP PUSH2 0x1B45 PUSH1 0x5 DUP5 PUSH2 0x3420 JUMP JUMPDEST PUSH2 0x1B4F SWAP2 SWAP1 PUSH2 0x33E5 JUMP JUMPDEST PUSH1 0x15 DUP1 SLOAD PUSH1 0x0 SWAP1 PUSH2 0x1B61 SWAP1 DUP5 SWAP1 PUSH2 0x338D JUMP JUMPDEST SWAP1 SWAP2 SSTORE POP PUSH1 0x64 SWAP1 POP PUSH2 0x1B74 PUSH1 0x5 DUP5 PUSH2 0x3420 JUMP JUMPDEST PUSH2 0x1B7E SWAP2 SWAP1 PUSH2 0x33E5 JUMP JUMPDEST PUSH1 0x16 DUP1 SLOAD PUSH1 0x0 SWAP1 PUSH2 0x1B90 SWAP1 DUP5 SWAP1 PUSH2 0x338D JUMP JUMPDEST SWAP1 SWAP2 SSTORE POP PUSH1 0x64 SWAP1 POP PUSH2 0x1BA3 PUSH1 0x50 DUP4 PUSH2 0x3420 JUMP JUMPDEST PUSH2 0x1BAD SWAP2 SWAP1 PUSH2 0x33E5 JUMP JUMPDEST PUSH1 0x17 DUP1 SLOAD PUSH1 0x0 SWAP1 PUSH2 0x1BBF SWAP1 DUP5 SWAP1 PUSH2 0x338D JUMP JUMPDEST SWAP1 SWAP2 SSTORE POP PUSH1 0x64 SWAP1 POP PUSH2 0x1BD2 PUSH1 0xA DUP4 PUSH2 0x3420 JUMP JUMPDEST PUSH2 0x1BDC SWAP2 SWAP1 PUSH2 0x33E5 JUMP JUMPDEST PUSH1 0x18 DUP1 SLOAD PUSH1 0x0 SWAP1 PUSH2 0x1BEE SWAP1 DUP5 SWAP1 PUSH2 0x338D JUMP JUMPDEST SWAP1 SWAP2 SSTORE POP PUSH1 0x64 SWAP1 POP PUSH2 0x1C01 PUSH1 0xA DUP4 PUSH2 0x3420 JUMP JUMPDEST PUSH2 0x1C0B SWAP2 SWAP1 PUSH2 0x33E5 JUMP JUMPDEST PUSH1 0x19 DUP1 SLOAD PUSH1 0x0 SWAP1 PUSH2 0x1C1D SWAP1 DUP5 SWAP1 PUSH2 0x338D JUMP JUMPDEST SWAP1 SWAP2 SSTORE POP POP POP POP POP POP POP JUMP JUMPDEST PUSH1 0x0 PUSH32 0x0 PUSH1 0x1 PUSH1 0x1 PUSH1 0xA0 SHL SUB AND PUSH4 0x9B1C385E PUSH1 0x40 MLOAD DUP1 PUSH1 0xC0 ADD PUSH1 0x40 MSTORE DUP1 PUSH32 0x0 DUP2 MSTORE PUSH1 0x20 ADD PUSH32 0x0 DUP2 MSTORE PUSH1 0x20 ADD PUSH1 0x3 PUSH2 0xFFFF AND DUP2 MSTORE PUSH1 0x20 ADD PUSH3 0x493E0 PUSH4 0xFFFFFFFF AND DUP2 MSTORE PUSH1 0x20 ADD PUSH1 0x1 PUSH4 0xFFFFFFFF AND DUP2 MSTORE PUSH1 0x20 ADD PUSH2 0x1CF2 PUSH1 0x40 MLOAD DUP1 PUSH1 0x20 ADD PUSH1 0x40 MSTORE DUP1 PUSH1 0x0 ISZERO ISZERO DUP2 MSTORE POP PUSH2 0x27A5 JUMP JUMPDEST DUP2 MSTORE POP PUSH1 0x40 MLOAD DUP3 PUSH4 0xFFFFFFFF AND PUSH1 0xE0 SHL DUP2 MSTORE PUSH1 0x4 ADD PUSH2 0x1D11 SWAP2 SWAP1 PUSH2 0x3437 JUMP JUMPDEST PUSH1 0x20 PUSH1 0x40 MLOAD DUP1 DUP4 SUB DUP2 PUSH1 0x0 DUP8 GAS CALL ISZERO DUP1 ISZERO PUSH2 0x1D30 JUMPI RETURNDATASIZE PUSH1 0x0 DUP1 RETURNDATACOPY RETURNDATASIZE PUSH1 0x0 REVERT JUMPDEST POP POP POP POP PUSH1 0x40 MLOAD RETURNDATASIZE PUSH1 0x1F NOT PUSH1 0x1F DUP3 ADD AND DUP3 ADD DUP1 PUSH1 0x40 MSTORE POP DUP2 ADD SWAP1 PUSH2 0x1D54 SWAP2 SWAP1 PUSH2 0x3494 JUMP JUMPDEST PUSH1 0x0 DUP2 DUP2 MSTORE PUSH1 0x1B PUSH1 0x20 MSTORE PUSH1 0x40 DUP1 DUP3 KECCAK256 DUP1 SLOAD PUSH3 0xFFFFFF NOT AND PUSH3 0xFFFFFF DUP8 AND SWAP1 DUP2 OR SWAP1 SWAP2 SSTORE SWAP1 MLOAD SWAP3 SWAP4 POP SWAP2 DUP4 SWAP2 PUSH32 0x6D9C99357D359EBC464C51FB3162F671B2BD8FECD626DD9F4F5E329076AA00F2 SWAP2 LOG3 POP POP JUMP JUMPDEST PUSH1 0x0 DUP3 DUP2 MSTORE PUSH1 0x11 PUSH1 0x20 MSTORE PUSH1 0x40 DUP1 DUP3 KECCAK256 DUP2 MLOAD PUSH1 0x80 DUP2 ADD SWAP3 DUP4 SWAP1 MSTORE SWAP1 SWAP3 SWAP2 DUP5 SWAP1 PUSH1 0x4 SWAP1 DUP3 DUP6 DUP6 JUMPDEST DUP3 SLOAD PUSH2 0x100 DUP4 SWAP1 EXP SWAP1 DIV PUSH1 0xFF AND DUP2 MSTORE PUSH1 0x20 PUSH1 0x1 SWAP3 DUP4 ADD DUP2 DUP2 DIV SWAP5 DUP6 ADD SWAP5 SWAP1 SWAP4 SUB SWAP1 SWAP3 MUL SWAP2 ADD DUP1 DUP5 GT PUSH2 0x1DCB JUMPI SWAP1 POP POP POP POP POP POP SWAP1 POP PUSH1 0x0 DUP1 JUMPDEST PUSH1 0x4 DUP2 LT ISZERO PUSH2 0x1E66 JUMPI DUP3 DUP2 PUSH1 0x4 DUP2 LT PUSH2 0x1E1F JUMPI PUSH2 0x1E1F PUSH2 0x3302 JUMP JUMPDEST PUSH1 0x20 MUL ADD MLOAD PUSH1 0xFF AND DUP5 PUSH1 0x1 ADD DUP3 PUSH1 0x4 DUP2 LT PUSH2 0x1E3C JUMPI PUSH2 0x1E3C PUSH2 0x3302 JUMP JUMPDEST PUSH1 0x20 DUP2 DIV SWAP1 SWAP2 ADD SLOAD PUSH1 0xFF PUSH1 0x1F SWAP1 SWAP3 AND PUSH2 0x100 EXP SWAP1 DIV AND SUB PUSH2 0x1E5E JUMPI DUP2 PUSH1 0x1 ADD SWAP2 POP JUMPDEST PUSH1 0x1 ADD PUSH2 0x1E04 JUMP JUMPDEST POP DUP1 PUSH1 0xFF AND PUSH1 0x4 SUB PUSH2 0x1EB7 JUMPI PUSH1 0x1 DUP5 ADD DUP1 SLOAD PUSH1 0x4 SWAP1 PUSH2 0x1E92 SWAP1 PUSH5 0x100000000 SWAP1 DIV PUSH4 0xFFFFFFFF AND PUSH2 0x34AD JUMP JUMPDEST SWAP2 SWAP1 PUSH2 0x100 EXP DUP2 SLOAD DUP2 PUSH4 0xFFFFFFFF MUL NOT AND SWAP1 DUP4 PUSH4 0xFFFFFFFF AND MUL OR SWAP1 SSTORE POP POP POP POP POP POP JUMP JUMPDEST DUP1 PUSH1 0xFF AND PUSH1 0x3 SUB PUSH2 0x1EE1 JUMPI PUSH1 0x1 DUP5 ADD DUP1 SLOAD PUSH1 0xC SWAP1 PUSH2 0x1E92 SWAP1 PUSH1 0x1 PUSH1 0x60 SHL SWAP1 DIV PUSH4 0xFFFFFFFF AND PUSH2 0x34AD JUMP JUMPDEST PUSH2 0x1EE9 PUSH2 0x2E66 JUMP JUMPDEST PUSH1 0x0 DUP1 JUMPDEST PUSH1 0x4 DUP2 LT ISZERO PUSH2 0x1F49 JUMPI DUP3 DUP7 PUSH1 0x1 ADD DUP3 PUSH1 0x4 DUP2 LT PUSH2 0x1F0C JUMPI PUSH2 0x1F0C PUSH2 0x3302 JUMP JUMPDEST PUSH1 0x20 DUP2 DIV SWAP1 SWAP2 ADD SLOAD PUSH1 0xFF PUSH1 0x1F SWAP1 SWAP3 AND PUSH2 0x100 EXP SWAP1 DIV AND PUSH1 0x19 DUP2 LT PUSH2 0x1F32 JUMPI PUSH2 0x1F32 PUSH2 0x3302 JUMP JUMPDEST PUSH1 0x20 MUL ADD DUP1 MLOAD PUSH1 0xFF PUSH1 0x1 SWAP2 DUP3 ADD AND SWAP1 SWAP2 MSTORE ADD PUSH2 0x1EED JUMP JUMPDEST POP PUSH1 0x0 JUMPDEST PUSH1 0x4 DUP2 LT ISZERO PUSH2 0x1FDA JUMPI PUSH1 0x0 DUP4 DUP7 DUP4 PUSH1 0x4 DUP2 LT PUSH2 0x1F6B JUMPI PUSH2 0x1F6B PUSH2 0x3302 JUMP JUMPDEST PUSH1 0x20 MUL ADD MLOAD PUSH1 0xFF AND PUSH1 0x19 DUP2 LT PUSH2 0x1F83 JUMPI PUSH2 0x1F83 PUSH2 0x3302 JUMP JUMPDEST PUSH1 0x20 MUL ADD MLOAD PUSH1 0xFF AND GT ISZERO PUSH2 0x1FD2 JUMPI DUP2 PUSH1 0x1 ADD SWAP2 POP DUP3 DUP6 DUP3 PUSH1 0x4 DUP2 LT PUSH2 0x1FAA JUMPI PUSH2 0x1FAA PUSH2 0x3302 JUMP JUMPDEST PUSH1 0x20 MUL ADD MLOAD PUSH1 0xFF AND PUSH1 0x19 DUP2 LT PUSH2 0x1FC2 JUMPI PUSH2 0x1FC2 PUSH2 0x3302 JUMP JUMPDEST PUSH1 0x20 MUL ADD DUP1 MLOAD PUSH1 0x0 NOT ADD PUSH1 0xFF AND SWAP1 MSTORE JUMPDEST PUSH1 0x1 ADD PUSH2 0x1F4D JUMP JUMPDEST POP DUP1 PUSH1 0xFF AND PUSH1 0x4 SUB PUSH2 0x2024 JUMPI PUSH1 0x1 DUP7 ADD DUP1 SLOAD PUSH1 0x8 SWAP1 PUSH2 0x2005 SWAP1 PUSH1 0x1 PUSH1 0x40 SHL SWAP1 DIV PUSH4 0xFFFFFFFF AND PUSH2 0x34AD JUMP JUMPDEST SWAP2 SWAP1 PUSH2 0x100 EXP DUP2 SLOAD DUP2 PUSH4 0xFFFFFFFF MUL NOT AND SWAP1 DUP4 PUSH4 0xFFFFFFFF AND MUL OR SWAP1 SSTORE POP JUMPDEST POP POP POP POP POP POP POP JUMP JUMPDEST PUSH1 0x1 PUSH1 0x1 PUSH1 0xA0 SHL SUB DUP3 AND PUSH2 0x205F JUMPI PUSH1 0x40 MLOAD PUSH4 0xB611743 PUSH1 0xE3 SHL DUP2 MSTORE PUSH1 0x1 PUSH1 0x1 PUSH1 0xA0 SHL SUB DUP4 AND PUSH1 0x4 DUP3 ADD MSTORE PUSH1 0x24 ADD PUSH2 0x8BE JUMP JUMPDEST PUSH1 0x1 PUSH1 0x1 PUSH1 0xA0 SHL SUB DUP4 DUP2 AND PUSH1 0x0 DUP2 DUP2 MSTORE PUSH1 0x5 PUSH1 0x20 SWAP1 DUP2 MSTORE PUSH1 0x40 DUP1 DUP4 KECCAK256 SWAP5 DUP8 AND DUP1 DUP5 MSTORE SWAP5 DUP3 MSTORE SWAP2 DUP3 SWAP1 KECCAK256 DUP1 SLOAD PUSH1 0xFF NOT AND DUP7 ISZERO ISZERO SWAP1 DUP2 OR SWAP1 SWAP2 SSTORE SWAP2 MLOAD SWAP2 DUP3 MSTORE PUSH32 0x17307EAB39AB6107E8899845AD3D59BD9653F200F220920489CA2B5937696C31 SWAP2 ADD PUSH1 0x40 MLOAD DUP1 SWAP2 SUB SWAP1 LOG3 POP POP POP JUMP JUMPDEST PUSH1 0x1 PUSH1 0x1 PUSH1 0xA0 SHL SUB DUP4 AND EXTCODESIZE ISZERO PUSH2 0x95C JUMPI PUSH1 0x40 MLOAD PUSH4 0xA85BD01 PUSH1 0xE1 SHL DUP2 MSTORE PUSH1 0x1 PUSH1 0x1 PUSH1 0xA0 SHL SUB DUP5 AND SWAP1 PUSH4 0x150B7A02 SWAP1 PUSH2 0x210E SWAP1 CALLER SWAP1 DUP9 SWAP1 DUP8 SWAP1 DUP8 SWAP1 PUSH1 0x4 ADD PUSH2 0x34D0 JUMP JUMPDEST PUSH1 0x20 PUSH1 0x40 MLOAD DUP1 DUP4 SUB DUP2 PUSH1 0x0 DUP8 GAS CALL SWAP3 POP POP POP DUP1 ISZERO PUSH2 0x2149 JUMPI POP PUSH1 0x40 DUP1 MLOAD PUSH1 0x1F RETURNDATASIZE SWAP1 DUP2 ADD PUSH1 0x1F NOT AND DUP3 ADD SWAP1 SWAP3 MSTORE PUSH2 0x2146 SWAP2 DUP2 ADD SWAP1 PUSH2 0x3503 JUMP JUMPDEST PUSH1 0x1 JUMPDEST PUSH2 0x21B2 JUMPI RETURNDATASIZE DUP1 DUP1 ISZERO PUSH2 0x2177 JUMPI PUSH1 0x40 MLOAD SWAP2 POP PUSH1 0x1F NOT PUSH1 0x3F RETURNDATASIZE ADD AND DUP3 ADD PUSH1 0x40 MSTORE RETURNDATASIZE DUP3 MSTORE RETURNDATASIZE PUSH1 0x0 PUSH1 0x20 DUP5 ADD RETURNDATACOPY PUSH2 0x217C JUMP JUMPDEST PUSH1 0x60 SWAP2 POP JUMPDEST POP DUP1 MLOAD PUSH1 0x0 SUB PUSH2 0x21AA JUMPI PUSH1 0x40 MLOAD PUSH4 0x32505749 PUSH1 0xE1 SHL DUP2 MSTORE PUSH1 0x1 PUSH1 0x1 PUSH1 0xA0 SHL SUB DUP6 AND PUSH1 0x4 DUP3 ADD MSTORE PUSH1 0x24 ADD PUSH2 0x8BE JUMP JUMPDEST DUP1 MLOAD DUP2 PUSH1 0x20 ADD REVERT JUMPDEST PUSH1 0x1 PUSH1 0x1 PUSH1 0xE0 SHL SUB NOT DUP2 AND PUSH4 0xA85BD01 PUSH1 0xE1 SHL EQ PUSH2 0x21EE JUMPI PUSH1 0x40 MLOAD PUSH4 0x32505749 PUSH1 0xE1 SHL DUP2 MSTORE PUSH1 0x1 PUSH1 0x1 PUSH1 0xA0 SHL SUB DUP6 AND PUSH1 0x4 DUP3 ADD MSTORE PUSH1 0x24 ADD PUSH2 0x8BE JUMP JUMPDEST POP POP POP POP POP JUMP JUMPDEST PUSH1 0x60 PUSH1 0x0 PUSH2 0x2202 DUP4 PUSH2 0x2816 JUMP JUMPDEST PUSH1 0x1 ADD SWAP1 POP PUSH1 0x0 DUP2 PUSH8 0xFFFFFFFFFFFFFFFF DUP2 GT ISZERO PUSH2 0x2222 JUMPI PUSH2 0x2222 PUSH2 0x318E JUMP JUMPDEST PUSH1 0x40 MLOAD SWAP1 DUP1 DUP3 MSTORE DUP1 PUSH1 0x1F ADD PUSH1 0x1F NOT AND PUSH1 0x20 ADD DUP3 ADD PUSH1 0x40 MSTORE DUP1 ISZERO PUSH2 0x224C JUMPI PUSH1 0x20 DUP3 ADD DUP2 DUP1 CALLDATASIZE DUP4 CALLDATACOPY ADD SWAP1 POP JUMPDEST POP SWAP1 POP DUP2 DUP2 ADD PUSH1 0x20 ADD JUMPDEST PUSH1 0x0 NOT ADD PUSH16 0x181899199A1A9B1B9C1CB0B131B232B3 PUSH1 0x81 SHL PUSH1 0xA DUP7 MOD BYTE DUP2 MSTORE8 PUSH1 0xA DUP6 DIV SWAP5 POP DUP5 PUSH2 0x2256 JUMPI POP SWAP4 SWAP3 POP POP POP JUMP JUMPDEST PUSH1 0x0 DUP1 PUSH1 0x0 JUMPDEST PUSH1 0x4 DUP2 LT ISZERO PUSH2 0x22DF JUMPI DUP4 DUP2 PUSH1 0x4 DUP2 LT PUSH2 0x22A9 JUMPI PUSH2 0x22A9 PUSH2 0x3302 JUMP JUMPDEST PUSH1 0x20 MUL ADD MLOAD PUSH1 0xFF AND DUP6 DUP3 PUSH1 0x4 DUP2 LT PUSH2 0x22C3 JUMPI PUSH2 0x22C3 PUSH2 0x3302 JUMP JUMPDEST PUSH1 0x20 MUL ADD MLOAD PUSH1 0xFF AND SUB PUSH2 0x22D7 JUMPI DUP2 PUSH1 0x1 ADD SWAP2 POP JUMPDEST PUSH1 0x1 ADD PUSH2 0x228E JUMP JUMPDEST POP DUP1 PUSH1 0xFF AND PUSH1 0x4 SUB PUSH2 0x22F5 JUMPI PUSH1 0x1 SWAP2 POP POP PUSH2 0x78D JUMP JUMPDEST DUP1 PUSH1 0xFF AND PUSH1 0x3 SUB PUSH2 0x230A JUMPI PUSH1 0x3 SWAP2 POP POP PUSH2 0x78D JUMP JUMPDEST PUSH2 0x2312 PUSH2 0x2E66 JUMP JUMPDEST PUSH1 0x0 DUP1 JUMPDEST PUSH1 0x4 DUP2 LT ISZERO PUSH2 0x2361 JUMPI DUP3 DUP8 DUP3 PUSH1 0x4 DUP2 LT PUSH2 0x2332 JUMPI PUSH2 0x2332 PUSH2 0x3302 JUMP JUMPDEST PUSH1 0x20 MUL ADD MLOAD PUSH1 0xFF AND PUSH1 0x19 DUP2 LT PUSH2 0x234A JUMPI PUSH2 0x234A PUSH2 0x3302 JUMP JUMPDEST PUSH1 0x20 MUL ADD DUP1 MLOAD PUSH1 0xFF PUSH1 0x1 SWAP2 DUP3 ADD AND SWAP1 SWAP2 MSTORE ADD PUSH2 0x2316 JUMP JUMPDEST POP PUSH1 0x0 JUMPDEST PUSH1 0x4 DUP2 LT ISZERO PUSH2 0x23F2 JUMPI PUSH1 0x0 DUP4 DUP8 DUP4 PUSH1 0x4 DUP2 LT PUSH2 0x2383 JUMPI PUSH2 0x2383 PUSH2 0x3302 JUMP JUMPDEST PUSH1 0x20 MUL ADD MLOAD PUSH1 0xFF AND PUSH1 0x19 DUP2 LT PUSH2 0x239B JUMPI PUSH2 0x239B PUSH2 0x3302 JUMP JUMPDEST PUSH1 0x20 MUL ADD MLOAD PUSH1 0xFF AND GT ISZERO PUSH2 0x23EA JUMPI DUP2 PUSH1 0x1 ADD SWAP2 POP DUP3 DUP7 DUP3 PUSH1 0x4 DUP2 LT PUSH2 0x23C2 JUMPI PUSH2 0x23C2 PUSH2 0x3302 JUMP JUMPDEST PUSH1 0x20 MUL ADD MLOAD PUSH1 0xFF AND PUSH1 0x19 DUP2 LT PUSH2 0x23DA JUMPI PUSH2 0x23DA PUSH2 0x3302 JUMP JUMPDEST PUSH1 0x20 MUL ADD DUP1 MLOAD PUSH1 0x0 NOT ADD PUSH1 0xFF AND SWAP1 MSTORE JUMPDEST PUSH1 0x1 ADD PUSH2 0x2365 JUMP JUMPDEST POP DUP1 PUSH1 0xFF AND PUSH1 0x4 SUB PUSH2 0x240A JUMPI PUSH1 0x2 SWAP4 POP POP POP POP PUSH2 0x78D JUMP JUMPDEST DUP1 PUSH1 0xFF AND PUSH1 0x3 SUB PUSH2 0x2421 JUMPI PUSH1 0x4 SWAP4 POP POP POP POP PUSH2 0x78D JUMP JUMPDEST POP PUSH1 0x0 SWAP6 SWAP5 POP POP POP POP POP JUMP JUMPDEST PUSH1 0x40 MLOAD PUSH1 0x1 PUSH1 0x1 PUSH1 0xA0 SHL SUB DUP4 DUP2 AND PUSH1 0x24 DUP4 ADD MSTORE PUSH1 0x44 DUP3 ADD DUP4 SWAP1 MSTORE PUSH2 0x8D2 SWAP2 DUP6 SWAP2 DUP3 AND SWAP1 PUSH4 0xA9059CBB SWAP1 PUSH1 0x64 ADD PUSH2 0x1A09 JUMP JUMPDEST CALLER PUSH1 0x1 PUSH1 0x1 PUSH1 0xA0 SHL SUB DUP3 AND SUB PUSH2 0x24B6 JUMPI PUSH1 0x40 MLOAD PUSH3 0x461BCD PUSH1 0xE5 SHL DUP2 MSTORE PUSH1 0x20 PUSH1 0x4 DUP3 ADD MSTORE PUSH1 0x17 PUSH1 0x24 DUP3 ADD MSTORE PUSH32 0x43616E6E6F74207472616E7366657220746F2073656C66000000000000000000 PUSH1 0x44 DUP3 ADD MSTORE PUSH1 0x64 ADD PUSH2 0x8BE JUMP JUMPDEST PUSH1 0xC DUP1 SLOAD PUSH1 0x1 PUSH1 0x1 PUSH1 0xA0 SHL SUB NOT AND PUSH1 0x1 PUSH1 0x1 PUSH1 0xA0 SHL SUB DUP4 DUP2 AND SWAP2 DUP3 OR SWAP1 SWAP3 SSTORE PUSH1 0xB SLOAD PUSH1 0x40 MLOAD SWAP2 SWAP3 AND SWAP1 PUSH32 0xED8889F560326EB138920D842192F0EB3DD22B4F139C87A2C57538E05BAE1278 SWAP1 PUSH1 0x0 SWAP1 LOG3 POP JUMP JUMPDEST PUSH1 0x0 PUSH1 0x1 PUSH1 0x1 PUSH1 0xE0 SHL SUB NOT DUP3 AND PUSH4 0x80AC58CD PUSH1 0xE0 SHL EQ DUP1 PUSH2 0x2539 JUMPI POP PUSH1 0x1 PUSH1 0x1 PUSH1 0xE0 SHL SUB NOT DUP3 AND PUSH4 0x5B5E139F PUSH1 0xE0 SHL EQ JUMPDEST DUP1 PUSH2 0x78D JUMPI POP PUSH4 0x1FFC9A7 PUSH1 0xE0 SHL PUSH1 0x1 PUSH1 0x1 PUSH1 0xE0 SHL SUB NOT DUP4 AND EQ PUSH2 0x78D JUMP JUMPDEST DUP1 DUP1 PUSH2 0x256C JUMPI POP PUSH1 0x1 PUSH1 0x1 PUSH1 0xA0 SHL SUB DUP3 AND ISZERO ISZERO JUMPDEST ISZERO PUSH2 0x262E JUMPI PUSH1 0x0 PUSH2 0x257C DUP5 PUSH2 0x17A6 JUMP JUMPDEST SWAP1 POP PUSH1 0x1 PUSH1 0x1 PUSH1 0xA0 SHL SUB DUP4 AND ISZERO DUP1 ISZERO SWAP1 PUSH2 0x25A8 JUMPI POP DUP3 PUSH1 0x1 PUSH1 0x1 PUSH1 0xA0 SHL SUB AND DUP2 PUSH1 0x1 PUSH1 0x1 PUSH1 0xA0 SHL SUB AND EQ ISZERO JUMPDEST DUP1 ISZERO PUSH2 0x25BB JUMPI POP PUSH2 0x25B9 DUP2 DUP5 PUSH2 0x1742 JUMP JUMPDEST ISZERO JUMPDEST ISZERO PUSH2 0x25E4 JUMPI PUSH1 0x40 MLOAD PUSH4 0xA9FBF51F PUSH1 0xE0 SHL DUP2 MSTORE PUSH1 0x1 PUSH1 0x1 PUSH1 0xA0 SHL SUB DUP5 AND PUSH1 0x4 DUP3 ADD MSTORE PUSH1 0x24 ADD PUSH2 0x8BE JUMP JUMPDEST DUP2 ISZERO PUSH2 0x262C JUMPI DUP4 DUP6 PUSH1 0x1 PUSH1 0x1 PUSH1 0xA0 SHL SUB AND DUP3 PUSH1 0x1 PUSH1 0x1 PUSH1 0xA0 SHL SUB AND PUSH32 0x8C5BE1E5EBEC7D5BD14F71427D1E84F3DD0314C0F7B2291E5B200AC8C7C3B925 PUSH1 0x40 MLOAD PUSH1 0x40 MLOAD DUP1 SWAP2 SUB SWAP1 LOG4 JUMPDEST POP JUMPDEST POP POP PUSH1 0x0 SWAP1 DUP2 MSTORE PUSH1 0x4 PUSH1 0x20 MSTORE PUSH1 0x40 SWAP1 KECCAK256 DUP1 SLOAD PUSH1 0x1 PUSH1 0x1 PUSH1 0xA0 SHL SUB NOT AND PUSH1 0x1 PUSH1 0x1 PUSH1 0xA0 SHL SUB SWAP3 SWAP1 SWAP3 AND SWAP2 SWAP1 SWAP2 OR SWAP1 SSTORE JUMP JUMPDEST PUSH1 0x0 DUP1 PUSH2 0x266C DUP6 DUP6 DUP6 PUSH2 0x28EE JUMP JUMPDEST SWAP1 POP PUSH1 0x1 PUSH1 0x1 PUSH1 0xA0 SHL SUB DUP2 AND PUSH2 0x26C9 JUMPI PUSH2 0x26C4 DUP5 PUSH1 0x8 DUP1 SLOAD PUSH1 0x0 DUP4 DUP2 MSTORE PUSH1 0x9 PUSH1 0x20 MSTORE PUSH1 0x40 DUP2 KECCAK256 DUP3 SWAP1 SSTORE PUSH1 0x1 DUP3 ADD DUP4 SSTORE SWAP2 SWAP1 SWAP2 MSTORE PUSH32 0xF3F7A9FE364FAAB93B216DA50A3214154F22A0A2B415B23A84C8169E8B636EE3 ADD SSTORE JUMP JUMPDEST PUSH2 0x26EC JUMP JUMPDEST DUP5 PUSH1 0x1 PUSH1 0x1 PUSH1 0xA0 SHL SUB AND DUP2 PUSH1 0x1 PUSH1 0x1 PUSH1 0xA0 SHL SUB AND EQ PUSH2 0x26EC JUMPI PUSH2 0x26EC DUP2 DUP6 PUSH2 0x29E7 JUMP JUMPDEST PUSH1 0x1 PUSH1 0x1 PUSH1 0xA0 SHL SUB DUP6 AND PUSH2 0x2708 JUMPI PUSH2 0x2703 DUP5 PUSH2 0x2A78 JUMP JUMPDEST PUSH2 0x19A2 JUMP JUMPDEST DUP5 PUSH1 0x1 PUSH1 0x1 PUSH1 0xA0 SHL SUB AND DUP2 PUSH1 0x1 PUSH1 0x1 PUSH1 0xA0 SHL SUB AND EQ PUSH2 0x19A2 JUMPI PUSH2 0x19A2 DUP6 DUP6 PUSH2 0x2B27 JUMP JUMPDEST PUSH1 0x0 PUSH2 0x2740 PUSH1 0x1 PUSH1 0x1 PUSH1 0xA0 SHL SUB DUP5 AND DUP4 PUSH2 0x2B77 JUMP JUMPDEST SWAP1 POP DUP1 MLOAD PUSH1 0x0 EQ ISZERO DUP1 ISZERO PUSH2 0x2765 JUMPI POP DUP1 DUP1 PUSH1 0x20 ADD SWAP1 MLOAD DUP2 ADD SWAP1 PUSH2 0x2763 SWAP2 SWAP1 PUSH2 0x3520 JUMP JUMPDEST ISZERO JUMPDEST ISZERO PUSH2 0x8D2 JUMPI PUSH1 0x40 MLOAD PUSH4 0x5274AFE7 PUSH1 0xE0 SHL DUP2 MSTORE PUSH1 0x1 PUSH1 0x1 PUSH1 0xA0 SHL SUB DUP5 AND PUSH1 0x4 DUP3 ADD MSTORE PUSH1 0x24 ADD PUSH2 0x8BE JUMP JUMPDEST PUSH2 0x2798 DUP4 DUP4 PUSH2 0x2B85 JUMP JUMPDEST PUSH2 0x8D2 PUSH1 0x0 DUP5 DUP5 DUP5 PUSH2 0x20CC JUMP JUMPDEST PUSH1 0x60 PUSH32 0x92FD13387C7FE7BEFBC38D303D6468778FB9731BC4583F17D92989C6FCFDEAAA DUP3 PUSH1 0x40 MLOAD PUSH1 0x24 ADD PUSH2 0x27DE SWAP2 MLOAD ISZERO ISZERO DUP2 MSTORE PUSH1 0x20 ADD SWAP1 JUMP JUMPDEST PUSH1 0x40 DUP1 MLOAD PUSH1 0x1F NOT DUP2 DUP5 SUB ADD DUP2 MSTORE SWAP2 SWAP1 MSTORE PUSH1 0x20 DUP2 ADD DUP1 MLOAD PUSH1 0x1 PUSH1 0x1 PUSH1 0xE0 SHL SUB AND PUSH1 0x1 PUSH1 0x1 PUSH1 0xE0 SHL SUB NOT SWAP1 SWAP4 AND SWAP3 SWAP1 SWAP3 OR SWAP1 SWAP2 MSTORE SWAP3 SWAP2 POP POP JUMP JUMPDEST PUSH1 0x0 DUP1 PUSH19 0x184F03E93FF9F4DAA797ED6E38ED64BF6A1F01 PUSH1 0x40 SHL DUP4 LT PUSH2 0x2855 JUMPI PUSH19 0x184F03E93FF9F4DAA797ED6E38ED64BF6A1F01 PUSH1 0x40 SHL DUP4 DIV SWAP3 POP PUSH1 0x40 ADD JUMPDEST PUSH14 0x4EE2D6D415B85ACEF8100000000 DUP4 LT PUSH2 0x2881 JUMPI PUSH14 0x4EE2D6D415B85ACEF8100000000 DUP4 DIV SWAP3 POP PUSH1 0x20 ADD JUMPDEST PUSH7 0x2386F26FC10000 DUP4 LT PUSH2 0x289F JUMPI PUSH7 0x2386F26FC10000 DUP4 DIV SWAP3 POP PUSH1 0x10 ADD JUMPDEST PUSH4 0x5F5E100 DUP4 LT PUSH2 0x28B7 JUMPI PUSH4 0x5F5E100 DUP4 DIV SWAP3 POP PUSH1 0x8 ADD JUMPDEST PUSH2 0x2710 DUP4 LT PUSH2 0x28CB JUMPI PUSH2 0x2710 DUP4 DIV SWAP3 POP PUSH1 0x4 ADD JUMPDEST PUSH1 0x64 DUP4 LT PUSH2 0x28DD JUMPI PUSH1 0x64 DUP4 DIV SWAP3 POP PUSH1 0x2 ADD JUMPDEST PUSH1 0xA DUP4 LT PUSH2 0x78D JUMPI PUSH1 0x1 ADD SWAP3 SWAP2 POP POP JUMP JUMPDEST PUSH1 0x0 DUP3 DUP2 MSTORE PUSH1 0x2 PUSH1 0x20 MSTORE PUSH1 0x40 DUP2 KECCAK256 SLOAD PUSH1 0x1 PUSH1 0x1 PUSH1 0xA0 SHL SUB SWAP1 DUP2 AND SWAP1 DUP4 AND ISZERO PUSH2 0x291B JUMPI PUSH2 0x291B DUP2 DUP5 DUP7 PUSH2 0x2BEA JUMP JUMPDEST PUSH1 0x1 PUSH1 0x1 PUSH1 0xA0 SHL SUB DUP2 AND ISZERO PUSH2 0x2959 JUMPI PUSH2 0x2938 PUSH1 0x0 DUP6 PUSH1 0x0 DUP1 PUSH2 0x2558 JUMP JUMPDEST PUSH1 0x1 PUSH1 0x1 PUSH1 0xA0 SHL SUB DUP2 AND PUSH1 0x0 SWAP1 DUP2 MSTORE PUSH1 0x3 PUSH1 0x20 MSTORE PUSH1 0x40 SWAP1 KECCAK256 DUP1 SLOAD PUSH1 0x0 NOT ADD SWAP1 SSTORE JUMPDEST PUSH1 0x1 PUSH1 0x1 PUSH1 0xA0 SHL SUB DUP6 AND ISZERO PUSH2 0x2988 JUMPI PUSH1 0x1 PUSH1 0x1 PUSH1 0xA0 SHL SUB DUP6 AND PUSH1 0x0 SWAP1 DUP2 MSTORE PUSH1 0x3 PUSH1 0x20 MSTORE PUSH1 0x40 SWAP1 KECCAK256 DUP1 SLOAD PUSH1 0x1 ADD SWAP1 SSTORE JUMPDEST PUSH1 0x0 DUP5 DUP2 MSTORE PUSH1 0x2 PUSH1 0x20 MSTORE PUSH1 0x40 DUP1 DUP3 KECCAK256 DUP1 SLOAD PUSH1 0x1 PUSH1 0x1 PUSH1 0xA0 SHL SUB NOT AND PUSH1 0x1 PUSH1 0x1 PUSH1 0xA0 SHL SUB DUP10 DUP2 AND SWAP2 DUP3 OR SWAP1 SWAP3 SSTORE SWAP2 MLOAD DUP8 SWAP4 SWAP2 DUP6 AND SWAP2 PUSH32 0xDDF252AD1BE2C89B69C2B068FC378DAA952BA7F163C4A11628F55A4DF523B3EF SWAP2 LOG4 SWAP5 SWAP4 POP POP POP POP JUMP JUMPDEST PUSH1 0x0 PUSH2 0x29F2 DUP4 PUSH2 0x1098 JUMP JUMPDEST PUSH1 0x0 DUP4 DUP2 MSTORE PUSH1 0x7 PUSH1 0x20 MSTORE PUSH1 0x40 SWAP1 KECCAK256 SLOAD SWAP1 SWAP2 POP DUP1 DUP3 EQ PUSH2 0x2A45 JUMPI PUSH1 0x1 PUSH1 0x1 PUSH1 0xA0 SHL SUB DUP5 AND PUSH1 0x0 SWAP1 DUP2 MSTORE PUSH1 0x6 PUSH1 0x20 SWAP1 DUP2 MSTORE PUSH1 0x40 DUP1 DUP4 KECCAK256 DUP6 DUP5 MSTORE DUP3 MSTORE DUP1 DUP4 KECCAK256 SLOAD DUP5 DUP5 MSTORE DUP2 DUP5 KECCAK256 DUP2 SWAP1 SSTORE DUP4 MSTORE PUSH1 0x7 SWAP1 SWAP2 MSTORE SWAP1 KECCAK256 DUP2 SWAP1 SSTORE JUMPDEST POP PUSH1 0x0 SWAP2 DUP3 MSTORE PUSH1 0x7 PUSH1 0x20 SWAP1 DUP2 MSTORE PUSH1 0x40 DUP1 DUP5 KECCAK256 DUP5 SWAP1 SSTORE PUSH1 0x1 PUSH1 0x1 PUSH1 0xA0 SHL SUB SWAP1 SWAP5 AND DUP4 MSTORE PUSH1 0x6 DUP2 MSTORE DUP4 DUP4 KECCAK256 SWAP2 DUP4 MSTORE MSTORE SWAP1 DUP2 KECCAK256 SSTORE JUMP JUMPDEST PUSH1 0x8 SLOAD PUSH1 0x0 SWAP1 PUSH2 0x2A8A SWAP1 PUSH1 0x1 SWAP1 PUSH2 0x33F9 JUMP JUMPDEST PUSH1 0x0 DUP4 DUP2 MSTORE PUSH1 0x9 PUSH1 0x20 MSTORE PUSH1 0x40 DUP2 KECCAK256 SLOAD PUSH1 0x8 DUP1 SLOAD SWAP4 SWAP5 POP SWAP1 SWAP3 DUP5 SWAP1 DUP2 LT PUSH2 0x2AB2 JUMPI PUSH2 0x2AB2 PUSH2 0x3302 JUMP JUMPDEST SWAP1 PUSH1 0x0 MSTORE PUSH1 0x20 PUSH1 0x0 KECCAK256 ADD SLOAD SWAP1 POP DUP1 PUSH1 0x8 DUP4 DUP2 SLOAD DUP2 LT PUSH2 0x2AD3 JUMPI PUSH2 0x2AD3 PUSH2 0x3302 JUMP JUMPDEST PUSH1 0x0 SWAP2 DUP3 MSTORE PUSH1 0x20 DUP1 DUP4 KECCAK256 SWAP1 SWAP2 ADD SWAP3 SWAP1 SWAP3 SSTORE DUP3 DUP2 MSTORE PUSH1 0x9 SWAP1 SWAP2 MSTORE PUSH1 0x40 DUP1 DUP3 KECCAK256 DUP5 SWAP1 SSTORE DUP6 DUP3 MSTORE DUP2 KECCAK256 SSTORE PUSH1 0x8 DUP1 SLOAD DUP1 PUSH2 0x2B0B JUMPI PUSH2 0x2B0B PUSH2 0x353D JUMP JUMPDEST PUSH1 0x1 SWAP1 SUB DUP2 DUP2 SWAP1 PUSH1 0x0 MSTORE PUSH1 0x20 PUSH1 0x0 KECCAK256 ADD PUSH1 0x0 SWAP1 SSTORE SWAP1 SSTORE POP POP POP POP JUMP JUMPDEST PUSH1 0x0 PUSH1 0x1 PUSH2 0x2B34 DUP5 PUSH2 0x1098 JUMP JUMPDEST PUSH2 0x2B3E SWAP2 SWAP1 PUSH2 0x33F9 JUMP JUMPDEST PUSH1 0x1 PUSH1 0x1 PUSH1 0xA0 SHL SUB SWAP1 SWAP4 AND PUSH1 0x0 SWAP1 DUP2 MSTORE PUSH1 0x6 PUSH1 0x20 SWAP1 DUP2 MSTORE PUSH1 0x40 DUP1 DUP4 KECCAK256 DUP7 DUP5 MSTORE DUP3 MSTORE DUP1 DUP4 KECCAK256 DUP6 SWAP1 SSTORE SWAP4 DUP3 MSTORE PUSH1 0x7 SWAP1 MSTORE SWAP2 SWAP1 SWAP2 KECCAK256 SWAP2 SWAP1 SWAP2 SSTORE POP JUMP JUMPDEST PUSH1 0x60 PUSH2 0x131F DUP4 DUP4 PUSH1 0x0 PUSH2 0x2C4E JUMP JUMPDEST PUSH1 0x1 PUSH1 0x1 PUSH1 0xA0 SHL SUB DUP3 AND PUSH2 0x2BAF JUMPI PUSH1 0x40 MLOAD PUSH4 0x32505749 PUSH1 0xE1 SHL DUP2 MSTORE PUSH1 0x0 PUSH1 0x4 DUP3 ADD MSTORE PUSH1 0x24 ADD PUSH2 0x8BE JUMP JUMPDEST PUSH1 0x0 PUSH2 0x2BBD DUP4 DUP4 PUSH1 0x0 PUSH2 0x1995 JUMP JUMPDEST SWAP1 POP PUSH1 0x1 PUSH1 0x1 PUSH1 0xA0 SHL SUB DUP2 AND ISZERO PUSH2 0x8D2 JUMPI PUSH1 0x40 MLOAD PUSH4 0x39E35637 PUSH1 0xE1 SHL DUP2 MSTORE PUSH1 0x0 PUSH1 0x4 DUP3 ADD MSTORE PUSH1 0x24 ADD PUSH2 0x8BE JUMP JUMPDEST PUSH2 0x2BF5 DUP4 DUP4 DUP4 PUSH2 0x2CEB JUMP JUMPDEST PUSH2 0x8D2 JUMPI PUSH1 0x1 PUSH1 0x1 PUSH1 0xA0 SHL SUB DUP4 AND PUSH2 0x2C23 JUMPI PUSH1 0x40 MLOAD PUSH4 0x7E273289 PUSH1 0xE0 SHL DUP2 MSTORE PUSH1 0x4 DUP2 ADD DUP3 SWAP1 MSTORE PUSH1 0x24 ADD PUSH2 0x8BE JUMP JUMPDEST PUSH1 0x40 MLOAD PUSH4 0x177E802F PUSH1 0xE0 SHL DUP2 MSTORE PUSH1 0x1 PUSH1 0x1 PUSH1 0xA0 SHL SUB DUP4 AND PUSH1 0x4 DUP3 ADD MSTORE PUSH1 0x24 DUP2 ADD DUP3 SWAP1 MSTORE PUSH1 0x44 ADD PUSH2 0x8BE JUMP JUMPDEST PUSH1 0x60 DUP2 SELFBALANCE LT ISZERO PUSH2 0x2C73 JUMPI PUSH1 0x40 MLOAD PUSH4 0xCD786059 PUSH1 0xE0 SHL DUP2 MSTORE ADDRESS PUSH1 0x4 DUP3 ADD MSTORE PUSH1 0x24 ADD PUSH2 0x8BE JUMP JUMPDEST PUSH1 0x0 DUP1 DUP6 PUSH1 0x1 PUSH1 0x1 PUSH1 0xA0 SHL SUB AND DUP5 DUP7 PUSH1 0x40 MLOAD PUSH2 0x2C8F SWAP2 SWAP1 PUSH2 0x3553 JUMP JUMPDEST PUSH1 0x0 PUSH1 0x40 MLOAD DUP1 DUP4 SUB DUP2 DUP6 DUP8 GAS CALL SWAP3 POP POP POP RETURNDATASIZE DUP1 PUSH1 0x0 DUP2 EQ PUSH2 0x2CCC JUMPI PUSH1 0x40 MLOAD SWAP2 POP PUSH1 0x1F NOT PUSH1 0x3F RETURNDATASIZE ADD AND DUP3 ADD PUSH1 0x40 MSTORE RETURNDATASIZE DUP3 MSTORE RETURNDATASIZE PUSH1 0x0 PUSH1 0x20 DUP5 ADD RETURNDATACOPY PUSH2 0x2CD1 JUMP JUMPDEST PUSH1 0x60 SWAP2 POP JUMPDEST POP SWAP2 POP SWAP2 POP PUSH2 0x2CE1 DUP7 DUP4 DUP4 PUSH2 0x2D4E JUMP JUMPDEST SWAP7 SWAP6 POP POP POP POP POP POP JUMP JUMPDEST PUSH1 0x0 PUSH1 0x1 PUSH1 0x1 PUSH1 0xA0 SHL SUB DUP4 AND ISZERO DUP1 ISZERO SWAP1 PUSH2 0x19A2 JUMPI POP DUP3 PUSH1 0x1 PUSH1 0x1 PUSH1 0xA0 SHL SUB AND DUP5 PUSH1 0x1 PUSH1 0x1 PUSH1 0xA0 SHL SUB AND EQ DUP1 PUSH2 0x2D25 JUMPI POP PUSH2 0x2D25 DUP5 DUP5 PUSH2 0x1742 JUMP JUMPDEST DUP1 PUSH2 0x19A2 JUMPI POP POP PUSH1 0x0 SWAP1 DUP2 MSTORE PUSH1 0x4 PUSH1 0x20 MSTORE PUSH1 0x40 SWAP1 KECCAK256 SLOAD PUSH1 0x1 PUSH1 0x1 PUSH1 0xA0 SHL SUB SWAP1 DUP2 AND SWAP2 AND EQ SWAP2 SWAP1 POP JUMP JUMPDEST PUSH1 0x60 DUP3 PUSH2 0x2D63 JUMPI PUSH2 0x2D5E DUP3 PUSH2 0x2DAA JUMP JUMPDEST PUSH2 0x131F JUMP JUMPDEST DUP2 MLOAD ISZERO DUP1 ISZERO PUSH2 0x2D7A JUMPI POP PUSH1 0x1 PUSH1 0x1 PUSH1 0xA0 SHL SUB DUP5 AND EXTCODESIZE ISZERO JUMPDEST ISZERO PUSH2 0x2DA3 JUMPI PUSH1 0x40 MLOAD PUSH4 0x9996B315 PUSH1 0xE0 SHL DUP2 MSTORE PUSH1 0x1 PUSH1 0x1 PUSH1 0xA0 SHL SUB DUP6 AND PUSH1 0x4 DUP3 ADD MSTORE PUSH1 0x24 ADD PUSH2 0x8BE JUMP JUMPDEST POP DUP1 PUSH2 0x131F JUMP JUMPDEST DUP1 MLOAD ISZERO PUSH2 0x2DBA JUMPI DUP1 MLOAD DUP1 DUP3 PUSH1 0x20 ADD REVERT JUMPDEST PUSH1 0x40 MLOAD PUSH4 0xA12F521 PUSH1 0xE1 SHL DUP2 MSTORE PUSH1 0x4 ADD PUSH1 0x40 MLOAD DUP1 SWAP2 SUB SWAP1 REVERT JUMPDEST PUSH1 0x1 DUP4 ADD SWAP2 DUP4 SWAP1 DUP3 ISZERO PUSH2 0x2E56 JUMPI SWAP2 PUSH1 0x20 MUL DUP3 ADD PUSH1 0x0 JUMPDEST DUP4 DUP3 GT ISZERO PUSH2 0x2E27 JUMPI DUP4 MLOAD DUP4 DUP3 PUSH2 0x100 EXP DUP2 SLOAD DUP2 PUSH1 0xFF MUL NOT AND SWAP1 DUP4 PUSH1 0xFF AND MUL OR SWAP1 SSTORE POP SWAP3 PUSH1 0x20 ADD SWAP3 PUSH1 0x1 ADD PUSH1 0x20 DUP2 PUSH1 0x0 ADD DIV SWAP3 DUP4 ADD SWAP3 PUSH1 0x1 SUB MUL PUSH2 0x2DE9 JUMP JUMPDEST DUP1 ISZERO PUSH2 0x2E54 JUMPI DUP3 DUP2 PUSH2 0x100 EXP DUP2 SLOAD SWAP1 PUSH1 0xFF MUL NOT AND SWAP1 SSTORE PUSH1 0x1 ADD PUSH1 0x20 DUP2 PUSH1 0x0 ADD DIV SWAP3 DUP4 ADD SWAP3 PUSH1 0x1 SUB MUL PUSH2 0x2E27 JUMP JUMPDEST POP JUMPDEST POP PUSH2 0x2E62 SWAP3 SWAP2 POP PUSH2 0x2E85 JUMP JUMPDEST POP SWAP1 JUMP JUMPDEST PUSH1 0x40 MLOAD DUP1 PUSH2 0x320 ADD PUSH1 0x40 MSTORE DUP1 PUSH1 0x19 SWAP1 PUSH1 0x20 DUP3 MUL DUP1 CALLDATASIZE DUP4 CALLDATACOPY POP SWAP2 SWAP3 SWAP2 POP POP JUMP JUMPDEST JUMPDEST DUP1 DUP3 GT ISZERO PUSH2 0x2E62 JUMPI PUSH1 0x0 DUP2 SSTORE PUSH1 0x1 ADD PUSH2 0x2E86 JUMP JUMPDEST PUSH1 0x1 PUSH1 0x1 PUSH1 0xE0 SHL SUB NOT DUP2 AND DUP2 EQ PUSH2 0xC17 JUMPI PUSH1 0x0 DUP1 REVERT JUMPDEST PUSH1 0x0 PUSH1 0x20 DUP3 DUP5 SUB SLT ISZERO PUSH2 0x2EC2 JUMPI PUSH1 0x0 DUP1 REVERT JUMPDEST DUP2 CALLDATALOAD PUSH2 0x131F DUP2 PUSH2 0x2E9A JUMP JUMPDEST PUSH1 0x0 JUMPDEST DUP4 DUP2 LT ISZERO PUSH2 0x2EE8 JUMPI DUP2 DUP2 ADD MLOAD DUP4 DUP3 ADD MSTORE PUSH1 0x20 ADD PUSH2 0x2ED0 JUMP JUMPDEST POP POP PUSH1 0x0 SWAP2 ADD MSTORE JUMP JUMPDEST PUSH1 0x0 DUP2 MLOAD DUP1 DUP5 MSTORE PUSH2 0x2F09 DUP2 PUSH1 0x20 DUP7 ADD PUSH1 0x20 DUP7 ADD PUSH2 0x2ECD JUMP JUMPDEST PUSH1 0x1F ADD PUSH1 0x1F NOT AND SWAP3 SWAP1 SWAP3 ADD PUSH1 0x20 ADD SWAP3 SWAP2 POP POP JUMP JUMPDEST PUSH1 0x20 DUP2 MSTORE PUSH1 0x0 PUSH2 0x131F PUSH1 0x20 DUP4 ADD DUP5 PUSH2 0x2EF1 JUMP JUMPDEST PUSH1 0x0 PUSH1 0x20 DUP3 DUP5 SUB SLT ISZERO PUSH2 0x2F42 JUMPI PUSH1 0x0 DUP1 REVERT JUMPDEST POP CALLDATALOAD SWAP2 SWAP1 POP JUMP JUMPDEST DUP1 CALLDATALOAD PUSH1 0x1 PUSH1 0x1 PUSH1 0xA0 SHL SUB DUP2 AND DUP2 EQ PUSH2 0x2F60 JUMPI PUSH1 0x0 DUP1 REVERT JUMPDEST SWAP2 SWAP1 POP JUMP JUMPDEST PUSH1 0x0 DUP1 PUSH1 0x40 DUP4 DUP6 SUB SLT ISZERO PUSH2 0x2F78 JUMPI PUSH1 0x0 DUP1 REVERT JUMPDEST PUSH2 0x2F81 DUP4 PUSH2 0x2F49 JUMP JUMPDEST SWAP5 PUSH1 0x20 SWAP4 SWAP1 SWAP4 ADD CALLDATALOAD SWAP4 POP POP POP JUMP JUMPDEST PUSH1 0x0 DUP1 PUSH1 0x0 PUSH1 0x40 DUP5 DUP7 SUB SLT ISZERO PUSH2 0x2FA4 JUMPI PUSH1 0x0 DUP1 REVERT JUMPDEST DUP4 CALLDATALOAD SWAP3 POP PUSH1 0x20 DUP5 ADD CALLDATALOAD PUSH8 0xFFFFFFFFFFFFFFFF DUP1 DUP3 GT ISZERO PUSH2 0x2FC3 JUMPI PUSH1 0x0 DUP1 REVERT JUMPDEST DUP2 DUP7 ADD SWAP2 POP DUP7 PUSH1 0x1F DUP4 ADD SLT PUSH2 0x2FD7 JUMPI PUSH1 0x0 DUP1 REVERT JUMPDEST DUP2 CALLDATALOAD DUP2 DUP2 GT ISZERO PUSH2 0x2FE6 JUMPI PUSH1 0x0 DUP1 REVERT JUMPDEST DUP8 PUSH1 0x20 DUP3 PUSH1 0x5 SHL DUP6 ADD ADD GT ISZERO PUSH2 0x2FFB JUMPI PUSH1 0x0 DUP1 REVERT JUMPDEST PUSH1 0x20 DUP4 ADD SWAP5 POP DUP1 SWAP4 POP POP POP POP SWAP3 POP SWAP3 POP SWAP3 JUMP JUMPDEST PUSH1 0x0 DUP1 PUSH1 0x0 PUSH1 0x60 DUP5 DUP7 SUB SLT ISZERO PUSH2 0x3023 JUMPI PUSH1 0x0 DUP1 REVERT JUMPDEST PUSH2 0x302C DUP5 PUSH2 0x2F49 JUMP JUMPDEST SWAP3 POP PUSH2 0x303A PUSH1 0x20 DUP6 ADD PUSH2 0x2F49 JUMP JUMPDEST SWAP2 POP PUSH1 0x40 DUP5 ADD CALLDATALOAD SWAP1 POP SWAP3 POP SWAP3 POP SWAP3 JUMP JUMPDEST PUSH1 0x0 PUSH1 0x80 DUP3 DUP5 SUB SLT ISZERO PUSH2 0x305C JUMPI PUSH1 0x0 DUP1 REVERT JUMPDEST DUP3 PUSH1 0x80 DUP4 ADD GT ISZERO PUSH2 0x306C JUMPI PUSH1 0x0 DUP1 REVERT JUMPDEST POP SWAP2 SWAP1 POP JUMP JUMPDEST PUSH1 0x0 DUP1 PUSH1 0x20 DUP4 DUP6 SUB SLT ISZERO PUSH2 0x3085 JUMPI PUSH1 0x0 DUP1 REVERT JUMPDEST DUP3 CALLDATALOAD PUSH8 0xFFFFFFFFFFFFFFFF DUP1 DUP3 GT ISZERO PUSH2 0x309D JUMPI PUSH1 0x0 DUP1 REVERT JUMPDEST DUP2 DUP6 ADD SWAP2 POP DUP6 PUSH1 0x1F DUP4 ADD SLT PUSH2 0x30B1 JUMPI PUSH1 0x0 DUP1 REVERT JUMPDEST DUP2 CALLDATALOAD DUP2 DUP2 GT ISZERO PUSH2 0x30C0 JUMPI PUSH1 0x0 DUP1 REVERT JUMPDEST DUP7 PUSH1 0x20 DUP3 DUP6 ADD ADD GT ISZERO PUSH2 0x30D2 JUMPI PUSH1 0x0 DUP1 REVERT JUMPDEST PUSH1 0x20 SWAP3 SWAP1 SWAP3 ADD SWAP7 SWAP2 SWAP6 POP SWAP1 SWAP4 POP POP POP POP JUMP JUMPDEST DUP1 CALLDATALOAD PUSH3 0xFFFFFF DUP2 AND DUP2 EQ PUSH2 0x2F60 JUMPI PUSH1 0x0 DUP1 REVERT JUMPDEST PUSH1 0x0 DUP1 PUSH1 0x40 DUP4 DUP6 SUB SLT ISZERO PUSH2 0x310A JUMPI PUSH1 0x0 DUP1 REVERT JUMPDEST PUSH2 0x2F81 DUP4 PUSH2 0x30E4 JUMP JUMPDEST DUP3 ISZERO ISZERO DUP2 MSTORE PUSH1 0x40 PUSH1 0x20 DUP3 ADD MSTORE PUSH1 0x0 PUSH2 0x19A2 PUSH1 0x40 DUP4 ADD DUP5 PUSH2 0x2EF1 JUMP JUMPDEST PUSH1 0x0 PUSH1 0x20 DUP3 DUP5 SUB SLT ISZERO PUSH2 0x3140 JUMPI PUSH1 0x0 DUP1 REVERT JUMPDEST PUSH2 0x131F DUP3 PUSH2 0x2F49 JUMP JUMPDEST DUP1 ISZERO ISZERO DUP2 EQ PUSH2 0xC17 JUMPI PUSH1 0x0 DUP1 REVERT JUMPDEST PUSH1 0x0 DUP1 PUSH1 0x40 DUP4 DUP6 SUB SLT ISZERO PUSH2 0x316A JUMPI PUSH1 0x0 DUP1 REVERT JUMPDEST PUSH2 0x3173 DUP4 PUSH2 0x2F49 JUMP JUMPDEST SWAP2 POP PUSH1 0x20 DUP4 ADD CALLDATALOAD PUSH2 0x3183 DUP2 PUSH2 0x3149 JUMP JUMPDEST DUP1 SWAP2 POP POP SWAP3 POP SWAP3 SWAP1 POP JUMP JUMPDEST PUSH4 0x4E487B71 PUSH1 0xE0 SHL PUSH1 0x0 MSTORE PUSH1 0x41 PUSH1 0x4 MSTORE PUSH1 0x24 PUSH1 0x0 REVERT JUMPDEST PUSH1 0x0 DUP1 PUSH1 0x0 DUP1 PUSH1 0x80 DUP6 DUP8 SUB SLT ISZERO PUSH2 0x31BA JUMPI PUSH1 0x0 DUP1 REVERT JUMPDEST PUSH2 0x31C3 DUP6 PUSH2 0x2F49 JUMP JUMPDEST SWAP4 POP PUSH2 0x31D1 PUSH1 0x20 DUP7 ADD PUSH2 0x2F49 JUMP JUMPDEST SWAP3 POP PUSH1 0x40 DUP6 ADD CALLDATALOAD SWAP2 POP PUSH1 0x60 DUP6 ADD CALLDATALOAD PUSH8 0xFFFFFFFFFFFFFFFF DUP1 DUP3 GT ISZERO PUSH2 0x31F5 JUMPI PUSH1 0x0 DUP1 REVERT JUMPDEST DUP2 DUP8 ADD SWAP2 POP DUP8 PUSH1 0x1F DUP4 ADD SLT PUSH2 0x3209 JUMPI PUSH1 0x0 DUP1 REVERT JUMPDEST DUP2 CALLDATALOAD DUP2 DUP2 GT ISZERO PUSH2 0x321B JUMPI PUSH2 0x321B PUSH2 0x318E JUMP JUMPDEST PUSH1 0x40 MLOAD PUSH1 0x1F DUP3 ADD PUSH1 0x1F NOT SWAP1 DUP2 AND PUSH1 0x3F ADD AND DUP2 ADD SWAP1 DUP4 DUP3 GT DUP2 DUP4 LT OR ISZERO PUSH2 0x3243 JUMPI PUSH2 0x3243 PUSH2 0x318E JUMP JUMPDEST DUP2 PUSH1 0x40 MSTORE DUP3 DUP2 MSTORE DUP11 PUSH1 0x20 DUP5 DUP8 ADD ADD GT ISZERO PUSH2 0x325C JUMPI PUSH1 0x0 DUP1 REVERT JUMPDEST DUP3 PUSH1 0x20 DUP7 ADD PUSH1 0x20 DUP4 ADD CALLDATACOPY PUSH1 0x0 PUSH1 0x20 DUP5 DUP4 ADD ADD MSTORE DUP1 SWAP6 POP POP POP POP POP POP SWAP3 SWAP6 SWAP2 SWAP5 POP SWAP3 POP JUMP JUMPDEST PUSH1 0x0 PUSH1 0x20 DUP3 DUP5 SUB SLT ISZERO PUSH2 0x3292 JUMPI PUSH1 0x0 DUP1 REVERT JUMPDEST PUSH2 0x131F DUP3 PUSH2 0x30E4 JUMP JUMPDEST PUSH1 0x0 DUP1 PUSH1 0x40 DUP4 DUP6 SUB SLT ISZERO PUSH2 0x32AE JUMPI PUSH1 0x0 DUP1 REVERT JUMPDEST PUSH2 0x32B7 DUP4 PUSH2 0x2F49 JUMP JUMPDEST SWAP2 POP PUSH2 0x32C5 PUSH1 0x20 DUP5 ADD PUSH2 0x2F49 JUMP JUMPDEST SWAP1 POP SWAP3 POP SWAP3 SWAP1 POP JUMP JUMPDEST PUSH1 0x1 DUP2 DUP2 SHR SWAP1 DUP3 AND DUP1 PUSH2 0x32E2 JUMPI PUSH1 0x7F DUP3 AND SWAP2 POP JUMPDEST PUSH1 0x20 DUP3 LT DUP2 SUB PUSH2 0x306C JUMPI PUSH4 0x4E487B71 PUSH1 0xE0 SHL PUSH1 0x0 MSTORE PUSH1 0x22 PUSH1 0x4 MSTORE PUSH1 0x24 PUSH1 0x0 REVERT JUMPDEST PUSH4 0x4E487B71 PUSH1 0xE0 SHL PUSH1 0x0 MSTORE PUSH1 0x32 PUSH1 0x4 MSTORE PUSH1 0x24 PUSH1 0x0 REVERT JUMPDEST PUSH1 0x0 PUSH1 0x20 DUP3 DUP5 SUB SLT ISZERO PUSH2 0x332A JUMPI PUSH1 0x0 DUP1 REVERT JUMPDEST DUP2 CALLDATALOAD PUSH1 0xFF DUP2 AND DUP2 EQ PUSH2 0x131F JUMPI PUSH1 0x0 DUP1 REVERT JUMPDEST PUSH4 0x4E487B71 PUSH1 0xE0 SHL PUSH1 0x0 MSTORE PUSH1 0x11 PUSH1 0x4 MSTORE PUSH1 0x24 PUSH1 0x0 REVERT JUMPDEST PUSH1 0x0 PUSH1 0x1 DUP3 ADD PUSH2 0x3363 JUMPI PUSH2 0x3363 PUSH2 0x333B JUMP JUMPDEST POP PUSH1 0x1 ADD SWAP1 JUMP JUMPDEST PUSH3 0xFFFFFF DUP2 DUP2 AND DUP4 DUP3 AND ADD SWAP1 DUP1 DUP3 GT ISZERO PUSH2 0x3386 JUMPI PUSH2 0x3386 PUSH2 0x333B JUMP JUMPDEST POP SWAP3 SWAP2 POP POP JUMP JUMPDEST DUP1 DUP3 ADD DUP1 DUP3 GT ISZERO PUSH2 0x78D JUMPI PUSH2 0x78D PUSH2 0x333B JUMP JUMPDEST PUSH1 0x0 DUP4 MLOAD PUSH2 0x33B2 DUP2 DUP5 PUSH1 0x20 DUP9 ADD PUSH2 0x2ECD JUMP JUMPDEST DUP4 MLOAD SWAP1 DUP4 ADD SWAP1 PUSH2 0x33C6 DUP2 DUP4 PUSH1 0x20 DUP9 ADD PUSH2 0x2ECD JUMP JUMPDEST ADD SWAP5 SWAP4 POP POP POP POP JUMP JUMPDEST PUSH4 0x4E487B71 PUSH1 0xE0 SHL PUSH1 0x0 MSTORE PUSH1 0x12 PUSH1 0x4 MSTORE PUSH1 0x24 PUSH1 0x0 REVERT JUMPDEST PUSH1 0x0 DUP3 PUSH2 0x33F4 JUMPI PUSH2 0x33F4 PUSH2 0x33CF JUMP JUMPDEST POP DIV SWAP1 JUMP JUMPDEST DUP2 DUP2 SUB DUP2 DUP2 GT ISZERO PUSH2 0x78D JUMPI PUSH2 0x78D PUSH2 0x333B JUMP JUMPDEST PUSH1 0x0 DUP3 PUSH2 0x341B JUMPI PUSH2 0x341B PUSH2 0x33CF JUMP JUMPDEST POP MOD SWAP1 JUMP JUMPDEST DUP1 DUP3 MUL DUP2 ISZERO DUP3 DUP3 DIV DUP5 EQ OR PUSH2 0x78D JUMPI PUSH2 0x78D PUSH2 0x333B JUMP JUMPDEST PUSH1 0x20 DUP2 MSTORE DUP2 MLOAD PUSH1 0x20 DUP3 ADD MSTORE PUSH1 0x20 DUP3 ADD MLOAD PUSH1 0x40 DUP3 ADD MSTORE PUSH2 0xFFFF PUSH1 0x40 DUP4 ADD MLOAD AND PUSH1 0x60 DUP3 ADD MSTORE PUSH1 0x0 PUSH1 0x60 DUP4 ADD MLOAD PUSH4 0xFFFFFFFF DUP1 DUP3 AND PUSH1 0x80 DUP6 ADD MSTORE DUP1 PUSH1 0x80 DUP7 ADD MLOAD AND PUSH1 0xA0 DUP6 ADD MSTORE POP POP PUSH1 0xA0 DUP4 ADD MLOAD PUSH1 0xC0 DUP1 DUP5 ADD MSTORE PUSH2 0x19A2 PUSH1 0xE0 DUP5 ADD DUP3 PUSH2 0x2EF1 JUMP JUMPDEST PUSH1 0x0 PUSH1 0x20 DUP3 DUP5 SUB SLT ISZERO PUSH2 0x34A6 JUMPI PUSH1 0x0 DUP1 REVERT JUMPDEST POP MLOAD SWAP2 SWAP1 POP JUMP JUMPDEST PUSH1 0x0 PUSH4 0xFFFFFFFF DUP1 DUP4 AND DUP2 DUP2 SUB PUSH2 0x34C6 JUMPI PUSH2 0x34C6 PUSH2 0x333B JUMP JUMPDEST PUSH1 0x1 ADD SWAP4 SWAP3 POP POP POP JUMP JUMPDEST PUSH1 0x1 PUSH1 0x1 PUSH1 0xA0 SHL SUB DUP6 DUP2 AND DUP3 MSTORE DUP5 AND PUSH1 0x20 DUP3 ADD MSTORE PUSH1 0x40 DUP2 ADD DUP4 SWAP1 MSTORE PUSH1 0x80 PUSH1 0x60 DUP3 ADD DUP2 SWAP1 MSTORE PUSH1 0x0 SWAP1 PUSH2 0x2CE1 SWAP1 DUP4 ADD DUP5 PUSH2 0x2EF1 JUMP JUMPDEST PUSH1 0x0 PUSH1 0x20 DUP3 DUP5 SUB SLT ISZERO PUSH2 0x3515 JUMPI PUSH1 0x0 DUP1 REVERT JUMPDEST DUP2 MLOAD PUSH2 0x131F DUP2 PUSH2 0x2E9A JUMP JUMPDEST PUSH1 0x0 PUSH1 0x20 DUP3 DUP5 SUB SLT ISZERO PUSH2 0x3532 JUMPI PUSH1 0x0 DUP1 REVERT JUMPDEST DUP2 MLOAD PUSH2 0x131F DUP2 PUSH2 0x3149 JUMP JUMPDEST PUSH4 0x4E487B71 PUSH1 0xE0 SHL PUSH1 0x0 MSTORE PUSH1 0x31 PUSH1 0x4 MSTORE PUSH1 0x24 PUSH1 0x0 REVERT JUMPDEST PUSH1 0x0 DUP3 MLOAD PUSH2 0x3565 DUP2 DUP5 PUSH1 0x20 DUP8 ADD PUSH2 0x2ECD JUMP JUMPDEST SWAP2 SWAP1 SWAP2 ADD SWAP3 SWAP2 POP POP JUMP INVALID LOG2 PUSH5 0x6970667358 0x22 SLT KECCAK256 DUP13 PUSH3 0x9A803E 0xC2 0x21 PUSH17 0xEB012CCE169BDF1476D52CB0077B3860A4 SELFBALANCE 0xEF PUSH14 0xF02DD48364736F6C634300081400 CALLER "},"methodIdentifiers":{"VRF_CALLBACK_GAS_LIMIT()":"d01ed8a3","VRF_CONFIRMATIONS()":"40985c98","VRF_NUM_WORDS()":"5c900a1a","acceptOwnership()":"79ba5097","approve(address,uint256)":"095ea7b3","automationActive()":"6baf4a74","balanceOf(address)":"70a08231","buyTicket(uint8[4])":"3d4962ed","checkUpkeep(bytes)":"6e04ff0d","claimPrize(uint256)":"d7098154","currentGameDay()":"0d50cdb9","dailyDrawHourUTC()":"8d6ef595","dayResults(uint24)":"d96226a2","emergencyPause()":"51858e27","getApproved(uint256)":"081812fc","isApprovedForAll(address,address)":"e985e9c5","name()":"06fdde03","nextDrawTs()":"c8d51919","owner()":"8da5cb5b","ownerOf(uint256)":"6352211e","paymentToken()":"3013ce29","performUpkeep(bytes)":"4585e33b","pools()":"c5c51dca","processDrawBatch(uint24,uint256)":"5d58f930","rawFulfillRandomWords(uint256,uint256[])":"1fe543e3","s_vrfCoordinator()":"9eccacf6","safeTransferFrom(address,address,uint256)":"42842e0e","safeTransferFrom(address,address,uint256,bytes)":"b88d4fde","setApprovalForAll(address,bool)":"a22cb465","setCoordinator(address)":"8ea98117","supportsInterface(bytes4)":"01ffc9a7","symbol()":"95d89b41","ticketPrice()":"1209b1f6","tickets(uint256)":"50b44712","toggleAutomation()":"4f687e91","toggleEmergencyPause()":"147e291f","tokenByIndex(uint256)":"4f6ccce7","tokenOfOwnerByIndex(address,uint256)":"2f745c59","tokenURI(uint256)":"c87b56dd","totalSupply()":"18160ddd","transferFrom(address,address,uint256)":"23b872dd","transferOwnership(address)":"f2fde38b","vrfKeyHash()":"041d443e","vrfSubId()":"32615640","withdrawDevelopment(address)":"e8cfbe69"}}}}}