{"contracts/LottoMojiPrizePool.sol":{"LottoMojiPrizePool":{"abi":[{"inputs":[{"internalType":"address","name":"_usdc","type":"address"},{"internalType":"address","name":"_ethUsdFeed","type":"address"},{"internalType":"address","name":"_devWallet","type":"address"},{"internalType":"address","name":"_lotteryContract","type":"address"}],"stateMutability":"nonpayable","type":"constructor"},{"inputs":[],"name":"AccessControlBadConfirmation","type":"error"},{"inputs":[{"internalType":"address","name":"account","type":"address"},{"internalType":"bytes32","name":"neededRole","type":"bytes32"}],"name":"AccessControlUnauthorizedAccount","type":"error"},{"inputs":[],"name":"ReentrancyGuardReentrantCall","type":"error"},{"anonymous":false,"inputs":[{"indexed":true,"internalType":"bytes32","name":"ticketHash","type":"bytes32"},{"indexed":true,"internalType":"address","name":"winner","type":"address"},{"indexed":false,"internalType":"uint256","name":"ethAmount","type":"uint256"},{"indexed":false,"internalType":"uint256","name":"usdcAmount","type":"uint256"}],"name":"PrizeClaimed","type":"event"},{"anonymous":false,"inputs":[{"indexed":true,"internalType":"uint256","name":"roundId","type":"uint256"},{"indexed":false,"internalType":"uint256","name":"ethFirstPrize","type":"uint256"},{"indexed":false,"internalType":"uint256","name":"ethSecondPrize","type":"uint256"},{"indexed":false,"internalType":"uint256","name":"ethThirdPrize","type":"uint256"},{"indexed":false,"internalType":"uint256","name":"usdcFirstPrize","type":"uint256"},{"indexed":false,"internalType":"uint256","name":"usdcSecondPrize","type":"uint256"},{"indexed":false,"internalType":"uint256","name":"usdcThirdPrize","type":"uint256"}],"name":"PrizesDistributed","type":"event"},{"anonymous":false,"inputs":[{"indexed":true,"internalType":"uint256","name":"roundId","type":"uint256"},{"indexed":false,"internalType":"string","name":"prizeType","type":"string"},{"indexed":false,"internalType":"uint256","name":"ethReserveUsed","type":"uint256"},{"indexed":false,"internalType":"uint256","name":"usdcReserveUsed","type":"uint256"}],"name":"ReserveUsed","type":"event"},{"anonymous":false,"inputs":[{"indexed":true,"internalType":"bytes32","name":"role","type":"bytes32"},{"indexed":true,"internalType":"bytes32","name":"previousAdminRole","type":"bytes32"},{"indexed":true,"internalType":"bytes32","name":"newAdminRole","type":"bytes32"}],"name":"RoleAdminChanged","type":"event"},{"anonymous":false,"inputs":[{"indexed":true,"internalType":"bytes32","name":"role","type":"bytes32"},{"indexed":true,"internalType":"address","name":"account","type":"address"},{"indexed":true,"internalType":"address","name":"sender","type":"address"}],"name":"RoleGranted","type":"event"},{"anonymous":false,"inputs":[{"indexed":true,"internalType":"bytes32","name":"role","type":"bytes32"},{"indexed":true,"internalType":"address","name":"account","type":"address"},{"indexed":true,"internalType":"address","name":"sender","type":"address"}],"name":"RoleRevoked","type":"event"},{"anonymous":false,"inputs":[{"indexed":true,"internalType":"bytes32","name":"ticketHash","type":"bytes32"},{"indexed":true,"internalType":"address","name":"player","type":"address"},{"indexed":false,"internalType":"uint256","name":"roundId","type":"uint256"},{"indexed":false,"internalType":"uint256","name":"ethAmount","type":"uint256"},{"indexed":false,"internalType":"uint256","name":"usdcAmount","type":"uint256"}],"name":"TicketPurchased","type":"event"},{"inputs":[],"name":"DEFAULT_ADMIN_ROLE","outputs":[{"internalType":"bytes32","name":"","type":"bytes32"}],"stateMutability":"view","type":"function"},{"inputs":[],"name":"DEV_FEE","outputs":[{"internalType":"uint256","name":"","type":"uint256"}],"stateMutability":"view","type":"function"},{"inputs":[],"name":"DEV_ROLE","outputs":[{"internalType":"bytes32","name":"","type":"bytes32"}],"stateMutability":"view","type":"function"},{"inputs":[],"name":"ETH_USD_FEED","outputs":[{"internalType":"contract AggregatorV3Interface","name":"","type":"address"}],"stateMutability":"view","type":"function"},{"inputs":[],"name":"FIRST_POOL","outputs":[{"internalType":"uint256","name":"","type":"uint256"}],"stateMutability":"view","type":"function"},{"inputs":[],"name":"FIRST_RESERVE","outputs":[{"internalType":"uint256","name":"","type":"uint256"}],"stateMutability":"view","type":"function"},{"inputs":[],"name":"LOTTERY_ROLE","outputs":[{"internalType":"bytes32","name":"","type":"bytes32"}],"stateMutability":"view","type":"function"},{"inputs":[],"name":"SECOND_POOL","outputs":[{"internalType":"uint256","name":"","type":"uint256"}],"stateMutability":"view","type":"function"},{"inputs":[],"name":"SECOND_RESERVE","outputs":[{"internalType":"uint256","name":"","type":"uint256"}],"stateMutability":"view","type":"function"},{"inputs":[],"name":"THIRD_POOL","outputs":[{"internalType":"uint256","name":"","type":"uint256"}],"stateMutability":"view","type":"function"},{"inputs":[],"name":"THIRD_RESERVE","outputs":[{"internalType":"uint256","name":"","type":"uint256"}],"stateMutability":"view","type":"function"},{"inputs":[],"name":"TICKET_PRICE_USD","outputs":[{"internalType":"uint256","name":"","type":"uint256"}],"stateMutability":"view","type":"function"},{"inputs":[],"name":"USDC","outputs":[{"internalType":"contract IERC20","name":"","type":"address"}],"stateMutability":"view","type":"function"},{"inputs":[{"internalType":"bytes32","name":"ticketHash","type":"bytes32"},{"internalType":"uint256","name":"ethAmount","type":"uint256"},{"internalType":"uint256","name":"usdcAmount","type":"uint256"}],"name":"claimPrize","outputs":[],"stateMutability":"nonpayable","type":"function"},{"inputs":[],"name":"devWallet","outputs":[{"internalType":"address","name":"","type":"address"}],"stateMutability":"view","type":"function"},{"inputs":[{"internalType":"uint256","name":"roundId","type":"uint256"},{"internalType":"uint256","name":"firstPrizeWinners","type":"uint256"},{"internalType":"uint256","name":"secondPrizeWinners","type":"uint256"},{"internalType":"uint256","name":"thirdPrizeWinners","type":"uint256"}],"name":"distributePrizes","outputs":[{"internalType":"uint256","name":"ethPerFirstWinner","type":"uint256"},{"internalType":"uint256","name":"ethPerSecondWinner","type":"uint256"},{"internalType":"uint256","name":"ethPerThirdWinner","type":"uint256"},{"internalType":"uint256","name":"usdcPerFirstWinner","type":"uint256"},{"internalType":"uint256","name":"usdcPerSecondWinner","type":"uint256"},{"internalType":"uint256","name":"usdcPerThirdWinner","type":"uint256"}],"stateMutability":"nonpayable","type":"function"},{"inputs":[],"name":"emergencyWithdraw","outputs":[],"stateMutability":"nonpayable","type":"function"},{"inputs":[],"name":"ethPools","outputs":[{"internalType":"uint256","name":"firstPrize","type":"uint256"},{"internalType":"uint256","name":"secondPrize","type":"uint256"},{"internalType":"uint256","name":"thirdPrize","type":"uint256"},{"internalType":"uint256","name":"firstReserve","type":"uint256"},{"internalType":"uint256","name":"secondReserve","type":"uint256"},{"internalType":"uint256","name":"thirdReserve","type":"uint256"}],"stateMutability":"view","type":"function"},{"inputs":[],"name":"getDetailedPoolsInfo","outputs":[{"internalType":"uint256","name":"ethFirstPrize","type":"uint256"},{"internalType":"uint256","name":"ethSecondPrize","type":"uint256"},{"internalType":"uint256","name":"ethThirdPrize","type":"uint256"},{"internalType":"uint256","name":"ethFirstReserve","type":"uint256"},{"internalType":"uint256","name":"ethSecondReserve","type":"uint256"},{"internalType":"uint256","name":"ethThirdReserve","type":"uint256"},{"internalType":"uint256","name":"usdcFirstPrize","type":"uint256"},{"internalType":"uint256","name":"usdcSecondPrize","type":"uint256"},{"internalType":"uint256","name":"usdcThirdPrize","type":"uint256"},{"internalType":"uint256","name":"usdcFirstReserve","type":"uint256"},{"internalType":"uint256","name":"usdcSecondReserve","type":"uint256"},{"internalType":"uint256","name":"usdcThirdReserve","type":"uint256"}],"stateMutability":"view","type":"function"},{"inputs":[],"name":"getETHAmountForTicket","outputs":[{"internalType":"uint256","name":"","type":"uint256"}],"stateMutability":"view","type":"function"},{"inputs":[],"name":"getETHPrice","outputs":[{"internalType":"uint256","name":"","type":"uint256"}],"stateMutability":"view","type":"function"},{"inputs":[],"name":"getPoolsInfo","outputs":[{"components":[{"internalType":"uint256","name":"firstPrize","type":"uint256"},{"internalType":"uint256","name":"secondPrize","type":"uint256"},{"internalType":"uint256","name":"thirdPrize","type":"uint256"},{"internalType":"uint256","name":"firstReserve","type":"uint256"},{"internalType":"uint256","name":"secondReserve","type":"uint256"},{"internalType":"uint256","name":"thirdReserve","type":"uint256"}],"internalType":"struct LottoMojiPrizePool.PrizePools","name":"ethPoolsInfo","type":"tuple"},{"components":[{"internalType":"uint256","name":"firstPrize","type":"uint256"},{"internalType":"uint256","name":"secondPrize","type":"uint256"},{"internalType":"uint256","name":"thirdPrize","type":"uint256"},{"internalType":"uint256","name":"firstReserve","type":"uint256"},{"internalType":"uint256","name":"secondReserve","type":"uint256"},{"internalType":"uint256","name":"thirdReserve","type":"uint256"}],"internalType":"struct LottoMojiPrizePool.PrizePools","name":"usdcPoolsInfo","type":"tuple"}],"stateMutability":"view","type":"function"},{"inputs":[{"internalType":"bytes32","name":"role","type":"bytes32"}],"name":"getRoleAdmin","outputs":[{"internalType":"bytes32","name":"","type":"bytes32"}],"stateMutability":"view","type":"function"},{"inputs":[{"internalType":"uint256","name":"roundId","type":"uint256"}],"name":"getRoundStats","outputs":[{"internalType":"uint256","name":"totalTickets","type":"uint256"},{"internalType":"uint256","name":"totalETH","type":"uint256"},{"internalType":"uint256","name":"totalUSDC","type":"uint256"}],"stateMutability":"view","type":"function"},{"inputs":[{"internalType":"bytes32","name":"role","type":"bytes32"},{"internalType":"address","name":"account","type":"address"}],"name":"grantRole","outputs":[],"stateMutability":"nonpayable","type":"function"},{"inputs":[{"internalType":"bytes32","name":"role","type":"bytes32"},{"internalType":"address","name":"account","type":"address"}],"name":"hasRole","outputs":[{"internalType":"bool","name":"","type":"bool"}],"stateMutability":"view","type":"function"},{"inputs":[{"internalType":"bytes32","name":"ticketHash","type":"bytes32"}],"name":"isTicketPaid","outputs":[{"internalType":"bool","name":"","type":"bool"}],"stateMutability":"view","type":"function"},{"inputs":[{"internalType":"bytes32","name":"ticketHash","type":"bytes32"},{"internalType":"address","name":"player","type":"address"},{"internalType":"uint256","name":"roundId","type":"uint256"}],"name":"processETHPayment","outputs":[],"stateMutability":"payable","type":"function"},{"inputs":[{"internalType":"bytes32","name":"ticketHash","type":"bytes32"},{"internalType":"address","name":"player","type":"address"},{"internalType":"uint256","name":"roundId","type":"uint256"}],"name":"processUSDCPayment","outputs":[],"stateMutability":"nonpayable","type":"function"},{"inputs":[{"internalType":"bytes32","name":"role","type":"bytes32"},{"internalType":"address","name":"callerConfirmation","type":"address"}],"name":"renounceRole","outputs":[],"stateMutability":"nonpayable","type":"function"},{"inputs":[{"internalType":"bytes32","name":"role","type":"bytes32"},{"internalType":"address","name":"account","type":"address"}],"name":"revokeRole","outputs":[],"stateMutability":"nonpayable","type":"function"},{"inputs":[{"internalType":"uint256","name":"","type":"uint256"}],"name":"roundTotalETH","outputs":[{"internalType":"uint256","name":"","type":"uint256"}],"stateMutability":"view","type":"function"},{"inputs":[{"internalType":"uint256","name":"","type":"uint256"}],"name":"roundTotalTickets","outputs":[{"internalType":"uint256","name":"","type":"uint256"}],"stateMutability":"view","type":"function"},{"inputs":[{"internalType":"uint256","name":"","type":"uint256"}],"name":"roundTotalUSDC","outputs":[{"internalType":"uint256","name":"","type":"uint256"}],"stateMutability":"view","type":"function"},{"inputs":[{"internalType":"bytes4","name":"interfaceId","type":"bytes4"}],"name":"supportsInterface","outputs":[{"internalType":"bool","name":"","type":"bool"}],"stateMutability":"view","type":"function"},{"inputs":[{"internalType":"bytes32","name":"","type":"bytes32"}],"name":"ticketPayments","outputs":[{"internalType":"address","name":"player","type":"address"},{"internalType":"uint256","name":"ethAmount","type":"uint256"},{"internalType":"uint256","name":"usdcAmount","type":"uint256"},{"internalType":"uint256","name":"roundId","type":"uint256"},{"internalType":"bool","name":"prizesClaimed","type":"bool"}],"stateMutability":"view","type":"function"},{"inputs":[],"name":"usdcPools","outputs":[{"internalType":"uint256","name":"firstPrize","type":"uint256"},{"internalType":"uint256","name":"secondPrize","type":"uint256"},{"internalType":"uint256","name":"thirdPrize","type":"uint256"},{"internalType":"uint256","name":"firstReserve","type":"uint256"},{"internalType":"uint256","name":"secondReserve","type":"uint256"},{"internalType":"uint256","name":"thirdReserve","type":"uint256"}],"stateMutability":"view","type":"function"},{"stateMutability":"payable","type":"receive"}],"evm":{"bytecode":{"linkReferences":{},"object":"60e0346200011757601f62001ed438819003918201601f19168301916001600160401b038311848410176200011c5780849260809460405283398101031262000117576200004d8162000132565b6200005b6020830162000132565b620000926200007b6060620000736040870162000132565b950162000132565b60016000556200008b3362000147565b50620001c8565b506200009e836200026b565b506001600160a01b039182166080521660a05260c052604051611baa90816200030a82396080518181816102b5015281816109b7015281816111fe0152611536015260a05181818161109b0152611996015260c051818181610321015281816103bc015281816107b201528181610b26015261115b0152f35b600080fd5b634e487b7160e01b600052604160045260246000fd5b51906001600160a01b03821682036200011757565b6001600160a01b031660008181527fa6eef7e35abe7026729641147f7915573c7e97b47efa546f5f6e3230263bcb49602052604081205490919060ff16620001c45781805260016020526040822081835260205260408220600160ff19825416179055339160008051602062001eb48339815191528180a4600190565b5090565b6001600160a01b031660008181527f073958672879cb212fd21aa9808c475a92efbc141596c45775d6cc1dedba2f0160205260408120549091907f98121a24191e1fb000610027f4e133f798a7a0273dc182e08f2925d985a104cc9060ff16620002665780835260016020526040832082845260205260408320600160ff1982541617905560008051602062001eb4833981519152339380a4600190565b505090565b6001600160a01b031660008181527f91ecd12c9eca9be961b39094264ff8858826027d38488a7e6ede7e274f7738cb60205260408120549091907f51b355059847d158e68950419dbcd54fad00bdfd0634c2515a5c533288c7f0a29060ff16620002665780835260016020526040832082845260205260408320600160ff1982541617905560008051602062001eb4833981519152339380a460019056fe6080604081815260049182361015610022575b505050361561002057600080fd5b005b600092833560e01c91826301ffc9a7146116f15750816304ba8c22146116a057816311de857414611683578163248a9ca31461165957816324e42276146114275781632cb36b51146113e15781632f2ff15d146113b757816336568abe1461137157816338090ec61461134857816339fc88751461132c578163436a88c114611310578163481951e6146112e85781634cf1219d146112675781634e7972531461124b57816359728bbf1461122d57816389a30271146111e95781638b19f56f1461118a5781638ea5220f1461114657816391d14854146110ff578163929a47e1146110ca57816394d8572a14611086578163a217fddf1461106b578163a607a8d91461104e578163b33f1cf214610d0d578163b7ddaa6c14610cf1578163bad6fb1214610c9d578163c293f72f14610c75578163cc68082314610960578163d073cc54146105dc578163d547741f1461059d578163d54d0c5314610571578163d728d2a014610456578163db2e21bc1461026a578163eb46edf01461024e578163ef1bc4db14610232578163f06cc54614610206575063fcf0f0d3146101c95780610012565b34610202578160031936011261020257602090517f51b355059847d158e68950419dbcd54fad00bdfd0634c2515a5c533288c7f0a28152f35b5080fd5b90503461022e57602036600319011261022e5760209282913581526011845220549051908152f35b8280fd5b5050346102025781600319360112610202576020905160508152f35b5050346102025781600319360112610202576020905160a08152f35b90503461022e578260031936011261022e5782805260209160018352808420338552835260ff8185205416156104395780516370a0823160e01b815230838201526001600160a01b037f000000000000000000000000000000000000000000000000000000000000000081169391908690479087846024818a5afa93841561042f578394610400575b5081159081156103ad575b505050508061030b578580f35b825163a9059cbb60e01b81526001600160a01b037f000000000000000000000000000000000000000000000000000000000000000016928101928352602083019190915292849184919082908890829060400103925af19081156103a45750610376575b8080808580f35b8161039592903d1061039d575b61038d8183611912565b810190611b0a565b50388061036f565b503d610383565b513d85823e3d90fd5b83928392839283916103f6575b7f00000000000000000000000000000000000000000000000000000000000000001690f1156103ec57853880806102fe565b82513d87823e3d90fd5b6108fc91506103ba565b9093508781813d8311610428575b6104188183611912565b8101031261022e575192386102f3565b503d61040e565b86513d85823e3d90fd5b9083604492519163e2517d3f60e01b835233908301526024820152fd5b9050823461056e578060031936011261056e575061056c61018092610479611b22565b50610482611b22565b5080519261048f846118f6565b6002548452600354602085015254818401526005546060840152600654608084015260075460a084015261052e8151916104c8836118f6565b60085483526009546020840152600a5481840152600b546060840152600c546080840152600d5460a084015251809460a0809180518452602081015160208501526040810151604085015260608101516060850152608081015160808501520151910152565b805160c0840152602081015160e084015260408101516101008401526060810151610120840152608081015161014084015260a00151610160830152565bf35b80fd5b505034610202578160031936011261020257602090610596610591611981565b61194b565b9051908152f35b9190503461022e578060031936011261022e576105d891356105d360016105c2611744565b938387528160205286200154611789565b61184d565b5080f35b83836105e73661175f565b9092600080516020611b55833981519152855260209560018752818620338752875261061860ff8388205416611a71565b610620611ae7565b61062b610591611981565b9081341061092a5782519561063f876118c4565b6001600160a01b039081168088528988018481528589018a815260608a0188815260808b018c81528a8d52600e8e52888d209b518c549087166001600160a01b0319909116178c55925160018c0155905160028b01555160038a015551978301805460ff191698151560ff16989098179097556032830290831591848104603214831715610917576103e8809104926028860286810460281482171561090457600a8702878104600a148317156108f15760508802918883046050148417156108de5760148902928984046014148517156108cb5761028091828b02928b8404148617156108b75760a08b02958b870460a01417156108b757948f9894876107989161078c828d9c988f828f9e999a8f9e826107a49d610780956107698361077495048254611ab5565b905504600354611ab5565b60035504600254611ab5565b60025504600754611ab5565b60075504600654611ab5565b60065504600554611ab5565b600555829082156108ad575b7f00000000000000000000000000000000000000000000000000000000000000001690f1156108a35781341161084a575b5091856060927ffa4bdd2ea03c565c5bdb3934d7a0f5e114365d0036439f866894e32cb2b6f68e9489848452600f815282842061081e8154611ad8565b905584845260108152828420610835838254611ab5565b90558251948552840152820152a36001815580f35b9681340334811161089057878080809b50809798999a938b82883414610887575bf11561087b5796959493926107e1565b505051903d90823e3d90fd5b506108fc61086b565b634e487b7160e01b885260118952602488fd5b82513d88823e3d90fd5b6108fc91506107b0565b50634e487b7160e01b8f526011895260248ffd5b634e487b7160e01b8f526011895260248ffd5b634e487b7160e01b8e526011885260248efd5b634e487b7160e01b8d526011875260248dfd5b634e487b7160e01b8c526011865260248cfd5b634e487b7160e01b8a526011845260248afd5b825162461bcd60e51b8152908101889052601060248201526f092dce6eaccccd2c6d2cadce8408aa8960831b6044820152606490fd5b83833461020257816109713661175f565b9291939095600080516020611b5583398151915283526020906001825282842033855282526109a560ff8486205416611a71565b6109ad611ae7565b60018060a01b03807f0000000000000000000000000000000000000000000000000000000000000000168451916323b872dd60e01b8352338484015260249230848201528581606481621e84809b8c6044830152875af1908115610c6b578b91610c4e575b5015610c1557899a848a8a8a858b5195610a2b876118c4565b169e8f8652868c8c880192808452818901948552606089019586528d60808a01978289528252600e9052209651166bffffffffffffffffffffffff60a01b875416178655516001860155516002850155516003840155511515910190610a9c919060ff801983541691151516179055565b600a54620138808101809111610c0357600a55600954620271008101809111610c0357600955600854621388008101809111610c0357600855600d54614e208101809111610c0357600d55600c54619c408101809111610c0357600c55600b546204e2008101809111610c035791604486928d94600b558851948593849263a9059cbb60e01b84527f00000000000000000000000000000000000000000000000000000000000000001689840152620186a0888401525af18015610bf957610bdc575b50858952600f8352838920610b748154611ad8565b90558589526011835283892090815492868401809411610bcb57505055815193845283018690528201527ffa4bdd2ea03c565c5bdb3934d7a0f5e114365d0036439f866894e32cb2b6f68e90606090a36001815580f35b634e487b7160e01b8b526011905289fd5b610bf290843d861161039d5761038d8183611912565b5089610b5f565b85513d8c823e3d90fd5b634e487b7160e01b8c5260118552838cfd5b855162461bcd60e51b8152808501869052601481850152731554d110c81d1c985b9cd9995c8819985a5b195960621b6044820152606490fd5b610c659150863d881161039d5761038d8183611912565b8c610a12565b87513d8d823e3d90fd5b90503461022e57602036600319011261022e576020928291358152600f845220549051908152f35b82843461056e578060031936011261056e575060025460035492546005546006546007549451938452602084019590955260408301919091526060820152608081019290925260a082015260c090f35b0390f35b5050346102025781600319360112610202576020905160288152f35b90503461022e57608036600319011261022e578035926024359260443560643592600080516020611b5583398151915281526001602052828120338252602052610d5c60ff8483205416611a71565b958693849384929091839081808b1561104557505060025495836005549788610d8491611ab5565b978c60085499600b549a8b610d9891611ab5565b91610da291611977565b9d610dac91611977565b98811580159061103c575b610fe9575b50505082600255826005558260085582600b555b80610f24575b5080610e5f575b50508151888152602081018a905260408101849052606081018590526080810186905260a08101879052610ced97507ff2e488aab7a2ee240f8cc49ca99a73c33243895749e99ab8cfa0f031d9caf2169060c090a251968796879260a094919796959260c0850198855260208501526040840152606083015260808201520152565b93509550865495806007549788610e7591611ab5565b988386600a549b600d549c8d610e8a91611ab5565b91610e9491611977565b97610e9e91611977565b9980159b8c15610ced9d610f1b575b610ec8575b505050558060075580600a55600d553880610ddd565b7f76a8adad51ef6bba5772879f550da7df7054ccd5451ccb6d5dffaa4f7ef4a3e89160a0918951916060835260056060840152641d1a1a5c9960da1b6080840152602083015289820152a2833880610eb2565b50801515610ead565b9a50955060035495826006549788610f3b91611ab5565b978c60095499600c549a8b610f4f91611ab5565b91610f5991611977565b9d610f6391611977565b988115801590610fe0575b610f8c575b50505081600355816006558160095581600c5538610dd6565b7f76a8adad51ef6bba5772879f550da7df7054ccd5451ccb6d5dffaa4f7ef4a3e89160a0918851916060835260066060840152651cd958dbdb9960d21b6080840152602083015288820152a2823880610f73565b50801515610f6e565b7f76a8adad51ef6bba5772879f550da7df7054ccd5451ccb6d5dffaa4f7ef4a3e89160a091895191606083526005606084015264199a5c9cdd60da1b6080840152602083015289820152a2833880610dbc565b50801515610db7565b96909a50610dd0565b505034610202578160031936011261020257602090610596611981565b50503461020257816003193601126102025751908152602090f35b505034610202578160031936011261020257517f00000000000000000000000000000000000000000000000000000000000000006001600160a01b03168152602090f35b90503461022e57602036600319011261022e57358252600e6020908152918190205490516001600160a01b0390911615158152f35b90503461022e578160031936011261022e578160209360ff92611120611744565b90358252600186528282206001600160a01b039091168252855220549151911615158152f35b505034610202578160031936011261020257517f00000000000000000000000000000000000000000000000000000000000000006001600160a01b03168152602090f35b9190503461022e57602036600319011261022e578060a09383358152600e60205220600180851b038154169260018201549260ff6002840154926003850154940154169381519586526020860152840152606083015215156080820152f35b505034610202578160031936011261020257517f00000000000000000000000000000000000000000000000000000000000000006001600160a01b03168152602090f35b50503461020257816003193601126102025760209051621e84808152f35b50503461020257816003193601126102025760209051600a8152f35b90503461022e578260031936011261022e5761018092506002549160035491546005546006546007546008549060095492600a5494600b5496600c5498600d549a81519c8d5260208d01528b015260608a0152608089015260a088015260c087015260e0860152610100850152610120840152610140830152610160820152f35b90503461022e57602036600319011261022e5760209282913581526010845220549051908152f35b5050346102025781600319360112610202576020905160328152f35b5050346102025781600319360112610202576020905160148152f35b50503461020257816003193601126102025760209051600080516020611b558339815191528152f35b83833461020257806003193601126102025761138b611744565b90336001600160a01b038316036113a857506105d891923561184d565b5163334bd91960e11b81528390fd5b9190503461022e578060031936011261022e576105d891356113dc60016105c2611744565b6117cd565b90503461022e57602036600319011261022e5791606092358152600f60205281812054916010602052808083205492601160205220549181519384526020840152820152f35b9190503461022e57606036600319011261022e5781356024359160443592600080516020611b55833981519152865260209360018552828720338852855261147460ff8489205416611a71565b61147c611ae7565b838752600e855282872080546001600160a01b0391908216801561162357888201805460ff81166115e85760ff1916600117905589908590811580156115b9575b50505050826114ff575b7fa3dd4a1386669cfcc372819ceaee69df2c1c14eb82976d79bd15c856666cb650959697505416958351928352820152a36001815580f35b8054855163a9059cbb60e01b81529083166001600160a01b0316988101988952602089018490529787908990819060400103818c867f0000000000000000000000000000000000000000000000000000000000000000165af19788156115af577fa3dd4a1386669cfcc372819ceaee69df2c1c14eb82976d79bd15c856666cb650969798611592575b50879695506114c7565b6115a890893d8b1161039d5761038d8183611912565b5038611588565b85513d8b823e3d90fd5b83928392839283906115df575bf1156115d557888438806114bd565b84513d8a823e3d90fd5b506108fc6115c6565b875162461bcd60e51b8152808c018b90526015602482015274141c9a5e9948185b1c9958591e4818db185a5b5959605a1b6044820152606490fd5b855162461bcd60e51b8152808a01899052601060248201526f151a58dad95d081b9bdd08199bdd5b9960821b6044820152606490fd5b90503461022e57602036600319011261022e57816020936001923581528285522001549051908152f35b505034610202578160031936011261020257602090516102808152f35b82843461056e578060031936011261056e5750600854600954600a54600b54600c54600d549551948552602085019390935260408401919091526060830152608082015260a081019190915260c090f35b84913461022e57602036600319011261022e573563ffffffff60e01b811680910361022e5760209250637965db0b60e01b8114908115611733575b5015158152f35b6301ffc9a760e01b1490508361172c565b602435906001600160a01b038216820361175a57565b600080fd5b606090600319011261175a57600435906024356001600160a01b038116810361175a579060443590565b80600052600160205260406000203360005260205260ff60406000205416156117af5750565b6044906040519063e2517d3f60e01b82523360048301526024820152fd5b906000918083526001602052604083209160018060a01b03169182845260205260ff604084205416156000146118485780835260016020526040832082845260205260408320600160ff198254161790557f2f8788117e7eff1d82e926ec794901d17c78024a50270940304540a733656f0d339380a4600190565b505090565b906000918083526001602052604083209160018060a01b03169182845260205260ff604084205416600014611848578083526001602052604083208284526020526040832060ff1981541690557ff6391f5c32d9c69d2a47ea670b442974b53935d1edc7fd64eb21e047a839171b339380a4600190565b60a0810190811067ffffffffffffffff8211176118e057604052565b634e487b7160e01b600052604160045260246000fd5b60c0810190811067ffffffffffffffff8211176118e057604052565b90601f8019910116810190811067ffffffffffffffff8211176118e057604052565b519069ffffffffffffffffffff8216820361175a57565b8015611961576a01a784379d99db420000000490565b634e487b7160e01b600052601260045260246000fd5b8115611961570490565b604051633fabe5a360e21b815260a0816004817f00000000000000000000000000000000000000000000000000000000000000006001600160a01b03165afa908115611a6557600091611a19575b5060008113156119e0576064900490565b60405162461bcd60e51b8152602060048201526011602482015270496e76616c69642045544820707269636560781b6044820152606490fd5b9060a0823d8211611a5d575b81611a3260a09383611912565b8101031261056e5750611a4481611934565b50611a56608060208301519201611934565b50386119cf565b3d9150611a25565b6040513d6000823e3d90fd5b15611a7857565b60405162461bcd60e51b815260206004820152601560248201527413db9b1e481b1bdd1d195c9e4818dbdb9d1c9858dd605a1b6044820152606490fd5b91908201809211611ac257565b634e487b7160e01b600052601160045260246000fd5b6000198114611ac25760010190565b600260005414611af8576002600055565b604051633ee5aeb560e01b8152600490fd5b9081602091031261175a5751801515810361175a5790565b60405190611b2f826118f6565b8160a0600091828152826020820152826040820152826060820152826080820152015256fe98121a24191e1fb000610027f4e133f798a7a0273dc182e08f2925d985a104cca2646970667358221220bd7587437f5eff1dd65d053fbe99fed8c4db6587cb17b2a542938c5e8b8aabc164736f6c634300081400332f8788117e7eff1d82e926ec794901d17c78024a50270940304540a733656f0d","opcodes":"PUSH1 0xE0 CALLVALUE PUSH3 0x117 JUMPI PUSH1 0x1F PUSH3 0x1ED4 CODESIZE DUP2 SWAP1 SUB SWAP2 DUP3 ADD PUSH1 0x1F NOT AND DUP4 ADD SWAP2 PUSH1 0x1 PUSH1 0x1 PUSH1 0x40 SHL SUB DUP4 GT DUP5 DUP5 LT OR PUSH3 0x11C JUMPI DUP1 DUP5 SWAP3 PUSH1 0x80 SWAP5 PUSH1 0x40 MSTORE DUP4 CODECOPY DUP2 ADD SUB SLT PUSH3 0x117 JUMPI PUSH3 0x4D DUP2 PUSH3 0x132 JUMP JUMPDEST PUSH3 0x5B PUSH1 0x20 DUP4 ADD PUSH3 0x132 JUMP JUMPDEST PUSH3 0x92 PUSH3 0x7B PUSH1 0x60 PUSH3 0x73 PUSH1 0x40 DUP8 ADD PUSH3 0x132 JUMP JUMPDEST SWAP6 ADD PUSH3 0x132 JUMP JUMPDEST PUSH1 0x1 PUSH1 0x0 SSTORE PUSH3 0x8B CALLER PUSH3 0x147 JUMP JUMPDEST POP PUSH3 0x1C8 JUMP JUMPDEST POP PUSH3 0x9E DUP4 PUSH3 0x26B JUMP JUMPDEST POP PUSH1 0x1 PUSH1 0x1 PUSH1 0xA0 SHL SUB SWAP2 DUP3 AND PUSH1 0x80 MSTORE AND PUSH1 0xA0 MSTORE PUSH1 0xC0 MSTORE PUSH1 0x40 MLOAD PUSH2 0x1BAA SWAP1 DUP2 PUSH3 0x30A DUP3 CODECOPY PUSH1 0x80 MLOAD DUP2 DUP2 DUP2 PUSH2 0x2B5 ADD MSTORE DUP2 DUP2 PUSH2 0x9B7 ADD MSTORE DUP2 DUP2 PUSH2 0x11FE ADD MSTORE PUSH2 0x1536 ADD MSTORE PUSH1 0xA0 MLOAD DUP2 DUP2 DUP2 PUSH2 0x109B ADD MSTORE PUSH2 0x1996 ADD MSTORE PUSH1 0xC0 MLOAD DUP2 DUP2 DUP2 PUSH2 0x321 ADD MSTORE DUP2 DUP2 PUSH2 0x3BC ADD MSTORE DUP2 DUP2 PUSH2 0x7B2 ADD MSTORE DUP2 DUP2 PUSH2 0xB26 ADD MSTORE PUSH2 0x115B ADD MSTORE RETURN JUMPDEST PUSH1 0x0 DUP1 REVERT JUMPDEST PUSH4 0x4E487B71 PUSH1 0xE0 SHL PUSH1 0x0 MSTORE PUSH1 0x41 PUSH1 0x4 MSTORE PUSH1 0x24 PUSH1 0x0 REVERT JUMPDEST MLOAD SWAP1 PUSH1 0x1 PUSH1 0x1 PUSH1 0xA0 SHL SUB DUP3 AND DUP3 SUB PUSH3 0x117 JUMPI JUMP JUMPDEST PUSH1 0x1 PUSH1 0x1 PUSH1 0xA0 SHL SUB AND PUSH1 0x0 DUP2 DUP2 MSTORE PUSH32 0xA6EEF7E35ABE7026729641147F7915573C7E97B47EFA546F5F6E3230263BCB49 PUSH1 0x20 MSTORE PUSH1 0x40 DUP2 KECCAK256 SLOAD SWAP1 SWAP2 SWAP1 PUSH1 0xFF AND PUSH3 0x1C4 JUMPI DUP2 DUP1 MSTORE PUSH1 0x1 PUSH1 0x20 MSTORE PUSH1 0x40 DUP3 KECCAK256 DUP2 DUP4 MSTORE PUSH1 0x20 MSTORE PUSH1 0x40 DUP3 KECCAK256 PUSH1 0x1 PUSH1 0xFF NOT DUP3 SLOAD AND OR SWAP1 SSTORE CALLER SWAP2 PUSH1 0x0 DUP1 MLOAD PUSH1 0x20 PUSH3 0x1EB4 DUP4 CODECOPY DUP2 MLOAD SWAP2 MSTORE DUP2 DUP1 LOG4 PUSH1 0x1 SWAP1 JUMP JUMPDEST POP SWAP1 JUMP JUMPDEST PUSH1 0x1 PUSH1 0x1 PUSH1 0xA0 SHL SUB AND PUSH1 0x0 DUP2 DUP2 MSTORE PUSH32 0x73958672879CB212FD21AA9808C475A92EFBC141596C45775D6CC1DEDBA2F01 PUSH1 0x20 MSTORE PUSH1 0x40 DUP2 KECCAK256 SLOAD SWAP1 SWAP2 SWAP1 PUSH32 0x98121A24191E1FB000610027F4E133F798A7A0273DC182E08F2925D985A104CC SWAP1 PUSH1 0xFF AND PUSH3 0x266 JUMPI DUP1 DUP4 MSTORE PUSH1 0x1 PUSH1 0x20 MSTORE PUSH1 0x40 DUP4 KECCAK256 DUP3 DUP5 MSTORE PUSH1 0x20 MSTORE PUSH1 0x40 DUP4 KECCAK256 PUSH1 0x1 PUSH1 0xFF NOT DUP3 SLOAD AND OR SWAP1 SSTORE PUSH1 0x0 DUP1 MLOAD PUSH1 0x20 PUSH3 0x1EB4 DUP4 CODECOPY DUP2 MLOAD SWAP2 MSTORE CALLER SWAP4 DUP1 LOG4 PUSH1 0x1 SWAP1 JUMP JUMPDEST POP POP SWAP1 JUMP JUMPDEST PUSH1 0x1 PUSH1 0x1 PUSH1 0xA0 SHL SUB AND PUSH1 0x0 DUP2 DUP2 MSTORE PUSH32 0x91ECD12C9ECA9BE961B39094264FF8858826027D38488A7E6EDE7E274F7738CB PUSH1 0x20 MSTORE PUSH1 0x40 DUP2 KECCAK256 SLOAD SWAP1 SWAP2 SWAP1 PUSH32 0x51B355059847D158E68950419DBCD54FAD00BDFD0634C2515A5C533288C7F0A2 SWAP1 PUSH1 0xFF AND PUSH3 0x266 JUMPI DUP1 DUP4 MSTORE PUSH1 0x1 PUSH1 0x20 MSTORE PUSH1 0x40 DUP4 KECCAK256 DUP3 DUP5 MSTORE PUSH1 0x20 MSTORE PUSH1 0x40 DUP4 KECCAK256 PUSH1 0x1 PUSH1 0xFF NOT DUP3 SLOAD AND OR SWAP1 SSTORE PUSH1 0x0 DUP1 MLOAD PUSH1 0x20 PUSH3 0x1EB4 DUP4 CODECOPY DUP2 MLOAD SWAP2 MSTORE CALLER SWAP4 DUP1 LOG4 PUSH1 0x1 SWAP1 JUMP INVALID PUSH1 0x80 PUSH1 0x40 DUP2 DUP2 MSTORE PUSH1 0x4 SWAP2 DUP3 CALLDATASIZE LT ISZERO PUSH2 0x22 JUMPI JUMPDEST POP POP POP CALLDATASIZE ISZERO PUSH2 0x20 JUMPI PUSH1 0x0 DUP1 REVERT JUMPDEST STOP JUMPDEST PUSH1 0x0 SWAP3 DUP4 CALLDATALOAD PUSH1 0xE0 SHR SWAP2 DUP3 PUSH4 0x1FFC9A7 EQ PUSH2 0x16F1 JUMPI POP DUP2 PUSH4 0x4BA8C22 EQ PUSH2 0x16A0 JUMPI DUP2 PUSH4 0x11DE8574 EQ PUSH2 0x1683 JUMPI DUP2 PUSH4 0x248A9CA3 EQ PUSH2 0x1659 JUMPI DUP2 PUSH4 0x24E42276 EQ PUSH2 0x1427 JUMPI DUP2 PUSH4 0x2CB36B51 EQ PUSH2 0x13E1 JUMPI DUP2 PUSH4 0x2F2FF15D EQ PUSH2 0x13B7 JUMPI DUP2 PUSH4 0x36568ABE EQ PUSH2 0x1371 JUMPI DUP2 PUSH4 0x38090EC6 EQ PUSH2 0x1348 JUMPI DUP2 PUSH4 0x39FC8875 EQ PUSH2 0x132C JUMPI DUP2 PUSH4 0x436A88C1 EQ PUSH2 0x1310 JUMPI DUP2 PUSH4 0x481951E6 EQ PUSH2 0x12E8 JUMPI DUP2 PUSH4 0x4CF1219D EQ PUSH2 0x1267 JUMPI DUP2 PUSH4 0x4E797253 EQ PUSH2 0x124B JUMPI DUP2 PUSH4 0x59728BBF EQ PUSH2 0x122D JUMPI DUP2 PUSH4 0x89A30271 EQ PUSH2 0x11E9 JUMPI DUP2 PUSH4 0x8B19F56F EQ PUSH2 0x118A JUMPI DUP2 PUSH4 0x8EA5220F EQ PUSH2 0x1146 JUMPI DUP2 PUSH4 0x91D14854 EQ PUSH2 0x10FF JUMPI DUP2 PUSH4 0x929A47E1 EQ PUSH2 0x10CA JUMPI DUP2 PUSH4 0x94D8572A EQ PUSH2 0x1086 JUMPI DUP2 PUSH4 0xA217FDDF EQ PUSH2 0x106B JUMPI DUP2 PUSH4 0xA607A8D9 EQ PUSH2 0x104E JUMPI DUP2 PUSH4 0xB33F1CF2 EQ PUSH2 0xD0D JUMPI DUP2 PUSH4 0xB7DDAA6C EQ PUSH2 0xCF1 JUMPI DUP2 PUSH4 0xBAD6FB12 EQ PUSH2 0xC9D JUMPI DUP2 PUSH4 0xC293F72F EQ PUSH2 0xC75 JUMPI DUP2 PUSH4 0xCC680823 EQ PUSH2 0x960 JUMPI DUP2 PUSH4 0xD073CC54 EQ PUSH2 0x5DC JUMPI DUP2 PUSH4 0xD547741F EQ PUSH2 0x59D JUMPI DUP2 PUSH4 0xD54D0C53 EQ PUSH2 0x571 JUMPI DUP2 PUSH4 0xD728D2A0 EQ PUSH2 0x456 JUMPI DUP2 PUSH4 0xDB2E21BC EQ PUSH2 0x26A JUMPI DUP2 PUSH4 0xEB46EDF0 EQ PUSH2 0x24E JUMPI DUP2 PUSH4 0xEF1BC4DB EQ PUSH2 0x232 JUMPI DUP2 PUSH4 0xF06CC546 EQ PUSH2 0x206 JUMPI POP PUSH4 0xFCF0F0D3 EQ PUSH2 0x1C9 JUMPI DUP1 PUSH2 0x12 JUMP JUMPDEST CALLVALUE PUSH2 0x202 JUMPI DUP2 PUSH1 0x3 NOT CALLDATASIZE ADD SLT PUSH2 0x202 JUMPI PUSH1 0x20 SWAP1 MLOAD PUSH32 0x51B355059847D158E68950419DBCD54FAD00BDFD0634C2515A5C533288C7F0A2 DUP2 MSTORE RETURN JUMPDEST POP DUP1 REVERT JUMPDEST SWAP1 POP CALLVALUE PUSH2 0x22E JUMPI PUSH1 0x20 CALLDATASIZE PUSH1 0x3 NOT ADD SLT PUSH2 0x22E JUMPI PUSH1 0x20 SWAP3 DUP3 SWAP2 CALLDATALOAD DUP2 MSTORE PUSH1 0x11 DUP5 MSTORE KECCAK256 SLOAD SWAP1 MLOAD SWAP1 DUP2 MSTORE RETURN JUMPDEST DUP3 DUP1 REVERT JUMPDEST POP POP CALLVALUE PUSH2 0x202 JUMPI DUP2 PUSH1 0x3 NOT CALLDATASIZE ADD SLT PUSH2 0x202 JUMPI PUSH1 0x20 SWAP1 MLOAD PUSH1 0x50 DUP2 MSTORE RETURN JUMPDEST POP POP CALLVALUE PUSH2 0x202 JUMPI DUP2 PUSH1 0x3 NOT CALLDATASIZE ADD SLT PUSH2 0x202 JUMPI PUSH1 0x20 SWAP1 MLOAD PUSH1 0xA0 DUP2 MSTORE RETURN JUMPDEST SWAP1 POP CALLVALUE PUSH2 0x22E JUMPI DUP3 PUSH1 0x3 NOT CALLDATASIZE ADD SLT PUSH2 0x22E JUMPI DUP3 DUP1 MSTORE PUSH1 0x20 SWAP2 PUSH1 0x1 DUP4 MSTORE DUP1 DUP5 KECCAK256 CALLER DUP6 MSTORE DUP4 MSTORE PUSH1 0xFF DUP2 DUP6 KECCAK256 SLOAD AND ISZERO PUSH2 0x439 JUMPI DUP1 MLOAD PUSH4 0x70A08231 PUSH1 0xE0 SHL DUP2 MSTORE ADDRESS DUP4 DUP3 ADD MSTORE PUSH1 0x1 PUSH1 0x1 PUSH1 0xA0 SHL SUB PUSH32 0x0 DUP2 AND SWAP4 SWAP2 SWAP1 DUP7 SWAP1 SELFBALANCE SWAP1 DUP8 DUP5 PUSH1 0x24 DUP2 DUP11 GAS STATICCALL SWAP4 DUP5 ISZERO PUSH2 0x42F JUMPI DUP4 SWAP5 PUSH2 0x400 JUMPI JUMPDEST POP DUP2 ISZERO SWAP1 DUP2 ISZERO PUSH2 0x3AD JUMPI JUMPDEST POP POP POP POP DUP1 PUSH2 0x30B JUMPI DUP6 DUP1 RETURN JUMPDEST DUP3 MLOAD PUSH4 0xA9059CBB PUSH1 0xE0 SHL DUP2 MSTORE PUSH1 0x1 PUSH1 0x1 PUSH1 0xA0 SHL SUB PUSH32 0x0 AND SWAP3 DUP2 ADD SWAP3 DUP4 MSTORE PUSH1 0x20 DUP4 ADD SWAP2 SWAP1 SWAP2 MSTORE SWAP3 DUP5 SWAP2 DUP5 SWAP2 SWAP1 DUP3 SWAP1 DUP9 SWAP1 DUP3 SWAP1 PUSH1 0x40 ADD SUB SWAP3 GAS CALL SWAP1 DUP2 ISZERO PUSH2 0x3A4 JUMPI POP PUSH2 0x376 JUMPI JUMPDEST DUP1 DUP1 DUP1 DUP6 DUP1 RETURN JUMPDEST DUP2 PUSH2 0x395 SWAP3 SWAP1 RETURNDATASIZE LT PUSH2 0x39D JUMPI JUMPDEST PUSH2 0x38D DUP2 DUP4 PUSH2 0x1912 JUMP JUMPDEST DUP2 ADD SWAP1 PUSH2 0x1B0A JUMP JUMPDEST POP CODESIZE DUP1 PUSH2 0x36F JUMP JUMPDEST POP RETURNDATASIZE PUSH2 0x383 JUMP JUMPDEST MLOAD RETURNDATASIZE DUP6 DUP3 RETURNDATACOPY RETURNDATASIZE SWAP1 REVERT JUMPDEST DUP4 SWAP3 DUP4 SWAP3 DUP4 SWAP3 DUP4 SWAP2 PUSH2 0x3F6 JUMPI JUMPDEST PUSH32 0x0 AND SWAP1 CALL ISZERO PUSH2 0x3EC JUMPI DUP6 CODESIZE DUP1 DUP1 PUSH2 0x2FE JUMP JUMPDEST DUP3 MLOAD RETURNDATASIZE DUP8 DUP3 RETURNDATACOPY RETURNDATASIZE SWAP1 REVERT JUMPDEST PUSH2 0x8FC SWAP2 POP PUSH2 0x3BA JUMP JUMPDEST SWAP1 SWAP4 POP DUP8 DUP2 DUP2 RETURNDATASIZE DUP4 GT PUSH2 0x428 JUMPI JUMPDEST PUSH2 0x418 DUP2 DUP4 PUSH2 0x1912 JUMP JUMPDEST DUP2 ADD SUB SLT PUSH2 0x22E JUMPI MLOAD SWAP3 CODESIZE PUSH2 0x2F3 JUMP JUMPDEST POP RETURNDATASIZE PUSH2 0x40E JUMP JUMPDEST DUP7 MLOAD RETURNDATASIZE DUP6 DUP3 RETURNDATACOPY RETURNDATASIZE SWAP1 REVERT JUMPDEST SWAP1 DUP4 PUSH1 0x44 SWAP3 MLOAD SWAP2 PUSH4 0xE2517D3F PUSH1 0xE0 SHL DUP4 MSTORE CALLER SWAP1 DUP4 ADD MSTORE PUSH1 0x24 DUP3 ADD MSTORE REVERT JUMPDEST SWAP1 POP DUP3 CALLVALUE PUSH2 0x56E JUMPI DUP1 PUSH1 0x3 NOT CALLDATASIZE ADD SLT PUSH2 0x56E JUMPI POP PUSH2 0x56C PUSH2 0x180 SWAP3 PUSH2 0x479 PUSH2 0x1B22 JUMP JUMPDEST POP PUSH2 0x482 PUSH2 0x1B22 JUMP JUMPDEST POP DUP1 MLOAD SWAP3 PUSH2 0x48F DUP5 PUSH2 0x18F6 JUMP JUMPDEST PUSH1 0x2 SLOAD DUP5 MSTORE PUSH1 0x3 SLOAD PUSH1 0x20 DUP6 ADD MSTORE SLOAD DUP2 DUP5 ADD MSTORE PUSH1 0x5 SLOAD PUSH1 0x60 DUP5 ADD MSTORE PUSH1 0x6 SLOAD PUSH1 0x80 DUP5 ADD MSTORE PUSH1 0x7 SLOAD PUSH1 0xA0 DUP5 ADD MSTORE PUSH2 0x52E DUP2 MLOAD SWAP2 PUSH2 0x4C8 DUP4 PUSH2 0x18F6 JUMP JUMPDEST PUSH1 0x8 SLOAD DUP4 MSTORE PUSH1 0x9 SLOAD PUSH1 0x20 DUP5 ADD MSTORE PUSH1 0xA SLOAD DUP2 DUP5 ADD MSTORE PUSH1 0xB SLOAD PUSH1 0x60 DUP5 ADD MSTORE PUSH1 0xC SLOAD PUSH1 0x80 DUP5 ADD MSTORE PUSH1 0xD SLOAD PUSH1 0xA0 DUP5 ADD MSTORE MLOAD DUP1 SWAP5 PUSH1 0xA0 DUP1 SWAP2 DUP1 MLOAD DUP5 MSTORE PUSH1 0x20 DUP2 ADD MLOAD PUSH1 0x20 DUP6 ADD MSTORE PUSH1 0x40 DUP2 ADD MLOAD PUSH1 0x40 DUP6 ADD MSTORE PUSH1 0x60 DUP2 ADD MLOAD PUSH1 0x60 DUP6 ADD MSTORE PUSH1 0x80 DUP2 ADD MLOAD PUSH1 0x80 DUP6 ADD MSTORE ADD MLOAD SWAP2 ADD MSTORE JUMP JUMPDEST DUP1 MLOAD PUSH1 0xC0 DUP5 ADD MSTORE PUSH1 0x20 DUP2 ADD MLOAD PUSH1 0xE0 DUP5 ADD MSTORE PUSH1 0x40 DUP2 ADD MLOAD PUSH2 0x100 DUP5 ADD MSTORE PUSH1 0x60 DUP2 ADD MLOAD PUSH2 0x120 DUP5 ADD MSTORE PUSH1 0x80 DUP2 ADD MLOAD PUSH2 0x140 DUP5 ADD MSTORE PUSH1 0xA0 ADD MLOAD PUSH2 0x160 DUP4 ADD MSTORE JUMP JUMPDEST RETURN JUMPDEST DUP1 REVERT JUMPDEST POP POP CALLVALUE PUSH2 0x202 JUMPI DUP2 PUSH1 0x3 NOT CALLDATASIZE ADD SLT PUSH2 0x202 JUMPI PUSH1 0x20 SWAP1 PUSH2 0x596 PUSH2 0x591 PUSH2 0x1981 JUMP JUMPDEST PUSH2 0x194B JUMP JUMPDEST SWAP1 MLOAD SWAP1 DUP2 MSTORE RETURN JUMPDEST SWAP2 SWAP1 POP CALLVALUE PUSH2 0x22E JUMPI DUP1 PUSH1 0x3 NOT CALLDATASIZE ADD SLT PUSH2 0x22E JUMPI PUSH2 0x5D8 SWAP2 CALLDATALOAD PUSH2 0x5D3 PUSH1 0x1 PUSH2 0x5C2 PUSH2 0x1744 JUMP JUMPDEST SWAP4 DUP4 DUP8 MSTORE DUP2 PUSH1 0x20 MSTORE DUP7 KECCAK256 ADD SLOAD PUSH2 0x1789 JUMP JUMPDEST PUSH2 0x184D JUMP JUMPDEST POP DUP1 RETURN JUMPDEST DUP4 DUP4 PUSH2 0x5E7 CALLDATASIZE PUSH2 0x175F JUMP JUMPDEST SWAP1 SWAP3 PUSH1 0x0 DUP1 MLOAD PUSH1 0x20 PUSH2 0x1B55 DUP4 CODECOPY DUP2 MLOAD SWAP2 MSTORE DUP6 MSTORE PUSH1 0x20 SWAP6 PUSH1 0x1 DUP8 MSTORE DUP2 DUP7 KECCAK256 CALLER DUP8 MSTORE DUP8 MSTORE PUSH2 0x618 PUSH1 0xFF DUP4 DUP9 KECCAK256 SLOAD AND PUSH2 0x1A71 JUMP JUMPDEST PUSH2 0x620 PUSH2 0x1AE7 JUMP JUMPDEST PUSH2 0x62B PUSH2 0x591 PUSH2 0x1981 JUMP JUMPDEST SWAP1 DUP2 CALLVALUE LT PUSH2 0x92A JUMPI DUP3 MLOAD SWAP6 PUSH2 0x63F DUP8 PUSH2 0x18C4 JUMP JUMPDEST PUSH1 0x1 PUSH1 0x1 PUSH1 0xA0 SHL SUB SWAP1 DUP2 AND DUP1 DUP9 MSTORE DUP10 DUP9 ADD DUP5 DUP2 MSTORE DUP6 DUP10 ADD DUP11 DUP2 MSTORE PUSH1 0x60 DUP11 ADD DUP9 DUP2 MSTORE PUSH1 0x80 DUP12 ADD DUP13 DUP2 MSTORE DUP11 DUP14 MSTORE PUSH1 0xE DUP15 MSTORE DUP9 DUP14 KECCAK256 SWAP12 MLOAD DUP13 SLOAD SWAP1 DUP8 AND PUSH1 0x1 PUSH1 0x1 PUSH1 0xA0 SHL SUB NOT SWAP1 SWAP2 AND OR DUP13 SSTORE SWAP3 MLOAD PUSH1 0x1 DUP13 ADD SSTORE SWAP1 MLOAD PUSH1 0x2 DUP12 ADD SSTORE MLOAD PUSH1 0x3 DUP11 ADD SSTORE MLOAD SWAP8 DUP4 ADD DUP1 SLOAD PUSH1 0xFF NOT AND SWAP9 ISZERO ISZERO PUSH1 0xFF AND SWAP9 SWAP1 SWAP9 OR SWAP1 SWAP8 SSTORE PUSH1 0x32 DUP4 MUL SWAP1 DUP4 ISZERO SWAP2 DUP5 DUP2 DIV PUSH1 0x32 EQ DUP4 OR ISZERO PUSH2 0x917 JUMPI PUSH2 0x3E8 DUP1 SWAP2 DIV SWAP3 PUSH1 0x28 DUP7 MUL DUP7 DUP2 DIV PUSH1 0x28 EQ DUP3 OR ISZERO PUSH2 0x904 JUMPI PUSH1 0xA DUP8 MUL DUP8 DUP2 DIV PUSH1 0xA EQ DUP4 OR ISZERO PUSH2 0x8F1 JUMPI PUSH1 0x50 DUP9 MUL SWAP2 DUP9 DUP4 DIV PUSH1 0x50 EQ DUP5 OR ISZERO PUSH2 0x8DE JUMPI PUSH1 0x14 DUP10 MUL SWAP3 DUP10 DUP5 DIV PUSH1 0x14 EQ DUP6 OR ISZERO PUSH2 0x8CB JUMPI PUSH2 0x280 SWAP2 DUP3 DUP12 MUL SWAP3 DUP12 DUP5 DIV EQ DUP7 OR ISZERO PUSH2 0x8B7 JUMPI PUSH1 0xA0 DUP12 MUL SWAP6 DUP12 DUP8 DIV PUSH1 0xA0 EQ OR ISZERO PUSH2 0x8B7 JUMPI SWAP5 DUP16 SWAP9 SWAP5 DUP8 PUSH2 0x798 SWAP2 PUSH2 0x78C DUP3 DUP14 SWAP13 SWAP9 DUP16 DUP3 DUP16 SWAP15 SWAP10 SWAP11 DUP16 SWAP15 DUP3 PUSH2 0x7A4 SWAP14 PUSH2 0x780 SWAP6 PUSH2 0x769 DUP4 PUSH2 0x774 SWAP6 DIV DUP3 SLOAD PUSH2 0x1AB5 JUMP JUMPDEST SWAP1 SSTORE DIV PUSH1 0x3 SLOAD PUSH2 0x1AB5 JUMP JUMPDEST PUSH1 0x3 SSTORE DIV PUSH1 0x2 SLOAD PUSH2 0x1AB5 JUMP JUMPDEST PUSH1 0x2 SSTORE DIV PUSH1 0x7 SLOAD PUSH2 0x1AB5 JUMP JUMPDEST PUSH1 0x7 SSTORE DIV PUSH1 0x6 SLOAD PUSH2 0x1AB5 JUMP JUMPDEST PUSH1 0x6 SSTORE DIV PUSH1 0x5 SLOAD PUSH2 0x1AB5 JUMP JUMPDEST PUSH1 0x5 SSTORE DUP3 SWAP1 DUP3 ISZERO PUSH2 0x8AD JUMPI JUMPDEST PUSH32 0x0 AND SWAP1 CALL ISZERO PUSH2 0x8A3 JUMPI DUP2 CALLVALUE GT PUSH2 0x84A JUMPI JUMPDEST POP SWAP2 DUP6 PUSH1 0x60 SWAP3 PUSH32 0xFA4BDD2EA03C565C5BDB3934D7A0F5E114365D0036439F866894E32CB2B6F68E SWAP5 DUP10 DUP5 DUP5 MSTORE PUSH1 0xF DUP2 MSTORE DUP3 DUP5 KECCAK256 PUSH2 0x81E DUP2 SLOAD PUSH2 0x1AD8 JUMP JUMPDEST SWAP1 SSTORE DUP5 DUP5 MSTORE PUSH1 0x10 DUP2 MSTORE DUP3 DUP5 KECCAK256 PUSH2 0x835 DUP4 DUP3 SLOAD PUSH2 0x1AB5 JUMP JUMPDEST SWAP1 SSTORE DUP3 MLOAD SWAP5 DUP6 MSTORE DUP5 ADD MSTORE DUP3 ADD MSTORE LOG3 PUSH1 0x1 DUP2 SSTORE DUP1 RETURN JUMPDEST SWAP7 DUP2 CALLVALUE SUB CALLVALUE DUP2 GT PUSH2 0x890 JUMPI DUP8 DUP1 DUP1 DUP1 SWAP12 POP DUP1 SWAP8 SWAP9 SWAP10 SWAP11 SWAP4 DUP12 DUP3 DUP9 CALLVALUE EQ PUSH2 0x887 JUMPI JUMPDEST CALL ISZERO PUSH2 0x87B JUMPI SWAP7 SWAP6 SWAP5 SWAP4 SWAP3 PUSH2 0x7E1 JUMP JUMPDEST POP POP MLOAD SWAP1 RETURNDATASIZE SWAP1 DUP3 RETURNDATACOPY RETURNDATASIZE SWAP1 REVERT JUMPDEST POP PUSH2 0x8FC PUSH2 0x86B JUMP JUMPDEST PUSH4 0x4E487B71 PUSH1 0xE0 SHL DUP9 MSTORE PUSH1 0x11 DUP10 MSTORE PUSH1 0x24 DUP9 REVERT JUMPDEST DUP3 MLOAD RETURNDATASIZE DUP9 DUP3 RETURNDATACOPY RETURNDATASIZE SWAP1 REVERT JUMPDEST PUSH2 0x8FC SWAP2 POP PUSH2 0x7B0 JUMP JUMPDEST POP PUSH4 0x4E487B71 PUSH1 0xE0 SHL DUP16 MSTORE PUSH1 0x11 DUP10 MSTORE PUSH1 0x24 DUP16 REVERT JUMPDEST PUSH4 0x4E487B71 PUSH1 0xE0 SHL DUP16 MSTORE PUSH1 0x11 DUP10 MSTORE PUSH1 0x24 DUP16 REVERT JUMPDEST PUSH4 0x4E487B71 PUSH1 0xE0 SHL DUP15 MSTORE PUSH1 0x11 DUP9 MSTORE PUSH1 0x24 DUP15 REVERT JUMPDEST PUSH4 0x4E487B71 PUSH1 0xE0 SHL DUP14 MSTORE PUSH1 0x11 DUP8 MSTORE PUSH1 0x24 DUP14 REVERT JUMPDEST PUSH4 0x4E487B71 PUSH1 0xE0 SHL DUP13 MSTORE PUSH1 0x11 DUP7 MSTORE PUSH1 0x24 DUP13 REVERT JUMPDEST PUSH4 0x4E487B71 PUSH1 0xE0 SHL DUP11 MSTORE PUSH1 0x11 DUP5 MSTORE PUSH1 0x24 DUP11 REVERT JUMPDEST DUP3 MLOAD PUSH3 0x461BCD PUSH1 0xE5 SHL DUP2 MSTORE SWAP1 DUP2 ADD DUP9 SWAP1 MSTORE PUSH1 0x10 PUSH1 0x24 DUP3 ADD MSTORE PUSH16 0x92DCE6EACCCCD2C6D2CADCE8408AA89 PUSH1 0x83 SHL PUSH1 0x44 DUP3 ADD MSTORE PUSH1 0x64 SWAP1 REVERT JUMPDEST DUP4 DUP4 CALLVALUE PUSH2 0x202 JUMPI DUP2 PUSH2 0x971 CALLDATASIZE PUSH2 0x175F JUMP JUMPDEST SWAP3 SWAP2 SWAP4 SWAP1 SWAP6 PUSH1 0x0 DUP1 MLOAD PUSH1 0x20 PUSH2 0x1B55 DUP4 CODECOPY DUP2 MLOAD SWAP2 MSTORE DUP4 MSTORE PUSH1 0x20 SWAP1 PUSH1 0x1 DUP3 MSTORE DUP3 DUP5 KECCAK256 CALLER DUP6 MSTORE DUP3 MSTORE PUSH2 0x9A5 PUSH1 0xFF DUP5 DUP7 KECCAK256 SLOAD AND PUSH2 0x1A71 JUMP JUMPDEST PUSH2 0x9AD PUSH2 0x1AE7 JUMP JUMPDEST PUSH1 0x1 DUP1 PUSH1 0xA0 SHL SUB DUP1 PUSH32 0x0 AND DUP5 MLOAD SWAP2 PUSH4 0x23B872DD PUSH1 0xE0 SHL DUP4 MSTORE CALLER DUP5 DUP5 ADD MSTORE PUSH1 0x24 SWAP3 ADDRESS DUP5 DUP3 ADD MSTORE DUP6 DUP2 PUSH1 0x64 DUP2 PUSH3 0x1E8480 SWAP12 DUP13 PUSH1 0x44 DUP4 ADD MSTORE DUP8 GAS CALL SWAP1 DUP2 ISZERO PUSH2 0xC6B JUMPI DUP12 SWAP2 PUSH2 0xC4E JUMPI JUMPDEST POP ISZERO PUSH2 0xC15 JUMPI DUP10 SWAP11 DUP5 DUP11 DUP11 DUP11 DUP6 DUP12 MLOAD SWAP6 PUSH2 0xA2B DUP8 PUSH2 0x18C4 JUMP JUMPDEST AND SWAP15 DUP16 DUP7 MSTORE DUP7 DUP13 DUP13 DUP9 ADD SWAP3 DUP1 DUP5 MSTORE DUP2 DUP10 ADD SWAP5 DUP6 MSTORE PUSH1 0x60 DUP10 ADD SWAP6 DUP7 MSTORE DUP14 PUSH1 0x80 DUP11 ADD SWAP8 DUP3 DUP10 MSTORE DUP3 MSTORE PUSH1 0xE SWAP1 MSTORE KECCAK256 SWAP7 MLOAD AND PUSH12 0xFFFFFFFFFFFFFFFFFFFFFFFF PUSH1 0xA0 SHL DUP8 SLOAD AND OR DUP7 SSTORE MLOAD PUSH1 0x1 DUP7 ADD SSTORE MLOAD PUSH1 0x2 DUP6 ADD SSTORE MLOAD PUSH1 0x3 DUP5 ADD SSTORE MLOAD ISZERO ISZERO SWAP2 ADD SWAP1 PUSH2 0xA9C SWAP2 SWAP1 PUSH1 0xFF DUP1 NOT DUP4 SLOAD AND SWAP2 ISZERO ISZERO AND OR SWAP1 SSTORE JUMP JUMPDEST PUSH1 0xA SLOAD PUSH3 0x13880 DUP2 ADD DUP1 SWAP2 GT PUSH2 0xC03 JUMPI PUSH1 0xA SSTORE PUSH1 0x9 SLOAD PUSH3 0x27100 DUP2 ADD DUP1 SWAP2 GT PUSH2 0xC03 JUMPI PUSH1 0x9 SSTORE PUSH1 0x8 SLOAD PUSH3 0x138800 DUP2 ADD DUP1 SWAP2 GT PUSH2 0xC03 JUMPI PUSH1 0x8 SSTORE PUSH1 0xD SLOAD PUSH2 0x4E20 DUP2 ADD DUP1 SWAP2 GT PUSH2 0xC03 JUMPI PUSH1 0xD SSTORE PUSH1 0xC SLOAD PUSH2 0x9C40 DUP2 ADD DUP1 SWAP2 GT PUSH2 0xC03 JUMPI PUSH1 0xC SSTORE PUSH1 0xB SLOAD PUSH3 0x4E200 DUP2 ADD DUP1 SWAP2 GT PUSH2 0xC03 JUMPI SWAP2 PUSH1 0x44 DUP7 SWAP3 DUP14 SWAP5 PUSH1 0xB SSTORE DUP9 MLOAD SWAP5 DUP6 SWAP4 DUP5 SWAP3 PUSH4 0xA9059CBB PUSH1 0xE0 SHL DUP5 MSTORE PUSH32 0x0 AND DUP10 DUP5 ADD MSTORE PUSH3 0x186A0 DUP9 DUP5 ADD MSTORE GAS CALL DUP1 ISZERO PUSH2 0xBF9 JUMPI PUSH2 0xBDC JUMPI JUMPDEST POP DUP6 DUP10 MSTORE PUSH1 0xF DUP4 MSTORE DUP4 DUP10 KECCAK256 PUSH2 0xB74 DUP2 SLOAD PUSH2 0x1AD8 JUMP JUMPDEST SWAP1 SSTORE DUP6 DUP10 MSTORE PUSH1 0x11 DUP4 MSTORE DUP4 DUP10 KECCAK256 SWAP1 DUP2 SLOAD SWAP3 DUP7 DUP5 ADD DUP1 SWAP5 GT PUSH2 0xBCB JUMPI POP POP SSTORE DUP2 MLOAD SWAP4 DUP5 MSTORE DUP4 ADD DUP7 SWAP1 MSTORE DUP3 ADD MSTORE PUSH32 0xFA4BDD2EA03C565C5BDB3934D7A0F5E114365D0036439F866894E32CB2B6F68E SWAP1 PUSH1 0x60 SWAP1 LOG3 PUSH1 0x1 DUP2 SSTORE DUP1 RETURN JUMPDEST PUSH4 0x4E487B71 PUSH1 0xE0 SHL DUP12 MSTORE PUSH1 0x11 SWAP1 MSTORE DUP10 REVERT JUMPDEST PUSH2 0xBF2 SWAP1 DUP5 RETURNDATASIZE DUP7 GT PUSH2 0x39D JUMPI PUSH2 0x38D DUP2 DUP4 PUSH2 0x1912 JUMP JUMPDEST POP DUP10 PUSH2 0xB5F JUMP JUMPDEST DUP6 MLOAD RETURNDATASIZE DUP13 DUP3 RETURNDATACOPY RETURNDATASIZE SWAP1 REVERT JUMPDEST PUSH4 0x4E487B71 PUSH1 0xE0 SHL DUP13 MSTORE PUSH1 0x11 DUP6 MSTORE DUP4 DUP13 REVERT JUMPDEST DUP6 MLOAD PUSH3 0x461BCD PUSH1 0xE5 SHL DUP2 MSTORE DUP1 DUP6 ADD DUP7 SWAP1 MSTORE PUSH1 0x14 DUP2 DUP6 ADD MSTORE PUSH20 0x1554D110C81D1C985B9CD9995C8819985A5B1959 PUSH1 0x62 SHL PUSH1 0x44 DUP3 ADD MSTORE PUSH1 0x64 SWAP1 REVERT JUMPDEST PUSH2 0xC65 SWAP2 POP DUP7 RETURNDATASIZE DUP9 GT PUSH2 0x39D JUMPI PUSH2 0x38D DUP2 DUP4 PUSH2 0x1912 JUMP JUMPDEST DUP13 PUSH2 0xA12 JUMP JUMPDEST DUP8 MLOAD RETURNDATASIZE DUP14 DUP3 RETURNDATACOPY RETURNDATASIZE SWAP1 REVERT JUMPDEST SWAP1 POP CALLVALUE PUSH2 0x22E JUMPI PUSH1 0x20 CALLDATASIZE PUSH1 0x3 NOT ADD SLT PUSH2 0x22E JUMPI PUSH1 0x20 SWAP3 DUP3 SWAP2 CALLDATALOAD DUP2 MSTORE PUSH1 0xF DUP5 MSTORE KECCAK256 SLOAD SWAP1 MLOAD SWAP1 DUP2 MSTORE RETURN JUMPDEST DUP3 DUP5 CALLVALUE PUSH2 0x56E JUMPI DUP1 PUSH1 0x3 NOT CALLDATASIZE ADD SLT PUSH2 0x56E JUMPI POP PUSH1 0x2 SLOAD PUSH1 0x3 SLOAD SWAP3 SLOAD PUSH1 0x5 SLOAD PUSH1 0x6 SLOAD PUSH1 0x7 SLOAD SWAP5 MLOAD SWAP4 DUP5 MSTORE PUSH1 0x20 DUP5 ADD SWAP6 SWAP1 SWAP6 MSTORE PUSH1 0x40 DUP4 ADD SWAP2 SWAP1 SWAP2 MSTORE PUSH1 0x60 DUP3 ADD MSTORE PUSH1 0x80 DUP2 ADD SWAP3 SWAP1 SWAP3 MSTORE PUSH1 0xA0 DUP3 ADD MSTORE PUSH1 0xC0 SWAP1 RETURN JUMPDEST SUB SWAP1 RETURN JUMPDEST POP POP CALLVALUE PUSH2 0x202 JUMPI DUP2 PUSH1 0x3 NOT CALLDATASIZE ADD SLT PUSH2 0x202 JUMPI PUSH1 0x20 SWAP1 MLOAD PUSH1 0x28 DUP2 MSTORE RETURN JUMPDEST SWAP1 POP CALLVALUE PUSH2 0x22E JUMPI PUSH1 0x80 CALLDATASIZE PUSH1 0x3 NOT ADD SLT PUSH2 0x22E JUMPI DUP1 CALLDATALOAD SWAP3 PUSH1 0x24 CALLDATALOAD SWAP3 PUSH1 0x44 CALLDATALOAD PUSH1 0x64 CALLDATALOAD SWAP3 PUSH1 0x0 DUP1 MLOAD PUSH1 0x20 PUSH2 0x1B55 DUP4 CODECOPY DUP2 MLOAD SWAP2 MSTORE DUP2 MSTORE PUSH1 0x1 PUSH1 0x20 MSTORE DUP3 DUP2 KECCAK256 CALLER DUP3 MSTORE PUSH1 0x20 MSTORE PUSH2 0xD5C PUSH1 0xFF DUP5 DUP4 KECCAK256 SLOAD AND PUSH2 0x1A71 JUMP JUMPDEST SWAP6 DUP7 SWAP4 DUP5 SWAP4 DUP5 SWAP3 SWAP1 SWAP2 DUP4 SWAP1 DUP2 DUP1 DUP12 ISZERO PUSH2 0x1045 JUMPI POP POP PUSH1 0x2 SLOAD SWAP6 DUP4 PUSH1 0x5 SLOAD SWAP8 DUP9 PUSH2 0xD84 SWAP2 PUSH2 0x1AB5 JUMP JUMPDEST SWAP8 DUP13 PUSH1 0x8 SLOAD SWAP10 PUSH1 0xB SLOAD SWAP11 DUP12 PUSH2 0xD98 SWAP2 PUSH2 0x1AB5 JUMP JUMPDEST SWAP2 PUSH2 0xDA2 SWAP2 PUSH2 0x1977 JUMP JUMPDEST SWAP14 PUSH2 0xDAC SWAP2 PUSH2 0x1977 JUMP JUMPDEST SWAP9 DUP2 ISZERO DUP1 ISZERO SWAP1 PUSH2 0x103C JUMPI JUMPDEST PUSH2 0xFE9 JUMPI JUMPDEST POP POP POP DUP3 PUSH1 0x2 SSTORE DUP3 PUSH1 0x5 SSTORE DUP3 PUSH1 0x8 SSTORE DUP3 PUSH1 0xB SSTORE JUMPDEST DUP1 PUSH2 0xF24 JUMPI JUMPDEST POP DUP1 PUSH2 0xE5F JUMPI JUMPDEST POP POP DUP2 MLOAD DUP9 DUP2 MSTORE PUSH1 0x20 DUP2 ADD DUP11 SWAP1 MSTORE PUSH1 0x40 DUP2 ADD DUP5 SWAP1 MSTORE PUSH1 0x60 DUP2 ADD DUP6 SWAP1 MSTORE PUSH1 0x80 DUP2 ADD DUP7 SWAP1 MSTORE PUSH1 0xA0 DUP2 ADD DUP8 SWAP1 MSTORE PUSH2 0xCED SWAP8 POP PUSH32 0xF2E488AAB7A2EE240F8CC49CA99A73C33243895749E99AB8CFA0F031D9CAF216 SWAP1 PUSH1 0xC0 SWAP1 LOG2 MLOAD SWAP7 DUP8 SWAP7 DUP8 SWAP3 PUSH1 0xA0 SWAP5 SWAP2 SWAP8 SWAP7 SWAP6 SWAP3 PUSH1 0xC0 DUP6 ADD SWAP9 DUP6 MSTORE PUSH1 0x20 DUP6 ADD MSTORE PUSH1 0x40 DUP5 ADD MSTORE PUSH1 0x60 DUP4 ADD MSTORE PUSH1 0x80 DUP3 ADD MSTORE ADD MSTORE JUMP JUMPDEST SWAP4 POP SWAP6 POP DUP7 SLOAD SWAP6 DUP1 PUSH1 0x7 SLOAD SWAP8 DUP9 PUSH2 0xE75 SWAP2 PUSH2 0x1AB5 JUMP JUMPDEST SWAP9 DUP4 DUP7 PUSH1 0xA SLOAD SWAP12 PUSH1 0xD SLOAD SWAP13 DUP14 PUSH2 0xE8A SWAP2 PUSH2 0x1AB5 JUMP JUMPDEST SWAP2 PUSH2 0xE94 SWAP2 PUSH2 0x1977 JUMP JUMPDEST SWAP8 PUSH2 0xE9E SWAP2 PUSH2 0x1977 JUMP JUMPDEST SWAP10 DUP1 ISZERO SWAP12 DUP13 ISZERO PUSH2 0xCED SWAP14 PUSH2 0xF1B JUMPI JUMPDEST PUSH2 0xEC8 JUMPI JUMPDEST POP POP POP SSTORE DUP1 PUSH1 0x7 SSTORE DUP1 PUSH1 0xA SSTORE PUSH1 0xD SSTORE CODESIZE DUP1 PUSH2 0xDDD JUMP JUMPDEST PUSH32 0x76A8ADAD51EF6BBA5772879F550DA7DF7054CCD5451CCB6D5DFFAA4F7EF4A3E8 SWAP2 PUSH1 0xA0 SWAP2 DUP10 MLOAD SWAP2 PUSH1 0x60 DUP4 MSTORE PUSH1 0x5 PUSH1 0x60 DUP5 ADD MSTORE PUSH5 0x1D1A1A5C99 PUSH1 0xDA SHL PUSH1 0x80 DUP5 ADD MSTORE PUSH1 0x20 DUP4 ADD MSTORE DUP10 DUP3 ADD MSTORE LOG2 DUP4 CODESIZE DUP1 PUSH2 0xEB2 JUMP JUMPDEST POP DUP1 ISZERO ISZERO PUSH2 0xEAD JUMP JUMPDEST SWAP11 POP SWAP6 POP PUSH1 0x3 SLOAD SWAP6 DUP3 PUSH1 0x6 SLOAD SWAP8 DUP9 PUSH2 0xF3B SWAP2 PUSH2 0x1AB5 JUMP JUMPDEST SWAP8 DUP13 PUSH1 0x9 SLOAD SWAP10 PUSH1 0xC SLOAD SWAP11 DUP12 PUSH2 0xF4F SWAP2 PUSH2 0x1AB5 JUMP JUMPDEST SWAP2 PUSH2 0xF59 SWAP2 PUSH2 0x1977 JUMP JUMPDEST SWAP14 PUSH2 0xF63 SWAP2 PUSH2 0x1977 JUMP JUMPDEST SWAP9 DUP2 ISZERO DUP1 ISZERO SWAP1 PUSH2 0xFE0 JUMPI JUMPDEST PUSH2 0xF8C JUMPI JUMPDEST POP POP POP DUP2 PUSH1 0x3 SSTORE DUP2 PUSH1 0x6 SSTORE DUP2 PUSH1 0x9 SSTORE DUP2 PUSH1 0xC SSTORE CODESIZE PUSH2 0xDD6 JUMP JUMPDEST PUSH32 0x76A8ADAD51EF6BBA5772879F550DA7DF7054CCD5451CCB6D5DFFAA4F7EF4A3E8 SWAP2 PUSH1 0xA0 SWAP2 DUP9 MLOAD SWAP2 PUSH1 0x60 DUP4 MSTORE PUSH1 0x6 PUSH1 0x60 DUP5 ADD MSTORE PUSH6 0x1CD958DBDB99 PUSH1 0xD2 SHL PUSH1 0x80 DUP5 ADD MSTORE PUSH1 0x20 DUP4 ADD MSTORE DUP9 DUP3 ADD MSTORE LOG2 DUP3 CODESIZE DUP1 PUSH2 0xF73 JUMP JUMPDEST POP DUP1 ISZERO ISZERO PUSH2 0xF6E JUMP JUMPDEST PUSH32 0x76A8ADAD51EF6BBA5772879F550DA7DF7054CCD5451CCB6D5DFFAA4F7EF4A3E8 SWAP2 PUSH1 0xA0 SWAP2 DUP10 MLOAD SWAP2 PUSH1 0x60 DUP4 MSTORE PUSH1 0x5 PUSH1 0x60 DUP5 ADD MSTORE PUSH5 0x199A5C9CDD PUSH1 0xDA SHL PUSH1 0x80 DUP5 ADD MSTORE PUSH1 0x20 DUP4 ADD MSTORE DUP10 DUP3 ADD MSTORE LOG2 DUP4 CODESIZE DUP1 PUSH2 0xDBC JUMP JUMPDEST POP DUP1 ISZERO ISZERO PUSH2 0xDB7 JUMP JUMPDEST SWAP7 SWAP1 SWAP11 POP PUSH2 0xDD0 JUMP JUMPDEST POP POP CALLVALUE PUSH2 0x202 JUMPI DUP2 PUSH1 0x3 NOT CALLDATASIZE ADD SLT PUSH2 0x202 JUMPI PUSH1 0x20 SWAP1 PUSH2 0x596 PUSH2 0x1981 JUMP JUMPDEST POP POP CALLVALUE PUSH2 0x202 JUMPI DUP2 PUSH1 0x3 NOT CALLDATASIZE ADD SLT PUSH2 0x202 JUMPI MLOAD SWAP1 DUP2 MSTORE PUSH1 0x20 SWAP1 RETURN JUMPDEST POP POP CALLVALUE PUSH2 0x202 JUMPI DUP2 PUSH1 0x3 NOT CALLDATASIZE ADD SLT PUSH2 0x202 JUMPI MLOAD PUSH32 0x0 PUSH1 0x1 PUSH1 0x1 PUSH1 0xA0 SHL SUB AND DUP2 MSTORE PUSH1 0x20 SWAP1 RETURN JUMPDEST SWAP1 POP CALLVALUE PUSH2 0x22E JUMPI PUSH1 0x20 CALLDATASIZE PUSH1 0x3 NOT ADD SLT PUSH2 0x22E JUMPI CALLDATALOAD DUP3 MSTORE PUSH1 0xE PUSH1 0x20 SWAP1 DUP2 MSTORE SWAP2 DUP2 SWAP1 KECCAK256 SLOAD SWAP1 MLOAD PUSH1 0x1 PUSH1 0x1 PUSH1 0xA0 SHL SUB SWAP1 SWAP2 AND ISZERO ISZERO DUP2 MSTORE RETURN JUMPDEST SWAP1 POP CALLVALUE PUSH2 0x22E JUMPI DUP2 PUSH1 0x3 NOT CALLDATASIZE ADD SLT PUSH2 0x22E JUMPI DUP2 PUSH1 0x20 SWAP4 PUSH1 0xFF SWAP3 PUSH2 0x1120 PUSH2 0x1744 JUMP JUMPDEST SWAP1 CALLDATALOAD DUP3 MSTORE PUSH1 0x1 DUP7 MSTORE DUP3 DUP3 KECCAK256 PUSH1 0x1 PUSH1 0x1 PUSH1 0xA0 SHL SUB SWAP1 SWAP2 AND DUP3 MSTORE DUP6 MSTORE KECCAK256 SLOAD SWAP2 MLOAD SWAP2 AND ISZERO ISZERO DUP2 MSTORE RETURN JUMPDEST POP POP CALLVALUE PUSH2 0x202 JUMPI DUP2 PUSH1 0x3 NOT CALLDATASIZE ADD SLT PUSH2 0x202 JUMPI MLOAD PUSH32 0x0 PUSH1 0x1 PUSH1 0x1 PUSH1 0xA0 SHL SUB AND DUP2 MSTORE PUSH1 0x20 SWAP1 RETURN JUMPDEST SWAP2 SWAP1 POP CALLVALUE PUSH2 0x22E JUMPI PUSH1 0x20 CALLDATASIZE PUSH1 0x3 NOT ADD SLT PUSH2 0x22E JUMPI DUP1 PUSH1 0xA0 SWAP4 DUP4 CALLDATALOAD DUP2 MSTORE PUSH1 0xE PUSH1 0x20 MSTORE KECCAK256 PUSH1 0x1 DUP1 DUP6 SHL SUB DUP2 SLOAD AND SWAP3 PUSH1 0x1 DUP3 ADD SLOAD SWAP3 PUSH1 0xFF PUSH1 0x2 DUP5 ADD SLOAD SWAP3 PUSH1 0x3 DUP6 ADD SLOAD SWAP5 ADD SLOAD AND SWAP4 DUP2 MLOAD SWAP6 DUP7 MSTORE PUSH1 0x20 DUP7 ADD MSTORE DUP5 ADD MSTORE PUSH1 0x60 DUP4 ADD MSTORE ISZERO ISZERO PUSH1 0x80 DUP3 ADD MSTORE RETURN JUMPDEST POP POP CALLVALUE PUSH2 0x202 JUMPI DUP2 PUSH1 0x3 NOT CALLDATASIZE ADD SLT PUSH2 0x202 JUMPI MLOAD PUSH32 0x0 PUSH1 0x1 PUSH1 0x1 PUSH1 0xA0 SHL SUB AND DUP2 MSTORE PUSH1 0x20 SWAP1 RETURN JUMPDEST POP POP CALLVALUE PUSH2 0x202 JUMPI DUP2 PUSH1 0x3 NOT CALLDATASIZE ADD SLT PUSH2 0x202 JUMPI PUSH1 0x20 SWAP1 MLOAD PUSH3 0x1E8480 DUP2 MSTORE RETURN JUMPDEST POP POP CALLVALUE PUSH2 0x202 JUMPI DUP2 PUSH1 0x3 NOT CALLDATASIZE ADD SLT PUSH2 0x202 JUMPI PUSH1 0x20 SWAP1 MLOAD PUSH1 0xA DUP2 MSTORE RETURN JUMPDEST SWAP1 POP CALLVALUE PUSH2 0x22E JUMPI DUP3 PUSH1 0x3 NOT CALLDATASIZE ADD SLT PUSH2 0x22E JUMPI PUSH2 0x180 SWAP3 POP PUSH1 0x2 SLOAD SWAP2 PUSH1 0x3 SLOAD SWAP2 SLOAD PUSH1 0x5 SLOAD PUSH1 0x6 SLOAD PUSH1 0x7 SLOAD PUSH1 0x8 SLOAD SWAP1 PUSH1 0x9 SLOAD SWAP3 PUSH1 0xA SLOAD SWAP5 PUSH1 0xB SLOAD SWAP7 PUSH1 0xC SLOAD SWAP9 PUSH1 0xD SLOAD SWAP11 DUP2 MLOAD SWAP13 DUP14 MSTORE PUSH1 0x20 DUP14 ADD MSTORE DUP12 ADD MSTORE PUSH1 0x60 DUP11 ADD MSTORE PUSH1 0x80 DUP10 ADD MSTORE PUSH1 0xA0 DUP9 ADD MSTORE PUSH1 0xC0 DUP8 ADD MSTORE PUSH1 0xE0 DUP7 ADD MSTORE PUSH2 0x100 DUP6 ADD MSTORE PUSH2 0x120 DUP5 ADD MSTORE PUSH2 0x140 DUP4 ADD MSTORE PUSH2 0x160 DUP3 ADD MSTORE RETURN JUMPDEST SWAP1 POP CALLVALUE PUSH2 0x22E JUMPI PUSH1 0x20 CALLDATASIZE PUSH1 0x3 NOT ADD SLT PUSH2 0x22E JUMPI PUSH1 0x20 SWAP3 DUP3 SWAP2 CALLDATALOAD DUP2 MSTORE PUSH1 0x10 DUP5 MSTORE KECCAK256 SLOAD SWAP1 MLOAD SWAP1 DUP2 MSTORE RETURN JUMPDEST POP POP CALLVALUE PUSH2 0x202 JUMPI DUP2 PUSH1 0x3 NOT CALLDATASIZE ADD SLT PUSH2 0x202 JUMPI PUSH1 0x20 SWAP1 MLOAD PUSH1 0x32 DUP2 MSTORE RETURN JUMPDEST POP POP CALLVALUE PUSH2 0x202 JUMPI DUP2 PUSH1 0x3 NOT CALLDATASIZE ADD SLT PUSH2 0x202 JUMPI PUSH1 0x20 SWAP1 MLOAD PUSH1 0x14 DUP2 MSTORE RETURN JUMPDEST POP POP CALLVALUE PUSH2 0x202 JUMPI DUP2 PUSH1 0x3 NOT CALLDATASIZE ADD SLT PUSH2 0x202 JUMPI PUSH1 0x20 SWAP1 MLOAD PUSH1 0x0 DUP1 MLOAD PUSH1 0x20 PUSH2 0x1B55 DUP4 CODECOPY DUP2 MLOAD SWAP2 MSTORE DUP2 MSTORE RETURN JUMPDEST DUP4 DUP4 CALLVALUE PUSH2 0x202 JUMPI DUP1 PUSH1 0x3 NOT CALLDATASIZE ADD SLT PUSH2 0x202 JUMPI PUSH2 0x138B PUSH2 0x1744 JUMP JUMPDEST SWAP1 CALLER PUSH1 0x1 PUSH1 0x1 PUSH1 0xA0 SHL SUB DUP4 AND SUB PUSH2 0x13A8 JUMPI POP PUSH2 0x5D8 SWAP2 SWAP3 CALLDATALOAD PUSH2 0x184D JUMP JUMPDEST MLOAD PUSH4 0x334BD919 PUSH1 0xE1 SHL DUP2 MSTORE DUP4 SWAP1 REVERT JUMPDEST SWAP2 SWAP1 POP CALLVALUE PUSH2 0x22E JUMPI DUP1 PUSH1 0x3 NOT CALLDATASIZE ADD SLT PUSH2 0x22E JUMPI PUSH2 0x5D8 SWAP2 CALLDATALOAD PUSH2 0x13DC PUSH1 0x1 PUSH2 0x5C2 PUSH2 0x1744 JUMP JUMPDEST PUSH2 0x17CD JUMP JUMPDEST SWAP1 POP CALLVALUE PUSH2 0x22E JUMPI PUSH1 0x20 CALLDATASIZE PUSH1 0x3 NOT ADD SLT PUSH2 0x22E JUMPI SWAP2 PUSH1 0x60 SWAP3 CALLDATALOAD DUP2 MSTORE PUSH1 0xF PUSH1 0x20 MSTORE DUP2 DUP2 KECCAK256 SLOAD SWAP2 PUSH1 0x10 PUSH1 0x20 MSTORE DUP1 DUP1 DUP4 KECCAK256 SLOAD SWAP3 PUSH1 0x11 PUSH1 0x20 MSTORE KECCAK256 SLOAD SWAP2 DUP2 MLOAD SWAP4 DUP5 MSTORE PUSH1 0x20 DUP5 ADD MSTORE DUP3 ADD MSTORE RETURN JUMPDEST SWAP2 SWAP1 POP CALLVALUE PUSH2 0x22E JUMPI PUSH1 0x60 CALLDATASIZE PUSH1 0x3 NOT ADD SLT PUSH2 0x22E JUMPI DUP2 CALLDATALOAD PUSH1 0x24 CALLDATALOAD SWAP2 PUSH1 0x44 CALLDATALOAD SWAP3 PUSH1 0x0 DUP1 MLOAD PUSH1 0x20 PUSH2 0x1B55 DUP4 CODECOPY DUP2 MLOAD SWAP2 MSTORE DUP7 MSTORE PUSH1 0x20 SWAP4 PUSH1 0x1 DUP6 MSTORE DUP3 DUP8 KECCAK256 CALLER DUP9 MSTORE DUP6 MSTORE PUSH2 0x1474 PUSH1 0xFF DUP5 DUP10 KECCAK256 SLOAD AND PUSH2 0x1A71 JUMP JUMPDEST PUSH2 0x147C PUSH2 0x1AE7 JUMP JUMPDEST DUP4 DUP8 MSTORE PUSH1 0xE DUP6 MSTORE DUP3 DUP8 KECCAK256 DUP1 SLOAD PUSH1 0x1 PUSH1 0x1 PUSH1 0xA0 SHL SUB SWAP2 SWAP1 DUP3 AND DUP1 ISZERO PUSH2 0x1623 JUMPI DUP9 DUP3 ADD DUP1 SLOAD PUSH1 0xFF DUP2 AND PUSH2 0x15E8 JUMPI PUSH1 0xFF NOT AND PUSH1 0x1 OR SWAP1 SSTORE DUP10 SWAP1 DUP6 SWAP1 DUP2 ISZERO DUP1 ISZERO PUSH2 0x15B9 JUMPI JUMPDEST POP POP POP POP DUP3 PUSH2 0x14FF JUMPI JUMPDEST PUSH32 0xA3DD4A1386669CFCC372819CEAEE69DF2C1C14EB82976D79BD15C856666CB650 SWAP6 SWAP7 SWAP8 POP SLOAD AND SWAP6 DUP4 MLOAD SWAP3 DUP4 MSTORE DUP3 ADD MSTORE LOG3 PUSH1 0x1 DUP2 SSTORE DUP1 RETURN JUMPDEST DUP1 SLOAD DUP6 MLOAD PUSH4 0xA9059CBB PUSH1 0xE0 SHL DUP2 MSTORE SWAP1 DUP4 AND PUSH1 0x1 PUSH1 0x1 PUSH1 0xA0 SHL SUB AND SWAP9 DUP2 ADD SWAP9 DUP10 MSTORE PUSH1 0x20 DUP10 ADD DUP5 SWAP1 MSTORE SWAP8 DUP8 SWAP1 DUP10 SWAP1 DUP2 SWAP1 PUSH1 0x40 ADD SUB DUP2 DUP13 DUP7 PUSH32 0x0 AND GAS CALL SWAP8 DUP9 ISZERO PUSH2 0x15AF JUMPI PUSH32 0xA3DD4A1386669CFCC372819CEAEE69DF2C1C14EB82976D79BD15C856666CB650 SWAP7 SWAP8 SWAP9 PUSH2 0x1592 JUMPI JUMPDEST POP DUP8 SWAP7 SWAP6 POP PUSH2 0x14C7 JUMP JUMPDEST PUSH2 0x15A8 SWAP1 DUP10 RETURNDATASIZE DUP12 GT PUSH2 0x39D JUMPI PUSH2 0x38D DUP2 DUP4 PUSH2 0x1912 JUMP JUMPDEST POP CODESIZE PUSH2 0x1588 JUMP JUMPDEST DUP6 MLOAD RETURNDATASIZE DUP12 DUP3 RETURNDATACOPY RETURNDATASIZE SWAP1 REVERT JUMPDEST DUP4 SWAP3 DUP4 SWAP3 DUP4 SWAP3 DUP4 SWAP1 PUSH2 0x15DF JUMPI JUMPDEST CALL ISZERO PUSH2 0x15D5 JUMPI DUP9 DUP5 CODESIZE DUP1 PUSH2 0x14BD JUMP JUMPDEST DUP5 MLOAD RETURNDATASIZE DUP11 DUP3 RETURNDATACOPY RETURNDATASIZE SWAP1 REVERT JUMPDEST POP PUSH2 0x8FC PUSH2 0x15C6 JUMP JUMPDEST DUP8 MLOAD PUSH3 0x461BCD PUSH1 0xE5 SHL DUP2 MSTORE DUP1 DUP13 ADD DUP12 SWAP1 MSTORE PUSH1 0x15 PUSH1 0x24 DUP3 ADD MSTORE PUSH21 0x141C9A5E9948185B1C9958591E4818DB185A5B5959 PUSH1 0x5A SHL PUSH1 0x44 DUP3 ADD MSTORE PUSH1 0x64 SWAP1 REVERT JUMPDEST DUP6 MLOAD PUSH3 0x461BCD PUSH1 0xE5 SHL DUP2 MSTORE DUP1 DUP11 ADD DUP10 SWAP1 MSTORE PUSH1 0x10 PUSH1 0x24 DUP3 ADD MSTORE PUSH16 0x151A58DAD95D081B9BDD08199BDD5B99 PUSH1 0x82 SHL PUSH1 0x44 DUP3 ADD MSTORE PUSH1 0x64 SWAP1 REVERT JUMPDEST SWAP1 POP CALLVALUE PUSH2 0x22E JUMPI PUSH1 0x20 CALLDATASIZE PUSH1 0x3 NOT ADD SLT PUSH2 0x22E JUMPI DUP2 PUSH1 0x20 SWAP4 PUSH1 0x1 SWAP3 CALLDATALOAD DUP2 MSTORE DUP3 DUP6 MSTORE KECCAK256 ADD SLOAD SWAP1 MLOAD SWAP1 DUP2 MSTORE RETURN JUMPDEST POP POP CALLVALUE PUSH2 0x202 JUMPI DUP2 PUSH1 0x3 NOT CALLDATASIZE ADD SLT PUSH2 0x202 JUMPI PUSH1 0x20 SWAP1 MLOAD PUSH2 0x280 DUP2 MSTORE RETURN JUMPDEST DUP3 DUP5 CALLVALUE PUSH2 0x56E JUMPI DUP1 PUSH1 0x3 NOT CALLDATASIZE ADD SLT PUSH2 0x56E JUMPI POP PUSH1 0x8 SLOAD PUSH1 0x9 SLOAD PUSH1 0xA SLOAD PUSH1 0xB SLOAD PUSH1 0xC SLOAD PUSH1 0xD SLOAD SWAP6 MLOAD SWAP5 DUP6 MSTORE PUSH1 0x20 DUP6 ADD SWAP4 SWAP1 SWAP4 MSTORE PUSH1 0x40 DUP5 ADD SWAP2 SWAP1 SWAP2 MSTORE PUSH1 0x60 DUP4 ADD MSTORE PUSH1 0x80 DUP3 ADD MSTORE PUSH1 0xA0 DUP2 ADD SWAP2 SWAP1 SWAP2 MSTORE PUSH1 0xC0 SWAP1 RETURN JUMPDEST DUP5 SWAP2 CALLVALUE PUSH2 0x22E JUMPI PUSH1 0x20 CALLDATASIZE PUSH1 0x3 NOT ADD SLT PUSH2 0x22E JUMPI CALLDATALOAD PUSH4 0xFFFFFFFF PUSH1 0xE0 SHL DUP2 AND DUP1 SWAP2 SUB PUSH2 0x22E JUMPI PUSH1 0x20 SWAP3 POP PUSH4 0x7965DB0B PUSH1 0xE0 SHL DUP2 EQ SWAP1 DUP2 ISZERO PUSH2 0x1733 JUMPI JUMPDEST POP ISZERO ISZERO DUP2 MSTORE RETURN JUMPDEST PUSH4 0x1FFC9A7 PUSH1 0xE0 SHL EQ SWAP1 POP DUP4 PUSH2 0x172C JUMP JUMPDEST PUSH1 0x24 CALLDATALOAD SWAP1 PUSH1 0x1 PUSH1 0x1 PUSH1 0xA0 SHL SUB DUP3 AND DUP3 SUB PUSH2 0x175A JUMPI JUMP JUMPDEST PUSH1 0x0 DUP1 REVERT JUMPDEST PUSH1 0x60 SWAP1 PUSH1 0x3 NOT ADD SLT PUSH2 0x175A JUMPI PUSH1 0x4 CALLDATALOAD SWAP1 PUSH1 0x24 CALLDATALOAD PUSH1 0x1 PUSH1 0x1 PUSH1 0xA0 SHL SUB DUP2 AND DUP2 SUB PUSH2 0x175A JUMPI SWAP1 PUSH1 0x44 CALLDATALOAD SWAP1 JUMP JUMPDEST DUP1 PUSH1 0x0 MSTORE PUSH1 0x1 PUSH1 0x20 MSTORE PUSH1 0x40 PUSH1 0x0 KECCAK256 CALLER PUSH1 0x0 MSTORE PUSH1 0x20 MSTORE PUSH1 0xFF PUSH1 0x40 PUSH1 0x0 KECCAK256 SLOAD AND ISZERO PUSH2 0x17AF JUMPI POP JUMP JUMPDEST PUSH1 0x44 SWAP1 PUSH1 0x40 MLOAD SWAP1 PUSH4 0xE2517D3F PUSH1 0xE0 SHL DUP3 MSTORE CALLER PUSH1 0x4 DUP4 ADD MSTORE PUSH1 0x24 DUP3 ADD MSTORE REVERT JUMPDEST SWAP1 PUSH1 0x0 SWAP2 DUP1 DUP4 MSTORE PUSH1 0x1 PUSH1 0x20 MSTORE PUSH1 0x40 DUP4 KECCAK256 SWAP2 PUSH1 0x1 DUP1 PUSH1 0xA0 SHL SUB AND SWAP2 DUP3 DUP5 MSTORE PUSH1 0x20 MSTORE PUSH1 0xFF PUSH1 0x40 DUP5 KECCAK256 SLOAD AND ISZERO PUSH1 0x0 EQ PUSH2 0x1848 JUMPI DUP1 DUP4 MSTORE PUSH1 0x1 PUSH1 0x20 MSTORE PUSH1 0x40 DUP4 KECCAK256 DUP3 DUP5 MSTORE PUSH1 0x20 MSTORE PUSH1 0x40 DUP4 KECCAK256 PUSH1 0x1 PUSH1 0xFF NOT DUP3 SLOAD AND OR SWAP1 SSTORE PUSH32 0x2F8788117E7EFF1D82E926EC794901D17C78024A50270940304540A733656F0D CALLER SWAP4 DUP1 LOG4 PUSH1 0x1 SWAP1 JUMP JUMPDEST POP POP SWAP1 JUMP JUMPDEST SWAP1 PUSH1 0x0 SWAP2 DUP1 DUP4 MSTORE PUSH1 0x1 PUSH1 0x20 MSTORE PUSH1 0x40 DUP4 KECCAK256 SWAP2 PUSH1 0x1 DUP1 PUSH1 0xA0 SHL SUB AND SWAP2 DUP3 DUP5 MSTORE PUSH1 0x20 MSTORE PUSH1 0xFF PUSH1 0x40 DUP5 KECCAK256 SLOAD AND PUSH1 0x0 EQ PUSH2 0x1848 JUMPI DUP1 DUP4 MSTORE PUSH1 0x1 PUSH1 0x20 MSTORE PUSH1 0x40 DUP4 KECCAK256 DUP3 DUP5 MSTORE PUSH1 0x20 MSTORE PUSH1 0x40 DUP4 KECCAK256 PUSH1 0xFF NOT DUP2 SLOAD AND SWAP1 SSTORE PUSH32 0xF6391F5C32D9C69D2A47EA670B442974B53935D1EDC7FD64EB21E047A839171B CALLER SWAP4 DUP1 LOG4 PUSH1 0x1 SWAP1 JUMP JUMPDEST PUSH1 0xA0 DUP2 ADD SWAP1 DUP2 LT PUSH8 0xFFFFFFFFFFFFFFFF DUP3 GT OR PUSH2 0x18E0 JUMPI PUSH1 0x40 MSTORE JUMP JUMPDEST PUSH4 0x4E487B71 PUSH1 0xE0 SHL PUSH1 0x0 MSTORE PUSH1 0x41 PUSH1 0x4 MSTORE PUSH1 0x24 PUSH1 0x0 REVERT JUMPDEST PUSH1 0xC0 DUP2 ADD SWAP1 DUP2 LT PUSH8 0xFFFFFFFFFFFFFFFF DUP3 GT OR PUSH2 0x18E0 JUMPI PUSH1 0x40 MSTORE JUMP JUMPDEST SWAP1 PUSH1 0x1F DUP1 NOT SWAP2 ADD AND DUP2 ADD SWAP1 DUP2 LT PUSH8 0xFFFFFFFFFFFFFFFF DUP3 GT OR PUSH2 0x18E0 JUMPI PUSH1 0x40 MSTORE JUMP JUMPDEST MLOAD SWAP1 PUSH10 0xFFFFFFFFFFFFFFFFFFFF DUP3 AND DUP3 SUB PUSH2 0x175A JUMPI JUMP JUMPDEST DUP1 ISZERO PUSH2 0x1961 JUMPI PUSH11 0x1A784379D99DB42000000 DIV SWAP1 JUMP JUMPDEST PUSH4 0x4E487B71 PUSH1 0xE0 SHL PUSH1 0x0 MSTORE PUSH1 0x12 PUSH1 0x4 MSTORE PUSH1 0x24 PUSH1 0x0 REVERT JUMPDEST DUP2 ISZERO PUSH2 0x1961 JUMPI DIV SWAP1 JUMP JUMPDEST PUSH1 0x40 MLOAD PUSH4 0x3FABE5A3 PUSH1 0xE2 SHL DUP2 MSTORE PUSH1 0xA0 DUP2 PUSH1 0x4 DUP2 PUSH32 0x0 PUSH1 0x1 PUSH1 0x1 PUSH1 0xA0 SHL SUB AND GAS STATICCALL SWAP1 DUP2 ISZERO PUSH2 0x1A65 JUMPI PUSH1 0x0 SWAP2 PUSH2 0x1A19 JUMPI JUMPDEST POP PUSH1 0x0 DUP2 SGT ISZERO PUSH2 0x19E0 JUMPI PUSH1 0x64 SWAP1 DIV SWAP1 JUMP JUMPDEST PUSH1 0x40 MLOAD PUSH3 0x461BCD PUSH1 0xE5 SHL DUP2 MSTORE PUSH1 0x20 PUSH1 0x4 DUP3 ADD MSTORE PUSH1 0x11 PUSH1 0x24 DUP3 ADD MSTORE PUSH17 0x496E76616C696420455448207072696365 PUSH1 0x78 SHL PUSH1 0x44 DUP3 ADD MSTORE PUSH1 0x64 SWAP1 REVERT JUMPDEST SWAP1 PUSH1 0xA0 DUP3 RETURNDATASIZE DUP3 GT PUSH2 0x1A5D JUMPI JUMPDEST DUP2 PUSH2 0x1A32 PUSH1 0xA0 SWAP4 DUP4 PUSH2 0x1912 JUMP JUMPDEST DUP2 ADD SUB SLT PUSH2 0x56E JUMPI POP PUSH2 0x1A44 DUP2 PUSH2 0x1934 JUMP JUMPDEST POP PUSH2 0x1A56 PUSH1 0x80 PUSH1 0x20 DUP4 ADD MLOAD SWAP3 ADD PUSH2 0x1934 JUMP JUMPDEST POP CODESIZE PUSH2 0x19CF JUMP JUMPDEST RETURNDATASIZE SWAP2 POP PUSH2 0x1A25 JUMP JUMPDEST PUSH1 0x40 MLOAD RETURNDATASIZE PUSH1 0x0 DUP3 RETURNDATACOPY RETURNDATASIZE SWAP1 REVERT JUMPDEST ISZERO PUSH2 0x1A78 JUMPI JUMP JUMPDEST PUSH1 0x40 MLOAD PUSH3 0x461BCD PUSH1 0xE5 SHL DUP2 MSTORE PUSH1 0x20 PUSH1 0x4 DUP3 ADD MSTORE PUSH1 0x15 PUSH1 0x24 DUP3 ADD MSTORE PUSH21 0x13DB9B1E481B1BDD1D195C9E4818DBDB9D1C9858DD PUSH1 0x5A SHL PUSH1 0x44 DUP3 ADD MSTORE PUSH1 0x64 SWAP1 REVERT JUMPDEST SWAP2 SWAP1 DUP3 ADD DUP1 SWAP3 GT PUSH2 0x1AC2 JUMPI JUMP JUMPDEST PUSH4 0x4E487B71 PUSH1 0xE0 SHL PUSH1 0x0 MSTORE PUSH1 0x11 PUSH1 0x4 MSTORE PUSH1 0x24 PUSH1 0x0 REVERT JUMPDEST PUSH1 0x0 NOT DUP2 EQ PUSH2 0x1AC2 JUMPI PUSH1 0x1 ADD SWAP1 JUMP JUMPDEST PUSH1 0x2 PUSH1 0x0 SLOAD EQ PUSH2 0x1AF8 JUMPI PUSH1 0x2 PUSH1 0x0 SSTORE JUMP JUMPDEST PUSH1 0x40 MLOAD PUSH4 0x3EE5AEB5 PUSH1 0xE0 SHL DUP2 MSTORE PUSH1 0x4 SWAP1 REVERT JUMPDEST SWAP1 DUP2 PUSH1 0x20 SWAP2 SUB SLT PUSH2 0x175A JUMPI MLOAD DUP1 ISZERO ISZERO DUP2 SUB PUSH2 0x175A JUMPI SWAP1 JUMP JUMPDEST PUSH1 0x40 MLOAD SWAP1 PUSH2 0x1B2F DUP3 PUSH2 0x18F6 JUMP JUMPDEST DUP2 PUSH1 0xA0 PUSH1 0x0 SWAP2 DUP3 DUP2 MSTORE DUP3 PUSH1 0x20 DUP3 ADD MSTORE DUP3 PUSH1 0x40 DUP3 ADD MSTORE DUP3 PUSH1 0x60 DUP3 ADD MSTORE DUP3 PUSH1 0x80 DUP3 ADD MSTORE ADD MSTORE JUMP INVALID SWAP9 SLT BYTE 0x24 NOT 0x1E 0x1F 0xB0 STOP PUSH2 0x27 DELEGATECALL 0xE1 CALLER 0xF7 SWAP9 0xA7 LOG0 0x27 RETURNDATASIZE 0xC1 DUP3 0xE0 DUP16 0x29 0x25 0xD9 DUP6 LOG1 DIV 0xCC LOG2 PUSH5 0x6970667358 0x22 SLT KECCAK256 0xBD PUSH22 0x87437F5EFF1DD65D053FBE99FED8C4DB6587CB17B2A5 TIMESTAMP SWAP4 DUP13 0x5E DUP12 DUP11 0xAB 0xC1 PUSH5 0x736F6C6343 STOP ADDMOD EQ STOP CALLER 0x2F DUP8 DUP9 GT PUSH31 0x7EFF1D82E926EC794901D17C78024A50270940304540A733656F0D00000000 "},"methodIdentifiers":{"DEFAULT_ADMIN_ROLE()":"a217fddf","DEV_FEE()":"436a88c1","DEV_ROLE()":"fcf0f0d3","ETH_USD_FEED()":"94d8572a","FIRST_POOL()":"11de8574","FIRST_RESERVE()":"eb46edf0","LOTTERY_ROLE()":"38090ec6","SECOND_POOL()":"ef1bc4db","SECOND_RESERVE()":"39fc8875","THIRD_POOL()":"b7ddaa6c","THIRD_RESERVE()":"4e797253","TICKET_PRICE_USD()":"59728bbf","USDC()":"89a30271","claimPrize(bytes32,uint256,uint256)":"24e42276","devWallet()":"8ea5220f","distributePrizes(uint256,uint256,uint256,uint256)":"b33f1cf2","emergencyWithdraw()":"db2e21bc","ethPools()":"bad6fb12","getDetailedPoolsInfo()":"4cf1219d","getETHAmountForTicket()":"d54d0c53","getETHPrice()":"a607a8d9","getPoolsInfo()":"d728d2a0","getRoleAdmin(bytes32)":"248a9ca3","getRoundStats(uint256)":"2cb36b51","grantRole(bytes32,address)":"2f2ff15d","hasRole(bytes32,address)":"91d14854","isTicketPaid(bytes32)":"929a47e1","processETHPayment(bytes32,address,uint256)":"d073cc54","processUSDCPayment(bytes32,address,uint256)":"cc680823","renounceRole(bytes32,address)":"36568abe","revokeRole(bytes32,address)":"d547741f","roundTotalETH(uint256)":"481951e6","roundTotalTickets(uint256)":"c293f72f","roundTotalUSDC(uint256)":"f06cc546","supportsInterface(bytes4)":"01ffc9a7","ticketPayments(bytes32)":"8b19f56f","usdcPools()":"04ba8c22"}}}}}