{"contracts/LottoMojiTickets.sol":{"LottoMojiTickets":{"abi":[{"inputs":[{"internalType":"address","name":"_lotteryContract","type":"address"}],"stateMutability":"nonpayable","type":"constructor"},{"inputs":[],"name":"AccessControlBadConfirmation","type":"error"},{"inputs":[{"internalType":"address","name":"account","type":"address"},{"internalType":"bytes32","name":"neededRole","type":"bytes32"}],"name":"AccessControlUnauthorizedAccount","type":"error"},{"inputs":[{"internalType":"address","name":"sender","type":"address"},{"internalType":"uint256","name":"tokenId","type":"uint256"},{"internalType":"address","name":"owner","type":"address"}],"name":"ERC721IncorrectOwner","type":"error"},{"inputs":[{"internalType":"address","name":"operator","type":"address"},{"internalType":"uint256","name":"tokenId","type":"uint256"}],"name":"ERC721InsufficientApproval","type":"error"},{"inputs":[{"internalType":"address","name":"approver","type":"address"}],"name":"ERC721InvalidApprover","type":"error"},{"inputs":[{"internalType":"address","name":"operator","type":"address"}],"name":"ERC721InvalidOperator","type":"error"},{"inputs":[{"internalType":"address","name":"owner","type":"address"}],"name":"ERC721InvalidOwner","type":"error"},{"inputs":[{"internalType":"address","name":"receiver","type":"address"}],"name":"ERC721InvalidReceiver","type":"error"},{"inputs":[{"internalType":"address","name":"sender","type":"address"}],"name":"ERC721InvalidSender","type":"error"},{"inputs":[{"internalType":"uint256","name":"tokenId","type":"uint256"}],"name":"ERC721NonexistentToken","type":"error"},{"inputs":[],"name":"ReentrancyGuardReentrantCall","type":"error"},{"anonymous":false,"inputs":[{"indexed":true,"internalType":"address","name":"owner","type":"address"},{"indexed":true,"internalType":"address","name":"approved","type":"address"},{"indexed":true,"internalType":"uint256","name":"tokenId","type":"uint256"}],"name":"Approval","type":"event"},{"anonymous":false,"inputs":[{"indexed":true,"internalType":"address","name":"owner","type":"address"},{"indexed":true,"internalType":"address","name":"operator","type":"address"},{"indexed":false,"internalType":"bool","name":"approved","type":"bool"}],"name":"ApprovalForAll","type":"event"},{"anonymous":false,"inputs":[{"indexed":true,"internalType":"bytes32","name":"role","type":"bytes32"},{"indexed":true,"internalType":"bytes32","name":"previousAdminRole","type":"bytes32"},{"indexed":true,"internalType":"bytes32","name":"newAdminRole","type":"bytes32"}],"name":"RoleAdminChanged","type":"event"},{"anonymous":false,"inputs":[{"indexed":true,"internalType":"bytes32","name":"role","type":"bytes32"},{"indexed":true,"internalType":"address","name":"account","type":"address"},{"indexed":true,"internalType":"address","name":"sender","type":"address"}],"name":"RoleGranted","type":"event"},{"anonymous":false,"inputs":[{"indexed":true,"internalType":"bytes32","name":"role","type":"bytes32"},{"indexed":true,"internalType":"address","name":"account","type":"address"},{"indexed":true,"internalType":"address","name":"sender","type":"address"}],"name":"RoleRevoked","type":"event"},{"anonymous":false,"inputs":[{"indexed":true,"internalType":"uint256","name":"tokenId","type":"uint256"},{"indexed":true,"internalType":"address","name":"player","type":"address"},{"indexed":false,"internalType":"uint256","name":"roundId","type":"uint256"}],"name":"TicketBurned","type":"event"},{"anonymous":false,"inputs":[{"indexed":true,"internalType":"uint256","name":"tokenId","type":"uint256"},{"indexed":true,"internalType":"address","name":"player","type":"address"},{"indexed":false,"internalType":"uint256","name":"roundId","type":"uint256"},{"indexed":false,"internalType":"uint256[4]","name":"emojis","type":"uint256[4]"},{"indexed":false,"internalType":"bool","name":"isFreeTicket","type":"bool"}],"name":"TicketMinted","type":"event"},{"anonymous":false,"inputs":[{"indexed":true,"internalType":"uint256","name":"tokenId","type":"uint256"},{"indexed":true,"internalType":"address","name":"player","type":"address"},{"indexed":false,"internalType":"uint256","name":"prizeAmount","type":"uint256"}],"name":"TicketUsed","type":"event"},{"anonymous":false,"inputs":[{"indexed":true,"internalType":"address","name":"from","type":"address"},{"indexed":true,"internalType":"address","name":"to","type":"address"},{"indexed":true,"internalType":"uint256","name":"tokenId","type":"uint256"}],"name":"Transfer","type":"event"},{"inputs":[],"name":"DEFAULT_ADMIN_ROLE","outputs":[{"internalType":"bytes32","name":"","type":"bytes32"}],"stateMutability":"view","type":"function"},{"inputs":[],"name":"LOTTERY_ROLE","outputs":[{"internalType":"bytes32","name":"","type":"bytes32"}],"stateMutability":"view","type":"function"},{"inputs":[],"name":"MINTER_ROLE","outputs":[{"internalType":"bytes32","name":"","type":"bytes32"}],"stateMutability":"view","type":"function"},{"inputs":[{"internalType":"address","name":"to","type":"address"},{"internalType":"uint256","name":"tokenId","type":"uint256"}],"name":"approve","outputs":[],"stateMutability":"nonpayable","type":"function"},{"inputs":[{"internalType":"address","name":"owner","type":"address"}],"name":"balanceOf","outputs":[{"internalType":"uint256","name":"","type":"uint256"}],"stateMutability":"view","type":"function"},{"inputs":[{"internalType":"uint256","name":"roundId","type":"uint256"}],"name":"burnExpiredTickets","outputs":[],"stateMutability":"nonpayable","type":"function"},{"inputs":[{"internalType":"uint256","name":"tokenId","type":"uint256"}],"name":"getApproved","outputs":[{"internalType":"address","name":"","type":"address"}],"stateMutability":"view","type":"function"},{"inputs":[{"internalType":"address","name":"player","type":"address"},{"internalType":"uint256","name":"roundId","type":"uint256"}],"name":"getPlayerTicketsForRound","outputs":[{"internalType":"uint256[]","name":"validTickets","type":"uint256[]"}],"stateMutability":"view","type":"function"},{"inputs":[{"internalType":"bytes32","name":"role","type":"bytes32"}],"name":"getRoleAdmin","outputs":[{"internalType":"bytes32","name":"","type":"bytes32"}],"stateMutability":"view","type":"function"},{"inputs":[{"internalType":"uint256","name":"roundId","type":"uint256"}],"name":"getRoundValidTickets","outputs":[{"internalType":"uint256[]","name":"","type":"uint256[]"}],"stateMutability":"view","type":"function"},{"inputs":[{"internalType":"bytes32","name":"paymentHash","type":"bytes32"}],"name":"getTicketByPayment","outputs":[{"internalType":"uint256","name":"","type":"uint256"}],"stateMutability":"view","type":"function"},{"inputs":[{"internalType":"uint256","name":"tokenId","type":"uint256"}],"name":"getTicketInfo","outputs":[{"internalType":"uint256[4]","name":"emojis","type":"uint256[4]"},{"internalType":"uint256","name":"roundId","type":"uint256"},{"internalType":"address","name":"player","type":"address"},{"internalType":"bool","name":"isUsed","type":"bool"},{"internalType":"bool","name":"isFreeTicket","type":"bool"},{"internalType":"bool","name":"isValid","type":"bool"},{"internalType":"uint256","name":"mintTimestamp","type":"uint256"},{"internalType":"bytes32","name":"paymentHash","type":"bytes32"}],"stateMutability":"view","type":"function"},{"inputs":[{"internalType":"bytes32","name":"role","type":"bytes32"},{"internalType":"address","name":"account","type":"address"}],"name":"grantRole","outputs":[],"stateMutability":"nonpayable","type":"function"},{"inputs":[{"internalType":"bytes32","name":"role","type":"bytes32"},{"internalType":"address","name":"account","type":"address"}],"name":"hasRole","outputs":[{"internalType":"bool","name":"","type":"bool"}],"stateMutability":"view","type":"function"},{"inputs":[{"internalType":"address","name":"owner","type":"address"},{"internalType":"address","name":"operator","type":"address"}],"name":"isApprovedForAll","outputs":[{"internalType":"bool","name":"","type":"bool"}],"stateMutability":"view","type":"function"},{"inputs":[{"internalType":"uint256","name":"tokenId","type":"uint256"}],"name":"isTicketValid","outputs":[{"internalType":"bool","name":"","type":"bool"}],"stateMutability":"view","type":"function"},{"inputs":[{"internalType":"address","name":"player","type":"address"},{"internalType":"uint256[4]","name":"emojis","type":"uint256[4]"},{"internalType":"uint256","name":"roundId","type":"uint256"},{"internalType":"bool","name":"isFreeTicket","type":"bool"},{"internalType":"bytes32","name":"paymentHash","type":"bytes32"}],"name":"mintTicket","outputs":[{"internalType":"uint256","name":"","type":"uint256"}],"stateMutability":"nonpayable","type":"function"},{"inputs":[],"name":"name","outputs":[{"internalType":"string","name":"","type":"string"}],"stateMutability":"view","type":"function"},{"inputs":[{"internalType":"uint256","name":"tokenId","type":"uint256"}],"name":"ownerOf","outputs":[{"internalType":"address","name":"","type":"address"}],"stateMutability":"view","type":"function"},{"inputs":[{"internalType":"bytes32","name":"","type":"bytes32"}],"name":"paymentToTicket","outputs":[{"internalType":"uint256","name":"","type":"uint256"}],"stateMutability":"view","type":"function"},{"inputs":[{"internalType":"address","name":"","type":"address"},{"internalType":"uint256","name":"","type":"uint256"}],"name":"playerTickets","outputs":[{"internalType":"uint256","name":"","type":"uint256"}],"stateMutability":"view","type":"function"},{"inputs":[{"internalType":"bytes32","name":"role","type":"bytes32"},{"internalType":"address","name":"callerConfirmation","type":"address"}],"name":"renounceRole","outputs":[],"stateMutability":"nonpayable","type":"function"},{"inputs":[{"internalType":"bytes32","name":"role","type":"bytes32"},{"internalType":"address","name":"account","type":"address"}],"name":"revokeRole","outputs":[],"stateMutability":"nonpayable","type":"function"},{"inputs":[{"internalType":"uint256","name":"","type":"uint256"},{"internalType":"uint256","name":"","type":"uint256"}],"name":"roundTickets","outputs":[{"internalType":"uint256","name":"","type":"uint256"}],"stateMutability":"view","type":"function"},{"inputs":[{"internalType":"address","name":"from","type":"address"},{"internalType":"address","name":"to","type":"address"},{"internalType":"uint256","name":"tokenId","type":"uint256"}],"name":"safeTransferFrom","outputs":[],"stateMutability":"nonpayable","type":"function"},{"inputs":[{"internalType":"address","name":"from","type":"address"},{"internalType":"address","name":"to","type":"address"},{"internalType":"uint256","name":"tokenId","type":"uint256"},{"internalType":"bytes","name":"data","type":"bytes"}],"name":"safeTransferFrom","outputs":[],"stateMutability":"nonpayable","type":"function"},{"inputs":[{"internalType":"address","name":"operator","type":"address"},{"internalType":"bool","name":"approved","type":"bool"}],"name":"setApprovalForAll","outputs":[],"stateMutability":"nonpayable","type":"function"},{"inputs":[{"internalType":"bytes4","name":"interfaceId","type":"bytes4"}],"name":"supportsInterface","outputs":[{"internalType":"bool","name":"","type":"bool"}],"stateMutability":"view","type":"function"},{"inputs":[],"name":"symbol","outputs":[{"internalType":"string","name":"","type":"string"}],"stateMutability":"view","type":"function"},{"inputs":[{"internalType":"uint256","name":"","type":"uint256"}],"name":"tickets","outputs":[{"internalType":"uint256","name":"roundId","type":"uint256"},{"internalType":"address","name":"player","type":"address"},{"internalType":"bool","name":"isUsed","type":"bool"},{"internalType":"bool","name":"isFreeTicket","type":"bool"},{"internalType":"uint256","name":"mintTimestamp","type":"uint256"},{"internalType":"bytes32","name":"paymentHash","type":"bytes32"}],"stateMutability":"view","type":"function"},{"inputs":[{"internalType":"uint256","name":"tokenId","type":"uint256"}],"name":"tokenURI","outputs":[{"internalType":"string","name":"","type":"string"}],"stateMutability":"view","type":"function"},{"inputs":[],"name":"totalSupply","outputs":[{"internalType":"uint256","name":"","type":"uint256"}],"stateMutability":"view","type":"function"},{"inputs":[{"internalType":"address","name":"from","type":"address"},{"internalType":"address","name":"to","type":"address"},{"internalType":"uint256","name":"tokenId","type":"uint256"}],"name":"transferFrom","outputs":[],"stateMutability":"nonpayable","type":"function"},{"inputs":[{"internalType":"uint256","name":"tokenId","type":"uint256"}],"name":"useTicket","outputs":[],"stateMutability":"nonpayable","type":"function"}],"evm":{"bytecode":{"linkReferences":{},"object":"6080346200037857601f1990601f906001600160401b03620027203881900384810186168401838111858210176200036257849282916040528339602093849181010312620003785751926001600160a01b03841684036200037857620000656200037d565b92601084526f131bdd1d1bd35bda9a48151a58dad95d60821b818501526200008c6200037d565b90600582526413135512d560da1b8183015284519684881162000362576000978854966001978881811c9116801562000357575b858210146200034357908187849311620002f0575b5084908783116001146200028f578b9262000283575b5050600019600383901b1c191690871b1788555b82519485116200026f5785548681811c9116801562000264575b83821014620002505784811162000208575b50819385116001146200019f57505090829162000182969262000193575b5050600019600383901b1c191690821b1781555b806007556008556200016f336200039d565b506200017b816200041e565b50620004c1565b506040516121a09081620005608239f35b01519050388062000149565b8588528188209497908816915b828210620001f0575050918493918762000182989410620001d6575b505050811b0181556200015d565b015160001960f88460031b161c19169055388080620001c8565b808786978294978701518155019601940190620001ac565b8689528289208580880160051c82019285891062000246575b0160051c019087905b8281106200023a5750506200012b565b8a81550187906200022a565b9250819262000221565b634e487b7160e01b89526022600452602489fd5b90607f169062000119565b634e487b7160e01b88526041600452602488fd5b015190503880620000eb565b90848a9416918c8052868d20928d5b88828210620002d95750508411620002bf575b505050811b018855620000ff565b015160001960f88460031b161c19169055388080620002b1565b8385015186558d979095019493840193016200029e565b9091508a8052848b208780850160051c82019287861062000339575b918b91869594930160051c01915b8281106200032a575050620000d5565b8d81558594508b91016200031a565b925081926200030c565b634e487b7160e01b8b52602260045260248bfd5b90607f1690620000c0565b634e487b7160e01b600052604160045260246000fd5b600080fd5b60408051919082016001600160401b038111838210176200036257604052565b6001600160a01b031660008181527f54cdd369e4e8a8515e52ca72ec816c2101831ad1f18bf44102ed171459c9b4f8602052604081205490919060ff166200041a5781805260066020526040822081835260205260408220600160ff198254161790553391600080516020620027008339815191528180a4600190565b5090565b6001600160a01b031660008181527f2e5125f5cf5862bb743795be6b654cc7a33c5e64a28cff7ea149a15b2596f41160205260408120549091907f98121a24191e1fb000610027f4e133f798a7a0273dc182e08f2925d985a104cc9060ff16620004bc5780835260066020526040832082845260205260408320600160ff1982541617905560008051602062002700833981519152339380a4600190565b505090565b6001600160a01b031660008181527f3195c024b2ddd6d9b8f6c836aa52f67fe69376c8903d009b80229b3ce4425f5160205260408120549091907f9f2df0fed2c77648de5860a4cc508cd0818c85b8b8a1ab4ceeef8d981c8956a69060ff16620004bc5780835260066020526040832082845260205260408320600160ff1982541617905560008051602062002700833981519152339380a460019056fe608080604052600436101561001357600080fd5b60003560e01c90816301ffc9a7146118165750806306fdde0314611757578063081812fc14611719578063095ea7b31461163257806318160ddd146116145780632379ba3d146102f557806323b872dd146115fd578063248a9ca3146115ce5780632495fa16146114b157806326606448146113435780632f2ff15d1461130457806336568abe146112bd57806338090ec61461128257806342842e0e1461125457806344d855f11461120a5780634d8b462a14610f6c57806350b4471214610ef85780636352211e14610ec857806370a0823114610e6f5780637169c71114610e2857806391d1485414610ddb57806395d89b4114610cd0578063a217fddf14610cb4578063a22cb46514610c0f578063b88d4fde14610b7a578063c87b56dd14610b27578063ca5a3633146109aa578063d28e54f0146103f3578063d5391393146103b8578063d547741f14610377578063e985e9c514610321578063f4b475e0146102f5578063fb3ae56f146102cd5763ff99a0631461019557600080fd5b346102c8576020806003193601126102c85760043560806040516101b8816119f3565b36903760008181526002835260409020546001600160a01b0392906101e09084161515611fdc565b81600052600981526040600020604051906101fa826119a5565b60405193849582966000905b600482106102b3575050610160965061021e866119f3565b85845260048301548095850152600583015490811680604086015261027760ff808460a01c1615159384606089015260a81c1615159384608088015260c0600760068801549760a08a0198895201549701968752612020565b93519451956102896040518099611a4d565b608088015260a087015260c086015260e08501521515610100840152610120830152610140820152f35b60018781928b54815201990191019097610206565b600080fd5b346102c85760203660031901126102c85760206102eb600435612020565b6040519015158152f35b346102c85760203660031901126102c857600435600052600c6020526020604060002054604051908152f35b346102c85760403660031901126102c85761033a6118db565b6103426118f1565b9060018060a01b03809116600052600560205260406000209116600052602052602060ff604060002054166040519015158152f35b346102c85760403660031901126102c8576103b66004356103966118f1565b908060005260066020526103b1600160406000200154611a75565b611b1b565b005b346102c85760003660031901126102c85760206040517f9f2df0fed2c77648de5860a4cc508cd0818c85b8b8a1ab4ceeef8d981c8956a68152f35b346102c8576101003660031901126102c85761040d6118db565b36604312156102c85760405190610423826119f3565b60a4823682116102c8576024905b82821061099a57505060c4359182151583036102c8573360009081527f3195c024b2ddd6d9b8f6c836aa52f67fe69376c8903d009b80229b3ce4425f5160205260409020547f9f2df0fed2c77648de5860a4cc508cd0818c85b8b8a1ab4ceeef8d981c8956a69060ff161561097c57506001600160a01b0381161561093e5781351561090657600854926104c484611f39565b6008556040516104d3816119d7565b6000808252858152600260205260409020546001600160a01b03161580156108fe575b156108a1576000858152600260205260409020546001600160a01b03168015159086908261086a575b6001600160a01b0386166000818152600360209081526040808320805460010190558583526002909152812080546001600160a01b031916831790559091907fddf252ad1be2c89b69c2b068fc378daa952ba7f163c4a11628f55a4df523b3ef9080a461085157823b610712575b506040519461059b866119a5565b8086528335602087015260018060a01b03831660408701526000606087015281151560808701524260a087015260e43560c0870152846000526009602052604060002095805160005b600481106106fe575050927f535683c05bfa705555dc0e92f5928b05e7415060b4b8a73b7f369e2d783c3c04926106ce60c093602099600786898d8d9b015160048501556005840160018060a01b0360408301511681549060ff60a01b6060850151151560a01b169060ff60a81b6080860151151560a81b169269ffffffffffffffffffff60b01b16171717905560a08101516006850155015191015560018060a01b038416600052600a8a5261069f876040600020611f5e565b8735600052600b8a526106b6876040600020611f5e565b60e4356106e8575b6040519735885289880190611a4d565b151560a08601526001600160a01b031693a3604051908152f35b60e435600052600c8a52866040600020556106be565b60019060208351930192818b0155016105e4565b604095949392955160208180610751630a85bd0160e11b958683523360048401526000602484015289604484015260806064840152608483019061189b565b038160006001600160a01b038c165af16000918161080c575b506107d257863d156107ca573d9061078182611a31565b9161078f6040519384611a0f565b82523d6000602084013e5b815191826107c357604051633250574960e11b81526001600160a01b0383166004820152602490fd5b9050602001fd5b60609061079a565b63ffffffff60e097949596971b16036107eb578561058d565b604051633250574960e11b81526001600160a01b0383166004820152602490fd5b9091506020813d602011610849575b8161082860209383611a0f565b810103126102c857516001600160e01b0319811681036102c857908861076a565b3d915061081b565b6040516339e3563760e11b815260006004820152602490fd5b600082815260046020526040902080546001600160a01b03191690558060005260036020526040600020600019815401905561051f565b60405162461bcd60e51b815260206004820152602f60248201527f5469636b6574732061726520736f756c626f756e6420616e642063616e6e6f7460448201526e081899481d1c985b9cd9995c9c9959608a1b6064820152608490fd5b5060006104f6565b60405162461bcd60e51b815260206004820152601060248201526f125b9d985b1a59081c9bdd5b9908125160821b6044820152606490fd5b60405162461bcd60e51b8152602060048201526016602482015275496e76616c696420706c61796572206164647265737360501b6044820152606490fd5b6044906040519063e2517d3f60e01b82523360048301526024820152fd5b8135815260209182019101610431565b346102c85760403660031901126102c8576109c36118db565b6024359060018060a01b0316600052602090600a8252604060002091604051808483829654938481520190600052836000209260005b85828210610b1157505050610a1092500384611a0f565b60009060005b8451811015610a7d57610a29818661210c565b51806000526009835284600460406000200154149081610a6d575b50610a58575b610a5390611f39565b610a16565b91610a65610a5391611f39565b929050610a4a565b610a779150612020565b86610a44565b5090610a8890612138565b9060009060005b8551811015610aff57610aa2818761210c565b518060005260098352856004604060002001541480610af0575b610ad0575b50610acb90611f39565b610a8f565b83610ae991610ae3610acb94968861210c565b52611f39565b9290610ac1565b50610afa81612020565b610abc565b60405180610b0d868261193c565b0390f35b85548452600195860195899550930192016109f9565b346102c85760203660031901126102c857610b43600435611daf565b506000604051610b52816119d7565b52610b0d604051610b62816119d7565b6000815260405191829160208352602083019061189b565b346102c85760803660031901126102c857610b936118db565b610b9b6118f1565b906044356064359267ffffffffffffffff84116102c857366023850112156102c857836004013592610bcc84611a31565b93610bda6040519586611a0f565b80855236602482880101116102c85760208160009260246103b699018389013786010152610c09838383611b92565b33611dea565b346102c85760403660031901126102c857610c286118db565b602435908115158092036102c8576001600160a01b0316908115610c9b57336000526005602052604060002082600052602052604060002060ff1981541660ff83161790556040519081527f17307eab39ab6107e8899845ad3d59bd9653f200f220920489ca2b5937696c3160203392a3005b604051630b61174360e31b815260048101839052602490fd5b346102c85760003660031901126102c857602060405160008152f35b346102c85760003660031901126102c857604051600060019081549182811c91818416918215610dd1575b6020948585108414610dbb578587948686529182600014610d9b575050600114610d41575b50610d2d92500383611a0f565b610b0d60405192828493845283019061189b565b6000818152859250907fb10e2d527612073b26eecdfd717e6a320cf44b4afac2b0732d9fcbe2b7fa0cf65b858310610d83575050610d2d935082010185610d20565b80548389018501528794508693909201918101610d6c565b60ff191685820152610d2d95151560051b8501019250879150610d209050565b634e487b7160e01b600052602260045260246000fd5b92607f1692610cfb565b346102c85760403660031901126102c857610df46118f1565b600435600052600660205260406000209060018060a01b0316600052602052602060ff604060002054166040519015158152f35b346102c85760403660031901126102c857602435600435600052600b602052604060002080548210156102c857602091610e6191611977565b90546040519160031b1c8152f35b346102c85760203660031901126102c8576001600160a01b03610e906118db565b168015610eaf5760005260036020526020604060002054604051908152f35b6040516322718ad960e21b815260006004820152602490fd5b346102c85760203660031901126102c8576020610ee6600435611daf565b6040516001600160a01b039091168152f35b346102c85760203660031901126102c857600435600052600960205260c0604060002060048101549060058101549060ff600760068301549201549260405194855260018060a01b0381166020860152818160a01c161515604086015260a81c1615156060840152608083015260a0820152f35b346102c8576020806003193601126102c857600435907f98121a24191e1fb000610027f4e133f798a7a0273dc182e08f2925d985a104cc60005260068152604060002033600052815260ff91610fc88360406000205416611f98565b80600052600b8252604060002091604051808483829654938481520190600052836000209260005b858282106111f45750505061100792500384611a0f565b60005b83518110156103b65761101d818561210c565b518060005260029081845260018060a01b0380604060002054161515806111e4575b806111c7575b61105b575b50505061105690611f39565b61100a565b61106482611daf565b928260005280865281604060002054161580156111bf575b15611162578260005280865282600083604082205416801593841561112f575b83835289526040822080546001600160a01b03191690557fddf252ad1be2c89b69c2b068fc378daa952ba7f163c4a11628f55a4df523b3ef8280a461111657907fbeeb3d358dda3ae075433edfd10345f4fe04f511b474c4fef26fbd9616dedc6d85611056959493604051948986521693a390868061104a565b604051637e27328960e01b815260048101839052602490fd5b600084815260046020526040902080546001600160a01b031916905581835260038a52604083208319815401905561109c565b60405162461bcd60e51b815260048101879052602f60248201527f5469636b6574732061726520736f756c626f756e6420616e642063616e6e6f7460448201526e081899481d1c985b9cd9995c9c9959608a1b6064820152608490fd5b50600161107c565b5081600052600985528760056040600020015460a01c1615611045565b506111ee82612020565b1561103f565b8554845260019586019589955093019201610ff0565b346102c85760403660031901126102c8576112236118db565b6001600160a01b03166000908152600a60205260409020805460243591908210156102c857602091610e6191611977565b346102c8576103b661126536611907565b9060405192611273846119d7565b60008452610c09838383611b92565b346102c85760003660031901126102c85760206040517f98121a24191e1fb000610027f4e133f798a7a0273dc182e08f2925d985a104cc8152f35b346102c85760403660031901126102c8576112d66118f1565b336001600160a01b038216036112f2576103b690600435611b1b565b60405163334bd91960e11b8152600490fd5b346102c85760403660031901126102c8576103b66004356113236118f1565b9080600052600660205261133e600160406000200154611a75565b611a9b565b346102c8576020806003193601126102c8576004357f98121a24191e1fb000610027f4e133f798a7a0273dc182e08f2925d985a104cc60005260068252604060002033600052825261139c60ff60406000205416611f98565b60008181526002835260409020546001600160a01b0392906113c19084161515611fdc565b816000526009815260ff60056040600020015460a01c16611477576113e582612020565b1561143d576000828152600982526040808220600501805460ff60a01b198116600160a01b179091559051918252909316927f4f9c6210874b14266ea0f64418a0f7403a875226eae9483f5d9cd7663234db9a9190a3005b6064906040519062461bcd60e51b825260048201526013602482015272151a58dad95d081a5cc81b9bdd081d985b1a59606a1b6044820152fd5b6064906040519062461bcd60e51b825260048201526013602482015272151a58dad95d08185b1c9958591e481d5cd959606a1b6044820152fd5b346102c8576020806003193601126102c857600435600052600b81526040600020906040518092839183825491828152019160005283600020936000905b8282106115b4578461150381860382611a0f565b6000805b825181101561154b5761152361151d828561210c565b51612020565b611536575b61153190611f39565b611507565b9061154361153191611f39565b919050611528565b5061155590612138565b60009060005b83518110156115a65761156e818561210c565b5161157881612020565b61158c575b5061158790611f39565b61155b565b8361159f91610ae361158794968661210c565b929061157d565b60405180610b0d848261193c565b8554845260019586019587955093810193909101906114ef565b346102c85760203660031901126102c85760043560005260066020526020600160406000200154604051908152f35b346102c8576103b661160e36611907565b91611b92565b346102c85760003660031901126102c8576020600854604051908152f35b346102c85760403660031901126102c85761164b6118db565b60243561165781611daf565b33151580611706575b806116d9575b6116c1576001600160a01b039283169282918491167f8c5be1e5ebec7d5bd14f71427d1e84f3dd0314c0f7b2291e5b200ac8c7c3b925600080a4600090815260046020526040902080546001600160a01b0319169091179055005b60405163a9fbf51f60e01b8152336004820152602490fd5b5060018060a01b038116600052600560205260406000203360005260205260ff6040600020541615611666565b506001600160a01b038116331415611660565b346102c85760203660031901126102c85760043561173681611daf565b506000526004602052602060018060a01b0360406000205416604051908152f35b346102c85760003660031901126102c8576040516000805490600182811c9181841691821561180c575b6020948585108414610dbb578587948686529182600014610d9b5750506001146117b25750610d2d92500383611a0f565b6000808052859250907f290decd9548b62a8d60345a988386fc84ba6bc95484008f6362f93160ef3e5635b8583106117f4575050610d2d935082010185610d20565b805483890185015287945086939092019181016117dd565b92607f1692611781565b346102c85760203660031901126102c8576004359063ffffffff60e01b82168092036102c857602091637965db0b60e01b8114908115611858575b5015158152f35b6380ac58cd60e01b81149150811561188a575b8115611879575b5083611851565b6301ffc9a760e01b14905083611872565b635b5e139f60e01b8114915061186b565b919082519283825260005b8481106118c7575050826000602080949584010152601f8019910116010190565b6020818301810151848301820152016118a6565b600435906001600160a01b03821682036102c857565b602435906001600160a01b03821682036102c857565b60609060031901126102c8576001600160a01b039060043582811681036102c8579160243590811681036102c8579060443590565b6020908160408183019282815285518094520193019160005b828110611963575050505090565b835185529381019392810192600101611955565b805482101561198f5760005260206000200190600090565b634e487b7160e01b600052603260045260246000fd5b60e0810190811067ffffffffffffffff8211176119c157604052565b634e487b7160e01b600052604160045260246000fd5b6020810190811067ffffffffffffffff8211176119c157604052565b6080810190811067ffffffffffffffff8211176119c157604052565b90601f8019910116810190811067ffffffffffffffff8211176119c157604052565b67ffffffffffffffff81116119c157601f01601f191660200190565b6000915b60048310611a5e57505050565b600190825181526020809101920192019190611a51565b80600052600660205260406000203360005260205260ff604060002054161561097c5750565b906000918083526006602052604083209160018060a01b03169182845260205260ff60408420541615600014611b165780835260066020526040832082845260205260408320600160ff198254161790557f2f8788117e7eff1d82e926ec794901d17c78024a50270940304540a733656f0d339380a4600190565b505090565b906000918083526006602052604083209160018060a01b03169182845260205260ff604084205416600014611b16578083526006602052604083208284526020526040832060ff1981541690557ff6391f5c32d9c69d2a47ea670b442974b53935d1edc7fd64eb21e047a839171b339380a4600190565b6001600160a01b039182169290918315611d965760009282845260209460028652604095838787205416158015611d8f575b15611d34579084918287526002815284888820541696879133151580611c9e575b509060027fddf252ad1be2c89b69c2b068fc378daa952ba7f163c4a11628f55a4df523b3ef9284611c6b575b858352600381528b8320805460010190558683525289812080546001600160a01b0319168517905580a41692838303611c4a5750505050565b6064945051926364283d7b60e01b8452600484015260248301526044820152fd5b600087815260046020526040902080546001600160a01b0319169055848352600381528b83208054600019019055611c11565b91939450915080611cf3575b15611cba57859291879138611be5565b878688611cd7576024915190637e27328960e01b82526004820152fd5b604491519063177e802f60e01b82523360048301526024820152fd5b503387148015611d18575b80611caa5750858252600481523385898420541614611caa565b5086825260058152878220338352815260ff8883205416611cfe565b60849087519062461bcd60e51b82526004820152602f60248201527f5469636b6574732061726520736f756c626f756e6420616e642063616e6e6f7460448201526e081899481d1c985b9cd9995c9c9959608a1b6064820152fd5b5085611bc4565b604051633250574960e11b815260006004820152602490fd5b6000818152600260205260409020546001600160a01b0316908115611dd2575090565b60249060405190637e27328960e01b82526004820152fd5b909192833b611dfb575b5050505050565b604051630a85bd0160e11b8082526001600160a01b039384166004830152938316602482015260448101919091526080606482015260209591909316939091908390611e4b90608483019061189b565b039285816000958187895af1849181611ef5575b50611ebf575050503d600014611eb7573d611e7981611a31565b90611e876040519283611a0f565b81528091843d92013e5b80519283611eb257604051633250574960e11b815260048101849052602490fd5b019050fd5b506060611e91565b919450915063ffffffff60e01b1603611edd57503880808080611df4565b60249060405190633250574960e11b82526004820152fd5b9091508681813d8311611f32575b611f0d8183611a0f565b81010312611f2e57516001600160e01b031981168103611f2e579038611e5f565b8480fd5b503d611f03565b6000198114611f485760010190565b634e487b7160e01b600052601160045260246000fd5b8054680100000000000000008110156119c157611f8091600182018155611977565b819291549060031b91821b91600019901b1916179055565b15611f9f57565b60405162461bcd60e51b815260206004820152601560248201527413db9b1e481b1bdd1d195c9e4818dbdb9d1c9858dd605a1b6044820152606490fd5b15611fe357565b60405162461bcd60e51b8152602060048201526015602482015274151a58dad95d08191bd95cc81b9bdd08195e1a5cdd605a1b6044820152606490fd5b60009081526002602090815260408220546001600160a01b0390811615611b165760098252604083209160405190612057826119a5565b604051848683835b600483106120f55750505050612074816119f3565b82526004840154908201526005830154918216604082015260ff808360a01c1615159283606084015260a81c161515608082015260c060076006850154948560a085015201549101526120f1576201518081018091116120dd5742116120da5750600190565b90565b634e487b7160e01b82526011600452602482fd5b5090565b60019182918554815201930191019091849061205f565b805182101561198f5760209160051b010190565b67ffffffffffffffff81116119c15760051b60200190565b9061214282612120565b61214f6040519182611a0f565b8281528092612160601f1991612120565b019060203691013756fea2646970667358221220839f9868b2fb268c5fc255a4fc98468177d941d4ae557d6aabbe9ebeebfd35a464736f6c634300081400332f8788117e7eff1d82e926ec794901d17c78024a50270940304540a733656f0d","opcodes":"PUSH1 0x80 CALLVALUE PUSH3 0x378 JUMPI PUSH1 0x1F NOT SWAP1 PUSH1 0x1F SWAP1 PUSH1 0x1 PUSH1 0x1 PUSH1 0x40 SHL SUB PUSH3 0x2720 CODESIZE DUP2 SWAP1 SUB DUP5 DUP2 ADD DUP7 AND DUP5 ADD DUP4 DUP2 GT DUP6 DUP3 LT OR PUSH3 0x362 JUMPI DUP5 SWAP3 DUP3 SWAP2 PUSH1 0x40 MSTORE DUP4 CODECOPY PUSH1 0x20 SWAP4 DUP5 SWAP2 DUP2 ADD SUB SLT PUSH3 0x378 JUMPI MLOAD SWAP3 PUSH1 0x1 PUSH1 0x1 PUSH1 0xA0 SHL SUB DUP5 AND DUP5 SUB PUSH3 0x378 JUMPI PUSH3 0x65 PUSH3 0x37D JUMP JUMPDEST SWAP3 PUSH1 0x10 DUP5 MSTORE PUSH16 0x131BDD1D1BD35BDA9A48151A58DAD95D PUSH1 0x82 SHL DUP2 DUP6 ADD MSTORE PUSH3 0x8C PUSH3 0x37D JUMP JUMPDEST SWAP1 PUSH1 0x5 DUP3 MSTORE PUSH5 0x13135512D5 PUSH1 0xDA SHL DUP2 DUP4 ADD MSTORE DUP5 MLOAD SWAP7 DUP5 DUP9 GT PUSH3 0x362 JUMPI PUSH1 0x0 SWAP8 DUP9 SLOAD SWAP7 PUSH1 0x1 SWAP8 DUP9 DUP2 DUP2 SHR SWAP2 AND DUP1 ISZERO PUSH3 0x357 JUMPI JUMPDEST DUP6 DUP3 LT EQ PUSH3 0x343 JUMPI SWAP1 DUP2 DUP8 DUP5 SWAP4 GT PUSH3 0x2F0 JUMPI JUMPDEST POP DUP5 SWAP1 DUP8 DUP4 GT PUSH1 0x1 EQ PUSH3 0x28F JUMPI DUP12 SWAP3 PUSH3 0x283 JUMPI JUMPDEST POP POP PUSH1 0x0 NOT PUSH1 0x3 DUP4 SWAP1 SHL SHR NOT AND SWAP1 DUP8 SHL OR DUP9 SSTORE JUMPDEST DUP3 MLOAD SWAP5 DUP6 GT PUSH3 0x26F JUMPI DUP6 SLOAD DUP7 DUP2 DUP2 SHR SWAP2 AND DUP1 ISZERO PUSH3 0x264 JUMPI JUMPDEST DUP4 DUP3 LT EQ PUSH3 0x250 JUMPI DUP5 DUP2 GT PUSH3 0x208 JUMPI JUMPDEST POP DUP2 SWAP4 DUP6 GT PUSH1 0x1 EQ PUSH3 0x19F JUMPI POP POP SWAP1 DUP3 SWAP2 PUSH3 0x182 SWAP7 SWAP3 PUSH3 0x193 JUMPI JUMPDEST POP POP PUSH1 0x0 NOT PUSH1 0x3 DUP4 SWAP1 SHL SHR NOT AND SWAP1 DUP3 SHL OR DUP2 SSTORE JUMPDEST DUP1 PUSH1 0x7 SSTORE PUSH1 0x8 SSTORE PUSH3 0x16F CALLER PUSH3 0x39D JUMP JUMPDEST POP PUSH3 0x17B DUP2 PUSH3 0x41E JUMP JUMPDEST POP PUSH3 0x4C1 JUMP JUMPDEST POP PUSH1 0x40 MLOAD PUSH2 0x21A0 SWAP1 DUP2 PUSH3 0x560 DUP3 CODECOPY RETURN JUMPDEST ADD MLOAD SWAP1 POP CODESIZE DUP1 PUSH3 0x149 JUMP JUMPDEST DUP6 DUP9 MSTORE DUP2 DUP9 KECCAK256 SWAP5 SWAP8 SWAP1 DUP9 AND SWAP2 JUMPDEST DUP3 DUP3 LT PUSH3 0x1F0 JUMPI POP POP SWAP2 DUP5 SWAP4 SWAP2 DUP8 PUSH3 0x182 SWAP9 SWAP5 LT PUSH3 0x1D6 JUMPI JUMPDEST POP POP POP DUP2 SHL ADD DUP2 SSTORE PUSH3 0x15D JUMP JUMPDEST ADD MLOAD PUSH1 0x0 NOT PUSH1 0xF8 DUP5 PUSH1 0x3 SHL AND SHR NOT AND SWAP1 SSTORE CODESIZE DUP1 DUP1 PUSH3 0x1C8 JUMP JUMPDEST DUP1 DUP8 DUP7 SWAP8 DUP3 SWAP5 SWAP8 DUP8 ADD MLOAD DUP2 SSTORE ADD SWAP7 ADD SWAP5 ADD SWAP1 PUSH3 0x1AC JUMP JUMPDEST DUP7 DUP10 MSTORE DUP3 DUP10 KECCAK256 DUP6 DUP1 DUP9 ADD PUSH1 0x5 SHR DUP3 ADD SWAP3 DUP6 DUP10 LT PUSH3 0x246 JUMPI JUMPDEST ADD PUSH1 0x5 SHR ADD SWAP1 DUP8 SWAP1 JUMPDEST DUP3 DUP2 LT PUSH3 0x23A JUMPI POP POP PUSH3 0x12B JUMP JUMPDEST DUP11 DUP2 SSTORE ADD DUP8 SWAP1 PUSH3 0x22A JUMP JUMPDEST SWAP3 POP DUP2 SWAP3 PUSH3 0x221 JUMP JUMPDEST PUSH4 0x4E487B71 PUSH1 0xE0 SHL DUP10 MSTORE PUSH1 0x22 PUSH1 0x4 MSTORE PUSH1 0x24 DUP10 REVERT JUMPDEST SWAP1 PUSH1 0x7F AND SWAP1 PUSH3 0x119 JUMP JUMPDEST PUSH4 0x4E487B71 PUSH1 0xE0 SHL DUP9 MSTORE PUSH1 0x41 PUSH1 0x4 MSTORE PUSH1 0x24 DUP9 REVERT JUMPDEST ADD MLOAD SWAP1 POP CODESIZE DUP1 PUSH3 0xEB JUMP JUMPDEST SWAP1 DUP5 DUP11 SWAP5 AND SWAP2 DUP13 DUP1 MSTORE DUP7 DUP14 KECCAK256 SWAP3 DUP14 JUMPDEST DUP9 DUP3 DUP3 LT PUSH3 0x2D9 JUMPI POP POP DUP5 GT PUSH3 0x2BF JUMPI JUMPDEST POP POP POP DUP2 SHL ADD DUP9 SSTORE PUSH3 0xFF JUMP JUMPDEST ADD MLOAD PUSH1 0x0 NOT PUSH1 0xF8 DUP5 PUSH1 0x3 SHL AND SHR NOT AND SWAP1 SSTORE CODESIZE DUP1 DUP1 PUSH3 0x2B1 JUMP JUMPDEST DUP4 DUP6 ADD MLOAD DUP7 SSTORE DUP14 SWAP8 SWAP1 SWAP6 ADD SWAP5 SWAP4 DUP5 ADD SWAP4 ADD PUSH3 0x29E JUMP JUMPDEST SWAP1 SWAP2 POP DUP11 DUP1 MSTORE DUP5 DUP12 KECCAK256 DUP8 DUP1 DUP6 ADD PUSH1 0x5 SHR DUP3 ADD SWAP3 DUP8 DUP7 LT PUSH3 0x339 JUMPI JUMPDEST SWAP2 DUP12 SWAP2 DUP7 SWAP6 SWAP5 SWAP4 ADD PUSH1 0x5 SHR ADD SWAP2 JUMPDEST DUP3 DUP2 LT PUSH3 0x32A JUMPI POP POP PUSH3 0xD5 JUMP JUMPDEST DUP14 DUP2 SSTORE DUP6 SWAP5 POP DUP12 SWAP2 ADD PUSH3 0x31A JUMP JUMPDEST SWAP3 POP DUP2 SWAP3 PUSH3 0x30C JUMP JUMPDEST PUSH4 0x4E487B71 PUSH1 0xE0 SHL DUP12 MSTORE PUSH1 0x22 PUSH1 0x4 MSTORE PUSH1 0x24 DUP12 REVERT JUMPDEST SWAP1 PUSH1 0x7F AND SWAP1 PUSH3 0xC0 JUMP JUMPDEST PUSH4 0x4E487B71 PUSH1 0xE0 SHL PUSH1 0x0 MSTORE PUSH1 0x41 PUSH1 0x4 MSTORE PUSH1 0x24 PUSH1 0x0 REVERT JUMPDEST PUSH1 0x0 DUP1 REVERT JUMPDEST PUSH1 0x40 DUP1 MLOAD SWAP2 SWAP1 DUP3 ADD PUSH1 0x1 PUSH1 0x1 PUSH1 0x40 SHL SUB DUP2 GT DUP4 DUP3 LT OR PUSH3 0x362 JUMPI PUSH1 0x40 MSTORE JUMP JUMPDEST PUSH1 0x1 PUSH1 0x1 PUSH1 0xA0 SHL SUB AND PUSH1 0x0 DUP2 DUP2 MSTORE PUSH32 0x54CDD369E4E8A8515E52CA72EC816C2101831AD1F18BF44102ED171459C9B4F8 PUSH1 0x20 MSTORE PUSH1 0x40 DUP2 KECCAK256 SLOAD SWAP1 SWAP2 SWAP1 PUSH1 0xFF AND PUSH3 0x41A JUMPI DUP2 DUP1 MSTORE PUSH1 0x6 PUSH1 0x20 MSTORE PUSH1 0x40 DUP3 KECCAK256 DUP2 DUP4 MSTORE PUSH1 0x20 MSTORE PUSH1 0x40 DUP3 KECCAK256 PUSH1 0x1 PUSH1 0xFF NOT DUP3 SLOAD AND OR SWAP1 SSTORE CALLER SWAP2 PUSH1 0x0 DUP1 MLOAD PUSH1 0x20 PUSH3 0x2700 DUP4 CODECOPY DUP2 MLOAD SWAP2 MSTORE DUP2 DUP1 LOG4 PUSH1 0x1 SWAP1 JUMP JUMPDEST POP SWAP1 JUMP JUMPDEST PUSH1 0x1 PUSH1 0x1 PUSH1 0xA0 SHL SUB AND PUSH1 0x0 DUP2 DUP2 MSTORE PUSH32 0x2E5125F5CF5862BB743795BE6B654CC7A33C5E64A28CFF7EA149A15B2596F411 PUSH1 0x20 MSTORE PUSH1 0x40 DUP2 KECCAK256 SLOAD SWAP1 SWAP2 SWAP1 PUSH32 0x98121A24191E1FB000610027F4E133F798A7A0273DC182E08F2925D985A104CC SWAP1 PUSH1 0xFF AND PUSH3 0x4BC JUMPI DUP1 DUP4 MSTORE PUSH1 0x6 PUSH1 0x20 MSTORE PUSH1 0x40 DUP4 KECCAK256 DUP3 DUP5 MSTORE PUSH1 0x20 MSTORE PUSH1 0x40 DUP4 KECCAK256 PUSH1 0x1 PUSH1 0xFF NOT DUP3 SLOAD AND OR SWAP1 SSTORE PUSH1 0x0 DUP1 MLOAD PUSH1 0x20 PUSH3 0x2700 DUP4 CODECOPY DUP2 MLOAD SWAP2 MSTORE CALLER SWAP4 DUP1 LOG4 PUSH1 0x1 SWAP1 JUMP JUMPDEST POP POP SWAP1 JUMP JUMPDEST PUSH1 0x1 PUSH1 0x1 PUSH1 0xA0 SHL SUB AND PUSH1 0x0 DUP2 DUP2 MSTORE PUSH32 0x3195C024B2DDD6D9B8F6C836AA52F67FE69376C8903D009B80229B3CE4425F51 PUSH1 0x20 MSTORE PUSH1 0x40 DUP2 KECCAK256 SLOAD SWAP1 SWAP2 SWAP1 PUSH32 0x9F2DF0FED2C77648DE5860A4CC508CD0818C85B8B8A1AB4CEEEF8D981C8956A6 SWAP1 PUSH1 0xFF AND PUSH3 0x4BC JUMPI DUP1 DUP4 MSTORE PUSH1 0x6 PUSH1 0x20 MSTORE PUSH1 0x40 DUP4 KECCAK256 DUP3 DUP5 MSTORE PUSH1 0x20 MSTORE PUSH1 0x40 DUP4 KECCAK256 PUSH1 0x1 PUSH1 0xFF NOT DUP3 SLOAD AND OR SWAP1 SSTORE PUSH1 0x0 DUP1 MLOAD PUSH1 0x20 PUSH3 0x2700 DUP4 CODECOPY DUP2 MLOAD SWAP2 MSTORE CALLER SWAP4 DUP1 LOG4 PUSH1 0x1 SWAP1 JUMP INVALID PUSH1 0x80 DUP1 PUSH1 0x40 MSTORE PUSH1 0x4 CALLDATASIZE LT ISZERO PUSH2 0x13 JUMPI PUSH1 0x0 DUP1 REVERT JUMPDEST PUSH1 0x0 CALLDATALOAD PUSH1 0xE0 SHR SWAP1 DUP2 PUSH4 0x1FFC9A7 EQ PUSH2 0x1816 JUMPI POP DUP1 PUSH4 0x6FDDE03 EQ PUSH2 0x1757 JUMPI DUP1 PUSH4 0x81812FC EQ PUSH2 0x1719 JUMPI DUP1 PUSH4 0x95EA7B3 EQ PUSH2 0x1632 JUMPI DUP1 PUSH4 0x18160DDD EQ PUSH2 0x1614 JUMPI DUP1 PUSH4 0x2379BA3D EQ PUSH2 0x2F5 JUMPI DUP1 PUSH4 0x23B872DD EQ PUSH2 0x15FD JUMPI DUP1 PUSH4 0x248A9CA3 EQ PUSH2 0x15CE JUMPI DUP1 PUSH4 0x2495FA16 EQ PUSH2 0x14B1 JUMPI DUP1 PUSH4 0x26606448 EQ PUSH2 0x1343 JUMPI DUP1 PUSH4 0x2F2FF15D EQ PUSH2 0x1304 JUMPI DUP1 PUSH4 0x36568ABE EQ PUSH2 0x12BD JUMPI DUP1 PUSH4 0x38090EC6 EQ PUSH2 0x1282 JUMPI DUP1 PUSH4 0x42842E0E EQ PUSH2 0x1254 JUMPI DUP1 PUSH4 0x44D855F1 EQ PUSH2 0x120A JUMPI DUP1 PUSH4 0x4D8B462A EQ PUSH2 0xF6C JUMPI DUP1 PUSH4 0x50B44712 EQ PUSH2 0xEF8 JUMPI DUP1 PUSH4 0x6352211E EQ PUSH2 0xEC8 JUMPI DUP1 PUSH4 0x70A08231 EQ PUSH2 0xE6F JUMPI DUP1 PUSH4 0x7169C711 EQ PUSH2 0xE28 JUMPI DUP1 PUSH4 0x91D14854 EQ PUSH2 0xDDB JUMPI DUP1 PUSH4 0x95D89B41 EQ PUSH2 0xCD0 JUMPI DUP1 PUSH4 0xA217FDDF EQ PUSH2 0xCB4 JUMPI DUP1 PUSH4 0xA22CB465 EQ PUSH2 0xC0F JUMPI DUP1 PUSH4 0xB88D4FDE EQ PUSH2 0xB7A JUMPI DUP1 PUSH4 0xC87B56DD EQ PUSH2 0xB27 JUMPI DUP1 PUSH4 0xCA5A3633 EQ PUSH2 0x9AA JUMPI DUP1 PUSH4 0xD28E54F0 EQ PUSH2 0x3F3 JUMPI DUP1 PUSH4 0xD5391393 EQ PUSH2 0x3B8 JUMPI DUP1 PUSH4 0xD547741F EQ PUSH2 0x377 JUMPI DUP1 PUSH4 0xE985E9C5 EQ PUSH2 0x321 JUMPI DUP1 PUSH4 0xF4B475E0 EQ PUSH2 0x2F5 JUMPI DUP1 PUSH4 0xFB3AE56F EQ PUSH2 0x2CD JUMPI PUSH4 0xFF99A063 EQ PUSH2 0x195 JUMPI PUSH1 0x0 DUP1 REVERT JUMPDEST CALLVALUE PUSH2 0x2C8 JUMPI PUSH1 0x20 DUP1 PUSH1 0x3 NOT CALLDATASIZE ADD SLT PUSH2 0x2C8 JUMPI PUSH1 0x4 CALLDATALOAD PUSH1 0x80 PUSH1 0x40 MLOAD PUSH2 0x1B8 DUP2 PUSH2 0x19F3 JUMP JUMPDEST CALLDATASIZE SWAP1 CALLDATACOPY PUSH1 0x0 DUP2 DUP2 MSTORE PUSH1 0x2 DUP4 MSTORE PUSH1 0x40 SWAP1 KECCAK256 SLOAD PUSH1 0x1 PUSH1 0x1 PUSH1 0xA0 SHL SUB SWAP3 SWAP1 PUSH2 0x1E0 SWAP1 DUP5 AND ISZERO ISZERO PUSH2 0x1FDC JUMP JUMPDEST DUP2 PUSH1 0x0 MSTORE PUSH1 0x9 DUP2 MSTORE PUSH1 0x40 PUSH1 0x0 KECCAK256 PUSH1 0x40 MLOAD SWAP1 PUSH2 0x1FA DUP3 PUSH2 0x19A5 JUMP JUMPDEST PUSH1 0x40 MLOAD SWAP4 DUP5 SWAP6 DUP3 SWAP7 PUSH1 0x0 SWAP1 JUMPDEST PUSH1 0x4 DUP3 LT PUSH2 0x2B3 JUMPI POP POP PUSH2 0x160 SWAP7 POP PUSH2 0x21E DUP7 PUSH2 0x19F3 JUMP JUMPDEST DUP6 DUP5 MSTORE PUSH1 0x4 DUP4 ADD SLOAD DUP1 SWAP6 DUP6 ADD MSTORE PUSH1 0x5 DUP4 ADD SLOAD SWAP1 DUP2 AND DUP1 PUSH1 0x40 DUP7 ADD MSTORE PUSH2 0x277 PUSH1 0xFF DUP1 DUP5 PUSH1 0xA0 SHR AND ISZERO ISZERO SWAP4 DUP5 PUSH1 0x60 DUP10 ADD MSTORE PUSH1 0xA8 SHR AND ISZERO ISZERO SWAP4 DUP5 PUSH1 0x80 DUP9 ADD MSTORE PUSH1 0xC0 PUSH1 0x7 PUSH1 0x6 DUP9 ADD SLOAD SWAP8 PUSH1 0xA0 DUP11 ADD SWAP9 DUP10 MSTORE ADD SLOAD SWAP8 ADD SWAP7 DUP8 MSTORE PUSH2 0x2020 JUMP JUMPDEST SWAP4 MLOAD SWAP5 MLOAD SWAP6 PUSH2 0x289 PUSH1 0x40 MLOAD DUP1 SWAP10 PUSH2 0x1A4D JUMP JUMPDEST PUSH1 0x80 DUP9 ADD MSTORE PUSH1 0xA0 DUP8 ADD MSTORE PUSH1 0xC0 DUP7 ADD MSTORE PUSH1 0xE0 DUP6 ADD MSTORE ISZERO ISZERO PUSH2 0x100 DUP5 ADD MSTORE PUSH2 0x120 DUP4 ADD MSTORE PUSH2 0x140 DUP3 ADD MSTORE RETURN JUMPDEST PUSH1 0x1 DUP8 DUP2 SWAP3 DUP12 SLOAD DUP2 MSTORE ADD SWAP10 ADD SWAP2 ADD SWAP1 SWAP8 PUSH2 0x206 JUMP JUMPDEST PUSH1 0x0 DUP1 REVERT JUMPDEST CALLVALUE PUSH2 0x2C8 JUMPI PUSH1 0x20 CALLDATASIZE PUSH1 0x3 NOT ADD SLT PUSH2 0x2C8 JUMPI PUSH1 0x20 PUSH2 0x2EB PUSH1 0x4 CALLDATALOAD PUSH2 0x2020 JUMP JUMPDEST PUSH1 0x40 MLOAD SWAP1 ISZERO ISZERO DUP2 MSTORE RETURN JUMPDEST CALLVALUE PUSH2 0x2C8 JUMPI PUSH1 0x20 CALLDATASIZE PUSH1 0x3 NOT ADD SLT PUSH2 0x2C8 JUMPI PUSH1 0x4 CALLDATALOAD PUSH1 0x0 MSTORE PUSH1 0xC PUSH1 0x20 MSTORE PUSH1 0x20 PUSH1 0x40 PUSH1 0x0 KECCAK256 SLOAD PUSH1 0x40 MLOAD SWAP1 DUP2 MSTORE RETURN JUMPDEST CALLVALUE PUSH2 0x2C8 JUMPI PUSH1 0x40 CALLDATASIZE PUSH1 0x3 NOT ADD SLT PUSH2 0x2C8 JUMPI PUSH2 0x33A PUSH2 0x18DB JUMP JUMPDEST PUSH2 0x342 PUSH2 0x18F1 JUMP JUMPDEST SWAP1 PUSH1 0x1 DUP1 PUSH1 0xA0 SHL SUB DUP1 SWAP2 AND PUSH1 0x0 MSTORE PUSH1 0x5 PUSH1 0x20 MSTORE PUSH1 0x40 PUSH1 0x0 KECCAK256 SWAP2 AND PUSH1 0x0 MSTORE PUSH1 0x20 MSTORE PUSH1 0x20 PUSH1 0xFF PUSH1 0x40 PUSH1 0x0 KECCAK256 SLOAD AND PUSH1 0x40 MLOAD SWAP1 ISZERO ISZERO DUP2 MSTORE RETURN JUMPDEST CALLVALUE PUSH2 0x2C8 JUMPI PUSH1 0x40 CALLDATASIZE PUSH1 0x3 NOT ADD SLT PUSH2 0x2C8 JUMPI PUSH2 0x3B6 PUSH1 0x4 CALLDATALOAD PUSH2 0x396 PUSH2 0x18F1 JUMP JUMPDEST SWAP1 DUP1 PUSH1 0x0 MSTORE PUSH1 0x6 PUSH1 0x20 MSTORE PUSH2 0x3B1 PUSH1 0x1 PUSH1 0x40 PUSH1 0x0 KECCAK256 ADD SLOAD PUSH2 0x1A75 JUMP JUMPDEST PUSH2 0x1B1B JUMP JUMPDEST STOP JUMPDEST CALLVALUE PUSH2 0x2C8 JUMPI PUSH1 0x0 CALLDATASIZE PUSH1 0x3 NOT ADD SLT PUSH2 0x2C8 JUMPI PUSH1 0x20 PUSH1 0x40 MLOAD PUSH32 0x9F2DF0FED2C77648DE5860A4CC508CD0818C85B8B8A1AB4CEEEF8D981C8956A6 DUP2 MSTORE RETURN JUMPDEST CALLVALUE PUSH2 0x2C8 JUMPI PUSH2 0x100 CALLDATASIZE PUSH1 0x3 NOT ADD SLT PUSH2 0x2C8 JUMPI PUSH2 0x40D PUSH2 0x18DB JUMP JUMPDEST CALLDATASIZE PUSH1 0x43 SLT ISZERO PUSH2 0x2C8 JUMPI PUSH1 0x40 MLOAD SWAP1 PUSH2 0x423 DUP3 PUSH2 0x19F3 JUMP JUMPDEST PUSH1 0xA4 DUP3 CALLDATASIZE DUP3 GT PUSH2 0x2C8 JUMPI PUSH1 0x24 SWAP1 JUMPDEST DUP3 DUP3 LT PUSH2 0x99A JUMPI POP POP PUSH1 0xC4 CALLDATALOAD SWAP2 DUP3 ISZERO ISZERO DUP4 SUB PUSH2 0x2C8 JUMPI CALLER PUSH1 0x0 SWAP1 DUP2 MSTORE PUSH32 0x3195C024B2DDD6D9B8F6C836AA52F67FE69376C8903D009B80229B3CE4425F51 PUSH1 0x20 MSTORE PUSH1 0x40 SWAP1 KECCAK256 SLOAD PUSH32 0x9F2DF0FED2C77648DE5860A4CC508CD0818C85B8B8A1AB4CEEEF8D981C8956A6 SWAP1 PUSH1 0xFF AND ISZERO PUSH2 0x97C JUMPI POP PUSH1 0x1 PUSH1 0x1 PUSH1 0xA0 SHL SUB DUP2 AND ISZERO PUSH2 0x93E JUMPI DUP2 CALLDATALOAD ISZERO PUSH2 0x906 JUMPI PUSH1 0x8 SLOAD SWAP3 PUSH2 0x4C4 DUP5 PUSH2 0x1F39 JUMP JUMPDEST PUSH1 0x8 SSTORE PUSH1 0x40 MLOAD PUSH2 0x4D3 DUP2 PUSH2 0x19D7 JUMP JUMPDEST PUSH1 0x0 DUP1 DUP3 MSTORE DUP6 DUP2 MSTORE PUSH1 0x2 PUSH1 0x20 MSTORE PUSH1 0x40 SWAP1 KECCAK256 SLOAD PUSH1 0x1 PUSH1 0x1 PUSH1 0xA0 SHL SUB AND ISZERO DUP1 ISZERO PUSH2 0x8FE JUMPI JUMPDEST ISZERO PUSH2 0x8A1 JUMPI PUSH1 0x0 DUP6 DUP2 MSTORE PUSH1 0x2 PUSH1 0x20 MSTORE PUSH1 0x40 SWAP1 KECCAK256 SLOAD PUSH1 0x1 PUSH1 0x1 PUSH1 0xA0 SHL SUB AND DUP1 ISZERO ISZERO SWAP1 DUP7 SWAP1 DUP3 PUSH2 0x86A JUMPI JUMPDEST PUSH1 0x1 PUSH1 0x1 PUSH1 0xA0 SHL SUB DUP7 AND PUSH1 0x0 DUP2 DUP2 MSTORE PUSH1 0x3 PUSH1 0x20 SWAP1 DUP2 MSTORE PUSH1 0x40 DUP1 DUP4 KECCAK256 DUP1 SLOAD PUSH1 0x1 ADD SWAP1 SSTORE DUP6 DUP4 MSTORE PUSH1 0x2 SWAP1 SWAP2 MSTORE DUP2 KECCAK256 DUP1 SLOAD PUSH1 0x1 PUSH1 0x1 PUSH1 0xA0 SHL SUB NOT AND DUP4 OR SWAP1 SSTORE SWAP1 SWAP2 SWAP1 PUSH32 0xDDF252AD1BE2C89B69C2B068FC378DAA952BA7F163C4A11628F55A4DF523B3EF SWAP1 DUP1 LOG4 PUSH2 0x851 JUMPI DUP3 EXTCODESIZE PUSH2 0x712 JUMPI JUMPDEST POP PUSH1 0x40 MLOAD SWAP5 PUSH2 0x59B DUP7 PUSH2 0x19A5 JUMP JUMPDEST DUP1 DUP7 MSTORE DUP4 CALLDATALOAD PUSH1 0x20 DUP8 ADD MSTORE PUSH1 0x1 DUP1 PUSH1 0xA0 SHL SUB DUP4 AND PUSH1 0x40 DUP8 ADD MSTORE PUSH1 0x0 PUSH1 0x60 DUP8 ADD MSTORE DUP2 ISZERO ISZERO PUSH1 0x80 DUP8 ADD MSTORE TIMESTAMP PUSH1 0xA0 DUP8 ADD MSTORE PUSH1 0xE4 CALLDATALOAD PUSH1 0xC0 DUP8 ADD MSTORE DUP5 PUSH1 0x0 MSTORE PUSH1 0x9 PUSH1 0x20 MSTORE PUSH1 0x40 PUSH1 0x0 KECCAK256 SWAP6 DUP1 MLOAD PUSH1 0x0 JUMPDEST PUSH1 0x4 DUP2 LT PUSH2 0x6FE JUMPI POP POP SWAP3 PUSH32 0x535683C05BFA705555DC0E92F5928B05E7415060B4B8A73B7F369E2D783C3C04 SWAP3 PUSH2 0x6CE PUSH1 0xC0 SWAP4 PUSH1 0x20 SWAP10 PUSH1 0x7 DUP7 DUP10 DUP14 DUP14 SWAP12 ADD MLOAD PUSH1 0x4 DUP6 ADD SSTORE PUSH1 0x5 DUP5 ADD PUSH1 0x1 DUP1 PUSH1 0xA0 SHL SUB PUSH1 0x40 DUP4 ADD MLOAD AND DUP2 SLOAD SWAP1 PUSH1 0xFF PUSH1 0xA0 SHL PUSH1 0x60 DUP6 ADD MLOAD ISZERO ISZERO PUSH1 0xA0 SHL AND SWAP1 PUSH1 0xFF PUSH1 0xA8 SHL PUSH1 0x80 DUP7 ADD MLOAD ISZERO ISZERO PUSH1 0xA8 SHL AND SWAP3 PUSH10 0xFFFFFFFFFFFFFFFFFFFF PUSH1 0xB0 SHL AND OR OR OR SWAP1 SSTORE PUSH1 0xA0 DUP2 ADD MLOAD PUSH1 0x6 DUP6 ADD SSTORE ADD MLOAD SWAP2 ADD SSTORE PUSH1 0x1 DUP1 PUSH1 0xA0 SHL SUB DUP5 AND PUSH1 0x0 MSTORE PUSH1 0xA DUP11 MSTORE PUSH2 0x69F DUP8 PUSH1 0x40 PUSH1 0x0 KECCAK256 PUSH2 0x1F5E JUMP JUMPDEST DUP8 CALLDATALOAD PUSH1 0x0 MSTORE PUSH1 0xB DUP11 MSTORE PUSH2 0x6B6 DUP8 PUSH1 0x40 PUSH1 0x0 KECCAK256 PUSH2 0x1F5E JUMP JUMPDEST PUSH1 0xE4 CALLDATALOAD PUSH2 0x6E8 JUMPI JUMPDEST PUSH1 0x40 MLOAD SWAP8 CALLDATALOAD DUP9 MSTORE DUP10 DUP9 ADD SWAP1 PUSH2 0x1A4D JUMP JUMPDEST ISZERO ISZERO PUSH1 0xA0 DUP7 ADD MSTORE PUSH1 0x1 PUSH1 0x1 PUSH1 0xA0 SHL SUB AND SWAP4 LOG3 PUSH1 0x40 MLOAD SWAP1 DUP2 MSTORE RETURN JUMPDEST PUSH1 0xE4 CALLDATALOAD PUSH1 0x0 MSTORE PUSH1 0xC DUP11 MSTORE DUP7 PUSH1 0x40 PUSH1 0x0 KECCAK256 SSTORE PUSH2 0x6BE JUMP JUMPDEST PUSH1 0x1 SWAP1 PUSH1 0x20 DUP4 MLOAD SWAP4 ADD SWAP3 DUP2 DUP12 ADD SSTORE ADD PUSH2 0x5E4 JUMP JUMPDEST PUSH1 0x40 SWAP6 SWAP5 SWAP4 SWAP3 SWAP6 MLOAD PUSH1 0x20 DUP2 DUP1 PUSH2 0x751 PUSH4 0xA85BD01 PUSH1 0xE1 SHL SWAP6 DUP7 DUP4 MSTORE CALLER PUSH1 0x4 DUP5 ADD MSTORE PUSH1 0x0 PUSH1 0x24 DUP5 ADD MSTORE DUP10 PUSH1 0x44 DUP5 ADD MSTORE PUSH1 0x80 PUSH1 0x64 DUP5 ADD MSTORE PUSH1 0x84 DUP4 ADD SWAP1 PUSH2 0x189B JUMP JUMPDEST SUB DUP2 PUSH1 0x0 PUSH1 0x1 PUSH1 0x1 PUSH1 0xA0 SHL SUB DUP13 AND GAS CALL PUSH1 0x0 SWAP2 DUP2 PUSH2 0x80C JUMPI JUMPDEST POP PUSH2 0x7D2 JUMPI DUP7 RETURNDATASIZE ISZERO PUSH2 0x7CA JUMPI RETURNDATASIZE SWAP1 PUSH2 0x781 DUP3 PUSH2 0x1A31 JUMP JUMPDEST SWAP2 PUSH2 0x78F PUSH1 0x40 MLOAD SWAP4 DUP5 PUSH2 0x1A0F JUMP JUMPDEST DUP3 MSTORE RETURNDATASIZE PUSH1 0x0 PUSH1 0x20 DUP5 ADD RETURNDATACOPY JUMPDEST DUP2 MLOAD SWAP2 DUP3 PUSH2 0x7C3 JUMPI PUSH1 0x40 MLOAD PUSH4 0x32505749 PUSH1 0xE1 SHL DUP2 MSTORE PUSH1 0x1 PUSH1 0x1 PUSH1 0xA0 SHL SUB DUP4 AND PUSH1 0x4 DUP3 ADD MSTORE PUSH1 0x24 SWAP1 REVERT JUMPDEST SWAP1 POP PUSH1 0x20 ADD REVERT JUMPDEST PUSH1 0x60 SWAP1 PUSH2 0x79A JUMP JUMPDEST PUSH4 0xFFFFFFFF PUSH1 0xE0 SWAP8 SWAP5 SWAP6 SWAP7 SWAP8 SHL AND SUB PUSH2 0x7EB JUMPI DUP6 PUSH2 0x58D JUMP JUMPDEST PUSH1 0x40 MLOAD PUSH4 0x32505749 PUSH1 0xE1 SHL DUP2 MSTORE PUSH1 0x1 PUSH1 0x1 PUSH1 0xA0 SHL SUB DUP4 AND PUSH1 0x4 DUP3 ADD MSTORE PUSH1 0x24 SWAP1 REVERT JUMPDEST SWAP1 SWAP2 POP PUSH1 0x20 DUP2 RETURNDATASIZE PUSH1 0x20 GT PUSH2 0x849 JUMPI JUMPDEST DUP2 PUSH2 0x828 PUSH1 0x20 SWAP4 DUP4 PUSH2 0x1A0F JUMP JUMPDEST DUP2 ADD SUB SLT PUSH2 0x2C8 JUMPI MLOAD PUSH1 0x1 PUSH1 0x1 PUSH1 0xE0 SHL SUB NOT DUP2 AND DUP2 SUB PUSH2 0x2C8 JUMPI SWAP1 DUP9 PUSH2 0x76A JUMP JUMPDEST RETURNDATASIZE SWAP2 POP PUSH2 0x81B JUMP JUMPDEST PUSH1 0x40 MLOAD PUSH4 0x39E35637 PUSH1 0xE1 SHL DUP2 MSTORE PUSH1 0x0 PUSH1 0x4 DUP3 ADD MSTORE PUSH1 0x24 SWAP1 REVERT JUMPDEST PUSH1 0x0 DUP3 DUP2 MSTORE PUSH1 0x4 PUSH1 0x20 MSTORE PUSH1 0x40 SWAP1 KECCAK256 DUP1 SLOAD PUSH1 0x1 PUSH1 0x1 PUSH1 0xA0 SHL SUB NOT AND SWAP1 SSTORE DUP1 PUSH1 0x0 MSTORE PUSH1 0x3 PUSH1 0x20 MSTORE PUSH1 0x40 PUSH1 0x0 KECCAK256 PUSH1 0x0 NOT DUP2 SLOAD ADD SWAP1 SSTORE PUSH2 0x51F JUMP JUMPDEST PUSH1 0x40 MLOAD PUSH3 0x461BCD PUSH1 0xE5 SHL DUP2 MSTORE PUSH1 0x20 PUSH1 0x4 DUP3 ADD MSTORE PUSH1 0x2F PUSH1 0x24 DUP3 ADD MSTORE PUSH32 0x5469636B6574732061726520736F756C626F756E6420616E642063616E6E6F74 PUSH1 0x44 DUP3 ADD MSTORE PUSH15 0x81899481D1C985B9CD9995C9C9959 PUSH1 0x8A SHL PUSH1 0x64 DUP3 ADD MSTORE PUSH1 0x84 SWAP1 REVERT JUMPDEST POP PUSH1 0x0 PUSH2 0x4F6 JUMP JUMPDEST PUSH1 0x40 MLOAD PUSH3 0x461BCD PUSH1 0xE5 SHL DUP2 MSTORE PUSH1 0x20 PUSH1 0x4 DUP3 ADD MSTORE PUSH1 0x10 PUSH1 0x24 DUP3 ADD MSTORE PUSH16 0x125B9D985B1A59081C9BDD5B99081251 PUSH1 0x82 SHL PUSH1 0x44 DUP3 ADD MSTORE PUSH1 0x64 SWAP1 REVERT JUMPDEST PUSH1 0x40 MLOAD PUSH3 0x461BCD PUSH1 0xE5 SHL DUP2 MSTORE PUSH1 0x20 PUSH1 0x4 DUP3 ADD MSTORE PUSH1 0x16 PUSH1 0x24 DUP3 ADD MSTORE PUSH22 0x496E76616C696420706C617965722061646472657373 PUSH1 0x50 SHL PUSH1 0x44 DUP3 ADD MSTORE PUSH1 0x64 SWAP1 REVERT JUMPDEST PUSH1 0x44 SWAP1 PUSH1 0x40 MLOAD SWAP1 PUSH4 0xE2517D3F PUSH1 0xE0 SHL DUP3 MSTORE CALLER PUSH1 0x4 DUP4 ADD MSTORE PUSH1 0x24 DUP3 ADD MSTORE REVERT JUMPDEST DUP2 CALLDATALOAD DUP2 MSTORE PUSH1 0x20 SWAP2 DUP3 ADD SWAP2 ADD PUSH2 0x431 JUMP JUMPDEST CALLVALUE PUSH2 0x2C8 JUMPI PUSH1 0x40 CALLDATASIZE PUSH1 0x3 NOT ADD SLT PUSH2 0x2C8 JUMPI PUSH2 0x9C3 PUSH2 0x18DB JUMP JUMPDEST PUSH1 0x24 CALLDATALOAD SWAP1 PUSH1 0x1 DUP1 PUSH1 0xA0 SHL SUB AND PUSH1 0x0 MSTORE PUSH1 0x20 SWAP1 PUSH1 0xA DUP3 MSTORE PUSH1 0x40 PUSH1 0x0 KECCAK256 SWAP2 PUSH1 0x40 MLOAD DUP1 DUP5 DUP4 DUP3 SWAP7 SLOAD SWAP4 DUP5 DUP2 MSTORE ADD SWAP1 PUSH1 0x0 MSTORE DUP4 PUSH1 0x0 KECCAK256 SWAP3 PUSH1 0x0 JUMPDEST DUP6 DUP3 DUP3 LT PUSH2 0xB11 JUMPI POP POP POP PUSH2 0xA10 SWAP3 POP SUB DUP5 PUSH2 0x1A0F JUMP JUMPDEST PUSH1 0x0 SWAP1 PUSH1 0x0 JUMPDEST DUP5 MLOAD DUP2 LT ISZERO PUSH2 0xA7D JUMPI PUSH2 0xA29 DUP2 DUP7 PUSH2 0x210C JUMP JUMPDEST MLOAD DUP1 PUSH1 0x0 MSTORE PUSH1 0x9 DUP4 MSTORE DUP5 PUSH1 0x4 PUSH1 0x40 PUSH1 0x0 KECCAK256 ADD SLOAD EQ SWAP1 DUP2 PUSH2 0xA6D JUMPI JUMPDEST POP PUSH2 0xA58 JUMPI JUMPDEST PUSH2 0xA53 SWAP1 PUSH2 0x1F39 JUMP JUMPDEST PUSH2 0xA16 JUMP JUMPDEST SWAP2 PUSH2 0xA65 PUSH2 0xA53 SWAP2 PUSH2 0x1F39 JUMP JUMPDEST SWAP3 SWAP1 POP PUSH2 0xA4A JUMP JUMPDEST PUSH2 0xA77 SWAP2 POP PUSH2 0x2020 JUMP JUMPDEST DUP7 PUSH2 0xA44 JUMP JUMPDEST POP SWAP1 PUSH2 0xA88 SWAP1 PUSH2 0x2138 JUMP JUMPDEST SWAP1 PUSH1 0x0 SWAP1 PUSH1 0x0 JUMPDEST DUP6 MLOAD DUP2 LT ISZERO PUSH2 0xAFF JUMPI PUSH2 0xAA2 DUP2 DUP8 PUSH2 0x210C JUMP JUMPDEST MLOAD DUP1 PUSH1 0x0 MSTORE PUSH1 0x9 DUP4 MSTORE DUP6 PUSH1 0x4 PUSH1 0x40 PUSH1 0x0 KECCAK256 ADD SLOAD EQ DUP1 PUSH2 0xAF0 JUMPI JUMPDEST PUSH2 0xAD0 JUMPI JUMPDEST POP PUSH2 0xACB SWAP1 PUSH2 0x1F39 JUMP JUMPDEST PUSH2 0xA8F JUMP JUMPDEST DUP4 PUSH2 0xAE9 SWAP2 PUSH2 0xAE3 PUSH2 0xACB SWAP5 SWAP7 DUP9 PUSH2 0x210C JUMP JUMPDEST MSTORE PUSH2 0x1F39 JUMP JUMPDEST SWAP3 SWAP1 PUSH2 0xAC1 JUMP JUMPDEST POP PUSH2 0xAFA DUP2 PUSH2 0x2020 JUMP JUMPDEST PUSH2 0xABC JUMP JUMPDEST PUSH1 0x40 MLOAD DUP1 PUSH2 0xB0D DUP7 DUP3 PUSH2 0x193C JUMP JUMPDEST SUB SWAP1 RETURN JUMPDEST DUP6 SLOAD DUP5 MSTORE PUSH1 0x1 SWAP6 DUP7 ADD SWAP6 DUP10 SWAP6 POP SWAP4 ADD SWAP3 ADD PUSH2 0x9F9 JUMP JUMPDEST CALLVALUE PUSH2 0x2C8 JUMPI PUSH1 0x20 CALLDATASIZE PUSH1 0x3 NOT ADD SLT PUSH2 0x2C8 JUMPI PUSH2 0xB43 PUSH1 0x4 CALLDATALOAD PUSH2 0x1DAF JUMP JUMPDEST POP PUSH1 0x0 PUSH1 0x40 MLOAD PUSH2 0xB52 DUP2 PUSH2 0x19D7 JUMP JUMPDEST MSTORE PUSH2 0xB0D PUSH1 0x40 MLOAD PUSH2 0xB62 DUP2 PUSH2 0x19D7 JUMP JUMPDEST PUSH1 0x0 DUP2 MSTORE PUSH1 0x40 MLOAD SWAP2 DUP3 SWAP2 PUSH1 0x20 DUP4 MSTORE PUSH1 0x20 DUP4 ADD SWAP1 PUSH2 0x189B JUMP JUMPDEST CALLVALUE PUSH2 0x2C8 JUMPI PUSH1 0x80 CALLDATASIZE PUSH1 0x3 NOT ADD SLT PUSH2 0x2C8 JUMPI PUSH2 0xB93 PUSH2 0x18DB JUMP JUMPDEST PUSH2 0xB9B PUSH2 0x18F1 JUMP JUMPDEST SWAP1 PUSH1 0x44 CALLDATALOAD PUSH1 0x64 CALLDATALOAD SWAP3 PUSH8 0xFFFFFFFFFFFFFFFF DUP5 GT PUSH2 0x2C8 JUMPI CALLDATASIZE PUSH1 0x23 DUP6 ADD SLT ISZERO PUSH2 0x2C8 JUMPI DUP4 PUSH1 0x4 ADD CALLDATALOAD SWAP3 PUSH2 0xBCC DUP5 PUSH2 0x1A31 JUMP JUMPDEST SWAP4 PUSH2 0xBDA PUSH1 0x40 MLOAD SWAP6 DUP7 PUSH2 0x1A0F JUMP JUMPDEST DUP1 DUP6 MSTORE CALLDATASIZE PUSH1 0x24 DUP3 DUP9 ADD ADD GT PUSH2 0x2C8 JUMPI PUSH1 0x20 DUP2 PUSH1 0x0 SWAP3 PUSH1 0x24 PUSH2 0x3B6 SWAP10 ADD DUP4 DUP10 ADD CALLDATACOPY DUP7 ADD ADD MSTORE PUSH2 0xC09 DUP4 DUP4 DUP4 PUSH2 0x1B92 JUMP JUMPDEST CALLER PUSH2 0x1DEA JUMP JUMPDEST CALLVALUE PUSH2 0x2C8 JUMPI PUSH1 0x40 CALLDATASIZE PUSH1 0x3 NOT ADD SLT PUSH2 0x2C8 JUMPI PUSH2 0xC28 PUSH2 0x18DB JUMP JUMPDEST PUSH1 0x24 CALLDATALOAD SWAP1 DUP2 ISZERO ISZERO DUP1 SWAP3 SUB PUSH2 0x2C8 JUMPI PUSH1 0x1 PUSH1 0x1 PUSH1 0xA0 SHL SUB AND SWAP1 DUP2 ISZERO PUSH2 0xC9B JUMPI CALLER PUSH1 0x0 MSTORE PUSH1 0x5 PUSH1 0x20 MSTORE PUSH1 0x40 PUSH1 0x0 KECCAK256 DUP3 PUSH1 0x0 MSTORE PUSH1 0x20 MSTORE PUSH1 0x40 PUSH1 0x0 KECCAK256 PUSH1 0xFF NOT DUP2 SLOAD AND PUSH1 0xFF DUP4 AND OR SWAP1 SSTORE PUSH1 0x40 MLOAD SWAP1 DUP2 MSTORE PUSH32 0x17307EAB39AB6107E8899845AD3D59BD9653F200F220920489CA2B5937696C31 PUSH1 0x20 CALLER SWAP3 LOG3 STOP JUMPDEST PUSH1 0x40 MLOAD PUSH4 0xB611743 PUSH1 0xE3 SHL DUP2 MSTORE PUSH1 0x4 DUP2 ADD DUP4 SWAP1 MSTORE PUSH1 0x24 SWAP1 REVERT JUMPDEST CALLVALUE PUSH2 0x2C8 JUMPI PUSH1 0x0 CALLDATASIZE PUSH1 0x3 NOT ADD SLT PUSH2 0x2C8 JUMPI PUSH1 0x20 PUSH1 0x40 MLOAD PUSH1 0x0 DUP2 MSTORE RETURN JUMPDEST CALLVALUE PUSH2 0x2C8 JUMPI PUSH1 0x0 CALLDATASIZE PUSH1 0x3 NOT ADD SLT PUSH2 0x2C8 JUMPI PUSH1 0x40 MLOAD PUSH1 0x0 PUSH1 0x1 SWAP1 DUP2 SLOAD SWAP2 DUP3 DUP2 SHR SWAP2 DUP2 DUP5 AND SWAP2 DUP3 ISZERO PUSH2 0xDD1 JUMPI JUMPDEST PUSH1 0x20 SWAP5 DUP6 DUP6 LT DUP5 EQ PUSH2 0xDBB JUMPI DUP6 DUP8 SWAP5 DUP7 DUP7 MSTORE SWAP2 DUP3 PUSH1 0x0 EQ PUSH2 0xD9B JUMPI POP POP PUSH1 0x1 EQ PUSH2 0xD41 JUMPI JUMPDEST POP PUSH2 0xD2D SWAP3 POP SUB DUP4 PUSH2 0x1A0F JUMP JUMPDEST PUSH2 0xB0D PUSH1 0x40 MLOAD SWAP3 DUP3 DUP5 SWAP4 DUP5 MSTORE DUP4 ADD SWAP1 PUSH2 0x189B JUMP JUMPDEST PUSH1 0x0 DUP2 DUP2 MSTORE DUP6 SWAP3 POP SWAP1 PUSH32 0xB10E2D527612073B26EECDFD717E6A320CF44B4AFAC2B0732D9FCBE2B7FA0CF6 JUMPDEST DUP6 DUP4 LT PUSH2 0xD83 JUMPI POP POP PUSH2 0xD2D SWAP4 POP DUP3 ADD ADD DUP6 PUSH2 0xD20 JUMP JUMPDEST DUP1 SLOAD DUP4 DUP10 ADD DUP6 ADD MSTORE DUP8 SWAP5 POP DUP7 SWAP4 SWAP1 SWAP3 ADD SWAP2 DUP2 ADD PUSH2 0xD6C JUMP JUMPDEST PUSH1 0xFF NOT AND DUP6 DUP3 ADD MSTORE PUSH2 0xD2D SWAP6 ISZERO ISZERO PUSH1 0x5 SHL DUP6 ADD ADD SWAP3 POP DUP8 SWAP2 POP PUSH2 0xD20 SWAP1 POP JUMP JUMPDEST PUSH4 0x4E487B71 PUSH1 0xE0 SHL PUSH1 0x0 MSTORE PUSH1 0x22 PUSH1 0x4 MSTORE PUSH1 0x24 PUSH1 0x0 REVERT JUMPDEST SWAP3 PUSH1 0x7F AND SWAP3 PUSH2 0xCFB JUMP JUMPDEST CALLVALUE PUSH2 0x2C8 JUMPI PUSH1 0x40 CALLDATASIZE PUSH1 0x3 NOT ADD SLT PUSH2 0x2C8 JUMPI PUSH2 0xDF4 PUSH2 0x18F1 JUMP JUMPDEST PUSH1 0x4 CALLDATALOAD PUSH1 0x0 MSTORE PUSH1 0x6 PUSH1 0x20 MSTORE PUSH1 0x40 PUSH1 0x0 KECCAK256 SWAP1 PUSH1 0x1 DUP1 PUSH1 0xA0 SHL SUB AND PUSH1 0x0 MSTORE PUSH1 0x20 MSTORE PUSH1 0x20 PUSH1 0xFF PUSH1 0x40 PUSH1 0x0 KECCAK256 SLOAD AND PUSH1 0x40 MLOAD SWAP1 ISZERO ISZERO DUP2 MSTORE RETURN JUMPDEST CALLVALUE PUSH2 0x2C8 JUMPI PUSH1 0x40 CALLDATASIZE PUSH1 0x3 NOT ADD SLT PUSH2 0x2C8 JUMPI PUSH1 0x24 CALLDATALOAD PUSH1 0x4 CALLDATALOAD PUSH1 0x0 MSTORE PUSH1 0xB PUSH1 0x20 MSTORE PUSH1 0x40 PUSH1 0x0 KECCAK256 DUP1 SLOAD DUP3 LT ISZERO PUSH2 0x2C8 JUMPI PUSH1 0x20 SWAP2 PUSH2 0xE61 SWAP2 PUSH2 0x1977 JUMP JUMPDEST SWAP1 SLOAD PUSH1 0x40 MLOAD SWAP2 PUSH1 0x3 SHL SHR DUP2 MSTORE RETURN JUMPDEST CALLVALUE PUSH2 0x2C8 JUMPI PUSH1 0x20 CALLDATASIZE PUSH1 0x3 NOT ADD SLT PUSH2 0x2C8 JUMPI PUSH1 0x1 PUSH1 0x1 PUSH1 0xA0 SHL SUB PUSH2 0xE90 PUSH2 0x18DB JUMP JUMPDEST AND DUP1 ISZERO PUSH2 0xEAF JUMPI PUSH1 0x0 MSTORE PUSH1 0x3 PUSH1 0x20 MSTORE PUSH1 0x20 PUSH1 0x40 PUSH1 0x0 KECCAK256 SLOAD PUSH1 0x40 MLOAD SWAP1 DUP2 MSTORE RETURN JUMPDEST PUSH1 0x40 MLOAD PUSH4 0x22718AD9 PUSH1 0xE2 SHL DUP2 MSTORE PUSH1 0x0 PUSH1 0x4 DUP3 ADD MSTORE PUSH1 0x24 SWAP1 REVERT JUMPDEST CALLVALUE PUSH2 0x2C8 JUMPI PUSH1 0x20 CALLDATASIZE PUSH1 0x3 NOT ADD SLT PUSH2 0x2C8 JUMPI PUSH1 0x20 PUSH2 0xEE6 PUSH1 0x4 CALLDATALOAD PUSH2 0x1DAF JUMP JUMPDEST PUSH1 0x40 MLOAD PUSH1 0x1 PUSH1 0x1 PUSH1 0xA0 SHL SUB SWAP1 SWAP2 AND DUP2 MSTORE RETURN JUMPDEST CALLVALUE PUSH2 0x2C8 JUMPI PUSH1 0x20 CALLDATASIZE PUSH1 0x3 NOT ADD SLT PUSH2 0x2C8 JUMPI PUSH1 0x4 CALLDATALOAD PUSH1 0x0 MSTORE PUSH1 0x9 PUSH1 0x20 MSTORE PUSH1 0xC0 PUSH1 0x40 PUSH1 0x0 KECCAK256 PUSH1 0x4 DUP2 ADD SLOAD SWAP1 PUSH1 0x5 DUP2 ADD SLOAD SWAP1 PUSH1 0xFF PUSH1 0x7 PUSH1 0x6 DUP4 ADD SLOAD SWAP3 ADD SLOAD SWAP3 PUSH1 0x40 MLOAD SWAP5 DUP6 MSTORE PUSH1 0x1 DUP1 PUSH1 0xA0 SHL SUB DUP2 AND PUSH1 0x20 DUP7 ADD MSTORE DUP2 DUP2 PUSH1 0xA0 SHR AND ISZERO ISZERO PUSH1 0x40 DUP7 ADD MSTORE PUSH1 0xA8 SHR AND ISZERO ISZERO PUSH1 0x60 DUP5 ADD MSTORE PUSH1 0x80 DUP4 ADD MSTORE PUSH1 0xA0 DUP3 ADD MSTORE RETURN JUMPDEST CALLVALUE PUSH2 0x2C8 JUMPI PUSH1 0x20 DUP1 PUSH1 0x3 NOT CALLDATASIZE ADD SLT PUSH2 0x2C8 JUMPI PUSH1 0x4 CALLDATALOAD SWAP1 PUSH32 0x98121A24191E1FB000610027F4E133F798A7A0273DC182E08F2925D985A104CC PUSH1 0x0 MSTORE PUSH1 0x6 DUP2 MSTORE PUSH1 0x40 PUSH1 0x0 KECCAK256 CALLER PUSH1 0x0 MSTORE DUP2 MSTORE PUSH1 0xFF SWAP2 PUSH2 0xFC8 DUP4 PUSH1 0x40 PUSH1 0x0 KECCAK256 SLOAD AND PUSH2 0x1F98 JUMP JUMPDEST DUP1 PUSH1 0x0 MSTORE PUSH1 0xB DUP3 MSTORE PUSH1 0x40 PUSH1 0x0 KECCAK256 SWAP2 PUSH1 0x40 MLOAD DUP1 DUP5 DUP4 DUP3 SWAP7 SLOAD SWAP4 DUP5 DUP2 MSTORE ADD SWAP1 PUSH1 0x0 MSTORE DUP4 PUSH1 0x0 KECCAK256 SWAP3 PUSH1 0x0 JUMPDEST DUP6 DUP3 DUP3 LT PUSH2 0x11F4 JUMPI POP POP POP PUSH2 0x1007 SWAP3 POP SUB DUP5 PUSH2 0x1A0F JUMP JUMPDEST PUSH1 0x0 JUMPDEST DUP4 MLOAD DUP2 LT ISZERO PUSH2 0x3B6 JUMPI PUSH2 0x101D DUP2 DUP6 PUSH2 0x210C JUMP JUMPDEST MLOAD DUP1 PUSH1 0x0 MSTORE PUSH1 0x2 SWAP1 DUP2 DUP5 MSTORE PUSH1 0x1 DUP1 PUSH1 0xA0 SHL SUB DUP1 PUSH1 0x40 PUSH1 0x0 KECCAK256 SLOAD AND ISZERO ISZERO DUP1 PUSH2 0x11E4 JUMPI JUMPDEST DUP1 PUSH2 0x11C7 JUMPI JUMPDEST PUSH2 0x105B JUMPI JUMPDEST POP POP POP PUSH2 0x1056 SWAP1 PUSH2 0x1F39 JUMP JUMPDEST PUSH2 0x100A JUMP JUMPDEST PUSH2 0x1064 DUP3 PUSH2 0x1DAF JUMP JUMPDEST SWAP3 DUP3 PUSH1 0x0 MSTORE DUP1 DUP7 MSTORE DUP2 PUSH1 0x40 PUSH1 0x0 KECCAK256 SLOAD AND ISZERO DUP1 ISZERO PUSH2 0x11BF JUMPI JUMPDEST ISZERO PUSH2 0x1162 JUMPI DUP3 PUSH1 0x0 MSTORE DUP1 DUP7 MSTORE DUP3 PUSH1 0x0 DUP4 PUSH1 0x40 DUP3 KECCAK256 SLOAD AND DUP1 ISZERO SWAP4 DUP5 ISZERO PUSH2 0x112F JUMPI JUMPDEST DUP4 DUP4 MSTORE DUP10 MSTORE PUSH1 0x40 DUP3 KECCAK256 DUP1 SLOAD PUSH1 0x1 PUSH1 0x1 PUSH1 0xA0 SHL SUB NOT AND SWAP1 SSTORE PUSH32 0xDDF252AD1BE2C89B69C2B068FC378DAA952BA7F163C4A11628F55A4DF523B3EF DUP3 DUP1 LOG4 PUSH2 0x1116 JUMPI SWAP1 PUSH32 0xBEEB3D358DDA3AE075433EDFD10345F4FE04F511B474C4FEF26FBD9616DEDC6D DUP6 PUSH2 0x1056 SWAP6 SWAP5 SWAP4 PUSH1 0x40 MLOAD SWAP5 DUP10 DUP7 MSTORE AND SWAP4 LOG3 SWAP1 DUP7 DUP1 PUSH2 0x104A JUMP JUMPDEST PUSH1 0x40 MLOAD PUSH4 0x7E273289 PUSH1 0xE0 SHL DUP2 MSTORE PUSH1 0x4 DUP2 ADD DUP4 SWAP1 MSTORE PUSH1 0x24 SWAP1 REVERT JUMPDEST PUSH1 0x0 DUP5 DUP2 MSTORE PUSH1 0x4 PUSH1 0x20 MSTORE PUSH1 0x40 SWAP1 KECCAK256 DUP1 SLOAD PUSH1 0x1 PUSH1 0x1 PUSH1 0xA0 SHL SUB NOT AND SWAP1 SSTORE DUP2 DUP4 MSTORE PUSH1 0x3 DUP11 MSTORE PUSH1 0x40 DUP4 KECCAK256 DUP4 NOT DUP2 SLOAD ADD SWAP1 SSTORE PUSH2 0x109C JUMP JUMPDEST PUSH1 0x40 MLOAD PUSH3 0x461BCD PUSH1 0xE5 SHL DUP2 MSTORE PUSH1 0x4 DUP2 ADD DUP8 SWAP1 MSTORE PUSH1 0x2F PUSH1 0x24 DUP3 ADD MSTORE PUSH32 0x5469636B6574732061726520736F756C626F756E6420616E642063616E6E6F74 PUSH1 0x44 DUP3 ADD MSTORE PUSH15 0x81899481D1C985B9CD9995C9C9959 PUSH1 0x8A SHL PUSH1 0x64 DUP3 ADD MSTORE PUSH1 0x84 SWAP1 REVERT JUMPDEST POP PUSH1 0x1 PUSH2 0x107C JUMP JUMPDEST POP DUP2 PUSH1 0x0 MSTORE PUSH1 0x9 DUP6 MSTORE DUP8 PUSH1 0x5 PUSH1 0x40 PUSH1 0x0 KECCAK256 ADD SLOAD PUSH1 0xA0 SHR AND ISZERO PUSH2 0x1045 JUMP JUMPDEST POP PUSH2 0x11EE DUP3 PUSH2 0x2020 JUMP JUMPDEST ISZERO PUSH2 0x103F JUMP JUMPDEST DUP6 SLOAD DUP5 MSTORE PUSH1 0x1 SWAP6 DUP7 ADD SWAP6 DUP10 SWAP6 POP SWAP4 ADD SWAP3 ADD PUSH2 0xFF0 JUMP JUMPDEST CALLVALUE PUSH2 0x2C8 JUMPI PUSH1 0x40 CALLDATASIZE PUSH1 0x3 NOT ADD SLT PUSH2 0x2C8 JUMPI PUSH2 0x1223 PUSH2 0x18DB JUMP JUMPDEST PUSH1 0x1 PUSH1 0x1 PUSH1 0xA0 SHL SUB AND PUSH1 0x0 SWAP1 DUP2 MSTORE PUSH1 0xA PUSH1 0x20 MSTORE PUSH1 0x40 SWAP1 KECCAK256 DUP1 SLOAD PUSH1 0x24 CALLDATALOAD SWAP2 SWAP1 DUP3 LT ISZERO PUSH2 0x2C8 JUMPI PUSH1 0x20 SWAP2 PUSH2 0xE61 SWAP2 PUSH2 0x1977 JUMP JUMPDEST CALLVALUE PUSH2 0x2C8 JUMPI PUSH2 0x3B6 PUSH2 0x1265 CALLDATASIZE PUSH2 0x1907 JUMP JUMPDEST SWAP1 PUSH1 0x40 MLOAD SWAP3 PUSH2 0x1273 DUP5 PUSH2 0x19D7 JUMP JUMPDEST PUSH1 0x0 DUP5 MSTORE PUSH2 0xC09 DUP4 DUP4 DUP4 PUSH2 0x1B92 JUMP JUMPDEST CALLVALUE PUSH2 0x2C8 JUMPI PUSH1 0x0 CALLDATASIZE PUSH1 0x3 NOT ADD SLT PUSH2 0x2C8 JUMPI PUSH1 0x20 PUSH1 0x40 MLOAD PUSH32 0x98121A24191E1FB000610027F4E133F798A7A0273DC182E08F2925D985A104CC DUP2 MSTORE RETURN JUMPDEST CALLVALUE PUSH2 0x2C8 JUMPI PUSH1 0x40 CALLDATASIZE PUSH1 0x3 NOT ADD SLT PUSH2 0x2C8 JUMPI PUSH2 0x12D6 PUSH2 0x18F1 JUMP JUMPDEST CALLER PUSH1 0x1 PUSH1 0x1 PUSH1 0xA0 SHL SUB DUP3 AND SUB PUSH2 0x12F2 JUMPI PUSH2 0x3B6 SWAP1 PUSH1 0x4 CALLDATALOAD PUSH2 0x1B1B JUMP JUMPDEST PUSH1 0x40 MLOAD PUSH4 0x334BD919 PUSH1 0xE1 SHL DUP2 MSTORE PUSH1 0x4 SWAP1 REVERT JUMPDEST CALLVALUE PUSH2 0x2C8 JUMPI PUSH1 0x40 CALLDATASIZE PUSH1 0x3 NOT ADD SLT PUSH2 0x2C8 JUMPI PUSH2 0x3B6 PUSH1 0x4 CALLDATALOAD PUSH2 0x1323 PUSH2 0x18F1 JUMP JUMPDEST SWAP1 DUP1 PUSH1 0x0 MSTORE PUSH1 0x6 PUSH1 0x20 MSTORE PUSH2 0x133E PUSH1 0x1 PUSH1 0x40 PUSH1 0x0 KECCAK256 ADD SLOAD PUSH2 0x1A75 JUMP JUMPDEST PUSH2 0x1A9B JUMP JUMPDEST CALLVALUE PUSH2 0x2C8 JUMPI PUSH1 0x20 DUP1 PUSH1 0x3 NOT CALLDATASIZE ADD SLT PUSH2 0x2C8 JUMPI PUSH1 0x4 CALLDATALOAD PUSH32 0x98121A24191E1FB000610027F4E133F798A7A0273DC182E08F2925D985A104CC PUSH1 0x0 MSTORE PUSH1 0x6 DUP3 MSTORE PUSH1 0x40 PUSH1 0x0 KECCAK256 CALLER PUSH1 0x0 MSTORE DUP3 MSTORE PUSH2 0x139C PUSH1 0xFF PUSH1 0x40 PUSH1 0x0 KECCAK256 SLOAD AND PUSH2 0x1F98 JUMP JUMPDEST PUSH1 0x0 DUP2 DUP2 MSTORE PUSH1 0x2 DUP4 MSTORE PUSH1 0x40 SWAP1 KECCAK256 SLOAD PUSH1 0x1 PUSH1 0x1 PUSH1 0xA0 SHL SUB SWAP3 SWAP1 PUSH2 0x13C1 SWAP1 DUP5 AND ISZERO ISZERO PUSH2 0x1FDC JUMP JUMPDEST DUP2 PUSH1 0x0 MSTORE PUSH1 0x9 DUP2 MSTORE PUSH1 0xFF PUSH1 0x5 PUSH1 0x40 PUSH1 0x0 KECCAK256 ADD SLOAD PUSH1 0xA0 SHR AND PUSH2 0x1477 JUMPI PUSH2 0x13E5 DUP3 PUSH2 0x2020 JUMP JUMPDEST ISZERO PUSH2 0x143D JUMPI PUSH1 0x0 DUP3 DUP2 MSTORE PUSH1 0x9 DUP3 MSTORE PUSH1 0x40 DUP1 DUP3 KECCAK256 PUSH1 0x5 ADD DUP1 SLOAD PUSH1 0xFF PUSH1 0xA0 SHL NOT DUP2 AND PUSH1 0x1 PUSH1 0xA0 SHL OR SWAP1 SWAP2 SSTORE SWAP1 MLOAD SWAP2 DUP3 MSTORE SWAP1 SWAP4 AND SWAP3 PUSH32 0x4F9C6210874B14266EA0F64418A0F7403A875226EAE9483F5D9CD7663234DB9A SWAP2 SWAP1 LOG3 STOP JUMPDEST PUSH1 0x64 SWAP1 PUSH1 0x40 MLOAD SWAP1 PUSH3 0x461BCD PUSH1 0xE5 SHL DUP3 MSTORE PUSH1 0x4 DUP3 ADD MSTORE PUSH1 0x13 PUSH1 0x24 DUP3 ADD MSTORE PUSH19 0x151A58DAD95D081A5CC81B9BDD081D985B1A59 PUSH1 0x6A SHL PUSH1 0x44 DUP3 ADD MSTORE REVERT JUMPDEST PUSH1 0x64 SWAP1 PUSH1 0x40 MLOAD SWAP1 PUSH3 0x461BCD PUSH1 0xE5 SHL DUP3 MSTORE PUSH1 0x4 DUP3 ADD MSTORE PUSH1 0x13 PUSH1 0x24 DUP3 ADD MSTORE PUSH19 0x151A58DAD95D08185B1C9958591E481D5CD959 PUSH1 0x6A SHL PUSH1 0x44 DUP3 ADD MSTORE REVERT JUMPDEST CALLVALUE PUSH2 0x2C8 JUMPI PUSH1 0x20 DUP1 PUSH1 0x3 NOT CALLDATASIZE ADD SLT PUSH2 0x2C8 JUMPI PUSH1 0x4 CALLDATALOAD PUSH1 0x0 MSTORE PUSH1 0xB DUP2 MSTORE PUSH1 0x40 PUSH1 0x0 KECCAK256 SWAP1 PUSH1 0x40 MLOAD DUP1 SWAP3 DUP4 SWAP2 DUP4 DUP3 SLOAD SWAP2 DUP3 DUP2 MSTORE ADD SWAP2 PUSH1 0x0 MSTORE DUP4 PUSH1 0x0 KECCAK256 SWAP4 PUSH1 0x0 SWAP1 JUMPDEST DUP3 DUP3 LT PUSH2 0x15B4 JUMPI DUP5 PUSH2 0x1503 DUP2 DUP7 SUB DUP3 PUSH2 0x1A0F JUMP JUMPDEST PUSH1 0x0 DUP1 JUMPDEST DUP3 MLOAD DUP2 LT ISZERO PUSH2 0x154B JUMPI PUSH2 0x1523 PUSH2 0x151D DUP3 DUP6 PUSH2 0x210C JUMP JUMPDEST MLOAD PUSH2 0x2020 JUMP JUMPDEST PUSH2 0x1536 JUMPI JUMPDEST PUSH2 0x1531 SWAP1 PUSH2 0x1F39 JUMP JUMPDEST PUSH2 0x1507 JUMP JUMPDEST SWAP1 PUSH2 0x1543 PUSH2 0x1531 SWAP2 PUSH2 0x1F39 JUMP JUMPDEST SWAP2 SWAP1 POP PUSH2 0x1528 JUMP JUMPDEST POP PUSH2 0x1555 SWAP1 PUSH2 0x2138 JUMP JUMPDEST PUSH1 0x0 SWAP1 PUSH1 0x0 JUMPDEST DUP4 MLOAD DUP2 LT ISZERO PUSH2 0x15A6 JUMPI PUSH2 0x156E DUP2 DUP6 PUSH2 0x210C JUMP JUMPDEST MLOAD PUSH2 0x1578 DUP2 PUSH2 0x2020 JUMP JUMPDEST PUSH2 0x158C JUMPI JUMPDEST POP PUSH2 0x1587 SWAP1 PUSH2 0x1F39 JUMP JUMPDEST PUSH2 0x155B JUMP JUMPDEST DUP4 PUSH2 0x159F SWAP2 PUSH2 0xAE3 PUSH2 0x1587 SWAP5 SWAP7 DUP7 PUSH2 0x210C JUMP JUMPDEST SWAP3 SWAP1 PUSH2 0x157D JUMP JUMPDEST PUSH1 0x40 MLOAD DUP1 PUSH2 0xB0D DUP5 DUP3 PUSH2 0x193C JUMP JUMPDEST DUP6 SLOAD DUP5 MSTORE PUSH1 0x1 SWAP6 DUP7 ADD SWAP6 DUP8 SWAP6 POP SWAP4 DUP2 ADD SWAP4 SWAP1 SWAP2 ADD SWAP1 PUSH2 0x14EF JUMP JUMPDEST CALLVALUE PUSH2 0x2C8 JUMPI PUSH1 0x20 CALLDATASIZE PUSH1 0x3 NOT ADD SLT PUSH2 0x2C8 JUMPI PUSH1 0x4 CALLDATALOAD PUSH1 0x0 MSTORE PUSH1 0x6 PUSH1 0x20 MSTORE PUSH1 0x20 PUSH1 0x1 PUSH1 0x40 PUSH1 0x0 KECCAK256 ADD SLOAD PUSH1 0x40 MLOAD SWAP1 DUP2 MSTORE RETURN JUMPDEST CALLVALUE PUSH2 0x2C8 JUMPI PUSH2 0x3B6 PUSH2 0x160E CALLDATASIZE PUSH2 0x1907 JUMP JUMPDEST SWAP2 PUSH2 0x1B92 JUMP JUMPDEST CALLVALUE PUSH2 0x2C8 JUMPI PUSH1 0x0 CALLDATASIZE PUSH1 0x3 NOT ADD SLT PUSH2 0x2C8 JUMPI PUSH1 0x20 PUSH1 0x8 SLOAD PUSH1 0x40 MLOAD SWAP1 DUP2 MSTORE RETURN JUMPDEST CALLVALUE PUSH2 0x2C8 JUMPI PUSH1 0x40 CALLDATASIZE PUSH1 0x3 NOT ADD SLT PUSH2 0x2C8 JUMPI PUSH2 0x164B PUSH2 0x18DB JUMP JUMPDEST PUSH1 0x24 CALLDATALOAD PUSH2 0x1657 DUP2 PUSH2 0x1DAF JUMP JUMPDEST CALLER ISZERO ISZERO DUP1 PUSH2 0x1706 JUMPI JUMPDEST DUP1 PUSH2 0x16D9 JUMPI JUMPDEST PUSH2 0x16C1 JUMPI PUSH1 0x1 PUSH1 0x1 PUSH1 0xA0 SHL SUB SWAP3 DUP4 AND SWAP3 DUP3 SWAP2 DUP5 SWAP2 AND PUSH32 0x8C5BE1E5EBEC7D5BD14F71427D1E84F3DD0314C0F7B2291E5B200AC8C7C3B925 PUSH1 0x0 DUP1 LOG4 PUSH1 0x0 SWAP1 DUP2 MSTORE PUSH1 0x4 PUSH1 0x20 MSTORE PUSH1 0x40 SWAP1 KECCAK256 DUP1 SLOAD PUSH1 0x1 PUSH1 0x1 PUSH1 0xA0 SHL SUB NOT AND SWAP1 SWAP2 OR SWAP1 SSTORE STOP JUMPDEST PUSH1 0x40 MLOAD PUSH4 0xA9FBF51F PUSH1 0xE0 SHL DUP2 MSTORE CALLER PUSH1 0x4 DUP3 ADD MSTORE PUSH1 0x24 SWAP1 REVERT JUMPDEST POP PUSH1 0x1 DUP1 PUSH1 0xA0 SHL SUB DUP2 AND PUSH1 0x0 MSTORE PUSH1 0x5 PUSH1 0x20 MSTORE PUSH1 0x40 PUSH1 0x0 KECCAK256 CALLER PUSH1 0x0 MSTORE PUSH1 0x20 MSTORE PUSH1 0xFF PUSH1 0x40 PUSH1 0x0 KECCAK256 SLOAD AND ISZERO PUSH2 0x1666 JUMP JUMPDEST POP PUSH1 0x1 PUSH1 0x1 PUSH1 0xA0 SHL SUB DUP2 AND CALLER EQ ISZERO PUSH2 0x1660 JUMP JUMPDEST CALLVALUE PUSH2 0x2C8 JUMPI PUSH1 0x20 CALLDATASIZE PUSH1 0x3 NOT ADD SLT PUSH2 0x2C8 JUMPI PUSH1 0x4 CALLDATALOAD PUSH2 0x1736 DUP2 PUSH2 0x1DAF JUMP JUMPDEST POP PUSH1 0x0 MSTORE PUSH1 0x4 PUSH1 0x20 MSTORE PUSH1 0x20 PUSH1 0x1 DUP1 PUSH1 0xA0 SHL SUB PUSH1 0x40 PUSH1 0x0 KECCAK256 SLOAD AND PUSH1 0x40 MLOAD SWAP1 DUP2 MSTORE RETURN JUMPDEST CALLVALUE PUSH2 0x2C8 JUMPI PUSH1 0x0 CALLDATASIZE PUSH1 0x3 NOT ADD SLT PUSH2 0x2C8 JUMPI PUSH1 0x40 MLOAD PUSH1 0x0 DUP1 SLOAD SWAP1 PUSH1 0x1 DUP3 DUP2 SHR SWAP2 DUP2 DUP5 AND SWAP2 DUP3 ISZERO PUSH2 0x180C JUMPI JUMPDEST PUSH1 0x20 SWAP5 DUP6 DUP6 LT DUP5 EQ PUSH2 0xDBB JUMPI DUP6 DUP8 SWAP5 DUP7 DUP7 MSTORE SWAP2 DUP3 PUSH1 0x0 EQ PUSH2 0xD9B JUMPI POP POP PUSH1 0x1 EQ PUSH2 0x17B2 JUMPI POP PUSH2 0xD2D SWAP3 POP SUB DUP4 PUSH2 0x1A0F JUMP JUMPDEST PUSH1 0x0 DUP1 DUP1 MSTORE DUP6 SWAP3 POP SWAP1 PUSH32 0x290DECD9548B62A8D60345A988386FC84BA6BC95484008F6362F93160EF3E563 JUMPDEST DUP6 DUP4 LT PUSH2 0x17F4 JUMPI POP POP PUSH2 0xD2D SWAP4 POP DUP3 ADD ADD DUP6 PUSH2 0xD20 JUMP JUMPDEST DUP1 SLOAD DUP4 DUP10 ADD DUP6 ADD MSTORE DUP8 SWAP5 POP DUP7 SWAP4 SWAP1 SWAP3 ADD SWAP2 DUP2 ADD PUSH2 0x17DD JUMP JUMPDEST SWAP3 PUSH1 0x7F AND SWAP3 PUSH2 0x1781 JUMP JUMPDEST CALLVALUE PUSH2 0x2C8 JUMPI PUSH1 0x20 CALLDATASIZE PUSH1 0x3 NOT ADD SLT PUSH2 0x2C8 JUMPI PUSH1 0x4 CALLDATALOAD SWAP1 PUSH4 0xFFFFFFFF PUSH1 0xE0 SHL DUP3 AND DUP1 SWAP3 SUB PUSH2 0x2C8 JUMPI PUSH1 0x20 SWAP2 PUSH4 0x7965DB0B PUSH1 0xE0 SHL DUP2 EQ SWAP1 DUP2 ISZERO PUSH2 0x1858 JUMPI JUMPDEST POP ISZERO ISZERO DUP2 MSTORE RETURN JUMPDEST PUSH4 0x80AC58CD PUSH1 0xE0 SHL DUP2 EQ SWAP2 POP DUP2 ISZERO PUSH2 0x188A JUMPI JUMPDEST DUP2 ISZERO PUSH2 0x1879 JUMPI JUMPDEST POP DUP4 PUSH2 0x1851 JUMP JUMPDEST PUSH4 0x1FFC9A7 PUSH1 0xE0 SHL EQ SWAP1 POP DUP4 PUSH2 0x1872 JUMP JUMPDEST PUSH4 0x5B5E139F PUSH1 0xE0 SHL DUP2 EQ SWAP2 POP PUSH2 0x186B JUMP JUMPDEST SWAP2 SWAP1 DUP3 MLOAD SWAP3 DUP4 DUP3 MSTORE PUSH1 0x0 JUMPDEST DUP5 DUP2 LT PUSH2 0x18C7 JUMPI POP POP DUP3 PUSH1 0x0 PUSH1 0x20 DUP1 SWAP5 SWAP6 DUP5 ADD ADD MSTORE PUSH1 0x1F DUP1 NOT SWAP2 ADD AND ADD ADD SWAP1 JUMP JUMPDEST PUSH1 0x20 DUP2 DUP4 ADD DUP2 ADD MLOAD DUP5 DUP4 ADD DUP3 ADD MSTORE ADD PUSH2 0x18A6 JUMP JUMPDEST PUSH1 0x4 CALLDATALOAD SWAP1 PUSH1 0x1 PUSH1 0x1 PUSH1 0xA0 SHL SUB DUP3 AND DUP3 SUB PUSH2 0x2C8 JUMPI JUMP JUMPDEST PUSH1 0x24 CALLDATALOAD SWAP1 PUSH1 0x1 PUSH1 0x1 PUSH1 0xA0 SHL SUB DUP3 AND DUP3 SUB PUSH2 0x2C8 JUMPI JUMP JUMPDEST PUSH1 0x60 SWAP1 PUSH1 0x3 NOT ADD SLT PUSH2 0x2C8 JUMPI PUSH1 0x1 PUSH1 0x1 PUSH1 0xA0 SHL SUB SWAP1 PUSH1 0x4 CALLDATALOAD DUP3 DUP2 AND DUP2 SUB PUSH2 0x2C8 JUMPI SWAP2 PUSH1 0x24 CALLDATALOAD SWAP1 DUP2 AND DUP2 SUB PUSH2 0x2C8 JUMPI SWAP1 PUSH1 0x44 CALLDATALOAD SWAP1 JUMP JUMPDEST PUSH1 0x20 SWAP1 DUP2 PUSH1 0x40 DUP2 DUP4 ADD SWAP3 DUP3 DUP2 MSTORE DUP6 MLOAD DUP1 SWAP5 MSTORE ADD SWAP4 ADD SWAP2 PUSH1 0x0 JUMPDEST DUP3 DUP2 LT PUSH2 0x1963 JUMPI POP POP POP POP SWAP1 JUMP JUMPDEST DUP4 MLOAD DUP6 MSTORE SWAP4 DUP2 ADD SWAP4 SWAP3 DUP2 ADD SWAP3 PUSH1 0x1 ADD PUSH2 0x1955 JUMP JUMPDEST DUP1 SLOAD DUP3 LT ISZERO PUSH2 0x198F JUMPI PUSH1 0x0 MSTORE PUSH1 0x20 PUSH1 0x0 KECCAK256 ADD SWAP1 PUSH1 0x0 SWAP1 JUMP JUMPDEST PUSH4 0x4E487B71 PUSH1 0xE0 SHL PUSH1 0x0 MSTORE PUSH1 0x32 PUSH1 0x4 MSTORE PUSH1 0x24 PUSH1 0x0 REVERT JUMPDEST PUSH1 0xE0 DUP2 ADD SWAP1 DUP2 LT PUSH8 0xFFFFFFFFFFFFFFFF DUP3 GT OR PUSH2 0x19C1 JUMPI PUSH1 0x40 MSTORE JUMP JUMPDEST PUSH4 0x4E487B71 PUSH1 0xE0 SHL PUSH1 0x0 MSTORE PUSH1 0x41 PUSH1 0x4 MSTORE PUSH1 0x24 PUSH1 0x0 REVERT JUMPDEST PUSH1 0x20 DUP2 ADD SWAP1 DUP2 LT PUSH8 0xFFFFFFFFFFFFFFFF DUP3 GT OR PUSH2 0x19C1 JUMPI PUSH1 0x40 MSTORE JUMP JUMPDEST PUSH1 0x80 DUP2 ADD SWAP1 DUP2 LT PUSH8 0xFFFFFFFFFFFFFFFF DUP3 GT OR PUSH2 0x19C1 JUMPI PUSH1 0x40 MSTORE JUMP JUMPDEST SWAP1 PUSH1 0x1F DUP1 NOT SWAP2 ADD AND DUP2 ADD SWAP1 DUP2 LT PUSH8 0xFFFFFFFFFFFFFFFF DUP3 GT OR PUSH2 0x19C1 JUMPI PUSH1 0x40 MSTORE JUMP JUMPDEST PUSH8 0xFFFFFFFFFFFFFFFF DUP2 GT PUSH2 0x19C1 JUMPI PUSH1 0x1F ADD PUSH1 0x1F NOT AND PUSH1 0x20 ADD SWAP1 JUMP JUMPDEST PUSH1 0x0 SWAP2 JUMPDEST PUSH1 0x4 DUP4 LT PUSH2 0x1A5E JUMPI POP POP POP JUMP JUMPDEST PUSH1 0x1 SWAP1 DUP3 MLOAD DUP2 MSTORE PUSH1 0x20 DUP1 SWAP2 ADD SWAP3 ADD SWAP3 ADD SWAP2 SWAP1 PUSH2 0x1A51 JUMP JUMPDEST DUP1 PUSH1 0x0 MSTORE PUSH1 0x6 PUSH1 0x20 MSTORE PUSH1 0x40 PUSH1 0x0 KECCAK256 CALLER PUSH1 0x0 MSTORE PUSH1 0x20 MSTORE PUSH1 0xFF PUSH1 0x40 PUSH1 0x0 KECCAK256 SLOAD AND ISZERO PUSH2 0x97C JUMPI POP JUMP JUMPDEST SWAP1 PUSH1 0x0 SWAP2 DUP1 DUP4 MSTORE PUSH1 0x6 PUSH1 0x20 MSTORE PUSH1 0x40 DUP4 KECCAK256 SWAP2 PUSH1 0x1 DUP1 PUSH1 0xA0 SHL SUB AND SWAP2 DUP3 DUP5 MSTORE PUSH1 0x20 MSTORE PUSH1 0xFF PUSH1 0x40 DUP5 KECCAK256 SLOAD AND ISZERO PUSH1 0x0 EQ PUSH2 0x1B16 JUMPI DUP1 DUP4 MSTORE PUSH1 0x6 PUSH1 0x20 MSTORE PUSH1 0x40 DUP4 KECCAK256 DUP3 DUP5 MSTORE PUSH1 0x20 MSTORE PUSH1 0x40 DUP4 KECCAK256 PUSH1 0x1 PUSH1 0xFF NOT DUP3 SLOAD AND OR SWAP1 SSTORE PUSH32 0x2F8788117E7EFF1D82E926EC794901D17C78024A50270940304540A733656F0D CALLER SWAP4 DUP1 LOG4 PUSH1 0x1 SWAP1 JUMP JUMPDEST POP POP SWAP1 JUMP JUMPDEST SWAP1 PUSH1 0x0 SWAP2 DUP1 DUP4 MSTORE PUSH1 0x6 PUSH1 0x20 MSTORE PUSH1 0x40 DUP4 KECCAK256 SWAP2 PUSH1 0x1 DUP1 PUSH1 0xA0 SHL SUB AND SWAP2 DUP3 DUP5 MSTORE PUSH1 0x20 MSTORE PUSH1 0xFF PUSH1 0x40 DUP5 KECCAK256 SLOAD AND PUSH1 0x0 EQ PUSH2 0x1B16 JUMPI DUP1 DUP4 MSTORE PUSH1 0x6 PUSH1 0x20 MSTORE PUSH1 0x40 DUP4 KECCAK256 DUP3 DUP5 MSTORE PUSH1 0x20 MSTORE PUSH1 0x40 DUP4 KECCAK256 PUSH1 0xFF NOT DUP2 SLOAD AND SWAP1 SSTORE PUSH32 0xF6391F5C32D9C69D2A47EA670B442974B53935D1EDC7FD64EB21E047A839171B CALLER SWAP4 DUP1 LOG4 PUSH1 0x1 SWAP1 JUMP JUMPDEST PUSH1 0x1 PUSH1 0x1 PUSH1 0xA0 SHL SUB SWAP2 DUP3 AND SWAP3 SWAP1 SWAP2 DUP4 ISZERO PUSH2 0x1D96 JUMPI PUSH1 0x0 SWAP3 DUP3 DUP5 MSTORE PUSH1 0x20 SWAP5 PUSH1 0x2 DUP7 MSTORE PUSH1 0x40 SWAP6 DUP4 DUP8 DUP8 KECCAK256 SLOAD AND ISZERO DUP1 ISZERO PUSH2 0x1D8F JUMPI JUMPDEST ISZERO PUSH2 0x1D34 JUMPI SWAP1 DUP5 SWAP2 DUP3 DUP8 MSTORE PUSH1 0x2 DUP2 MSTORE DUP5 DUP9 DUP9 KECCAK256 SLOAD AND SWAP7 DUP8 SWAP2 CALLER ISZERO ISZERO DUP1 PUSH2 0x1C9E JUMPI JUMPDEST POP SWAP1 PUSH1 0x2 PUSH32 0xDDF252AD1BE2C89B69C2B068FC378DAA952BA7F163C4A11628F55A4DF523B3EF SWAP3 DUP5 PUSH2 0x1C6B JUMPI JUMPDEST DUP6 DUP4 MSTORE PUSH1 0x3 DUP2 MSTORE DUP12 DUP4 KECCAK256 DUP1 SLOAD PUSH1 0x1 ADD SWAP1 SSTORE DUP7 DUP4 MSTORE MSTORE DUP10 DUP2 KECCAK256 DUP1 SLOAD PUSH1 0x1 PUSH1 0x1 PUSH1 0xA0 SHL SUB NOT AND DUP6 OR SWAP1 SSTORE DUP1 LOG4 AND SWAP3 DUP4 DUP4 SUB PUSH2 0x1C4A JUMPI POP POP POP POP JUMP JUMPDEST PUSH1 0x64 SWAP5 POP MLOAD SWAP3 PUSH4 0x64283D7B PUSH1 0xE0 SHL DUP5 MSTORE PUSH1 0x4 DUP5 ADD MSTORE PUSH1 0x24 DUP4 ADD MSTORE PUSH1 0x44 DUP3 ADD MSTORE REVERT JUMPDEST PUSH1 0x0 DUP8 DUP2 MSTORE PUSH1 0x4 PUSH1 0x20 MSTORE PUSH1 0x40 SWAP1 KECCAK256 DUP1 SLOAD PUSH1 0x1 PUSH1 0x1 PUSH1 0xA0 SHL SUB NOT AND SWAP1 SSTORE DUP5 DUP4 MSTORE PUSH1 0x3 DUP2 MSTORE DUP12 DUP4 KECCAK256 DUP1 SLOAD PUSH1 0x0 NOT ADD SWAP1 SSTORE PUSH2 0x1C11 JUMP JUMPDEST SWAP2 SWAP4 SWAP5 POP SWAP2 POP DUP1 PUSH2 0x1CF3 JUMPI JUMPDEST ISZERO PUSH2 0x1CBA JUMPI DUP6 SWAP3 SWAP2 DUP8 SWAP2 CODESIZE PUSH2 0x1BE5 JUMP JUMPDEST DUP8 DUP7 DUP9 PUSH2 0x1CD7 JUMPI PUSH1 0x24 SWAP2 MLOAD SWAP1 PUSH4 0x7E273289 PUSH1 0xE0 SHL DUP3 MSTORE PUSH1 0x4 DUP3 ADD MSTORE REVERT JUMPDEST PUSH1 0x44 SWAP2 MLOAD SWAP1 PUSH4 0x177E802F PUSH1 0xE0 SHL DUP3 MSTORE CALLER PUSH1 0x4 DUP4 ADD MSTORE PUSH1 0x24 DUP3 ADD MSTORE REVERT JUMPDEST POP CALLER DUP8 EQ DUP1 ISZERO PUSH2 0x1D18 JUMPI JUMPDEST DUP1 PUSH2 0x1CAA JUMPI POP DUP6 DUP3 MSTORE PUSH1 0x4 DUP2 MSTORE CALLER DUP6 DUP10 DUP5 KECCAK256 SLOAD AND EQ PUSH2 0x1CAA JUMP JUMPDEST POP DUP7 DUP3 MSTORE PUSH1 0x5 DUP2 MSTORE DUP8 DUP3 KECCAK256 CALLER DUP4 MSTORE DUP2 MSTORE PUSH1 0xFF DUP9 DUP4 KECCAK256 SLOAD AND PUSH2 0x1CFE JUMP JUMPDEST PUSH1 0x84 SWAP1 DUP8 MLOAD SWAP1 PUSH3 0x461BCD PUSH1 0xE5 SHL DUP3 MSTORE PUSH1 0x4 DUP3 ADD MSTORE PUSH1 0x2F PUSH1 0x24 DUP3 ADD MSTORE PUSH32 0x5469636B6574732061726520736F756C626F756E6420616E642063616E6E6F74 PUSH1 0x44 DUP3 ADD MSTORE PUSH15 0x81899481D1C985B9CD9995C9C9959 PUSH1 0x8A SHL PUSH1 0x64 DUP3 ADD MSTORE REVERT JUMPDEST POP DUP6 PUSH2 0x1BC4 JUMP JUMPDEST PUSH1 0x40 MLOAD PUSH4 0x32505749 PUSH1 0xE1 SHL DUP2 MSTORE PUSH1 0x0 PUSH1 0x4 DUP3 ADD MSTORE PUSH1 0x24 SWAP1 REVERT JUMPDEST PUSH1 0x0 DUP2 DUP2 MSTORE PUSH1 0x2 PUSH1 0x20 MSTORE PUSH1 0x40 SWAP1 KECCAK256 SLOAD PUSH1 0x1 PUSH1 0x1 PUSH1 0xA0 SHL SUB AND SWAP1 DUP2 ISZERO PUSH2 0x1DD2 JUMPI POP SWAP1 JUMP JUMPDEST PUSH1 0x24 SWAP1 PUSH1 0x40 MLOAD SWAP1 PUSH4 0x7E273289 PUSH1 0xE0 SHL DUP3 MSTORE PUSH1 0x4 DUP3 ADD MSTORE REVERT JUMPDEST SWAP1 SWAP2 SWAP3 DUP4 EXTCODESIZE PUSH2 0x1DFB JUMPI JUMPDEST POP POP POP POP POP JUMP JUMPDEST PUSH1 0x40 MLOAD PUSH4 0xA85BD01 PUSH1 0xE1 SHL DUP1 DUP3 MSTORE PUSH1 0x1 PUSH1 0x1 PUSH1 0xA0 SHL SUB SWAP4 DUP5 AND PUSH1 0x4 DUP4 ADD MSTORE SWAP4 DUP4 AND PUSH1 0x24 DUP3 ADD MSTORE PUSH1 0x44 DUP2 ADD SWAP2 SWAP1 SWAP2 MSTORE PUSH1 0x80 PUSH1 0x64 DUP3 ADD MSTORE PUSH1 0x20 SWAP6 SWAP2 SWAP1 SWAP4 AND SWAP4 SWAP1 SWAP2 SWAP1 DUP4 SWAP1 PUSH2 0x1E4B SWAP1 PUSH1 0x84 DUP4 ADD SWAP1 PUSH2 0x189B JUMP JUMPDEST SUB SWAP3 DUP6 DUP2 PUSH1 0x0 SWAP6 DUP2 DUP8 DUP10 GAS CALL DUP5 SWAP2 DUP2 PUSH2 0x1EF5 JUMPI JUMPDEST POP PUSH2 0x1EBF JUMPI POP POP POP RETURNDATASIZE PUSH1 0x0 EQ PUSH2 0x1EB7 JUMPI RETURNDATASIZE PUSH2 0x1E79 DUP2 PUSH2 0x1A31 JUMP JUMPDEST SWAP1 PUSH2 0x1E87 PUSH1 0x40 MLOAD SWAP3 DUP4 PUSH2 0x1A0F JUMP JUMPDEST DUP2 MSTORE DUP1 SWAP2 DUP5 RETURNDATASIZE SWAP3 ADD RETURNDATACOPY JUMPDEST DUP1 MLOAD SWAP3 DUP4 PUSH2 0x1EB2 JUMPI PUSH1 0x40 MLOAD PUSH4 0x32505749 PUSH1 0xE1 SHL DUP2 MSTORE PUSH1 0x4 DUP2 ADD DUP5 SWAP1 MSTORE PUSH1 0x24 SWAP1 REVERT JUMPDEST ADD SWAP1 POP REVERT JUMPDEST POP PUSH1 0x60 PUSH2 0x1E91 JUMP JUMPDEST SWAP2 SWAP5 POP SWAP2 POP PUSH4 0xFFFFFFFF PUSH1 0xE0 SHL AND SUB PUSH2 0x1EDD JUMPI POP CODESIZE DUP1 DUP1 DUP1 DUP1 PUSH2 0x1DF4 JUMP JUMPDEST PUSH1 0x24 SWAP1 PUSH1 0x40 MLOAD SWAP1 PUSH4 0x32505749 PUSH1 0xE1 SHL DUP3 MSTORE PUSH1 0x4 DUP3 ADD MSTORE REVERT JUMPDEST SWAP1 SWAP2 POP DUP7 DUP2 DUP2 RETURNDATASIZE DUP4 GT PUSH2 0x1F32 JUMPI JUMPDEST PUSH2 0x1F0D DUP2 DUP4 PUSH2 0x1A0F JUMP JUMPDEST DUP2 ADD SUB SLT PUSH2 0x1F2E JUMPI MLOAD PUSH1 0x1 PUSH1 0x1 PUSH1 0xE0 SHL SUB NOT DUP2 AND DUP2 SUB PUSH2 0x1F2E JUMPI SWAP1 CODESIZE PUSH2 0x1E5F JUMP JUMPDEST DUP5 DUP1 REVERT JUMPDEST POP RETURNDATASIZE PUSH2 0x1F03 JUMP JUMPDEST PUSH1 0x0 NOT DUP2 EQ PUSH2 0x1F48 JUMPI PUSH1 0x1 ADD SWAP1 JUMP JUMPDEST PUSH4 0x4E487B71 PUSH1 0xE0 SHL PUSH1 0x0 MSTORE PUSH1 0x11 PUSH1 0x4 MSTORE PUSH1 0x24 PUSH1 0x0 REVERT JUMPDEST DUP1 SLOAD PUSH9 0x10000000000000000 DUP2 LT ISZERO PUSH2 0x19C1 JUMPI PUSH2 0x1F80 SWAP2 PUSH1 0x1 DUP3 ADD DUP2 SSTORE PUSH2 0x1977 JUMP JUMPDEST DUP2 SWAP3 SWAP2 SLOAD SWAP1 PUSH1 0x3 SHL SWAP2 DUP3 SHL SWAP2 PUSH1 0x0 NOT SWAP1 SHL NOT AND OR SWAP1 SSTORE JUMP JUMPDEST ISZERO PUSH2 0x1F9F JUMPI JUMP JUMPDEST PUSH1 0x40 MLOAD PUSH3 0x461BCD PUSH1 0xE5 SHL DUP2 MSTORE PUSH1 0x20 PUSH1 0x4 DUP3 ADD MSTORE PUSH1 0x15 PUSH1 0x24 DUP3 ADD MSTORE PUSH21 0x13DB9B1E481B1BDD1D195C9E4818DBDB9D1C9858DD PUSH1 0x5A SHL PUSH1 0x44 DUP3 ADD MSTORE PUSH1 0x64 SWAP1 REVERT JUMPDEST ISZERO PUSH2 0x1FE3 JUMPI JUMP JUMPDEST PUSH1 0x40 MLOAD PUSH3 0x461BCD PUSH1 0xE5 SHL DUP2 MSTORE PUSH1 0x20 PUSH1 0x4 DUP3 ADD MSTORE PUSH1 0x15 PUSH1 0x24 DUP3 ADD MSTORE PUSH21 0x151A58DAD95D08191BD95CC81B9BDD08195E1A5CDD PUSH1 0x5A SHL PUSH1 0x44 DUP3 ADD MSTORE PUSH1 0x64 SWAP1 REVERT JUMPDEST PUSH1 0x0 SWAP1 DUP2 MSTORE PUSH1 0x2 PUSH1 0x20 SWAP1 DUP2 MSTORE PUSH1 0x40 DUP3 KECCAK256 SLOAD PUSH1 0x1 PUSH1 0x1 PUSH1 0xA0 SHL SUB SWAP1 DUP2 AND ISZERO PUSH2 0x1B16 JUMPI PUSH1 0x9 DUP3 MSTORE PUSH1 0x40 DUP4 KECCAK256 SWAP2 PUSH1 0x40 MLOAD SWAP1 PUSH2 0x2057 DUP3 PUSH2 0x19A5 JUMP JUMPDEST PUSH1 0x40 MLOAD DUP5 DUP7 DUP4 DUP4 JUMPDEST PUSH1 0x4 DUP4 LT PUSH2 0x20F5 JUMPI POP POP POP POP PUSH2 0x2074 DUP2 PUSH2 0x19F3 JUMP JUMPDEST DUP3 MSTORE PUSH1 0x4 DUP5 ADD SLOAD SWAP1 DUP3 ADD MSTORE PUSH1 0x5 DUP4 ADD SLOAD SWAP2 DUP3 AND PUSH1 0x40 DUP3 ADD MSTORE PUSH1 0xFF DUP1 DUP4 PUSH1 0xA0 SHR AND ISZERO ISZERO SWAP3 DUP4 PUSH1 0x60 DUP5 ADD MSTORE PUSH1 0xA8 SHR AND ISZERO ISZERO PUSH1 0x80 DUP3 ADD MSTORE PUSH1 0xC0 PUSH1 0x7 PUSH1 0x6 DUP6 ADD SLOAD SWAP5 DUP6 PUSH1 0xA0 DUP6 ADD MSTORE ADD SLOAD SWAP2 ADD MSTORE PUSH2 0x20F1 JUMPI PUSH3 0x15180 DUP2 ADD DUP1 SWAP2 GT PUSH2 0x20DD JUMPI TIMESTAMP GT PUSH2 0x20DA JUMPI POP PUSH1 0x1 SWAP1 JUMP JUMPDEST SWAP1 JUMP JUMPDEST PUSH4 0x4E487B71 PUSH1 0xE0 SHL DUP3 MSTORE PUSH1 0x11 PUSH1 0x4 MSTORE PUSH1 0x24 DUP3 REVERT JUMPDEST POP SWAP1 JUMP JUMPDEST PUSH1 0x1 SWAP2 DUP3 SWAP2 DUP6 SLOAD DUP2 MSTORE ADD SWAP4 ADD SWAP2 ADD SWAP1 SWAP2 DUP5 SWAP1 PUSH2 0x205F JUMP JUMPDEST DUP1 MLOAD DUP3 LT ISZERO PUSH2 0x198F JUMPI PUSH1 0x20 SWAP2 PUSH1 0x5 SHL ADD ADD SWAP1 JUMP JUMPDEST PUSH8 0xFFFFFFFFFFFFFFFF DUP2 GT PUSH2 0x19C1 JUMPI PUSH1 0x5 SHL PUSH1 0x20 ADD SWAP1 JUMP JUMPDEST SWAP1 PUSH2 0x2142 DUP3 PUSH2 0x2120 JUMP JUMPDEST PUSH2 0x214F PUSH1 0x40 MLOAD SWAP2 DUP3 PUSH2 0x1A0F JUMP JUMPDEST DUP3 DUP2 MSTORE DUP1 SWAP3 PUSH2 0x2160 PUSH1 0x1F NOT SWAP2 PUSH2 0x2120 JUMP JUMPDEST ADD SWAP1 PUSH1 0x20 CALLDATASIZE SWAP2 ADD CALLDATACOPY JUMP INVALID LOG2 PUSH5 0x6970667358 0x22 SLT KECCAK256 DUP4 SWAP16 SWAP9 PUSH9 0xB2FB268C5FC255A4FC SWAP9 CHAINID DUP2 PUSH24 0xD941D4AE557D6AABBE9EBEEBFD35A464736F6C6343000814 STOP CALLER 0x2F DUP8 DUP9 GT PUSH31 0x7EFF1D82E926EC794901D17C78024A50270940304540A733656F0D00000000 "},"methodIdentifiers":{"DEFAULT_ADMIN_ROLE()":"a217fddf","LOTTERY_ROLE()":"38090ec6","MINTER_ROLE()":"d5391393","approve(address,uint256)":"095ea7b3","balanceOf(address)":"70a08231","burnExpiredTickets(uint256)":"4d8b462a","getApproved(uint256)":"081812fc","getPlayerTicketsForRound(address,uint256)":"ca5a3633","getRoleAdmin(bytes32)":"248a9ca3","getRoundValidTickets(uint256)":"2495fa16","getTicketByPayment(bytes32)":"f4b475e0","getTicketInfo(uint256)":"ff99a063","grantRole(bytes32,address)":"2f2ff15d","hasRole(bytes32,address)":"91d14854","isApprovedForAll(address,address)":"e985e9c5","isTicketValid(uint256)":"fb3ae56f","mintTicket(address,uint256[4],uint256,bool,bytes32)":"d28e54f0","name()":"06fdde03","ownerOf(uint256)":"6352211e","paymentToTicket(bytes32)":"2379ba3d","playerTickets(address,uint256)":"44d855f1","renounceRole(bytes32,address)":"36568abe","revokeRole(bytes32,address)":"d547741f","roundTickets(uint256,uint256)":"7169c711","safeTransferFrom(address,address,uint256)":"42842e0e","safeTransferFrom(address,address,uint256,bytes)":"b88d4fde","setApprovalForAll(address,bool)":"a22cb465","supportsInterface(bytes4)":"01ffc9a7","symbol()":"95d89b41","tickets(uint256)":"50b44712","tokenURI(uint256)":"c87b56dd","totalSupply()":"18160ddd","transferFrom(address,address,uint256)":"23b872dd","useTicket(uint256)":"26606448"}}}}}