{"contracts/LottoMojiCoreV2.sol":{"LottoMojiCoreV2":{"abi":[{"inputs":[{"internalType":"uint8","name":"_dailyDrawHourUTC","type":"uint8"},{"internalType":"address","name":"_paymentToken","type":"address"},{"internalType":"uint256","name":"_ticketPrice","type":"uint256"},{"internalType":"address","name":"_vrfCoordinator","type":"address"},{"internalType":"bytes32","name":"_keyHash","type":"bytes32"},{"internalType":"uint64","name":"_subId","type":"uint64"}],"stateMutability":"nonpayable","type":"constructor"},{"inputs":[{"internalType":"address","name":"target","type":"address"}],"name":"AddressEmptyCode","type":"error"},{"inputs":[{"internalType":"address","name":"account","type":"address"}],"name":"AddressInsufficientBalance","type":"error"},{"inputs":[],"name":"AlreadyClaimed","type":"error"},{"inputs":[],"name":"AutomationPaused","type":"error"},{"inputs":[],"name":"BatchOOB","type":"error"},{"inputs":[],"name":"DrawNotReady","type":"error"},{"inputs":[{"internalType":"address","name":"sender","type":"address"},{"internalType":"uint256","name":"tokenId","type":"uint256"},{"internalType":"address","name":"owner","type":"address"}],"name":"ERC721IncorrectOwner","type":"error"},{"inputs":[{"internalType":"address","name":"operator","type":"address"},{"internalType":"uint256","name":"tokenId","type":"uint256"}],"name":"ERC721InsufficientApproval","type":"error"},{"inputs":[{"internalType":"address","name":"approver","type":"address"}],"name":"ERC721InvalidApprover","type":"error"},{"inputs":[{"internalType":"address","name":"operator","type":"address"}],"name":"ERC721InvalidOperator","type":"error"},{"inputs":[{"internalType":"address","name":"owner","type":"address"}],"name":"ERC721InvalidOwner","type":"error"},{"inputs":[{"internalType":"address","name":"receiver","type":"address"}],"name":"ERC721InvalidReceiver","type":"error"},{"inputs":[{"internalType":"address","name":"sender","type":"address"}],"name":"ERC721InvalidSender","type":"error"},{"inputs":[{"internalType":"uint256","name":"tokenId","type":"uint256"}],"name":"ERC721NonexistentToken","type":"error"},{"inputs":[],"name":"EmergencyPaused","type":"error"},{"inputs":[],"name":"FailedInnerCall","type":"error"},{"inputs":[],"name":"InvalidEmoji","type":"error"},{"inputs":[],"name":"InvalidNumbers","type":"error"},{"inputs":[],"name":"NotWinner","type":"error"},{"inputs":[],"name":"NothingToProcess","type":"error"},{"inputs":[{"internalType":"address","name":"have","type":"address"},{"internalType":"address","name":"want","type":"address"}],"name":"OnlyCoordinatorCanFulfill","type":"error"},{"inputs":[{"internalType":"address","name":"have","type":"address"},{"internalType":"address","name":"owner","type":"address"},{"internalType":"address","name":"coordinator","type":"address"}],"name":"OnlyOwnerOrCoordinator","type":"error"},{"inputs":[],"name":"ReentrancyGuardReentrantCall","type":"error"},{"inputs":[{"internalType":"address","name":"token","type":"address"}],"name":"SafeERC20FailedOperation","type":"error"},{"inputs":[],"name":"TooEarly","type":"error"},{"inputs":[],"name":"ZeroAddress","type":"error"},{"anonymous":false,"inputs":[{"indexed":true,"internalType":"address","name":"owner","type":"address"},{"indexed":true,"internalType":"address","name":"approved","type":"address"},{"indexed":true,"internalType":"uint256","name":"tokenId","type":"uint256"}],"name":"Approval","type":"event"},{"anonymous":false,"inputs":[{"indexed":true,"internalType":"address","name":"owner","type":"address"},{"indexed":true,"internalType":"address","name":"operator","type":"address"},{"indexed":false,"internalType":"bool","name":"approved","type":"bool"}],"name":"ApprovalForAll","type":"event"},{"anonymous":false,"inputs":[{"indexed":true,"internalType":"uint24","name":"day","type":"uint24"},{"indexed":false,"internalType":"uint256","name":"fromIndex","type":"uint256"},{"indexed":false,"internalType":"uint256","name":"toIndex","type":"uint256"}],"name":"BatchProcessed","type":"event"},{"anonymous":false,"inputs":[{"indexed":false,"internalType":"address","name":"vrfCoordinator","type":"address"}],"name":"CoordinatorSet","type":"event"},{"anonymous":false,"inputs":[{"indexed":true,"internalType":"uint24","name":"day","type":"uint24"},{"indexed":false,"internalType":"uint8[4]","name":"numbers","type":"uint8[4]"}],"name":"DrawNumbers","type":"event"},{"anonymous":false,"inputs":[{"indexed":true,"internalType":"uint24","name":"nextDay","type":"uint24"},{"indexed":false,"internalType":"uint256","name":"drawTimestamp","type":"uint256"}],"name":"NextDrawScheduled","type":"event"},{"anonymous":false,"inputs":[{"indexed":true,"internalType":"address","name":"from","type":"address"},{"indexed":true,"internalType":"address","name":"to","type":"address"}],"name":"OwnershipTransferRequested","type":"event"},{"anonymous":false,"inputs":[{"indexed":true,"internalType":"address","name":"from","type":"address"},{"indexed":true,"internalType":"address","name":"to","type":"address"}],"name":"OwnershipTransferred","type":"event"},{"anonymous":false,"inputs":[{"indexed":true,"internalType":"uint24","name":"day","type":"uint24"},{"indexed":true,"internalType":"uint256","name":"ticketId","type":"uint256"},{"indexed":false,"internalType":"address","name":"winner","type":"address"},{"indexed":false,"internalType":"uint8","name":"prizeLevel","type":"uint8"},{"indexed":false,"internalType":"uint256","name":"amount","type":"uint256"}],"name":"PrizeClaimed","type":"event"},{"anonymous":false,"inputs":[{"indexed":true,"internalType":"uint24","name":"day","type":"uint24"},{"indexed":false,"internalType":"uint32","name":"firstWinners","type":"uint32"},{"indexed":false,"internalType":"uint32","name":"secondWinners","type":"uint32"},{"indexed":false,"internalType":"uint32","name":"thirdWinners","type":"uint32"}],"name":"PrizesCalculated","type":"event"},{"anonymous":false,"inputs":[{"indexed":true,"internalType":"address","name":"player","type":"address"},{"indexed":true,"internalType":"uint256","name":"ticketId","type":"uint256"},{"indexed":true,"internalType":"uint24","name":"day","type":"uint24"}],"name":"TicketPurchased","type":"event"},{"anonymous":false,"inputs":[{"indexed":true,"internalType":"address","name":"from","type":"address"},{"indexed":true,"internalType":"address","name":"to","type":"address"},{"indexed":true,"internalType":"uint256","name":"tokenId","type":"uint256"}],"name":"Transfer","type":"event"},{"anonymous":false,"inputs":[{"indexed":true,"internalType":"uint256","name":"requestId","type":"uint256"},{"indexed":true,"internalType":"uint24","name":"day","type":"uint24"}],"name":"VRFRequested","type":"event"},{"inputs":[],"name":"CALLBACK_GAS_LIMIT","outputs":[{"internalType":"uint32","name":"","type":"uint32"}],"stateMutability":"view","type":"function"},{"inputs":[],"name":"VRF_NUM_WORDS","outputs":[{"internalType":"uint32","name":"","type":"uint32"}],"stateMutability":"view","type":"function"},{"inputs":[],"name":"VRF_REQUEST_CONFIRMATIONS","outputs":[{"internalType":"uint16","name":"","type":"uint16"}],"stateMutability":"view","type":"function"},{"inputs":[],"name":"acceptOwnership","outputs":[],"stateMutability":"nonpayable","type":"function"},{"inputs":[{"internalType":"address","name":"to","type":"address"},{"internalType":"uint256","name":"tokenId","type":"uint256"}],"name":"approve","outputs":[],"stateMutability":"nonpayable","type":"function"},{"inputs":[],"name":"automationActive","outputs":[{"internalType":"bool","name":"","type":"bool"}],"stateMutability":"view","type":"function"},{"inputs":[{"internalType":"address","name":"owner","type":"address"}],"name":"balanceOf","outputs":[{"internalType":"uint256","name":"","type":"uint256"}],"stateMutability":"view","type":"function"},{"inputs":[{"internalType":"uint8[4]","name":"emojiNumbers","type":"uint8[4]"}],"name":"buyTicket","outputs":[],"stateMutability":"nonpayable","type":"function"},{"inputs":[{"internalType":"bytes","name":"","type":"bytes"}],"name":"checkUpkeep","outputs":[{"internalType":"bool","name":"upkeepNeeded","type":"bool"},{"internalType":"bytes","name":"performData","type":"bytes"}],"stateMutability":"view","type":"function"},{"inputs":[{"internalType":"uint256","name":"ticketId","type":"uint256"}],"name":"claimPrize","outputs":[],"stateMutability":"nonpayable","type":"function"},{"inputs":[],"name":"currentGameDay","outputs":[{"internalType":"uint24","name":"","type":"uint24"}],"stateMutability":"view","type":"function"},{"inputs":[],"name":"dailyDrawHourUTC","outputs":[{"internalType":"uint8","name":"","type":"uint8"}],"stateMutability":"view","type":"function"},{"inputs":[{"internalType":"uint24","name":"","type":"uint24"}],"name":"dayResults","outputs":[{"internalType":"uint32","name":"packedWinningNumbers","type":"uint32"},{"internalType":"uint32","name":"processingIndex","type":"uint32"},{"internalType":"uint32","name":"winnersFirst","type":"uint32"},{"internalType":"uint32","name":"winnersSecond","type":"uint32"},{"internalType":"uint32","name":"winnersThird","type":"uint32"},{"internalType":"bool","name":"fullyProcessed","type":"bool"}],"stateMutability":"view","type":"function"},{"inputs":[],"name":"emergencyPause","outputs":[{"internalType":"bool","name":"","type":"bool"}],"stateMutability":"view","type":"function"},{"inputs":[{"internalType":"uint256","name":"tokenId","type":"uint256"}],"name":"getApproved","outputs":[{"internalType":"address","name":"","type":"address"}],"stateMutability":"view","type":"function"},{"inputs":[{"internalType":"address","name":"owner","type":"address"},{"internalType":"address","name":"operator","type":"address"}],"name":"isApprovedForAll","outputs":[{"internalType":"bool","name":"","type":"bool"}],"stateMutability":"view","type":"function"},{"inputs":[],"name":"name","outputs":[{"internalType":"string","name":"","type":"string"}],"stateMutability":"view","type":"function"},{"inputs":[],"name":"nextDrawTs","outputs":[{"internalType":"uint256","name":"","type":"uint256"}],"stateMutability":"view","type":"function"},{"inputs":[],"name":"owner","outputs":[{"internalType":"address","name":"","type":"address"}],"stateMutability":"view","type":"function"},{"inputs":[{"internalType":"uint256","name":"tokenId","type":"uint256"}],"name":"ownerOf","outputs":[{"internalType":"address","name":"","type":"address"}],"stateMutability":"view","type":"function"},{"inputs":[],"name":"paymentToken","outputs":[{"internalType":"contract IERC20","name":"","type":"address"}],"stateMutability":"view","type":"function"},{"inputs":[{"internalType":"bytes","name":"","type":"bytes"}],"name":"performUpkeep","outputs":[],"stateMutability":"nonpayable","type":"function"},{"inputs":[],"name":"pools","outputs":[{"internalType":"uint256","name":"firstPrize","type":"uint256"},{"internalType":"uint256","name":"secondPrize","type":"uint256"},{"internalType":"uint256","name":"thirdPrize","type":"uint256"},{"internalType":"uint256","name":"devPool","type":"uint256"},{"internalType":"uint256","name":"firstReserve","type":"uint256"},{"internalType":"uint256","name":"secondReserve","type":"uint256"},{"internalType":"uint256","name":"thirdReserve","type":"uint256"}],"stateMutability":"view","type":"function"},{"inputs":[{"internalType":"uint24","name":"day","type":"uint24"},{"internalType":"uint256","name":"batchSize","type":"uint256"}],"name":"processDrawBatch","outputs":[],"stateMutability":"nonpayable","type":"function"},{"inputs":[{"internalType":"uint256","name":"requestId","type":"uint256"},{"internalType":"uint256[]","name":"randomWords","type":"uint256[]"}],"name":"rawFulfillRandomWords","outputs":[],"stateMutability":"nonpayable","type":"function"},{"inputs":[],"name":"resetPendingDrawDay","outputs":[],"stateMutability":"nonpayable","type":"function"},{"inputs":[],"name":"s_vrfCoordinator","outputs":[{"internalType":"contract IVRFCoordinatorV2Plus","name":"","type":"address"}],"stateMutability":"view","type":"function"},{"inputs":[{"internalType":"address","name":"from","type":"address"},{"internalType":"address","name":"to","type":"address"},{"internalType":"uint256","name":"tokenId","type":"uint256"}],"name":"safeTransferFrom","outputs":[],"stateMutability":"nonpayable","type":"function"},{"inputs":[{"internalType":"address","name":"from","type":"address"},{"internalType":"address","name":"to","type":"address"},{"internalType":"uint256","name":"tokenId","type":"uint256"},{"internalType":"bytes","name":"data","type":"bytes"}],"name":"safeTransferFrom","outputs":[],"stateMutability":"nonpayable","type":"function"},{"inputs":[{"internalType":"address","name":"operator","type":"address"},{"internalType":"bool","name":"approved","type":"bool"}],"name":"setApprovalForAll","outputs":[],"stateMutability":"nonpayable","type":"function"},{"inputs":[{"internalType":"address","name":"_vrfCoordinator","type":"address"}],"name":"setCoordinator","outputs":[],"stateMutability":"nonpayable","type":"function"},{"inputs":[{"internalType":"bytes4","name":"interfaceId","type":"bytes4"}],"name":"supportsInterface","outputs":[{"internalType":"bool","name":"","type":"bool"}],"stateMutability":"view","type":"function"},{"inputs":[{"internalType":"address","name":"to","type":"address"}],"name":"sweepDevPool","outputs":[],"stateMutability":"nonpayable","type":"function"},{"inputs":[],"name":"symbol","outputs":[{"internalType":"string","name":"","type":"string"}],"stateMutability":"view","type":"function"},{"inputs":[],"name":"ticketPrice","outputs":[{"internalType":"uint256","name":"","type":"uint256"}],"stateMutability":"view","type":"function"},{"inputs":[{"internalType":"uint256","name":"","type":"uint256"}],"name":"tickets","outputs":[{"internalType":"uint40","name":"purchaseTime","type":"uint40"},{"internalType":"uint24","name":"gameDay","type":"uint24"},{"internalType":"uint32","name":"packedNumbers","type":"uint32"},{"internalType":"bool","name":"claimed","type":"bool"}],"stateMutability":"view","type":"function"},{"inputs":[],"name":"toggleAutomation","outputs":[],"stateMutability":"nonpayable","type":"function"},{"inputs":[],"name":"toggleEmergencyPause","outputs":[],"stateMutability":"nonpayable","type":"function"},{"inputs":[{"internalType":"uint256","name":"tokenId","type":"uint256"}],"name":"tokenURI","outputs":[{"internalType":"string","name":"","type":"string"}],"stateMutability":"view","type":"function"},{"inputs":[{"internalType":"address","name":"from","type":"address"},{"internalType":"address","name":"to","type":"address"},{"internalType":"uint256","name":"tokenId","type":"uint256"}],"name":"transferFrom","outputs":[],"stateMutability":"nonpayable","type":"function"},{"inputs":[{"internalType":"address","name":"to","type":"address"}],"name":"transferOwnership","outputs":[],"stateMutability":"nonpayable","type":"function"},{"inputs":[],"name":"vrfKeyHash","outputs":[{"internalType":"bytes32","name":"","type":"bytes32"}],"stateMutability":"view","type":"function"},{"inputs":[],"name":"vrfSubId","outputs":[{"internalType":"uint64","name":"","type":"uint64"}],"stateMutability":"view","type":"function"}],"evm":{"bytecode":{"linkReferences":{},"object":"610140604052600b805462ffffff19166001908117909155600c8190556017805461ffff191690911790553480156200003757600080fd5b50604051620038bd380380620038bd8339810160408190526200005a91620003a8565b82338060006040518060400160405280601081526020016f131bdd1d1bd35bda9a48151a58dad95d60821b815250604051806040016040528060058152602001644c4d4a544b60d81b8152508160009081620000b79190620004d3565b506001620000c68282620004d3565b50506001600655506001600160a01b0382166200012a5760405162461bcd60e51b815260206004820152601860248201527f43616e6e6f7420736574206f776e657220746f207a65726f000000000000000060448201526064015b60405180910390fd5b600780546001600160a01b0319166001600160a01b03848116919091179091558116156200015d576200015d8162000273565b5050506001600160a01b038116620001885760405163d92e233d60e01b815260040160405180910390fd5b600980546001600160a01b0319166001600160a01b0392909216919091179055601860ff871610620001e75760405162461bcd60e51b81526020600482015260076024820152661a1bdd5c8f0c8d60ca1b604482015260640162000121565b6001600160a01b0380841660e052851660c05260a084905260ff86166080526101208290526001600160401b038116610100526200022642876200031f565b600a819055600b5460405191825262ffffff16907f70aba4eecfb00a70e5aae193521bc256fc3cbf7a91479f6bcda4b5a82f9869619060200160405180910390a250505050505062000631565b336001600160a01b03821603620002cd5760405162461bcd60e51b815260206004820152601760248201527f43616e6e6f74207472616e7366657220746f2073656c66000000000000000000604482015260640162000121565b600880546001600160a01b0319166001600160a01b03838116918217909255600754604051919216907fed8889f560326eb138920d842192f0eb3dd22b4f139c87a2c57538e05bae127890600090a350565b600080620003316201518085620005b5565b905060006200034660ff8516610e10620005d8565b61ffff1662000359836201518062000601565b6200036591906200061b565b905084811162000381576200037e62015180826200061b565b90505b9150505b92915050565b80516001600160a01b0381168114620003a357600080fd5b919050565b60008060008060008060c08789031215620003c257600080fd5b865160ff81168114620003d457600080fd5b9550620003e4602088016200038b565b945060408701519350620003fb606088016200038b565b608088015160a089015191945092506001600160401b03811681146200042057600080fd5b809150509295509295509295565b634e487b7160e01b600052604160045260246000fd5b600181811c908216806200045957607f821691505b6020821081036200047a57634e487b7160e01b600052602260045260246000fd5b50919050565b601f821115620004ce57600081815260208120601f850160051c81016020861015620004a95750805b601f850160051c820191505b81811015620004ca57828155600101620004b5565b5050505b505050565b81516001600160401b03811115620004ef57620004ef6200042e565b620005078162000500845462000444565b8462000480565b602080601f8311600181146200053f5760008415620005265750858301515b600019600386901b1c1916600185901b178555620004ca565b600085815260208120601f198616915b8281101562000570578886015182559484019460019091019084016200054f565b50858210156200058f5787850151600019600388901b60f8161c191681555b5050505050600190811b01905550565b634e487b7160e01b600052601160045260246000fd5b600082620005d357634e487b7160e01b600052601260045260246000fd5b500490565b61ffff818116838216028082169190828114620005f957620005f96200059f565b505092915050565b80820281158282048414176200038557620003856200059f565b808201808211156200038557620003856200059f565b60805160a05160c05160e0516101005161012051613204620006b96000396000818161029b0152611ce70152600081816103fa0152611d1301526000611d8d0152600081816103d3015281816109e201528181610ac7015261162b01526000818161035001528181610aeb015281816115d00152611b2f015260006105aa01526132046000f3fe608060405234801561001057600080fd5b50600436106102695760003560e01c806351858e271161015157806395d89b41116100c3578063c87b56dd11610087578063c87b56dd1461069a578063c8d51919146106ad578063d7098154146106b6578063d96226a2146106c9578063e985e9c514610764578063f2fde38b1461077757600080fd5b806395d89b41146106025780639eccacf61461060a578063a22cb4651461061d578063b88d4fde14610630578063c5c51dca1461064357600080fd5b80636e04ff0d116101155780636e04ff0d1461056957806370a082311461058a57806379ba50971461059d5780638d6ef595146105a55780638da5cb5b146105de5780638ea98117146105ef57600080fd5b806351858e271461051c5780635c900a1a1461052e5780635d58f930146105365780636352211e146105495780636baf4a741461055c57600080fd5b80631fe543e3116101ea57806333d608f1116101ae57806333d608f1146104355780633d4962ed1461045457806342842e0e146104675780634585e33b1461047a5780634f687e911461048d57806350b447121461049557600080fd5b80631fe543e31461039557806323b872dd146103a85780632516f149146103bb5780633013ce29146103ce57806332615640146103f557600080fd5b80630ae58001116102315780630ae58001146103205780630d50cdb9146103285780631209b1f61461034b578063147e291f146103725780631e27580e1461037a57600080fd5b806301ffc9a71461026e578063041d443e1461029657806306fdde03146102cb578063081812fc146102e0578063095ea7b31461030b575b600080fd5b61028161027c366004612af1565b61078a565b60405190151581526020015b60405180910390f35b6102bd7f000000000000000000000000000000000000000000000000000000000000000081565b60405190815260200161028d565b6102d36107dc565b60405161028d9190612b5e565b6102f36102ee366004612b71565b61086e565b6040516001600160a01b03909116815260200161028d565b61031e610319366004612ba6565b610897565b005b61031e6108a6565b600b546103379062ffffff1681565b60405162ffffff909116815260200161028d565b6102bd7f000000000000000000000000000000000000000000000000000000000000000081565b61031e6108bf565b610382600381565b60405161ffff909116815260200161028d565b61031e6103a3366004612bd0565b6108e4565b61031e6103b6366004612c4f565b610939565b61031e6103c9366004612c8b565b6109c4565b6102f37f000000000000000000000000000000000000000000000000000000000000000081565b61041c7f000000000000000000000000000000000000000000000000000000000000000081565b60405167ffffffffffffffff909116815260200161028d565b61043f62d59f8081565b60405163ffffffff909116815260200161028d565b61031e610462366004612ca6565b610a09565b61031e610475366004612c4f565b610c74565b61031e610488366004612cce565b610c8f565b61031e610db5565b6104e36104a3366004612b71565b600d6020526000908152604090205464ffffffffff811690600160281b810462ffffff1690600160401b810463ffffffff1690600160601b900460ff1684565b6040805164ffffffffff909516855262ffffff909316602085015263ffffffff909116918301919091521515606082015260800161028d565b60175461028190610100900460ff1681565b61043f600181565b61031e610544366004612d53565b610dd1565b6102f3610557366004612b71565b611078565b6017546102819060ff1681565b61057c610577366004612cce565b611083565b60405161028d929190612d6f565b6102bd610598366004612c8b565b6110cc565b61031e611114565b6105cc7f000000000000000000000000000000000000000000000000000000000000000081565b60405160ff909116815260200161028d565b6007546001600160a01b03166102f3565b61031e6105fd366004612c8b565b6111c2565b6102d36112b4565b6009546102f3906001600160a01b031681565b61031e61062b366004612d98565b6112c3565b61031e61063e366004612de5565b6112ce565b600f546010546011546012546013546014546015546106659695949392919087565b604080519788526020880196909652948601939093526060850191909152608084015260a083015260c082015260e00161028d565b6102d36106a8366004612b71565b6112e5565b6102bd600a5481565b61031e6106c4366004612b71565b61135a565b6107246106d7366004612ec1565b60166020526000908152604090205463ffffffff808216916401000000008104821691600160401b8204811691600160601b8104821691600160801b82041690600160a01b900460ff1686565b6040805163ffffffff97881681529587166020870152938616938501939093529084166060840152909216608082015290151560a082015260c00161028d565b610281610772366004612edc565b6116b4565b61031e610785366004612c8b565b6116e2565b60006001600160e01b031982166380ac58cd60e01b14806107bb57506001600160e01b03198216635b5e139f60e01b145b806107d657506301ffc9a760e01b6001600160e01b03198316145b92915050565b6060600080546107eb90612f0f565b80601f016020809104026020016040519081016040528092919081815260200182805461081790612f0f565b80156108645780601f1061083957610100808354040283529160200191610864565b820191906000526020600020905b81548152906001019060200180831161084757829003601f168201915b5050505050905090565b6000610879826116f3565b506000828152600460205260409020546001600160a01b03166107d6565b6108a282823361172c565b5050565b6108ae611739565b600b805465ffffff00000019169055565b6108c7611739565b6017805461ff001981166101009182900460ff1615909102179055565b6009546001600160a01b031633146109295760095460405163073e64fd60e21b81523360048201526001600160a01b0390911660248201526044015b60405180910390fd5b61093483838361178e565b505050565b6001600160a01b03821661096357604051633250574960e11b815260006004820152602401610920565b60006109708383336118ef565b9050836001600160a01b0316816001600160a01b0316146109be576040516364283d7b60e01b81526001600160a01b0380861660048301526024820184905282166044820152606401610920565b50505050565b6109cc611739565b6012805460009091556108a26001600160a01b037f00000000000000000000000000000000000000000000000000000000000000001683836119e8565b610a11611a47565b601754610100900460ff1615610a3a57604051634cb3183d60e01b815260040160405180910390fd5b600a544210610a5c5760405163085de62560e01b815260040160405180910390fd5b60005b6004811015610ab9576018828260048110610a7c57610a7c612f43565b602002016020810190610a8f9190612f59565b60ff161115610ab1576040516308214f1760e21b815260040160405180910390fd5b600101610a5f565b50610b0f6001600160a01b037f00000000000000000000000000000000000000000000000000000000000000001633307f0000000000000000000000000000000000000000000000000000000000000000611a71565b600c805460009182610b2083612f92565b919050559050610b303382611aaa565b604080516080808201835264ffffffffff42168252600b5462ffffff166020830152825180820184529192830191610b809186906004908390839080828437600092019190915250611ac4915050565b63ffffffff908116825260006020928301819052848152600d835260408082208551815487870151888501516060909901511515600160601b0260ff60601b1999909716600160401b02989098166cffffffffff00000000000000001962ffffff998a16600160281b0267ffffffffffffffff1990931664ffffffffff9094169390931791909117919091161793909317909255600b805485168252600e8452828220805460018101825590835293822090930185905591549051921691839133917f12eee7f99ea5c9c160467d40a467f18c62607b8d43607d0840f168cc2b55b2e49190a450610c716001600655565b50565b610934838383604051806020016040528060008152506112ce565b60175460ff161580610ca85750601754610100900460ff165b15610cc65760405163fc5eaefd60e01b815260040160405180910390fd5b600a54421015610ce95760405163085de62560e01b815260040160405180910390fd5b600b805465ffffff00000019811662ffffff9091166301000000810291909117909155610d1581611b07565b610d1e81611cdb565b600b805460019190600090610d3990849062ffffff16612fab565b92506101000a81548162ffffff021916908362ffffff16021790555062015180600a6000828254610d6a9190612fce565b9091555050600b54600a5460405190815262ffffff909116907f70aba4eecfb00a70e5aae193521bc256fc3cbf7a91479f6bcda4b5a82f9869619060200160405180910390a2505050565b610dbd611739565b6017805460ff19811660ff90911615179055565b801580610ddf575061012c81115b15610de9575061012c5b62ffffff821660009081526016602052604090208054600160a01b900460ff1615610e2757604051630683f18b60e41b815260040160405180910390fd5b62ffffff83166000908152600e602052604090208154815464010000000090910463ffffffff16908110610e6d576040516204670360e61b815260040160405180910390fd5b6000610e798583612fce565b8354909150811115610e89575081545b815b81811015610ec957610eb9848281548110610ea857610ea8612f43565b906000526020600020015486611e3f565b610ec281612f92565b9050610e8b565b50835467ffffffff00000000191664010000000063ffffffff831602178455604080518381526020810183905262ffffff8816917f95f2647279697d92fbfbd24a0e306c284798157a253e2126ebf1451515f6fbd9910160405180910390a28254810361107057835460ff60a01b1916600160a01b178085556040805163ffffffff600160401b840481168252600160601b840481166020830152600160801b9093049092169082015262ffffff8716907f9094b2b67842abb4391fc6c54030e03d20642491efeb4eda225641eac3b101279060600160405180910390a28354600160401b900463ffffffff1615801590610fc5575060135415155b15610fea57601354600f8054600090610fdf908490612fce565b909155505060006013555b8354600160601b900463ffffffff1615801590611008575060145415155b1561102d5760145460108054600090611022908490612fce565b909155505060006014555b8354600160801b900463ffffffff161580159061104b575060155415155b156110705760155460118054600090611065908490612fce565b909155505060006015555b505050505050565b60006107d6826116f3565b60175460009060609060ff1680156110a35750601754610100900460ff16155b80156110b15750600a544210155b91506040518060200160405280600081525090509250929050565b60006001600160a01b0382166110f8576040516322718ad960e21b815260006004820152602401610920565b506001600160a01b031660009081526003602052604090205490565b6008546001600160a01b031633146111675760405162461bcd60e51b815260206004820152601660248201527526bab9ba10313290383937b837b9b2b21037bbb732b960511b6044820152606401610920565b600780546001600160a01b0319808216339081179093556008805490911690556040516001600160a01b03909116919082907f8be0079c531659141344cd1fd0a4f28419497f9722a3daafe3b4186f6b6457e090600090a350565b6007546001600160a01b031633148015906111e857506009546001600160a01b03163314155b1561123957336112006007546001600160a01b031690565b60095460405163061db9c160e01b81526001600160a01b0393841660048201529183166024830152919091166044820152606401610920565b6001600160a01b0381166112605760405163d92e233d60e01b815260040160405180910390fd5b600980546001600160a01b0319166001600160a01b0383169081179091556040519081527fd1a6a14209a385a964d036e404cb5cfb71f4000cdb03c9366292430787261be69060200160405180910390a150565b6060600180546107eb90612f0f565b6108a2338383612089565b6112d9848484610939565b6109be84848484612128565b60606112f0826116f3565b50600061130860408051602081019091526000815290565b905060008151116113285760405180602001604052806000815250611353565b8061133284612251565b604051602001611343929190612fe1565b6040516020818303038152906040525b9392505050565b611362611a47565b6000818152600d602052604090208054600160601b900460ff161561139a57604051630c8d9eab60e31b815260040160405180910390fd5b336113a483611078565b6001600160a01b0316146113cb576040516330c6392160e11b815260040160405180910390fd5b8054600160281b900462ffffff1660009081526016602052604090208054600160a01b900460ff166114375760405162461bcd60e51b815260206004820152601560248201527419185e481b9bdd081c1c9bd8d95cdcd959081e595d605a1b6044820152606401610920565b815460009061146c9061145690600160401b900463ffffffff166122e4565b83546114679063ffffffff166122e4565b612327565b905060008160ff166001036114e8578254600160401b900463ffffffff166000036114aa576040516330c6392160e11b815260040160405180910390fd5b8254600f546114c691600160401b900463ffffffff1690613026565b905080600f60000160008282546114dd919061303a565b9091555061160d9050565b8160ff16600203611555578254600160601b900463ffffffff16600003611522576040516330c6392160e11b815260040160405180910390fd5b825460105461153e91600160601b900463ffffffff1690613026565b905080600f60010160008282546114dd919061303a565b8160ff166003036115c2578254600160801b900463ffffffff1660000361158f576040516330c6392160e11b815260040160405180910390fd5b82546011546115ab91600160801b900463ffffffff1690613026565b905080600f60020160008282546114dd919061303a565b8160ff166004036115f457507f000000000000000000000000000000000000000000000000000000000000000061160d565b6040516330c6392160e11b815260040160405180910390fd5b835460ff60601b1916600160601b1784556116526001600160a01b037f00000000000000000000000000000000000000000000000000000000000000001633836119e8565b83546040805133815260ff851660208201529081018390528691600160281b900462ffffff16907ffa7d7e6fad77bb2eb32e03cd3103bcb3df591ea9338a7395a149d9c180a170c79060600160405180910390a350505050610c716001600655565b6001600160a01b03918216600090815260056020908152604080832093909416825291909152205460ff1690565b6116ea611739565b610c71816124cc565b6000818152600260205260408120546001600160a01b0316806107d657604051637e27328960e01b815260048101849052602401610920565b6109348383836001612576565b6007546001600160a01b0316331461178c5760405162461bcd60e51b815260206004820152601660248201527527b7363c9031b0b63630b1363290313c9037bbb732b960511b6044820152606401610920565b565b600b546301000000900462ffffff16600081815260166020526040812090848482816117bc576117bc612f43565b905060200201359050600060405180608001604052806019846117df919061304d565b60ff1681526020016117f66019600886901c61304d565b60ff16815260200161180d6019601086901c61304d565b60ff1681526020016118246019601886901c61304d565b60ff16905290506118728160006018826003602002015160ff16901b6010836002602002015160ff16901b6008846001602002015160ff16901b846000602002015160ff1617171792915050565b835474ff000000000000000000000000ffffffffffffffff191663ffffffff91909116178355600b805465ffffff0000001916905560405162ffffff8516907f9dedf238b51cb2f65e712b6f39ab9f3e89a6268d251b582c9ceec37e6ddfba63906118de908490613061565b60405180910390a250505050505050565b6000828152600260205260408120546001600160a01b039081169083161561191c5761191c81848661267c565b6001600160a01b0381161561195a57611939600085600080612576565b6001600160a01b038116600090815260036020526040902080546000190190555b6001600160a01b03851615611989576001600160a01b0385166000908152600360205260409020805460010190555b60008481526002602052604080822080546001600160a01b0319166001600160a01b0389811691821790925591518793918516917fddf252ad1be2c89b69c2b068fc378daa952ba7f163c4a11628f55a4df523b3ef91a4949350505050565b6040516001600160a01b0383811660248301526044820183905261093491859182169063a9059cbb906064015b604051602081830303815290604052915060e01b6020820180516001600160e01b0383818316178352505050506126e0565b600260065403611a6a57604051633ee5aeb560e01b815260040160405180910390fd5b6002600655565b6040516001600160a01b0384811660248301528381166044830152606482018390526109be9186918216906323b872dd90608401611a15565b6108a2828260405180602001604052806000815250612743565b60006018826003602002015160ff16901b6010836002602002015160ff16901b6008846001602002015160ff16901b846000602002015160ff1617171792915050565b62ffffff81166000908152600e602052604081205490819003611b28575050565b6000611b547f000000000000000000000000000000000000000000000000000000000000000083613095565b905060006064611b65605084613095565b611b6f9190613026565b905060006064611b80601485613095565b611b8a9190613026565b90506064611b99605084613095565b611ba39190613026565b600f8054600090611bb5908490612fce565b9091555060649050611bc8600a84613095565b611bd29190613026565b60108054600090611be4908490612fce565b9091555060649050611bf7600584613095565b611c019190613026565b60118054600090611c13908490612fce565b9091555060649050611c26600584613095565b611c309190613026565b60128054600090611c42908490612fce565b9091555060649050611c55605083613095565b611c5f9190613026565b60138054600090611c71908490612fce565b9091555060649050611c84600a83613095565b611c8e9190613026565b60148054600090611ca0908490612fce565b9091555060649050611cb3600a83613095565b611cbd9190613026565b60158054600090611ccf908490612fce565b90915550505050505050565b6040805160c0810182527f0000000000000000000000000000000000000000000000000000000000000000815267ffffffffffffffff7f00000000000000000000000000000000000000000000000000000000000000001660208083019190915260038284015262d59f80606083015260016080830152825190810190925260008083529160a0820190611d6e9061275a565b9052604051634d8e1c2f60e11b81529091506000906001600160a01b037f00000000000000000000000000000000000000000000000000000000000000001690639b1c385e90611dc29085906004016130ac565b6020604051808303816000875af1158015611de1573d6000803e3d6000fd5b505050506040513d601f19601f82011682018060405250810190611e059190613109565b90508262ffffff16817f6d9c99357d359ebc464c51fb3162f671b2bd8fecd626dd9f4f5e329076aa00f260405160405180910390a3505050565b6000828152600d602052604081208054909190611e6890600160401b900463ffffffff166122e4565b8354909150600090611e7f9063ffffffff166122e4565b905060008060005b6004811015611ed857838160048110611ea257611ea2612f43565b602002015160ff16858260048110611ebc57611ebc612f43565b602002015160ff1603611ed0578260010192505b600101611e87565b508160ff16600403611f285785548690600890611f0190600160401b900463ffffffff16613122565b91906101000a81548163ffffffff021916908363ffffffff16021790555050505050505050565b8160ff16600303611f505785548690601090611f0190600160801b900463ffffffff16613122565b611f58612a9e565b60005b6004811015611fa65781868260048110611f7757611f77612f43565b602002015160ff1660198110611f8f57611f8f612f43565b60200201805160ff60019182011690915201611f5b565b5060005b600481101561203757600082868360048110611fc857611fc8612f43565b602002015160ff1660198110611fe057611fe0612f43565b602002015160ff16111561202f578260010192508185826004811061200757612007612f43565b602002015160ff166019811061201f5761201f612f43565b6020020180516000190160ff1690525b600101611faa565b508160ff1660040361207f5786548790600c9061206090600160601b900463ffffffff16613122565b91906101000a81548163ffffffff021916908363ffffffff1602179055505b5050505050505050565b6001600160a01b0382166120bb57604051630b61174360e31b81526001600160a01b0383166004820152602401610920565b6001600160a01b03838116600081815260056020908152604080832094871680845294825291829020805460ff191686151590811790915591519182527f17307eab39ab6107e8899845ad3d59bd9653f200f220920489ca2b5937696c31910160405180910390a3505050565b6001600160a01b0383163b156109be57604051630a85bd0160e11b81526001600160a01b0384169063150b7a029061216a903390889087908790600401613145565b6020604051808303816000875af19250505080156121a5575060408051601f3d908101601f191682019092526121a291810190613178565b60015b61220e573d8080156121d3576040519150601f19603f3d011682016040523d82523d6000602084013e6121d8565b606091505b50805160000361220657604051633250574960e11b81526001600160a01b0385166004820152602401610920565b805181602001fd5b6001600160e01b03198116630a85bd0160e11b1461224a57604051633250574960e11b81526001600160a01b0385166004820152602401610920565b5050505050565b6060600061225e836127cb565b600101905060008167ffffffffffffffff81111561227e5761227e612dcf565b6040519080825280601f01601f1916602001820160405280156122a8576020820181803683370190505b5090508181016020015b600019016f181899199a1a9b1b9c1cb0b131b232b360811b600a86061a8153600a85049450846122b257509392505050565b6122ec612abd565b506040805160808101825260ff8084168252600884901c81166020830152601084901c81169282019290925260189290921c16606082015290565b60008060005b600481101561237e5783816004811061234857612348612f43565b602002015160ff1685826004811061236257612362612f43565b602002015160ff1603612376578160010191505b60010161232d565b508060ff166004036123945760019150506107d6565b8060ff166003036123a95760039150506107d6565b6123b1612a9e565b6000805b600481101561240057828782600481106123d1576123d1612f43565b602002015160ff16601981106123e9576123e9612f43565b60200201805160ff600191820116909152016123b5565b5060005b60048110156124915760008387836004811061242257612422612f43565b602002015160ff166019811061243a5761243a612f43565b602002015160ff161115612489578160010191508286826004811061246157612461612f43565b602002015160ff166019811061247957612479612f43565b6020020180516000190160ff1690525b600101612404565b508060ff166004036124a957600293505050506107d6565b8060ff166003036124c057600493505050506107d6565b50600095945050505050565b336001600160a01b038216036125245760405162461bcd60e51b815260206004820152601760248201527f43616e6e6f74207472616e7366657220746f2073656c660000000000000000006044820152606401610920565b600880546001600160a01b0319166001600160a01b03838116918217909255600754604051919216907fed8889f560326eb138920d842192f0eb3dd22b4f139c87a2c57538e05bae127890600090a350565b808061258a57506001600160a01b03821615155b1561264c57600061259a846116f3565b90506001600160a01b038316158015906125c65750826001600160a01b0316816001600160a01b031614155b80156125d957506125d781846116b4565b155b156126025760405163a9fbf51f60e01b81526001600160a01b0384166004820152602401610920565b811561264a5783856001600160a01b0316826001600160a01b03167f8c5be1e5ebec7d5bd14f71427d1e84f3dd0314c0f7b2291e5b200ac8c7c3b92560405160405180910390a45b505b5050600090815260046020526040902080546001600160a01b0319166001600160a01b0392909216919091179055565b6126878383836128a3565b610934576001600160a01b0383166126b557604051637e27328960e01b815260048101829052602401610920565b60405163177e802f60e01b81526001600160a01b038316600482015260248101829052604401610920565b60006126f56001600160a01b03841683612909565b9050805160001415801561271a5750808060200190518101906127189190613195565b155b1561093457604051635274afe760e01b81526001600160a01b0384166004820152602401610920565b61274d8383612917565b6109346000848484612128565b60607f92fd13387c7fe7befbc38d303d6468778fb9731bc4583f17d92989c6fcfdeaaa8260405160240161279391511515815260200190565b60408051601f198184030181529190526020810180516001600160e01b03166001600160e01b03199093169290921790915292915050565b60008072184f03e93ff9f4daa797ed6e38ed64bf6a1f0160401b831061280a5772184f03e93ff9f4daa797ed6e38ed64bf6a1f0160401b830492506040015b6d04ee2d6d415b85acef81000000008310612836576d04ee2d6d415b85acef8100000000830492506020015b662386f26fc10000831061285457662386f26fc10000830492506010015b6305f5e100831061286c576305f5e100830492506008015b612710831061288057612710830492506004015b60648310612892576064830492506002015b600a83106107d65760010192915050565b60006001600160a01b038316158015906129015750826001600160a01b0316846001600160a01b031614806128dd57506128dd84846116b4565b8061290157506000828152600460205260409020546001600160a01b038481169116145b949350505050565b60606113538383600061297c565b6001600160a01b03821661294157604051633250574960e11b815260006004820152602401610920565b600061294f838360006118ef565b90506001600160a01b03811615610934576040516339e3563760e11b815260006004820152602401610920565b6060814710156129a15760405163cd78605960e01b8152306004820152602401610920565b600080856001600160a01b031684866040516129bd91906131b2565b60006040518083038185875af1925050503d80600081146129fa576040519150601f19603f3d011682016040523d82523d6000602084013e6129ff565b606091505b5091509150612a0f868383612a19565b9695505050505050565b606082612a2e57612a2982612a75565b611353565b8151158015612a4557506001600160a01b0384163b155b15612a6e57604051639996b31560e01b81526001600160a01b0385166004820152602401610920565b5080611353565b805115612a855780518082602001fd5b604051630a12f52160e11b815260040160405180910390fd5b6040518061032001604052806019906020820280368337509192915050565b60405180608001604052806004906020820280368337509192915050565b6001600160e01b031981168114610c7157600080fd5b600060208284031215612b0357600080fd5b813561135381612adb565b60005b83811015612b29578181015183820152602001612b11565b50506000910152565b60008151808452612b4a816020860160208601612b0e565b601f01601f19169290920160200192915050565b6020815260006113536020830184612b32565b600060208284031215612b8357600080fd5b5035919050565b80356001600160a01b0381168114612ba157600080fd5b919050565b60008060408385031215612bb957600080fd5b612bc283612b8a565b946020939093013593505050565b600080600060408486031215612be557600080fd5b83359250602084013567ffffffffffffffff80821115612c0457600080fd5b818601915086601f830112612c1857600080fd5b813581811115612c2757600080fd5b8760208260051b8501011115612c3c57600080fd5b6020830194508093505050509250925092565b600080600060608486031215612c6457600080fd5b612c6d84612b8a565b9250612c7b60208501612b8a565b9150604084013590509250925092565b600060208284031215612c9d57600080fd5b61135382612b8a565b600060808284031215612cb857600080fd5b82608083011115612cc857600080fd5b50919050565b60008060208385031215612ce157600080fd5b823567ffffffffffffffff80821115612cf957600080fd5b818501915085601f830112612d0d57600080fd5b813581811115612d1c57600080fd5b866020828501011115612d2e57600080fd5b60209290920196919550909350505050565b803562ffffff81168114612ba157600080fd5b60008060408385031215612d6657600080fd5b612bc283612d40565b82151581526040602082015260006129016040830184612b32565b8015158114610c7157600080fd5b60008060408385031215612dab57600080fd5b612db483612b8a565b91506020830135612dc481612d8a565b809150509250929050565b634e487b7160e01b600052604160045260246000fd5b60008060008060808587031215612dfb57600080fd5b612e0485612b8a565b9350612e1260208601612b8a565b925060408501359150606085013567ffffffffffffffff80821115612e3657600080fd5b818701915087601f830112612e4a57600080fd5b813581811115612e5c57612e5c612dcf565b604051601f8201601f19908116603f01168101908382118183101715612e8457612e84612dcf565b816040528281528a6020848701011115612e9d57600080fd5b82602086016020830137600060208483010152809550505050505092959194509250565b600060208284031215612ed357600080fd5b61135382612d40565b60008060408385031215612eef57600080fd5b612ef883612b8a565b9150612f0660208401612b8a565b90509250929050565b600181811c90821680612f2357607f821691505b602082108103612cc857634e487b7160e01b600052602260045260246000fd5b634e487b7160e01b600052603260045260246000fd5b600060208284031215612f6b57600080fd5b813560ff8116811461135357600080fd5b634e487b7160e01b600052601160045260246000fd5b600060018201612fa457612fa4612f7c565b5060010190565b62ffffff818116838216019080821115612fc757612fc7612f7c565b5092915050565b808201808211156107d6576107d6612f7c565b60008351612ff3818460208801612b0e565b835190830190613007818360208801612b0e565b01949350505050565b634e487b7160e01b600052601260045260246000fd5b60008261303557613035613010565b500490565b818103818111156107d6576107d6612f7c565b60008261305c5761305c613010565b500690565b60808101818360005b600481101561308c57815160ff1683526020928301929091019060010161306a565b50505092915050565b80820281158282048414176107d6576107d6612f7c565b60208152815160208201526020820151604082015261ffff60408301511660608201526000606083015163ffffffff80821660808501528060808601511660a0850152505060a083015160c08084015261290160e0840182612b32565b60006020828403121561311b57600080fd5b5051919050565b600063ffffffff80831681810361313b5761313b612f7c565b6001019392505050565b6001600160a01b0385811682528416602082015260408101839052608060608201819052600090612a0f90830184612b32565b60006020828403121561318a57600080fd5b815161135381612adb565b6000602082840312156131a757600080fd5b815161135381612d8a565b600082516131c4818460208701612b0e565b919091019291505056fea26469706673582212205ce91090a195213bd81accaffc184eb4572cebfba771a852d911096231bfdf8864736f6c63430008140033","opcodes":"PUSH2 0x140 PUSH1 0x40 MSTORE PUSH1 0xB DUP1 SLOAD PUSH3 0xFFFFFF NOT AND PUSH1 0x1 SWAP1 DUP2 OR SWAP1 SWAP2 SSTORE PUSH1 0xC DUP2 SWAP1 SSTORE PUSH1 0x17 DUP1 SLOAD PUSH2 0xFFFF NOT AND SWAP1 SWAP2 OR SWAP1 SSTORE CALLVALUE DUP1 ISZERO PUSH3 0x37 JUMPI PUSH1 0x0 DUP1 REVERT JUMPDEST POP PUSH1 0x40 MLOAD PUSH3 0x38BD CODESIZE SUB DUP1 PUSH3 0x38BD DUP4 CODECOPY DUP2 ADD PUSH1 0x40 DUP2 SWAP1 MSTORE PUSH3 0x5A SWAP2 PUSH3 0x3A8 JUMP JUMPDEST DUP3 CALLER DUP1 PUSH1 0x0 PUSH1 0x40 MLOAD DUP1 PUSH1 0x40 ADD PUSH1 0x40 MSTORE DUP1 PUSH1 0x10 DUP2 MSTORE PUSH1 0x20 ADD PUSH16 0x131BDD1D1BD35BDA9A48151A58DAD95D PUSH1 0x82 SHL DUP2 MSTORE POP PUSH1 0x40 MLOAD DUP1 PUSH1 0x40 ADD PUSH1 0x40 MSTORE DUP1 PUSH1 0x5 DUP2 MSTORE PUSH1 0x20 ADD PUSH5 0x4C4D4A544B PUSH1 0xD8 SHL DUP2 MSTORE POP DUP2 PUSH1 0x0 SWAP1 DUP2 PUSH3 0xB7 SWAP2 SWAP1 PUSH3 0x4D3 JUMP JUMPDEST POP PUSH1 0x1 PUSH3 0xC6 DUP3 DUP3 PUSH3 0x4D3 JUMP JUMPDEST POP POP PUSH1 0x1 PUSH1 0x6 SSTORE POP PUSH1 0x1 PUSH1 0x1 PUSH1 0xA0 SHL SUB DUP3 AND PUSH3 0x12A JUMPI PUSH1 0x40 MLOAD PUSH3 0x461BCD PUSH1 0xE5 SHL DUP2 MSTORE PUSH1 0x20 PUSH1 0x4 DUP3 ADD MSTORE PUSH1 0x18 PUSH1 0x24 DUP3 ADD MSTORE PUSH32 0x43616E6E6F7420736574206F776E657220746F207A65726F0000000000000000 PUSH1 0x44 DUP3 ADD MSTORE PUSH1 0x64 ADD JUMPDEST PUSH1 0x40 MLOAD DUP1 SWAP2 SUB SWAP1 REVERT JUMPDEST PUSH1 0x7 DUP1 SLOAD PUSH1 0x1 PUSH1 0x1 PUSH1 0xA0 SHL SUB NOT AND PUSH1 0x1 PUSH1 0x1 PUSH1 0xA0 SHL SUB DUP5 DUP2 AND SWAP2 SWAP1 SWAP2 OR SWAP1 SWAP2 SSTORE DUP2 AND ISZERO PUSH3 0x15D JUMPI PUSH3 0x15D DUP2 PUSH3 0x273 JUMP JUMPDEST POP POP POP PUSH1 0x1 PUSH1 0x1 PUSH1 0xA0 SHL SUB DUP2 AND PUSH3 0x188 JUMPI PUSH1 0x40 MLOAD PUSH4 0xD92E233D PUSH1 0xE0 SHL DUP2 MSTORE PUSH1 0x4 ADD PUSH1 0x40 MLOAD DUP1 SWAP2 SUB SWAP1 REVERT JUMPDEST PUSH1 0x9 DUP1 SLOAD PUSH1 0x1 PUSH1 0x1 PUSH1 0xA0 SHL SUB NOT AND PUSH1 0x1 PUSH1 0x1 PUSH1 0xA0 SHL SUB SWAP3 SWAP1 SWAP3 AND SWAP2 SWAP1 SWAP2 OR SWAP1 SSTORE PUSH1 0x18 PUSH1 0xFF DUP8 AND LT PUSH3 0x1E7 JUMPI PUSH1 0x40 MLOAD PUSH3 0x461BCD PUSH1 0xE5 SHL DUP2 MSTORE PUSH1 0x20 PUSH1 0x4 DUP3 ADD MSTORE PUSH1 0x7 PUSH1 0x24 DUP3 ADD MSTORE PUSH7 0x1A1BDD5C8F0C8D PUSH1 0xCA SHL PUSH1 0x44 DUP3 ADD MSTORE PUSH1 0x64 ADD PUSH3 0x121 JUMP JUMPDEST PUSH1 0x1 PUSH1 0x1 PUSH1 0xA0 SHL SUB DUP1 DUP5 AND PUSH1 0xE0 MSTORE DUP6 AND PUSH1 0xC0 MSTORE PUSH1 0xA0 DUP5 SWAP1 MSTORE PUSH1 0xFF DUP7 AND PUSH1 0x80 MSTORE PUSH2 0x120 DUP3 SWAP1 MSTORE PUSH1 0x1 PUSH1 0x1 PUSH1 0x40 SHL SUB DUP2 AND PUSH2 0x100 MSTORE PUSH3 0x226 TIMESTAMP DUP8 PUSH3 0x31F JUMP JUMPDEST PUSH1 0xA DUP2 SWAP1 SSTORE PUSH1 0xB SLOAD PUSH1 0x40 MLOAD SWAP2 DUP3 MSTORE PUSH3 0xFFFFFF AND SWAP1 PUSH32 0x70ABA4EECFB00A70E5AAE193521BC256FC3CBF7A91479F6BCDA4B5A82F986961 SWAP1 PUSH1 0x20 ADD PUSH1 0x40 MLOAD DUP1 SWAP2 SUB SWAP1 LOG2 POP POP POP POP POP POP PUSH3 0x631 JUMP JUMPDEST CALLER PUSH1 0x1 PUSH1 0x1 PUSH1 0xA0 SHL SUB DUP3 AND SUB PUSH3 0x2CD JUMPI PUSH1 0x40 MLOAD PUSH3 0x461BCD PUSH1 0xE5 SHL DUP2 MSTORE PUSH1 0x20 PUSH1 0x4 DUP3 ADD MSTORE PUSH1 0x17 PUSH1 0x24 DUP3 ADD MSTORE PUSH32 0x43616E6E6F74207472616E7366657220746F2073656C66000000000000000000 PUSH1 0x44 DUP3 ADD MSTORE PUSH1 0x64 ADD PUSH3 0x121 JUMP JUMPDEST PUSH1 0x8 DUP1 SLOAD PUSH1 0x1 PUSH1 0x1 PUSH1 0xA0 SHL SUB NOT AND PUSH1 0x1 PUSH1 0x1 PUSH1 0xA0 SHL SUB DUP4 DUP2 AND SWAP2 DUP3 OR SWAP1 SWAP3 SSTORE PUSH1 0x7 SLOAD PUSH1 0x40 MLOAD SWAP2 SWAP3 AND SWAP1 PUSH32 0xED8889F560326EB138920D842192F0EB3DD22B4F139C87A2C57538E05BAE1278 SWAP1 PUSH1 0x0 SWAP1 LOG3 POP JUMP JUMPDEST PUSH1 0x0 DUP1 PUSH3 0x331 PUSH3 0x15180 DUP6 PUSH3 0x5B5 JUMP JUMPDEST SWAP1 POP PUSH1 0x0 PUSH3 0x346 PUSH1 0xFF DUP6 AND PUSH2 0xE10 PUSH3 0x5D8 JUMP JUMPDEST PUSH2 0xFFFF AND PUSH3 0x359 DUP4 PUSH3 0x15180 PUSH3 0x601 JUMP JUMPDEST PUSH3 0x365 SWAP2 SWAP1 PUSH3 0x61B JUMP JUMPDEST SWAP1 POP DUP5 DUP2 GT PUSH3 0x381 JUMPI PUSH3 0x37E PUSH3 0x15180 DUP3 PUSH3 0x61B JUMP JUMPDEST SWAP1 POP JUMPDEST SWAP2 POP POP JUMPDEST SWAP3 SWAP2 POP POP JUMP JUMPDEST DUP1 MLOAD PUSH1 0x1 PUSH1 0x1 PUSH1 0xA0 SHL SUB DUP2 AND DUP2 EQ PUSH3 0x3A3 JUMPI PUSH1 0x0 DUP1 REVERT JUMPDEST SWAP2 SWAP1 POP JUMP JUMPDEST PUSH1 0x0 DUP1 PUSH1 0x0 DUP1 PUSH1 0x0 DUP1 PUSH1 0xC0 DUP8 DUP10 SUB SLT ISZERO PUSH3 0x3C2 JUMPI PUSH1 0x0 DUP1 REVERT JUMPDEST DUP7 MLOAD PUSH1 0xFF DUP2 AND DUP2 EQ PUSH3 0x3D4 JUMPI PUSH1 0x0 DUP1 REVERT JUMPDEST SWAP6 POP PUSH3 0x3E4 PUSH1 0x20 DUP9 ADD PUSH3 0x38B JUMP JUMPDEST SWAP5 POP PUSH1 0x40 DUP8 ADD MLOAD SWAP4 POP PUSH3 0x3FB PUSH1 0x60 DUP9 ADD PUSH3 0x38B JUMP JUMPDEST PUSH1 0x80 DUP9 ADD MLOAD PUSH1 0xA0 DUP10 ADD MLOAD SWAP2 SWAP5 POP SWAP3 POP PUSH1 0x1 PUSH1 0x1 PUSH1 0x40 SHL SUB DUP2 AND DUP2 EQ PUSH3 0x420 JUMPI PUSH1 0x0 DUP1 REVERT JUMPDEST DUP1 SWAP2 POP POP SWAP3 SWAP6 POP SWAP3 SWAP6 POP SWAP3 SWAP6 JUMP JUMPDEST PUSH4 0x4E487B71 PUSH1 0xE0 SHL PUSH1 0x0 MSTORE PUSH1 0x41 PUSH1 0x4 MSTORE PUSH1 0x24 PUSH1 0x0 REVERT JUMPDEST PUSH1 0x1 DUP2 DUP2 SHR SWAP1 DUP3 AND DUP1 PUSH3 0x459 JUMPI PUSH1 0x7F DUP3 AND SWAP2 POP JUMPDEST PUSH1 0x20 DUP3 LT DUP2 SUB PUSH3 0x47A JUMPI PUSH4 0x4E487B71 PUSH1 0xE0 SHL PUSH1 0x0 MSTORE PUSH1 0x22 PUSH1 0x4 MSTORE PUSH1 0x24 PUSH1 0x0 REVERT JUMPDEST POP SWAP2 SWAP1 POP JUMP JUMPDEST PUSH1 0x1F DUP3 GT ISZERO PUSH3 0x4CE JUMPI PUSH1 0x0 DUP2 DUP2 MSTORE PUSH1 0x20 DUP2 KECCAK256 PUSH1 0x1F DUP6 ADD PUSH1 0x5 SHR DUP2 ADD PUSH1 0x20 DUP7 LT ISZERO PUSH3 0x4A9 JUMPI POP DUP1 JUMPDEST PUSH1 0x1F DUP6 ADD PUSH1 0x5 SHR DUP3 ADD SWAP2 POP JUMPDEST DUP2 DUP2 LT ISZERO PUSH3 0x4CA JUMPI DUP3 DUP2 SSTORE PUSH1 0x1 ADD PUSH3 0x4B5 JUMP JUMPDEST POP POP POP JUMPDEST POP POP POP JUMP JUMPDEST DUP2 MLOAD PUSH1 0x1 PUSH1 0x1 PUSH1 0x40 SHL SUB DUP2 GT ISZERO PUSH3 0x4EF JUMPI PUSH3 0x4EF PUSH3 0x42E JUMP JUMPDEST PUSH3 0x507 DUP2 PUSH3 0x500 DUP5 SLOAD PUSH3 0x444 JUMP JUMPDEST DUP5 PUSH3 0x480 JUMP JUMPDEST PUSH1 0x20 DUP1 PUSH1 0x1F DUP4 GT PUSH1 0x1 DUP2 EQ PUSH3 0x53F JUMPI PUSH1 0x0 DUP5 ISZERO PUSH3 0x526 JUMPI POP DUP6 DUP4 ADD MLOAD JUMPDEST PUSH1 0x0 NOT PUSH1 0x3 DUP7 SWAP1 SHL SHR NOT AND PUSH1 0x1 DUP6 SWAP1 SHL OR DUP6 SSTORE PUSH3 0x4CA JUMP JUMPDEST PUSH1 0x0 DUP6 DUP2 MSTORE PUSH1 0x20 DUP2 KECCAK256 PUSH1 0x1F NOT DUP7 AND SWAP2 JUMPDEST DUP3 DUP2 LT ISZERO PUSH3 0x570 JUMPI DUP9 DUP7 ADD MLOAD DUP3 SSTORE SWAP5 DUP5 ADD SWAP5 PUSH1 0x1 SWAP1 SWAP2 ADD SWAP1 DUP5 ADD PUSH3 0x54F JUMP JUMPDEST POP DUP6 DUP3 LT ISZERO PUSH3 0x58F JUMPI DUP8 DUP6 ADD MLOAD PUSH1 0x0 NOT PUSH1 0x3 DUP9 SWAP1 SHL PUSH1 0xF8 AND SHR NOT AND DUP2 SSTORE JUMPDEST POP POP POP POP POP PUSH1 0x1 SWAP1 DUP2 SHL ADD SWAP1 SSTORE POP JUMP JUMPDEST PUSH4 0x4E487B71 PUSH1 0xE0 SHL PUSH1 0x0 MSTORE PUSH1 0x11 PUSH1 0x4 MSTORE PUSH1 0x24 PUSH1 0x0 REVERT JUMPDEST PUSH1 0x0 DUP3 PUSH3 0x5D3 JUMPI PUSH4 0x4E487B71 PUSH1 0xE0 SHL PUSH1 0x0 MSTORE PUSH1 0x12 PUSH1 0x4 MSTORE PUSH1 0x24 PUSH1 0x0 REVERT JUMPDEST POP DIV SWAP1 JUMP JUMPDEST PUSH2 0xFFFF DUP2 DUP2 AND DUP4 DUP3 AND MUL DUP1 DUP3 AND SWAP2 SWAP1 DUP3 DUP2 EQ PUSH3 0x5F9 JUMPI PUSH3 0x5F9 PUSH3 0x59F JUMP JUMPDEST POP POP SWAP3 SWAP2 POP POP JUMP JUMPDEST DUP1 DUP3 MUL DUP2 ISZERO DUP3 DUP3 DIV DUP5 EQ OR PUSH3 0x385 JUMPI PUSH3 0x385 PUSH3 0x59F JUMP JUMPDEST DUP1 DUP3 ADD DUP1 DUP3 GT ISZERO PUSH3 0x385 JUMPI PUSH3 0x385 PUSH3 0x59F JUMP JUMPDEST PUSH1 0x80 MLOAD PUSH1 0xA0 MLOAD PUSH1 0xC0 MLOAD PUSH1 0xE0 MLOAD PUSH2 0x100 MLOAD PUSH2 0x120 MLOAD PUSH2 0x3204 PUSH3 0x6B9 PUSH1 0x0 CODECOPY PUSH1 0x0 DUP2 DUP2 PUSH2 0x29B ADD MSTORE PUSH2 0x1CE7 ADD MSTORE PUSH1 0x0 DUP2 DUP2 PUSH2 0x3FA ADD MSTORE PUSH2 0x1D13 ADD MSTORE PUSH1 0x0 PUSH2 0x1D8D ADD MSTORE PUSH1 0x0 DUP2 DUP2 PUSH2 0x3D3 ADD MSTORE DUP2 DUP2 PUSH2 0x9E2 ADD MSTORE DUP2 DUP2 PUSH2 0xAC7 ADD MSTORE PUSH2 0x162B ADD MSTORE PUSH1 0x0 DUP2 DUP2 PUSH2 0x350 ADD MSTORE DUP2 DUP2 PUSH2 0xAEB ADD MSTORE DUP2 DUP2 PUSH2 0x15D0 ADD MSTORE PUSH2 0x1B2F ADD MSTORE PUSH1 0x0 PUSH2 0x5AA ADD MSTORE PUSH2 0x3204 PUSH1 0x0 RETURN INVALID PUSH1 0x80 PUSH1 0x40 MSTORE CALLVALUE DUP1 ISZERO PUSH2 0x10 JUMPI PUSH1 0x0 DUP1 REVERT JUMPDEST POP PUSH1 0x4 CALLDATASIZE LT PUSH2 0x269 JUMPI PUSH1 0x0 CALLDATALOAD PUSH1 0xE0 SHR DUP1 PUSH4 0x51858E27 GT PUSH2 0x151 JUMPI DUP1 PUSH4 0x95D89B41 GT PUSH2 0xC3 JUMPI DUP1 PUSH4 0xC87B56DD GT PUSH2 0x87 JUMPI DUP1 PUSH4 0xC87B56DD EQ PUSH2 0x69A JUMPI DUP1 PUSH4 0xC8D51919 EQ PUSH2 0x6AD JUMPI DUP1 PUSH4 0xD7098154 EQ PUSH2 0x6B6 JUMPI DUP1 PUSH4 0xD96226A2 EQ PUSH2 0x6C9 JUMPI DUP1 PUSH4 0xE985E9C5 EQ PUSH2 0x764 JUMPI DUP1 PUSH4 0xF2FDE38B EQ PUSH2 0x777 JUMPI PUSH1 0x0 DUP1 REVERT JUMPDEST DUP1 PUSH4 0x95D89B41 EQ PUSH2 0x602 JUMPI DUP1 PUSH4 0x9ECCACF6 EQ PUSH2 0x60A JUMPI DUP1 PUSH4 0xA22CB465 EQ PUSH2 0x61D JUMPI DUP1 PUSH4 0xB88D4FDE EQ PUSH2 0x630 JUMPI DUP1 PUSH4 0xC5C51DCA EQ PUSH2 0x643 JUMPI PUSH1 0x0 DUP1 REVERT JUMPDEST DUP1 PUSH4 0x6E04FF0D GT PUSH2 0x115 JUMPI DUP1 PUSH4 0x6E04FF0D EQ PUSH2 0x569 JUMPI DUP1 PUSH4 0x70A08231 EQ PUSH2 0x58A JUMPI DUP1 PUSH4 0x79BA5097 EQ PUSH2 0x59D JUMPI DUP1 PUSH4 0x8D6EF595 EQ PUSH2 0x5A5 JUMPI DUP1 PUSH4 0x8DA5CB5B EQ PUSH2 0x5DE JUMPI DUP1 PUSH4 0x8EA98117 EQ PUSH2 0x5EF JUMPI PUSH1 0x0 DUP1 REVERT JUMPDEST DUP1 PUSH4 0x51858E27 EQ PUSH2 0x51C JUMPI DUP1 PUSH4 0x5C900A1A EQ PUSH2 0x52E JUMPI DUP1 PUSH4 0x5D58F930 EQ PUSH2 0x536 JUMPI DUP1 PUSH4 0x6352211E EQ PUSH2 0x549 JUMPI DUP1 PUSH4 0x6BAF4A74 EQ PUSH2 0x55C JUMPI PUSH1 0x0 DUP1 REVERT JUMPDEST DUP1 PUSH4 0x1FE543E3 GT PUSH2 0x1EA JUMPI DUP1 PUSH4 0x33D608F1 GT PUSH2 0x1AE JUMPI DUP1 PUSH4 0x33D608F1 EQ PUSH2 0x435 JUMPI DUP1 PUSH4 0x3D4962ED EQ PUSH2 0x454 JUMPI DUP1 PUSH4 0x42842E0E EQ PUSH2 0x467 JUMPI DUP1 PUSH4 0x4585E33B EQ PUSH2 0x47A JUMPI DUP1 PUSH4 0x4F687E91 EQ PUSH2 0x48D JUMPI DUP1 PUSH4 0x50B44712 EQ PUSH2 0x495 JUMPI PUSH1 0x0 DUP1 REVERT JUMPDEST DUP1 PUSH4 0x1FE543E3 EQ PUSH2 0x395 JUMPI DUP1 PUSH4 0x23B872DD EQ PUSH2 0x3A8 JUMPI DUP1 PUSH4 0x2516F149 EQ PUSH2 0x3BB JUMPI DUP1 PUSH4 0x3013CE29 EQ PUSH2 0x3CE JUMPI DUP1 PUSH4 0x32615640 EQ PUSH2 0x3F5 JUMPI PUSH1 0x0 DUP1 REVERT JUMPDEST DUP1 PUSH4 0xAE58001 GT PUSH2 0x231 JUMPI DUP1 PUSH4 0xAE58001 EQ PUSH2 0x320 JUMPI DUP1 PUSH4 0xD50CDB9 EQ PUSH2 0x328 JUMPI DUP1 PUSH4 0x1209B1F6 EQ PUSH2 0x34B JUMPI DUP1 PUSH4 0x147E291F EQ PUSH2 0x372 JUMPI DUP1 PUSH4 0x1E27580E EQ PUSH2 0x37A JUMPI PUSH1 0x0 DUP1 REVERT JUMPDEST DUP1 PUSH4 0x1FFC9A7 EQ PUSH2 0x26E JUMPI DUP1 PUSH4 0x41D443E EQ PUSH2 0x296 JUMPI DUP1 PUSH4 0x6FDDE03 EQ PUSH2 0x2CB JUMPI DUP1 PUSH4 0x81812FC EQ PUSH2 0x2E0 JUMPI DUP1 PUSH4 0x95EA7B3 EQ PUSH2 0x30B JUMPI JUMPDEST PUSH1 0x0 DUP1 REVERT JUMPDEST PUSH2 0x281 PUSH2 0x27C CALLDATASIZE PUSH1 0x4 PUSH2 0x2AF1 JUMP JUMPDEST PUSH2 0x78A JUMP JUMPDEST PUSH1 0x40 MLOAD SWAP1 ISZERO ISZERO DUP2 MSTORE PUSH1 0x20 ADD JUMPDEST PUSH1 0x40 MLOAD DUP1 SWAP2 SUB SWAP1 RETURN JUMPDEST PUSH2 0x2BD PUSH32 0x0 DUP2 JUMP JUMPDEST PUSH1 0x40 MLOAD SWAP1 DUP2 MSTORE PUSH1 0x20 ADD PUSH2 0x28D JUMP JUMPDEST PUSH2 0x2D3 PUSH2 0x7DC JUMP JUMPDEST PUSH1 0x40 MLOAD PUSH2 0x28D SWAP2 SWAP1 PUSH2 0x2B5E JUMP JUMPDEST PUSH2 0x2F3 PUSH2 0x2EE CALLDATASIZE PUSH1 0x4 PUSH2 0x2B71 JUMP JUMPDEST PUSH2 0x86E JUMP JUMPDEST PUSH1 0x40 MLOAD PUSH1 0x1 PUSH1 0x1 PUSH1 0xA0 SHL SUB SWAP1 SWAP2 AND DUP2 MSTORE PUSH1 0x20 ADD PUSH2 0x28D JUMP JUMPDEST PUSH2 0x31E PUSH2 0x319 CALLDATASIZE PUSH1 0x4 PUSH2 0x2BA6 JUMP JUMPDEST PUSH2 0x897 JUMP JUMPDEST STOP JUMPDEST PUSH2 0x31E PUSH2 0x8A6 JUMP JUMPDEST PUSH1 0xB SLOAD PUSH2 0x337 SWAP1 PUSH3 0xFFFFFF AND DUP2 JUMP JUMPDEST PUSH1 0x40 MLOAD PUSH3 0xFFFFFF SWAP1 SWAP2 AND DUP2 MSTORE PUSH1 0x20 ADD PUSH2 0x28D JUMP JUMPDEST PUSH2 0x2BD PUSH32 0x0 DUP2 JUMP JUMPDEST PUSH2 0x31E PUSH2 0x8BF JUMP JUMPDEST PUSH2 0x382 PUSH1 0x3 DUP2 JUMP JUMPDEST PUSH1 0x40 MLOAD PUSH2 0xFFFF SWAP1 SWAP2 AND DUP2 MSTORE PUSH1 0x20 ADD PUSH2 0x28D JUMP JUMPDEST PUSH2 0x31E PUSH2 0x3A3 CALLDATASIZE PUSH1 0x4 PUSH2 0x2BD0 JUMP JUMPDEST PUSH2 0x8E4 JUMP JUMPDEST PUSH2 0x31E PUSH2 0x3B6 CALLDATASIZE PUSH1 0x4 PUSH2 0x2C4F JUMP JUMPDEST PUSH2 0x939 JUMP JUMPDEST PUSH2 0x31E PUSH2 0x3C9 CALLDATASIZE PUSH1 0x4 PUSH2 0x2C8B JUMP JUMPDEST PUSH2 0x9C4 JUMP JUMPDEST PUSH2 0x2F3 PUSH32 0x0 DUP2 JUMP JUMPDEST PUSH2 0x41C PUSH32 0x0 DUP2 JUMP JUMPDEST PUSH1 0x40 MLOAD PUSH8 0xFFFFFFFFFFFFFFFF SWAP1 SWAP2 AND DUP2 MSTORE PUSH1 0x20 ADD PUSH2 0x28D JUMP JUMPDEST PUSH2 0x43F PUSH3 0xD59F80 DUP2 JUMP JUMPDEST PUSH1 0x40 MLOAD PUSH4 0xFFFFFFFF SWAP1 SWAP2 AND DUP2 MSTORE PUSH1 0x20 ADD PUSH2 0x28D JUMP JUMPDEST PUSH2 0x31E PUSH2 0x462 CALLDATASIZE PUSH1 0x4 PUSH2 0x2CA6 JUMP JUMPDEST PUSH2 0xA09 JUMP JUMPDEST PUSH2 0x31E PUSH2 0x475 CALLDATASIZE PUSH1 0x4 PUSH2 0x2C4F JUMP JUMPDEST PUSH2 0xC74 JUMP JUMPDEST PUSH2 0x31E PUSH2 0x488 CALLDATASIZE PUSH1 0x4 PUSH2 0x2CCE JUMP JUMPDEST PUSH2 0xC8F JUMP JUMPDEST PUSH2 0x31E PUSH2 0xDB5 JUMP JUMPDEST PUSH2 0x4E3 PUSH2 0x4A3 CALLDATASIZE PUSH1 0x4 PUSH2 0x2B71 JUMP JUMPDEST PUSH1 0xD PUSH1 0x20 MSTORE PUSH1 0x0 SWAP1 DUP2 MSTORE PUSH1 0x40 SWAP1 KECCAK256 SLOAD PUSH5 0xFFFFFFFFFF DUP2 AND SWAP1 PUSH1 0x1 PUSH1 0x28 SHL DUP2 DIV PUSH3 0xFFFFFF AND SWAP1 PUSH1 0x1 PUSH1 0x40 SHL DUP2 DIV PUSH4 0xFFFFFFFF AND SWAP1 PUSH1 0x1 PUSH1 0x60 SHL SWAP1 DIV PUSH1 0xFF AND DUP5 JUMP JUMPDEST PUSH1 0x40 DUP1 MLOAD PUSH5 0xFFFFFFFFFF SWAP1 SWAP6 AND DUP6 MSTORE PUSH3 0xFFFFFF SWAP1 SWAP4 AND PUSH1 0x20 DUP6 ADD MSTORE PUSH4 0xFFFFFFFF SWAP1 SWAP2 AND SWAP2 DUP4 ADD SWAP2 SWAP1 SWAP2 MSTORE ISZERO ISZERO PUSH1 0x60 DUP3 ADD MSTORE PUSH1 0x80 ADD PUSH2 0x28D JUMP JUMPDEST PUSH1 0x17 SLOAD PUSH2 0x281 SWAP1 PUSH2 0x100 SWAP1 DIV PUSH1 0xFF AND DUP2 JUMP JUMPDEST PUSH2 0x43F PUSH1 0x1 DUP2 JUMP JUMPDEST PUSH2 0x31E PUSH2 0x544 CALLDATASIZE PUSH1 0x4 PUSH2 0x2D53 JUMP JUMPDEST PUSH2 0xDD1 JUMP JUMPDEST PUSH2 0x2F3 PUSH2 0x557 CALLDATASIZE PUSH1 0x4 PUSH2 0x2B71 JUMP JUMPDEST PUSH2 0x1078 JUMP JUMPDEST PUSH1 0x17 SLOAD PUSH2 0x281 SWAP1 PUSH1 0xFF AND DUP2 JUMP JUMPDEST PUSH2 0x57C PUSH2 0x577 CALLDATASIZE PUSH1 0x4 PUSH2 0x2CCE JUMP JUMPDEST PUSH2 0x1083 JUMP JUMPDEST PUSH1 0x40 MLOAD PUSH2 0x28D SWAP3 SWAP2 SWAP1 PUSH2 0x2D6F JUMP JUMPDEST PUSH2 0x2BD PUSH2 0x598 CALLDATASIZE PUSH1 0x4 PUSH2 0x2C8B JUMP JUMPDEST PUSH2 0x10CC JUMP JUMPDEST PUSH2 0x31E PUSH2 0x1114 JUMP JUMPDEST PUSH2 0x5CC PUSH32 0x0 DUP2 JUMP JUMPDEST PUSH1 0x40 MLOAD PUSH1 0xFF SWAP1 SWAP2 AND DUP2 MSTORE PUSH1 0x20 ADD PUSH2 0x28D JUMP JUMPDEST PUSH1 0x7 SLOAD PUSH1 0x1 PUSH1 0x1 PUSH1 0xA0 SHL SUB AND PUSH2 0x2F3 JUMP JUMPDEST PUSH2 0x31E PUSH2 0x5FD CALLDATASIZE PUSH1 0x4 PUSH2 0x2C8B JUMP JUMPDEST PUSH2 0x11C2 JUMP JUMPDEST PUSH2 0x2D3 PUSH2 0x12B4 JUMP JUMPDEST PUSH1 0x9 SLOAD PUSH2 0x2F3 SWAP1 PUSH1 0x1 PUSH1 0x1 PUSH1 0xA0 SHL SUB AND DUP2 JUMP JUMPDEST PUSH2 0x31E PUSH2 0x62B CALLDATASIZE PUSH1 0x4 PUSH2 0x2D98 JUMP JUMPDEST PUSH2 0x12C3 JUMP JUMPDEST PUSH2 0x31E PUSH2 0x63E CALLDATASIZE PUSH1 0x4 PUSH2 0x2DE5 JUMP JUMPDEST PUSH2 0x12CE JUMP JUMPDEST PUSH1 0xF SLOAD PUSH1 0x10 SLOAD PUSH1 0x11 SLOAD PUSH1 0x12 SLOAD PUSH1 0x13 SLOAD PUSH1 0x14 SLOAD PUSH1 0x15 SLOAD PUSH2 0x665 SWAP7 SWAP6 SWAP5 SWAP4 SWAP3 SWAP2 SWAP1 DUP8 JUMP JUMPDEST PUSH1 0x40 DUP1 MLOAD SWAP8 DUP9 MSTORE PUSH1 0x20 DUP9 ADD SWAP7 SWAP1 SWAP7 MSTORE SWAP5 DUP7 ADD SWAP4 SWAP1 SWAP4 MSTORE PUSH1 0x60 DUP6 ADD SWAP2 SWAP1 SWAP2 MSTORE PUSH1 0x80 DUP5 ADD MSTORE PUSH1 0xA0 DUP4 ADD MSTORE PUSH1 0xC0 DUP3 ADD MSTORE PUSH1 0xE0 ADD PUSH2 0x28D JUMP JUMPDEST PUSH2 0x2D3 PUSH2 0x6A8 CALLDATASIZE PUSH1 0x4 PUSH2 0x2B71 JUMP JUMPDEST PUSH2 0x12E5 JUMP JUMPDEST PUSH2 0x2BD PUSH1 0xA SLOAD DUP2 JUMP JUMPDEST PUSH2 0x31E PUSH2 0x6C4 CALLDATASIZE PUSH1 0x4 PUSH2 0x2B71 JUMP JUMPDEST PUSH2 0x135A JUMP JUMPDEST PUSH2 0x724 PUSH2 0x6D7 CALLDATASIZE PUSH1 0x4 PUSH2 0x2EC1 JUMP JUMPDEST PUSH1 0x16 PUSH1 0x20 MSTORE PUSH1 0x0 SWAP1 DUP2 MSTORE PUSH1 0x40 SWAP1 KECCAK256 SLOAD PUSH4 0xFFFFFFFF DUP1 DUP3 AND SWAP2 PUSH5 0x100000000 DUP2 DIV DUP3 AND SWAP2 PUSH1 0x1 PUSH1 0x40 SHL DUP3 DIV DUP2 AND SWAP2 PUSH1 0x1 PUSH1 0x60 SHL DUP2 DIV DUP3 AND SWAP2 PUSH1 0x1 PUSH1 0x80 SHL DUP3 DIV AND SWAP1 PUSH1 0x1 PUSH1 0xA0 SHL SWAP1 DIV PUSH1 0xFF AND DUP7 JUMP JUMPDEST PUSH1 0x40 DUP1 MLOAD PUSH4 0xFFFFFFFF SWAP8 DUP9 AND DUP2 MSTORE SWAP6 DUP8 AND PUSH1 0x20 DUP8 ADD MSTORE SWAP4 DUP7 AND SWAP4 DUP6 ADD SWAP4 SWAP1 SWAP4 MSTORE SWAP1 DUP5 AND PUSH1 0x60 DUP5 ADD MSTORE SWAP1 SWAP3 AND PUSH1 0x80 DUP3 ADD MSTORE SWAP1 ISZERO ISZERO PUSH1 0xA0 DUP3 ADD MSTORE PUSH1 0xC0 ADD PUSH2 0x28D JUMP JUMPDEST PUSH2 0x281 PUSH2 0x772 CALLDATASIZE PUSH1 0x4 PUSH2 0x2EDC JUMP JUMPDEST PUSH2 0x16B4 JUMP JUMPDEST PUSH2 0x31E PUSH2 0x785 CALLDATASIZE PUSH1 0x4 PUSH2 0x2C8B JUMP JUMPDEST PUSH2 0x16E2 JUMP JUMPDEST PUSH1 0x0 PUSH1 0x1 PUSH1 0x1 PUSH1 0xE0 SHL SUB NOT DUP3 AND PUSH4 0x80AC58CD PUSH1 0xE0 SHL EQ DUP1 PUSH2 0x7BB JUMPI POP PUSH1 0x1 PUSH1 0x1 PUSH1 0xE0 SHL SUB NOT DUP3 AND PUSH4 0x5B5E139F PUSH1 0xE0 SHL EQ JUMPDEST DUP1 PUSH2 0x7D6 JUMPI POP PUSH4 0x1FFC9A7 PUSH1 0xE0 SHL PUSH1 0x1 PUSH1 0x1 PUSH1 0xE0 SHL SUB NOT DUP4 AND EQ JUMPDEST SWAP3 SWAP2 POP POP JUMP JUMPDEST PUSH1 0x60 PUSH1 0x0 DUP1 SLOAD PUSH2 0x7EB SWAP1 PUSH2 0x2F0F JUMP JUMPDEST DUP1 PUSH1 0x1F ADD PUSH1 0x20 DUP1 SWAP2 DIV MUL PUSH1 0x20 ADD PUSH1 0x40 MLOAD SWAP1 DUP2 ADD PUSH1 0x40 MSTORE DUP1 SWAP3 SWAP2 SWAP1 DUP2 DUP2 MSTORE PUSH1 0x20 ADD DUP3 DUP1 SLOAD PUSH2 0x817 SWAP1 PUSH2 0x2F0F JUMP JUMPDEST DUP1 ISZERO PUSH2 0x864 JUMPI DUP1 PUSH1 0x1F LT PUSH2 0x839 JUMPI PUSH2 0x100 DUP1 DUP4 SLOAD DIV MUL DUP4 MSTORE SWAP2 PUSH1 0x20 ADD SWAP2 PUSH2 0x864 JUMP JUMPDEST DUP3 ADD SWAP2 SWAP1 PUSH1 0x0 MSTORE PUSH1 0x20 PUSH1 0x0 KECCAK256 SWAP1 JUMPDEST DUP2 SLOAD DUP2 MSTORE SWAP1 PUSH1 0x1 ADD SWAP1 PUSH1 0x20 ADD DUP1 DUP4 GT PUSH2 0x847 JUMPI DUP3 SWAP1 SUB PUSH1 0x1F AND DUP3 ADD SWAP2 JUMPDEST POP POP POP POP POP SWAP1 POP SWAP1 JUMP JUMPDEST PUSH1 0x0 PUSH2 0x879 DUP3 PUSH2 0x16F3 JUMP JUMPDEST POP PUSH1 0x0 DUP3 DUP2 MSTORE PUSH1 0x4 PUSH1 0x20 MSTORE PUSH1 0x40 SWAP1 KECCAK256 SLOAD PUSH1 0x1 PUSH1 0x1 PUSH1 0xA0 SHL SUB AND PUSH2 0x7D6 JUMP JUMPDEST PUSH2 0x8A2 DUP3 DUP3 CALLER PUSH2 0x172C JUMP JUMPDEST POP POP JUMP JUMPDEST PUSH2 0x8AE PUSH2 0x1739 JUMP JUMPDEST PUSH1 0xB DUP1 SLOAD PUSH6 0xFFFFFF000000 NOT AND SWAP1 SSTORE JUMP JUMPDEST PUSH2 0x8C7 PUSH2 0x1739 JUMP JUMPDEST PUSH1 0x17 DUP1 SLOAD PUSH2 0xFF00 NOT DUP2 AND PUSH2 0x100 SWAP2 DUP3 SWAP1 DIV PUSH1 0xFF AND ISZERO SWAP1 SWAP2 MUL OR SWAP1 SSTORE JUMP JUMPDEST PUSH1 0x9 SLOAD PUSH1 0x1 PUSH1 0x1 PUSH1 0xA0 SHL SUB AND CALLER EQ PUSH2 0x929 JUMPI PUSH1 0x9 SLOAD PUSH1 0x40 MLOAD PUSH4 0x73E64FD PUSH1 0xE2 SHL DUP2 MSTORE CALLER PUSH1 0x4 DUP3 ADD MSTORE PUSH1 0x1 PUSH1 0x1 PUSH1 0xA0 SHL SUB SWAP1 SWAP2 AND PUSH1 0x24 DUP3 ADD MSTORE PUSH1 0x44 ADD JUMPDEST PUSH1 0x40 MLOAD DUP1 SWAP2 SUB SWAP1 REVERT JUMPDEST PUSH2 0x934 DUP4 DUP4 DUP4 PUSH2 0x178E JUMP JUMPDEST POP POP POP JUMP JUMPDEST PUSH1 0x1 PUSH1 0x1 PUSH1 0xA0 SHL SUB DUP3 AND PUSH2 0x963 JUMPI PUSH1 0x40 MLOAD PUSH4 0x32505749 PUSH1 0xE1 SHL DUP2 MSTORE PUSH1 0x0 PUSH1 0x4 DUP3 ADD MSTORE PUSH1 0x24 ADD PUSH2 0x920 JUMP JUMPDEST PUSH1 0x0 PUSH2 0x970 DUP4 DUP4 CALLER PUSH2 0x18EF JUMP JUMPDEST SWAP1 POP DUP4 PUSH1 0x1 PUSH1 0x1 PUSH1 0xA0 SHL SUB AND DUP2 PUSH1 0x1 PUSH1 0x1 PUSH1 0xA0 SHL SUB AND EQ PUSH2 0x9BE JUMPI PUSH1 0x40 MLOAD PUSH4 0x64283D7B PUSH1 0xE0 SHL DUP2 MSTORE PUSH1 0x1 PUSH1 0x1 PUSH1 0xA0 SHL SUB DUP1 DUP7 AND PUSH1 0x4 DUP4 ADD MSTORE PUSH1 0x24 DUP3 ADD DUP5 SWAP1 MSTORE DUP3 AND PUSH1 0x44 DUP3 ADD MSTORE PUSH1 0x64 ADD PUSH2 0x920 JUMP JUMPDEST POP POP POP POP JUMP JUMPDEST PUSH2 0x9CC PUSH2 0x1739 JUMP JUMPDEST PUSH1 0x12 DUP1 SLOAD PUSH1 0x0 SWAP1 SWAP2 SSTORE PUSH2 0x8A2 PUSH1 0x1 PUSH1 0x1 PUSH1 0xA0 SHL SUB PUSH32 0x0 AND DUP4 DUP4 PUSH2 0x19E8 JUMP JUMPDEST PUSH2 0xA11 PUSH2 0x1A47 JUMP JUMPDEST PUSH1 0x17 SLOAD PUSH2 0x100 SWAP1 DIV PUSH1 0xFF AND ISZERO PUSH2 0xA3A JUMPI PUSH1 0x40 MLOAD PUSH4 0x4CB3183D PUSH1 0xE0 SHL DUP2 MSTORE PUSH1 0x4 ADD PUSH1 0x40 MLOAD DUP1 SWAP2 SUB SWAP1 REVERT JUMPDEST PUSH1 0xA SLOAD TIMESTAMP LT PUSH2 0xA5C JUMPI PUSH1 0x40 MLOAD PUSH4 0x85DE625 PUSH1 0xE0 SHL DUP2 MSTORE PUSH1 0x4 ADD PUSH1 0x40 MLOAD DUP1 SWAP2 SUB SWAP1 REVERT JUMPDEST PUSH1 0x0 JUMPDEST PUSH1 0x4 DUP2 LT ISZERO PUSH2 0xAB9 JUMPI PUSH1 0x18 DUP3 DUP3 PUSH1 0x4 DUP2 LT PUSH2 0xA7C JUMPI PUSH2 0xA7C PUSH2 0x2F43 JUMP JUMPDEST PUSH1 0x20 MUL ADD PUSH1 0x20 DUP2 ADD SWAP1 PUSH2 0xA8F SWAP2 SWAP1 PUSH2 0x2F59 JUMP JUMPDEST PUSH1 0xFF AND GT ISZERO PUSH2 0xAB1 JUMPI PUSH1 0x40 MLOAD PUSH4 0x8214F17 PUSH1 0xE2 SHL DUP2 MSTORE PUSH1 0x4 ADD PUSH1 0x40 MLOAD DUP1 SWAP2 SUB SWAP1 REVERT JUMPDEST PUSH1 0x1 ADD PUSH2 0xA5F JUMP JUMPDEST POP PUSH2 0xB0F PUSH1 0x1 PUSH1 0x1 PUSH1 0xA0 SHL SUB PUSH32 0x0 AND CALLER ADDRESS PUSH32 0x0 PUSH2 0x1A71 JUMP JUMPDEST PUSH1 0xC DUP1 SLOAD PUSH1 0x0 SWAP2 DUP3 PUSH2 0xB20 DUP4 PUSH2 0x2F92 JUMP JUMPDEST SWAP2 SWAP1 POP SSTORE SWAP1 POP PUSH2 0xB30 CALLER DUP3 PUSH2 0x1AAA JUMP JUMPDEST PUSH1 0x40 DUP1 MLOAD PUSH1 0x80 DUP1 DUP3 ADD DUP4 MSTORE PUSH5 0xFFFFFFFFFF TIMESTAMP AND DUP3 MSTORE PUSH1 0xB SLOAD PUSH3 0xFFFFFF AND PUSH1 0x20 DUP4 ADD MSTORE DUP3 MLOAD DUP1 DUP3 ADD DUP5 MSTORE SWAP2 SWAP3 DUP4 ADD SWAP2 PUSH2 0xB80 SWAP2 DUP7 SWAP1 PUSH1 0x4 SWAP1 DUP4 SWAP1 DUP4 SWAP1 DUP1 DUP3 DUP5 CALLDATACOPY PUSH1 0x0 SWAP3 ADD SWAP2 SWAP1 SWAP2 MSTORE POP PUSH2 0x1AC4 SWAP2 POP POP JUMP JUMPDEST PUSH4 0xFFFFFFFF SWAP1 DUP2 AND DUP3 MSTORE PUSH1 0x0 PUSH1 0x20 SWAP3 DUP4 ADD DUP2 SWAP1 MSTORE DUP5 DUP2 MSTORE PUSH1 0xD DUP4 MSTORE PUSH1 0x40 DUP1 DUP3 KECCAK256 DUP6 MLOAD DUP2 SLOAD DUP8 DUP8 ADD MLOAD DUP9 DUP6 ADD MLOAD PUSH1 0x60 SWAP1 SWAP10 ADD MLOAD ISZERO ISZERO PUSH1 0x1 PUSH1 0x60 SHL MUL PUSH1 0xFF PUSH1 0x60 SHL NOT SWAP10 SWAP1 SWAP8 AND PUSH1 0x1 PUSH1 0x40 SHL MUL SWAP9 SWAP1 SWAP9 AND PUSH13 0xFFFFFFFFFF0000000000000000 NOT PUSH3 0xFFFFFF SWAP10 DUP11 AND PUSH1 0x1 PUSH1 0x28 SHL MUL PUSH8 0xFFFFFFFFFFFFFFFF NOT SWAP1 SWAP4 AND PUSH5 0xFFFFFFFFFF SWAP1 SWAP5 AND SWAP4 SWAP1 SWAP4 OR SWAP2 SWAP1 SWAP2 OR SWAP2 SWAP1 SWAP2 AND OR SWAP4 SWAP1 SWAP4 OR SWAP1 SWAP3 SSTORE PUSH1 0xB DUP1 SLOAD DUP6 AND DUP3 MSTORE PUSH1 0xE DUP5 MSTORE DUP3 DUP3 KECCAK256 DUP1 SLOAD PUSH1 0x1 DUP2 ADD DUP3 SSTORE SWAP1 DUP4 MSTORE SWAP4 DUP3 KECCAK256 SWAP1 SWAP4 ADD DUP6 SWAP1 SSTORE SWAP2 SLOAD SWAP1 MLOAD SWAP3 AND SWAP2 DUP4 SWAP2 CALLER SWAP2 PUSH32 0x12EEE7F99EA5C9C160467D40A467F18C62607B8D43607D0840F168CC2B55B2E4 SWAP2 SWAP1 LOG4 POP PUSH2 0xC71 PUSH1 0x1 PUSH1 0x6 SSTORE JUMP JUMPDEST POP JUMP JUMPDEST PUSH2 0x934 DUP4 DUP4 DUP4 PUSH1 0x40 MLOAD DUP1 PUSH1 0x20 ADD PUSH1 0x40 MSTORE DUP1 PUSH1 0x0 DUP2 MSTORE POP PUSH2 0x12CE JUMP JUMPDEST PUSH1 0x17 SLOAD PUSH1 0xFF AND ISZERO DUP1 PUSH2 0xCA8 JUMPI POP PUSH1 0x17 SLOAD PUSH2 0x100 SWAP1 DIV PUSH1 0xFF AND JUMPDEST ISZERO PUSH2 0xCC6 JUMPI PUSH1 0x40 MLOAD PUSH4 0xFC5EAEFD PUSH1 0xE0 SHL DUP2 MSTORE PUSH1 0x4 ADD PUSH1 0x40 MLOAD DUP1 SWAP2 SUB SWAP1 REVERT JUMPDEST PUSH1 0xA SLOAD TIMESTAMP LT ISZERO PUSH2 0xCE9 JUMPI PUSH1 0x40 MLOAD PUSH4 0x85DE625 PUSH1 0xE0 SHL DUP2 MSTORE PUSH1 0x4 ADD PUSH1 0x40 MLOAD DUP1 SWAP2 SUB SWAP1 REVERT JUMPDEST PUSH1 0xB DUP1 SLOAD PUSH6 0xFFFFFF000000 NOT DUP2 AND PUSH3 0xFFFFFF SWAP1 SWAP2 AND PUSH4 0x1000000 DUP2 MUL SWAP2 SWAP1 SWAP2 OR SWAP1 SWAP2 SSTORE PUSH2 0xD15 DUP2 PUSH2 0x1B07 JUMP JUMPDEST PUSH2 0xD1E DUP2 PUSH2 0x1CDB JUMP JUMPDEST PUSH1 0xB DUP1 SLOAD PUSH1 0x1 SWAP2 SWAP1 PUSH1 0x0 SWAP1 PUSH2 0xD39 SWAP1 DUP5 SWAP1 PUSH3 0xFFFFFF AND PUSH2 0x2FAB JUMP JUMPDEST SWAP3 POP PUSH2 0x100 EXP DUP2 SLOAD DUP2 PUSH3 0xFFFFFF MUL NOT AND SWAP1 DUP4 PUSH3 0xFFFFFF AND MUL OR SWAP1 SSTORE POP PUSH3 0x15180 PUSH1 0xA PUSH1 0x0 DUP3 DUP3 SLOAD PUSH2 0xD6A SWAP2 SWAP1 PUSH2 0x2FCE JUMP JUMPDEST SWAP1 SWAP2 SSTORE POP POP PUSH1 0xB SLOAD PUSH1 0xA SLOAD PUSH1 0x40 MLOAD SWAP1 DUP2 MSTORE PUSH3 0xFFFFFF SWAP1 SWAP2 AND SWAP1 PUSH32 0x70ABA4EECFB00A70E5AAE193521BC256FC3CBF7A91479F6BCDA4B5A82F986961 SWAP1 PUSH1 0x20 ADD PUSH1 0x40 MLOAD DUP1 SWAP2 SUB SWAP1 LOG2 POP POP POP JUMP JUMPDEST PUSH2 0xDBD PUSH2 0x1739 JUMP JUMPDEST PUSH1 0x17 DUP1 SLOAD PUSH1 0xFF NOT DUP2 AND PUSH1 0xFF SWAP1 SWAP2 AND ISZERO OR SWAP1 SSTORE JUMP JUMPDEST DUP1 ISZERO DUP1 PUSH2 0xDDF JUMPI POP PUSH2 0x12C DUP2 GT JUMPDEST ISZERO PUSH2 0xDE9 JUMPI POP PUSH2 0x12C JUMPDEST PUSH3 0xFFFFFF DUP3 AND PUSH1 0x0 SWAP1 DUP2 MSTORE PUSH1 0x16 PUSH1 0x20 MSTORE PUSH1 0x40 SWAP1 KECCAK256 DUP1 SLOAD PUSH1 0x1 PUSH1 0xA0 SHL SWAP1 DIV PUSH1 0xFF AND ISZERO PUSH2 0xE27 JUMPI PUSH1 0x40 MLOAD PUSH4 0x683F18B PUSH1 0xE4 SHL DUP2 MSTORE PUSH1 0x4 ADD PUSH1 0x40 MLOAD DUP1 SWAP2 SUB SWAP1 REVERT JUMPDEST PUSH3 0xFFFFFF DUP4 AND PUSH1 0x0 SWAP1 DUP2 MSTORE PUSH1 0xE PUSH1 0x20 MSTORE PUSH1 0x40 SWAP1 KECCAK256 DUP2 SLOAD DUP2 SLOAD PUSH5 0x100000000 SWAP1 SWAP2 DIV PUSH4 0xFFFFFFFF AND SWAP1 DUP2 LT PUSH2 0xE6D JUMPI PUSH1 0x40 MLOAD PUSH3 0x46703 PUSH1 0xE6 SHL DUP2 MSTORE PUSH1 0x4 ADD PUSH1 0x40 MLOAD DUP1 SWAP2 SUB SWAP1 REVERT JUMPDEST PUSH1 0x0 PUSH2 0xE79 DUP6 DUP4 PUSH2 0x2FCE JUMP JUMPDEST DUP4 SLOAD SWAP1 SWAP2 POP DUP2 GT ISZERO PUSH2 0xE89 JUMPI POP DUP2 SLOAD JUMPDEST DUP2 JUMPDEST DUP2 DUP2 LT ISZERO PUSH2 0xEC9 JUMPI PUSH2 0xEB9 DUP5 DUP3 DUP2 SLOAD DUP2 LT PUSH2 0xEA8 JUMPI PUSH2 0xEA8 PUSH2 0x2F43 JUMP JUMPDEST SWAP1 PUSH1 0x0 MSTORE PUSH1 0x20 PUSH1 0x0 KECCAK256 ADD SLOAD DUP7 PUSH2 0x1E3F JUMP JUMPDEST PUSH2 0xEC2 DUP2 PUSH2 0x2F92 JUMP JUMPDEST SWAP1 POP PUSH2 0xE8B JUMP JUMPDEST POP DUP4 SLOAD PUSH8 0xFFFFFFFF00000000 NOT AND PUSH5 0x100000000 PUSH4 0xFFFFFFFF DUP4 AND MUL OR DUP5 SSTORE PUSH1 0x40 DUP1 MLOAD DUP4 DUP2 MSTORE PUSH1 0x20 DUP2 ADD DUP4 SWAP1 MSTORE PUSH3 0xFFFFFF DUP9 AND SWAP2 PUSH32 0x95F2647279697D92FBFBD24A0E306C284798157A253E2126EBF1451515F6FBD9 SWAP2 ADD PUSH1 0x40 MLOAD DUP1 SWAP2 SUB SWAP1 LOG2 DUP3 SLOAD DUP2 SUB PUSH2 0x1070 JUMPI DUP4 SLOAD PUSH1 0xFF PUSH1 0xA0 SHL NOT AND PUSH1 0x1 PUSH1 0xA0 SHL OR DUP1 DUP6 SSTORE PUSH1 0x40 DUP1 MLOAD PUSH4 0xFFFFFFFF PUSH1 0x1 PUSH1 0x40 SHL DUP5 DIV DUP2 AND DUP3 MSTORE PUSH1 0x1 PUSH1 0x60 SHL DUP5 DIV DUP2 AND PUSH1 0x20 DUP4 ADD MSTORE PUSH1 0x1 PUSH1 0x80 SHL SWAP1 SWAP4 DIV SWAP1 SWAP3 AND SWAP1 DUP3 ADD MSTORE PUSH3 0xFFFFFF DUP8 AND SWAP1 PUSH32 0x9094B2B67842ABB4391FC6C54030E03D20642491EFEB4EDA225641EAC3B10127 SWAP1 PUSH1 0x60 ADD PUSH1 0x40 MLOAD DUP1 SWAP2 SUB SWAP1 LOG2 DUP4 SLOAD PUSH1 0x1 PUSH1 0x40 SHL SWAP1 DIV PUSH4 0xFFFFFFFF AND ISZERO DUP1 ISZERO SWAP1 PUSH2 0xFC5 JUMPI POP PUSH1 0x13 SLOAD ISZERO ISZERO JUMPDEST ISZERO PUSH2 0xFEA JUMPI PUSH1 0x13 SLOAD PUSH1 0xF DUP1 SLOAD PUSH1 0x0 SWAP1 PUSH2 0xFDF SWAP1 DUP5 SWAP1 PUSH2 0x2FCE JUMP JUMPDEST SWAP1 SWAP2 SSTORE POP POP PUSH1 0x0 PUSH1 0x13 SSTORE JUMPDEST DUP4 SLOAD PUSH1 0x1 PUSH1 0x60 SHL SWAP1 DIV PUSH4 0xFFFFFFFF AND ISZERO DUP1 ISZERO SWAP1 PUSH2 0x1008 JUMPI POP PUSH1 0x14 SLOAD ISZERO ISZERO JUMPDEST ISZERO PUSH2 0x102D JUMPI PUSH1 0x14 SLOAD PUSH1 0x10 DUP1 SLOAD PUSH1 0x0 SWAP1 PUSH2 0x1022 SWAP1 DUP5 SWAP1 PUSH2 0x2FCE JUMP JUMPDEST SWAP1 SWAP2 SSTORE POP POP PUSH1 0x0 PUSH1 0x14 SSTORE JUMPDEST DUP4 SLOAD PUSH1 0x1 PUSH1 0x80 SHL SWAP1 DIV PUSH4 0xFFFFFFFF AND ISZERO DUP1 ISZERO SWAP1 PUSH2 0x104B JUMPI POP PUSH1 0x15 SLOAD ISZERO ISZERO JUMPDEST ISZERO PUSH2 0x1070 JUMPI PUSH1 0x15 SLOAD PUSH1 0x11 DUP1 SLOAD PUSH1 0x0 SWAP1 PUSH2 0x1065 SWAP1 DUP5 SWAP1 PUSH2 0x2FCE JUMP JUMPDEST SWAP1 SWAP2 SSTORE POP POP PUSH1 0x0 PUSH1 0x15 SSTORE JUMPDEST POP POP POP POP POP POP JUMP JUMPDEST PUSH1 0x0 PUSH2 0x7D6 DUP3 PUSH2 0x16F3 JUMP JUMPDEST PUSH1 0x17 SLOAD PUSH1 0x0 SWAP1 PUSH1 0x60 SWAP1 PUSH1 0xFF AND DUP1 ISZERO PUSH2 0x10A3 JUMPI POP PUSH1 0x17 SLOAD PUSH2 0x100 SWAP1 DIV PUSH1 0xFF AND ISZERO JUMPDEST DUP1 ISZERO PUSH2 0x10B1 JUMPI POP PUSH1 0xA SLOAD TIMESTAMP LT ISZERO JUMPDEST SWAP2 POP PUSH1 0x40 MLOAD DUP1 PUSH1 0x20 ADD PUSH1 0x40 MSTORE DUP1 PUSH1 0x0 DUP2 MSTORE POP SWAP1 POP SWAP3 POP SWAP3 SWAP1 POP JUMP JUMPDEST PUSH1 0x0 PUSH1 0x1 PUSH1 0x1 PUSH1 0xA0 SHL SUB DUP3 AND PUSH2 0x10F8 JUMPI PUSH1 0x40 MLOAD PUSH4 0x22718AD9 PUSH1 0xE2 SHL DUP2 MSTORE PUSH1 0x0 PUSH1 0x4 DUP3 ADD MSTORE PUSH1 0x24 ADD PUSH2 0x920 JUMP JUMPDEST POP PUSH1 0x1 PUSH1 0x1 PUSH1 0xA0 SHL SUB AND PUSH1 0x0 SWAP1 DUP2 MSTORE PUSH1 0x3 PUSH1 0x20 MSTORE PUSH1 0x40 SWAP1 KECCAK256 SLOAD SWAP1 JUMP JUMPDEST PUSH1 0x8 SLOAD PUSH1 0x1 PUSH1 0x1 PUSH1 0xA0 SHL SUB AND CALLER EQ PUSH2 0x1167 JUMPI PUSH1 0x40 MLOAD PUSH3 0x461BCD PUSH1 0xE5 SHL DUP2 MSTORE PUSH1 0x20 PUSH1 0x4 DUP3 ADD MSTORE PUSH1 0x16 PUSH1 0x24 DUP3 ADD MSTORE PUSH22 0x26BAB9BA10313290383937B837B9B2B21037BBB732B9 PUSH1 0x51 SHL PUSH1 0x44 DUP3 ADD MSTORE PUSH1 0x64 ADD PUSH2 0x920 JUMP JUMPDEST PUSH1 0x7 DUP1 SLOAD PUSH1 0x1 PUSH1 0x1 PUSH1 0xA0 SHL SUB NOT DUP1 DUP3 AND CALLER SWAP1 DUP2 OR SWAP1 SWAP4 SSTORE PUSH1 0x8 DUP1 SLOAD SWAP1 SWAP2 AND SWAP1 SSTORE PUSH1 0x40 MLOAD PUSH1 0x1 PUSH1 0x1 PUSH1 0xA0 SHL SUB SWAP1 SWAP2 AND SWAP2 SWAP1 DUP3 SWAP1 PUSH32 0x8BE0079C531659141344CD1FD0A4F28419497F9722A3DAAFE3B4186F6B6457E0 SWAP1 PUSH1 0x0 SWAP1 LOG3 POP JUMP JUMPDEST PUSH1 0x7 SLOAD PUSH1 0x1 PUSH1 0x1 PUSH1 0xA0 SHL SUB AND CALLER EQ DUP1 ISZERO SWAP1 PUSH2 0x11E8 JUMPI POP PUSH1 0x9 SLOAD PUSH1 0x1 PUSH1 0x1 PUSH1 0xA0 SHL SUB AND CALLER EQ ISZERO JUMPDEST ISZERO PUSH2 0x1239 JUMPI CALLER PUSH2 0x1200 PUSH1 0x7 SLOAD PUSH1 0x1 PUSH1 0x1 PUSH1 0xA0 SHL SUB AND SWAP1 JUMP JUMPDEST PUSH1 0x9 SLOAD PUSH1 0x40 MLOAD PUSH4 0x61DB9C1 PUSH1 0xE0 SHL DUP2 MSTORE PUSH1 0x1 PUSH1 0x1 PUSH1 0xA0 SHL SUB SWAP4 DUP5 AND PUSH1 0x4 DUP3 ADD MSTORE SWAP2 DUP4 AND PUSH1 0x24 DUP4 ADD MSTORE SWAP2 SWAP1 SWAP2 AND PUSH1 0x44 DUP3 ADD MSTORE PUSH1 0x64 ADD PUSH2 0x920 JUMP JUMPDEST PUSH1 0x1 PUSH1 0x1 PUSH1 0xA0 SHL SUB DUP2 AND PUSH2 0x1260 JUMPI PUSH1 0x40 MLOAD PUSH4 0xD92E233D PUSH1 0xE0 SHL DUP2 MSTORE PUSH1 0x4 ADD PUSH1 0x40 MLOAD DUP1 SWAP2 SUB SWAP1 REVERT JUMPDEST PUSH1 0x9 DUP1 SLOAD PUSH1 0x1 PUSH1 0x1 PUSH1 0xA0 SHL SUB NOT AND PUSH1 0x1 PUSH1 0x1 PUSH1 0xA0 SHL SUB DUP4 AND SWAP1 DUP2 OR SWAP1 SWAP2 SSTORE PUSH1 0x40 MLOAD SWAP1 DUP2 MSTORE PUSH32 0xD1A6A14209A385A964D036E404CB5CFB71F4000CDB03C9366292430787261BE6 SWAP1 PUSH1 0x20 ADD PUSH1 0x40 MLOAD DUP1 SWAP2 SUB SWAP1 LOG1 POP JUMP JUMPDEST PUSH1 0x60 PUSH1 0x1 DUP1 SLOAD PUSH2 0x7EB SWAP1 PUSH2 0x2F0F JUMP JUMPDEST PUSH2 0x8A2 CALLER DUP4 DUP4 PUSH2 0x2089 JUMP JUMPDEST PUSH2 0x12D9 DUP5 DUP5 DUP5 PUSH2 0x939 JUMP JUMPDEST PUSH2 0x9BE DUP5 DUP5 DUP5 DUP5 PUSH2 0x2128 JUMP JUMPDEST PUSH1 0x60 PUSH2 0x12F0 DUP3 PUSH2 0x16F3 JUMP JUMPDEST POP PUSH1 0x0 PUSH2 0x1308 PUSH1 0x40 DUP1 MLOAD PUSH1 0x20 DUP2 ADD SWAP1 SWAP2 MSTORE PUSH1 0x0 DUP2 MSTORE SWAP1 JUMP JUMPDEST SWAP1 POP PUSH1 0x0 DUP2 MLOAD GT PUSH2 0x1328 JUMPI PUSH1 0x40 MLOAD DUP1 PUSH1 0x20 ADD PUSH1 0x40 MSTORE DUP1 PUSH1 0x0 DUP2 MSTORE POP PUSH2 0x1353 JUMP JUMPDEST DUP1 PUSH2 0x1332 DUP5 PUSH2 0x2251 JUMP JUMPDEST PUSH1 0x40 MLOAD PUSH1 0x20 ADD PUSH2 0x1343 SWAP3 SWAP2 SWAP1 PUSH2 0x2FE1 JUMP JUMPDEST PUSH1 0x40 MLOAD PUSH1 0x20 DUP2 DUP4 SUB SUB DUP2 MSTORE SWAP1 PUSH1 0x40 MSTORE JUMPDEST SWAP4 SWAP3 POP POP POP JUMP JUMPDEST PUSH2 0x1362 PUSH2 0x1A47 JUMP JUMPDEST PUSH1 0x0 DUP2 DUP2 MSTORE PUSH1 0xD PUSH1 0x20 MSTORE PUSH1 0x40 SWAP1 KECCAK256 DUP1 SLOAD PUSH1 0x1 PUSH1 0x60 SHL SWAP1 DIV PUSH1 0xFF AND ISZERO PUSH2 0x139A JUMPI PUSH1 0x40 MLOAD PUSH4 0xC8D9EAB PUSH1 0xE3 SHL DUP2 MSTORE PUSH1 0x4 ADD PUSH1 0x40 MLOAD DUP1 SWAP2 SUB SWAP1 REVERT JUMPDEST CALLER PUSH2 0x13A4 DUP4 PUSH2 0x1078 JUMP JUMPDEST PUSH1 0x1 PUSH1 0x1 PUSH1 0xA0 SHL SUB AND EQ PUSH2 0x13CB JUMPI PUSH1 0x40 MLOAD PUSH4 0x30C63921 PUSH1 0xE1 SHL DUP2 MSTORE PUSH1 0x4 ADD PUSH1 0x40 MLOAD DUP1 SWAP2 SUB SWAP1 REVERT JUMPDEST DUP1 SLOAD PUSH1 0x1 PUSH1 0x28 SHL SWAP1 DIV PUSH3 0xFFFFFF AND PUSH1 0x0 SWAP1 DUP2 MSTORE PUSH1 0x16 PUSH1 0x20 MSTORE PUSH1 0x40 SWAP1 KECCAK256 DUP1 SLOAD PUSH1 0x1 PUSH1 0xA0 SHL SWAP1 DIV PUSH1 0xFF AND PUSH2 0x1437 JUMPI PUSH1 0x40 MLOAD PUSH3 0x461BCD PUSH1 0xE5 SHL DUP2 MSTORE PUSH1 0x20 PUSH1 0x4 DUP3 ADD MSTORE PUSH1 0x15 PUSH1 0x24 DUP3 ADD MSTORE PUSH21 0x19185E481B9BDD081C1C9BD8D95CDCD959081E595D PUSH1 0x5A SHL PUSH1 0x44 DUP3 ADD MSTORE PUSH1 0x64 ADD PUSH2 0x920 JUMP JUMPDEST DUP2 SLOAD PUSH1 0x0 SWAP1 PUSH2 0x146C SWAP1 PUSH2 0x1456 SWAP1 PUSH1 0x1 PUSH1 0x40 SHL SWAP1 DIV PUSH4 0xFFFFFFFF AND PUSH2 0x22E4 JUMP JUMPDEST DUP4 SLOAD PUSH2 0x1467 SWAP1 PUSH4 0xFFFFFFFF AND PUSH2 0x22E4 JUMP JUMPDEST PUSH2 0x2327 JUMP JUMPDEST SWAP1 POP PUSH1 0x0 DUP2 PUSH1 0xFF AND PUSH1 0x1 SUB PUSH2 0x14E8 JUMPI DUP3 SLOAD PUSH1 0x1 PUSH1 0x40 SHL SWAP1 DIV PUSH4 0xFFFFFFFF AND PUSH1 0x0 SUB PUSH2 0x14AA JUMPI PUSH1 0x40 MLOAD PUSH4 0x30C63921 PUSH1 0xE1 SHL DUP2 MSTORE PUSH1 0x4 ADD PUSH1 0x40 MLOAD DUP1 SWAP2 SUB SWAP1 REVERT JUMPDEST DUP3 SLOAD PUSH1 0xF SLOAD PUSH2 0x14C6 SWAP2 PUSH1 0x1 PUSH1 0x40 SHL SWAP1 DIV PUSH4 0xFFFFFFFF AND SWAP1 PUSH2 0x3026 JUMP JUMPDEST SWAP1 POP DUP1 PUSH1 0xF PUSH1 0x0 ADD PUSH1 0x0 DUP3 DUP3 SLOAD PUSH2 0x14DD SWAP2 SWAP1 PUSH2 0x303A JUMP JUMPDEST SWAP1 SWAP2 SSTORE POP PUSH2 0x160D SWAP1 POP JUMP JUMPDEST DUP2 PUSH1 0xFF AND PUSH1 0x2 SUB PUSH2 0x1555 JUMPI DUP3 SLOAD PUSH1 0x1 PUSH1 0x60 SHL SWAP1 DIV PUSH4 0xFFFFFFFF AND PUSH1 0x0 SUB PUSH2 0x1522 JUMPI PUSH1 0x40 MLOAD PUSH4 0x30C63921 PUSH1 0xE1 SHL DUP2 MSTORE PUSH1 0x4 ADD PUSH1 0x40 MLOAD DUP1 SWAP2 SUB SWAP1 REVERT JUMPDEST DUP3 SLOAD PUSH1 0x10 SLOAD PUSH2 0x153E SWAP2 PUSH1 0x1 PUSH1 0x60 SHL SWAP1 DIV PUSH4 0xFFFFFFFF AND SWAP1 PUSH2 0x3026 JUMP JUMPDEST SWAP1 POP DUP1 PUSH1 0xF PUSH1 0x1 ADD PUSH1 0x0 DUP3 DUP3 SLOAD PUSH2 0x14DD SWAP2 SWAP1 PUSH2 0x303A JUMP JUMPDEST DUP2 PUSH1 0xFF AND PUSH1 0x3 SUB PUSH2 0x15C2 JUMPI DUP3 SLOAD PUSH1 0x1 PUSH1 0x80 SHL SWAP1 DIV PUSH4 0xFFFFFFFF AND PUSH1 0x0 SUB PUSH2 0x158F JUMPI PUSH1 0x40 MLOAD PUSH4 0x30C63921 PUSH1 0xE1 SHL DUP2 MSTORE PUSH1 0x4 ADD PUSH1 0x40 MLOAD DUP1 SWAP2 SUB SWAP1 REVERT JUMPDEST DUP3 SLOAD PUSH1 0x11 SLOAD PUSH2 0x15AB SWAP2 PUSH1 0x1 PUSH1 0x80 SHL SWAP1 DIV PUSH4 0xFFFFFFFF AND SWAP1 PUSH2 0x3026 JUMP JUMPDEST SWAP1 POP DUP1 PUSH1 0xF PUSH1 0x2 ADD PUSH1 0x0 DUP3 DUP3 SLOAD PUSH2 0x14DD SWAP2 SWAP1 PUSH2 0x303A JUMP JUMPDEST DUP2 PUSH1 0xFF AND PUSH1 0x4 SUB PUSH2 0x15F4 JUMPI POP PUSH32 0x0 PUSH2 0x160D JUMP JUMPDEST PUSH1 0x40 MLOAD PUSH4 0x30C63921 PUSH1 0xE1 SHL DUP2 MSTORE PUSH1 0x4 ADD PUSH1 0x40 MLOAD DUP1 SWAP2 SUB SWAP1 REVERT JUMPDEST DUP4 SLOAD PUSH1 0xFF PUSH1 0x60 SHL NOT AND PUSH1 0x1 PUSH1 0x60 SHL OR DUP5 SSTORE PUSH2 0x1652 PUSH1 0x1 PUSH1 0x1 PUSH1 0xA0 SHL SUB PUSH32 0x0 AND CALLER DUP4 PUSH2 0x19E8 JUMP JUMPDEST DUP4 SLOAD PUSH1 0x40 DUP1 MLOAD CALLER DUP2 MSTORE PUSH1 0xFF DUP6 AND PUSH1 0x20 DUP3 ADD MSTORE SWAP1 DUP2 ADD DUP4 SWAP1 MSTORE DUP7 SWAP2 PUSH1 0x1 PUSH1 0x28 SHL SWAP1 DIV PUSH3 0xFFFFFF AND SWAP1 PUSH32 0xFA7D7E6FAD77BB2EB32E03CD3103BCB3DF591EA9338A7395A149D9C180A170C7 SWAP1 PUSH1 0x60 ADD PUSH1 0x40 MLOAD DUP1 SWAP2 SUB SWAP1 LOG3 POP POP POP POP PUSH2 0xC71 PUSH1 0x1 PUSH1 0x6 SSTORE JUMP JUMPDEST PUSH1 0x1 PUSH1 0x1 PUSH1 0xA0 SHL SUB SWAP2 DUP3 AND PUSH1 0x0 SWAP1 DUP2 MSTORE PUSH1 0x5 PUSH1 0x20 SWAP1 DUP2 MSTORE PUSH1 0x40 DUP1 DUP4 KECCAK256 SWAP4 SWAP1 SWAP5 AND DUP3 MSTORE SWAP2 SWAP1 SWAP2 MSTORE KECCAK256 SLOAD PUSH1 0xFF AND SWAP1 JUMP JUMPDEST PUSH2 0x16EA PUSH2 0x1739 JUMP JUMPDEST PUSH2 0xC71 DUP2 PUSH2 0x24CC JUMP JUMPDEST PUSH1 0x0 DUP2 DUP2 MSTORE PUSH1 0x2 PUSH1 0x20 MSTORE PUSH1 0x40 DUP2 KECCAK256 SLOAD PUSH1 0x1 PUSH1 0x1 PUSH1 0xA0 SHL SUB AND DUP1 PUSH2 0x7D6 JUMPI PUSH1 0x40 MLOAD PUSH4 0x7E273289 PUSH1 0xE0 SHL DUP2 MSTORE PUSH1 0x4 DUP2 ADD DUP5 SWAP1 MSTORE PUSH1 0x24 ADD PUSH2 0x920 JUMP JUMPDEST PUSH2 0x934 DUP4 DUP4 DUP4 PUSH1 0x1 PUSH2 0x2576 JUMP JUMPDEST PUSH1 0x7 SLOAD PUSH1 0x1 PUSH1 0x1 PUSH1 0xA0 SHL SUB AND CALLER EQ PUSH2 0x178C JUMPI PUSH1 0x40 MLOAD PUSH3 0x461BCD PUSH1 0xE5 SHL DUP2 MSTORE PUSH1 0x20 PUSH1 0x4 DUP3 ADD MSTORE PUSH1 0x16 PUSH1 0x24 DUP3 ADD MSTORE PUSH22 0x27B7363C9031B0B63630B1363290313C9037BBB732B9 PUSH1 0x51 SHL PUSH1 0x44 DUP3 ADD MSTORE PUSH1 0x64 ADD PUSH2 0x920 JUMP JUMPDEST JUMP JUMPDEST PUSH1 0xB SLOAD PUSH4 0x1000000 SWAP1 DIV PUSH3 0xFFFFFF AND PUSH1 0x0 DUP2 DUP2 MSTORE PUSH1 0x16 PUSH1 0x20 MSTORE PUSH1 0x40 DUP2 KECCAK256 SWAP1 DUP5 DUP5 DUP3 DUP2 PUSH2 0x17BC JUMPI PUSH2 0x17BC PUSH2 0x2F43 JUMP JUMPDEST SWAP1 POP PUSH1 0x20 MUL ADD CALLDATALOAD SWAP1 POP PUSH1 0x0 PUSH1 0x40 MLOAD DUP1 PUSH1 0x80 ADD PUSH1 0x40 MSTORE DUP1 PUSH1 0x19 DUP5 PUSH2 0x17DF SWAP2 SWAP1 PUSH2 0x304D JUMP JUMPDEST PUSH1 0xFF AND DUP2 MSTORE PUSH1 0x20 ADD PUSH2 0x17F6 PUSH1 0x19 PUSH1 0x8 DUP7 SWAP1 SHR PUSH2 0x304D JUMP JUMPDEST PUSH1 0xFF AND DUP2 MSTORE PUSH1 0x20 ADD PUSH2 0x180D PUSH1 0x19 PUSH1 0x10 DUP7 SWAP1 SHR PUSH2 0x304D JUMP JUMPDEST PUSH1 0xFF AND DUP2 MSTORE PUSH1 0x20 ADD PUSH2 0x1824 PUSH1 0x19 PUSH1 0x18 DUP7 SWAP1 SHR PUSH2 0x304D JUMP JUMPDEST PUSH1 0xFF AND SWAP1 MSTORE SWAP1 POP PUSH2 0x1872 DUP2 PUSH1 0x0 PUSH1 0x18 DUP3 PUSH1 0x3 PUSH1 0x20 MUL ADD MLOAD PUSH1 0xFF AND SWAP1 SHL PUSH1 0x10 DUP4 PUSH1 0x2 PUSH1 0x20 MUL ADD MLOAD PUSH1 0xFF AND SWAP1 SHL PUSH1 0x8 DUP5 PUSH1 0x1 PUSH1 0x20 MUL ADD MLOAD PUSH1 0xFF AND SWAP1 SHL DUP5 PUSH1 0x0 PUSH1 0x20 MUL ADD MLOAD PUSH1 0xFF AND OR OR OR SWAP3 SWAP2 POP POP JUMP JUMPDEST DUP4 SLOAD PUSH21 0xFF000000000000000000000000FFFFFFFFFFFFFFFF NOT AND PUSH4 0xFFFFFFFF SWAP2 SWAP1 SWAP2 AND OR DUP4 SSTORE PUSH1 0xB DUP1 SLOAD PUSH6 0xFFFFFF000000 NOT AND SWAP1 SSTORE PUSH1 0x40 MLOAD PUSH3 0xFFFFFF DUP6 AND SWAP1 PUSH32 0x9DEDF238B51CB2F65E712B6F39AB9F3E89A6268D251B582C9CEEC37E6DDFBA63 SWAP1 PUSH2 0x18DE SWAP1 DUP5 SWAP1 PUSH2 0x3061 JUMP JUMPDEST PUSH1 0x40 MLOAD DUP1 SWAP2 SUB SWAP1 LOG2 POP POP POP POP POP POP POP JUMP JUMPDEST PUSH1 0x0 DUP3 DUP2 MSTORE PUSH1 0x2 PUSH1 0x20 MSTORE PUSH1 0x40 DUP2 KECCAK256 SLOAD PUSH1 0x1 PUSH1 0x1 PUSH1 0xA0 SHL SUB SWAP1 DUP2 AND SWAP1 DUP4 AND ISZERO PUSH2 0x191C JUMPI PUSH2 0x191C DUP2 DUP5 DUP7 PUSH2 0x267C JUMP JUMPDEST PUSH1 0x1 PUSH1 0x1 PUSH1 0xA0 SHL SUB DUP2 AND ISZERO PUSH2 0x195A JUMPI PUSH2 0x1939 PUSH1 0x0 DUP6 PUSH1 0x0 DUP1 PUSH2 0x2576 JUMP JUMPDEST PUSH1 0x1 PUSH1 0x1 PUSH1 0xA0 SHL SUB DUP2 AND PUSH1 0x0 SWAP1 DUP2 MSTORE PUSH1 0x3 PUSH1 0x20 MSTORE PUSH1 0x40 SWAP1 KECCAK256 DUP1 SLOAD PUSH1 0x0 NOT ADD SWAP1 SSTORE JUMPDEST PUSH1 0x1 PUSH1 0x1 PUSH1 0xA0 SHL SUB DUP6 AND ISZERO PUSH2 0x1989 JUMPI PUSH1 0x1 PUSH1 0x1 PUSH1 0xA0 SHL SUB DUP6 AND PUSH1 0x0 SWAP1 DUP2 MSTORE PUSH1 0x3 PUSH1 0x20 MSTORE PUSH1 0x40 SWAP1 KECCAK256 DUP1 SLOAD PUSH1 0x1 ADD SWAP1 SSTORE JUMPDEST PUSH1 0x0 DUP5 DUP2 MSTORE PUSH1 0x2 PUSH1 0x20 MSTORE PUSH1 0x40 DUP1 DUP3 KECCAK256 DUP1 SLOAD PUSH1 0x1 PUSH1 0x1 PUSH1 0xA0 SHL SUB NOT AND PUSH1 0x1 PUSH1 0x1 PUSH1 0xA0 SHL SUB DUP10 DUP2 AND SWAP2 DUP3 OR SWAP1 SWAP3 SSTORE SWAP2 MLOAD DUP8 SWAP4 SWAP2 DUP6 AND SWAP2 PUSH32 0xDDF252AD1BE2C89B69C2B068FC378DAA952BA7F163C4A11628F55A4DF523B3EF SWAP2 LOG4 SWAP5 SWAP4 POP POP POP POP JUMP JUMPDEST PUSH1 0x40 MLOAD PUSH1 0x1 PUSH1 0x1 PUSH1 0xA0 SHL SUB DUP4 DUP2 AND PUSH1 0x24 DUP4 ADD MSTORE PUSH1 0x44 DUP3 ADD DUP4 SWAP1 MSTORE PUSH2 0x934 SWAP2 DUP6 SWAP2 DUP3 AND SWAP1 PUSH4 0xA9059CBB SWAP1 PUSH1 0x64 ADD JUMPDEST PUSH1 0x40 MLOAD PUSH1 0x20 DUP2 DUP4 SUB SUB DUP2 MSTORE SWAP1 PUSH1 0x40 MSTORE SWAP2 POP PUSH1 0xE0 SHL PUSH1 0x20 DUP3 ADD DUP1 MLOAD PUSH1 0x1 PUSH1 0x1 PUSH1 0xE0 SHL SUB DUP4 DUP2 DUP4 AND OR DUP4 MSTORE POP POP POP POP PUSH2 0x26E0 JUMP JUMPDEST PUSH1 0x2 PUSH1 0x6 SLOAD SUB PUSH2 0x1A6A JUMPI PUSH1 0x40 MLOAD PUSH4 0x3EE5AEB5 PUSH1 0xE0 SHL DUP2 MSTORE PUSH1 0x4 ADD PUSH1 0x40 MLOAD DUP1 SWAP2 SUB SWAP1 REVERT JUMPDEST PUSH1 0x2 PUSH1 0x6 SSTORE JUMP JUMPDEST PUSH1 0x40 MLOAD PUSH1 0x1 PUSH1 0x1 PUSH1 0xA0 SHL SUB DUP5 DUP2 AND PUSH1 0x24 DUP4 ADD MSTORE DUP4 DUP2 AND PUSH1 0x44 DUP4 ADD MSTORE PUSH1 0x64 DUP3 ADD DUP4 SWAP1 MSTORE PUSH2 0x9BE SWAP2 DUP7 SWAP2 DUP3 AND SWAP1 PUSH4 0x23B872DD SWAP1 PUSH1 0x84 ADD PUSH2 0x1A15 JUMP JUMPDEST PUSH2 0x8A2 DUP3 DUP3 PUSH1 0x40 MLOAD DUP1 PUSH1 0x20 ADD PUSH1 0x40 MSTORE DUP1 PUSH1 0x0 DUP2 MSTORE POP PUSH2 0x2743 JUMP JUMPDEST PUSH1 0x0 PUSH1 0x18 DUP3 PUSH1 0x3 PUSH1 0x20 MUL ADD MLOAD PUSH1 0xFF AND SWAP1 SHL PUSH1 0x10 DUP4 PUSH1 0x2 PUSH1 0x20 MUL ADD MLOAD PUSH1 0xFF AND SWAP1 SHL PUSH1 0x8 DUP5 PUSH1 0x1 PUSH1 0x20 MUL ADD MLOAD PUSH1 0xFF AND SWAP1 SHL DUP5 PUSH1 0x0 PUSH1 0x20 MUL ADD MLOAD PUSH1 0xFF AND OR OR OR SWAP3 SWAP2 POP POP JUMP JUMPDEST PUSH3 0xFFFFFF DUP2 AND PUSH1 0x0 SWAP1 DUP2 MSTORE PUSH1 0xE PUSH1 0x20 MSTORE PUSH1 0x40 DUP2 KECCAK256 SLOAD SWAP1 DUP2 SWAP1 SUB PUSH2 0x1B28 JUMPI POP POP JUMP JUMPDEST PUSH1 0x0 PUSH2 0x1B54 PUSH32 0x0 DUP4 PUSH2 0x3095 JUMP JUMPDEST SWAP1 POP PUSH1 0x0 PUSH1 0x64 PUSH2 0x1B65 PUSH1 0x50 DUP5 PUSH2 0x3095 JUMP JUMPDEST PUSH2 0x1B6F SWAP2 SWAP1 PUSH2 0x3026 JUMP JUMPDEST SWAP1 POP PUSH1 0x0 PUSH1 0x64 PUSH2 0x1B80 PUSH1 0x14 DUP6 PUSH2 0x3095 JUMP JUMPDEST PUSH2 0x1B8A SWAP2 SWAP1 PUSH2 0x3026 JUMP JUMPDEST SWAP1 POP PUSH1 0x64 PUSH2 0x1B99 PUSH1 0x50 DUP5 PUSH2 0x3095 JUMP JUMPDEST PUSH2 0x1BA3 SWAP2 SWAP1 PUSH2 0x3026 JUMP JUMPDEST PUSH1 0xF DUP1 SLOAD PUSH1 0x0 SWAP1 PUSH2 0x1BB5 SWAP1 DUP5 SWAP1 PUSH2 0x2FCE JUMP JUMPDEST SWAP1 SWAP2 SSTORE POP PUSH1 0x64 SWAP1 POP PUSH2 0x1BC8 PUSH1 0xA DUP5 PUSH2 0x3095 JUMP JUMPDEST PUSH2 0x1BD2 SWAP2 SWAP1 PUSH2 0x3026 JUMP JUMPDEST PUSH1 0x10 DUP1 SLOAD PUSH1 0x0 SWAP1 PUSH2 0x1BE4 SWAP1 DUP5 SWAP1 PUSH2 0x2FCE JUMP JUMPDEST SWAP1 SWAP2 SSTORE POP PUSH1 0x64 SWAP1 POP PUSH2 0x1BF7 PUSH1 0x5 DUP5 PUSH2 0x3095 JUMP JUMPDEST PUSH2 0x1C01 SWAP2 SWAP1 PUSH2 0x3026 JUMP JUMPDEST PUSH1 0x11 DUP1 SLOAD PUSH1 0x0 SWAP1 PUSH2 0x1C13 SWAP1 DUP5 SWAP1 PUSH2 0x2FCE JUMP JUMPDEST SWAP1 SWAP2 SSTORE POP PUSH1 0x64 SWAP1 POP PUSH2 0x1C26 PUSH1 0x5 DUP5 PUSH2 0x3095 JUMP JUMPDEST PUSH2 0x1C30 SWAP2 SWAP1 PUSH2 0x3026 JUMP JUMPDEST PUSH1 0x12 DUP1 SLOAD PUSH1 0x0 SWAP1 PUSH2 0x1C42 SWAP1 DUP5 SWAP1 PUSH2 0x2FCE JUMP JUMPDEST SWAP1 SWAP2 SSTORE POP PUSH1 0x64 SWAP1 POP PUSH2 0x1C55 PUSH1 0x50 DUP4 PUSH2 0x3095 JUMP JUMPDEST PUSH2 0x1C5F SWAP2 SWAP1 PUSH2 0x3026 JUMP JUMPDEST PUSH1 0x13 DUP1 SLOAD PUSH1 0x0 SWAP1 PUSH2 0x1C71 SWAP1 DUP5 SWAP1 PUSH2 0x2FCE JUMP JUMPDEST SWAP1 SWAP2 SSTORE POP PUSH1 0x64 SWAP1 POP PUSH2 0x1C84 PUSH1 0xA DUP4 PUSH2 0x3095 JUMP JUMPDEST PUSH2 0x1C8E SWAP2 SWAP1 PUSH2 0x3026 JUMP JUMPDEST PUSH1 0x14 DUP1 SLOAD PUSH1 0x0 SWAP1 PUSH2 0x1CA0 SWAP1 DUP5 SWAP1 PUSH2 0x2FCE JUMP JUMPDEST SWAP1 SWAP2 SSTORE POP PUSH1 0x64 SWAP1 POP PUSH2 0x1CB3 PUSH1 0xA DUP4 PUSH2 0x3095 JUMP JUMPDEST PUSH2 0x1CBD SWAP2 SWAP1 PUSH2 0x3026 JUMP JUMPDEST PUSH1 0x15 DUP1 SLOAD PUSH1 0x0 SWAP1 PUSH2 0x1CCF SWAP1 DUP5 SWAP1 PUSH2 0x2FCE JUMP JUMPDEST SWAP1 SWAP2 SSTORE POP POP POP POP POP POP POP JUMP JUMPDEST PUSH1 0x40 DUP1 MLOAD PUSH1 0xC0 DUP2 ADD DUP3 MSTORE PUSH32 0x0 DUP2 MSTORE PUSH8 0xFFFFFFFFFFFFFFFF PUSH32 0x0 AND PUSH1 0x20 DUP1 DUP4 ADD SWAP2 SWAP1 SWAP2 MSTORE PUSH1 0x3 DUP3 DUP5 ADD MSTORE PUSH3 0xD59F80 PUSH1 0x60 DUP4 ADD MSTORE PUSH1 0x1 PUSH1 0x80 DUP4 ADD MSTORE DUP3 MLOAD SWAP1 DUP2 ADD SWAP1 SWAP3 MSTORE PUSH1 0x0 DUP1 DUP4 MSTORE SWAP2 PUSH1 0xA0 DUP3 ADD SWAP1 PUSH2 0x1D6E SWAP1 PUSH2 0x275A JUMP JUMPDEST SWAP1 MSTORE PUSH1 0x40 MLOAD PUSH4 0x4D8E1C2F PUSH1 0xE1 SHL DUP2 MSTORE SWAP1 SWAP2 POP PUSH1 0x0 SWAP1 PUSH1 0x1 PUSH1 0x1 PUSH1 0xA0 SHL SUB PUSH32 0x0 AND SWAP1 PUSH4 0x9B1C385E SWAP1 PUSH2 0x1DC2 SWAP1 DUP6 SWAP1 PUSH1 0x4 ADD PUSH2 0x30AC JUMP JUMPDEST PUSH1 0x20 PUSH1 0x40 MLOAD DUP1 DUP4 SUB DUP2 PUSH1 0x0 DUP8 GAS CALL ISZERO DUP1 ISZERO PUSH2 0x1DE1 JUMPI RETURNDATASIZE PUSH1 0x0 DUP1 RETURNDATACOPY RETURNDATASIZE PUSH1 0x0 REVERT JUMPDEST POP POP POP POP PUSH1 0x40 MLOAD RETURNDATASIZE PUSH1 0x1F NOT PUSH1 0x1F DUP3 ADD AND DUP3 ADD DUP1 PUSH1 0x40 MSTORE POP DUP2 ADD SWAP1 PUSH2 0x1E05 SWAP2 SWAP1 PUSH2 0x3109 JUMP JUMPDEST SWAP1 POP DUP3 PUSH3 0xFFFFFF AND DUP2 PUSH32 0x6D9C99357D359EBC464C51FB3162F671B2BD8FECD626DD9F4F5E329076AA00F2 PUSH1 0x40 MLOAD PUSH1 0x40 MLOAD DUP1 SWAP2 SUB SWAP1 LOG3 POP POP POP JUMP JUMPDEST PUSH1 0x0 DUP3 DUP2 MSTORE PUSH1 0xD PUSH1 0x20 MSTORE PUSH1 0x40 DUP2 KECCAK256 DUP1 SLOAD SWAP1 SWAP2 SWAP1 PUSH2 0x1E68 SWAP1 PUSH1 0x1 PUSH1 0x40 SHL SWAP1 DIV PUSH4 0xFFFFFFFF AND PUSH2 0x22E4 JUMP JUMPDEST DUP4 SLOAD SWAP1 SWAP2 POP PUSH1 0x0 SWAP1 PUSH2 0x1E7F SWAP1 PUSH4 0xFFFFFFFF AND PUSH2 0x22E4 JUMP JUMPDEST SWAP1 POP PUSH1 0x0 DUP1 PUSH1 0x0 JUMPDEST PUSH1 0x4 DUP2 LT ISZERO PUSH2 0x1ED8 JUMPI DUP4 DUP2 PUSH1 0x4 DUP2 LT PUSH2 0x1EA2 JUMPI PUSH2 0x1EA2 PUSH2 0x2F43 JUMP JUMPDEST PUSH1 0x20 MUL ADD MLOAD PUSH1 0xFF AND DUP6 DUP3 PUSH1 0x4 DUP2 LT PUSH2 0x1EBC JUMPI PUSH2 0x1EBC PUSH2 0x2F43 JUMP JUMPDEST PUSH1 0x20 MUL ADD MLOAD PUSH1 0xFF AND SUB PUSH2 0x1ED0 JUMPI DUP3 PUSH1 0x1 ADD SWAP3 POP JUMPDEST PUSH1 0x1 ADD PUSH2 0x1E87 JUMP JUMPDEST POP DUP2 PUSH1 0xFF AND PUSH1 0x4 SUB PUSH2 0x1F28 JUMPI DUP6 SLOAD DUP7 SWAP1 PUSH1 0x8 SWAP1 PUSH2 0x1F01 SWAP1 PUSH1 0x1 PUSH1 0x40 SHL SWAP1 DIV PUSH4 0xFFFFFFFF AND PUSH2 0x3122 JUMP JUMPDEST SWAP2 SWAP1 PUSH2 0x100 EXP DUP2 SLOAD DUP2 PUSH4 0xFFFFFFFF MUL NOT AND SWAP1 DUP4 PUSH4 0xFFFFFFFF AND MUL OR SWAP1 SSTORE POP POP POP POP POP POP POP POP JUMP JUMPDEST DUP2 PUSH1 0xFF AND PUSH1 0x3 SUB PUSH2 0x1F50 JUMPI DUP6 SLOAD DUP7 SWAP1 PUSH1 0x10 SWAP1 PUSH2 0x1F01 SWAP1 PUSH1 0x1 PUSH1 0x80 SHL SWAP1 DIV PUSH4 0xFFFFFFFF AND PUSH2 0x3122 JUMP JUMPDEST PUSH2 0x1F58 PUSH2 0x2A9E JUMP JUMPDEST PUSH1 0x0 JUMPDEST PUSH1 0x4 DUP2 LT ISZERO PUSH2 0x1FA6 JUMPI DUP2 DUP7 DUP3 PUSH1 0x4 DUP2 LT PUSH2 0x1F77 JUMPI PUSH2 0x1F77 PUSH2 0x2F43 JUMP JUMPDEST PUSH1 0x20 MUL ADD MLOAD PUSH1 0xFF AND PUSH1 0x19 DUP2 LT PUSH2 0x1F8F JUMPI PUSH2 0x1F8F PUSH2 0x2F43 JUMP JUMPDEST PUSH1 0x20 MUL ADD DUP1 MLOAD PUSH1 0xFF PUSH1 0x1 SWAP2 DUP3 ADD AND SWAP1 SWAP2 MSTORE ADD PUSH2 0x1F5B JUMP JUMPDEST POP PUSH1 0x0 JUMPDEST PUSH1 0x4 DUP2 LT ISZERO PUSH2 0x2037 JUMPI PUSH1 0x0 DUP3 DUP7 DUP4 PUSH1 0x4 DUP2 LT PUSH2 0x1FC8 JUMPI PUSH2 0x1FC8 PUSH2 0x2F43 JUMP JUMPDEST PUSH1 0x20 MUL ADD MLOAD PUSH1 0xFF AND PUSH1 0x19 DUP2 LT PUSH2 0x1FE0 JUMPI PUSH2 0x1FE0 PUSH2 0x2F43 JUMP JUMPDEST PUSH1 0x20 MUL ADD MLOAD PUSH1 0xFF AND GT ISZERO PUSH2 0x202F JUMPI DUP3 PUSH1 0x1 ADD SWAP3 POP DUP2 DUP6 DUP3 PUSH1 0x4 DUP2 LT PUSH2 0x2007 JUMPI PUSH2 0x2007 PUSH2 0x2F43 JUMP JUMPDEST PUSH1 0x20 MUL ADD MLOAD PUSH1 0xFF AND PUSH1 0x19 DUP2 LT PUSH2 0x201F JUMPI PUSH2 0x201F PUSH2 0x2F43 JUMP JUMPDEST PUSH1 0x20 MUL ADD DUP1 MLOAD PUSH1 0x0 NOT ADD PUSH1 0xFF AND SWAP1 MSTORE JUMPDEST PUSH1 0x1 ADD PUSH2 0x1FAA JUMP JUMPDEST POP DUP2 PUSH1 0xFF AND PUSH1 0x4 SUB PUSH2 0x207F JUMPI DUP7 SLOAD DUP8 SWAP1 PUSH1 0xC SWAP1 PUSH2 0x2060 SWAP1 PUSH1 0x1 PUSH1 0x60 SHL SWAP1 DIV PUSH4 0xFFFFFFFF AND PUSH2 0x3122 JUMP JUMPDEST SWAP2 SWAP1 PUSH2 0x100 EXP DUP2 SLOAD DUP2 PUSH4 0xFFFFFFFF MUL NOT AND SWAP1 DUP4 PUSH4 0xFFFFFFFF AND MUL OR SWAP1 SSTORE POP JUMPDEST POP POP POP POP POP POP POP POP JUMP JUMPDEST PUSH1 0x1 PUSH1 0x1 PUSH1 0xA0 SHL SUB DUP3 AND PUSH2 0x20BB JUMPI PUSH1 0x40 MLOAD PUSH4 0xB611743 PUSH1 0xE3 SHL DUP2 MSTORE PUSH1 0x1 PUSH1 0x1 PUSH1 0xA0 SHL SUB DUP4 AND PUSH1 0x4 DUP3 ADD MSTORE PUSH1 0x24 ADD PUSH2 0x920 JUMP JUMPDEST PUSH1 0x1 PUSH1 0x1 PUSH1 0xA0 SHL SUB DUP4 DUP2 AND PUSH1 0x0 DUP2 DUP2 MSTORE PUSH1 0x5 PUSH1 0x20 SWAP1 DUP2 MSTORE PUSH1 0x40 DUP1 DUP4 KECCAK256 SWAP5 DUP8 AND DUP1 DUP5 MSTORE SWAP5 DUP3 MSTORE SWAP2 DUP3 SWAP1 KECCAK256 DUP1 SLOAD PUSH1 0xFF NOT AND DUP7 ISZERO ISZERO SWAP1 DUP2 OR SWAP1 SWAP2 SSTORE SWAP2 MLOAD SWAP2 DUP3 MSTORE PUSH32 0x17307EAB39AB6107E8899845AD3D59BD9653F200F220920489CA2B5937696C31 SWAP2 ADD PUSH1 0x40 MLOAD DUP1 SWAP2 SUB SWAP1 LOG3 POP POP POP JUMP JUMPDEST PUSH1 0x1 PUSH1 0x1 PUSH1 0xA0 SHL SUB DUP4 AND EXTCODESIZE ISZERO PUSH2 0x9BE JUMPI PUSH1 0x40 MLOAD PUSH4 0xA85BD01 PUSH1 0xE1 SHL DUP2 MSTORE PUSH1 0x1 PUSH1 0x1 PUSH1 0xA0 SHL SUB DUP5 AND SWAP1 PUSH4 0x150B7A02 SWAP1 PUSH2 0x216A SWAP1 CALLER SWAP1 DUP9 SWAP1 DUP8 SWAP1 DUP8 SWAP1 PUSH1 0x4 ADD PUSH2 0x3145 JUMP JUMPDEST PUSH1 0x20 PUSH1 0x40 MLOAD DUP1 DUP4 SUB DUP2 PUSH1 0x0 DUP8 GAS CALL SWAP3 POP POP POP DUP1 ISZERO PUSH2 0x21A5 JUMPI POP PUSH1 0x40 DUP1 MLOAD PUSH1 0x1F RETURNDATASIZE SWAP1 DUP2 ADD PUSH1 0x1F NOT AND DUP3 ADD SWAP1 SWAP3 MSTORE PUSH2 0x21A2 SWAP2 DUP2 ADD SWAP1 PUSH2 0x3178 JUMP JUMPDEST PUSH1 0x1 JUMPDEST PUSH2 0x220E JUMPI RETURNDATASIZE DUP1 DUP1 ISZERO PUSH2 0x21D3 JUMPI PUSH1 0x40 MLOAD SWAP2 POP PUSH1 0x1F NOT PUSH1 0x3F RETURNDATASIZE ADD AND DUP3 ADD PUSH1 0x40 MSTORE RETURNDATASIZE DUP3 MSTORE RETURNDATASIZE PUSH1 0x0 PUSH1 0x20 DUP5 ADD RETURNDATACOPY PUSH2 0x21D8 JUMP JUMPDEST PUSH1 0x60 SWAP2 POP JUMPDEST POP DUP1 MLOAD PUSH1 0x0 SUB PUSH2 0x2206 JUMPI PUSH1 0x40 MLOAD PUSH4 0x32505749 PUSH1 0xE1 SHL DUP2 MSTORE PUSH1 0x1 PUSH1 0x1 PUSH1 0xA0 SHL SUB DUP6 AND PUSH1 0x4 DUP3 ADD MSTORE PUSH1 0x24 ADD PUSH2 0x920 JUMP JUMPDEST DUP1 MLOAD DUP2 PUSH1 0x20 ADD REVERT JUMPDEST PUSH1 0x1 PUSH1 0x1 PUSH1 0xE0 SHL SUB NOT DUP2 AND PUSH4 0xA85BD01 PUSH1 0xE1 SHL EQ PUSH2 0x224A JUMPI PUSH1 0x40 MLOAD PUSH4 0x32505749 PUSH1 0xE1 SHL DUP2 MSTORE PUSH1 0x1 PUSH1 0x1 PUSH1 0xA0 SHL SUB DUP6 AND PUSH1 0x4 DUP3 ADD MSTORE PUSH1 0x24 ADD PUSH2 0x920 JUMP JUMPDEST POP POP POP POP POP JUMP JUMPDEST PUSH1 0x60 PUSH1 0x0 PUSH2 0x225E DUP4 PUSH2 0x27CB JUMP JUMPDEST PUSH1 0x1 ADD SWAP1 POP PUSH1 0x0 DUP2 PUSH8 0xFFFFFFFFFFFFFFFF DUP2 GT ISZERO PUSH2 0x227E JUMPI PUSH2 0x227E PUSH2 0x2DCF JUMP JUMPDEST PUSH1 0x40 MLOAD SWAP1 DUP1 DUP3 MSTORE DUP1 PUSH1 0x1F ADD PUSH1 0x1F NOT AND PUSH1 0x20 ADD DUP3 ADD PUSH1 0x40 MSTORE DUP1 ISZERO PUSH2 0x22A8 JUMPI PUSH1 0x20 DUP3 ADD DUP2 DUP1 CALLDATASIZE DUP4 CALLDATACOPY ADD SWAP1 POP JUMPDEST POP SWAP1 POP DUP2 DUP2 ADD PUSH1 0x20 ADD JUMPDEST PUSH1 0x0 NOT ADD PUSH16 0x181899199A1A9B1B9C1CB0B131B232B3 PUSH1 0x81 SHL PUSH1 0xA DUP7 MOD BYTE DUP2 MSTORE8 PUSH1 0xA DUP6 DIV SWAP5 POP DUP5 PUSH2 0x22B2 JUMPI POP SWAP4 SWAP3 POP POP POP JUMP JUMPDEST PUSH2 0x22EC PUSH2 0x2ABD JUMP JUMPDEST POP PUSH1 0x40 DUP1 MLOAD PUSH1 0x80 DUP2 ADD DUP3 MSTORE PUSH1 0xFF DUP1 DUP5 AND DUP3 MSTORE PUSH1 0x8 DUP5 SWAP1 SHR DUP2 AND PUSH1 0x20 DUP4 ADD MSTORE PUSH1 0x10 DUP5 SWAP1 SHR DUP2 AND SWAP3 DUP3 ADD SWAP3 SWAP1 SWAP3 MSTORE PUSH1 0x18 SWAP3 SWAP1 SWAP3 SHR AND PUSH1 0x60 DUP3 ADD MSTORE SWAP1 JUMP JUMPDEST PUSH1 0x0 DUP1 PUSH1 0x0 JUMPDEST PUSH1 0x4 DUP2 LT ISZERO PUSH2 0x237E JUMPI DUP4 DUP2 PUSH1 0x4 DUP2 LT PUSH2 0x2348 JUMPI PUSH2 0x2348 PUSH2 0x2F43 JUMP JUMPDEST PUSH1 0x20 MUL ADD MLOAD PUSH1 0xFF AND DUP6 DUP3 PUSH1 0x4 DUP2 LT PUSH2 0x2362 JUMPI PUSH2 0x2362 PUSH2 0x2F43 JUMP JUMPDEST PUSH1 0x20 MUL ADD MLOAD PUSH1 0xFF AND SUB PUSH2 0x2376 JUMPI DUP2 PUSH1 0x1 ADD SWAP2 POP JUMPDEST PUSH1 0x1 ADD PUSH2 0x232D JUMP JUMPDEST POP DUP1 PUSH1 0xFF AND PUSH1 0x4 SUB PUSH2 0x2394 JUMPI PUSH1 0x1 SWAP2 POP POP PUSH2 0x7D6 JUMP JUMPDEST DUP1 PUSH1 0xFF AND PUSH1 0x3 SUB PUSH2 0x23A9 JUMPI PUSH1 0x3 SWAP2 POP POP PUSH2 0x7D6 JUMP JUMPDEST PUSH2 0x23B1 PUSH2 0x2A9E JUMP JUMPDEST PUSH1 0x0 DUP1 JUMPDEST PUSH1 0x4 DUP2 LT ISZERO PUSH2 0x2400 JUMPI DUP3 DUP8 DUP3 PUSH1 0x4 DUP2 LT PUSH2 0x23D1 JUMPI PUSH2 0x23D1 PUSH2 0x2F43 JUMP JUMPDEST PUSH1 0x20 MUL ADD MLOAD PUSH1 0xFF AND PUSH1 0x19 DUP2 LT PUSH2 0x23E9 JUMPI PUSH2 0x23E9 PUSH2 0x2F43 JUMP JUMPDEST PUSH1 0x20 MUL ADD DUP1 MLOAD PUSH1 0xFF PUSH1 0x1 SWAP2 DUP3 ADD AND SWAP1 SWAP2 MSTORE ADD PUSH2 0x23B5 JUMP JUMPDEST POP PUSH1 0x0 JUMPDEST PUSH1 0x4 DUP2 LT ISZERO PUSH2 0x2491 JUMPI PUSH1 0x0 DUP4 DUP8 DUP4 PUSH1 0x4 DUP2 LT PUSH2 0x2422 JUMPI PUSH2 0x2422 PUSH2 0x2F43 JUMP JUMPDEST PUSH1 0x20 MUL ADD MLOAD PUSH1 0xFF AND PUSH1 0x19 DUP2 LT PUSH2 0x243A JUMPI PUSH2 0x243A PUSH2 0x2F43 JUMP JUMPDEST PUSH1 0x20 MUL ADD MLOAD PUSH1 0xFF AND GT ISZERO PUSH2 0x2489 JUMPI DUP2 PUSH1 0x1 ADD SWAP2 POP DUP3 DUP7 DUP3 PUSH1 0x4 DUP2 LT PUSH2 0x2461 JUMPI PUSH2 0x2461 PUSH2 0x2F43 JUMP JUMPDEST PUSH1 0x20 MUL ADD MLOAD PUSH1 0xFF AND PUSH1 0x19 DUP2 LT PUSH2 0x2479 JUMPI PUSH2 0x2479 PUSH2 0x2F43 JUMP JUMPDEST PUSH1 0x20 MUL ADD DUP1 MLOAD PUSH1 0x0 NOT ADD PUSH1 0xFF AND SWAP1 MSTORE JUMPDEST PUSH1 0x1 ADD PUSH2 0x2404 JUMP JUMPDEST POP DUP1 PUSH1 0xFF AND PUSH1 0x4 SUB PUSH2 0x24A9 JUMPI PUSH1 0x2 SWAP4 POP POP POP POP PUSH2 0x7D6 JUMP JUMPDEST DUP1 PUSH1 0xFF AND PUSH1 0x3 SUB PUSH2 0x24C0 JUMPI PUSH1 0x4 SWAP4 POP POP POP POP PUSH2 0x7D6 JUMP JUMPDEST POP PUSH1 0x0 SWAP6 SWAP5 POP POP POP POP POP JUMP JUMPDEST CALLER PUSH1 0x1 PUSH1 0x1 PUSH1 0xA0 SHL SUB DUP3 AND SUB PUSH2 0x2524 JUMPI PUSH1 0x40 MLOAD PUSH3 0x461BCD PUSH1 0xE5 SHL DUP2 MSTORE PUSH1 0x20 PUSH1 0x4 DUP3 ADD MSTORE PUSH1 0x17 PUSH1 0x24 DUP3 ADD MSTORE PUSH32 0x43616E6E6F74207472616E7366657220746F2073656C66000000000000000000 PUSH1 0x44 DUP3 ADD MSTORE PUSH1 0x64 ADD PUSH2 0x920 JUMP JUMPDEST PUSH1 0x8 DUP1 SLOAD PUSH1 0x1 PUSH1 0x1 PUSH1 0xA0 SHL SUB NOT AND PUSH1 0x1 PUSH1 0x1 PUSH1 0xA0 SHL SUB DUP4 DUP2 AND SWAP2 DUP3 OR SWAP1 SWAP3 SSTORE PUSH1 0x7 SLOAD PUSH1 0x40 MLOAD SWAP2 SWAP3 AND SWAP1 PUSH32 0xED8889F560326EB138920D842192F0EB3DD22B4F139C87A2C57538E05BAE1278 SWAP1 PUSH1 0x0 SWAP1 LOG3 POP JUMP JUMPDEST DUP1 DUP1 PUSH2 0x258A JUMPI POP PUSH1 0x1 PUSH1 0x1 PUSH1 0xA0 SHL SUB DUP3 AND ISZERO ISZERO JUMPDEST ISZERO PUSH2 0x264C JUMPI PUSH1 0x0 PUSH2 0x259A DUP5 PUSH2 0x16F3 JUMP JUMPDEST SWAP1 POP PUSH1 0x1 PUSH1 0x1 PUSH1 0xA0 SHL SUB DUP4 AND ISZERO DUP1 ISZERO SWAP1 PUSH2 0x25C6 JUMPI POP DUP3 PUSH1 0x1 PUSH1 0x1 PUSH1 0xA0 SHL SUB AND DUP2 PUSH1 0x1 PUSH1 0x1 PUSH1 0xA0 SHL SUB AND EQ ISZERO JUMPDEST DUP1 ISZERO PUSH2 0x25D9 JUMPI POP PUSH2 0x25D7 DUP2 DUP5 PUSH2 0x16B4 JUMP JUMPDEST ISZERO JUMPDEST ISZERO PUSH2 0x2602 JUMPI PUSH1 0x40 MLOAD PUSH4 0xA9FBF51F PUSH1 0xE0 SHL DUP2 MSTORE PUSH1 0x1 PUSH1 0x1 PUSH1 0xA0 SHL SUB DUP5 AND PUSH1 0x4 DUP3 ADD MSTORE PUSH1 0x24 ADD PUSH2 0x920 JUMP JUMPDEST DUP2 ISZERO PUSH2 0x264A JUMPI DUP4 DUP6 PUSH1 0x1 PUSH1 0x1 PUSH1 0xA0 SHL SUB AND DUP3 PUSH1 0x1 PUSH1 0x1 PUSH1 0xA0 SHL SUB AND PUSH32 0x8C5BE1E5EBEC7D5BD14F71427D1E84F3DD0314C0F7B2291E5B200AC8C7C3B925 PUSH1 0x40 MLOAD PUSH1 0x40 MLOAD DUP1 SWAP2 SUB SWAP1 LOG4 JUMPDEST POP JUMPDEST POP POP PUSH1 0x0 SWAP1 DUP2 MSTORE PUSH1 0x4 PUSH1 0x20 MSTORE PUSH1 0x40 SWAP1 KECCAK256 DUP1 SLOAD PUSH1 0x1 PUSH1 0x1 PUSH1 0xA0 SHL SUB NOT AND PUSH1 0x1 PUSH1 0x1 PUSH1 0xA0 SHL SUB SWAP3 SWAP1 SWAP3 AND SWAP2 SWAP1 SWAP2 OR SWAP1 SSTORE JUMP JUMPDEST PUSH2 0x2687 DUP4 DUP4 DUP4 PUSH2 0x28A3 JUMP JUMPDEST PUSH2 0x934 JUMPI PUSH1 0x1 PUSH1 0x1 PUSH1 0xA0 SHL SUB DUP4 AND PUSH2 0x26B5 JUMPI PUSH1 0x40 MLOAD PUSH4 0x7E273289 PUSH1 0xE0 SHL DUP2 MSTORE PUSH1 0x4 DUP2 ADD DUP3 SWAP1 MSTORE PUSH1 0x24 ADD PUSH2 0x920 JUMP JUMPDEST PUSH1 0x40 MLOAD PUSH4 0x177E802F PUSH1 0xE0 SHL DUP2 MSTORE PUSH1 0x1 PUSH1 0x1 PUSH1 0xA0 SHL SUB DUP4 AND PUSH1 0x4 DUP3 ADD MSTORE PUSH1 0x24 DUP2 ADD DUP3 SWAP1 MSTORE PUSH1 0x44 ADD PUSH2 0x920 JUMP JUMPDEST PUSH1 0x0 PUSH2 0x26F5 PUSH1 0x1 PUSH1 0x1 PUSH1 0xA0 SHL SUB DUP5 AND DUP4 PUSH2 0x2909 JUMP JUMPDEST SWAP1 POP DUP1 MLOAD PUSH1 0x0 EQ ISZERO DUP1 ISZERO PUSH2 0x271A JUMPI POP DUP1 DUP1 PUSH1 0x20 ADD SWAP1 MLOAD DUP2 ADD SWAP1 PUSH2 0x2718 SWAP2 SWAP1 PUSH2 0x3195 JUMP JUMPDEST ISZERO JUMPDEST ISZERO PUSH2 0x934 JUMPI PUSH1 0x40 MLOAD PUSH4 0x5274AFE7 PUSH1 0xE0 SHL DUP2 MSTORE PUSH1 0x1 PUSH1 0x1 PUSH1 0xA0 SHL SUB DUP5 AND PUSH1 0x4 DUP3 ADD MSTORE PUSH1 0x24 ADD PUSH2 0x920 JUMP JUMPDEST PUSH2 0x274D DUP4 DUP4 PUSH2 0x2917 JUMP JUMPDEST PUSH2 0x934 PUSH1 0x0 DUP5 DUP5 DUP5 PUSH2 0x2128 JUMP JUMPDEST PUSH1 0x60 PUSH32 0x92FD13387C7FE7BEFBC38D303D6468778FB9731BC4583F17D92989C6FCFDEAAA DUP3 PUSH1 0x40 MLOAD PUSH1 0x24 ADD PUSH2 0x2793 SWAP2 MLOAD ISZERO ISZERO DUP2 MSTORE PUSH1 0x20 ADD SWAP1 JUMP JUMPDEST PUSH1 0x40 DUP1 MLOAD PUSH1 0x1F NOT DUP2 DUP5 SUB ADD DUP2 MSTORE SWAP2 SWAP1 MSTORE PUSH1 0x20 DUP2 ADD DUP1 MLOAD PUSH1 0x1 PUSH1 0x1 PUSH1 0xE0 SHL SUB AND PUSH1 0x1 PUSH1 0x1 PUSH1 0xE0 SHL SUB NOT SWAP1 SWAP4 AND SWAP3 SWAP1 SWAP3 OR SWAP1 SWAP2 MSTORE SWAP3 SWAP2 POP POP JUMP JUMPDEST PUSH1 0x0 DUP1 PUSH19 0x184F03E93FF9F4DAA797ED6E38ED64BF6A1F01 PUSH1 0x40 SHL DUP4 LT PUSH2 0x280A JUMPI PUSH19 0x184F03E93FF9F4DAA797ED6E38ED64BF6A1F01 PUSH1 0x40 SHL DUP4 DIV SWAP3 POP PUSH1 0x40 ADD JUMPDEST PUSH14 0x4EE2D6D415B85ACEF8100000000 DUP4 LT PUSH2 0x2836 JUMPI PUSH14 0x4EE2D6D415B85ACEF8100000000 DUP4 DIV SWAP3 POP PUSH1 0x20 ADD JUMPDEST PUSH7 0x2386F26FC10000 DUP4 LT PUSH2 0x2854 JUMPI PUSH7 0x2386F26FC10000 DUP4 DIV SWAP3 POP PUSH1 0x10 ADD JUMPDEST PUSH4 0x5F5E100 DUP4 LT PUSH2 0x286C JUMPI PUSH4 0x5F5E100 DUP4 DIV SWAP3 POP PUSH1 0x8 ADD JUMPDEST PUSH2 0x2710 DUP4 LT PUSH2 0x2880 JUMPI PUSH2 0x2710 DUP4 DIV SWAP3 POP PUSH1 0x4 ADD JUMPDEST PUSH1 0x64 DUP4 LT PUSH2 0x2892 JUMPI PUSH1 0x64 DUP4 DIV SWAP3 POP PUSH1 0x2 ADD JUMPDEST PUSH1 0xA DUP4 LT PUSH2 0x7D6 JUMPI PUSH1 0x1 ADD SWAP3 SWAP2 POP POP JUMP JUMPDEST PUSH1 0x0 PUSH1 0x1 PUSH1 0x1 PUSH1 0xA0 SHL SUB DUP4 AND ISZERO DUP1 ISZERO SWAP1 PUSH2 0x2901 JUMPI POP DUP3 PUSH1 0x1 PUSH1 0x1 PUSH1 0xA0 SHL SUB AND DUP5 PUSH1 0x1 PUSH1 0x1 PUSH1 0xA0 SHL SUB AND EQ DUP1 PUSH2 0x28DD JUMPI POP PUSH2 0x28DD DUP5 DUP5 PUSH2 0x16B4 JUMP JUMPDEST DUP1 PUSH2 0x2901 JUMPI POP PUSH1 0x0 DUP3 DUP2 MSTORE PUSH1 0x4 PUSH1 0x20 MSTORE PUSH1 0x40 SWAP1 KECCAK256 SLOAD PUSH1 0x1 PUSH1 0x1 PUSH1 0xA0 SHL SUB DUP5 DUP2 AND SWAP2 AND EQ JUMPDEST SWAP5 SWAP4 POP POP POP POP JUMP JUMPDEST PUSH1 0x60 PUSH2 0x1353 DUP4 DUP4 PUSH1 0x0 PUSH2 0x297C JUMP JUMPDEST PUSH1 0x1 PUSH1 0x1 PUSH1 0xA0 SHL SUB DUP3 AND PUSH2 0x2941 JUMPI PUSH1 0x40 MLOAD PUSH4 0x32505749 PUSH1 0xE1 SHL DUP2 MSTORE PUSH1 0x0 PUSH1 0x4 DUP3 ADD MSTORE PUSH1 0x24 ADD PUSH2 0x920 JUMP JUMPDEST PUSH1 0x0 PUSH2 0x294F DUP4 DUP4 PUSH1 0x0 PUSH2 0x18EF JUMP JUMPDEST SWAP1 POP PUSH1 0x1 PUSH1 0x1 PUSH1 0xA0 SHL SUB DUP2 AND ISZERO PUSH2 0x934 JUMPI PUSH1 0x40 MLOAD PUSH4 0x39E35637 PUSH1 0xE1 SHL DUP2 MSTORE PUSH1 0x0 PUSH1 0x4 DUP3 ADD MSTORE PUSH1 0x24 ADD PUSH2 0x920 JUMP JUMPDEST PUSH1 0x60 DUP2 SELFBALANCE LT ISZERO PUSH2 0x29A1 JUMPI PUSH1 0x40 MLOAD PUSH4 0xCD786059 PUSH1 0xE0 SHL DUP2 MSTORE ADDRESS PUSH1 0x4 DUP3 ADD MSTORE PUSH1 0x24 ADD PUSH2 0x920 JUMP JUMPDEST PUSH1 0x0 DUP1 DUP6 PUSH1 0x1 PUSH1 0x1 PUSH1 0xA0 SHL SUB AND DUP5 DUP7 PUSH1 0x40 MLOAD PUSH2 0x29BD SWAP2 SWAP1 PUSH2 0x31B2 JUMP JUMPDEST PUSH1 0x0 PUSH1 0x40 MLOAD DUP1 DUP4 SUB DUP2 DUP6 DUP8 GAS CALL SWAP3 POP POP POP RETURNDATASIZE DUP1 PUSH1 0x0 DUP2 EQ PUSH2 0x29FA JUMPI PUSH1 0x40 MLOAD SWAP2 POP PUSH1 0x1F NOT PUSH1 0x3F RETURNDATASIZE ADD AND DUP3 ADD PUSH1 0x40 MSTORE RETURNDATASIZE DUP3 MSTORE RETURNDATASIZE PUSH1 0x0 PUSH1 0x20 DUP5 ADD RETURNDATACOPY PUSH2 0x29FF JUMP JUMPDEST PUSH1 0x60 SWAP2 POP JUMPDEST POP SWAP2 POP SWAP2 POP PUSH2 0x2A0F DUP7 DUP4 DUP4 PUSH2 0x2A19 JUMP JUMPDEST SWAP7 SWAP6 POP POP POP POP POP POP JUMP JUMPDEST PUSH1 0x60 DUP3 PUSH2 0x2A2E JUMPI PUSH2 0x2A29 DUP3 PUSH2 0x2A75 JUMP JUMPDEST PUSH2 0x1353 JUMP JUMPDEST DUP2 MLOAD ISZERO DUP1 ISZERO PUSH2 0x2A45 JUMPI POP PUSH1 0x1 PUSH1 0x1 PUSH1 0xA0 SHL SUB DUP5 AND EXTCODESIZE ISZERO JUMPDEST ISZERO PUSH2 0x2A6E JUMPI PUSH1 0x40 MLOAD PUSH4 0x9996B315 PUSH1 0xE0 SHL DUP2 MSTORE PUSH1 0x1 PUSH1 0x1 PUSH1 0xA0 SHL SUB DUP6 AND PUSH1 0x4 DUP3 ADD MSTORE PUSH1 0x24 ADD PUSH2 0x920 JUMP JUMPDEST POP DUP1 PUSH2 0x1353 JUMP JUMPDEST DUP1 MLOAD ISZERO PUSH2 0x2A85 JUMPI DUP1 MLOAD DUP1 DUP3 PUSH1 0x20 ADD REVERT JUMPDEST PUSH1 0x40 MLOAD PUSH4 0xA12F521 PUSH1 0xE1 SHL DUP2 MSTORE PUSH1 0x4 ADD PUSH1 0x40 MLOAD DUP1 SWAP2 SUB SWAP1 REVERT JUMPDEST PUSH1 0x40 MLOAD DUP1 PUSH2 0x320 ADD PUSH1 0x40 MSTORE DUP1 PUSH1 0x19 SWAP1 PUSH1 0x20 DUP3 MUL DUP1 CALLDATASIZE DUP4 CALLDATACOPY POP SWAP2 SWAP3 SWAP2 POP POP JUMP JUMPDEST PUSH1 0x40 MLOAD DUP1 PUSH1 0x80 ADD PUSH1 0x40 MSTORE DUP1 PUSH1 0x4 SWAP1 PUSH1 0x20 DUP3 MUL DUP1 CALLDATASIZE DUP4 CALLDATACOPY POP SWAP2 SWAP3 SWAP2 POP POP JUMP JUMPDEST PUSH1 0x1 PUSH1 0x1 PUSH1 0xE0 SHL SUB NOT DUP2 AND DUP2 EQ PUSH2 0xC71 JUMPI PUSH1 0x0 DUP1 REVERT JUMPDEST PUSH1 0x0 PUSH1 0x20 DUP3 DUP5 SUB SLT ISZERO PUSH2 0x2B03 JUMPI PUSH1 0x0 DUP1 REVERT JUMPDEST DUP2 CALLDATALOAD PUSH2 0x1353 DUP2 PUSH2 0x2ADB JUMP JUMPDEST PUSH1 0x0 JUMPDEST DUP4 DUP2 LT ISZERO PUSH2 0x2B29 JUMPI DUP2 DUP2 ADD MLOAD DUP4 DUP3 ADD MSTORE PUSH1 0x20 ADD PUSH2 0x2B11 JUMP JUMPDEST POP POP PUSH1 0x0 SWAP2 ADD MSTORE JUMP JUMPDEST PUSH1 0x0 DUP2 MLOAD DUP1 DUP5 MSTORE PUSH2 0x2B4A DUP2 PUSH1 0x20 DUP7 ADD PUSH1 0x20 DUP7 ADD PUSH2 0x2B0E JUMP JUMPDEST PUSH1 0x1F ADD PUSH1 0x1F NOT AND SWAP3 SWAP1 SWAP3 ADD PUSH1 0x20 ADD SWAP3 SWAP2 POP POP JUMP JUMPDEST PUSH1 0x20 DUP2 MSTORE PUSH1 0x0 PUSH2 0x1353 PUSH1 0x20 DUP4 ADD DUP5 PUSH2 0x2B32 JUMP JUMPDEST PUSH1 0x0 PUSH1 0x20 DUP3 DUP5 SUB SLT ISZERO PUSH2 0x2B83 JUMPI PUSH1 0x0 DUP1 REVERT JUMPDEST POP CALLDATALOAD SWAP2 SWAP1 POP JUMP JUMPDEST DUP1 CALLDATALOAD PUSH1 0x1 PUSH1 0x1 PUSH1 0xA0 SHL SUB DUP2 AND DUP2 EQ PUSH2 0x2BA1 JUMPI PUSH1 0x0 DUP1 REVERT JUMPDEST SWAP2 SWAP1 POP JUMP JUMPDEST PUSH1 0x0 DUP1 PUSH1 0x40 DUP4 DUP6 SUB SLT ISZERO PUSH2 0x2BB9 JUMPI PUSH1 0x0 DUP1 REVERT JUMPDEST PUSH2 0x2BC2 DUP4 PUSH2 0x2B8A JUMP JUMPDEST SWAP5 PUSH1 0x20 SWAP4 SWAP1 SWAP4 ADD CALLDATALOAD SWAP4 POP POP POP JUMP JUMPDEST PUSH1 0x0 DUP1 PUSH1 0x0 PUSH1 0x40 DUP5 DUP7 SUB SLT ISZERO PUSH2 0x2BE5 JUMPI PUSH1 0x0 DUP1 REVERT JUMPDEST DUP4 CALLDATALOAD SWAP3 POP PUSH1 0x20 DUP5 ADD CALLDATALOAD PUSH8 0xFFFFFFFFFFFFFFFF DUP1 DUP3 GT ISZERO PUSH2 0x2C04 JUMPI PUSH1 0x0 DUP1 REVERT JUMPDEST DUP2 DUP7 ADD SWAP2 POP DUP7 PUSH1 0x1F DUP4 ADD SLT PUSH2 0x2C18 JUMPI PUSH1 0x0 DUP1 REVERT JUMPDEST DUP2 CALLDATALOAD DUP2 DUP2 GT ISZERO PUSH2 0x2C27 JUMPI PUSH1 0x0 DUP1 REVERT JUMPDEST DUP8 PUSH1 0x20 DUP3 PUSH1 0x5 SHL DUP6 ADD ADD GT ISZERO PUSH2 0x2C3C JUMPI PUSH1 0x0 DUP1 REVERT JUMPDEST PUSH1 0x20 DUP4 ADD SWAP5 POP DUP1 SWAP4 POP POP POP POP SWAP3 POP SWAP3 POP SWAP3 JUMP JUMPDEST PUSH1 0x0 DUP1 PUSH1 0x0 PUSH1 0x60 DUP5 DUP7 SUB SLT ISZERO PUSH2 0x2C64 JUMPI PUSH1 0x0 DUP1 REVERT JUMPDEST PUSH2 0x2C6D DUP5 PUSH2 0x2B8A JUMP JUMPDEST SWAP3 POP PUSH2 0x2C7B PUSH1 0x20 DUP6 ADD PUSH2 0x2B8A JUMP JUMPDEST SWAP2 POP PUSH1 0x40 DUP5 ADD CALLDATALOAD SWAP1 POP SWAP3 POP SWAP3 POP SWAP3 JUMP JUMPDEST PUSH1 0x0 PUSH1 0x20 DUP3 DUP5 SUB SLT ISZERO PUSH2 0x2C9D JUMPI PUSH1 0x0 DUP1 REVERT JUMPDEST PUSH2 0x1353 DUP3 PUSH2 0x2B8A JUMP JUMPDEST PUSH1 0x0 PUSH1 0x80 DUP3 DUP5 SUB SLT ISZERO PUSH2 0x2CB8 JUMPI PUSH1 0x0 DUP1 REVERT JUMPDEST DUP3 PUSH1 0x80 DUP4 ADD GT ISZERO PUSH2 0x2CC8 JUMPI PUSH1 0x0 DUP1 REVERT JUMPDEST POP SWAP2 SWAP1 POP JUMP JUMPDEST PUSH1 0x0 DUP1 PUSH1 0x20 DUP4 DUP6 SUB SLT ISZERO PUSH2 0x2CE1 JUMPI PUSH1 0x0 DUP1 REVERT JUMPDEST DUP3 CALLDATALOAD PUSH8 0xFFFFFFFFFFFFFFFF DUP1 DUP3 GT ISZERO PUSH2 0x2CF9 JUMPI PUSH1 0x0 DUP1 REVERT JUMPDEST DUP2 DUP6 ADD SWAP2 POP DUP6 PUSH1 0x1F DUP4 ADD SLT PUSH2 0x2D0D JUMPI PUSH1 0x0 DUP1 REVERT JUMPDEST DUP2 CALLDATALOAD DUP2 DUP2 GT ISZERO PUSH2 0x2D1C JUMPI PUSH1 0x0 DUP1 REVERT JUMPDEST DUP7 PUSH1 0x20 DUP3 DUP6 ADD ADD GT ISZERO PUSH2 0x2D2E JUMPI PUSH1 0x0 DUP1 REVERT JUMPDEST PUSH1 0x20 SWAP3 SWAP1 SWAP3 ADD SWAP7 SWAP2 SWAP6 POP SWAP1 SWAP4 POP POP POP POP JUMP JUMPDEST DUP1 CALLDATALOAD PUSH3 0xFFFFFF DUP2 AND DUP2 EQ PUSH2 0x2BA1 JUMPI PUSH1 0x0 DUP1 REVERT JUMPDEST PUSH1 0x0 DUP1 PUSH1 0x40 DUP4 DUP6 SUB SLT ISZERO PUSH2 0x2D66 JUMPI PUSH1 0x0 DUP1 REVERT JUMPDEST PUSH2 0x2BC2 DUP4 PUSH2 0x2D40 JUMP JUMPDEST DUP3 ISZERO ISZERO DUP2 MSTORE PUSH1 0x40 PUSH1 0x20 DUP3 ADD MSTORE PUSH1 0x0 PUSH2 0x2901 PUSH1 0x40 DUP4 ADD DUP5 PUSH2 0x2B32 JUMP JUMPDEST DUP1 ISZERO ISZERO DUP2 EQ PUSH2 0xC71 JUMPI PUSH1 0x0 DUP1 REVERT JUMPDEST PUSH1 0x0 DUP1 PUSH1 0x40 DUP4 DUP6 SUB SLT ISZERO PUSH2 0x2DAB JUMPI PUSH1 0x0 DUP1 REVERT JUMPDEST PUSH2 0x2DB4 DUP4 PUSH2 0x2B8A JUMP JUMPDEST SWAP2 POP PUSH1 0x20 DUP4 ADD CALLDATALOAD PUSH2 0x2DC4 DUP2 PUSH2 0x2D8A JUMP JUMPDEST DUP1 SWAP2 POP POP SWAP3 POP SWAP3 SWAP1 POP JUMP JUMPDEST PUSH4 0x4E487B71 PUSH1 0xE0 SHL PUSH1 0x0 MSTORE PUSH1 0x41 PUSH1 0x4 MSTORE PUSH1 0x24 PUSH1 0x0 REVERT JUMPDEST PUSH1 0x0 DUP1 PUSH1 0x0 DUP1 PUSH1 0x80 DUP6 DUP8 SUB SLT ISZERO PUSH2 0x2DFB JUMPI PUSH1 0x0 DUP1 REVERT JUMPDEST PUSH2 0x2E04 DUP6 PUSH2 0x2B8A JUMP JUMPDEST SWAP4 POP PUSH2 0x2E12 PUSH1 0x20 DUP7 ADD PUSH2 0x2B8A JUMP JUMPDEST SWAP3 POP PUSH1 0x40 DUP6 ADD CALLDATALOAD SWAP2 POP PUSH1 0x60 DUP6 ADD CALLDATALOAD PUSH8 0xFFFFFFFFFFFFFFFF DUP1 DUP3 GT ISZERO PUSH2 0x2E36 JUMPI PUSH1 0x0 DUP1 REVERT JUMPDEST DUP2 DUP8 ADD SWAP2 POP DUP8 PUSH1 0x1F DUP4 ADD SLT PUSH2 0x2E4A JUMPI PUSH1 0x0 DUP1 REVERT JUMPDEST DUP2 CALLDATALOAD DUP2 DUP2 GT ISZERO PUSH2 0x2E5C JUMPI PUSH2 0x2E5C PUSH2 0x2DCF JUMP JUMPDEST PUSH1 0x40 MLOAD PUSH1 0x1F DUP3 ADD PUSH1 0x1F NOT SWAP1 DUP2 AND PUSH1 0x3F ADD AND DUP2 ADD SWAP1 DUP4 DUP3 GT DUP2 DUP4 LT OR ISZERO PUSH2 0x2E84 JUMPI PUSH2 0x2E84 PUSH2 0x2DCF JUMP JUMPDEST DUP2 PUSH1 0x40 MSTORE DUP3 DUP2 MSTORE DUP11 PUSH1 0x20 DUP5 DUP8 ADD ADD GT ISZERO PUSH2 0x2E9D JUMPI PUSH1 0x0 DUP1 REVERT JUMPDEST DUP3 PUSH1 0x20 DUP7 ADD PUSH1 0x20 DUP4 ADD CALLDATACOPY PUSH1 0x0 PUSH1 0x20 DUP5 DUP4 ADD ADD MSTORE DUP1 SWAP6 POP POP POP POP POP POP SWAP3 SWAP6 SWAP2 SWAP5 POP SWAP3 POP JUMP JUMPDEST PUSH1 0x0 PUSH1 0x20 DUP3 DUP5 SUB SLT ISZERO PUSH2 0x2ED3 JUMPI PUSH1 0x0 DUP1 REVERT JUMPDEST PUSH2 0x1353 DUP3 PUSH2 0x2D40 JUMP JUMPDEST PUSH1 0x0 DUP1 PUSH1 0x40 DUP4 DUP6 SUB SLT ISZERO PUSH2 0x2EEF JUMPI PUSH1 0x0 DUP1 REVERT JUMPDEST PUSH2 0x2EF8 DUP4 PUSH2 0x2B8A JUMP JUMPDEST SWAP2 POP PUSH2 0x2F06 PUSH1 0x20 DUP5 ADD PUSH2 0x2B8A JUMP JUMPDEST SWAP1 POP SWAP3 POP SWAP3 SWAP1 POP JUMP JUMPDEST PUSH1 0x1 DUP2 DUP2 SHR SWAP1 DUP3 AND DUP1 PUSH2 0x2F23 JUMPI PUSH1 0x7F DUP3 AND SWAP2 POP JUMPDEST PUSH1 0x20 DUP3 LT DUP2 SUB PUSH2 0x2CC8 JUMPI PUSH4 0x4E487B71 PUSH1 0xE0 SHL PUSH1 0x0 MSTORE PUSH1 0x22 PUSH1 0x4 MSTORE PUSH1 0x24 PUSH1 0x0 REVERT JUMPDEST PUSH4 0x4E487B71 PUSH1 0xE0 SHL PUSH1 0x0 MSTORE PUSH1 0x32 PUSH1 0x4 MSTORE PUSH1 0x24 PUSH1 0x0 REVERT JUMPDEST PUSH1 0x0 PUSH1 0x20 DUP3 DUP5 SUB SLT ISZERO PUSH2 0x2F6B JUMPI PUSH1 0x0 DUP1 REVERT JUMPDEST DUP2 CALLDATALOAD PUSH1 0xFF DUP2 AND DUP2 EQ PUSH2 0x1353 JUMPI PUSH1 0x0 DUP1 REVERT JUMPDEST PUSH4 0x4E487B71 PUSH1 0xE0 SHL PUSH1 0x0 MSTORE PUSH1 0x11 PUSH1 0x4 MSTORE PUSH1 0x24 PUSH1 0x0 REVERT JUMPDEST PUSH1 0x0 PUSH1 0x1 DUP3 ADD PUSH2 0x2FA4 JUMPI PUSH2 0x2FA4 PUSH2 0x2F7C JUMP JUMPDEST POP PUSH1 0x1 ADD SWAP1 JUMP JUMPDEST PUSH3 0xFFFFFF DUP2 DUP2 AND DUP4 DUP3 AND ADD SWAP1 DUP1 DUP3 GT ISZERO PUSH2 0x2FC7 JUMPI PUSH2 0x2FC7 PUSH2 0x2F7C JUMP JUMPDEST POP SWAP3 SWAP2 POP POP JUMP JUMPDEST DUP1 DUP3 ADD DUP1 DUP3 GT ISZERO PUSH2 0x7D6 JUMPI PUSH2 0x7D6 PUSH2 0x2F7C JUMP JUMPDEST PUSH1 0x0 DUP4 MLOAD PUSH2 0x2FF3 DUP2 DUP5 PUSH1 0x20 DUP9 ADD PUSH2 0x2B0E JUMP JUMPDEST DUP4 MLOAD SWAP1 DUP4 ADD SWAP1 PUSH2 0x3007 DUP2 DUP4 PUSH1 0x20 DUP9 ADD PUSH2 0x2B0E JUMP JUMPDEST ADD SWAP5 SWAP4 POP POP POP POP JUMP JUMPDEST PUSH4 0x4E487B71 PUSH1 0xE0 SHL PUSH1 0x0 MSTORE PUSH1 0x12 PUSH1 0x4 MSTORE PUSH1 0x24 PUSH1 0x0 REVERT JUMPDEST PUSH1 0x0 DUP3 PUSH2 0x3035 JUMPI PUSH2 0x3035 PUSH2 0x3010 JUMP JUMPDEST POP DIV SWAP1 JUMP JUMPDEST DUP2 DUP2 SUB DUP2 DUP2 GT ISZERO PUSH2 0x7D6 JUMPI PUSH2 0x7D6 PUSH2 0x2F7C JUMP JUMPDEST PUSH1 0x0 DUP3 PUSH2 0x305C JUMPI PUSH2 0x305C PUSH2 0x3010 JUMP JUMPDEST POP MOD SWAP1 JUMP JUMPDEST PUSH1 0x80 DUP2 ADD DUP2 DUP4 PUSH1 0x0 JUMPDEST PUSH1 0x4 DUP2 LT ISZERO PUSH2 0x308C JUMPI DUP2 MLOAD PUSH1 0xFF AND DUP4 MSTORE PUSH1 0x20 SWAP3 DUP4 ADD SWAP3 SWAP1 SWAP2 ADD SWAP1 PUSH1 0x1 ADD PUSH2 0x306A JUMP JUMPDEST POP POP POP SWAP3 SWAP2 POP POP JUMP JUMPDEST DUP1 DUP3 MUL DUP2 ISZERO DUP3 DUP3 DIV DUP5 EQ OR PUSH2 0x7D6 JUMPI PUSH2 0x7D6 PUSH2 0x2F7C JUMP JUMPDEST PUSH1 0x20 DUP2 MSTORE DUP2 MLOAD PUSH1 0x20 DUP3 ADD MSTORE PUSH1 0x20 DUP3 ADD MLOAD PUSH1 0x40 DUP3 ADD MSTORE PUSH2 0xFFFF PUSH1 0x40 DUP4 ADD MLOAD AND PUSH1 0x60 DUP3 ADD MSTORE PUSH1 0x0 PUSH1 0x60 DUP4 ADD MLOAD PUSH4 0xFFFFFFFF DUP1 DUP3 AND PUSH1 0x80 DUP6 ADD MSTORE DUP1 PUSH1 0x80 DUP7 ADD MLOAD AND PUSH1 0xA0 DUP6 ADD MSTORE POP POP PUSH1 0xA0 DUP4 ADD MLOAD PUSH1 0xC0 DUP1 DUP5 ADD MSTORE PUSH2 0x2901 PUSH1 0xE0 DUP5 ADD DUP3 PUSH2 0x2B32 JUMP JUMPDEST PUSH1 0x0 PUSH1 0x20 DUP3 DUP5 SUB SLT ISZERO PUSH2 0x311B JUMPI PUSH1 0x0 DUP1 REVERT JUMPDEST POP MLOAD SWAP2 SWAP1 POP JUMP JUMPDEST PUSH1 0x0 PUSH4 0xFFFFFFFF DUP1 DUP4 AND DUP2 DUP2 SUB PUSH2 0x313B JUMPI PUSH2 0x313B PUSH2 0x2F7C JUMP JUMPDEST PUSH1 0x1 ADD SWAP4 SWAP3 POP POP POP JUMP JUMPDEST PUSH1 0x1 PUSH1 0x1 PUSH1 0xA0 SHL SUB DUP6 DUP2 AND DUP3 MSTORE DUP5 AND PUSH1 0x20 DUP3 ADD MSTORE PUSH1 0x40 DUP2 ADD DUP4 SWAP1 MSTORE PUSH1 0x80 PUSH1 0x60 DUP3 ADD DUP2 SWAP1 MSTORE PUSH1 0x0 SWAP1 PUSH2 0x2A0F SWAP1 DUP4 ADD DUP5 PUSH2 0x2B32 JUMP JUMPDEST PUSH1 0x0 PUSH1 0x20 DUP3 DUP5 SUB SLT ISZERO PUSH2 0x318A JUMPI PUSH1 0x0 DUP1 REVERT JUMPDEST DUP2 MLOAD PUSH2 0x1353 DUP2 PUSH2 0x2ADB JUMP JUMPDEST PUSH1 0x0 PUSH1 0x20 DUP3 DUP5 SUB SLT ISZERO PUSH2 0x31A7 JUMPI PUSH1 0x0 DUP1 REVERT JUMPDEST DUP2 MLOAD PUSH2 0x1353 DUP2 PUSH2 0x2D8A JUMP JUMPDEST PUSH1 0x0 DUP3 MLOAD PUSH2 0x31C4 DUP2 DUP5 PUSH1 0x20 DUP8 ADD PUSH2 0x2B0E JUMP JUMPDEST SWAP2 SWAP1 SWAP2 ADD SWAP3 SWAP2 POP POP JUMP INVALID LOG2 PUSH5 0x6970667358 0x22 SLT KECCAK256 0x5C 0xE9 LT SWAP1 LOG1 SWAP6 0x21 EXTCODESIZE 0xD8 BYTE 0xCC 0xAF 0xFC XOR 0x4E 0xB4 JUMPI 0x2C 0xEB 0xFB 0xA7 PUSH18 0xA852D911096231BFDF8864736F6C63430008 EQ STOP CALLER "},"methodIdentifiers":{"CALLBACK_GAS_LIMIT()":"33d608f1","VRF_NUM_WORDS()":"5c900a1a","VRF_REQUEST_CONFIRMATIONS()":"1e27580e","acceptOwnership()":"79ba5097","approve(address,uint256)":"095ea7b3","automationActive()":"6baf4a74","balanceOf(address)":"70a08231","buyTicket(uint8[4])":"3d4962ed","checkUpkeep(bytes)":"6e04ff0d","claimPrize(uint256)":"d7098154","currentGameDay()":"0d50cdb9","dailyDrawHourUTC()":"8d6ef595","dayResults(uint24)":"d96226a2","emergencyPause()":"51858e27","getApproved(uint256)":"081812fc","isApprovedForAll(address,address)":"e985e9c5","name()":"06fdde03","nextDrawTs()":"c8d51919","owner()":"8da5cb5b","ownerOf(uint256)":"6352211e","paymentToken()":"3013ce29","performUpkeep(bytes)":"4585e33b","pools()":"c5c51dca","processDrawBatch(uint24,uint256)":"5d58f930","rawFulfillRandomWords(uint256,uint256[])":"1fe543e3","resetPendingDrawDay()":"0ae58001","s_vrfCoordinator()":"9eccacf6","safeTransferFrom(address,address,uint256)":"42842e0e","safeTransferFrom(address,address,uint256,bytes)":"b88d4fde","setApprovalForAll(address,bool)":"a22cb465","setCoordinator(address)":"8ea98117","supportsInterface(bytes4)":"01ffc9a7","sweepDevPool(address)":"2516f149","symbol()":"95d89b41","ticketPrice()":"1209b1f6","tickets(uint256)":"50b44712","toggleAutomation()":"4f687e91","toggleEmergencyPause()":"147e291f","tokenURI(uint256)":"c87b56dd","transferFrom(address,address,uint256)":"23b872dd","transferOwnership(address)":"f2fde38b","vrfKeyHash()":"041d443e","vrfSubId()":"32615640"}}}}}