{"contracts/LottoMojiCoreV3.sol":{"LottoMojiCoreV2":{"abi":[{"inputs":[{"internalType":"uint8","name":"_drawHourUTC","type":"uint8"},{"internalType":"address","name":"_paymentToken","type":"address"},{"internalType":"uint256","name":"_ticketPrice","type":"uint256"},{"internalType":"address","name":"_vrfCoordinator","type":"address"},{"internalType":"bytes32","name":"_keyHash","type":"bytes32"},{"internalType":"uint64","name":"_subId","type":"uint64"}],"stateMutability":"nonpayable","type":"constructor"},{"inputs":[{"internalType":"address","name":"target","type":"address"}],"name":"AddressEmptyCode","type":"error"},{"inputs":[{"internalType":"address","name":"account","type":"address"}],"name":"AddressInsufficientBalance","type":"error"},{"inputs":[],"name":"AlreadyClaimed","type":"error"},{"inputs":[],"name":"AutomationPaused","type":"error"},{"inputs":[],"name":"BatchDone","type":"error"},{"inputs":[{"internalType":"address","name":"sender","type":"address"},{"internalType":"uint256","name":"tokenId","type":"uint256"},{"internalType":"address","name":"owner","type":"address"}],"name":"ERC721IncorrectOwner","type":"error"},{"inputs":[{"internalType":"address","name":"operator","type":"address"},{"internalType":"uint256","name":"tokenId","type":"uint256"}],"name":"ERC721InsufficientApproval","type":"error"},{"inputs":[{"internalType":"address","name":"approver","type":"address"}],"name":"ERC721InvalidApprover","type":"error"},{"inputs":[{"internalType":"address","name":"operator","type":"address"}],"name":"ERC721InvalidOperator","type":"error"},{"inputs":[{"internalType":"address","name":"owner","type":"address"}],"name":"ERC721InvalidOwner","type":"error"},{"inputs":[{"internalType":"address","name":"receiver","type":"address"}],"name":"ERC721InvalidReceiver","type":"error"},{"inputs":[{"internalType":"address","name":"sender","type":"address"}],"name":"ERC721InvalidSender","type":"error"},{"inputs":[{"internalType":"uint256","name":"tokenId","type":"uint256"}],"name":"ERC721NonexistentToken","type":"error"},{"inputs":[],"name":"EmergencyPaused","type":"error"},{"inputs":[],"name":"FailedInnerCall","type":"error"},{"inputs":[],"name":"InvalidEmoji","type":"error"},{"inputs":[],"name":"NotWinner","type":"error"},{"inputs":[{"internalType":"address","name":"have","type":"address"},{"internalType":"address","name":"want","type":"address"}],"name":"OnlyCoordinatorCanFulfill","type":"error"},{"inputs":[{"internalType":"address","name":"owner","type":"address"}],"name":"OwnableInvalidOwner","type":"error"},{"inputs":[{"internalType":"address","name":"account","type":"address"}],"name":"OwnableUnauthorizedAccount","type":"error"},{"inputs":[],"name":"ReentrancyGuardReentrantCall","type":"error"},{"inputs":[{"internalType":"address","name":"token","type":"address"}],"name":"SafeERC20FailedOperation","type":"error"},{"inputs":[],"name":"TooEarly","type":"error"},{"inputs":[],"name":"TooLate","type":"error"},{"anonymous":false,"inputs":[{"indexed":true,"internalType":"address","name":"owner","type":"address"},{"indexed":true,"internalType":"address","name":"approved","type":"address"},{"indexed":true,"internalType":"uint256","name":"tokenId","type":"uint256"}],"name":"Approval","type":"event"},{"anonymous":false,"inputs":[{"indexed":true,"internalType":"address","name":"owner","type":"address"},{"indexed":true,"internalType":"address","name":"operator","type":"address"},{"indexed":false,"internalType":"bool","name":"approved","type":"bool"}],"name":"ApprovalForAll","type":"event"},{"anonymous":false,"inputs":[{"indexed":true,"internalType":"uint24","name":"day","type":"uint24"},{"indexed":false,"internalType":"uint256","name":"from","type":"uint256"},{"indexed":false,"internalType":"uint256","name":"to","type":"uint256"}],"name":"BatchProcessed","type":"event"},{"anonymous":false,"inputs":[{"indexed":false,"internalType":"address","name":"to","type":"address"},{"indexed":false,"internalType":"uint256","name":"amount","type":"uint256"}],"name":"DevelopmentWithdrawn","type":"event"},{"anonymous":false,"inputs":[{"indexed":true,"internalType":"uint24","name":"day","type":"uint24"},{"indexed":false,"internalType":"uint8[4]","name":"numbers","type":"uint8[4]"}],"name":"DrawNumbers","type":"event"},{"anonymous":false,"inputs":[{"indexed":true,"internalType":"uint24","name":"nextDay","type":"uint24"},{"indexed":false,"internalType":"uint256","name":"drawTimestamp","type":"uint256"}],"name":"NextDrawScheduled","type":"event"},{"anonymous":false,"inputs":[{"indexed":true,"internalType":"address","name":"previousOwner","type":"address"},{"indexed":true,"internalType":"address","name":"newOwner","type":"address"}],"name":"OwnershipTransferred","type":"event"},{"anonymous":false,"inputs":[{"indexed":true,"internalType":"uint24","name":"day","type":"uint24"},{"indexed":true,"internalType":"uint256","name":"ticketId","type":"uint256"},{"indexed":false,"internalType":"address","name":"winner","type":"address"},{"indexed":false,"internalType":"uint8","name":"level","type":"uint8"},{"indexed":false,"internalType":"uint256","name":"amount","type":"uint256"}],"name":"PrizeClaimed","type":"event"},{"anonymous":false,"inputs":[{"indexed":true,"internalType":"uint24","name":"day","type":"uint24"},{"indexed":false,"internalType":"uint32","name":"first","type":"uint32"},{"indexed":false,"internalType":"uint32","name":"second","type":"uint32"},{"indexed":false,"internalType":"uint32","name":"third","type":"uint32"}],"name":"PrizesCalculated","type":"event"},{"anonymous":false,"inputs":[{"indexed":true,"internalType":"address","name":"player","type":"address"},{"indexed":true,"internalType":"uint256","name":"ticketId","type":"uint256"},{"indexed":true,"internalType":"uint24","name":"day","type":"uint24"}],"name":"TicketPurchased","type":"event"},{"anonymous":false,"inputs":[{"indexed":true,"internalType":"address","name":"from","type":"address"},{"indexed":true,"internalType":"address","name":"to","type":"address"},{"indexed":true,"internalType":"uint256","name":"tokenId","type":"uint256"}],"name":"Transfer","type":"event"},{"anonymous":false,"inputs":[{"indexed":true,"internalType":"uint256","name":"requestId","type":"uint256"},{"indexed":true,"internalType":"uint24","name":"day","type":"uint24"}],"name":"VRFRequested","type":"event"},{"inputs":[],"name":"VRF_CALLBACK_GAS_LIMIT","outputs":[{"internalType":"uint32","name":"","type":"uint32"}],"stateMutability":"view","type":"function"},{"inputs":[],"name":"VRF_CONFIRMATIONS","outputs":[{"internalType":"uint16","name":"","type":"uint16"}],"stateMutability":"view","type":"function"},{"inputs":[],"name":"VRF_NUM_WORDS","outputs":[{"internalType":"uint32","name":"","type":"uint32"}],"stateMutability":"view","type":"function"},{"inputs":[{"internalType":"address","name":"to","type":"address"},{"internalType":"uint256","name":"tokenId","type":"uint256"}],"name":"approve","outputs":[],"stateMutability":"nonpayable","type":"function"},{"inputs":[],"name":"automationActive","outputs":[{"internalType":"bool","name":"","type":"bool"}],"stateMutability":"view","type":"function"},{"inputs":[{"internalType":"address","name":"owner","type":"address"}],"name":"balanceOf","outputs":[{"internalType":"uint256","name":"","type":"uint256"}],"stateMutability":"view","type":"function"},{"inputs":[{"internalType":"uint8[4]","name":"emojiNumbers","type":"uint8[4]"}],"name":"buyTicket","outputs":[],"stateMutability":"nonpayable","type":"function"},{"inputs":[{"internalType":"bytes","name":"","type":"bytes"}],"name":"checkUpkeep","outputs":[{"internalType":"bool","name":"upkeepNeeded","type":"bool"},{"internalType":"bytes","name":"performData","type":"bytes"}],"stateMutability":"view","type":"function"},{"inputs":[{"internalType":"uint256","name":"ticketId","type":"uint256"}],"name":"claimPrize","outputs":[],"stateMutability":"nonpayable","type":"function"},{"inputs":[],"name":"currentGameDay","outputs":[{"internalType":"uint24","name":"","type":"uint24"}],"stateMutability":"view","type":"function"},{"inputs":[],"name":"dailyDrawHourUTC","outputs":[{"internalType":"uint8","name":"","type":"uint8"}],"stateMutability":"view","type":"function"},{"inputs":[{"internalType":"uint24","name":"","type":"uint24"}],"name":"dayResults","outputs":[{"internalType":"uint32","name":"processingIndex","type":"uint32"},{"internalType":"uint32","name":"winnersFirst","type":"uint32"},{"internalType":"uint32","name":"winnersSecond","type":"uint32"},{"internalType":"uint32","name":"winnersThird","type":"uint32"},{"internalType":"bool","name":"fullyProcessed","type":"bool"}],"stateMutability":"view","type":"function"},{"inputs":[],"name":"emergencyPause","outputs":[{"internalType":"bool","name":"","type":"bool"}],"stateMutability":"view","type":"function"},{"inputs":[{"internalType":"uint256","name":"tokenId","type":"uint256"}],"name":"getApproved","outputs":[{"internalType":"address","name":"","type":"address"}],"stateMutability":"view","type":"function"},{"inputs":[{"internalType":"address","name":"owner","type":"address"},{"internalType":"address","name":"operator","type":"address"}],"name":"isApprovedForAll","outputs":[{"internalType":"bool","name":"","type":"bool"}],"stateMutability":"view","type":"function"},{"inputs":[],"name":"name","outputs":[{"internalType":"string","name":"","type":"string"}],"stateMutability":"view","type":"function"},{"inputs":[],"name":"nextDrawTs","outputs":[{"internalType":"uint256","name":"","type":"uint256"}],"stateMutability":"view","type":"function"},{"inputs":[],"name":"owner","outputs":[{"internalType":"address","name":"","type":"address"}],"stateMutability":"view","type":"function"},{"inputs":[{"internalType":"uint256","name":"tokenId","type":"uint256"}],"name":"ownerOf","outputs":[{"internalType":"address","name":"","type":"address"}],"stateMutability":"view","type":"function"},{"inputs":[],"name":"paymentToken","outputs":[{"internalType":"contract IERC20","name":"","type":"address"}],"stateMutability":"view","type":"function"},{"inputs":[{"internalType":"bytes","name":"","type":"bytes"}],"name":"performUpkeep","outputs":[],"stateMutability":"nonpayable","type":"function"},{"inputs":[],"name":"pools","outputs":[{"internalType":"uint256","name":"firstPrize","type":"uint256"},{"internalType":"uint256","name":"secondPrize","type":"uint256"},{"internalType":"uint256","name":"thirdPrize","type":"uint256"},{"internalType":"uint256","name":"devPool","type":"uint256"},{"internalType":"uint256","name":"firstReserve","type":"uint256"},{"internalType":"uint256","name":"secondReserve","type":"uint256"},{"internalType":"uint256","name":"thirdReserve","type":"uint256"}],"stateMutability":"view","type":"function"},{"inputs":[{"internalType":"uint24","name":"day","type":"uint24"},{"internalType":"uint256","name":"batchSize","type":"uint256"}],"name":"processDrawBatch","outputs":[],"stateMutability":"nonpayable","type":"function"},{"inputs":[{"internalType":"uint256","name":"requestId","type":"uint256"},{"internalType":"uint256[]","name":"randomWords","type":"uint256[]"}],"name":"rawFulfillRandomWords","outputs":[],"stateMutability":"nonpayable","type":"function"},{"inputs":[],"name":"renounceOwnership","outputs":[],"stateMutability":"nonpayable","type":"function"},{"inputs":[{"internalType":"address","name":"from","type":"address"},{"internalType":"address","name":"to","type":"address"},{"internalType":"uint256","name":"tokenId","type":"uint256"}],"name":"safeTransferFrom","outputs":[],"stateMutability":"nonpayable","type":"function"},{"inputs":[{"internalType":"address","name":"from","type":"address"},{"internalType":"address","name":"to","type":"address"},{"internalType":"uint256","name":"tokenId","type":"uint256"},{"internalType":"bytes","name":"data","type":"bytes"}],"name":"safeTransferFrom","outputs":[],"stateMutability":"nonpayable","type":"function"},{"inputs":[{"internalType":"address","name":"operator","type":"address"},{"internalType":"bool","name":"approved","type":"bool"}],"name":"setApprovalForAll","outputs":[],"stateMutability":"nonpayable","type":"function"},{"inputs":[{"internalType":"bytes4","name":"interfaceId","type":"bytes4"}],"name":"supportsInterface","outputs":[{"internalType":"bool","name":"","type":"bool"}],"stateMutability":"view","type":"function"},{"inputs":[],"name":"symbol","outputs":[{"internalType":"string","name":"","type":"string"}],"stateMutability":"view","type":"function"},{"inputs":[],"name":"ticketPrice","outputs":[{"internalType":"uint256","name":"","type":"uint256"}],"stateMutability":"view","type":"function"},{"inputs":[{"internalType":"uint256","name":"","type":"uint256"}],"name":"tickets","outputs":[{"internalType":"uint40","name":"purchaseTime","type":"uint40"},{"internalType":"uint24","name":"gameDay","type":"uint24"},{"internalType":"bool","name":"claimed","type":"bool"}],"stateMutability":"view","type":"function"},{"inputs":[],"name":"toggleAutomation","outputs":[],"stateMutability":"nonpayable","type":"function"},{"inputs":[],"name":"toggleEmergencyPause","outputs":[],"stateMutability":"nonpayable","type":"function"},{"inputs":[{"internalType":"uint256","name":"tokenId","type":"uint256"}],"name":"tokenURI","outputs":[{"internalType":"string","name":"","type":"string"}],"stateMutability":"view","type":"function"},{"inputs":[{"internalType":"address","name":"from","type":"address"},{"internalType":"address","name":"to","type":"address"},{"internalType":"uint256","name":"tokenId","type":"uint256"}],"name":"transferFrom","outputs":[],"stateMutability":"nonpayable","type":"function"},{"inputs":[{"internalType":"address","name":"newOwner","type":"address"}],"name":"transferOwnership","outputs":[],"stateMutability":"nonpayable","type":"function"},{"inputs":[],"name":"vrfKeyHash","outputs":[{"internalType":"bytes32","name":"","type":"bytes32"}],"stateMutability":"view","type":"function"},{"inputs":[],"name":"vrfSubId","outputs":[{"internalType":"uint64","name":"","type":"uint64"}],"stateMutability":"view","type":"function"},{"inputs":[{"internalType":"address","name":"to","type":"address"}],"name":"withdrawDevelopment","outputs":[],"stateMutability":"nonpayable","type":"function"}],"evm":{"bytecode":{"linkReferences":{},"object":"6101606040526009805462ffffff19166001908117909155600a8190556016805461ffff191690911790553480156200003757600080fd5b506040516200350a3803806200350a8339810160408190526200005a91620002b6565b82336040518060400160405280601081526020016f131bdd1d1bd35bda9a48151a58dad95d60821b815250604051806040016040528060058152602001644c4d4a544b60d81b8152508160009081620000b49190620003e1565b506001620000c38282620003e1565b5050506001600160a01b038116620000f657604051631e4fbdf760e01b8152600060048201526024015b60405180910390fd5b6200010181620001df565b5060016007556001600160a01b0316608052601860ff871610620001525760405162461bcd60e51b81526020600482015260076024820152661a1bdd5c8f0c8d60ca1b6044820152606401620000ed565b60ff861660a0526001600160a01b0380861660e05260c08590528316610100526101208290526001600160401b0381166101405262000192428762000231565b600881905560095460405191825262ffffff16907f70aba4eecfb00a70e5aae193521bc256fc3cbf7a91479f6bcda4b5a82f9869619060200160405180910390a250505050505062000516565b600680546001600160a01b038381166001600160a01b0319831681179093556040519116919082907f8be0079c531659141344cd1fd0a4f28419497f9722a3daafe3b4186f6b6457e090600090a35050565b600080620002436201518085620004c3565b620002529062015180620004e6565b905060006200026760ff8516610e10620004e6565b62000273908362000500565b90508481116200028f576200028c620151808262000500565b90505b9150505b92915050565b80516001600160a01b0381168114620002b157600080fd5b919050565b60008060008060008060c08789031215620002d057600080fd5b865160ff81168114620002e257600080fd5b9550620002f26020880162000299565b945060408701519350620003096060880162000299565b608088015160a089015191945092506001600160401b03811681146200032e57600080fd5b809150509295509295509295565b634e487b7160e01b600052604160045260246000fd5b600181811c908216806200036757607f821691505b6020821081036200038857634e487b7160e01b600052602260045260246000fd5b50919050565b601f821115620003dc57600081815260208120601f850160051c81016020861015620003b75750805b601f850160051c820191505b81811015620003d857828155600101620003c3565b5050505b505050565b81516001600160401b03811115620003fd57620003fd6200033c565b62000415816200040e845462000352565b846200038e565b602080601f8311600181146200044d5760008415620004345750858301515b600019600386901b1c1916600185901b178555620003d8565b600085815260208120601f198616915b828110156200047e578886015182559484019460019091019084016200045d565b50858210156200049d5787850151600019600388901b60f8161c191681555b5050505050600190811b01905550565b634e487b7160e01b600052601160045260246000fd5b600082620004e157634e487b7160e01b600052601260045260246000fd5b500490565b8082028115828204841417620002935762000293620004ad565b80820180821115620002935762000293620004ad565b60805160a05160c05160e051610100516101205161014051612f5a620005b0600039600081816103a30152611aea01526000818161027a0152611abb01526000611b2b01526000818161037c01528181610a23015281816113ec015261149301526000818161032701528181610a470152818161139301526119000152600061054601526000818161085c015261089e0152612f5a6000f3fe608060405234801561001057600080fd5b50600436106102485760003560e01c80635d58f9301161013b578063b88d4fde116100b8578063d70981541161007c578063d709815414610636578063d96226a214610649578063e8cfbe69146106d7578063e985e9c5146106ea578063f2fde38b146106fd57600080fd5b8063b88d4fde146105a6578063c5c51dca146105b9578063c87b56dd14610610578063c8d5191914610623578063d01ed8a31461062c57600080fd5b8063715018a6116100ff578063715018a6146105395780638d6ef595146105415780638da5cb5b1461057a57806395d89b411461058b578063a22cb4651461059357600080fd5b80635d58f930146104d25780636352211e146104e55780636baf4a74146104f85780636e04ff0d1461050557806370a082311461052657600080fd5b80633013ce29116101c95780634585e33b1161018d5780634585e33b1461041f5780634f687e911461043257806350b447121461043a57806351858e27146104a35780635c900a1a146104b557600080fd5b80633013ce2914610377578063326156401461039e5780633d4962ed146103de57806340985c98146103f157806342842e0e1461040c57600080fd5b80630d50cdb9116102105780630d50cdb9146102ff5780631209b1f614610322578063147e291f146103495780631fe543e31461035157806323b872dd1461036457600080fd5b806301ffc9a71461024d578063041d443e1461027557806306fdde03146102aa578063081812fc146102bf578063095ea7b3146102ea575b600080fd5b61026061025b366004612890565b610710565b60405190151581526020015b60405180910390f35b61029c7f000000000000000000000000000000000000000000000000000000000000000081565b60405190815260200161026c565b6102b2610762565b60405161026c91906128fd565b6102d26102cd366004612910565b6107f4565b6040516001600160a01b03909116815260200161026c565b6102fd6102f8366004612945565b61081d565b005b60095461030e9062ffffff1681565b60405162ffffff909116815260200161026c565b61029c7f000000000000000000000000000000000000000000000000000000000000000081565b6102fd61082c565b6102fd61035f3660046129b6565b610851565b6102fd610372366004612a68565b6108da565b6102d27f000000000000000000000000000000000000000000000000000000000000000081565b6103c57f000000000000000000000000000000000000000000000000000000000000000081565b60405167ffffffffffffffff909116815260200161026c565b6102fd6103ec366004612aa4565b610965565b6103f9600381565b60405161ffff909116815260200161026c565b6102fd61041a366004612a68565b610bb8565b6102fd61042d366004612acc565b610bd8565b6102fd610ce3565b61047a610448366004612910565b600b602052600090815260409020805460029091015464ffffffffff821691600160281b900462ffffff169060ff1683565b6040805164ffffffffff909416845262ffffff909216602084015215159082015260600161026c565b60165461026090610100900460ff1681565b6104bd600181565b60405163ffffffff909116815260200161026c565b6102fd6104e0366004612b51565b610cff565b6102d26104f3366004612910565b610f8e565b6016546102609060ff1681565b610518610513366004612acc565b610f99565b60405161026c929190612b6d565b61029c610534366004612b88565b610fe2565b6102fd61102a565b6105687f000000000000000000000000000000000000000000000000000000000000000081565b60405160ff909116815260200161026c565b6006546001600160a01b03166102d2565b6102b261103e565b6102fd6105a1366004612bb1565b61104d565b6102fd6105b4366004612be8565b611058565b600d54600e54600f546010546011546012546013546105db9695949392919087565b604080519788526020880196909652948601939093526060850191909152608084015260a083015260c082015260e00161026c565b6102b261061e366004612910565b61106f565b61029c60085481565b6104bd620493e081565b6102fd610644366004612910565b6110e4565b61069f610657366004612ca8565b60146020526000908152604090206001015463ffffffff808216916401000000008104821691600160401b8204811691600160601b810490911690600160801b900460ff1685565b6040805163ffffffff96871681529486166020860152928516928401929092529092166060820152901515608082015260a00161026c565b6102fd6106e5366004612b88565b611475565b6102606106f8366004612cc3565b611500565b6102fd61070b366004612b88565b61152e565b60006001600160e01b031982166380ac58cd60e01b148061074157506001600160e01b03198216635b5e139f60e01b145b8061075c57506301ffc9a760e01b6001600160e01b03198316145b92915050565b60606000805461077190612cf6565b80601f016020809104026020016040519081016040528092919081815260200182805461079d90612cf6565b80156107ea5780601f106107bf576101008083540402835291602001916107ea565b820191906000526020600020905b8154815290600101906020018083116107cd57829003601f168201915b5050505050905090565b60006107ff82611569565b506000828152600460205260409020546001600160a01b031661075c565b6108288282336115a2565b5050565b6108346115af565b6016805461ff001981166101009182900460ff1615909102179055565b336001600160a01b037f000000000000000000000000000000000000000000000000000000000000000016146108d05760405163073e64fd60e21b81523360048201526001600160a01b037f00000000000000000000000000000000000000000000000000000000000000001660248201526044015b60405180910390fd5b61082882826115dc565b6001600160a01b03821661090457604051633250574960e11b8152600060048201526024016108c7565b6000610911838333611734565b9050836001600160a01b0316816001600160a01b03161461095f576040516364283d7b60e01b81526001600160a01b03808616600483015260248201849052821660448201526064016108c7565b50505050565b61096d61182d565b601654610100900460ff161561099657604051634cb3183d60e01b815260040160405180910390fd5b60085442106109b85760405163ecdd1c2960e01b815260040160405180910390fd5b60005b6004811015610a155760188282600481106109d8576109d8612d2a565b6020020160208101906109eb9190612d40565b60ff161115610a0d576040516308214f1760e21b815260040160405180910390fd5b6001016109bb565b50610a6b6001600160a01b037f00000000000000000000000000000000000000000000000000000000000000001633307f0000000000000000000000000000000000000000000000000000000000000000611857565b600a805460009182610a7c83612d79565b919050559050610a8c33826118be565b604080516080808201835264ffffffffff4216825260095462ffffff1660208301528251808201845291928301919085906004908390839080828437600092018290525092845250506020918201819052838152600b8252604090819020835181549385015162ffffff16600160281b0267ffffffffffffffff1990941664ffffffffff90911617929092178255820151610b2d90600183019060046127b3565b50606091909101516002909101805460ff19169115159190911790556009805462ffffff9081166000908152600c602090815260408083208054600181018255908452918320909101859055925492519290911691839133917f12eee7f99ea5c9c160467d40a467f18c62607b8d43607d0840f168cc2b55b2e49190a450610bb56001600755565b50565b610bd383838360405180602001604052806000815250611058565b505050565b60165460ff161580610bf15750601654610100900460ff165b15610c0f5760405163fc5eaefd60e01b815260040160405180910390fd5b600854421015610c325760405163085de62560e01b815260040160405180910390fd5b60095462ffffff16610c43816118d8565b610c4c81611aac565b6009805460019190600090610c6790849062ffffff16612d92565b92506101000a81548162ffffff021916908362ffffff1602179055506201518060086000828254610c989190612db5565b909155505060095460085460405190815262ffffff909116907f70aba4eecfb00a70e5aae193521bc256fc3cbf7a91479f6bcda4b5a82f9869619060200160405180910390a2505050565b610ceb6115af565b6016805460ff19811660ff90911615179055565b801580610d0d575061012c81115b15610d17575061012c5b62ffffff821660009081526014602052604090206001810154600160801b900460ff1615610d5857604051631454e6c760e01b815260040160405180910390fd5b62ffffff83166000908152600c602052604081206001830154909163ffffffff90911690610d868583612db5565b8354909150811115610d96575081545b815b81811015610dd657610dc6848281548110610db557610db5612d2a565b906000526020600020015486611bf2565b610dcf81612d79565b9050610d98565b5060018401805463ffffffff191663ffffffff8316179055604080518381526020810183905262ffffff8816917f95f2647279697d92fbfbd24a0e306c284798157a253e2126ebf1451515f6fbd9910160405180910390a282548103610f865760018401805460ff60801b1916600160801b17908190556040805163ffffffff640100000000840481168252600160401b840481166020830152600160601b9093049092169082015262ffffff8716907f9094b2b67842abb4391fc6c54030e03d20642491efeb4eda225641eac3b101279060600160405180910390a26001840154640100000000900463ffffffff1615801590610ed5575060115415155b15610efa57601154600d8054600090610eef908490612db5565b909155505060006011555b6001840154600160401b900463ffffffff1615801590610f1b575060125415155b15610f4057601254600e8054600090610f35908490612db5565b909155505060006012555b6001840154600160601b900463ffffffff1615801590610f61575060135415155b15610f8657601354600f8054600090610f7b908490612db5565b909155505060006013555b505050505050565b600061075c82611569565b60165460009060609060ff168015610fb95750601654610100900460ff16155b8015610fc757506008544210155b91506040518060200160405280600081525090509250929050565b60006001600160a01b03821661100e576040516322718ad960e21b8152600060048201526024016108c7565b506001600160a01b031660009081526003602052604090205490565b6110326115af565b61103c6000611e79565b565b60606001805461077190612cf6565b610828338383611ecb565b6110638484846108da565b61095f84848484611f6a565b606061107a82611569565b50600061109260408051602081019091526000815290565b905060008151116110b257604051806020016040528060008152506110dd565b806110bc84612093565b6040516020016110cd929190612dc8565b6040516020818303038152906040525b9392505050565b6110ec61182d565b6000818152600b60205260409020600281015460ff161561112057604051630c8d9eab60e31b815260040160405180910390fd5b3361112a83610f8e565b6001600160a01b031614611151576040516330c6392160e11b815260040160405180910390fd5b8054600160281b900462ffffff1660009081526014602052604090206001810154600160801b900460ff166111b85760405162461bcd60e51b815260206004820152600d60248201526c646179206e6f7420726561647960981b60448201526064016108c7565b60408051608081019182905260009161125a919060018601906004908286855b825461010083900a900460ff168152602060019283018181049485019490930390920291018084116111d85750506040805160808101918290529450889350600492509050826000855b825461010083900a900460ff168152602060019283018181049485019490930390920291018084116112225790505050505050612126565b905060008160ff16600114801561128257506001830154640100000000900463ffffffff1615155b156112c9576001830154600d546112a791640100000000900463ffffffff1690612e0d565b905080600d60000160008282546112be9190612e21565b909155506113d09050565b8160ff1660021480156112ec57506001830154600160401b900463ffffffff1615155b15611327576001830154600e5461131091600160401b900463ffffffff1690612e0d565b905080600d60010160008282546112be9190612e21565b8160ff16600314801561134a57506001830154600160601b900463ffffffff1615155b15611385576001830154600f5461136e91600160601b900463ffffffff1690612e0d565b905080600d60020160008282546112be9190612e21565b8160ff166004036113b757507f00000000000000000000000000000000000000000000000000000000000000006113d0565b6040516330c6392160e11b815260040160405180910390fd5b60028401805460ff191660011790556114136001600160a01b037f00000000000000000000000000000000000000000000000000000000000000001633836122cb565b83546040805133815260ff851660208201529081018390528691600160281b900462ffffff16907ffa7d7e6fad77bb2eb32e03cd3103bcb3df591ea9338a7395a149d9c180a170c79060600160405180910390a350505050610bb56001600755565b61147d6115af565b6010805460009091556114ba6001600160a01b037f00000000000000000000000000000000000000000000000000000000000000001683836122cb565b604080516001600160a01b0384168152602081018390527fc32a4a91927ebe92c55e1f8cd216c8a1d74e53b9b0a82b6b982e5dd3ac71af03910160405180910390a15050565b6001600160a01b03918216600090815260056020908152604080832093909416825291909152205460ff1690565b6115366115af565b6001600160a01b03811661156057604051631e4fbdf760e01b8152600060048201526024016108c7565b610bb581611e79565b6000818152600260205260408120546001600160a01b03168061075c57604051637e27328960e01b8152600481018490526024016108c7565b610bd383838360016122fc565b6006546001600160a01b0316331461103c5760405163118cdaa760e01b81523360048201526024016108c7565b60008281526015602090815260408083205462ffffff16808452601490925282208351919290918490829061161357611613612d2a565b6020026020010151905060198161162a9190612e34565b825460ff191660ff9190911617825560081c611647601982612e34565b825460ff919091166101000261ff001990911617825560081c61166b601982612e34565b825460ff91909116620100000262ff00001990911617825560081c611691601982612e34565b825463ff000000198116630100000060ff9384160290811780865560018601805470ff000000000000000000000000ffffffff1916905560408051928516938516939093178252600881901c84166020830152601081901c84168284015260181c90921660608301525162ffffff8516917f9dedf238b51cb2f65e712b6f39ab9f3e89a6268d251b582c9ceec37e6ddfba63919081900360800190a25050505050565b6000828152600260205260408120546001600160a01b039081169083161561176157611761818486612402565b6001600160a01b0381161561179f5761177e6000856000806122fc565b6001600160a01b038116600090815260036020526040902080546000190190555b6001600160a01b038516156117ce576001600160a01b0385166000908152600360205260409020805460010190555b60008481526002602052604080822080546001600160a01b0319166001600160a01b0389811691821790925591518793918516917fddf252ad1be2c89b69c2b068fc378daa952ba7f163c4a11628f55a4df523b3ef91a4949350505050565b60026007540361185057604051633ee5aeb560e01b815260040160405180910390fd5b6002600755565b6040516001600160a01b03848116602483015283811660448301526064820183905261095f9186918216906323b872dd906084015b604051602081830303815290604052915060e01b6020820180516001600160e01b038381831617835250505050612466565b6108288282604051806020016040528060008152506124c9565b62ffffff81166000908152600c6020526040812054908190036118f9575050565b60006119257f000000000000000000000000000000000000000000000000000000000000000083612e48565b905060006064611936605084612e48565b6119409190612e0d565b905060006064611951601485612e48565b61195b9190612e0d565b9050606461196a605084612e48565b6119749190612e0d565b600d8054600090611986908490612db5565b9091555060649050611999600a84612e48565b6119a39190612e0d565b600e80546000906119b5908490612db5565b90915550606490506119c8600584612e48565b6119d29190612e0d565b600f80546000906119e4908490612db5565b90915550606490506119f7600584612e48565b611a019190612e0d565b60108054600090611a13908490612db5565b9091555060649050611a26605083612e48565b611a309190612e0d565b60118054600090611a42908490612db5565b9091555060649050611a55600a83612e48565b611a5f9190612e0d565b60128054600090611a71908490612db5565b9091555060649050611a84600a83612e48565b611a8e9190612e0d565b60138054600090611aa0908490612db5565b90915550505050505050565b6040516305d3b1d360e41b81527f0000000000000000000000000000000000000000000000000000000000000000600482015267ffffffffffffffff7f000000000000000000000000000000000000000000000000000000000000000016602482015260036044820152620493e06064820152600160848201526000907f00000000000000000000000000000000000000000000000000000000000000006001600160a01b031690635d3b1d309060a4016020604051808303816000875af1158015611b7c573d6000803e3d6000fd5b505050506040513d601f19601f82011682018060405250810190611ba09190612e5f565b600081815260156020526040808220805462ffffff191662ffffff871690811790915590519293509183917f6d9c99357d359ebc464c51fb3162f671b2bd8fecd626dd9f4f5e329076aa00f291a35050565b6000828152600b60205260408082208151608081019283905290929184906004908285855b825461010083900a900460ff16815260206001928301818104948501949093039092029101808411611c17579050505050505090506000805b6004811015611cb257828160048110611c6b57611c6b612d2a565b602002015160ff16846001018260048110611c8857611c88612d2a565b602081049091015460ff601f9092166101000a90041603611caa578160010191505b600101611c50565b508060ff16600403611d0357600184018054600490611cde90640100000000900463ffffffff16612e78565b91906101000a81548163ffffffff021916908363ffffffff1602179055505050505050565b8060ff16600303611d2d57600184018054600c90611cde90600160601b900463ffffffff16612e78565b611d35612846565b6000805b6004811015611d955782866001018260048110611d5857611d58612d2a565b602081049091015460ff601f9092166101000a90041660198110611d7e57611d7e612d2a565b60200201805160ff60019182011690915201611d39565b5060005b6004811015611e2657600083868360048110611db757611db7612d2a565b602002015160ff1660198110611dcf57611dcf612d2a565b602002015160ff161115611e1e5781600101915082858260048110611df657611df6612d2a565b602002015160ff1660198110611e0e57611e0e612d2a565b6020020180516000190160ff1690525b600101611d99565b508060ff16600403611e7057600186018054600890611e5190600160401b900463ffffffff16612e78565b91906101000a81548163ffffffff021916908363ffffffff1602179055505b50505050505050565b600680546001600160a01b038381166001600160a01b0319831681179093556040519116919082907f8be0079c531659141344cd1fd0a4f28419497f9722a3daafe3b4186f6b6457e090600090a35050565b6001600160a01b038216611efd57604051630b61174360e31b81526001600160a01b03831660048201526024016108c7565b6001600160a01b03838116600081815260056020908152604080832094871680845294825291829020805460ff191686151590811790915591519182527f17307eab39ab6107e8899845ad3d59bd9653f200f220920489ca2b5937696c31910160405180910390a3505050565b6001600160a01b0383163b1561095f57604051630a85bd0160e11b81526001600160a01b0384169063150b7a0290611fac903390889087908790600401612e9b565b6020604051808303816000875af1925050508015611fe7575060408051601f3d908101601f19168201909252611fe491810190612ece565b60015b612050573d808015612015576040519150601f19603f3d011682016040523d82523d6000602084013e61201a565b606091505b50805160000361204857604051633250574960e11b81526001600160a01b03851660048201526024016108c7565b805181602001fd5b6001600160e01b03198116630a85bd0160e11b1461208c57604051633250574960e11b81526001600160a01b03851660048201526024016108c7565b5050505050565b606060006120a0836124e0565b600101905060008167ffffffffffffffff8111156120c0576120c061296f565b6040519080825280601f01601f1916602001820160405280156120ea576020820181803683370190505b5090508181016020015b600019016f181899199a1a9b1b9c1cb0b131b232b360811b600a86061a8153600a85049450846120f457509392505050565b60008060005b600481101561217d5783816004811061214757612147612d2a565b602002015160ff1685826004811061216157612161612d2a565b602002015160ff1603612175578160010191505b60010161212c565b508060ff1660040361219357600191505061075c565b8060ff166003036121a857600391505061075c565b6121b0612846565b6000805b60048110156121ff57828782600481106121d0576121d0612d2a565b602002015160ff16601981106121e8576121e8612d2a565b60200201805160ff600191820116909152016121b4565b5060005b60048110156122905760008387836004811061222157612221612d2a565b602002015160ff166019811061223957612239612d2a565b602002015160ff161115612288578160010191508286826004811061226057612260612d2a565b602002015160ff166019811061227857612278612d2a565b6020020180516000190160ff1690525b600101612203565b508060ff166004036122a8576002935050505061075c565b8060ff166003036122bf576004935050505061075c565b50600095945050505050565b6040516001600160a01b03838116602483015260448201839052610bd391859182169063a9059cbb9060640161188c565b808061231057506001600160a01b03821615155b156123d257600061232084611569565b90506001600160a01b0383161580159061234c5750826001600160a01b0316816001600160a01b031614155b801561235f575061235d8184611500565b155b156123885760405163a9fbf51f60e01b81526001600160a01b03841660048201526024016108c7565b81156123d05783856001600160a01b0316826001600160a01b03167f8c5be1e5ebec7d5bd14f71427d1e84f3dd0314c0f7b2291e5b200ac8c7c3b92560405160405180910390a45b505b5050600090815260046020526040902080546001600160a01b0319166001600160a01b0392909216919091179055565b61240d8383836125b8565b610bd3576001600160a01b03831661243b57604051637e27328960e01b8152600481018290526024016108c7565b60405163177e802f60e01b81526001600160a01b0383166004820152602481018290526044016108c7565b600061247b6001600160a01b0384168361261e565b905080516000141580156124a057508080602001905181019061249e9190612eeb565b155b15610bd357604051635274afe760e01b81526001600160a01b03841660048201526024016108c7565b6124d3838361262c565b610bd36000848484611f6a565b60008072184f03e93ff9f4daa797ed6e38ed64bf6a1f0160401b831061251f5772184f03e93ff9f4daa797ed6e38ed64bf6a1f0160401b830492506040015b6d04ee2d6d415b85acef8100000000831061254b576d04ee2d6d415b85acef8100000000830492506020015b662386f26fc10000831061256957662386f26fc10000830492506010015b6305f5e1008310612581576305f5e100830492506008015b612710831061259557612710830492506004015b606483106125a7576064830492506002015b600a831061075c5760010192915050565b60006001600160a01b038316158015906126165750826001600160a01b0316846001600160a01b031614806125f257506125f28484611500565b8061261657506000828152600460205260409020546001600160a01b038481169116145b949350505050565b60606110dd83836000612691565b6001600160a01b03821661265657604051633250574960e11b8152600060048201526024016108c7565b600061266483836000611734565b90506001600160a01b03811615610bd3576040516339e3563760e11b8152600060048201526024016108c7565b6060814710156126b65760405163cd78605960e01b81523060048201526024016108c7565b600080856001600160a01b031684866040516126d29190612f08565b60006040518083038185875af1925050503d806000811461270f576040519150601f19603f3d011682016040523d82523d6000602084013e612714565b606091505b509150915061272486838361272e565b9695505050505050565b6060826127435761273e8261278a565b6110dd565b815115801561275a57506001600160a01b0384163b155b1561278357604051639996b31560e01b81526001600160a01b03851660048201526024016108c7565b50806110dd565b80511561279a5780518082602001fd5b604051630a12f52160e11b815260040160405180910390fd5b6001830191839082156128365791602002820160005b8382111561280757835183826101000a81548160ff021916908360ff16021790555092602001926001016020816000010492830192600103026127c9565b80156128345782816101000a81549060ff0219169055600101602081600001049283019260010302612807565b505b50612842929150612865565b5090565b6040518061032001604052806019906020820280368337509192915050565b5b808211156128425760008155600101612866565b6001600160e01b031981168114610bb557600080fd5b6000602082840312156128a257600080fd5b81356110dd8161287a565b60005b838110156128c85781810151838201526020016128b0565b50506000910152565b600081518084526128e98160208601602086016128ad565b601f01601f19169290920160200192915050565b6020815260006110dd60208301846128d1565b60006020828403121561292257600080fd5b5035919050565b80356001600160a01b038116811461294057600080fd5b919050565b6000806040838503121561295857600080fd5b61296183612929565b946020939093013593505050565b634e487b7160e01b600052604160045260246000fd5b604051601f8201601f1916810167ffffffffffffffff811182821017156129ae576129ae61296f565b604052919050565b600080604083850312156129c957600080fd5b8235915060208084013567ffffffffffffffff808211156129e957600080fd5b818601915086601f8301126129fd57600080fd5b813581811115612a0f57612a0f61296f565b8060051b9150612a20848301612985565b8181529183018401918481019089841115612a3a57600080fd5b938501935b83851015612a5857843582529385019390850190612a3f565b8096505050505050509250929050565b600080600060608486031215612a7d57600080fd5b612a8684612929565b9250612a9460208501612929565b9150604084013590509250925092565b600060808284031215612ab657600080fd5b82608083011115612ac657600080fd5b50919050565b60008060208385031215612adf57600080fd5b823567ffffffffffffffff80821115612af757600080fd5b818501915085601f830112612b0b57600080fd5b813581811115612b1a57600080fd5b866020828501011115612b2c57600080fd5b60209290920196919550909350505050565b803562ffffff8116811461294057600080fd5b60008060408385031215612b6457600080fd5b61296183612b3e565b821515815260406020820152600061261660408301846128d1565b600060208284031215612b9a57600080fd5b6110dd82612929565b8015158114610bb557600080fd5b60008060408385031215612bc457600080fd5b612bcd83612929565b91506020830135612bdd81612ba3565b809150509250929050565b60008060008060808587031215612bfe57600080fd5b612c0785612929565b93506020612c16818701612929565b935060408601359250606086013567ffffffffffffffff80821115612c3a57600080fd5b818801915088601f830112612c4e57600080fd5b813581811115612c6057612c6061296f565b612c72601f8201601f19168501612985565b91508082528984828501011115612c8857600080fd5b808484018584013760008482840101525080935050505092959194509250565b600060208284031215612cba57600080fd5b6110dd82612b3e565b60008060408385031215612cd657600080fd5b612cdf83612929565b9150612ced60208401612929565b90509250929050565b600181811c90821680612d0a57607f821691505b602082108103612ac657634e487b7160e01b600052602260045260246000fd5b634e487b7160e01b600052603260045260246000fd5b600060208284031215612d5257600080fd5b813560ff811681146110dd57600080fd5b634e487b7160e01b600052601160045260246000fd5b600060018201612d8b57612d8b612d63565b5060010190565b62ffffff818116838216019080821115612dae57612dae612d63565b5092915050565b8082018082111561075c5761075c612d63565b60008351612dda8184602088016128ad565b835190830190612dee8183602088016128ad565b01949350505050565b634e487b7160e01b600052601260045260246000fd5b600082612e1c57612e1c612df7565b500490565b8181038181111561075c5761075c612d63565b600082612e4357612e43612df7565b500690565b808202811582820484141761075c5761075c612d63565b600060208284031215612e7157600080fd5b5051919050565b600063ffffffff808316818103612e9157612e91612d63565b6001019392505050565b6001600160a01b0385811682528416602082015260408101839052608060608201819052600090612724908301846128d1565b600060208284031215612ee057600080fd5b81516110dd8161287a565b600060208284031215612efd57600080fd5b81516110dd81612ba3565b60008251612f1a8184602087016128ad565b919091019291505056fea2646970667358221220e80714f83d0c1d5616505acdc8c817db252c879f22fa7b8b8ddeb1a24bbf466864736f6c63430008140033","opcodes":"PUSH2 0x160 PUSH1 0x40 MSTORE PUSH1 0x9 DUP1 SLOAD PUSH3 0xFFFFFF NOT AND PUSH1 0x1 SWAP1 DUP2 OR SWAP1 SWAP2 SSTORE PUSH1 0xA DUP2 SWAP1 SSTORE PUSH1 0x16 DUP1 SLOAD PUSH2 0xFFFF NOT AND SWAP1 SWAP2 OR SWAP1 SSTORE CALLVALUE DUP1 ISZERO PUSH3 0x37 JUMPI PUSH1 0x0 DUP1 REVERT JUMPDEST POP PUSH1 0x40 MLOAD PUSH3 0x350A CODESIZE SUB DUP1 PUSH3 0x350A DUP4 CODECOPY DUP2 ADD PUSH1 0x40 DUP2 SWAP1 MSTORE PUSH3 0x5A SWAP2 PUSH3 0x2B6 JUMP JUMPDEST DUP3 CALLER PUSH1 0x40 MLOAD DUP1 PUSH1 0x40 ADD PUSH1 0x40 MSTORE DUP1 PUSH1 0x10 DUP2 MSTORE PUSH1 0x20 ADD PUSH16 0x131BDD1D1BD35BDA9A48151A58DAD95D PUSH1 0x82 SHL DUP2 MSTORE POP PUSH1 0x40 MLOAD DUP1 PUSH1 0x40 ADD PUSH1 0x40 MSTORE DUP1 PUSH1 0x5 DUP2 MSTORE PUSH1 0x20 ADD PUSH5 0x4C4D4A544B PUSH1 0xD8 SHL DUP2 MSTORE POP DUP2 PUSH1 0x0 SWAP1 DUP2 PUSH3 0xB4 SWAP2 SWAP1 PUSH3 0x3E1 JUMP JUMPDEST POP PUSH1 0x1 PUSH3 0xC3 DUP3 DUP3 PUSH3 0x3E1 JUMP JUMPDEST POP POP POP PUSH1 0x1 PUSH1 0x1 PUSH1 0xA0 SHL SUB DUP2 AND PUSH3 0xF6 JUMPI PUSH1 0x40 MLOAD PUSH4 0x1E4FBDF7 PUSH1 0xE0 SHL DUP2 MSTORE PUSH1 0x0 PUSH1 0x4 DUP3 ADD MSTORE PUSH1 0x24 ADD JUMPDEST PUSH1 0x40 MLOAD DUP1 SWAP2 SUB SWAP1 REVERT JUMPDEST PUSH3 0x101 DUP2 PUSH3 0x1DF JUMP JUMPDEST POP PUSH1 0x1 PUSH1 0x7 SSTORE PUSH1 0x1 PUSH1 0x1 PUSH1 0xA0 SHL SUB AND PUSH1 0x80 MSTORE PUSH1 0x18 PUSH1 0xFF DUP8 AND LT PUSH3 0x152 JUMPI PUSH1 0x40 MLOAD PUSH3 0x461BCD PUSH1 0xE5 SHL DUP2 MSTORE PUSH1 0x20 PUSH1 0x4 DUP3 ADD MSTORE PUSH1 0x7 PUSH1 0x24 DUP3 ADD MSTORE PUSH7 0x1A1BDD5C8F0C8D PUSH1 0xCA SHL PUSH1 0x44 DUP3 ADD MSTORE PUSH1 0x64 ADD PUSH3 0xED JUMP JUMPDEST PUSH1 0xFF DUP7 AND PUSH1 0xA0 MSTORE PUSH1 0x1 PUSH1 0x1 PUSH1 0xA0 SHL SUB DUP1 DUP7 AND PUSH1 0xE0 MSTORE PUSH1 0xC0 DUP6 SWAP1 MSTORE DUP4 AND PUSH2 0x100 MSTORE PUSH2 0x120 DUP3 SWAP1 MSTORE PUSH1 0x1 PUSH1 0x1 PUSH1 0x40 SHL SUB DUP2 AND PUSH2 0x140 MSTORE PUSH3 0x192 TIMESTAMP DUP8 PUSH3 0x231 JUMP JUMPDEST PUSH1 0x8 DUP2 SWAP1 SSTORE PUSH1 0x9 SLOAD PUSH1 0x40 MLOAD SWAP2 DUP3 MSTORE PUSH3 0xFFFFFF AND SWAP1 PUSH32 0x70ABA4EECFB00A70E5AAE193521BC256FC3CBF7A91479F6BCDA4B5A82F986961 SWAP1 PUSH1 0x20 ADD PUSH1 0x40 MLOAD DUP1 SWAP2 SUB SWAP1 LOG2 POP POP POP POP POP POP PUSH3 0x516 JUMP JUMPDEST PUSH1 0x6 DUP1 SLOAD PUSH1 0x1 PUSH1 0x1 PUSH1 0xA0 SHL SUB DUP4 DUP2 AND PUSH1 0x1 PUSH1 0x1 PUSH1 0xA0 SHL SUB NOT DUP4 AND DUP2 OR SWAP1 SWAP4 SSTORE PUSH1 0x40 MLOAD SWAP2 AND SWAP2 SWAP1 DUP3 SWAP1 PUSH32 0x8BE0079C531659141344CD1FD0A4F28419497F9722A3DAAFE3B4186F6B6457E0 SWAP1 PUSH1 0x0 SWAP1 LOG3 POP POP JUMP JUMPDEST PUSH1 0x0 DUP1 PUSH3 0x243 PUSH3 0x15180 DUP6 PUSH3 0x4C3 JUMP JUMPDEST PUSH3 0x252 SWAP1 PUSH3 0x15180 PUSH3 0x4E6 JUMP JUMPDEST SWAP1 POP PUSH1 0x0 PUSH3 0x267 PUSH1 0xFF DUP6 AND PUSH2 0xE10 PUSH3 0x4E6 JUMP JUMPDEST PUSH3 0x273 SWAP1 DUP4 PUSH3 0x500 JUMP JUMPDEST SWAP1 POP DUP5 DUP2 GT PUSH3 0x28F JUMPI PUSH3 0x28C PUSH3 0x15180 DUP3 PUSH3 0x500 JUMP JUMPDEST SWAP1 POP JUMPDEST SWAP2 POP POP JUMPDEST SWAP3 SWAP2 POP POP JUMP JUMPDEST DUP1 MLOAD PUSH1 0x1 PUSH1 0x1 PUSH1 0xA0 SHL SUB DUP2 AND DUP2 EQ PUSH3 0x2B1 JUMPI PUSH1 0x0 DUP1 REVERT JUMPDEST SWAP2 SWAP1 POP JUMP JUMPDEST PUSH1 0x0 DUP1 PUSH1 0x0 DUP1 PUSH1 0x0 DUP1 PUSH1 0xC0 DUP8 DUP10 SUB SLT ISZERO PUSH3 0x2D0 JUMPI PUSH1 0x0 DUP1 REVERT JUMPDEST DUP7 MLOAD PUSH1 0xFF DUP2 AND DUP2 EQ PUSH3 0x2E2 JUMPI PUSH1 0x0 DUP1 REVERT JUMPDEST SWAP6 POP PUSH3 0x2F2 PUSH1 0x20 DUP9 ADD PUSH3 0x299 JUMP JUMPDEST SWAP5 POP PUSH1 0x40 DUP8 ADD MLOAD SWAP4 POP PUSH3 0x309 PUSH1 0x60 DUP9 ADD PUSH3 0x299 JUMP JUMPDEST PUSH1 0x80 DUP9 ADD MLOAD PUSH1 0xA0 DUP10 ADD MLOAD SWAP2 SWAP5 POP SWAP3 POP PUSH1 0x1 PUSH1 0x1 PUSH1 0x40 SHL SUB DUP2 AND DUP2 EQ PUSH3 0x32E JUMPI PUSH1 0x0 DUP1 REVERT JUMPDEST DUP1 SWAP2 POP POP SWAP3 SWAP6 POP SWAP3 SWAP6 POP SWAP3 SWAP6 JUMP JUMPDEST PUSH4 0x4E487B71 PUSH1 0xE0 SHL PUSH1 0x0 MSTORE PUSH1 0x41 PUSH1 0x4 MSTORE PUSH1 0x24 PUSH1 0x0 REVERT JUMPDEST PUSH1 0x1 DUP2 DUP2 SHR SWAP1 DUP3 AND DUP1 PUSH3 0x367 JUMPI PUSH1 0x7F DUP3 AND SWAP2 POP JUMPDEST PUSH1 0x20 DUP3 LT DUP2 SUB PUSH3 0x388 JUMPI PUSH4 0x4E487B71 PUSH1 0xE0 SHL PUSH1 0x0 MSTORE PUSH1 0x22 PUSH1 0x4 MSTORE PUSH1 0x24 PUSH1 0x0 REVERT JUMPDEST POP SWAP2 SWAP1 POP JUMP JUMPDEST PUSH1 0x1F DUP3 GT ISZERO PUSH3 0x3DC JUMPI PUSH1 0x0 DUP2 DUP2 MSTORE PUSH1 0x20 DUP2 KECCAK256 PUSH1 0x1F DUP6 ADD PUSH1 0x5 SHR DUP2 ADD PUSH1 0x20 DUP7 LT ISZERO PUSH3 0x3B7 JUMPI POP DUP1 JUMPDEST PUSH1 0x1F DUP6 ADD PUSH1 0x5 SHR DUP3 ADD SWAP2 POP JUMPDEST DUP2 DUP2 LT ISZERO PUSH3 0x3D8 JUMPI DUP3 DUP2 SSTORE PUSH1 0x1 ADD PUSH3 0x3C3 JUMP JUMPDEST POP POP POP JUMPDEST POP POP POP JUMP JUMPDEST DUP2 MLOAD PUSH1 0x1 PUSH1 0x1 PUSH1 0x40 SHL SUB DUP2 GT ISZERO PUSH3 0x3FD JUMPI PUSH3 0x3FD PUSH3 0x33C JUMP JUMPDEST PUSH3 0x415 DUP2 PUSH3 0x40E DUP5 SLOAD PUSH3 0x352 JUMP JUMPDEST DUP5 PUSH3 0x38E JUMP JUMPDEST PUSH1 0x20 DUP1 PUSH1 0x1F DUP4 GT PUSH1 0x1 DUP2 EQ PUSH3 0x44D JUMPI PUSH1 0x0 DUP5 ISZERO PUSH3 0x434 JUMPI POP DUP6 DUP4 ADD MLOAD JUMPDEST PUSH1 0x0 NOT PUSH1 0x3 DUP7 SWAP1 SHL SHR NOT AND PUSH1 0x1 DUP6 SWAP1 SHL OR DUP6 SSTORE PUSH3 0x3D8 JUMP JUMPDEST PUSH1 0x0 DUP6 DUP2 MSTORE PUSH1 0x20 DUP2 KECCAK256 PUSH1 0x1F NOT DUP7 AND SWAP2 JUMPDEST DUP3 DUP2 LT ISZERO PUSH3 0x47E JUMPI DUP9 DUP7 ADD MLOAD DUP3 SSTORE SWAP5 DUP5 ADD SWAP5 PUSH1 0x1 SWAP1 SWAP2 ADD SWAP1 DUP5 ADD PUSH3 0x45D JUMP JUMPDEST POP DUP6 DUP3 LT ISZERO PUSH3 0x49D JUMPI DUP8 DUP6 ADD MLOAD PUSH1 0x0 NOT PUSH1 0x3 DUP9 SWAP1 SHL PUSH1 0xF8 AND SHR NOT AND DUP2 SSTORE JUMPDEST POP POP POP POP POP PUSH1 0x1 SWAP1 DUP2 SHL ADD SWAP1 SSTORE POP JUMP JUMPDEST PUSH4 0x4E487B71 PUSH1 0xE0 SHL PUSH1 0x0 MSTORE PUSH1 0x11 PUSH1 0x4 MSTORE PUSH1 0x24 PUSH1 0x0 REVERT JUMPDEST PUSH1 0x0 DUP3 PUSH3 0x4E1 JUMPI PUSH4 0x4E487B71 PUSH1 0xE0 SHL PUSH1 0x0 MSTORE PUSH1 0x12 PUSH1 0x4 MSTORE PUSH1 0x24 PUSH1 0x0 REVERT JUMPDEST POP DIV SWAP1 JUMP JUMPDEST DUP1 DUP3 MUL DUP2 ISZERO DUP3 DUP3 DIV DUP5 EQ OR PUSH3 0x293 JUMPI PUSH3 0x293 PUSH3 0x4AD JUMP JUMPDEST DUP1 DUP3 ADD DUP1 DUP3 GT ISZERO PUSH3 0x293 JUMPI PUSH3 0x293 PUSH3 0x4AD JUMP JUMPDEST PUSH1 0x80 MLOAD PUSH1 0xA0 MLOAD PUSH1 0xC0 MLOAD PUSH1 0xE0 MLOAD PUSH2 0x100 MLOAD PUSH2 0x120 MLOAD PUSH2 0x140 MLOAD PUSH2 0x2F5A PUSH3 0x5B0 PUSH1 0x0 CODECOPY PUSH1 0x0 DUP2 DUP2 PUSH2 0x3A3 ADD MSTORE PUSH2 0x1AEA ADD MSTORE PUSH1 0x0 DUP2 DUP2 PUSH2 0x27A ADD MSTORE PUSH2 0x1ABB ADD MSTORE PUSH1 0x0 PUSH2 0x1B2B ADD MSTORE PUSH1 0x0 DUP2 DUP2 PUSH2 0x37C ADD MSTORE DUP2 DUP2 PUSH2 0xA23 ADD MSTORE DUP2 DUP2 PUSH2 0x13EC ADD MSTORE PUSH2 0x1493 ADD MSTORE PUSH1 0x0 DUP2 DUP2 PUSH2 0x327 ADD MSTORE DUP2 DUP2 PUSH2 0xA47 ADD MSTORE DUP2 DUP2 PUSH2 0x1393 ADD MSTORE PUSH2 0x1900 ADD MSTORE PUSH1 0x0 PUSH2 0x546 ADD MSTORE PUSH1 0x0 DUP2 DUP2 PUSH2 0x85C ADD MSTORE PUSH2 0x89E ADD MSTORE PUSH2 0x2F5A PUSH1 0x0 RETURN INVALID PUSH1 0x80 PUSH1 0x40 MSTORE CALLVALUE DUP1 ISZERO PUSH2 0x10 JUMPI PUSH1 0x0 DUP1 REVERT JUMPDEST POP PUSH1 0x4 CALLDATASIZE LT PUSH2 0x248 JUMPI PUSH1 0x0 CALLDATALOAD PUSH1 0xE0 SHR DUP1 PUSH4 0x5D58F930 GT PUSH2 0x13B JUMPI DUP1 PUSH4 0xB88D4FDE GT PUSH2 0xB8 JUMPI DUP1 PUSH4 0xD7098154 GT PUSH2 0x7C JUMPI DUP1 PUSH4 0xD7098154 EQ PUSH2 0x636 JUMPI DUP1 PUSH4 0xD96226A2 EQ PUSH2 0x649 JUMPI DUP1 PUSH4 0xE8CFBE69 EQ PUSH2 0x6D7 JUMPI DUP1 PUSH4 0xE985E9C5 EQ PUSH2 0x6EA JUMPI DUP1 PUSH4 0xF2FDE38B EQ PUSH2 0x6FD JUMPI PUSH1 0x0 DUP1 REVERT JUMPDEST DUP1 PUSH4 0xB88D4FDE EQ PUSH2 0x5A6 JUMPI DUP1 PUSH4 0xC5C51DCA EQ PUSH2 0x5B9 JUMPI DUP1 PUSH4 0xC87B56DD EQ PUSH2 0x610 JUMPI DUP1 PUSH4 0xC8D51919 EQ PUSH2 0x623 JUMPI DUP1 PUSH4 0xD01ED8A3 EQ PUSH2 0x62C JUMPI PUSH1 0x0 DUP1 REVERT JUMPDEST DUP1 PUSH4 0x715018A6 GT PUSH2 0xFF JUMPI DUP1 PUSH4 0x715018A6 EQ PUSH2 0x539 JUMPI DUP1 PUSH4 0x8D6EF595 EQ PUSH2 0x541 JUMPI DUP1 PUSH4 0x8DA5CB5B EQ PUSH2 0x57A JUMPI DUP1 PUSH4 0x95D89B41 EQ PUSH2 0x58B JUMPI DUP1 PUSH4 0xA22CB465 EQ PUSH2 0x593 JUMPI PUSH1 0x0 DUP1 REVERT JUMPDEST DUP1 PUSH4 0x5D58F930 EQ PUSH2 0x4D2 JUMPI DUP1 PUSH4 0x6352211E EQ PUSH2 0x4E5 JUMPI DUP1 PUSH4 0x6BAF4A74 EQ PUSH2 0x4F8 JUMPI DUP1 PUSH4 0x6E04FF0D EQ PUSH2 0x505 JUMPI DUP1 PUSH4 0x70A08231 EQ PUSH2 0x526 JUMPI PUSH1 0x0 DUP1 REVERT JUMPDEST DUP1 PUSH4 0x3013CE29 GT PUSH2 0x1C9 JUMPI DUP1 PUSH4 0x4585E33B GT PUSH2 0x18D JUMPI DUP1 PUSH4 0x4585E33B EQ PUSH2 0x41F JUMPI DUP1 PUSH4 0x4F687E91 EQ PUSH2 0x432 JUMPI DUP1 PUSH4 0x50B44712 EQ PUSH2 0x43A JUMPI DUP1 PUSH4 0x51858E27 EQ PUSH2 0x4A3 JUMPI DUP1 PUSH4 0x5C900A1A EQ PUSH2 0x4B5 JUMPI PUSH1 0x0 DUP1 REVERT JUMPDEST DUP1 PUSH4 0x3013CE29 EQ PUSH2 0x377 JUMPI DUP1 PUSH4 0x32615640 EQ PUSH2 0x39E JUMPI DUP1 PUSH4 0x3D4962ED EQ PUSH2 0x3DE JUMPI DUP1 PUSH4 0x40985C98 EQ PUSH2 0x3F1 JUMPI DUP1 PUSH4 0x42842E0E EQ PUSH2 0x40C JUMPI PUSH1 0x0 DUP1 REVERT JUMPDEST DUP1 PUSH4 0xD50CDB9 GT PUSH2 0x210 JUMPI DUP1 PUSH4 0xD50CDB9 EQ PUSH2 0x2FF JUMPI DUP1 PUSH4 0x1209B1F6 EQ PUSH2 0x322 JUMPI DUP1 PUSH4 0x147E291F EQ PUSH2 0x349 JUMPI DUP1 PUSH4 0x1FE543E3 EQ PUSH2 0x351 JUMPI DUP1 PUSH4 0x23B872DD EQ PUSH2 0x364 JUMPI PUSH1 0x0 DUP1 REVERT JUMPDEST DUP1 PUSH4 0x1FFC9A7 EQ PUSH2 0x24D JUMPI DUP1 PUSH4 0x41D443E EQ PUSH2 0x275 JUMPI DUP1 PUSH4 0x6FDDE03 EQ PUSH2 0x2AA JUMPI DUP1 PUSH4 0x81812FC EQ PUSH2 0x2BF JUMPI DUP1 PUSH4 0x95EA7B3 EQ PUSH2 0x2EA JUMPI JUMPDEST PUSH1 0x0 DUP1 REVERT JUMPDEST PUSH2 0x260 PUSH2 0x25B CALLDATASIZE PUSH1 0x4 PUSH2 0x2890 JUMP JUMPDEST PUSH2 0x710 JUMP JUMPDEST PUSH1 0x40 MLOAD SWAP1 ISZERO ISZERO DUP2 MSTORE PUSH1 0x20 ADD JUMPDEST PUSH1 0x40 MLOAD DUP1 SWAP2 SUB SWAP1 RETURN JUMPDEST PUSH2 0x29C PUSH32 0x0 DUP2 JUMP JUMPDEST PUSH1 0x40 MLOAD SWAP1 DUP2 MSTORE PUSH1 0x20 ADD PUSH2 0x26C JUMP JUMPDEST PUSH2 0x2B2 PUSH2 0x762 JUMP JUMPDEST PUSH1 0x40 MLOAD PUSH2 0x26C SWAP2 SWAP1 PUSH2 0x28FD JUMP JUMPDEST PUSH2 0x2D2 PUSH2 0x2CD CALLDATASIZE PUSH1 0x4 PUSH2 0x2910 JUMP JUMPDEST PUSH2 0x7F4 JUMP JUMPDEST PUSH1 0x40 MLOAD PUSH1 0x1 PUSH1 0x1 PUSH1 0xA0 SHL SUB SWAP1 SWAP2 AND DUP2 MSTORE PUSH1 0x20 ADD PUSH2 0x26C JUMP JUMPDEST PUSH2 0x2FD PUSH2 0x2F8 CALLDATASIZE PUSH1 0x4 PUSH2 0x2945 JUMP JUMPDEST PUSH2 0x81D JUMP JUMPDEST STOP JUMPDEST PUSH1 0x9 SLOAD PUSH2 0x30E SWAP1 PUSH3 0xFFFFFF AND DUP2 JUMP JUMPDEST PUSH1 0x40 MLOAD PUSH3 0xFFFFFF SWAP1 SWAP2 AND DUP2 MSTORE PUSH1 0x20 ADD PUSH2 0x26C JUMP JUMPDEST PUSH2 0x29C PUSH32 0x0 DUP2 JUMP JUMPDEST PUSH2 0x2FD PUSH2 0x82C JUMP JUMPDEST PUSH2 0x2FD PUSH2 0x35F CALLDATASIZE PUSH1 0x4 PUSH2 0x29B6 JUMP JUMPDEST PUSH2 0x851 JUMP JUMPDEST PUSH2 0x2FD PUSH2 0x372 CALLDATASIZE PUSH1 0x4 PUSH2 0x2A68 JUMP JUMPDEST PUSH2 0x8DA JUMP JUMPDEST PUSH2 0x2D2 PUSH32 0x0 DUP2 JUMP JUMPDEST PUSH2 0x3C5 PUSH32 0x0 DUP2 JUMP JUMPDEST PUSH1 0x40 MLOAD PUSH8 0xFFFFFFFFFFFFFFFF SWAP1 SWAP2 AND DUP2 MSTORE PUSH1 0x20 ADD PUSH2 0x26C JUMP JUMPDEST PUSH2 0x2FD PUSH2 0x3EC CALLDATASIZE PUSH1 0x4 PUSH2 0x2AA4 JUMP JUMPDEST PUSH2 0x965 JUMP JUMPDEST PUSH2 0x3F9 PUSH1 0x3 DUP2 JUMP JUMPDEST PUSH1 0x40 MLOAD PUSH2 0xFFFF SWAP1 SWAP2 AND DUP2 MSTORE PUSH1 0x20 ADD PUSH2 0x26C JUMP JUMPDEST PUSH2 0x2FD PUSH2 0x41A CALLDATASIZE PUSH1 0x4 PUSH2 0x2A68 JUMP JUMPDEST PUSH2 0xBB8 JUMP JUMPDEST PUSH2 0x2FD PUSH2 0x42D CALLDATASIZE PUSH1 0x4 PUSH2 0x2ACC JUMP JUMPDEST PUSH2 0xBD8 JUMP JUMPDEST PUSH2 0x2FD PUSH2 0xCE3 JUMP JUMPDEST PUSH2 0x47A PUSH2 0x448 CALLDATASIZE PUSH1 0x4 PUSH2 0x2910 JUMP JUMPDEST PUSH1 0xB PUSH1 0x20 MSTORE PUSH1 0x0 SWAP1 DUP2 MSTORE PUSH1 0x40 SWAP1 KECCAK256 DUP1 SLOAD PUSH1 0x2 SWAP1 SWAP2 ADD SLOAD PUSH5 0xFFFFFFFFFF DUP3 AND SWAP2 PUSH1 0x1 PUSH1 0x28 SHL SWAP1 DIV PUSH3 0xFFFFFF AND SWAP1 PUSH1 0xFF AND DUP4 JUMP JUMPDEST PUSH1 0x40 DUP1 MLOAD PUSH5 0xFFFFFFFFFF SWAP1 SWAP5 AND DUP5 MSTORE PUSH3 0xFFFFFF SWAP1 SWAP3 AND PUSH1 0x20 DUP5 ADD MSTORE ISZERO ISZERO SWAP1 DUP3 ADD MSTORE PUSH1 0x60 ADD PUSH2 0x26C JUMP JUMPDEST PUSH1 0x16 SLOAD PUSH2 0x260 SWAP1 PUSH2 0x100 SWAP1 DIV PUSH1 0xFF AND DUP2 JUMP JUMPDEST PUSH2 0x4BD PUSH1 0x1 DUP2 JUMP JUMPDEST PUSH1 0x40 MLOAD PUSH4 0xFFFFFFFF SWAP1 SWAP2 AND DUP2 MSTORE PUSH1 0x20 ADD PUSH2 0x26C JUMP JUMPDEST PUSH2 0x2FD PUSH2 0x4E0 CALLDATASIZE PUSH1 0x4 PUSH2 0x2B51 JUMP JUMPDEST PUSH2 0xCFF JUMP JUMPDEST PUSH2 0x2D2 PUSH2 0x4F3 CALLDATASIZE PUSH1 0x4 PUSH2 0x2910 JUMP JUMPDEST PUSH2 0xF8E JUMP JUMPDEST PUSH1 0x16 SLOAD PUSH2 0x260 SWAP1 PUSH1 0xFF AND DUP2 JUMP JUMPDEST PUSH2 0x518 PUSH2 0x513 CALLDATASIZE PUSH1 0x4 PUSH2 0x2ACC JUMP JUMPDEST PUSH2 0xF99 JUMP JUMPDEST PUSH1 0x40 MLOAD PUSH2 0x26C SWAP3 SWAP2 SWAP1 PUSH2 0x2B6D JUMP JUMPDEST PUSH2 0x29C PUSH2 0x534 CALLDATASIZE PUSH1 0x4 PUSH2 0x2B88 JUMP JUMPDEST PUSH2 0xFE2 JUMP JUMPDEST PUSH2 0x2FD PUSH2 0x102A JUMP JUMPDEST PUSH2 0x568 PUSH32 0x0 DUP2 JUMP JUMPDEST PUSH1 0x40 MLOAD PUSH1 0xFF SWAP1 SWAP2 AND DUP2 MSTORE PUSH1 0x20 ADD PUSH2 0x26C JUMP JUMPDEST PUSH1 0x6 SLOAD PUSH1 0x1 PUSH1 0x1 PUSH1 0xA0 SHL SUB AND PUSH2 0x2D2 JUMP JUMPDEST PUSH2 0x2B2 PUSH2 0x103E JUMP JUMPDEST PUSH2 0x2FD PUSH2 0x5A1 CALLDATASIZE PUSH1 0x4 PUSH2 0x2BB1 JUMP JUMPDEST PUSH2 0x104D JUMP JUMPDEST PUSH2 0x2FD PUSH2 0x5B4 CALLDATASIZE PUSH1 0x4 PUSH2 0x2BE8 JUMP JUMPDEST PUSH2 0x1058 JUMP JUMPDEST PUSH1 0xD SLOAD PUSH1 0xE SLOAD PUSH1 0xF SLOAD PUSH1 0x10 SLOAD PUSH1 0x11 SLOAD PUSH1 0x12 SLOAD PUSH1 0x13 SLOAD PUSH2 0x5DB SWAP7 SWAP6 SWAP5 SWAP4 SWAP3 SWAP2 SWAP1 DUP8 JUMP JUMPDEST PUSH1 0x40 DUP1 MLOAD SWAP8 DUP9 MSTORE PUSH1 0x20 DUP9 ADD SWAP7 SWAP1 SWAP7 MSTORE SWAP5 DUP7 ADD SWAP4 SWAP1 SWAP4 MSTORE PUSH1 0x60 DUP6 ADD SWAP2 SWAP1 SWAP2 MSTORE PUSH1 0x80 DUP5 ADD MSTORE PUSH1 0xA0 DUP4 ADD MSTORE PUSH1 0xC0 DUP3 ADD MSTORE PUSH1 0xE0 ADD PUSH2 0x26C JUMP JUMPDEST PUSH2 0x2B2 PUSH2 0x61E CALLDATASIZE PUSH1 0x4 PUSH2 0x2910 JUMP JUMPDEST PUSH2 0x106F JUMP JUMPDEST PUSH2 0x29C PUSH1 0x8 SLOAD DUP2 JUMP JUMPDEST PUSH2 0x4BD PUSH3 0x493E0 DUP2 JUMP JUMPDEST PUSH2 0x2FD PUSH2 0x644 CALLDATASIZE PUSH1 0x4 PUSH2 0x2910 JUMP JUMPDEST PUSH2 0x10E4 JUMP JUMPDEST PUSH2 0x69F PUSH2 0x657 CALLDATASIZE PUSH1 0x4 PUSH2 0x2CA8 JUMP JUMPDEST PUSH1 0x14 PUSH1 0x20 MSTORE PUSH1 0x0 SWAP1 DUP2 MSTORE PUSH1 0x40 SWAP1 KECCAK256 PUSH1 0x1 ADD SLOAD PUSH4 0xFFFFFFFF DUP1 DUP3 AND SWAP2 PUSH5 0x100000000 DUP2 DIV DUP3 AND SWAP2 PUSH1 0x1 PUSH1 0x40 SHL DUP3 DIV DUP2 AND SWAP2 PUSH1 0x1 PUSH1 0x60 SHL DUP2 DIV SWAP1 SWAP2 AND SWAP1 PUSH1 0x1 PUSH1 0x80 SHL SWAP1 DIV PUSH1 0xFF AND DUP6 JUMP JUMPDEST PUSH1 0x40 DUP1 MLOAD PUSH4 0xFFFFFFFF SWAP7 DUP8 AND DUP2 MSTORE SWAP5 DUP7 AND PUSH1 0x20 DUP7 ADD MSTORE SWAP3 DUP6 AND SWAP3 DUP5 ADD SWAP3 SWAP1 SWAP3 MSTORE SWAP1 SWAP3 AND PUSH1 0x60 DUP3 ADD MSTORE SWAP1 ISZERO ISZERO PUSH1 0x80 DUP3 ADD MSTORE PUSH1 0xA0 ADD PUSH2 0x26C JUMP JUMPDEST PUSH2 0x2FD PUSH2 0x6E5 CALLDATASIZE PUSH1 0x4 PUSH2 0x2B88 JUMP JUMPDEST PUSH2 0x1475 JUMP JUMPDEST PUSH2 0x260 PUSH2 0x6F8 CALLDATASIZE PUSH1 0x4 PUSH2 0x2CC3 JUMP JUMPDEST PUSH2 0x1500 JUMP JUMPDEST PUSH2 0x2FD PUSH2 0x70B CALLDATASIZE PUSH1 0x4 PUSH2 0x2B88 JUMP JUMPDEST PUSH2 0x152E JUMP JUMPDEST PUSH1 0x0 PUSH1 0x1 PUSH1 0x1 PUSH1 0xE0 SHL SUB NOT DUP3 AND PUSH4 0x80AC58CD PUSH1 0xE0 SHL EQ DUP1 PUSH2 0x741 JUMPI POP PUSH1 0x1 PUSH1 0x1 PUSH1 0xE0 SHL SUB NOT DUP3 AND PUSH4 0x5B5E139F PUSH1 0xE0 SHL EQ JUMPDEST DUP1 PUSH2 0x75C JUMPI POP PUSH4 0x1FFC9A7 PUSH1 0xE0 SHL PUSH1 0x1 PUSH1 0x1 PUSH1 0xE0 SHL SUB NOT DUP4 AND EQ JUMPDEST SWAP3 SWAP2 POP POP JUMP JUMPDEST PUSH1 0x60 PUSH1 0x0 DUP1 SLOAD PUSH2 0x771 SWAP1 PUSH2 0x2CF6 JUMP JUMPDEST DUP1 PUSH1 0x1F ADD PUSH1 0x20 DUP1 SWAP2 DIV MUL PUSH1 0x20 ADD PUSH1 0x40 MLOAD SWAP1 DUP2 ADD PUSH1 0x40 MSTORE DUP1 SWAP3 SWAP2 SWAP1 DUP2 DUP2 MSTORE PUSH1 0x20 ADD DUP3 DUP1 SLOAD PUSH2 0x79D SWAP1 PUSH2 0x2CF6 JUMP JUMPDEST DUP1 ISZERO PUSH2 0x7EA JUMPI DUP1 PUSH1 0x1F LT PUSH2 0x7BF JUMPI PUSH2 0x100 DUP1 DUP4 SLOAD DIV MUL DUP4 MSTORE SWAP2 PUSH1 0x20 ADD SWAP2 PUSH2 0x7EA JUMP JUMPDEST DUP3 ADD SWAP2 SWAP1 PUSH1 0x0 MSTORE PUSH1 0x20 PUSH1 0x0 KECCAK256 SWAP1 JUMPDEST DUP2 SLOAD DUP2 MSTORE SWAP1 PUSH1 0x1 ADD SWAP1 PUSH1 0x20 ADD DUP1 DUP4 GT PUSH2 0x7CD JUMPI DUP3 SWAP1 SUB PUSH1 0x1F AND DUP3 ADD SWAP2 JUMPDEST POP POP POP POP POP SWAP1 POP SWAP1 JUMP JUMPDEST PUSH1 0x0 PUSH2 0x7FF DUP3 PUSH2 0x1569 JUMP JUMPDEST POP PUSH1 0x0 DUP3 DUP2 MSTORE PUSH1 0x4 PUSH1 0x20 MSTORE PUSH1 0x40 SWAP1 KECCAK256 SLOAD PUSH1 0x1 PUSH1 0x1 PUSH1 0xA0 SHL SUB AND PUSH2 0x75C JUMP JUMPDEST PUSH2 0x828 DUP3 DUP3 CALLER PUSH2 0x15A2 JUMP JUMPDEST POP POP JUMP JUMPDEST PUSH2 0x834 PUSH2 0x15AF JUMP JUMPDEST PUSH1 0x16 DUP1 SLOAD PUSH2 0xFF00 NOT DUP2 AND PUSH2 0x100 SWAP2 DUP3 SWAP1 DIV PUSH1 0xFF AND ISZERO SWAP1 SWAP2 MUL OR SWAP1 SSTORE JUMP JUMPDEST CALLER PUSH1 0x1 PUSH1 0x1 PUSH1 0xA0 SHL SUB PUSH32 0x0 AND EQ PUSH2 0x8D0 JUMPI PUSH1 0x40 MLOAD PUSH4 0x73E64FD PUSH1 0xE2 SHL DUP2 MSTORE CALLER PUSH1 0x4 DUP3 ADD MSTORE PUSH1 0x1 PUSH1 0x1 PUSH1 0xA0 SHL SUB PUSH32 0x0 AND PUSH1 0x24 DUP3 ADD MSTORE PUSH1 0x44 ADD JUMPDEST PUSH1 0x40 MLOAD DUP1 SWAP2 SUB SWAP1 REVERT JUMPDEST PUSH2 0x828 DUP3 DUP3 PUSH2 0x15DC JUMP JUMPDEST PUSH1 0x1 PUSH1 0x1 PUSH1 0xA0 SHL SUB DUP3 AND PUSH2 0x904 JUMPI PUSH1 0x40 MLOAD PUSH4 0x32505749 PUSH1 0xE1 SHL DUP2 MSTORE PUSH1 0x0 PUSH1 0x4 DUP3 ADD MSTORE PUSH1 0x24 ADD PUSH2 0x8C7 JUMP JUMPDEST PUSH1 0x0 PUSH2 0x911 DUP4 DUP4 CALLER PUSH2 0x1734 JUMP JUMPDEST SWAP1 POP DUP4 PUSH1 0x1 PUSH1 0x1 PUSH1 0xA0 SHL SUB AND DUP2 PUSH1 0x1 PUSH1 0x1 PUSH1 0xA0 SHL SUB AND EQ PUSH2 0x95F JUMPI PUSH1 0x40 MLOAD PUSH4 0x64283D7B PUSH1 0xE0 SHL DUP2 MSTORE PUSH1 0x1 PUSH1 0x1 PUSH1 0xA0 SHL SUB DUP1 DUP7 AND PUSH1 0x4 DUP4 ADD MSTORE PUSH1 0x24 DUP3 ADD DUP5 SWAP1 MSTORE DUP3 AND PUSH1 0x44 DUP3 ADD MSTORE PUSH1 0x64 ADD PUSH2 0x8C7 JUMP JUMPDEST POP POP POP POP JUMP JUMPDEST PUSH2 0x96D PUSH2 0x182D JUMP JUMPDEST PUSH1 0x16 SLOAD PUSH2 0x100 SWAP1 DIV PUSH1 0xFF AND ISZERO PUSH2 0x996 JUMPI PUSH1 0x40 MLOAD PUSH4 0x4CB3183D PUSH1 0xE0 SHL DUP2 MSTORE PUSH1 0x4 ADD PUSH1 0x40 MLOAD DUP1 SWAP2 SUB SWAP1 REVERT JUMPDEST PUSH1 0x8 SLOAD TIMESTAMP LT PUSH2 0x9B8 JUMPI PUSH1 0x40 MLOAD PUSH4 0xECDD1C29 PUSH1 0xE0 SHL DUP2 MSTORE PUSH1 0x4 ADD PUSH1 0x40 MLOAD DUP1 SWAP2 SUB SWAP1 REVERT JUMPDEST PUSH1 0x0 JUMPDEST PUSH1 0x4 DUP2 LT ISZERO PUSH2 0xA15 JUMPI PUSH1 0x18 DUP3 DUP3 PUSH1 0x4 DUP2 LT PUSH2 0x9D8 JUMPI PUSH2 0x9D8 PUSH2 0x2D2A JUMP JUMPDEST PUSH1 0x20 MUL ADD PUSH1 0x20 DUP2 ADD SWAP1 PUSH2 0x9EB SWAP2 SWAP1 PUSH2 0x2D40 JUMP JUMPDEST PUSH1 0xFF AND GT ISZERO PUSH2 0xA0D JUMPI PUSH1 0x40 MLOAD PUSH4 0x8214F17 PUSH1 0xE2 SHL DUP2 MSTORE PUSH1 0x4 ADD PUSH1 0x40 MLOAD DUP1 SWAP2 SUB SWAP1 REVERT JUMPDEST PUSH1 0x1 ADD PUSH2 0x9BB JUMP JUMPDEST POP PUSH2 0xA6B PUSH1 0x1 PUSH1 0x1 PUSH1 0xA0 SHL SUB PUSH32 0x0 AND CALLER ADDRESS PUSH32 0x0 PUSH2 0x1857 JUMP JUMPDEST PUSH1 0xA DUP1 SLOAD PUSH1 0x0 SWAP2 DUP3 PUSH2 0xA7C DUP4 PUSH2 0x2D79 JUMP JUMPDEST SWAP2 SWAP1 POP SSTORE SWAP1 POP PUSH2 0xA8C CALLER DUP3 PUSH2 0x18BE JUMP JUMPDEST PUSH1 0x40 DUP1 MLOAD PUSH1 0x80 DUP1 DUP3 ADD DUP4 MSTORE PUSH5 0xFFFFFFFFFF TIMESTAMP AND DUP3 MSTORE PUSH1 0x9 SLOAD PUSH3 0xFFFFFF AND PUSH1 0x20 DUP4 ADD MSTORE DUP3 MLOAD DUP1 DUP3 ADD DUP5 MSTORE SWAP2 SWAP3 DUP4 ADD SWAP2 SWAP1 DUP6 SWAP1 PUSH1 0x4 SWAP1 DUP4 SWAP1 DUP4 SWAP1 DUP1 DUP3 DUP5 CALLDATACOPY PUSH1 0x0 SWAP3 ADD DUP3 SWAP1 MSTORE POP SWAP3 DUP5 MSTORE POP POP PUSH1 0x20 SWAP2 DUP3 ADD DUP2 SWAP1 MSTORE DUP4 DUP2 MSTORE PUSH1 0xB DUP3 MSTORE PUSH1 0x40 SWAP1 DUP2 SWAP1 KECCAK256 DUP4 MLOAD DUP2 SLOAD SWAP4 DUP6 ADD MLOAD PUSH3 0xFFFFFF AND PUSH1 0x1 PUSH1 0x28 SHL MUL PUSH8 0xFFFFFFFFFFFFFFFF NOT SWAP1 SWAP5 AND PUSH5 0xFFFFFFFFFF SWAP1 SWAP2 AND OR SWAP3 SWAP1 SWAP3 OR DUP3 SSTORE DUP3 ADD MLOAD PUSH2 0xB2D SWAP1 PUSH1 0x1 DUP4 ADD SWAP1 PUSH1 0x4 PUSH2 0x27B3 JUMP JUMPDEST POP PUSH1 0x60 SWAP2 SWAP1 SWAP2 ADD MLOAD PUSH1 0x2 SWAP1 SWAP2 ADD DUP1 SLOAD PUSH1 0xFF NOT AND SWAP2 ISZERO ISZERO SWAP2 SWAP1 SWAP2 OR SWAP1 SSTORE PUSH1 0x9 DUP1 SLOAD PUSH3 0xFFFFFF SWAP1 DUP2 AND PUSH1 0x0 SWAP1 DUP2 MSTORE PUSH1 0xC PUSH1 0x20 SWAP1 DUP2 MSTORE PUSH1 0x40 DUP1 DUP4 KECCAK256 DUP1 SLOAD PUSH1 0x1 DUP2 ADD DUP3 SSTORE SWAP1 DUP5 MSTORE SWAP2 DUP4 KECCAK256 SWAP1 SWAP2 ADD DUP6 SWAP1 SSTORE SWAP3 SLOAD SWAP3 MLOAD SWAP3 SWAP1 SWAP2 AND SWAP2 DUP4 SWAP2 CALLER SWAP2 PUSH32 0x12EEE7F99EA5C9C160467D40A467F18C62607B8D43607D0840F168CC2B55B2E4 SWAP2 SWAP1 LOG4 POP PUSH2 0xBB5 PUSH1 0x1 PUSH1 0x7 SSTORE JUMP JUMPDEST POP JUMP JUMPDEST PUSH2 0xBD3 DUP4 DUP4 DUP4 PUSH1 0x40 MLOAD DUP1 PUSH1 0x20 ADD PUSH1 0x40 MSTORE DUP1 PUSH1 0x0 DUP2 MSTORE POP PUSH2 0x1058 JUMP JUMPDEST POP POP POP JUMP JUMPDEST PUSH1 0x16 SLOAD PUSH1 0xFF AND ISZERO DUP1 PUSH2 0xBF1 JUMPI POP PUSH1 0x16 SLOAD PUSH2 0x100 SWAP1 DIV PUSH1 0xFF AND JUMPDEST ISZERO PUSH2 0xC0F JUMPI PUSH1 0x40 MLOAD PUSH4 0xFC5EAEFD PUSH1 0xE0 SHL DUP2 MSTORE PUSH1 0x4 ADD PUSH1 0x40 MLOAD DUP1 SWAP2 SUB SWAP1 REVERT JUMPDEST PUSH1 0x8 SLOAD TIMESTAMP LT ISZERO PUSH2 0xC32 JUMPI PUSH1 0x40 MLOAD PUSH4 0x85DE625 PUSH1 0xE0 SHL DUP2 MSTORE PUSH1 0x4 ADD PUSH1 0x40 MLOAD DUP1 SWAP2 SUB SWAP1 REVERT JUMPDEST PUSH1 0x9 SLOAD PUSH3 0xFFFFFF AND PUSH2 0xC43 DUP2 PUSH2 0x18D8 JUMP JUMPDEST PUSH2 0xC4C DUP2 PUSH2 0x1AAC JUMP JUMPDEST PUSH1 0x9 DUP1 SLOAD PUSH1 0x1 SWAP2 SWAP1 PUSH1 0x0 SWAP1 PUSH2 0xC67 SWAP1 DUP5 SWAP1 PUSH3 0xFFFFFF AND PUSH2 0x2D92 JUMP JUMPDEST SWAP3 POP PUSH2 0x100 EXP DUP2 SLOAD DUP2 PUSH3 0xFFFFFF MUL NOT AND SWAP1 DUP4 PUSH3 0xFFFFFF AND MUL OR SWAP1 SSTORE POP PUSH3 0x15180 PUSH1 0x8 PUSH1 0x0 DUP3 DUP3 SLOAD PUSH2 0xC98 SWAP2 SWAP1 PUSH2 0x2DB5 JUMP JUMPDEST SWAP1 SWAP2 SSTORE POP POP PUSH1 0x9 SLOAD PUSH1 0x8 SLOAD PUSH1 0x40 MLOAD SWAP1 DUP2 MSTORE PUSH3 0xFFFFFF SWAP1 SWAP2 AND SWAP1 PUSH32 0x70ABA4EECFB00A70E5AAE193521BC256FC3CBF7A91479F6BCDA4B5A82F986961 SWAP1 PUSH1 0x20 ADD PUSH1 0x40 MLOAD DUP1 SWAP2 SUB SWAP1 LOG2 POP POP POP JUMP JUMPDEST PUSH2 0xCEB PUSH2 0x15AF JUMP JUMPDEST PUSH1 0x16 DUP1 SLOAD PUSH1 0xFF NOT DUP2 AND PUSH1 0xFF SWAP1 SWAP2 AND ISZERO OR SWAP1 SSTORE JUMP JUMPDEST DUP1 ISZERO DUP1 PUSH2 0xD0D JUMPI POP PUSH2 0x12C DUP2 GT JUMPDEST ISZERO PUSH2 0xD17 JUMPI POP PUSH2 0x12C JUMPDEST PUSH3 0xFFFFFF DUP3 AND PUSH1 0x0 SWAP1 DUP2 MSTORE PUSH1 0x14 PUSH1 0x20 MSTORE PUSH1 0x40 SWAP1 KECCAK256 PUSH1 0x1 DUP2 ADD SLOAD PUSH1 0x1 PUSH1 0x80 SHL SWAP1 DIV PUSH1 0xFF AND ISZERO PUSH2 0xD58 JUMPI PUSH1 0x40 MLOAD PUSH4 0x1454E6C7 PUSH1 0xE0 SHL DUP2 MSTORE PUSH1 0x4 ADD PUSH1 0x40 MLOAD DUP1 SWAP2 SUB SWAP1 REVERT JUMPDEST PUSH3 0xFFFFFF DUP4 AND PUSH1 0x0 SWAP1 DUP2 MSTORE PUSH1 0xC PUSH1 0x20 MSTORE PUSH1 0x40 DUP2 KECCAK256 PUSH1 0x1 DUP4 ADD SLOAD SWAP1 SWAP2 PUSH4 0xFFFFFFFF SWAP1 SWAP2 AND SWAP1 PUSH2 0xD86 DUP6 DUP4 PUSH2 0x2DB5 JUMP JUMPDEST DUP4 SLOAD SWAP1 SWAP2 POP DUP2 GT ISZERO PUSH2 0xD96 JUMPI POP DUP2 SLOAD JUMPDEST DUP2 JUMPDEST DUP2 DUP2 LT ISZERO PUSH2 0xDD6 JUMPI PUSH2 0xDC6 DUP5 DUP3 DUP2 SLOAD DUP2 LT PUSH2 0xDB5 JUMPI PUSH2 0xDB5 PUSH2 0x2D2A JUMP JUMPDEST SWAP1 PUSH1 0x0 MSTORE PUSH1 0x20 PUSH1 0x0 KECCAK256 ADD SLOAD DUP7 PUSH2 0x1BF2 JUMP JUMPDEST PUSH2 0xDCF DUP2 PUSH2 0x2D79 JUMP JUMPDEST SWAP1 POP PUSH2 0xD98 JUMP JUMPDEST POP PUSH1 0x1 DUP5 ADD DUP1 SLOAD PUSH4 0xFFFFFFFF NOT AND PUSH4 0xFFFFFFFF DUP4 AND OR SWAP1 SSTORE PUSH1 0x40 DUP1 MLOAD DUP4 DUP2 MSTORE PUSH1 0x20 DUP2 ADD DUP4 SWAP1 MSTORE PUSH3 0xFFFFFF DUP9 AND SWAP2 PUSH32 0x95F2647279697D92FBFBD24A0E306C284798157A253E2126EBF1451515F6FBD9 SWAP2 ADD PUSH1 0x40 MLOAD DUP1 SWAP2 SUB SWAP1 LOG2 DUP3 SLOAD DUP2 SUB PUSH2 0xF86 JUMPI PUSH1 0x1 DUP5 ADD DUP1 SLOAD PUSH1 0xFF PUSH1 0x80 SHL NOT AND PUSH1 0x1 PUSH1 0x80 SHL OR SWAP1 DUP2 SWAP1 SSTORE PUSH1 0x40 DUP1 MLOAD PUSH4 0xFFFFFFFF PUSH5 0x100000000 DUP5 DIV DUP2 AND DUP3 MSTORE PUSH1 0x1 PUSH1 0x40 SHL DUP5 DIV DUP2 AND PUSH1 0x20 DUP4 ADD MSTORE PUSH1 0x1 PUSH1 0x60 SHL SWAP1 SWAP4 DIV SWAP1 SWAP3 AND SWAP1 DUP3 ADD MSTORE PUSH3 0xFFFFFF DUP8 AND SWAP1 PUSH32 0x9094B2B67842ABB4391FC6C54030E03D20642491EFEB4EDA225641EAC3B10127 SWAP1 PUSH1 0x60 ADD PUSH1 0x40 MLOAD DUP1 SWAP2 SUB SWAP1 LOG2 PUSH1 0x1 DUP5 ADD SLOAD PUSH5 0x100000000 SWAP1 DIV PUSH4 0xFFFFFFFF AND ISZERO DUP1 ISZERO SWAP1 PUSH2 0xED5 JUMPI POP PUSH1 0x11 SLOAD ISZERO ISZERO JUMPDEST ISZERO PUSH2 0xEFA JUMPI PUSH1 0x11 SLOAD PUSH1 0xD DUP1 SLOAD PUSH1 0x0 SWAP1 PUSH2 0xEEF SWAP1 DUP5 SWAP1 PUSH2 0x2DB5 JUMP JUMPDEST SWAP1 SWAP2 SSTORE POP POP PUSH1 0x0 PUSH1 0x11 SSTORE JUMPDEST PUSH1 0x1 DUP5 ADD SLOAD PUSH1 0x1 PUSH1 0x40 SHL SWAP1 DIV PUSH4 0xFFFFFFFF AND ISZERO DUP1 ISZERO SWAP1 PUSH2 0xF1B JUMPI POP PUSH1 0x12 SLOAD ISZERO ISZERO JUMPDEST ISZERO PUSH2 0xF40 JUMPI PUSH1 0x12 SLOAD PUSH1 0xE DUP1 SLOAD PUSH1 0x0 SWAP1 PUSH2 0xF35 SWAP1 DUP5 SWAP1 PUSH2 0x2DB5 JUMP JUMPDEST SWAP1 SWAP2 SSTORE POP POP PUSH1 0x0 PUSH1 0x12 SSTORE JUMPDEST PUSH1 0x1 DUP5 ADD SLOAD PUSH1 0x1 PUSH1 0x60 SHL SWAP1 DIV PUSH4 0xFFFFFFFF AND ISZERO DUP1 ISZERO SWAP1 PUSH2 0xF61 JUMPI POP PUSH1 0x13 SLOAD ISZERO ISZERO JUMPDEST ISZERO PUSH2 0xF86 JUMPI PUSH1 0x13 SLOAD PUSH1 0xF DUP1 SLOAD PUSH1 0x0 SWAP1 PUSH2 0xF7B SWAP1 DUP5 SWAP1 PUSH2 0x2DB5 JUMP JUMPDEST SWAP1 SWAP2 SSTORE POP POP PUSH1 0x0 PUSH1 0x13 SSTORE JUMPDEST POP POP POP POP POP POP JUMP JUMPDEST PUSH1 0x0 PUSH2 0x75C DUP3 PUSH2 0x1569 JUMP JUMPDEST PUSH1 0x16 SLOAD PUSH1 0x0 SWAP1 PUSH1 0x60 SWAP1 PUSH1 0xFF AND DUP1 ISZERO PUSH2 0xFB9 JUMPI POP PUSH1 0x16 SLOAD PUSH2 0x100 SWAP1 DIV PUSH1 0xFF AND ISZERO JUMPDEST DUP1 ISZERO PUSH2 0xFC7 JUMPI POP PUSH1 0x8 SLOAD TIMESTAMP LT ISZERO JUMPDEST SWAP2 POP PUSH1 0x40 MLOAD DUP1 PUSH1 0x20 ADD PUSH1 0x40 MSTORE DUP1 PUSH1 0x0 DUP2 MSTORE POP SWAP1 POP SWAP3 POP SWAP3 SWAP1 POP JUMP JUMPDEST PUSH1 0x0 PUSH1 0x1 PUSH1 0x1 PUSH1 0xA0 SHL SUB DUP3 AND PUSH2 0x100E JUMPI PUSH1 0x40 MLOAD PUSH4 0x22718AD9 PUSH1 0xE2 SHL DUP2 MSTORE PUSH1 0x0 PUSH1 0x4 DUP3 ADD MSTORE PUSH1 0x24 ADD PUSH2 0x8C7 JUMP JUMPDEST POP PUSH1 0x1 PUSH1 0x1 PUSH1 0xA0 SHL SUB AND PUSH1 0x0 SWAP1 DUP2 MSTORE PUSH1 0x3 PUSH1 0x20 MSTORE PUSH1 0x40 SWAP1 KECCAK256 SLOAD SWAP1 JUMP JUMPDEST PUSH2 0x1032 PUSH2 0x15AF JUMP JUMPDEST PUSH2 0x103C PUSH1 0x0 PUSH2 0x1E79 JUMP JUMPDEST JUMP JUMPDEST PUSH1 0x60 PUSH1 0x1 DUP1 SLOAD PUSH2 0x771 SWAP1 PUSH2 0x2CF6 JUMP JUMPDEST PUSH2 0x828 CALLER DUP4 DUP4 PUSH2 0x1ECB JUMP JUMPDEST PUSH2 0x1063 DUP5 DUP5 DUP5 PUSH2 0x8DA JUMP JUMPDEST PUSH2 0x95F DUP5 DUP5 DUP5 DUP5 PUSH2 0x1F6A JUMP JUMPDEST PUSH1 0x60 PUSH2 0x107A DUP3 PUSH2 0x1569 JUMP JUMPDEST POP PUSH1 0x0 PUSH2 0x1092 PUSH1 0x40 DUP1 MLOAD PUSH1 0x20 DUP2 ADD SWAP1 SWAP2 MSTORE PUSH1 0x0 DUP2 MSTORE SWAP1 JUMP JUMPDEST SWAP1 POP PUSH1 0x0 DUP2 MLOAD GT PUSH2 0x10B2 JUMPI PUSH1 0x40 MLOAD DUP1 PUSH1 0x20 ADD PUSH1 0x40 MSTORE DUP1 PUSH1 0x0 DUP2 MSTORE POP PUSH2 0x10DD JUMP JUMPDEST DUP1 PUSH2 0x10BC DUP5 PUSH2 0x2093 JUMP JUMPDEST PUSH1 0x40 MLOAD PUSH1 0x20 ADD PUSH2 0x10CD SWAP3 SWAP2 SWAP1 PUSH2 0x2DC8 JUMP JUMPDEST PUSH1 0x40 MLOAD PUSH1 0x20 DUP2 DUP4 SUB SUB DUP2 MSTORE SWAP1 PUSH1 0x40 MSTORE JUMPDEST SWAP4 SWAP3 POP POP POP JUMP JUMPDEST PUSH2 0x10EC PUSH2 0x182D JUMP JUMPDEST PUSH1 0x0 DUP2 DUP2 MSTORE PUSH1 0xB PUSH1 0x20 MSTORE PUSH1 0x40 SWAP1 KECCAK256 PUSH1 0x2 DUP2 ADD SLOAD PUSH1 0xFF AND ISZERO PUSH2 0x1120 JUMPI PUSH1 0x40 MLOAD PUSH4 0xC8D9EAB PUSH1 0xE3 SHL DUP2 MSTORE PUSH1 0x4 ADD PUSH1 0x40 MLOAD DUP1 SWAP2 SUB SWAP1 REVERT JUMPDEST CALLER PUSH2 0x112A DUP4 PUSH2 0xF8E JUMP JUMPDEST PUSH1 0x1 PUSH1 0x1 PUSH1 0xA0 SHL SUB AND EQ PUSH2 0x1151 JUMPI PUSH1 0x40 MLOAD PUSH4 0x30C63921 PUSH1 0xE1 SHL DUP2 MSTORE PUSH1 0x4 ADD PUSH1 0x40 MLOAD DUP1 SWAP2 SUB SWAP1 REVERT JUMPDEST DUP1 SLOAD PUSH1 0x1 PUSH1 0x28 SHL SWAP1 DIV PUSH3 0xFFFFFF AND PUSH1 0x0 SWAP1 DUP2 MSTORE PUSH1 0x14 PUSH1 0x20 MSTORE PUSH1 0x40 SWAP1 KECCAK256 PUSH1 0x1 DUP2 ADD SLOAD PUSH1 0x1 PUSH1 0x80 SHL SWAP1 DIV PUSH1 0xFF AND PUSH2 0x11B8 JUMPI PUSH1 0x40 MLOAD PUSH3 0x461BCD PUSH1 0xE5 SHL DUP2 MSTORE PUSH1 0x20 PUSH1 0x4 DUP3 ADD MSTORE PUSH1 0xD PUSH1 0x24 DUP3 ADD MSTORE PUSH13 0x646179206E6F74207265616479 PUSH1 0x98 SHL PUSH1 0x44 DUP3 ADD MSTORE PUSH1 0x64 ADD PUSH2 0x8C7 JUMP JUMPDEST PUSH1 0x40 DUP1 MLOAD PUSH1 0x80 DUP2 ADD SWAP2 DUP3 SWAP1 MSTORE PUSH1 0x0 SWAP2 PUSH2 0x125A SWAP2 SWAP1 PUSH1 0x1 DUP7 ADD SWAP1 PUSH1 0x4 SWAP1 DUP3 DUP7 DUP6 JUMPDEST DUP3 SLOAD PUSH2 0x100 DUP4 SWAP1 EXP SWAP1 DIV PUSH1 0xFF AND DUP2 MSTORE PUSH1 0x20 PUSH1 0x1 SWAP3 DUP4 ADD DUP2 DUP2 DIV SWAP5 DUP6 ADD SWAP5 SWAP1 SWAP4 SUB SWAP1 SWAP3 MUL SWAP2 ADD DUP1 DUP5 GT PUSH2 0x11D8 JUMPI POP POP PUSH1 0x40 DUP1 MLOAD PUSH1 0x80 DUP2 ADD SWAP2 DUP3 SWAP1 MSTORE SWAP5 POP DUP9 SWAP4 POP PUSH1 0x4 SWAP3 POP SWAP1 POP DUP3 PUSH1 0x0 DUP6 JUMPDEST DUP3 SLOAD PUSH2 0x100 DUP4 SWAP1 EXP SWAP1 DIV PUSH1 0xFF AND DUP2 MSTORE PUSH1 0x20 PUSH1 0x1 SWAP3 DUP4 ADD DUP2 DUP2 DIV SWAP5 DUP6 ADD SWAP5 SWAP1 SWAP4 SUB SWAP1 SWAP3 MUL SWAP2 ADD DUP1 DUP5 GT PUSH2 0x1222 JUMPI SWAP1 POP POP POP POP POP POP PUSH2 0x2126 JUMP JUMPDEST SWAP1 POP PUSH1 0x0 DUP2 PUSH1 0xFF AND PUSH1 0x1 EQ DUP1 ISZERO PUSH2 0x1282 JUMPI POP PUSH1 0x1 DUP4 ADD SLOAD PUSH5 0x100000000 SWAP1 DIV PUSH4 0xFFFFFFFF AND ISZERO ISZERO JUMPDEST ISZERO PUSH2 0x12C9 JUMPI PUSH1 0x1 DUP4 ADD SLOAD PUSH1 0xD SLOAD PUSH2 0x12A7 SWAP2 PUSH5 0x100000000 SWAP1 DIV PUSH4 0xFFFFFFFF AND SWAP1 PUSH2 0x2E0D JUMP JUMPDEST SWAP1 POP DUP1 PUSH1 0xD PUSH1 0x0 ADD PUSH1 0x0 DUP3 DUP3 SLOAD PUSH2 0x12BE SWAP2 SWAP1 PUSH2 0x2E21 JUMP JUMPDEST SWAP1 SWAP2 SSTORE POP PUSH2 0x13D0 SWAP1 POP JUMP JUMPDEST DUP2 PUSH1 0xFF AND PUSH1 0x2 EQ DUP1 ISZERO PUSH2 0x12EC JUMPI POP PUSH1 0x1 DUP4 ADD SLOAD PUSH1 0x1 PUSH1 0x40 SHL SWAP1 DIV PUSH4 0xFFFFFFFF AND ISZERO ISZERO JUMPDEST ISZERO PUSH2 0x1327 JUMPI PUSH1 0x1 DUP4 ADD SLOAD PUSH1 0xE SLOAD PUSH2 0x1310 SWAP2 PUSH1 0x1 PUSH1 0x40 SHL SWAP1 DIV PUSH4 0xFFFFFFFF AND SWAP1 PUSH2 0x2E0D JUMP JUMPDEST SWAP1 POP DUP1 PUSH1 0xD PUSH1 0x1 ADD PUSH1 0x0 DUP3 DUP3 SLOAD PUSH2 0x12BE SWAP2 SWAP1 PUSH2 0x2E21 JUMP JUMPDEST DUP2 PUSH1 0xFF AND PUSH1 0x3 EQ DUP1 ISZERO PUSH2 0x134A JUMPI POP PUSH1 0x1 DUP4 ADD SLOAD PUSH1 0x1 PUSH1 0x60 SHL SWAP1 DIV PUSH4 0xFFFFFFFF AND ISZERO ISZERO JUMPDEST ISZERO PUSH2 0x1385 JUMPI PUSH1 0x1 DUP4 ADD SLOAD PUSH1 0xF SLOAD PUSH2 0x136E SWAP2 PUSH1 0x1 PUSH1 0x60 SHL SWAP1 DIV PUSH4 0xFFFFFFFF AND SWAP1 PUSH2 0x2E0D JUMP JUMPDEST SWAP1 POP DUP1 PUSH1 0xD PUSH1 0x2 ADD PUSH1 0x0 DUP3 DUP3 SLOAD PUSH2 0x12BE SWAP2 SWAP1 PUSH2 0x2E21 JUMP JUMPDEST DUP2 PUSH1 0xFF AND PUSH1 0x4 SUB PUSH2 0x13B7 JUMPI POP PUSH32 0x0 PUSH2 0x13D0 JUMP JUMPDEST PUSH1 0x40 MLOAD PUSH4 0x30C63921 PUSH1 0xE1 SHL DUP2 MSTORE PUSH1 0x4 ADD PUSH1 0x40 MLOAD DUP1 SWAP2 SUB SWAP1 REVERT JUMPDEST PUSH1 0x2 DUP5 ADD DUP1 SLOAD PUSH1 0xFF NOT AND PUSH1 0x1 OR SWAP1 SSTORE PUSH2 0x1413 PUSH1 0x1 PUSH1 0x1 PUSH1 0xA0 SHL SUB PUSH32 0x0 AND CALLER DUP4 PUSH2 0x22CB JUMP JUMPDEST DUP4 SLOAD PUSH1 0x40 DUP1 MLOAD CALLER DUP2 MSTORE PUSH1 0xFF DUP6 AND PUSH1 0x20 DUP3 ADD MSTORE SWAP1 DUP2 ADD DUP4 SWAP1 MSTORE DUP7 SWAP2 PUSH1 0x1 PUSH1 0x28 SHL SWAP1 DIV PUSH3 0xFFFFFF AND SWAP1 PUSH32 0xFA7D7E6FAD77BB2EB32E03CD3103BCB3DF591EA9338A7395A149D9C180A170C7 SWAP1 PUSH1 0x60 ADD PUSH1 0x40 MLOAD DUP1 SWAP2 SUB SWAP1 LOG3 POP POP POP POP PUSH2 0xBB5 PUSH1 0x1 PUSH1 0x7 SSTORE JUMP JUMPDEST PUSH2 0x147D PUSH2 0x15AF JUMP JUMPDEST PUSH1 0x10 DUP1 SLOAD PUSH1 0x0 SWAP1 SWAP2 SSTORE PUSH2 0x14BA PUSH1 0x1 PUSH1 0x1 PUSH1 0xA0 SHL SUB PUSH32 0x0 AND DUP4 DUP4 PUSH2 0x22CB JUMP JUMPDEST PUSH1 0x40 DUP1 MLOAD PUSH1 0x1 PUSH1 0x1 PUSH1 0xA0 SHL SUB DUP5 AND DUP2 MSTORE PUSH1 0x20 DUP2 ADD DUP4 SWAP1 MSTORE PUSH32 0xC32A4A91927EBE92C55E1F8CD216C8A1D74E53B9B0A82B6B982E5DD3AC71AF03 SWAP2 ADD PUSH1 0x40 MLOAD DUP1 SWAP2 SUB SWAP1 LOG1 POP POP JUMP JUMPDEST PUSH1 0x1 PUSH1 0x1 PUSH1 0xA0 SHL SUB SWAP2 DUP3 AND PUSH1 0x0 SWAP1 DUP2 MSTORE PUSH1 0x5 PUSH1 0x20 SWAP1 DUP2 MSTORE PUSH1 0x40 DUP1 DUP4 KECCAK256 SWAP4 SWAP1 SWAP5 AND DUP3 MSTORE SWAP2 SWAP1 SWAP2 MSTORE KECCAK256 SLOAD PUSH1 0xFF AND SWAP1 JUMP JUMPDEST PUSH2 0x1536 PUSH2 0x15AF JUMP JUMPDEST PUSH1 0x1 PUSH1 0x1 PUSH1 0xA0 SHL SUB DUP2 AND PUSH2 0x1560 JUMPI PUSH1 0x40 MLOAD PUSH4 0x1E4FBDF7 PUSH1 0xE0 SHL DUP2 MSTORE PUSH1 0x0 PUSH1 0x4 DUP3 ADD MSTORE PUSH1 0x24 ADD PUSH2 0x8C7 JUMP JUMPDEST PUSH2 0xBB5 DUP2 PUSH2 0x1E79 JUMP JUMPDEST PUSH1 0x0 DUP2 DUP2 MSTORE PUSH1 0x2 PUSH1 0x20 MSTORE PUSH1 0x40 DUP2 KECCAK256 SLOAD PUSH1 0x1 PUSH1 0x1 PUSH1 0xA0 SHL SUB AND DUP1 PUSH2 0x75C JUMPI PUSH1 0x40 MLOAD PUSH4 0x7E273289 PUSH1 0xE0 SHL DUP2 MSTORE PUSH1 0x4 DUP2 ADD DUP5 SWAP1 MSTORE PUSH1 0x24 ADD PUSH2 0x8C7 JUMP JUMPDEST PUSH2 0xBD3 DUP4 DUP4 DUP4 PUSH1 0x1 PUSH2 0x22FC JUMP JUMPDEST PUSH1 0x6 SLOAD PUSH1 0x1 PUSH1 0x1 PUSH1 0xA0 SHL SUB AND CALLER EQ PUSH2 0x103C JUMPI PUSH1 0x40 MLOAD PUSH4 0x118CDAA7 PUSH1 0xE0 SHL DUP2 MSTORE CALLER PUSH1 0x4 DUP3 ADD MSTORE PUSH1 0x24 ADD PUSH2 0x8C7 JUMP JUMPDEST PUSH1 0x0 DUP3 DUP2 MSTORE PUSH1 0x15 PUSH1 0x20 SWAP1 DUP2 MSTORE PUSH1 0x40 DUP1 DUP4 KECCAK256 SLOAD PUSH3 0xFFFFFF AND DUP1 DUP5 MSTORE PUSH1 0x14 SWAP1 SWAP3 MSTORE DUP3 KECCAK256 DUP4 MLOAD SWAP2 SWAP3 SWAP1 SWAP2 DUP5 SWAP1 DUP3 SWAP1 PUSH2 0x1613 JUMPI PUSH2 0x1613 PUSH2 0x2D2A JUMP JUMPDEST PUSH1 0x20 MUL PUSH1 0x20 ADD ADD MLOAD SWAP1 POP PUSH1 0x19 DUP2 PUSH2 0x162A SWAP2 SWAP1 PUSH2 0x2E34 JUMP JUMPDEST DUP3 SLOAD PUSH1 0xFF NOT AND PUSH1 0xFF SWAP2 SWAP1 SWAP2 AND OR DUP3 SSTORE PUSH1 0x8 SHR PUSH2 0x1647 PUSH1 0x19 DUP3 PUSH2 0x2E34 JUMP JUMPDEST DUP3 SLOAD PUSH1 0xFF SWAP2 SWAP1 SWAP2 AND PUSH2 0x100 MUL PUSH2 0xFF00 NOT SWAP1 SWAP2 AND OR DUP3 SSTORE PUSH1 0x8 SHR PUSH2 0x166B PUSH1 0x19 DUP3 PUSH2 0x2E34 JUMP JUMPDEST DUP3 SLOAD PUSH1 0xFF SWAP2 SWAP1 SWAP2 AND PUSH3 0x10000 MUL PUSH3 0xFF0000 NOT SWAP1 SWAP2 AND OR DUP3 SSTORE PUSH1 0x8 SHR PUSH2 0x1691 PUSH1 0x19 DUP3 PUSH2 0x2E34 JUMP JUMPDEST DUP3 SLOAD PUSH4 0xFF000000 NOT DUP2 AND PUSH4 0x1000000 PUSH1 0xFF SWAP4 DUP5 AND MUL SWAP1 DUP2 OR DUP1 DUP7 SSTORE PUSH1 0x1 DUP7 ADD DUP1 SLOAD PUSH17 0xFF000000000000000000000000FFFFFFFF NOT AND SWAP1 SSTORE PUSH1 0x40 DUP1 MLOAD SWAP3 DUP6 AND SWAP4 DUP6 AND SWAP4 SWAP1 SWAP4 OR DUP3 MSTORE PUSH1 0x8 DUP2 SWAP1 SHR DUP5 AND PUSH1 0x20 DUP4 ADD MSTORE PUSH1 0x10 DUP2 SWAP1 SHR DUP5 AND DUP3 DUP5 ADD MSTORE PUSH1 0x18 SHR SWAP1 SWAP3 AND PUSH1 0x60 DUP4 ADD MSTORE MLOAD PUSH3 0xFFFFFF DUP6 AND SWAP2 PUSH32 0x9DEDF238B51CB2F65E712B6F39AB9F3E89A6268D251B582C9CEEC37E6DDFBA63 SWAP2 SWAP1 DUP2 SWAP1 SUB PUSH1 0x80 ADD SWAP1 LOG2 POP POP POP POP POP JUMP JUMPDEST PUSH1 0x0 DUP3 DUP2 MSTORE PUSH1 0x2 PUSH1 0x20 MSTORE PUSH1 0x40 DUP2 KECCAK256 SLOAD PUSH1 0x1 PUSH1 0x1 PUSH1 0xA0 SHL SUB SWAP1 DUP2 AND SWAP1 DUP4 AND ISZERO PUSH2 0x1761 JUMPI PUSH2 0x1761 DUP2 DUP5 DUP7 PUSH2 0x2402 JUMP JUMPDEST PUSH1 0x1 PUSH1 0x1 PUSH1 0xA0 SHL SUB DUP2 AND ISZERO PUSH2 0x179F JUMPI PUSH2 0x177E PUSH1 0x0 DUP6 PUSH1 0x0 DUP1 PUSH2 0x22FC JUMP JUMPDEST PUSH1 0x1 PUSH1 0x1 PUSH1 0xA0 SHL SUB DUP2 AND PUSH1 0x0 SWAP1 DUP2 MSTORE PUSH1 0x3 PUSH1 0x20 MSTORE PUSH1 0x40 SWAP1 KECCAK256 DUP1 SLOAD PUSH1 0x0 NOT ADD SWAP1 SSTORE JUMPDEST PUSH1 0x1 PUSH1 0x1 PUSH1 0xA0 SHL SUB DUP6 AND ISZERO PUSH2 0x17CE JUMPI PUSH1 0x1 PUSH1 0x1 PUSH1 0xA0 SHL SUB DUP6 AND PUSH1 0x0 SWAP1 DUP2 MSTORE PUSH1 0x3 PUSH1 0x20 MSTORE PUSH1 0x40 SWAP1 KECCAK256 DUP1 SLOAD PUSH1 0x1 ADD SWAP1 SSTORE JUMPDEST PUSH1 0x0 DUP5 DUP2 MSTORE PUSH1 0x2 PUSH1 0x20 MSTORE PUSH1 0x40 DUP1 DUP3 KECCAK256 DUP1 SLOAD PUSH1 0x1 PUSH1 0x1 PUSH1 0xA0 SHL SUB NOT AND PUSH1 0x1 PUSH1 0x1 PUSH1 0xA0 SHL SUB DUP10 DUP2 AND SWAP2 DUP3 OR SWAP1 SWAP3 SSTORE SWAP2 MLOAD DUP8 SWAP4 SWAP2 DUP6 AND SWAP2 PUSH32 0xDDF252AD1BE2C89B69C2B068FC378DAA952BA7F163C4A11628F55A4DF523B3EF SWAP2 LOG4 SWAP5 SWAP4 POP POP POP POP JUMP JUMPDEST PUSH1 0x2 PUSH1 0x7 SLOAD SUB PUSH2 0x1850 JUMPI PUSH1 0x40 MLOAD PUSH4 0x3EE5AEB5 PUSH1 0xE0 SHL DUP2 MSTORE PUSH1 0x4 ADD PUSH1 0x40 MLOAD DUP1 SWAP2 SUB SWAP1 REVERT JUMPDEST PUSH1 0x2 PUSH1 0x7 SSTORE JUMP JUMPDEST PUSH1 0x40 MLOAD PUSH1 0x1 PUSH1 0x1 PUSH1 0xA0 SHL SUB DUP5 DUP2 AND PUSH1 0x24 DUP4 ADD MSTORE DUP4 DUP2 AND PUSH1 0x44 DUP4 ADD MSTORE PUSH1 0x64 DUP3 ADD DUP4 SWAP1 MSTORE PUSH2 0x95F SWAP2 DUP7 SWAP2 DUP3 AND SWAP1 PUSH4 0x23B872DD SWAP1 PUSH1 0x84 ADD JUMPDEST PUSH1 0x40 MLOAD PUSH1 0x20 DUP2 DUP4 SUB SUB DUP2 MSTORE SWAP1 PUSH1 0x40 MSTORE SWAP2 POP PUSH1 0xE0 SHL PUSH1 0x20 DUP3 ADD DUP1 MLOAD PUSH1 0x1 PUSH1 0x1 PUSH1 0xE0 SHL SUB DUP4 DUP2 DUP4 AND OR DUP4 MSTORE POP POP POP POP PUSH2 0x2466 JUMP JUMPDEST PUSH2 0x828 DUP3 DUP3 PUSH1 0x40 MLOAD DUP1 PUSH1 0x20 ADD PUSH1 0x40 MSTORE DUP1 PUSH1 0x0 DUP2 MSTORE POP PUSH2 0x24C9 JUMP JUMPDEST PUSH3 0xFFFFFF DUP2 AND PUSH1 0x0 SWAP1 DUP2 MSTORE PUSH1 0xC PUSH1 0x20 MSTORE PUSH1 0x40 DUP2 KECCAK256 SLOAD SWAP1 DUP2 SWAP1 SUB PUSH2 0x18F9 JUMPI POP POP JUMP JUMPDEST PUSH1 0x0 PUSH2 0x1925 PUSH32 0x0 DUP4 PUSH2 0x2E48 JUMP JUMPDEST SWAP1 POP PUSH1 0x0 PUSH1 0x64 PUSH2 0x1936 PUSH1 0x50 DUP5 PUSH2 0x2E48 JUMP JUMPDEST PUSH2 0x1940 SWAP2 SWAP1 PUSH2 0x2E0D JUMP JUMPDEST SWAP1 POP PUSH1 0x0 PUSH1 0x64 PUSH2 0x1951 PUSH1 0x14 DUP6 PUSH2 0x2E48 JUMP JUMPDEST PUSH2 0x195B SWAP2 SWAP1 PUSH2 0x2E0D JUMP JUMPDEST SWAP1 POP PUSH1 0x64 PUSH2 0x196A PUSH1 0x50 DUP5 PUSH2 0x2E48 JUMP JUMPDEST PUSH2 0x1974 SWAP2 SWAP1 PUSH2 0x2E0D JUMP JUMPDEST PUSH1 0xD DUP1 SLOAD PUSH1 0x0 SWAP1 PUSH2 0x1986 SWAP1 DUP5 SWAP1 PUSH2 0x2DB5 JUMP JUMPDEST SWAP1 SWAP2 SSTORE POP PUSH1 0x64 SWAP1 POP PUSH2 0x1999 PUSH1 0xA DUP5 PUSH2 0x2E48 JUMP JUMPDEST PUSH2 0x19A3 SWAP2 SWAP1 PUSH2 0x2E0D JUMP JUMPDEST PUSH1 0xE DUP1 SLOAD PUSH1 0x0 SWAP1 PUSH2 0x19B5 SWAP1 DUP5 SWAP1 PUSH2 0x2DB5 JUMP JUMPDEST SWAP1 SWAP2 SSTORE POP PUSH1 0x64 SWAP1 POP PUSH2 0x19C8 PUSH1 0x5 DUP5 PUSH2 0x2E48 JUMP JUMPDEST PUSH2 0x19D2 SWAP2 SWAP1 PUSH2 0x2E0D JUMP JUMPDEST PUSH1 0xF DUP1 SLOAD PUSH1 0x0 SWAP1 PUSH2 0x19E4 SWAP1 DUP5 SWAP1 PUSH2 0x2DB5 JUMP JUMPDEST SWAP1 SWAP2 SSTORE POP PUSH1 0x64 SWAP1 POP PUSH2 0x19F7 PUSH1 0x5 DUP5 PUSH2 0x2E48 JUMP JUMPDEST PUSH2 0x1A01 SWAP2 SWAP1 PUSH2 0x2E0D JUMP JUMPDEST PUSH1 0x10 DUP1 SLOAD PUSH1 0x0 SWAP1 PUSH2 0x1A13 SWAP1 DUP5 SWAP1 PUSH2 0x2DB5 JUMP JUMPDEST SWAP1 SWAP2 SSTORE POP PUSH1 0x64 SWAP1 POP PUSH2 0x1A26 PUSH1 0x50 DUP4 PUSH2 0x2E48 JUMP JUMPDEST PUSH2 0x1A30 SWAP2 SWAP1 PUSH2 0x2E0D JUMP JUMPDEST PUSH1 0x11 DUP1 SLOAD PUSH1 0x0 SWAP1 PUSH2 0x1A42 SWAP1 DUP5 SWAP1 PUSH2 0x2DB5 JUMP JUMPDEST SWAP1 SWAP2 SSTORE POP PUSH1 0x64 SWAP1 POP PUSH2 0x1A55 PUSH1 0xA DUP4 PUSH2 0x2E48 JUMP JUMPDEST PUSH2 0x1A5F SWAP2 SWAP1 PUSH2 0x2E0D JUMP JUMPDEST PUSH1 0x12 DUP1 SLOAD PUSH1 0x0 SWAP1 PUSH2 0x1A71 SWAP1 DUP5 SWAP1 PUSH2 0x2DB5 JUMP JUMPDEST SWAP1 SWAP2 SSTORE POP PUSH1 0x64 SWAP1 POP PUSH2 0x1A84 PUSH1 0xA DUP4 PUSH2 0x2E48 JUMP JUMPDEST PUSH2 0x1A8E SWAP2 SWAP1 PUSH2 0x2E0D JUMP JUMPDEST PUSH1 0x13 DUP1 SLOAD PUSH1 0x0 SWAP1 PUSH2 0x1AA0 SWAP1 DUP5 SWAP1 PUSH2 0x2DB5 JUMP JUMPDEST SWAP1 SWAP2 SSTORE POP POP POP POP POP POP POP JUMP JUMPDEST PUSH1 0x40 MLOAD PUSH4 0x5D3B1D3 PUSH1 0xE4 SHL DUP2 MSTORE PUSH32 0x0 PUSH1 0x4 DUP3 ADD MSTORE PUSH8 0xFFFFFFFFFFFFFFFF PUSH32 0x0 AND PUSH1 0x24 DUP3 ADD MSTORE PUSH1 0x3 PUSH1 0x44 DUP3 ADD MSTORE PUSH3 0x493E0 PUSH1 0x64 DUP3 ADD MSTORE PUSH1 0x1 PUSH1 0x84 DUP3 ADD MSTORE PUSH1 0x0 SWAP1 PUSH32 0x0 PUSH1 0x1 PUSH1 0x1 PUSH1 0xA0 SHL SUB AND SWAP1 PUSH4 0x5D3B1D30 SWAP1 PUSH1 0xA4 ADD PUSH1 0x20 PUSH1 0x40 MLOAD DUP1 DUP4 SUB DUP2 PUSH1 0x0 DUP8 GAS CALL ISZERO DUP1 ISZERO PUSH2 0x1B7C JUMPI RETURNDATASIZE PUSH1 0x0 DUP1 RETURNDATACOPY RETURNDATASIZE PUSH1 0x0 REVERT JUMPDEST POP POP POP POP PUSH1 0x40 MLOAD RETURNDATASIZE PUSH1 0x1F NOT PUSH1 0x1F DUP3 ADD AND DUP3 ADD DUP1 PUSH1 0x40 MSTORE POP DUP2 ADD SWAP1 PUSH2 0x1BA0 SWAP2 SWAP1 PUSH2 0x2E5F JUMP JUMPDEST PUSH1 0x0 DUP2 DUP2 MSTORE PUSH1 0x15 PUSH1 0x20 MSTORE PUSH1 0x40 DUP1 DUP3 KECCAK256 DUP1 SLOAD PUSH3 0xFFFFFF NOT AND PUSH3 0xFFFFFF DUP8 AND SWAP1 DUP2 OR SWAP1 SWAP2 SSTORE SWAP1 MLOAD SWAP3 SWAP4 POP SWAP2 DUP4 SWAP2 PUSH32 0x6D9C99357D359EBC464C51FB3162F671B2BD8FECD626DD9F4F5E329076AA00F2 SWAP2 LOG3 POP POP JUMP JUMPDEST PUSH1 0x0 DUP3 DUP2 MSTORE PUSH1 0xB PUSH1 0x20 MSTORE PUSH1 0x40 DUP1 DUP3 KECCAK256 DUP2 MLOAD PUSH1 0x80 DUP2 ADD SWAP3 DUP4 SWAP1 MSTORE SWAP1 SWAP3 SWAP2 DUP5 SWAP1 PUSH1 0x4 SWAP1 DUP3 DUP6 DUP6 JUMPDEST DUP3 SLOAD PUSH2 0x100 DUP4 SWAP1 EXP SWAP1 DIV PUSH1 0xFF AND DUP2 MSTORE PUSH1 0x20 PUSH1 0x1 SWAP3 DUP4 ADD DUP2 DUP2 DIV SWAP5 DUP6 ADD SWAP5 SWAP1 SWAP4 SUB SWAP1 SWAP3 MUL SWAP2 ADD DUP1 DUP5 GT PUSH2 0x1C17 JUMPI SWAP1 POP POP POP POP POP POP SWAP1 POP PUSH1 0x0 DUP1 JUMPDEST PUSH1 0x4 DUP2 LT ISZERO PUSH2 0x1CB2 JUMPI DUP3 DUP2 PUSH1 0x4 DUP2 LT PUSH2 0x1C6B JUMPI PUSH2 0x1C6B PUSH2 0x2D2A JUMP JUMPDEST PUSH1 0x20 MUL ADD MLOAD PUSH1 0xFF AND DUP5 PUSH1 0x1 ADD DUP3 PUSH1 0x4 DUP2 LT PUSH2 0x1C88 JUMPI PUSH2 0x1C88 PUSH2 0x2D2A JUMP JUMPDEST PUSH1 0x20 DUP2 DIV SWAP1 SWAP2 ADD SLOAD PUSH1 0xFF PUSH1 0x1F SWAP1 SWAP3 AND PUSH2 0x100 EXP SWAP1 DIV AND SUB PUSH2 0x1CAA JUMPI DUP2 PUSH1 0x1 ADD SWAP2 POP JUMPDEST PUSH1 0x1 ADD PUSH2 0x1C50 JUMP JUMPDEST POP DUP1 PUSH1 0xFF AND PUSH1 0x4 SUB PUSH2 0x1D03 JUMPI PUSH1 0x1 DUP5 ADD DUP1 SLOAD PUSH1 0x4 SWAP1 PUSH2 0x1CDE SWAP1 PUSH5 0x100000000 SWAP1 DIV PUSH4 0xFFFFFFFF AND PUSH2 0x2E78 JUMP JUMPDEST SWAP2 SWAP1 PUSH2 0x100 EXP DUP2 SLOAD DUP2 PUSH4 0xFFFFFFFF MUL NOT AND SWAP1 DUP4 PUSH4 0xFFFFFFFF AND MUL OR SWAP1 SSTORE POP POP POP POP POP POP JUMP JUMPDEST DUP1 PUSH1 0xFF AND PUSH1 0x3 SUB PUSH2 0x1D2D JUMPI PUSH1 0x1 DUP5 ADD DUP1 SLOAD PUSH1 0xC SWAP1 PUSH2 0x1CDE SWAP1 PUSH1 0x1 PUSH1 0x60 SHL SWAP1 DIV PUSH4 0xFFFFFFFF AND PUSH2 0x2E78 JUMP JUMPDEST PUSH2 0x1D35 PUSH2 0x2846 JUMP JUMPDEST PUSH1 0x0 DUP1 JUMPDEST PUSH1 0x4 DUP2 LT ISZERO PUSH2 0x1D95 JUMPI DUP3 DUP7 PUSH1 0x1 ADD DUP3 PUSH1 0x4 DUP2 LT PUSH2 0x1D58 JUMPI PUSH2 0x1D58 PUSH2 0x2D2A JUMP JUMPDEST PUSH1 0x20 DUP2 DIV SWAP1 SWAP2 ADD SLOAD PUSH1 0xFF PUSH1 0x1F SWAP1 SWAP3 AND PUSH2 0x100 EXP SWAP1 DIV AND PUSH1 0x19 DUP2 LT PUSH2 0x1D7E JUMPI PUSH2 0x1D7E PUSH2 0x2D2A JUMP JUMPDEST PUSH1 0x20 MUL ADD DUP1 MLOAD PUSH1 0xFF PUSH1 0x1 SWAP2 DUP3 ADD AND SWAP1 SWAP2 MSTORE ADD PUSH2 0x1D39 JUMP JUMPDEST POP PUSH1 0x0 JUMPDEST PUSH1 0x4 DUP2 LT ISZERO PUSH2 0x1E26 JUMPI PUSH1 0x0 DUP4 DUP7 DUP4 PUSH1 0x4 DUP2 LT PUSH2 0x1DB7 JUMPI PUSH2 0x1DB7 PUSH2 0x2D2A JUMP JUMPDEST PUSH1 0x20 MUL ADD MLOAD PUSH1 0xFF AND PUSH1 0x19 DUP2 LT PUSH2 0x1DCF JUMPI PUSH2 0x1DCF PUSH2 0x2D2A JUMP JUMPDEST PUSH1 0x20 MUL ADD MLOAD PUSH1 0xFF AND GT ISZERO PUSH2 0x1E1E JUMPI DUP2 PUSH1 0x1 ADD SWAP2 POP DUP3 DUP6 DUP3 PUSH1 0x4 DUP2 LT PUSH2 0x1DF6 JUMPI PUSH2 0x1DF6 PUSH2 0x2D2A JUMP JUMPDEST PUSH1 0x20 MUL ADD MLOAD PUSH1 0xFF AND PUSH1 0x19 DUP2 LT PUSH2 0x1E0E JUMPI PUSH2 0x1E0E PUSH2 0x2D2A JUMP JUMPDEST PUSH1 0x20 MUL ADD DUP1 MLOAD PUSH1 0x0 NOT ADD PUSH1 0xFF AND SWAP1 MSTORE JUMPDEST PUSH1 0x1 ADD PUSH2 0x1D99 JUMP JUMPDEST POP DUP1 PUSH1 0xFF AND PUSH1 0x4 SUB PUSH2 0x1E70 JUMPI PUSH1 0x1 DUP7 ADD DUP1 SLOAD PUSH1 0x8 SWAP1 PUSH2 0x1E51 SWAP1 PUSH1 0x1 PUSH1 0x40 SHL SWAP1 DIV PUSH4 0xFFFFFFFF AND PUSH2 0x2E78 JUMP JUMPDEST SWAP2 SWAP1 PUSH2 0x100 EXP DUP2 SLOAD DUP2 PUSH4 0xFFFFFFFF MUL NOT AND SWAP1 DUP4 PUSH4 0xFFFFFFFF AND MUL OR SWAP1 SSTORE POP JUMPDEST POP POP POP POP POP POP POP JUMP JUMPDEST PUSH1 0x6 DUP1 SLOAD PUSH1 0x1 PUSH1 0x1 PUSH1 0xA0 SHL SUB DUP4 DUP2 AND PUSH1 0x1 PUSH1 0x1 PUSH1 0xA0 SHL SUB NOT DUP4 AND DUP2 OR SWAP1 SWAP4 SSTORE PUSH1 0x40 MLOAD SWAP2 AND SWAP2 SWAP1 DUP3 SWAP1 PUSH32 0x8BE0079C531659141344CD1FD0A4F28419497F9722A3DAAFE3B4186F6B6457E0 SWAP1 PUSH1 0x0 SWAP1 LOG3 POP POP JUMP JUMPDEST PUSH1 0x1 PUSH1 0x1 PUSH1 0xA0 SHL SUB DUP3 AND PUSH2 0x1EFD JUMPI PUSH1 0x40 MLOAD PUSH4 0xB611743 PUSH1 0xE3 SHL DUP2 MSTORE PUSH1 0x1 PUSH1 0x1 PUSH1 0xA0 SHL SUB DUP4 AND PUSH1 0x4 DUP3 ADD MSTORE PUSH1 0x24 ADD PUSH2 0x8C7 JUMP JUMPDEST PUSH1 0x1 PUSH1 0x1 PUSH1 0xA0 SHL SUB DUP4 DUP2 AND PUSH1 0x0 DUP2 DUP2 MSTORE PUSH1 0x5 PUSH1 0x20 SWAP1 DUP2 MSTORE PUSH1 0x40 DUP1 DUP4 KECCAK256 SWAP5 DUP8 AND DUP1 DUP5 MSTORE SWAP5 DUP3 MSTORE SWAP2 DUP3 SWAP1 KECCAK256 DUP1 SLOAD PUSH1 0xFF NOT AND DUP7 ISZERO ISZERO SWAP1 DUP2 OR SWAP1 SWAP2 SSTORE SWAP2 MLOAD SWAP2 DUP3 MSTORE PUSH32 0x17307EAB39AB6107E8899845AD3D59BD9653F200F220920489CA2B5937696C31 SWAP2 ADD PUSH1 0x40 MLOAD DUP1 SWAP2 SUB SWAP1 LOG3 POP POP POP JUMP JUMPDEST PUSH1 0x1 PUSH1 0x1 PUSH1 0xA0 SHL SUB DUP4 AND EXTCODESIZE ISZERO PUSH2 0x95F JUMPI PUSH1 0x40 MLOAD PUSH4 0xA85BD01 PUSH1 0xE1 SHL DUP2 MSTORE PUSH1 0x1 PUSH1 0x1 PUSH1 0xA0 SHL SUB DUP5 AND SWAP1 PUSH4 0x150B7A02 SWAP1 PUSH2 0x1FAC SWAP1 CALLER SWAP1 DUP9 SWAP1 DUP8 SWAP1 DUP8 SWAP1 PUSH1 0x4 ADD PUSH2 0x2E9B JUMP JUMPDEST PUSH1 0x20 PUSH1 0x40 MLOAD DUP1 DUP4 SUB DUP2 PUSH1 0x0 DUP8 GAS CALL SWAP3 POP POP POP DUP1 ISZERO PUSH2 0x1FE7 JUMPI POP PUSH1 0x40 DUP1 MLOAD PUSH1 0x1F RETURNDATASIZE SWAP1 DUP2 ADD PUSH1 0x1F NOT AND DUP3 ADD SWAP1 SWAP3 MSTORE PUSH2 0x1FE4 SWAP2 DUP2 ADD SWAP1 PUSH2 0x2ECE JUMP JUMPDEST PUSH1 0x1 JUMPDEST PUSH2 0x2050 JUMPI RETURNDATASIZE DUP1 DUP1 ISZERO PUSH2 0x2015 JUMPI PUSH1 0x40 MLOAD SWAP2 POP PUSH1 0x1F NOT PUSH1 0x3F RETURNDATASIZE ADD AND DUP3 ADD PUSH1 0x40 MSTORE RETURNDATASIZE DUP3 MSTORE RETURNDATASIZE PUSH1 0x0 PUSH1 0x20 DUP5 ADD RETURNDATACOPY PUSH2 0x201A JUMP JUMPDEST PUSH1 0x60 SWAP2 POP JUMPDEST POP DUP1 MLOAD PUSH1 0x0 SUB PUSH2 0x2048 JUMPI PUSH1 0x40 MLOAD PUSH4 0x32505749 PUSH1 0xE1 SHL DUP2 MSTORE PUSH1 0x1 PUSH1 0x1 PUSH1 0xA0 SHL SUB DUP6 AND PUSH1 0x4 DUP3 ADD MSTORE PUSH1 0x24 ADD PUSH2 0x8C7 JUMP JUMPDEST DUP1 MLOAD DUP2 PUSH1 0x20 ADD REVERT JUMPDEST PUSH1 0x1 PUSH1 0x1 PUSH1 0xE0 SHL SUB NOT DUP2 AND PUSH4 0xA85BD01 PUSH1 0xE1 SHL EQ PUSH2 0x208C JUMPI PUSH1 0x40 MLOAD PUSH4 0x32505749 PUSH1 0xE1 SHL DUP2 MSTORE PUSH1 0x1 PUSH1 0x1 PUSH1 0xA0 SHL SUB DUP6 AND PUSH1 0x4 DUP3 ADD MSTORE PUSH1 0x24 ADD PUSH2 0x8C7 JUMP JUMPDEST POP POP POP POP POP JUMP JUMPDEST PUSH1 0x60 PUSH1 0x0 PUSH2 0x20A0 DUP4 PUSH2 0x24E0 JUMP JUMPDEST PUSH1 0x1 ADD SWAP1 POP PUSH1 0x0 DUP2 PUSH8 0xFFFFFFFFFFFFFFFF DUP2 GT ISZERO PUSH2 0x20C0 JUMPI PUSH2 0x20C0 PUSH2 0x296F JUMP JUMPDEST PUSH1 0x40 MLOAD SWAP1 DUP1 DUP3 MSTORE DUP1 PUSH1 0x1F ADD PUSH1 0x1F NOT AND PUSH1 0x20 ADD DUP3 ADD PUSH1 0x40 MSTORE DUP1 ISZERO PUSH2 0x20EA JUMPI PUSH1 0x20 DUP3 ADD DUP2 DUP1 CALLDATASIZE DUP4 CALLDATACOPY ADD SWAP1 POP JUMPDEST POP SWAP1 POP DUP2 DUP2 ADD PUSH1 0x20 ADD JUMPDEST PUSH1 0x0 NOT ADD PUSH16 0x181899199A1A9B1B9C1CB0B131B232B3 PUSH1 0x81 SHL PUSH1 0xA DUP7 MOD BYTE DUP2 MSTORE8 PUSH1 0xA DUP6 DIV SWAP5 POP DUP5 PUSH2 0x20F4 JUMPI POP SWAP4 SWAP3 POP POP POP JUMP JUMPDEST PUSH1 0x0 DUP1 PUSH1 0x0 JUMPDEST PUSH1 0x4 DUP2 LT ISZERO PUSH2 0x217D JUMPI DUP4 DUP2 PUSH1 0x4 DUP2 LT PUSH2 0x2147 JUMPI PUSH2 0x2147 PUSH2 0x2D2A JUMP JUMPDEST PUSH1 0x20 MUL ADD MLOAD PUSH1 0xFF AND DUP6 DUP3 PUSH1 0x4 DUP2 LT PUSH2 0x2161 JUMPI PUSH2 0x2161 PUSH2 0x2D2A JUMP JUMPDEST PUSH1 0x20 MUL ADD MLOAD PUSH1 0xFF AND SUB PUSH2 0x2175 JUMPI DUP2 PUSH1 0x1 ADD SWAP2 POP JUMPDEST PUSH1 0x1 ADD PUSH2 0x212C JUMP JUMPDEST POP DUP1 PUSH1 0xFF AND PUSH1 0x4 SUB PUSH2 0x2193 JUMPI PUSH1 0x1 SWAP2 POP POP PUSH2 0x75C JUMP JUMPDEST DUP1 PUSH1 0xFF AND PUSH1 0x3 SUB PUSH2 0x21A8 JUMPI PUSH1 0x3 SWAP2 POP POP PUSH2 0x75C JUMP JUMPDEST PUSH2 0x21B0 PUSH2 0x2846 JUMP JUMPDEST PUSH1 0x0 DUP1 JUMPDEST PUSH1 0x4 DUP2 LT ISZERO PUSH2 0x21FF JUMPI DUP3 DUP8 DUP3 PUSH1 0x4 DUP2 LT PUSH2 0x21D0 JUMPI PUSH2 0x21D0 PUSH2 0x2D2A JUMP JUMPDEST PUSH1 0x20 MUL ADD MLOAD PUSH1 0xFF AND PUSH1 0x19 DUP2 LT PUSH2 0x21E8 JUMPI PUSH2 0x21E8 PUSH2 0x2D2A JUMP JUMPDEST PUSH1 0x20 MUL ADD DUP1 MLOAD PUSH1 0xFF PUSH1 0x1 SWAP2 DUP3 ADD AND SWAP1 SWAP2 MSTORE ADD PUSH2 0x21B4 JUMP JUMPDEST POP PUSH1 0x0 JUMPDEST PUSH1 0x4 DUP2 LT ISZERO PUSH2 0x2290 JUMPI PUSH1 0x0 DUP4 DUP8 DUP4 PUSH1 0x4 DUP2 LT PUSH2 0x2221 JUMPI PUSH2 0x2221 PUSH2 0x2D2A JUMP JUMPDEST PUSH1 0x20 MUL ADD MLOAD PUSH1 0xFF AND PUSH1 0x19 DUP2 LT PUSH2 0x2239 JUMPI PUSH2 0x2239 PUSH2 0x2D2A JUMP JUMPDEST PUSH1 0x20 MUL ADD MLOAD PUSH1 0xFF AND GT ISZERO PUSH2 0x2288 JUMPI DUP2 PUSH1 0x1 ADD SWAP2 POP DUP3 DUP7 DUP3 PUSH1 0x4 DUP2 LT PUSH2 0x2260 JUMPI PUSH2 0x2260 PUSH2 0x2D2A JUMP JUMPDEST PUSH1 0x20 MUL ADD MLOAD PUSH1 0xFF AND PUSH1 0x19 DUP2 LT PUSH2 0x2278 JUMPI PUSH2 0x2278 PUSH2 0x2D2A JUMP JUMPDEST PUSH1 0x20 MUL ADD DUP1 MLOAD PUSH1 0x0 NOT ADD PUSH1 0xFF AND SWAP1 MSTORE JUMPDEST PUSH1 0x1 ADD PUSH2 0x2203 JUMP JUMPDEST POP DUP1 PUSH1 0xFF AND PUSH1 0x4 SUB PUSH2 0x22A8 JUMPI PUSH1 0x2 SWAP4 POP POP POP POP PUSH2 0x75C JUMP JUMPDEST DUP1 PUSH1 0xFF AND PUSH1 0x3 SUB PUSH2 0x22BF JUMPI PUSH1 0x4 SWAP4 POP POP POP POP PUSH2 0x75C JUMP JUMPDEST POP PUSH1 0x0 SWAP6 SWAP5 POP POP POP POP POP JUMP JUMPDEST PUSH1 0x40 MLOAD PUSH1 0x1 PUSH1 0x1 PUSH1 0xA0 SHL SUB DUP4 DUP2 AND PUSH1 0x24 DUP4 ADD MSTORE PUSH1 0x44 DUP3 ADD DUP4 SWAP1 MSTORE PUSH2 0xBD3 SWAP2 DUP6 SWAP2 DUP3 AND SWAP1 PUSH4 0xA9059CBB SWAP1 PUSH1 0x64 ADD PUSH2 0x188C JUMP JUMPDEST DUP1 DUP1 PUSH2 0x2310 JUMPI POP PUSH1 0x1 PUSH1 0x1 PUSH1 0xA0 SHL SUB DUP3 AND ISZERO ISZERO JUMPDEST ISZERO PUSH2 0x23D2 JUMPI PUSH1 0x0 PUSH2 0x2320 DUP5 PUSH2 0x1569 JUMP JUMPDEST SWAP1 POP PUSH1 0x1 PUSH1 0x1 PUSH1 0xA0 SHL SUB DUP4 AND ISZERO DUP1 ISZERO SWAP1 PUSH2 0x234C JUMPI POP DUP3 PUSH1 0x1 PUSH1 0x1 PUSH1 0xA0 SHL SUB AND DUP2 PUSH1 0x1 PUSH1 0x1 PUSH1 0xA0 SHL SUB AND EQ ISZERO JUMPDEST DUP1 ISZERO PUSH2 0x235F JUMPI POP PUSH2 0x235D DUP2 DUP5 PUSH2 0x1500 JUMP JUMPDEST ISZERO JUMPDEST ISZERO PUSH2 0x2388 JUMPI PUSH1 0x40 MLOAD PUSH4 0xA9FBF51F PUSH1 0xE0 SHL DUP2 MSTORE PUSH1 0x1 PUSH1 0x1 PUSH1 0xA0 SHL SUB DUP5 AND PUSH1 0x4 DUP3 ADD MSTORE PUSH1 0x24 ADD PUSH2 0x8C7 JUMP JUMPDEST DUP2 ISZERO PUSH2 0x23D0 JUMPI DUP4 DUP6 PUSH1 0x1 PUSH1 0x1 PUSH1 0xA0 SHL SUB AND DUP3 PUSH1 0x1 PUSH1 0x1 PUSH1 0xA0 SHL SUB AND PUSH32 0x8C5BE1E5EBEC7D5BD14F71427D1E84F3DD0314C0F7B2291E5B200AC8C7C3B925 PUSH1 0x40 MLOAD PUSH1 0x40 MLOAD DUP1 SWAP2 SUB SWAP1 LOG4 JUMPDEST POP JUMPDEST POP POP PUSH1 0x0 SWAP1 DUP2 MSTORE PUSH1 0x4 PUSH1 0x20 MSTORE PUSH1 0x40 SWAP1 KECCAK256 DUP1 SLOAD PUSH1 0x1 PUSH1 0x1 PUSH1 0xA0 SHL SUB NOT AND PUSH1 0x1 PUSH1 0x1 PUSH1 0xA0 SHL SUB SWAP3 SWAP1 SWAP3 AND SWAP2 SWAP1 SWAP2 OR SWAP1 SSTORE JUMP JUMPDEST PUSH2 0x240D DUP4 DUP4 DUP4 PUSH2 0x25B8 JUMP JUMPDEST PUSH2 0xBD3 JUMPI PUSH1 0x1 PUSH1 0x1 PUSH1 0xA0 SHL SUB DUP4 AND PUSH2 0x243B JUMPI PUSH1 0x40 MLOAD PUSH4 0x7E273289 PUSH1 0xE0 SHL DUP2 MSTORE PUSH1 0x4 DUP2 ADD DUP3 SWAP1 MSTORE PUSH1 0x24 ADD PUSH2 0x8C7 JUMP JUMPDEST PUSH1 0x40 MLOAD PUSH4 0x177E802F PUSH1 0xE0 SHL DUP2 MSTORE PUSH1 0x1 PUSH1 0x1 PUSH1 0xA0 SHL SUB DUP4 AND PUSH1 0x4 DUP3 ADD MSTORE PUSH1 0x24 DUP2 ADD DUP3 SWAP1 MSTORE PUSH1 0x44 ADD PUSH2 0x8C7 JUMP JUMPDEST PUSH1 0x0 PUSH2 0x247B PUSH1 0x1 PUSH1 0x1 PUSH1 0xA0 SHL SUB DUP5 AND DUP4 PUSH2 0x261E JUMP JUMPDEST SWAP1 POP DUP1 MLOAD PUSH1 0x0 EQ ISZERO DUP1 ISZERO PUSH2 0x24A0 JUMPI POP DUP1 DUP1 PUSH1 0x20 ADD SWAP1 MLOAD DUP2 ADD SWAP1 PUSH2 0x249E SWAP2 SWAP1 PUSH2 0x2EEB JUMP JUMPDEST ISZERO JUMPDEST ISZERO PUSH2 0xBD3 JUMPI PUSH1 0x40 MLOAD PUSH4 0x5274AFE7 PUSH1 0xE0 SHL DUP2 MSTORE PUSH1 0x1 PUSH1 0x1 PUSH1 0xA0 SHL SUB DUP5 AND PUSH1 0x4 DUP3 ADD MSTORE PUSH1 0x24 ADD PUSH2 0x8C7 JUMP JUMPDEST PUSH2 0x24D3 DUP4 DUP4 PUSH2 0x262C JUMP JUMPDEST PUSH2 0xBD3 PUSH1 0x0 DUP5 DUP5 DUP5 PUSH2 0x1F6A JUMP JUMPDEST PUSH1 0x0 DUP1 PUSH19 0x184F03E93FF9F4DAA797ED6E38ED64BF6A1F01 PUSH1 0x40 SHL DUP4 LT PUSH2 0x251F JUMPI PUSH19 0x184F03E93FF9F4DAA797ED6E38ED64BF6A1F01 PUSH1 0x40 SHL DUP4 DIV SWAP3 POP PUSH1 0x40 ADD JUMPDEST PUSH14 0x4EE2D6D415B85ACEF8100000000 DUP4 LT PUSH2 0x254B JUMPI PUSH14 0x4EE2D6D415B85ACEF8100000000 DUP4 DIV SWAP3 POP PUSH1 0x20 ADD JUMPDEST PUSH7 0x2386F26FC10000 DUP4 LT PUSH2 0x2569 JUMPI PUSH7 0x2386F26FC10000 DUP4 DIV SWAP3 POP PUSH1 0x10 ADD JUMPDEST PUSH4 0x5F5E100 DUP4 LT PUSH2 0x2581 JUMPI PUSH4 0x5F5E100 DUP4 DIV SWAP3 POP PUSH1 0x8 ADD JUMPDEST PUSH2 0x2710 DUP4 LT PUSH2 0x2595 JUMPI PUSH2 0x2710 DUP4 DIV SWAP3 POP PUSH1 0x4 ADD JUMPDEST PUSH1 0x64 DUP4 LT PUSH2 0x25A7 JUMPI PUSH1 0x64 DUP4 DIV SWAP3 POP PUSH1 0x2 ADD JUMPDEST PUSH1 0xA DUP4 LT PUSH2 0x75C JUMPI PUSH1 0x1 ADD SWAP3 SWAP2 POP POP JUMP JUMPDEST PUSH1 0x0 PUSH1 0x1 PUSH1 0x1 PUSH1 0xA0 SHL SUB DUP4 AND ISZERO DUP1 ISZERO SWAP1 PUSH2 0x2616 JUMPI POP DUP3 PUSH1 0x1 PUSH1 0x1 PUSH1 0xA0 SHL SUB AND DUP5 PUSH1 0x1 PUSH1 0x1 PUSH1 0xA0 SHL SUB AND EQ DUP1 PUSH2 0x25F2 JUMPI POP PUSH2 0x25F2 DUP5 DUP5 PUSH2 0x1500 JUMP JUMPDEST DUP1 PUSH2 0x2616 JUMPI POP PUSH1 0x0 DUP3 DUP2 MSTORE PUSH1 0x4 PUSH1 0x20 MSTORE PUSH1 0x40 SWAP1 KECCAK256 SLOAD PUSH1 0x1 PUSH1 0x1 PUSH1 0xA0 SHL SUB DUP5 DUP2 AND SWAP2 AND EQ JUMPDEST SWAP5 SWAP4 POP POP POP POP JUMP JUMPDEST PUSH1 0x60 PUSH2 0x10DD DUP4 DUP4 PUSH1 0x0 PUSH2 0x2691 JUMP JUMPDEST PUSH1 0x1 PUSH1 0x1 PUSH1 0xA0 SHL SUB DUP3 AND PUSH2 0x2656 JUMPI PUSH1 0x40 MLOAD PUSH4 0x32505749 PUSH1 0xE1 SHL DUP2 MSTORE PUSH1 0x0 PUSH1 0x4 DUP3 ADD MSTORE PUSH1 0x24 ADD PUSH2 0x8C7 JUMP JUMPDEST PUSH1 0x0 PUSH2 0x2664 DUP4 DUP4 PUSH1 0x0 PUSH2 0x1734 JUMP JUMPDEST SWAP1 POP PUSH1 0x1 PUSH1 0x1 PUSH1 0xA0 SHL SUB DUP2 AND ISZERO PUSH2 0xBD3 JUMPI PUSH1 0x40 MLOAD PUSH4 0x39E35637 PUSH1 0xE1 SHL DUP2 MSTORE PUSH1 0x0 PUSH1 0x4 DUP3 ADD MSTORE PUSH1 0x24 ADD PUSH2 0x8C7 JUMP JUMPDEST PUSH1 0x60 DUP2 SELFBALANCE LT ISZERO PUSH2 0x26B6 JUMPI PUSH1 0x40 MLOAD PUSH4 0xCD786059 PUSH1 0xE0 SHL DUP2 MSTORE ADDRESS PUSH1 0x4 DUP3 ADD MSTORE PUSH1 0x24 ADD PUSH2 0x8C7 JUMP JUMPDEST PUSH1 0x0 DUP1 DUP6 PUSH1 0x1 PUSH1 0x1 PUSH1 0xA0 SHL SUB AND DUP5 DUP7 PUSH1 0x40 MLOAD PUSH2 0x26D2 SWAP2 SWAP1 PUSH2 0x2F08 JUMP JUMPDEST PUSH1 0x0 PUSH1 0x40 MLOAD DUP1 DUP4 SUB DUP2 DUP6 DUP8 GAS CALL SWAP3 POP POP POP RETURNDATASIZE DUP1 PUSH1 0x0 DUP2 EQ PUSH2 0x270F JUMPI PUSH1 0x40 MLOAD SWAP2 POP PUSH1 0x1F NOT PUSH1 0x3F RETURNDATASIZE ADD AND DUP3 ADD PUSH1 0x40 MSTORE RETURNDATASIZE DUP3 MSTORE RETURNDATASIZE PUSH1 0x0 PUSH1 0x20 DUP5 ADD RETURNDATACOPY PUSH2 0x2714 JUMP JUMPDEST PUSH1 0x60 SWAP2 POP JUMPDEST POP SWAP2 POP SWAP2 POP PUSH2 0x2724 DUP7 DUP4 DUP4 PUSH2 0x272E JUMP JUMPDEST SWAP7 SWAP6 POP POP POP POP POP POP JUMP JUMPDEST PUSH1 0x60 DUP3 PUSH2 0x2743 JUMPI PUSH2 0x273E DUP3 PUSH2 0x278A JUMP JUMPDEST PUSH2 0x10DD JUMP JUMPDEST DUP2 MLOAD ISZERO DUP1 ISZERO PUSH2 0x275A JUMPI POP PUSH1 0x1 PUSH1 0x1 PUSH1 0xA0 SHL SUB DUP5 AND EXTCODESIZE ISZERO JUMPDEST ISZERO PUSH2 0x2783 JUMPI PUSH1 0x40 MLOAD PUSH4 0x9996B315 PUSH1 0xE0 SHL DUP2 MSTORE PUSH1 0x1 PUSH1 0x1 PUSH1 0xA0 SHL SUB DUP6 AND PUSH1 0x4 DUP3 ADD MSTORE PUSH1 0x24 ADD PUSH2 0x8C7 JUMP JUMPDEST POP DUP1 PUSH2 0x10DD JUMP JUMPDEST DUP1 MLOAD ISZERO PUSH2 0x279A JUMPI DUP1 MLOAD DUP1 DUP3 PUSH1 0x20 ADD REVERT JUMPDEST PUSH1 0x40 MLOAD PUSH4 0xA12F521 PUSH1 0xE1 SHL DUP2 MSTORE PUSH1 0x4 ADD PUSH1 0x40 MLOAD DUP1 SWAP2 SUB SWAP1 REVERT JUMPDEST PUSH1 0x1 DUP4 ADD SWAP2 DUP4 SWAP1 DUP3 ISZERO PUSH2 0x2836 JUMPI SWAP2 PUSH1 0x20 MUL DUP3 ADD PUSH1 0x0 JUMPDEST DUP4 DUP3 GT ISZERO PUSH2 0x2807 JUMPI DUP4 MLOAD DUP4 DUP3 PUSH2 0x100 EXP DUP2 SLOAD DUP2 PUSH1 0xFF MUL NOT AND SWAP1 DUP4 PUSH1 0xFF AND MUL OR SWAP1 SSTORE POP SWAP3 PUSH1 0x20 ADD SWAP3 PUSH1 0x1 ADD PUSH1 0x20 DUP2 PUSH1 0x0 ADD DIV SWAP3 DUP4 ADD SWAP3 PUSH1 0x1 SUB MUL PUSH2 0x27C9 JUMP JUMPDEST DUP1 ISZERO PUSH2 0x2834 JUMPI DUP3 DUP2 PUSH2 0x100 EXP DUP2 SLOAD SWAP1 PUSH1 0xFF MUL NOT AND SWAP1 SSTORE PUSH1 0x1 ADD PUSH1 0x20 DUP2 PUSH1 0x0 ADD DIV SWAP3 DUP4 ADD SWAP3 PUSH1 0x1 SUB MUL PUSH2 0x2807 JUMP JUMPDEST POP JUMPDEST POP PUSH2 0x2842 SWAP3 SWAP2 POP PUSH2 0x2865 JUMP JUMPDEST POP SWAP1 JUMP JUMPDEST PUSH1 0x40 MLOAD DUP1 PUSH2 0x320 ADD PUSH1 0x40 MSTORE DUP1 PUSH1 0x19 SWAP1 PUSH1 0x20 DUP3 MUL DUP1 CALLDATASIZE DUP4 CALLDATACOPY POP SWAP2 SWAP3 SWAP2 POP POP JUMP JUMPDEST JUMPDEST DUP1 DUP3 GT ISZERO PUSH2 0x2842 JUMPI PUSH1 0x0 DUP2 SSTORE PUSH1 0x1 ADD PUSH2 0x2866 JUMP JUMPDEST PUSH1 0x1 PUSH1 0x1 PUSH1 0xE0 SHL SUB NOT DUP2 AND DUP2 EQ PUSH2 0xBB5 JUMPI PUSH1 0x0 DUP1 REVERT JUMPDEST PUSH1 0x0 PUSH1 0x20 DUP3 DUP5 SUB SLT ISZERO PUSH2 0x28A2 JUMPI PUSH1 0x0 DUP1 REVERT JUMPDEST DUP2 CALLDATALOAD PUSH2 0x10DD DUP2 PUSH2 0x287A JUMP JUMPDEST PUSH1 0x0 JUMPDEST DUP4 DUP2 LT ISZERO PUSH2 0x28C8 JUMPI DUP2 DUP2 ADD MLOAD DUP4 DUP3 ADD MSTORE PUSH1 0x20 ADD PUSH2 0x28B0 JUMP JUMPDEST POP POP PUSH1 0x0 SWAP2 ADD MSTORE JUMP JUMPDEST PUSH1 0x0 DUP2 MLOAD DUP1 DUP5 MSTORE PUSH2 0x28E9 DUP2 PUSH1 0x20 DUP7 ADD PUSH1 0x20 DUP7 ADD PUSH2 0x28AD JUMP JUMPDEST PUSH1 0x1F ADD PUSH1 0x1F NOT AND SWAP3 SWAP1 SWAP3 ADD PUSH1 0x20 ADD SWAP3 SWAP2 POP POP JUMP JUMPDEST PUSH1 0x20 DUP2 MSTORE PUSH1 0x0 PUSH2 0x10DD PUSH1 0x20 DUP4 ADD DUP5 PUSH2 0x28D1 JUMP JUMPDEST PUSH1 0x0 PUSH1 0x20 DUP3 DUP5 SUB SLT ISZERO PUSH2 0x2922 JUMPI PUSH1 0x0 DUP1 REVERT JUMPDEST POP CALLDATALOAD SWAP2 SWAP1 POP JUMP JUMPDEST DUP1 CALLDATALOAD PUSH1 0x1 PUSH1 0x1 PUSH1 0xA0 SHL SUB DUP2 AND DUP2 EQ PUSH2 0x2940 JUMPI PUSH1 0x0 DUP1 REVERT JUMPDEST SWAP2 SWAP1 POP JUMP JUMPDEST PUSH1 0x0 DUP1 PUSH1 0x40 DUP4 DUP6 SUB SLT ISZERO PUSH2 0x2958 JUMPI PUSH1 0x0 DUP1 REVERT JUMPDEST PUSH2 0x2961 DUP4 PUSH2 0x2929 JUMP JUMPDEST SWAP5 PUSH1 0x20 SWAP4 SWAP1 SWAP4 ADD CALLDATALOAD SWAP4 POP POP POP JUMP JUMPDEST PUSH4 0x4E487B71 PUSH1 0xE0 SHL PUSH1 0x0 MSTORE PUSH1 0x41 PUSH1 0x4 MSTORE PUSH1 0x24 PUSH1 0x0 REVERT JUMPDEST PUSH1 0x40 MLOAD PUSH1 0x1F DUP3 ADD PUSH1 0x1F NOT AND DUP2 ADD PUSH8 0xFFFFFFFFFFFFFFFF DUP2 GT DUP3 DUP3 LT OR ISZERO PUSH2 0x29AE JUMPI PUSH2 0x29AE PUSH2 0x296F JUMP JUMPDEST PUSH1 0x40 MSTORE SWAP2 SWAP1 POP JUMP JUMPDEST PUSH1 0x0 DUP1 PUSH1 0x40 DUP4 DUP6 SUB SLT ISZERO PUSH2 0x29C9 JUMPI PUSH1 0x0 DUP1 REVERT JUMPDEST DUP3 CALLDATALOAD SWAP2 POP PUSH1 0x20 DUP1 DUP5 ADD CALLDATALOAD PUSH8 0xFFFFFFFFFFFFFFFF DUP1 DUP3 GT ISZERO PUSH2 0x29E9 JUMPI PUSH1 0x0 DUP1 REVERT JUMPDEST DUP2 DUP7 ADD SWAP2 POP DUP7 PUSH1 0x1F DUP4 ADD SLT PUSH2 0x29FD JUMPI PUSH1 0x0 DUP1 REVERT JUMPDEST DUP2 CALLDATALOAD DUP2 DUP2 GT ISZERO PUSH2 0x2A0F JUMPI PUSH2 0x2A0F PUSH2 0x296F JUMP JUMPDEST DUP1 PUSH1 0x5 SHL SWAP2 POP PUSH2 0x2A20 DUP5 DUP4 ADD PUSH2 0x2985 JUMP JUMPDEST DUP2 DUP2 MSTORE SWAP2 DUP4 ADD DUP5 ADD SWAP2 DUP5 DUP2 ADD SWAP1 DUP10 DUP5 GT ISZERO PUSH2 0x2A3A JUMPI PUSH1 0x0 DUP1 REVERT JUMPDEST SWAP4 DUP6 ADD SWAP4 JUMPDEST DUP4 DUP6 LT ISZERO PUSH2 0x2A58 JUMPI DUP5 CALLDATALOAD DUP3 MSTORE SWAP4 DUP6 ADD SWAP4 SWAP1 DUP6 ADD SWAP1 PUSH2 0x2A3F JUMP JUMPDEST DUP1 SWAP7 POP POP POP POP POP POP POP SWAP3 POP SWAP3 SWAP1 POP JUMP JUMPDEST PUSH1 0x0 DUP1 PUSH1 0x0 PUSH1 0x60 DUP5 DUP7 SUB SLT ISZERO PUSH2 0x2A7D JUMPI PUSH1 0x0 DUP1 REVERT JUMPDEST PUSH2 0x2A86 DUP5 PUSH2 0x2929 JUMP JUMPDEST SWAP3 POP PUSH2 0x2A94 PUSH1 0x20 DUP6 ADD PUSH2 0x2929 JUMP JUMPDEST SWAP2 POP PUSH1 0x40 DUP5 ADD CALLDATALOAD SWAP1 POP SWAP3 POP SWAP3 POP SWAP3 JUMP JUMPDEST PUSH1 0x0 PUSH1 0x80 DUP3 DUP5 SUB SLT ISZERO PUSH2 0x2AB6 JUMPI PUSH1 0x0 DUP1 REVERT JUMPDEST DUP3 PUSH1 0x80 DUP4 ADD GT ISZERO PUSH2 0x2AC6 JUMPI PUSH1 0x0 DUP1 REVERT JUMPDEST POP SWAP2 SWAP1 POP JUMP JUMPDEST PUSH1 0x0 DUP1 PUSH1 0x20 DUP4 DUP6 SUB SLT ISZERO PUSH2 0x2ADF JUMPI PUSH1 0x0 DUP1 REVERT JUMPDEST DUP3 CALLDATALOAD PUSH8 0xFFFFFFFFFFFFFFFF DUP1 DUP3 GT ISZERO PUSH2 0x2AF7 JUMPI PUSH1 0x0 DUP1 REVERT JUMPDEST DUP2 DUP6 ADD SWAP2 POP DUP6 PUSH1 0x1F DUP4 ADD SLT PUSH2 0x2B0B JUMPI PUSH1 0x0 DUP1 REVERT JUMPDEST DUP2 CALLDATALOAD DUP2 DUP2 GT ISZERO PUSH2 0x2B1A JUMPI PUSH1 0x0 DUP1 REVERT JUMPDEST DUP7 PUSH1 0x20 DUP3 DUP6 ADD ADD GT ISZERO PUSH2 0x2B2C JUMPI PUSH1 0x0 DUP1 REVERT JUMPDEST PUSH1 0x20 SWAP3 SWAP1 SWAP3 ADD SWAP7 SWAP2 SWAP6 POP SWAP1 SWAP4 POP POP POP POP JUMP JUMPDEST DUP1 CALLDATALOAD PUSH3 0xFFFFFF DUP2 AND DUP2 EQ PUSH2 0x2940 JUMPI PUSH1 0x0 DUP1 REVERT JUMPDEST PUSH1 0x0 DUP1 PUSH1 0x40 DUP4 DUP6 SUB SLT ISZERO PUSH2 0x2B64 JUMPI PUSH1 0x0 DUP1 REVERT JUMPDEST PUSH2 0x2961 DUP4 PUSH2 0x2B3E JUMP JUMPDEST DUP3 ISZERO ISZERO DUP2 MSTORE PUSH1 0x40 PUSH1 0x20 DUP3 ADD MSTORE PUSH1 0x0 PUSH2 0x2616 PUSH1 0x40 DUP4 ADD DUP5 PUSH2 0x28D1 JUMP JUMPDEST PUSH1 0x0 PUSH1 0x20 DUP3 DUP5 SUB SLT ISZERO PUSH2 0x2B9A JUMPI PUSH1 0x0 DUP1 REVERT JUMPDEST PUSH2 0x10DD DUP3 PUSH2 0x2929 JUMP JUMPDEST DUP1 ISZERO ISZERO DUP2 EQ PUSH2 0xBB5 JUMPI PUSH1 0x0 DUP1 REVERT JUMPDEST PUSH1 0x0 DUP1 PUSH1 0x40 DUP4 DUP6 SUB SLT ISZERO PUSH2 0x2BC4 JUMPI PUSH1 0x0 DUP1 REVERT JUMPDEST PUSH2 0x2BCD DUP4 PUSH2 0x2929 JUMP JUMPDEST SWAP2 POP PUSH1 0x20 DUP4 ADD CALLDATALOAD PUSH2 0x2BDD DUP2 PUSH2 0x2BA3 JUMP JUMPDEST DUP1 SWAP2 POP POP SWAP3 POP SWAP3 SWAP1 POP JUMP JUMPDEST PUSH1 0x0 DUP1 PUSH1 0x0 DUP1 PUSH1 0x80 DUP6 DUP8 SUB SLT ISZERO PUSH2 0x2BFE JUMPI PUSH1 0x0 DUP1 REVERT JUMPDEST PUSH2 0x2C07 DUP6 PUSH2 0x2929 JUMP JUMPDEST SWAP4 POP PUSH1 0x20 PUSH2 0x2C16 DUP2 DUP8 ADD PUSH2 0x2929 JUMP JUMPDEST SWAP4 POP PUSH1 0x40 DUP7 ADD CALLDATALOAD SWAP3 POP PUSH1 0x60 DUP7 ADD CALLDATALOAD PUSH8 0xFFFFFFFFFFFFFFFF DUP1 DUP3 GT ISZERO PUSH2 0x2C3A JUMPI PUSH1 0x0 DUP1 REVERT JUMPDEST DUP2 DUP9 ADD SWAP2 POP DUP9 PUSH1 0x1F DUP4 ADD SLT PUSH2 0x2C4E JUMPI PUSH1 0x0 DUP1 REVERT JUMPDEST DUP2 CALLDATALOAD DUP2 DUP2 GT ISZERO PUSH2 0x2C60 JUMPI PUSH2 0x2C60 PUSH2 0x296F JUMP JUMPDEST PUSH2 0x2C72 PUSH1 0x1F DUP3 ADD PUSH1 0x1F NOT AND DUP6 ADD PUSH2 0x2985 JUMP JUMPDEST SWAP2 POP DUP1 DUP3 MSTORE DUP10 DUP5 DUP3 DUP6 ADD ADD GT ISZERO PUSH2 0x2C88 JUMPI PUSH1 0x0 DUP1 REVERT JUMPDEST DUP1 DUP5 DUP5 ADD DUP6 DUP5 ADD CALLDATACOPY PUSH1 0x0 DUP5 DUP3 DUP5 ADD ADD MSTORE POP DUP1 SWAP4 POP POP POP POP SWAP3 SWAP6 SWAP2 SWAP5 POP SWAP3 POP JUMP JUMPDEST PUSH1 0x0 PUSH1 0x20 DUP3 DUP5 SUB SLT ISZERO PUSH2 0x2CBA JUMPI PUSH1 0x0 DUP1 REVERT JUMPDEST PUSH2 0x10DD DUP3 PUSH2 0x2B3E JUMP JUMPDEST PUSH1 0x0 DUP1 PUSH1 0x40 DUP4 DUP6 SUB SLT ISZERO PUSH2 0x2CD6 JUMPI PUSH1 0x0 DUP1 REVERT JUMPDEST PUSH2 0x2CDF DUP4 PUSH2 0x2929 JUMP JUMPDEST SWAP2 POP PUSH2 0x2CED PUSH1 0x20 DUP5 ADD PUSH2 0x2929 JUMP JUMPDEST SWAP1 POP SWAP3 POP SWAP3 SWAP1 POP JUMP JUMPDEST PUSH1 0x1 DUP2 DUP2 SHR SWAP1 DUP3 AND DUP1 PUSH2 0x2D0A JUMPI PUSH1 0x7F DUP3 AND SWAP2 POP JUMPDEST PUSH1 0x20 DUP3 LT DUP2 SUB PUSH2 0x2AC6 JUMPI PUSH4 0x4E487B71 PUSH1 0xE0 SHL PUSH1 0x0 MSTORE PUSH1 0x22 PUSH1 0x4 MSTORE PUSH1 0x24 PUSH1 0x0 REVERT JUMPDEST PUSH4 0x4E487B71 PUSH1 0xE0 SHL PUSH1 0x0 MSTORE PUSH1 0x32 PUSH1 0x4 MSTORE PUSH1 0x24 PUSH1 0x0 REVERT JUMPDEST PUSH1 0x0 PUSH1 0x20 DUP3 DUP5 SUB SLT ISZERO PUSH2 0x2D52 JUMPI PUSH1 0x0 DUP1 REVERT JUMPDEST DUP2 CALLDATALOAD PUSH1 0xFF DUP2 AND DUP2 EQ PUSH2 0x10DD JUMPI PUSH1 0x0 DUP1 REVERT JUMPDEST PUSH4 0x4E487B71 PUSH1 0xE0 SHL PUSH1 0x0 MSTORE PUSH1 0x11 PUSH1 0x4 MSTORE PUSH1 0x24 PUSH1 0x0 REVERT JUMPDEST PUSH1 0x0 PUSH1 0x1 DUP3 ADD PUSH2 0x2D8B JUMPI PUSH2 0x2D8B PUSH2 0x2D63 JUMP JUMPDEST POP PUSH1 0x1 ADD SWAP1 JUMP JUMPDEST PUSH3 0xFFFFFF DUP2 DUP2 AND DUP4 DUP3 AND ADD SWAP1 DUP1 DUP3 GT ISZERO PUSH2 0x2DAE JUMPI PUSH2 0x2DAE PUSH2 0x2D63 JUMP JUMPDEST POP SWAP3 SWAP2 POP POP JUMP JUMPDEST DUP1 DUP3 ADD DUP1 DUP3 GT ISZERO PUSH2 0x75C JUMPI PUSH2 0x75C PUSH2 0x2D63 JUMP JUMPDEST PUSH1 0x0 DUP4 MLOAD PUSH2 0x2DDA DUP2 DUP5 PUSH1 0x20 DUP9 ADD PUSH2 0x28AD JUMP JUMPDEST DUP4 MLOAD SWAP1 DUP4 ADD SWAP1 PUSH2 0x2DEE DUP2 DUP4 PUSH1 0x20 DUP9 ADD PUSH2 0x28AD JUMP JUMPDEST ADD SWAP5 SWAP4 POP POP POP POP JUMP JUMPDEST PUSH4 0x4E487B71 PUSH1 0xE0 SHL PUSH1 0x0 MSTORE PUSH1 0x12 PUSH1 0x4 MSTORE PUSH1 0x24 PUSH1 0x0 REVERT JUMPDEST PUSH1 0x0 DUP3 PUSH2 0x2E1C JUMPI PUSH2 0x2E1C PUSH2 0x2DF7 JUMP JUMPDEST POP DIV SWAP1 JUMP JUMPDEST DUP2 DUP2 SUB DUP2 DUP2 GT ISZERO PUSH2 0x75C JUMPI PUSH2 0x75C PUSH2 0x2D63 JUMP JUMPDEST PUSH1 0x0 DUP3 PUSH2 0x2E43 JUMPI PUSH2 0x2E43 PUSH2 0x2DF7 JUMP JUMPDEST POP MOD SWAP1 JUMP JUMPDEST DUP1 DUP3 MUL DUP2 ISZERO DUP3 DUP3 DIV DUP5 EQ OR PUSH2 0x75C JUMPI PUSH2 0x75C PUSH2 0x2D63 JUMP JUMPDEST PUSH1 0x0 PUSH1 0x20 DUP3 DUP5 SUB SLT ISZERO PUSH2 0x2E71 JUMPI PUSH1 0x0 DUP1 REVERT JUMPDEST POP MLOAD SWAP2 SWAP1 POP JUMP JUMPDEST PUSH1 0x0 PUSH4 0xFFFFFFFF DUP1 DUP4 AND DUP2 DUP2 SUB PUSH2 0x2E91 JUMPI PUSH2 0x2E91 PUSH2 0x2D63 JUMP JUMPDEST PUSH1 0x1 ADD SWAP4 SWAP3 POP POP POP JUMP JUMPDEST PUSH1 0x1 PUSH1 0x1 PUSH1 0xA0 SHL SUB DUP6 DUP2 AND DUP3 MSTORE DUP5 AND PUSH1 0x20 DUP3 ADD MSTORE PUSH1 0x40 DUP2 ADD DUP4 SWAP1 MSTORE PUSH1 0x80 PUSH1 0x60 DUP3 ADD DUP2 SWAP1 MSTORE PUSH1 0x0 SWAP1 PUSH2 0x2724 SWAP1 DUP4 ADD DUP5 PUSH2 0x28D1 JUMP JUMPDEST PUSH1 0x0 PUSH1 0x20 DUP3 DUP5 SUB SLT ISZERO PUSH2 0x2EE0 JUMPI PUSH1 0x0 DUP1 REVERT JUMPDEST DUP2 MLOAD PUSH2 0x10DD DUP2 PUSH2 0x287A JUMP JUMPDEST PUSH1 0x0 PUSH1 0x20 DUP3 DUP5 SUB SLT ISZERO PUSH2 0x2EFD JUMPI PUSH1 0x0 DUP1 REVERT JUMPDEST DUP2 MLOAD PUSH2 0x10DD DUP2 PUSH2 0x2BA3 JUMP JUMPDEST PUSH1 0x0 DUP3 MLOAD PUSH2 0x2F1A DUP2 DUP5 PUSH1 0x20 DUP8 ADD PUSH2 0x28AD JUMP JUMPDEST SWAP2 SWAP1 SWAP2 ADD SWAP3 SWAP2 POP POP JUMP INVALID LOG2 PUSH5 0x6970667358 0x22 SLT KECCAK256 0xE8 SMOD EQ 0xF8 RETURNDATASIZE 0xC SAR JUMP AND POP GAS 0xCD 0xC8 0xC8 OR 0xDB 0x25 0x2C DUP8 SWAP16 0x22 STATICCALL PUSH28 0x8B8DDEB1A24BBF466864736F6C634300081400330000000000000000 "},"methodIdentifiers":{"VRF_CALLBACK_GAS_LIMIT()":"d01ed8a3","VRF_CONFIRMATIONS()":"40985c98","VRF_NUM_WORDS()":"5c900a1a","approve(address,uint256)":"095ea7b3","automationActive()":"6baf4a74","balanceOf(address)":"70a08231","buyTicket(uint8[4])":"3d4962ed","checkUpkeep(bytes)":"6e04ff0d","claimPrize(uint256)":"d7098154","currentGameDay()":"0d50cdb9","dailyDrawHourUTC()":"8d6ef595","dayResults(uint24)":"d96226a2","emergencyPause()":"51858e27","getApproved(uint256)":"081812fc","isApprovedForAll(address,address)":"e985e9c5","name()":"06fdde03","nextDrawTs()":"c8d51919","owner()":"8da5cb5b","ownerOf(uint256)":"6352211e","paymentToken()":"3013ce29","performUpkeep(bytes)":"4585e33b","pools()":"c5c51dca","processDrawBatch(uint24,uint256)":"5d58f930","rawFulfillRandomWords(uint256,uint256[])":"1fe543e3","renounceOwnership()":"715018a6","safeTransferFrom(address,address,uint256)":"42842e0e","safeTransferFrom(address,address,uint256,bytes)":"b88d4fde","setApprovalForAll(address,bool)":"a22cb465","supportsInterface(bytes4)":"01ffc9a7","symbol()":"95d89b41","ticketPrice()":"1209b1f6","tickets(uint256)":"50b44712","toggleAutomation()":"4f687e91","toggleEmergencyPause()":"147e291f","tokenURI(uint256)":"c87b56dd","transferFrom(address,address,uint256)":"23b872dd","transferOwnership(address)":"f2fde38b","vrfKeyHash()":"041d443e","vrfSubId()":"32615640","withdrawDevelopment(address)":"e8cfbe69"}}}}}