{"contracts/LottoMojiCore.sol":{"LottoMojiCore":{"abi":[{"inputs":[{"internalType":"address","name":"_usdcAddress","type":"address"},{"internalType":"uint256","name":"_subscriptionId","type":"uint256"}],"stateMutability":"nonpayable","type":"constructor"},{"inputs":[],"name":"ERC721EnumerableForbiddenBatchMint","type":"error"},{"inputs":[{"internalType":"address","name":"sender","type":"address"},{"internalType":"uint256","name":"tokenId","type":"uint256"},{"internalType":"address","name":"owner","type":"address"}],"name":"ERC721IncorrectOwner","type":"error"},{"inputs":[{"internalType":"address","name":"operator","type":"address"},{"internalType":"uint256","name":"tokenId","type":"uint256"}],"name":"ERC721InsufficientApproval","type":"error"},{"inputs":[{"internalType":"address","name":"approver","type":"address"}],"name":"ERC721InvalidApprover","type":"error"},{"inputs":[{"internalType":"address","name":"operator","type":"address"}],"name":"ERC721InvalidOperator","type":"error"},{"inputs":[{"internalType":"address","name":"owner","type":"address"}],"name":"ERC721InvalidOwner","type":"error"},{"inputs":[{"internalType":"address","name":"receiver","type":"address"}],"name":"ERC721InvalidReceiver","type":"error"},{"inputs":[{"internalType":"address","name":"sender","type":"address"}],"name":"ERC721InvalidSender","type":"error"},{"inputs":[{"internalType":"uint256","name":"tokenId","type":"uint256"}],"name":"ERC721NonexistentToken","type":"error"},{"inputs":[{"internalType":"address","name":"owner","type":"address"},{"internalType":"uint256","name":"index","type":"uint256"}],"name":"ERC721OutOfBoundsIndex","type":"error"},{"inputs":[{"internalType":"address","name":"have","type":"address"},{"internalType":"address","name":"want","type":"address"}],"name":"OnlyCoordinatorCanFulfill","type":"error"},{"inputs":[{"internalType":"address","name":"have","type":"address"},{"internalType":"address","name":"owner","type":"address"},{"internalType":"address","name":"coordinator","type":"address"}],"name":"OnlyOwnerOrCoordinator","type":"error"},{"inputs":[],"name":"ReentrancyGuardReentrantCall","type":"error"},{"inputs":[],"name":"ZeroAddress","type":"error"},{"anonymous":false,"inputs":[{"indexed":true,"internalType":"address","name":"owner","type":"address"},{"indexed":true,"internalType":"address","name":"approved","type":"address"},{"indexed":true,"internalType":"uint256","name":"tokenId","type":"uint256"}],"name":"Approval","type":"event"},{"anonymous":false,"inputs":[{"indexed":true,"internalType":"address","name":"owner","type":"address"},{"indexed":true,"internalType":"address","name":"operator","type":"address"},{"indexed":false,"internalType":"bool","name":"approved","type":"bool"}],"name":"ApprovalForAll","type":"event"},{"anonymous":false,"inputs":[{"indexed":false,"internalType":"address","name":"vrfCoordinator","type":"address"}],"name":"CoordinatorSet","type":"event"},{"anonymous":false,"inputs":[{"indexed":true,"internalType":"uint256","name":"round","type":"uint256"},{"indexed":false,"internalType":"uint8[4]","name":"winningEmojis","type":"uint8[4]"}],"name":"DrawCompleted","type":"event"},{"anonymous":false,"inputs":[{"indexed":true,"internalType":"address","name":"from","type":"address"},{"indexed":true,"internalType":"address","name":"to","type":"address"}],"name":"OwnershipTransferRequested","type":"event"},{"anonymous":false,"inputs":[{"indexed":true,"internalType":"address","name":"from","type":"address"},{"indexed":true,"internalType":"address","name":"to","type":"address"}],"name":"OwnershipTransferred","type":"event"},{"anonymous":false,"inputs":[{"indexed":true,"internalType":"address","name":"player","type":"address"},{"indexed":true,"internalType":"uint256","name":"tokenId","type":"uint256"},{"indexed":false,"internalType":"uint8[4]","name":"emojis","type":"uint8[4]"}],"name":"TicketMinted","type":"event"},{"anonymous":false,"inputs":[{"indexed":true,"internalType":"address","name":"from","type":"address"},{"indexed":true,"internalType":"address","name":"to","type":"address"},{"indexed":true,"internalType":"uint256","name":"tokenId","type":"uint256"}],"name":"Transfer","type":"event"},{"inputs":[],"name":"TICKET_PRICE","outputs":[{"internalType":"uint256","name":"","type":"uint256"}],"stateMutability":"view","type":"function"},{"inputs":[],"name":"acceptOwnership","outputs":[],"stateMutability":"nonpayable","type":"function"},{"inputs":[{"internalType":"address","name":"to","type":"address"},{"internalType":"uint256","name":"tokenId","type":"uint256"}],"name":"approve","outputs":[],"stateMutability":"nonpayable","type":"function"},{"inputs":[],"name":"automationActive","outputs":[{"internalType":"bool","name":"","type":"bool"}],"stateMutability":"view","type":"function"},{"inputs":[{"internalType":"address","name":"owner","type":"address"}],"name":"balanceOf","outputs":[{"internalType":"uint256","name":"","type":"uint256"}],"stateMutability":"view","type":"function"},{"inputs":[{"internalType":"bytes","name":"","type":"bytes"}],"name":"checkUpkeep","outputs":[{"internalType":"bool","name":"upkeepNeeded","type":"bool"},{"internalType":"bytes","name":"","type":"bytes"}],"stateMutability":"view","type":"function"},{"inputs":[{"internalType":"uint256","name":"tokenId","type":"uint256"}],"name":"getApproved","outputs":[{"internalType":"address","name":"","type":"address"}],"stateMutability":"view","type":"function"},{"inputs":[{"internalType":"address","name":"owner","type":"address"},{"internalType":"address","name":"operator","type":"address"}],"name":"isApprovedForAll","outputs":[{"internalType":"bool","name":"","type":"bool"}],"stateMutability":"view","type":"function"},{"inputs":[],"name":"lastDrawTime","outputs":[{"internalType":"uint256","name":"","type":"uint256"}],"stateMutability":"view","type":"function"},{"inputs":[{"internalType":"uint8[4]","name":"emojis","type":"uint8[4]"}],"name":"mint","outputs":[],"stateMutability":"nonpayable","type":"function"},{"inputs":[],"name":"name","outputs":[{"internalType":"string","name":"","type":"string"}],"stateMutability":"view","type":"function"},{"inputs":[],"name":"owner","outputs":[{"internalType":"address","name":"","type":"address"}],"stateMutability":"view","type":"function"},{"inputs":[{"internalType":"uint256","name":"tokenId","type":"uint256"}],"name":"ownerOf","outputs":[{"internalType":"address","name":"","type":"address"}],"stateMutability":"view","type":"function"},{"inputs":[{"internalType":"bytes","name":"","type":"bytes"}],"name":"performUpkeep","outputs":[],"stateMutability":"nonpayable","type":"function"},{"inputs":[{"internalType":"uint256","name":"requestId","type":"uint256"},{"internalType":"uint256[]","name":"randomWords","type":"uint256[]"}],"name":"rawFulfillRandomWords","outputs":[],"stateMutability":"nonpayable","type":"function"},{"inputs":[{"internalType":"uint256","name":"","type":"uint256"},{"internalType":"uint256","name":"","type":"uint256"}],"name":"roundWinners","outputs":[{"internalType":"uint8","name":"","type":"uint8"}],"stateMutability":"view","type":"function"},{"inputs":[],"name":"s_vrfCoordinator","outputs":[{"internalType":"contract IVRFCoordinatorV2Plus","name":"","type":"address"}],"stateMutability":"view","type":"function"},{"inputs":[{"internalType":"address","name":"from","type":"address"},{"internalType":"address","name":"to","type":"address"},{"internalType":"uint256","name":"tokenId","type":"uint256"}],"name":"safeTransferFrom","outputs":[],"stateMutability":"nonpayable","type":"function"},{"inputs":[{"internalType":"address","name":"from","type":"address"},{"internalType":"address","name":"to","type":"address"},{"internalType":"uint256","name":"tokenId","type":"uint256"},{"internalType":"bytes","name":"data","type":"bytes"}],"name":"safeTransferFrom","outputs":[],"stateMutability":"nonpayable","type":"function"},{"inputs":[{"internalType":"address","name":"operator","type":"address"},{"internalType":"bool","name":"approved","type":"bool"}],"name":"setApprovalForAll","outputs":[],"stateMutability":"nonpayable","type":"function"},{"inputs":[{"internalType":"address","name":"_vrfCoordinator","type":"address"}],"name":"setCoordinator","outputs":[],"stateMutability":"nonpayable","type":"function"},{"inputs":[{"internalType":"bytes4","name":"interfaceId","type":"bytes4"}],"name":"supportsInterface","outputs":[{"internalType":"bool","name":"","type":"bool"}],"stateMutability":"view","type":"function"},{"inputs":[],"name":"symbol","outputs":[{"internalType":"string","name":"","type":"string"}],"stateMutability":"view","type":"function"},{"inputs":[{"internalType":"uint256","name":"","type":"uint256"},{"internalType":"uint256","name":"","type":"uint256"}],"name":"ticketEmojis","outputs":[{"internalType":"uint8","name":"","type":"uint8"}],"stateMutability":"view","type":"function"},{"inputs":[{"internalType":"uint256","name":"index","type":"uint256"}],"name":"tokenByIndex","outputs":[{"internalType":"uint256","name":"","type":"uint256"}],"stateMutability":"view","type":"function"},{"inputs":[{"internalType":"address","name":"owner","type":"address"},{"internalType":"uint256","name":"index","type":"uint256"}],"name":"tokenOfOwnerByIndex","outputs":[{"internalType":"uint256","name":"","type":"uint256"}],"stateMutability":"view","type":"function"},{"inputs":[{"internalType":"uint256","name":"tokenId","type":"uint256"}],"name":"tokenURI","outputs":[{"internalType":"string","name":"","type":"string"}],"stateMutability":"view","type":"function"},{"inputs":[],"name":"totalDrawsExecuted","outputs":[{"internalType":"uint256","name":"","type":"uint256"}],"stateMutability":"view","type":"function"},{"inputs":[],"name":"totalSupply","outputs":[{"internalType":"uint256","name":"","type":"uint256"}],"stateMutability":"view","type":"function"},{"inputs":[{"internalType":"address","name":"from","type":"address"},{"internalType":"address","name":"to","type":"address"},{"internalType":"uint256","name":"tokenId","type":"uint256"}],"name":"transferFrom","outputs":[],"stateMutability":"nonpayable","type":"function"},{"inputs":[{"internalType":"address","name":"to","type":"address"}],"name":"transferOwnership","outputs":[],"stateMutability":"nonpayable","type":"function"},{"inputs":[],"name":"usdc","outputs":[{"internalType":"contract IERC20","name":"","type":"address"}],"stateMutability":"view","type":"function"}],"evm":{"bytecode":{"linkReferences":{},"object":"60e06040526010805460ff191660011790553480156200001e57600080fd5b506040516200260538038062002605833981016040819052620000419162000277565b735c210ef41cd1a72de73bf76ec39637bb0d3d7bee338060006040518060400160405280601081526020016f131bdd1d1bd35bda9a48151a58dad95d60821b815250604051806040016040528060058152602001644c4d4f4a4960d81b8152508160009081620000b2919062000358565b506001620000c1828262000358565b5050506001600160a01b038216620001205760405162461bcd60e51b815260206004820152601860248201527f43616e6e6f7420736574206f776e657220746f207a65726f000000000000000060448201526064015b60405180910390fd5b600a80546001600160a01b0319166001600160a01b038481169190911790915581161562000153576200015381620001cb565b5050506001600160a01b0381166200017e5760405163d92e233d60e01b815260040160405180910390fd5b600c80546001600160a01b0319166001600160a01b039283161790556001600d55735c210ef41cd1a72de73bf76ec39637bb0d3d7bee6080529190911660c05260a05242600e5562000424565b336001600160a01b03821603620002255760405162461bcd60e51b815260206004820152601760248201527f43616e6e6f74207472616e7366657220746f2073656c66000000000000000000604482015260640162000117565b600b80546001600160a01b0319166001600160a01b03838116918217909255600a54604051919216907fed8889f560326eb138920d842192f0eb3dd22b4f139c87a2c57538e05bae127890600090a350565b600080604083850312156200028b57600080fd5b82516001600160a01b0381168114620002a357600080fd5b6020939093015192949293505050565b634e487b7160e01b600052604160045260246000fd5b600181811c90821680620002de57607f821691505b602082108103620002ff57634e487b7160e01b600052602260045260246000fd5b50919050565b601f8211156200035357600081815260208120601f850160051c810160208610156200032e5750805b601f850160051c820191505b818110156200034f578281556001016200033a565b5050505b505050565b81516001600160401b03811115620003745762000374620002b3565b6200038c81620003858454620002c9565b8462000305565b602080601f831160018114620003c45760008415620003ab5750858301515b600019600386901b1c1916600185901b1785556200034f565b600085815260208120601f198616915b82811015620003f557888601518255948401946001909101908401620003d4565b5085821015620004145787850151600019600388901b60f8161c191681555b5050505050600190811b01905550565b60805160a05160c0516121aa6200045b600039600081816102f101526107f301526000610e0d01526000610e8301526121aa6000f3fe608060405234801561001057600080fd5b50600436106101f05760003560e01c80636352211e1161010f57806395d89b41116100a2578063c87b56dd11610071578063c87b56dd14610432578063e985e9c514610445578063ea666aa514610458578063f2fde38b1461046b57600080fd5b806395d89b41146103f15780639eccacf6146103f9578063a22cb4651461040c578063b88d4fde1461041f57600080fd5b806370a08231116100de57806370a08231146103b257806379ba5097146103c55780638da5cb5b146103cd5780638ea98117146103de57600080fd5b80636352211e1461035e578063673707cd146103715780636baf4a74146103845780636e04ff0d1461039157600080fd5b806323b872dd116101875780634585e33b116101565780634585e33b146103265780634f6ccce71461033957806350152c4c1461034c5780635cbbd6351461035557600080fd5b806323b872dd146102c65780632f745c59146102d95780633e413bee146102ec57806342842e0e1461031357600080fd5b8063095ea7b3116101c3578063095ea7b31461028257806318160ddd146102975780631a95f15f146102a95780631fe543e3146102b357600080fd5b806301ffc9a7146101f557806303e3cd6a1461021d57806306fdde0314610242578063081812fc14610257575b600080fd5b610208610203366004611aad565b61047e565b60405190151581526020015b60405180910390f35b61023061022b366004611ad1565b61048f565b60405160ff9091168152602001610214565b61024a6104c8565b6040516102149190611b43565b61026a610265366004611b56565b61055a565b6040516001600160a01b039091168152602001610214565b610295610290366004611b8b565b610583565b005b6008545b604051908152602001610214565b61029b621e848081565b6102956102c1366004611bb5565b610592565b6102956102d4366004611c34565b6105e7565b61029b6102e7366004611b8b565b610672565b61026a7f000000000000000000000000000000000000000000000000000000000000000081565b610295610321366004611c34565b6106d7565b610295610334366004611c70565b6106f2565b61029b610347366004611b56565b610763565b61029b600f5481565b61029b600e5481565b61026a61036c366004611b56565b6107bc565b61029561037f366004611d29565b6107c7565b6010546102089060ff1681565b6103a461039f366004611c70565b610932565b604051610214929190611db7565b61029b6103c0366004611dd2565b610973565b6102956109bb565b600a546001600160a01b031661026a565b6102956103ec366004611dd2565b610a69565b61024a610b5b565b600c5461026a906001600160a01b031681565b61029561041a366004611dfb565b610b6a565b61029561042d366004611e32565b610b75565b61024a610440366004611b56565b610b8c565b610208610453366004611ef2565b610c19565b610230610466366004611ad1565b610c47565b610295610479366004611dd2565b610c63565b600061048982610c74565b92915050565b601260205281600052604060002081600481106104ab57600080fd5b602081049091015460ff601f9092166101000a9004169150829050565b6060600080546104d790611f25565b80601f016020809104026020016040519081016040528092919081815260200182805461050390611f25565b80156105505780601f1061052557610100808354040283529160200191610550565b820191906000526020600020905b81548152906001019060200180831161053357829003601f168201915b5050505050905090565b600061056582610c99565b506000828152600460205260409020546001600160a01b0316610489565b61058e828233610cd2565b5050565b600c546001600160a01b031633146105d757600c5460405163073e64fd60e21b81523360048201526001600160a01b0390911660248201526044015b60405180910390fd5b6105e2838383610cdf565b505050565b6001600160a01b03821661061157604051633250574960e11b8152600060048201526024016105ce565b600061061e838333610dc9565b9050836001600160a01b0316816001600160a01b03161461066c576040516364283d7b60e01b81526001600160a01b03808616600483015260248201849052821660448201526064016105ce565b50505050565b600061067d83610973565b82106106ae5760405163295f44f760e21b81526001600160a01b0384166004820152602481018390526044016105ce565b506001600160a01b03919091166000908152600660209081526040808320938352929052205490565b6105e283838360405180602001604052806000815250610b75565b60105460ff1680156107135750600e5461070f9062015180611f75565b4210155b6107535760405162461bcd60e51b8152602060048201526011602482015270155c1ad9595c081b9bdd081b9959591959607a1b60448201526064016105ce565b61075b610dde565b505042600e55565b600061076e60085490565b82106107975760405163295f44f760e21b815260006004820152602481018390526044016105ce565b600882815481106107aa576107aa611f88565b90600052602060002001549050919050565b600061048982610c99565b6107cf610efb565b6040516323b872dd60e01b8152336004820152306024820152621e848060448201527f00000000000000000000000000000000000000000000000000000000000000006001600160a01b0316906323b872dd906064016020604051808303816000875af1158015610844573d6000803e3d6000fd5b505050506040513d601f19601f820116820180604052508101906108689190611f9e565b6108a65760405162461bcd60e51b815260206004820152600f60248201526e151c985b9cd9995c8819985a5b1959608a1b60448201526064016105ce565b60138054600091826108b783611fbb565b9190505590506108c73382610f25565b60008181526011602052604090206108e1908360046119d1565b5080336001600160a01b03167f54b464752e2bd51cd0b4c6945d99b6db2088872f903c43bb24fe4f9aee75adb08460405161091c9190611fd4565b60405180910390a35061092f6001600d55565b50565b60105460009060609060ff1680156109595750600e546109559062015180611f75565b4210155b604080516020810190915260008152909590945092505050565b60006001600160a01b03821661099f576040516322718ad960e21b8152600060048201526024016105ce565b506001600160a01b031660009081526003602052604090205490565b600b546001600160a01b03163314610a0e5760405162461bcd60e51b815260206004820152601660248201527526bab9ba10313290383937b837b9b2b21037bbb732b960511b60448201526064016105ce565b600a80546001600160a01b031980821633908117909355600b805490911690556040516001600160a01b03909116919082907f8be0079c531659141344cd1fd0a4f28419497f9722a3daafe3b4186f6b6457e090600090a350565b600a546001600160a01b03163314801590610a8f5750600c546001600160a01b03163314155b15610ae05733610aa7600a546001600160a01b031690565b600c5460405163061db9c160e01b81526001600160a01b03938416600482015291831660248301529190911660448201526064016105ce565b6001600160a01b038116610b075760405163d92e233d60e01b815260040160405180910390fd5b600c80546001600160a01b0319166001600160a01b0383169081179091556040519081527fd1a6a14209a385a964d036e404cb5cfb71f4000cdb03c9366292430787261be69060200160405180910390a150565b6060600180546104d790611f25565b61058e338383610f3f565b610b808484846105e7565b61066c84848484610fde565b6000818152600260205260409020546060906001600160a01b0316610bea5760405162461bcd60e51b8152602060048201526014602482015273151bdad95b88191bd95cc81b9bdd08195e1a5cdd60621b60448201526064016105ce565b610bf382611107565b604051602001610c039190612008565b6040516020818303038152906040529050919050565b6001600160a01b03918216600090815260056020908152604080832093909416825291909152205460ff1690565b601160205281600052604060002081600481106104ab57600080fd5b610c6b61119a565b61092f816111ef565b60006001600160e01b0319821663780e9d6360e01b1480610489575061048982611299565b6000818152600260205260408120546001600160a01b03168061048957604051637e27328960e01b8152600481018490526024016105ce565b6105e283838360016112e9565b610ce7611a64565b60005b6004811015610d49576019848483818110610d0757610d07611f88565b90506020020135610d189190612059565b828260048110610d2a57610d2a611f88565b60ff909216602092909202015280610d4181611fbb565b915050610cea565b50600f546000908152601260205260409020610d67908260046119d1565b50600f8054906000610d7883611fbb565b91905055506001600f54610d8c919061207b565b7f382e6c48726d03bdc1a6d1041aaf7d3a1c1586814a33d39e5985460a31bb861582604051610dbb9190611fd4565b60405180910390a250505050565b6000610dd68484846113ef565b949350505050565b6040805160c0810182527f9e1344a1247c8a1785d0a4681a27152bffdb43666ae5bf7d14d24a5efd44bf7181527f0000000000000000000000000000000000000000000000000000000000000000602080830191909152600382840152622625a0606083015260046080830152825190810190925260008083529160a0820190610e67906114bc565b9052604051634d8e1c2f60e11b81529091506001600160a01b037f00000000000000000000000000000000000000000000000000000000000000001690639b1c385e90610eb890849060040161208e565b6020604051808303816000875af1158015610ed7573d6000803e3d6000fd5b505050506040513d601f19601f8201168201806040525081019061058e91906120eb565b6002600d5403610f1e57604051633ee5aeb560e01b815260040160405180910390fd5b6002600d55565b61058e82826040518060200160405280600081525061152d565b6001600160a01b038216610f7157604051630b61174360e31b81526001600160a01b03831660048201526024016105ce565b6001600160a01b03838116600081815260056020908152604080832094871680845294825291829020805460ff191686151590811790915591519182527f17307eab39ab6107e8899845ad3d59bd9653f200f220920489ca2b5937696c31910160405180910390a3505050565b6001600160a01b0383163b1561066c57604051630a85bd0160e11b81526001600160a01b0384169063150b7a0290611020903390889087908790600401612104565b6020604051808303816000875af192505050801561105b575060408051601f3d908101601f1916820190925261105891810190612141565b60015b6110c4573d808015611089576040519150601f19603f3d011682016040523d82523d6000602084013e61108e565b606091505b5080516000036110bc57604051633250574960e11b81526001600160a01b03851660048201526024016105ce565b805181602001fd5b6001600160e01b03198116630a85bd0160e11b1461110057604051633250574960e11b81526001600160a01b03851660048201526024016105ce565b5050505050565b6060600061111483611544565b600101905060008167ffffffffffffffff81111561113457611134611ce2565b6040519080825280601f01601f19166020018201604052801561115e576020820181803683370190505b5090508181016020015b600019016f181899199a1a9b1b9c1cb0b131b232b360811b600a86061a8153600a850494508461116857509392505050565b600a546001600160a01b031633146111ed5760405162461bcd60e51b815260206004820152601660248201527527b7363c9031b0b63630b1363290313c9037bbb732b960511b60448201526064016105ce565b565b336001600160a01b038216036112475760405162461bcd60e51b815260206004820152601760248201527f43616e6e6f74207472616e7366657220746f2073656c6600000000000000000060448201526064016105ce565b600b80546001600160a01b0319166001600160a01b03838116918217909255600a54604051919216907fed8889f560326eb138920d842192f0eb3dd22b4f139c87a2c57538e05bae127890600090a350565b60006001600160e01b031982166380ac58cd60e01b14806112ca57506001600160e01b03198216635b5e139f60e01b145b8061048957506301ffc9a760e01b6001600160e01b0319831614610489565b80806112fd57506001600160a01b03821615155b156113bf57600061130d84610c99565b90506001600160a01b038316158015906113395750826001600160a01b0316816001600160a01b031614155b801561134c575061134a8184610c19565b155b156113755760405163a9fbf51f60e01b81526001600160a01b03841660048201526024016105ce565b81156113bd5783856001600160a01b0316826001600160a01b03167f8c5be1e5ebec7d5bd14f71427d1e84f3dd0314c0f7b2291e5b200ac8c7c3b92560405160405180910390a45b505b5050600090815260046020526040902080546001600160a01b0319166001600160a01b0392909216919091179055565b6000806113fd85858561161c565b90506001600160a01b03811661145a5761145584600880546000838152600960205260408120829055600182018355919091527ff3f7a9fe364faab93b216da50a3214154f22a0a2b415b23a84c8169e8b636ee30155565b61147d565b846001600160a01b0316816001600160a01b03161461147d5761147d8185611715565b6001600160a01b03851661149957611494846117a6565b610dd6565b846001600160a01b0316816001600160a01b031614610dd657610dd68585611855565b60607f92fd13387c7fe7befbc38d303d6468778fb9731bc4583f17d92989c6fcfdeaaa826040516024016114f591511515815260200190565b60408051601f198184030181529190526020810180516001600160e01b03166001600160e01b03199093169290921790915292915050565b61153783836118a5565b6105e26000848484610fde565b60008072184f03e93ff9f4daa797ed6e38ed64bf6a1f0160401b83106115835772184f03e93ff9f4daa797ed6e38ed64bf6a1f0160401b830492506040015b6d04ee2d6d415b85acef810000000083106115af576d04ee2d6d415b85acef8100000000830492506020015b662386f26fc1000083106115cd57662386f26fc10000830492506010015b6305f5e10083106115e5576305f5e100830492506008015b61271083106115f957612710830492506004015b6064831061160b576064830492506002015b600a83106104895760010192915050565b6000828152600260205260408120546001600160a01b03908116908316156116495761164981848661190a565b6001600160a01b03811615611687576116666000856000806112e9565b6001600160a01b038116600090815260036020526040902080546000190190555b6001600160a01b038516156116b6576001600160a01b0385166000908152600360205260409020805460010190555b60008481526002602052604080822080546001600160a01b0319166001600160a01b0389811691821790925591518793918516917fddf252ad1be2c89b69c2b068fc378daa952ba7f163c4a11628f55a4df523b3ef91a4949350505050565b600061172083610973565b600083815260076020526040902054909150808214611773576001600160a01b03841660009081526006602090815260408083208584528252808320548484528184208190558352600790915290208190555b5060009182526007602090815260408084208490556001600160a01b039094168352600681528383209183525290812055565b6008546000906117b89060019061207b565b600083815260096020526040812054600880549394509092849081106117e0576117e0611f88565b90600052602060002001549050806008838154811061180157611801611f88565b60009182526020808320909101929092558281526009909152604080822084905585825281205560088054806118395761183961215e565b6001900381819060005260206000200160009055905550505050565b6000600161186284610973565b61186c919061207b565b6001600160a01b039093166000908152600660209081526040808320868452825280832085905593825260079052919091209190915550565b6001600160a01b0382166118cf57604051633250574960e11b8152600060048201526024016105ce565b60006118dd83836000610dc9565b90506001600160a01b038116156105e2576040516339e3563760e11b8152600060048201526024016105ce565b61191583838361196e565b6105e2576001600160a01b03831661194357604051637e27328960e01b8152600481018290526024016105ce565b60405163177e802f60e01b81526001600160a01b0383166004820152602481018290526044016105ce565b60006001600160a01b03831615801590610dd65750826001600160a01b0316846001600160a01b031614806119a857506119a88484610c19565b80610dd65750506000908152600460205260409020546001600160a01b03908116911614919050565b600183019183908215611a545791602002820160005b83821115611a2557835183826101000a81548160ff021916908360ff16021790555092602001926001016020816000010492830192600103026119e7565b8015611a525782816101000a81549060ff0219169055600101602081600001049283019260010302611a25565b505b50611a60929150611a82565b5090565b60405180608001604052806004906020820280368337509192915050565b5b80821115611a605760008155600101611a83565b6001600160e01b03198116811461092f57600080fd5b600060208284031215611abf57600080fd5b8135611aca81611a97565b9392505050565b60008060408385031215611ae457600080fd5b50508035926020909101359150565b60005b83811015611b0e578181015183820152602001611af6565b50506000910152565b60008151808452611b2f816020860160208601611af3565b601f01601f19169290920160200192915050565b602081526000611aca6020830184611b17565b600060208284031215611b6857600080fd5b5035919050565b80356001600160a01b0381168114611b8657600080fd5b919050565b60008060408385031215611b9e57600080fd5b611ba783611b6f565b946020939093013593505050565b600080600060408486031215611bca57600080fd5b83359250602084013567ffffffffffffffff80821115611be957600080fd5b818601915086601f830112611bfd57600080fd5b813581811115611c0c57600080fd5b8760208260051b8501011115611c2157600080fd5b6020830194508093505050509250925092565b600080600060608486031215611c4957600080fd5b611c5284611b6f565b9250611c6060208501611b6f565b9150604084013590509250925092565b60008060208385031215611c8357600080fd5b823567ffffffffffffffff80821115611c9b57600080fd5b818501915085601f830112611caf57600080fd5b813581811115611cbe57600080fd5b866020828501011115611cd057600080fd5b60209290920196919550909350505050565b634e487b7160e01b600052604160045260246000fd5b604051601f8201601f1916810167ffffffffffffffff81118282101715611d2157611d21611ce2565b604052919050565b600060808284031215611d3b57600080fd5b82601f830112611d4a57600080fd5b6040516080810181811067ffffffffffffffff82111715611d6d57611d6d611ce2565b604052806080840185811115611d8257600080fd5b845b81811015611dac57803560ff81168114611d9e5760008081fd5b835260209283019201611d84565b509195945050505050565b8215158152604060208201526000610dd66040830184611b17565b600060208284031215611de457600080fd5b611aca82611b6f565b801515811461092f57600080fd5b60008060408385031215611e0e57600080fd5b611e1783611b6f565b91506020830135611e2781611ded565b809150509250929050565b60008060008060808587031215611e4857600080fd5b611e5185611b6f565b93506020611e60818701611b6f565b935060408601359250606086013567ffffffffffffffff80821115611e8457600080fd5b818801915088601f830112611e9857600080fd5b813581811115611eaa57611eaa611ce2565b611ebc601f8201601f19168501611cf8565b91508082528984828501011115611ed257600080fd5b808484018584013760008482840101525080935050505092959194509250565b60008060408385031215611f0557600080fd5b611f0e83611b6f565b9150611f1c60208401611b6f565b90509250929050565b600181811c90821680611f3957607f821691505b602082108103611f5957634e487b7160e01b600052602260045260246000fd5b50919050565b634e487b7160e01b600052601160045260246000fd5b8082018082111561048957610489611f5f565b634e487b7160e01b600052603260045260246000fd5b600060208284031215611fb057600080fd5b8151611aca81611ded565b600060018201611fcd57611fcd611f5f565b5060010190565b60808101818360005b6004811015611fff57815160ff16835260209283019290910190600101611fdd565b50505092915050565b7f68747470733a2f2f6c6f74746f6d6f6a692e636f6d2f6170692f6d657461646181526274612f60e81b60208201526000825161204c816023850160208701611af3565b9190910160230192915050565b60008261207657634e487b7160e01b600052601260045260246000fd5b500690565b8181038181111561048957610489611f5f565b60208152815160208201526020820151604082015261ffff60408301511660608201526000606083015163ffffffff80821660808501528060808601511660a0850152505060a083015160c080840152610dd660e0840182611b17565b6000602082840312156120fd57600080fd5b5051919050565b6001600160a01b038581168252841660208201526040810183905260806060820181905260009061213790830184611b17565b9695505050505050565b60006020828403121561215357600080fd5b8151611aca81611a97565b634e487b7160e01b600052603160045260246000fdfea2646970667358221220e289bddf6a970ff6a79c4fcc2433831670ee45352e507adde82fcda0d8b83e9064736f6c63430008140033","opcodes":"PUSH1 0xE0 PUSH1 0x40 MSTORE PUSH1 0x10 DUP1 SLOAD PUSH1 0xFF NOT AND PUSH1 0x1 OR SWAP1 SSTORE CALLVALUE DUP1 ISZERO PUSH3 0x1E JUMPI PUSH1 0x0 DUP1 REVERT JUMPDEST POP PUSH1 0x40 MLOAD PUSH3 0x2605 CODESIZE SUB DUP1 PUSH3 0x2605 DUP4 CODECOPY DUP2 ADD PUSH1 0x40 DUP2 SWAP1 MSTORE PUSH3 0x41 SWAP2 PUSH3 0x277 JUMP JUMPDEST PUSH20 0x5C210EF41CD1A72DE73BF76EC39637BB0D3D7BEE CALLER DUP1 PUSH1 0x0 PUSH1 0x40 MLOAD DUP1 PUSH1 0x40 ADD PUSH1 0x40 MSTORE DUP1 PUSH1 0x10 DUP2 MSTORE PUSH1 0x20 ADD PUSH16 0x131BDD1D1BD35BDA9A48151A58DAD95D PUSH1 0x82 SHL DUP2 MSTORE POP PUSH1 0x40 MLOAD DUP1 PUSH1 0x40 ADD PUSH1 0x40 MSTORE DUP1 PUSH1 0x5 DUP2 MSTORE PUSH1 0x20 ADD PUSH5 0x4C4D4F4A49 PUSH1 0xD8 SHL DUP2 MSTORE POP DUP2 PUSH1 0x0 SWAP1 DUP2 PUSH3 0xB2 SWAP2 SWAP1 PUSH3 0x358 JUMP JUMPDEST POP PUSH1 0x1 PUSH3 0xC1 DUP3 DUP3 PUSH3 0x358 JUMP JUMPDEST POP POP POP PUSH1 0x1 PUSH1 0x1 PUSH1 0xA0 SHL SUB DUP3 AND PUSH3 0x120 JUMPI PUSH1 0x40 MLOAD PUSH3 0x461BCD PUSH1 0xE5 SHL DUP2 MSTORE PUSH1 0x20 PUSH1 0x4 DUP3 ADD MSTORE PUSH1 0x18 PUSH1 0x24 DUP3 ADD MSTORE PUSH32 0x43616E6E6F7420736574206F776E657220746F207A65726F0000000000000000 PUSH1 0x44 DUP3 ADD MSTORE PUSH1 0x64 ADD JUMPDEST PUSH1 0x40 MLOAD DUP1 SWAP2 SUB SWAP1 REVERT JUMPDEST PUSH1 0xA DUP1 SLOAD PUSH1 0x1 PUSH1 0x1 PUSH1 0xA0 SHL SUB NOT AND PUSH1 0x1 PUSH1 0x1 PUSH1 0xA0 SHL SUB DUP5 DUP2 AND SWAP2 SWAP1 SWAP2 OR SWAP1 SWAP2 SSTORE DUP2 AND ISZERO PUSH3 0x153 JUMPI PUSH3 0x153 DUP2 PUSH3 0x1CB JUMP JUMPDEST POP POP POP PUSH1 0x1 PUSH1 0x1 PUSH1 0xA0 SHL SUB DUP2 AND PUSH3 0x17E JUMPI PUSH1 0x40 MLOAD PUSH4 0xD92E233D PUSH1 0xE0 SHL DUP2 MSTORE PUSH1 0x4 ADD PUSH1 0x40 MLOAD DUP1 SWAP2 SUB SWAP1 REVERT JUMPDEST PUSH1 0xC DUP1 SLOAD PUSH1 0x1 PUSH1 0x1 PUSH1 0xA0 SHL SUB NOT AND PUSH1 0x1 PUSH1 0x1 PUSH1 0xA0 SHL SUB SWAP3 DUP4 AND OR SWAP1 SSTORE PUSH1 0x1 PUSH1 0xD SSTORE PUSH20 0x5C210EF41CD1A72DE73BF76EC39637BB0D3D7BEE PUSH1 0x80 MSTORE SWAP2 SWAP1 SWAP2 AND PUSH1 0xC0 MSTORE PUSH1 0xA0 MSTORE TIMESTAMP PUSH1 0xE SSTORE PUSH3 0x424 JUMP JUMPDEST CALLER PUSH1 0x1 PUSH1 0x1 PUSH1 0xA0 SHL SUB DUP3 AND SUB PUSH3 0x225 JUMPI PUSH1 0x40 MLOAD PUSH3 0x461BCD PUSH1 0xE5 SHL DUP2 MSTORE PUSH1 0x20 PUSH1 0x4 DUP3 ADD MSTORE PUSH1 0x17 PUSH1 0x24 DUP3 ADD MSTORE PUSH32 0x43616E6E6F74207472616E7366657220746F2073656C66000000000000000000 PUSH1 0x44 DUP3 ADD MSTORE PUSH1 0x64 ADD PUSH3 0x117 JUMP JUMPDEST PUSH1 0xB DUP1 SLOAD PUSH1 0x1 PUSH1 0x1 PUSH1 0xA0 SHL SUB NOT AND PUSH1 0x1 PUSH1 0x1 PUSH1 0xA0 SHL SUB DUP4 DUP2 AND SWAP2 DUP3 OR SWAP1 SWAP3 SSTORE PUSH1 0xA SLOAD PUSH1 0x40 MLOAD SWAP2 SWAP3 AND SWAP1 PUSH32 0xED8889F560326EB138920D842192F0EB3DD22B4F139C87A2C57538E05BAE1278 SWAP1 PUSH1 0x0 SWAP1 LOG3 POP JUMP JUMPDEST PUSH1 0x0 DUP1 PUSH1 0x40 DUP4 DUP6 SUB SLT ISZERO PUSH3 0x28B JUMPI PUSH1 0x0 DUP1 REVERT JUMPDEST DUP3 MLOAD PUSH1 0x1 PUSH1 0x1 PUSH1 0xA0 SHL SUB DUP2 AND DUP2 EQ PUSH3 0x2A3 JUMPI PUSH1 0x0 DUP1 REVERT JUMPDEST PUSH1 0x20 SWAP4 SWAP1 SWAP4 ADD MLOAD SWAP3 SWAP5 SWAP3 SWAP4 POP POP POP JUMP JUMPDEST PUSH4 0x4E487B71 PUSH1 0xE0 SHL PUSH1 0x0 MSTORE PUSH1 0x41 PUSH1 0x4 MSTORE PUSH1 0x24 PUSH1 0x0 REVERT JUMPDEST PUSH1 0x1 DUP2 DUP2 SHR SWAP1 DUP3 AND DUP1 PUSH3 0x2DE JUMPI PUSH1 0x7F DUP3 AND SWAP2 POP JUMPDEST PUSH1 0x20 DUP3 LT DUP2 SUB PUSH3 0x2FF JUMPI PUSH4 0x4E487B71 PUSH1 0xE0 SHL PUSH1 0x0 MSTORE PUSH1 0x22 PUSH1 0x4 MSTORE PUSH1 0x24 PUSH1 0x0 REVERT JUMPDEST POP SWAP2 SWAP1 POP JUMP JUMPDEST PUSH1 0x1F DUP3 GT ISZERO PUSH3 0x353 JUMPI PUSH1 0x0 DUP2 DUP2 MSTORE PUSH1 0x20 DUP2 KECCAK256 PUSH1 0x1F DUP6 ADD PUSH1 0x5 SHR DUP2 ADD PUSH1 0x20 DUP7 LT ISZERO PUSH3 0x32E JUMPI POP DUP1 JUMPDEST PUSH1 0x1F DUP6 ADD PUSH1 0x5 SHR DUP3 ADD SWAP2 POP JUMPDEST DUP2 DUP2 LT ISZERO PUSH3 0x34F JUMPI DUP3 DUP2 SSTORE PUSH1 0x1 ADD PUSH3 0x33A JUMP JUMPDEST POP POP POP JUMPDEST POP POP POP JUMP JUMPDEST DUP2 MLOAD PUSH1 0x1 PUSH1 0x1 PUSH1 0x40 SHL SUB DUP2 GT ISZERO PUSH3 0x374 JUMPI PUSH3 0x374 PUSH3 0x2B3 JUMP JUMPDEST PUSH3 0x38C DUP2 PUSH3 0x385 DUP5 SLOAD PUSH3 0x2C9 JUMP JUMPDEST DUP5 PUSH3 0x305 JUMP JUMPDEST PUSH1 0x20 DUP1 PUSH1 0x1F DUP4 GT PUSH1 0x1 DUP2 EQ PUSH3 0x3C4 JUMPI PUSH1 0x0 DUP5 ISZERO PUSH3 0x3AB JUMPI POP DUP6 DUP4 ADD MLOAD JUMPDEST PUSH1 0x0 NOT PUSH1 0x3 DUP7 SWAP1 SHL SHR NOT AND PUSH1 0x1 DUP6 SWAP1 SHL OR DUP6 SSTORE PUSH3 0x34F JUMP JUMPDEST PUSH1 0x0 DUP6 DUP2 MSTORE PUSH1 0x20 DUP2 KECCAK256 PUSH1 0x1F NOT DUP7 AND SWAP2 JUMPDEST DUP3 DUP2 LT ISZERO PUSH3 0x3F5 JUMPI DUP9 DUP7 ADD MLOAD DUP3 SSTORE SWAP5 DUP5 ADD SWAP5 PUSH1 0x1 SWAP1 SWAP2 ADD SWAP1 DUP5 ADD PUSH3 0x3D4 JUMP JUMPDEST POP DUP6 DUP3 LT ISZERO PUSH3 0x414 JUMPI DUP8 DUP6 ADD MLOAD PUSH1 0x0 NOT PUSH1 0x3 DUP9 SWAP1 SHL PUSH1 0xF8 AND SHR NOT AND DUP2 SSTORE JUMPDEST POP POP POP POP POP PUSH1 0x1 SWAP1 DUP2 SHL ADD SWAP1 SSTORE POP JUMP JUMPDEST PUSH1 0x80 MLOAD PUSH1 0xA0 MLOAD PUSH1 0xC0 MLOAD PUSH2 0x21AA PUSH3 0x45B PUSH1 0x0 CODECOPY PUSH1 0x0 DUP2 DUP2 PUSH2 0x2F1 ADD MSTORE PUSH2 0x7F3 ADD MSTORE PUSH1 0x0 PUSH2 0xE0D ADD MSTORE PUSH1 0x0 PUSH2 0xE83 ADD MSTORE PUSH2 0x21AA PUSH1 0x0 RETURN INVALID PUSH1 0x80 PUSH1 0x40 MSTORE CALLVALUE DUP1 ISZERO PUSH2 0x10 JUMPI PUSH1 0x0 DUP1 REVERT JUMPDEST POP PUSH1 0x4 CALLDATASIZE LT PUSH2 0x1F0 JUMPI PUSH1 0x0 CALLDATALOAD PUSH1 0xE0 SHR DUP1 PUSH4 0x6352211E GT PUSH2 0x10F JUMPI DUP1 PUSH4 0x95D89B41 GT PUSH2 0xA2 JUMPI DUP1 PUSH4 0xC87B56DD GT PUSH2 0x71 JUMPI DUP1 PUSH4 0xC87B56DD EQ PUSH2 0x432 JUMPI DUP1 PUSH4 0xE985E9C5 EQ PUSH2 0x445 JUMPI DUP1 PUSH4 0xEA666AA5 EQ PUSH2 0x458 JUMPI DUP1 PUSH4 0xF2FDE38B EQ PUSH2 0x46B JUMPI PUSH1 0x0 DUP1 REVERT JUMPDEST DUP1 PUSH4 0x95D89B41 EQ PUSH2 0x3F1 JUMPI DUP1 PUSH4 0x9ECCACF6 EQ PUSH2 0x3F9 JUMPI DUP1 PUSH4 0xA22CB465 EQ PUSH2 0x40C JUMPI DUP1 PUSH4 0xB88D4FDE EQ PUSH2 0x41F JUMPI PUSH1 0x0 DUP1 REVERT JUMPDEST DUP1 PUSH4 0x70A08231 GT PUSH2 0xDE JUMPI DUP1 PUSH4 0x70A08231 EQ PUSH2 0x3B2 JUMPI DUP1 PUSH4 0x79BA5097 EQ PUSH2 0x3C5 JUMPI DUP1 PUSH4 0x8DA5CB5B EQ PUSH2 0x3CD JUMPI DUP1 PUSH4 0x8EA98117 EQ PUSH2 0x3DE JUMPI PUSH1 0x0 DUP1 REVERT JUMPDEST DUP1 PUSH4 0x6352211E EQ PUSH2 0x35E JUMPI DUP1 PUSH4 0x673707CD EQ PUSH2 0x371 JUMPI DUP1 PUSH4 0x6BAF4A74 EQ PUSH2 0x384 JUMPI DUP1 PUSH4 0x6E04FF0D EQ PUSH2 0x391 JUMPI PUSH1 0x0 DUP1 REVERT JUMPDEST DUP1 PUSH4 0x23B872DD GT PUSH2 0x187 JUMPI DUP1 PUSH4 0x4585E33B GT PUSH2 0x156 JUMPI DUP1 PUSH4 0x4585E33B EQ PUSH2 0x326 JUMPI DUP1 PUSH4 0x4F6CCCE7 EQ PUSH2 0x339 JUMPI DUP1 PUSH4 0x50152C4C EQ PUSH2 0x34C JUMPI DUP1 PUSH4 0x5CBBD635 EQ PUSH2 0x355 JUMPI PUSH1 0x0 DUP1 REVERT JUMPDEST DUP1 PUSH4 0x23B872DD EQ PUSH2 0x2C6 JUMPI DUP1 PUSH4 0x2F745C59 EQ PUSH2 0x2D9 JUMPI DUP1 PUSH4 0x3E413BEE EQ PUSH2 0x2EC JUMPI DUP1 PUSH4 0x42842E0E EQ PUSH2 0x313 JUMPI PUSH1 0x0 DUP1 REVERT JUMPDEST DUP1 PUSH4 0x95EA7B3 GT PUSH2 0x1C3 JUMPI DUP1 PUSH4 0x95EA7B3 EQ PUSH2 0x282 JUMPI DUP1 PUSH4 0x18160DDD EQ PUSH2 0x297 JUMPI DUP1 PUSH4 0x1A95F15F EQ PUSH2 0x2A9 JUMPI DUP1 PUSH4 0x1FE543E3 EQ PUSH2 0x2B3 JUMPI PUSH1 0x0 DUP1 REVERT JUMPDEST DUP1 PUSH4 0x1FFC9A7 EQ PUSH2 0x1F5 JUMPI DUP1 PUSH4 0x3E3CD6A EQ PUSH2 0x21D JUMPI DUP1 PUSH4 0x6FDDE03 EQ PUSH2 0x242 JUMPI DUP1 PUSH4 0x81812FC EQ PUSH2 0x257 JUMPI JUMPDEST PUSH1 0x0 DUP1 REVERT JUMPDEST PUSH2 0x208 PUSH2 0x203 CALLDATASIZE PUSH1 0x4 PUSH2 0x1AAD JUMP JUMPDEST PUSH2 0x47E JUMP JUMPDEST PUSH1 0x40 MLOAD SWAP1 ISZERO ISZERO DUP2 MSTORE PUSH1 0x20 ADD JUMPDEST PUSH1 0x40 MLOAD DUP1 SWAP2 SUB SWAP1 RETURN JUMPDEST PUSH2 0x230 PUSH2 0x22B CALLDATASIZE PUSH1 0x4 PUSH2 0x1AD1 JUMP JUMPDEST PUSH2 0x48F JUMP JUMPDEST PUSH1 0x40 MLOAD PUSH1 0xFF SWAP1 SWAP2 AND DUP2 MSTORE PUSH1 0x20 ADD PUSH2 0x214 JUMP JUMPDEST PUSH2 0x24A PUSH2 0x4C8 JUMP JUMPDEST PUSH1 0x40 MLOAD PUSH2 0x214 SWAP2 SWAP1 PUSH2 0x1B43 JUMP JUMPDEST PUSH2 0x26A PUSH2 0x265 CALLDATASIZE PUSH1 0x4 PUSH2 0x1B56 JUMP JUMPDEST PUSH2 0x55A JUMP JUMPDEST PUSH1 0x40 MLOAD PUSH1 0x1 PUSH1 0x1 PUSH1 0xA0 SHL SUB SWAP1 SWAP2 AND DUP2 MSTORE PUSH1 0x20 ADD PUSH2 0x214 JUMP JUMPDEST PUSH2 0x295 PUSH2 0x290 CALLDATASIZE PUSH1 0x4 PUSH2 0x1B8B JUMP JUMPDEST PUSH2 0x583 JUMP JUMPDEST STOP JUMPDEST PUSH1 0x8 SLOAD JUMPDEST PUSH1 0x40 MLOAD SWAP1 DUP2 MSTORE PUSH1 0x20 ADD PUSH2 0x214 JUMP JUMPDEST PUSH2 0x29B PUSH3 0x1E8480 DUP2 JUMP JUMPDEST PUSH2 0x295 PUSH2 0x2C1 CALLDATASIZE PUSH1 0x4 PUSH2 0x1BB5 JUMP JUMPDEST PUSH2 0x592 JUMP JUMPDEST PUSH2 0x295 PUSH2 0x2D4 CALLDATASIZE PUSH1 0x4 PUSH2 0x1C34 JUMP JUMPDEST PUSH2 0x5E7 JUMP JUMPDEST PUSH2 0x29B PUSH2 0x2E7 CALLDATASIZE PUSH1 0x4 PUSH2 0x1B8B JUMP JUMPDEST PUSH2 0x672 JUMP JUMPDEST PUSH2 0x26A PUSH32 0x0 DUP2 JUMP JUMPDEST PUSH2 0x295 PUSH2 0x321 CALLDATASIZE PUSH1 0x4 PUSH2 0x1C34 JUMP JUMPDEST PUSH2 0x6D7 JUMP JUMPDEST PUSH2 0x295 PUSH2 0x334 CALLDATASIZE PUSH1 0x4 PUSH2 0x1C70 JUMP JUMPDEST PUSH2 0x6F2 JUMP JUMPDEST PUSH2 0x29B PUSH2 0x347 CALLDATASIZE PUSH1 0x4 PUSH2 0x1B56 JUMP JUMPDEST PUSH2 0x763 JUMP JUMPDEST PUSH2 0x29B PUSH1 0xF SLOAD DUP2 JUMP JUMPDEST PUSH2 0x29B PUSH1 0xE SLOAD DUP2 JUMP JUMPDEST PUSH2 0x26A PUSH2 0x36C CALLDATASIZE PUSH1 0x4 PUSH2 0x1B56 JUMP JUMPDEST PUSH2 0x7BC JUMP JUMPDEST PUSH2 0x295 PUSH2 0x37F CALLDATASIZE PUSH1 0x4 PUSH2 0x1D29 JUMP JUMPDEST PUSH2 0x7C7 JUMP JUMPDEST PUSH1 0x10 SLOAD PUSH2 0x208 SWAP1 PUSH1 0xFF AND DUP2 JUMP JUMPDEST PUSH2 0x3A4 PUSH2 0x39F CALLDATASIZE PUSH1 0x4 PUSH2 0x1C70 JUMP JUMPDEST PUSH2 0x932 JUMP JUMPDEST PUSH1 0x40 MLOAD PUSH2 0x214 SWAP3 SWAP2 SWAP1 PUSH2 0x1DB7 JUMP JUMPDEST PUSH2 0x29B PUSH2 0x3C0 CALLDATASIZE PUSH1 0x4 PUSH2 0x1DD2 JUMP JUMPDEST PUSH2 0x973 JUMP JUMPDEST PUSH2 0x295 PUSH2 0x9BB JUMP JUMPDEST PUSH1 0xA SLOAD PUSH1 0x1 PUSH1 0x1 PUSH1 0xA0 SHL SUB AND PUSH2 0x26A JUMP JUMPDEST PUSH2 0x295 PUSH2 0x3EC CALLDATASIZE PUSH1 0x4 PUSH2 0x1DD2 JUMP JUMPDEST PUSH2 0xA69 JUMP JUMPDEST PUSH2 0x24A PUSH2 0xB5B JUMP JUMPDEST PUSH1 0xC SLOAD PUSH2 0x26A SWAP1 PUSH1 0x1 PUSH1 0x1 PUSH1 0xA0 SHL SUB AND DUP2 JUMP JUMPDEST PUSH2 0x295 PUSH2 0x41A CALLDATASIZE PUSH1 0x4 PUSH2 0x1DFB JUMP JUMPDEST PUSH2 0xB6A JUMP JUMPDEST PUSH2 0x295 PUSH2 0x42D CALLDATASIZE PUSH1 0x4 PUSH2 0x1E32 JUMP JUMPDEST PUSH2 0xB75 JUMP JUMPDEST PUSH2 0x24A PUSH2 0x440 CALLDATASIZE PUSH1 0x4 PUSH2 0x1B56 JUMP JUMPDEST PUSH2 0xB8C JUMP JUMPDEST PUSH2 0x208 PUSH2 0x453 CALLDATASIZE PUSH1 0x4 PUSH2 0x1EF2 JUMP JUMPDEST PUSH2 0xC19 JUMP JUMPDEST PUSH2 0x230 PUSH2 0x466 CALLDATASIZE PUSH1 0x4 PUSH2 0x1AD1 JUMP JUMPDEST PUSH2 0xC47 JUMP JUMPDEST PUSH2 0x295 PUSH2 0x479 CALLDATASIZE PUSH1 0x4 PUSH2 0x1DD2 JUMP JUMPDEST PUSH2 0xC63 JUMP JUMPDEST PUSH1 0x0 PUSH2 0x489 DUP3 PUSH2 0xC74 JUMP JUMPDEST SWAP3 SWAP2 POP POP JUMP JUMPDEST PUSH1 0x12 PUSH1 0x20 MSTORE DUP2 PUSH1 0x0 MSTORE PUSH1 0x40 PUSH1 0x0 KECCAK256 DUP2 PUSH1 0x4 DUP2 LT PUSH2 0x4AB JUMPI PUSH1 0x0 DUP1 REVERT JUMPDEST PUSH1 0x20 DUP2 DIV SWAP1 SWAP2 ADD SLOAD PUSH1 0xFF PUSH1 0x1F SWAP1 SWAP3 AND PUSH2 0x100 EXP SWAP1 DIV AND SWAP2 POP DUP3 SWAP1 POP JUMP JUMPDEST PUSH1 0x60 PUSH1 0x0 DUP1 SLOAD PUSH2 0x4D7 SWAP1 PUSH2 0x1F25 JUMP JUMPDEST DUP1 PUSH1 0x1F ADD PUSH1 0x20 DUP1 SWAP2 DIV MUL PUSH1 0x20 ADD PUSH1 0x40 MLOAD SWAP1 DUP2 ADD PUSH1 0x40 MSTORE DUP1 SWAP3 SWAP2 SWAP1 DUP2 DUP2 MSTORE PUSH1 0x20 ADD DUP3 DUP1 SLOAD PUSH2 0x503 SWAP1 PUSH2 0x1F25 JUMP JUMPDEST DUP1 ISZERO PUSH2 0x550 JUMPI DUP1 PUSH1 0x1F LT PUSH2 0x525 JUMPI PUSH2 0x100 DUP1 DUP4 SLOAD DIV MUL DUP4 MSTORE SWAP2 PUSH1 0x20 ADD SWAP2 PUSH2 0x550 JUMP JUMPDEST DUP3 ADD SWAP2 SWAP1 PUSH1 0x0 MSTORE PUSH1 0x20 PUSH1 0x0 KECCAK256 SWAP1 JUMPDEST DUP2 SLOAD DUP2 MSTORE SWAP1 PUSH1 0x1 ADD SWAP1 PUSH1 0x20 ADD DUP1 DUP4 GT PUSH2 0x533 JUMPI DUP3 SWAP1 SUB PUSH1 0x1F AND DUP3 ADD SWAP2 JUMPDEST POP POP POP POP POP SWAP1 POP SWAP1 JUMP JUMPDEST PUSH1 0x0 PUSH2 0x565 DUP3 PUSH2 0xC99 JUMP JUMPDEST POP PUSH1 0x0 DUP3 DUP2 MSTORE PUSH1 0x4 PUSH1 0x20 MSTORE PUSH1 0x40 SWAP1 KECCAK256 SLOAD PUSH1 0x1 PUSH1 0x1 PUSH1 0xA0 SHL SUB AND PUSH2 0x489 JUMP JUMPDEST PUSH2 0x58E DUP3 DUP3 CALLER PUSH2 0xCD2 JUMP JUMPDEST POP POP JUMP JUMPDEST PUSH1 0xC SLOAD PUSH1 0x1 PUSH1 0x1 PUSH1 0xA0 SHL SUB AND CALLER EQ PUSH2 0x5D7 JUMPI PUSH1 0xC SLOAD PUSH1 0x40 MLOAD PUSH4 0x73E64FD PUSH1 0xE2 SHL DUP2 MSTORE CALLER PUSH1 0x4 DUP3 ADD MSTORE PUSH1 0x1 PUSH1 0x1 PUSH1 0xA0 SHL SUB SWAP1 SWAP2 AND PUSH1 0x24 DUP3 ADD MSTORE PUSH1 0x44 ADD JUMPDEST PUSH1 0x40 MLOAD DUP1 SWAP2 SUB SWAP1 REVERT JUMPDEST PUSH2 0x5E2 DUP4 DUP4 DUP4 PUSH2 0xCDF JUMP JUMPDEST POP POP POP JUMP JUMPDEST PUSH1 0x1 PUSH1 0x1 PUSH1 0xA0 SHL SUB DUP3 AND PUSH2 0x611 JUMPI PUSH1 0x40 MLOAD PUSH4 0x32505749 PUSH1 0xE1 SHL DUP2 MSTORE PUSH1 0x0 PUSH1 0x4 DUP3 ADD MSTORE PUSH1 0x24 ADD PUSH2 0x5CE JUMP JUMPDEST PUSH1 0x0 PUSH2 0x61E DUP4 DUP4 CALLER PUSH2 0xDC9 JUMP JUMPDEST SWAP1 POP DUP4 PUSH1 0x1 PUSH1 0x1 PUSH1 0xA0 SHL SUB AND DUP2 PUSH1 0x1 PUSH1 0x1 PUSH1 0xA0 SHL SUB AND EQ PUSH2 0x66C JUMPI PUSH1 0x40 MLOAD PUSH4 0x64283D7B PUSH1 0xE0 SHL DUP2 MSTORE PUSH1 0x1 PUSH1 0x1 PUSH1 0xA0 SHL SUB DUP1 DUP7 AND PUSH1 0x4 DUP4 ADD MSTORE PUSH1 0x24 DUP3 ADD DUP5 SWAP1 MSTORE DUP3 AND PUSH1 0x44 DUP3 ADD MSTORE PUSH1 0x64 ADD PUSH2 0x5CE JUMP JUMPDEST POP POP POP POP JUMP JUMPDEST PUSH1 0x0 PUSH2 0x67D DUP4 PUSH2 0x973 JUMP JUMPDEST DUP3 LT PUSH2 0x6AE JUMPI PUSH1 0x40 MLOAD PUSH4 0x295F44F7 PUSH1 0xE2 SHL DUP2 MSTORE PUSH1 0x1 PUSH1 0x1 PUSH1 0xA0 SHL SUB DUP5 AND PUSH1 0x4 DUP3 ADD MSTORE PUSH1 0x24 DUP2 ADD DUP4 SWAP1 MSTORE PUSH1 0x44 ADD PUSH2 0x5CE JUMP JUMPDEST POP PUSH1 0x1 PUSH1 0x1 PUSH1 0xA0 SHL SUB SWAP2 SWAP1 SWAP2 AND PUSH1 0x0 SWAP1 DUP2 MSTORE PUSH1 0x6 PUSH1 0x20 SWAP1 DUP2 MSTORE PUSH1 0x40 DUP1 DUP4 KECCAK256 SWAP4 DUP4 MSTORE SWAP3 SWAP1 MSTORE KECCAK256 SLOAD SWAP1 JUMP JUMPDEST PUSH2 0x5E2 DUP4 DUP4 DUP4 PUSH1 0x40 MLOAD DUP1 PUSH1 0x20 ADD PUSH1 0x40 MSTORE DUP1 PUSH1 0x0 DUP2 MSTORE POP PUSH2 0xB75 JUMP JUMPDEST PUSH1 0x10 SLOAD PUSH1 0xFF AND DUP1 ISZERO PUSH2 0x713 JUMPI POP PUSH1 0xE SLOAD PUSH2 0x70F SWAP1 PUSH3 0x15180 PUSH2 0x1F75 JUMP JUMPDEST TIMESTAMP LT ISZERO JUMPDEST PUSH2 0x753 JUMPI PUSH1 0x40 MLOAD PUSH3 0x461BCD PUSH1 0xE5 SHL DUP2 MSTORE PUSH1 0x20 PUSH1 0x4 DUP3 ADD MSTORE PUSH1 0x11 PUSH1 0x24 DUP3 ADD MSTORE PUSH17 0x155C1AD9595C081B9BDD081B9959591959 PUSH1 0x7A SHL PUSH1 0x44 DUP3 ADD MSTORE PUSH1 0x64 ADD PUSH2 0x5CE JUMP JUMPDEST PUSH2 0x75B PUSH2 0xDDE JUMP JUMPDEST POP POP TIMESTAMP PUSH1 0xE SSTORE JUMP JUMPDEST PUSH1 0x0 PUSH2 0x76E PUSH1 0x8 SLOAD SWAP1 JUMP JUMPDEST DUP3 LT PUSH2 0x797 JUMPI PUSH1 0x40 MLOAD PUSH4 0x295F44F7 PUSH1 0xE2 SHL DUP2 MSTORE PUSH1 0x0 PUSH1 0x4 DUP3 ADD MSTORE PUSH1 0x24 DUP2 ADD DUP4 SWAP1 MSTORE PUSH1 0x44 ADD PUSH2 0x5CE JUMP JUMPDEST PUSH1 0x8 DUP3 DUP2 SLOAD DUP2 LT PUSH2 0x7AA JUMPI PUSH2 0x7AA PUSH2 0x1F88 JUMP JUMPDEST SWAP1 PUSH1 0x0 MSTORE PUSH1 0x20 PUSH1 0x0 KECCAK256 ADD SLOAD SWAP1 POP SWAP2 SWAP1 POP JUMP JUMPDEST PUSH1 0x0 PUSH2 0x489 DUP3 PUSH2 0xC99 JUMP JUMPDEST PUSH2 0x7CF PUSH2 0xEFB JUMP JUMPDEST PUSH1 0x40 MLOAD PUSH4 0x23B872DD PUSH1 0xE0 SHL DUP2 MSTORE CALLER PUSH1 0x4 DUP3 ADD MSTORE ADDRESS PUSH1 0x24 DUP3 ADD MSTORE PUSH3 0x1E8480 PUSH1 0x44 DUP3 ADD MSTORE PUSH32 0x0 PUSH1 0x1 PUSH1 0x1 PUSH1 0xA0 SHL SUB AND SWAP1 PUSH4 0x23B872DD SWAP1 PUSH1 0x64 ADD PUSH1 0x20 PUSH1 0x40 MLOAD DUP1 DUP4 SUB DUP2 PUSH1 0x0 DUP8 GAS CALL ISZERO DUP1 ISZERO PUSH2 0x844 JUMPI RETURNDATASIZE PUSH1 0x0 DUP1 RETURNDATACOPY RETURNDATASIZE PUSH1 0x0 REVERT JUMPDEST POP POP POP POP PUSH1 0x40 MLOAD RETURNDATASIZE PUSH1 0x1F NOT PUSH1 0x1F DUP3 ADD AND DUP3 ADD DUP1 PUSH1 0x40 MSTORE POP DUP2 ADD SWAP1 PUSH2 0x868 SWAP2 SWAP1 PUSH2 0x1F9E JUMP JUMPDEST PUSH2 0x8A6 JUMPI PUSH1 0x40 MLOAD PUSH3 0x461BCD PUSH1 0xE5 SHL DUP2 MSTORE PUSH1 0x20 PUSH1 0x4 DUP3 ADD MSTORE PUSH1 0xF PUSH1 0x24 DUP3 ADD MSTORE PUSH15 0x151C985B9CD9995C8819985A5B1959 PUSH1 0x8A SHL PUSH1 0x44 DUP3 ADD MSTORE PUSH1 0x64 ADD PUSH2 0x5CE JUMP JUMPDEST PUSH1 0x13 DUP1 SLOAD PUSH1 0x0 SWAP2 DUP3 PUSH2 0x8B7 DUP4 PUSH2 0x1FBB JUMP JUMPDEST SWAP2 SWAP1 POP SSTORE SWAP1 POP PUSH2 0x8C7 CALLER DUP3 PUSH2 0xF25 JUMP JUMPDEST PUSH1 0x0 DUP2 DUP2 MSTORE PUSH1 0x11 PUSH1 0x20 MSTORE PUSH1 0x40 SWAP1 KECCAK256 PUSH2 0x8E1 SWAP1 DUP4 PUSH1 0x4 PUSH2 0x19D1 JUMP JUMPDEST POP DUP1 CALLER PUSH1 0x1 PUSH1 0x1 PUSH1 0xA0 SHL SUB AND PUSH32 0x54B464752E2BD51CD0B4C6945D99B6DB2088872F903C43BB24FE4F9AEE75ADB0 DUP5 PUSH1 0x40 MLOAD PUSH2 0x91C SWAP2 SWAP1 PUSH2 0x1FD4 JUMP JUMPDEST PUSH1 0x40 MLOAD DUP1 SWAP2 SUB SWAP1 LOG3 POP PUSH2 0x92F PUSH1 0x1 PUSH1 0xD SSTORE JUMP JUMPDEST POP JUMP JUMPDEST PUSH1 0x10 SLOAD PUSH1 0x0 SWAP1 PUSH1 0x60 SWAP1 PUSH1 0xFF AND DUP1 ISZERO PUSH2 0x959 JUMPI POP PUSH1 0xE SLOAD PUSH2 0x955 SWAP1 PUSH3 0x15180 PUSH2 0x1F75 JUMP JUMPDEST TIMESTAMP LT ISZERO JUMPDEST PUSH1 0x40 DUP1 MLOAD PUSH1 0x20 DUP2 ADD SWAP1 SWAP2 MSTORE PUSH1 0x0 DUP2 MSTORE SWAP1 SWAP6 SWAP1 SWAP5 POP SWAP3 POP POP POP JUMP JUMPDEST PUSH1 0x0 PUSH1 0x1 PUSH1 0x1 PUSH1 0xA0 SHL SUB DUP3 AND PUSH2 0x99F JUMPI PUSH1 0x40 MLOAD PUSH4 0x22718AD9 PUSH1 0xE2 SHL DUP2 MSTORE PUSH1 0x0 PUSH1 0x4 DUP3 ADD MSTORE PUSH1 0x24 ADD PUSH2 0x5CE JUMP JUMPDEST POP PUSH1 0x1 PUSH1 0x1 PUSH1 0xA0 SHL SUB AND PUSH1 0x0 SWAP1 DUP2 MSTORE PUSH1 0x3 PUSH1 0x20 MSTORE PUSH1 0x40 SWAP1 KECCAK256 SLOAD SWAP1 JUMP JUMPDEST PUSH1 0xB SLOAD PUSH1 0x1 PUSH1 0x1 PUSH1 0xA0 SHL SUB AND CALLER EQ PUSH2 0xA0E JUMPI PUSH1 0x40 MLOAD PUSH3 0x461BCD PUSH1 0xE5 SHL DUP2 MSTORE PUSH1 0x20 PUSH1 0x4 DUP3 ADD MSTORE PUSH1 0x16 PUSH1 0x24 DUP3 ADD MSTORE PUSH22 0x26BAB9BA10313290383937B837B9B2B21037BBB732B9 PUSH1 0x51 SHL PUSH1 0x44 DUP3 ADD MSTORE PUSH1 0x64 ADD PUSH2 0x5CE JUMP JUMPDEST PUSH1 0xA DUP1 SLOAD PUSH1 0x1 PUSH1 0x1 PUSH1 0xA0 SHL SUB NOT DUP1 DUP3 AND CALLER SWAP1 DUP2 OR SWAP1 SWAP4 SSTORE PUSH1 0xB DUP1 SLOAD SWAP1 SWAP2 AND SWAP1 SSTORE PUSH1 0x40 MLOAD PUSH1 0x1 PUSH1 0x1 PUSH1 0xA0 SHL SUB SWAP1 SWAP2 AND SWAP2 SWAP1 DUP3 SWAP1 PUSH32 0x8BE0079C531659141344CD1FD0A4F28419497F9722A3DAAFE3B4186F6B6457E0 SWAP1 PUSH1 0x0 SWAP1 LOG3 POP JUMP JUMPDEST PUSH1 0xA SLOAD PUSH1 0x1 PUSH1 0x1 PUSH1 0xA0 SHL SUB AND CALLER EQ DUP1 ISZERO SWAP1 PUSH2 0xA8F JUMPI POP PUSH1 0xC SLOAD PUSH1 0x1 PUSH1 0x1 PUSH1 0xA0 SHL SUB AND CALLER EQ ISZERO JUMPDEST ISZERO PUSH2 0xAE0 JUMPI CALLER PUSH2 0xAA7 PUSH1 0xA SLOAD PUSH1 0x1 PUSH1 0x1 PUSH1 0xA0 SHL SUB AND SWAP1 JUMP JUMPDEST PUSH1 0xC SLOAD PUSH1 0x40 MLOAD PUSH4 0x61DB9C1 PUSH1 0xE0 SHL DUP2 MSTORE PUSH1 0x1 PUSH1 0x1 PUSH1 0xA0 SHL SUB SWAP4 DUP5 AND PUSH1 0x4 DUP3 ADD MSTORE SWAP2 DUP4 AND PUSH1 0x24 DUP4 ADD MSTORE SWAP2 SWAP1 SWAP2 AND PUSH1 0x44 DUP3 ADD MSTORE PUSH1 0x64 ADD PUSH2 0x5CE JUMP JUMPDEST PUSH1 0x1 PUSH1 0x1 PUSH1 0xA0 SHL SUB DUP2 AND PUSH2 0xB07 JUMPI PUSH1 0x40 MLOAD PUSH4 0xD92E233D PUSH1 0xE0 SHL DUP2 MSTORE PUSH1 0x4 ADD PUSH1 0x40 MLOAD DUP1 SWAP2 SUB SWAP1 REVERT JUMPDEST PUSH1 0xC DUP1 SLOAD PUSH1 0x1 PUSH1 0x1 PUSH1 0xA0 SHL SUB NOT AND PUSH1 0x1 PUSH1 0x1 PUSH1 0xA0 SHL SUB DUP4 AND SWAP1 DUP2 OR SWAP1 SWAP2 SSTORE PUSH1 0x40 MLOAD SWAP1 DUP2 MSTORE PUSH32 0xD1A6A14209A385A964D036E404CB5CFB71F4000CDB03C9366292430787261BE6 SWAP1 PUSH1 0x20 ADD PUSH1 0x40 MLOAD DUP1 SWAP2 SUB SWAP1 LOG1 POP JUMP JUMPDEST PUSH1 0x60 PUSH1 0x1 DUP1 SLOAD PUSH2 0x4D7 SWAP1 PUSH2 0x1F25 JUMP JUMPDEST PUSH2 0x58E CALLER DUP4 DUP4 PUSH2 0xF3F JUMP JUMPDEST PUSH2 0xB80 DUP5 DUP5 DUP5 PUSH2 0x5E7 JUMP JUMPDEST PUSH2 0x66C DUP5 DUP5 DUP5 DUP5 PUSH2 0xFDE JUMP JUMPDEST PUSH1 0x0 DUP2 DUP2 MSTORE PUSH1 0x2 PUSH1 0x20 MSTORE PUSH1 0x40 SWAP1 KECCAK256 SLOAD PUSH1 0x60 SWAP1 PUSH1 0x1 PUSH1 0x1 PUSH1 0xA0 SHL SUB AND PUSH2 0xBEA JUMPI PUSH1 0x40 MLOAD PUSH3 0x461BCD PUSH1 0xE5 SHL DUP2 MSTORE PUSH1 0x20 PUSH1 0x4 DUP3 ADD MSTORE PUSH1 0x14 PUSH1 0x24 DUP3 ADD MSTORE PUSH20 0x151BDAD95B88191BD95CC81B9BDD08195E1A5CDD PUSH1 0x62 SHL PUSH1 0x44 DUP3 ADD MSTORE PUSH1 0x64 ADD PUSH2 0x5CE JUMP JUMPDEST PUSH2 0xBF3 DUP3 PUSH2 0x1107 JUMP JUMPDEST PUSH1 0x40 MLOAD PUSH1 0x20 ADD PUSH2 0xC03 SWAP2 SWAP1 PUSH2 0x2008 JUMP JUMPDEST PUSH1 0x40 MLOAD PUSH1 0x20 DUP2 DUP4 SUB SUB DUP2 MSTORE SWAP1 PUSH1 0x40 MSTORE SWAP1 POP SWAP2 SWAP1 POP JUMP JUMPDEST PUSH1 0x1 PUSH1 0x1 PUSH1 0xA0 SHL SUB SWAP2 DUP3 AND PUSH1 0x0 SWAP1 DUP2 MSTORE PUSH1 0x5 PUSH1 0x20 SWAP1 DUP2 MSTORE PUSH1 0x40 DUP1 DUP4 KECCAK256 SWAP4 SWAP1 SWAP5 AND DUP3 MSTORE SWAP2 SWAP1 SWAP2 MSTORE KECCAK256 SLOAD PUSH1 0xFF AND SWAP1 JUMP JUMPDEST PUSH1 0x11 PUSH1 0x20 MSTORE DUP2 PUSH1 0x0 MSTORE PUSH1 0x40 PUSH1 0x0 KECCAK256 DUP2 PUSH1 0x4 DUP2 LT PUSH2 0x4AB JUMPI PUSH1 0x0 DUP1 REVERT JUMPDEST PUSH2 0xC6B PUSH2 0x119A JUMP JUMPDEST PUSH2 0x92F DUP2 PUSH2 0x11EF JUMP JUMPDEST PUSH1 0x0 PUSH1 0x1 PUSH1 0x1 PUSH1 0xE0 SHL SUB NOT DUP3 AND PUSH4 0x780E9D63 PUSH1 0xE0 SHL EQ DUP1 PUSH2 0x489 JUMPI POP PUSH2 0x489 DUP3 PUSH2 0x1299 JUMP JUMPDEST PUSH1 0x0 DUP2 DUP2 MSTORE PUSH1 0x2 PUSH1 0x20 MSTORE PUSH1 0x40 DUP2 KECCAK256 SLOAD PUSH1 0x1 PUSH1 0x1 PUSH1 0xA0 SHL SUB AND DUP1 PUSH2 0x489 JUMPI PUSH1 0x40 MLOAD PUSH4 0x7E273289 PUSH1 0xE0 SHL DUP2 MSTORE PUSH1 0x4 DUP2 ADD DUP5 SWAP1 MSTORE PUSH1 0x24 ADD PUSH2 0x5CE JUMP JUMPDEST PUSH2 0x5E2 DUP4 DUP4 DUP4 PUSH1 0x1 PUSH2 0x12E9 JUMP JUMPDEST PUSH2 0xCE7 PUSH2 0x1A64 JUMP JUMPDEST PUSH1 0x0 JUMPDEST PUSH1 0x4 DUP2 LT ISZERO PUSH2 0xD49 JUMPI PUSH1 0x19 DUP5 DUP5 DUP4 DUP2 DUP2 LT PUSH2 0xD07 JUMPI PUSH2 0xD07 PUSH2 0x1F88 JUMP JUMPDEST SWAP1 POP PUSH1 0x20 MUL ADD CALLDATALOAD PUSH2 0xD18 SWAP2 SWAP1 PUSH2 0x2059 JUMP JUMPDEST DUP3 DUP3 PUSH1 0x4 DUP2 LT PUSH2 0xD2A JUMPI PUSH2 0xD2A PUSH2 0x1F88 JUMP JUMPDEST PUSH1 0xFF SWAP1 SWAP3 AND PUSH1 0x20 SWAP3 SWAP1 SWAP3 MUL ADD MSTORE DUP1 PUSH2 0xD41 DUP2 PUSH2 0x1FBB JUMP JUMPDEST SWAP2 POP POP PUSH2 0xCEA JUMP JUMPDEST POP PUSH1 0xF SLOAD PUSH1 0x0 SWAP1 DUP2 MSTORE PUSH1 0x12 PUSH1 0x20 MSTORE PUSH1 0x40 SWAP1 KECCAK256 PUSH2 0xD67 SWAP1 DUP3 PUSH1 0x4 PUSH2 0x19D1 JUMP JUMPDEST POP PUSH1 0xF DUP1 SLOAD SWAP1 PUSH1 0x0 PUSH2 0xD78 DUP4 PUSH2 0x1FBB JUMP JUMPDEST SWAP2 SWAP1 POP SSTORE POP PUSH1 0x1 PUSH1 0xF SLOAD PUSH2 0xD8C SWAP2 SWAP1 PUSH2 0x207B JUMP JUMPDEST PUSH32 0x382E6C48726D03BDC1A6D1041AAF7D3A1C1586814A33D39E5985460A31BB8615 DUP3 PUSH1 0x40 MLOAD PUSH2 0xDBB SWAP2 SWAP1 PUSH2 0x1FD4 JUMP JUMPDEST PUSH1 0x40 MLOAD DUP1 SWAP2 SUB SWAP1 LOG2 POP POP POP POP JUMP JUMPDEST PUSH1 0x0 PUSH2 0xDD6 DUP5 DUP5 DUP5 PUSH2 0x13EF JUMP JUMPDEST SWAP5 SWAP4 POP POP POP POP JUMP JUMPDEST PUSH1 0x40 DUP1 MLOAD PUSH1 0xC0 DUP2 ADD DUP3 MSTORE PUSH32 0x9E1344A1247C8A1785D0A4681A27152BFFDB43666AE5BF7D14D24A5EFD44BF71 DUP2 MSTORE PUSH32 0x0 PUSH1 0x20 DUP1 DUP4 ADD SWAP2 SWAP1 SWAP2 MSTORE PUSH1 0x3 DUP3 DUP5 ADD MSTORE PUSH3 0x2625A0 PUSH1 0x60 DUP4 ADD MSTORE PUSH1 0x4 PUSH1 0x80 DUP4 ADD MSTORE DUP3 MLOAD SWAP1 DUP2 ADD SWAP1 SWAP3 MSTORE PUSH1 0x0 DUP1 DUP4 MSTORE SWAP2 PUSH1 0xA0 DUP3 ADD SWAP1 PUSH2 0xE67 SWAP1 PUSH2 0x14BC JUMP JUMPDEST SWAP1 MSTORE PUSH1 0x40 MLOAD PUSH4 0x4D8E1C2F PUSH1 0xE1 SHL DUP2 MSTORE SWAP1 SWAP2 POP PUSH1 0x1 PUSH1 0x1 PUSH1 0xA0 SHL SUB PUSH32 0x0 AND SWAP1 PUSH4 0x9B1C385E SWAP1 PUSH2 0xEB8 SWAP1 DUP5 SWAP1 PUSH1 0x4 ADD PUSH2 0x208E JUMP JUMPDEST PUSH1 0x20 PUSH1 0x40 MLOAD DUP1 DUP4 SUB DUP2 PUSH1 0x0 DUP8 GAS CALL ISZERO DUP1 ISZERO PUSH2 0xED7 JUMPI RETURNDATASIZE PUSH1 0x0 DUP1 RETURNDATACOPY RETURNDATASIZE PUSH1 0x0 REVERT JUMPDEST POP POP POP POP PUSH1 0x40 MLOAD RETURNDATASIZE PUSH1 0x1F NOT PUSH1 0x1F DUP3 ADD AND DUP3 ADD DUP1 PUSH1 0x40 MSTORE POP DUP2 ADD SWAP1 PUSH2 0x58E SWAP2 SWAP1 PUSH2 0x20EB JUMP JUMPDEST PUSH1 0x2 PUSH1 0xD SLOAD SUB PUSH2 0xF1E JUMPI PUSH1 0x40 MLOAD PUSH4 0x3EE5AEB5 PUSH1 0xE0 SHL DUP2 MSTORE PUSH1 0x4 ADD PUSH1 0x40 MLOAD DUP1 SWAP2 SUB SWAP1 REVERT JUMPDEST PUSH1 0x2 PUSH1 0xD SSTORE JUMP JUMPDEST PUSH2 0x58E DUP3 DUP3 PUSH1 0x40 MLOAD DUP1 PUSH1 0x20 ADD PUSH1 0x40 MSTORE DUP1 PUSH1 0x0 DUP2 MSTORE POP PUSH2 0x152D JUMP JUMPDEST PUSH1 0x1 PUSH1 0x1 PUSH1 0xA0 SHL SUB DUP3 AND PUSH2 0xF71 JUMPI PUSH1 0x40 MLOAD PUSH4 0xB611743 PUSH1 0xE3 SHL DUP2 MSTORE PUSH1 0x1 PUSH1 0x1 PUSH1 0xA0 SHL SUB DUP4 AND PUSH1 0x4 DUP3 ADD MSTORE PUSH1 0x24 ADD PUSH2 0x5CE JUMP JUMPDEST PUSH1 0x1 PUSH1 0x1 PUSH1 0xA0 SHL SUB DUP4 DUP2 AND PUSH1 0x0 DUP2 DUP2 MSTORE PUSH1 0x5 PUSH1 0x20 SWAP1 DUP2 MSTORE PUSH1 0x40 DUP1 DUP4 KECCAK256 SWAP5 DUP8 AND DUP1 DUP5 MSTORE SWAP5 DUP3 MSTORE SWAP2 DUP3 SWAP1 KECCAK256 DUP1 SLOAD PUSH1 0xFF NOT AND DUP7 ISZERO ISZERO SWAP1 DUP2 OR SWAP1 SWAP2 SSTORE SWAP2 MLOAD SWAP2 DUP3 MSTORE PUSH32 0x17307EAB39AB6107E8899845AD3D59BD9653F200F220920489CA2B5937696C31 SWAP2 ADD PUSH1 0x40 MLOAD DUP1 SWAP2 SUB SWAP1 LOG3 POP POP POP JUMP JUMPDEST PUSH1 0x1 PUSH1 0x1 PUSH1 0xA0 SHL SUB DUP4 AND EXTCODESIZE ISZERO PUSH2 0x66C JUMPI PUSH1 0x40 MLOAD PUSH4 0xA85BD01 PUSH1 0xE1 SHL DUP2 MSTORE PUSH1 0x1 PUSH1 0x1 PUSH1 0xA0 SHL SUB DUP5 AND SWAP1 PUSH4 0x150B7A02 SWAP1 PUSH2 0x1020 SWAP1 CALLER SWAP1 DUP9 SWAP1 DUP8 SWAP1 DUP8 SWAP1 PUSH1 0x4 ADD PUSH2 0x2104 JUMP JUMPDEST PUSH1 0x20 PUSH1 0x40 MLOAD DUP1 DUP4 SUB DUP2 PUSH1 0x0 DUP8 GAS CALL SWAP3 POP POP POP DUP1 ISZERO PUSH2 0x105B JUMPI POP PUSH1 0x40 DUP1 MLOAD PUSH1 0x1F RETURNDATASIZE SWAP1 DUP2 ADD PUSH1 0x1F NOT AND DUP3 ADD SWAP1 SWAP3 MSTORE PUSH2 0x1058 SWAP2 DUP2 ADD SWAP1 PUSH2 0x2141 JUMP JUMPDEST PUSH1 0x1 JUMPDEST PUSH2 0x10C4 JUMPI RETURNDATASIZE DUP1 DUP1 ISZERO PUSH2 0x1089 JUMPI PUSH1 0x40 MLOAD SWAP2 POP PUSH1 0x1F NOT PUSH1 0x3F RETURNDATASIZE ADD AND DUP3 ADD PUSH1 0x40 MSTORE RETURNDATASIZE DUP3 MSTORE RETURNDATASIZE PUSH1 0x0 PUSH1 0x20 DUP5 ADD RETURNDATACOPY PUSH2 0x108E JUMP JUMPDEST PUSH1 0x60 SWAP2 POP JUMPDEST POP DUP1 MLOAD PUSH1 0x0 SUB PUSH2 0x10BC JUMPI PUSH1 0x40 MLOAD PUSH4 0x32505749 PUSH1 0xE1 SHL DUP2 MSTORE PUSH1 0x1 PUSH1 0x1 PUSH1 0xA0 SHL SUB DUP6 AND PUSH1 0x4 DUP3 ADD MSTORE PUSH1 0x24 ADD PUSH2 0x5CE JUMP JUMPDEST DUP1 MLOAD DUP2 PUSH1 0x20 ADD REVERT JUMPDEST PUSH1 0x1 PUSH1 0x1 PUSH1 0xE0 SHL SUB NOT DUP2 AND PUSH4 0xA85BD01 PUSH1 0xE1 SHL EQ PUSH2 0x1100 JUMPI PUSH1 0x40 MLOAD PUSH4 0x32505749 PUSH1 0xE1 SHL DUP2 MSTORE PUSH1 0x1 PUSH1 0x1 PUSH1 0xA0 SHL SUB DUP6 AND PUSH1 0x4 DUP3 ADD MSTORE PUSH1 0x24 ADD PUSH2 0x5CE JUMP JUMPDEST POP POP POP POP POP JUMP JUMPDEST PUSH1 0x60 PUSH1 0x0 PUSH2 0x1114 DUP4 PUSH2 0x1544 JUMP JUMPDEST PUSH1 0x1 ADD SWAP1 POP PUSH1 0x0 DUP2 PUSH8 0xFFFFFFFFFFFFFFFF DUP2 GT ISZERO PUSH2 0x1134 JUMPI PUSH2 0x1134 PUSH2 0x1CE2 JUMP JUMPDEST PUSH1 0x40 MLOAD SWAP1 DUP1 DUP3 MSTORE DUP1 PUSH1 0x1F ADD PUSH1 0x1F NOT AND PUSH1 0x20 ADD DUP3 ADD PUSH1 0x40 MSTORE DUP1 ISZERO PUSH2 0x115E JUMPI PUSH1 0x20 DUP3 ADD DUP2 DUP1 CALLDATASIZE DUP4 CALLDATACOPY ADD SWAP1 POP JUMPDEST POP SWAP1 POP DUP2 DUP2 ADD PUSH1 0x20 ADD JUMPDEST PUSH1 0x0 NOT ADD PUSH16 0x181899199A1A9B1B9C1CB0B131B232B3 PUSH1 0x81 SHL PUSH1 0xA DUP7 MOD BYTE DUP2 MSTORE8 PUSH1 0xA DUP6 DIV SWAP5 POP DUP5 PUSH2 0x1168 JUMPI POP SWAP4 SWAP3 POP POP POP JUMP JUMPDEST PUSH1 0xA SLOAD PUSH1 0x1 PUSH1 0x1 PUSH1 0xA0 SHL SUB AND CALLER EQ PUSH2 0x11ED JUMPI PUSH1 0x40 MLOAD PUSH3 0x461BCD PUSH1 0xE5 SHL DUP2 MSTORE PUSH1 0x20 PUSH1 0x4 DUP3 ADD MSTORE PUSH1 0x16 PUSH1 0x24 DUP3 ADD MSTORE PUSH22 0x27B7363C9031B0B63630B1363290313C9037BBB732B9 PUSH1 0x51 SHL PUSH1 0x44 DUP3 ADD MSTORE PUSH1 0x64 ADD PUSH2 0x5CE JUMP JUMPDEST JUMP JUMPDEST CALLER PUSH1 0x1 PUSH1 0x1 PUSH1 0xA0 SHL SUB DUP3 AND SUB PUSH2 0x1247 JUMPI PUSH1 0x40 MLOAD PUSH3 0x461BCD PUSH1 0xE5 SHL DUP2 MSTORE PUSH1 0x20 PUSH1 0x4 DUP3 ADD MSTORE PUSH1 0x17 PUSH1 0x24 DUP3 ADD MSTORE PUSH32 0x43616E6E6F74207472616E7366657220746F2073656C66000000000000000000 PUSH1 0x44 DUP3 ADD MSTORE PUSH1 0x64 ADD PUSH2 0x5CE JUMP JUMPDEST PUSH1 0xB DUP1 SLOAD PUSH1 0x1 PUSH1 0x1 PUSH1 0xA0 SHL SUB NOT AND PUSH1 0x1 PUSH1 0x1 PUSH1 0xA0 SHL SUB DUP4 DUP2 AND SWAP2 DUP3 OR SWAP1 SWAP3 SSTORE PUSH1 0xA SLOAD PUSH1 0x40 MLOAD SWAP2 SWAP3 AND SWAP1 PUSH32 0xED8889F560326EB138920D842192F0EB3DD22B4F139C87A2C57538E05BAE1278 SWAP1 PUSH1 0x0 SWAP1 LOG3 POP JUMP JUMPDEST PUSH1 0x0 PUSH1 0x1 PUSH1 0x1 PUSH1 0xE0 SHL SUB NOT DUP3 AND PUSH4 0x80AC58CD PUSH1 0xE0 SHL EQ DUP1 PUSH2 0x12CA JUMPI POP PUSH1 0x1 PUSH1 0x1 PUSH1 0xE0 SHL SUB NOT DUP3 AND PUSH4 0x5B5E139F PUSH1 0xE0 SHL EQ JUMPDEST DUP1 PUSH2 0x489 JUMPI POP PUSH4 0x1FFC9A7 PUSH1 0xE0 SHL PUSH1 0x1 PUSH1 0x1 PUSH1 0xE0 SHL SUB NOT DUP4 AND EQ PUSH2 0x489 JUMP JUMPDEST DUP1 DUP1 PUSH2 0x12FD JUMPI POP PUSH1 0x1 PUSH1 0x1 PUSH1 0xA0 SHL SUB DUP3 AND ISZERO ISZERO JUMPDEST ISZERO PUSH2 0x13BF JUMPI PUSH1 0x0 PUSH2 0x130D DUP5 PUSH2 0xC99 JUMP JUMPDEST SWAP1 POP PUSH1 0x1 PUSH1 0x1 PUSH1 0xA0 SHL SUB DUP4 AND ISZERO DUP1 ISZERO SWAP1 PUSH2 0x1339 JUMPI POP DUP3 PUSH1 0x1 PUSH1 0x1 PUSH1 0xA0 SHL SUB AND DUP2 PUSH1 0x1 PUSH1 0x1 PUSH1 0xA0 SHL SUB AND EQ ISZERO JUMPDEST DUP1 ISZERO PUSH2 0x134C JUMPI POP PUSH2 0x134A DUP2 DUP5 PUSH2 0xC19 JUMP JUMPDEST ISZERO JUMPDEST ISZERO PUSH2 0x1375 JUMPI PUSH1 0x40 MLOAD PUSH4 0xA9FBF51F PUSH1 0xE0 SHL DUP2 MSTORE PUSH1 0x1 PUSH1 0x1 PUSH1 0xA0 SHL SUB DUP5 AND PUSH1 0x4 DUP3 ADD MSTORE PUSH1 0x24 ADD PUSH2 0x5CE JUMP JUMPDEST DUP2 ISZERO PUSH2 0x13BD JUMPI DUP4 DUP6 PUSH1 0x1 PUSH1 0x1 PUSH1 0xA0 SHL SUB AND DUP3 PUSH1 0x1 PUSH1 0x1 PUSH1 0xA0 SHL SUB AND PUSH32 0x8C5BE1E5EBEC7D5BD14F71427D1E84F3DD0314C0F7B2291E5B200AC8C7C3B925 PUSH1 0x40 MLOAD PUSH1 0x40 MLOAD DUP1 SWAP2 SUB SWAP1 LOG4 JUMPDEST POP JUMPDEST POP POP PUSH1 0x0 SWAP1 DUP2 MSTORE PUSH1 0x4 PUSH1 0x20 MSTORE PUSH1 0x40 SWAP1 KECCAK256 DUP1 SLOAD PUSH1 0x1 PUSH1 0x1 PUSH1 0xA0 SHL SUB NOT AND PUSH1 0x1 PUSH1 0x1 PUSH1 0xA0 SHL SUB SWAP3 SWAP1 SWAP3 AND SWAP2 SWAP1 SWAP2 OR SWAP1 SSTORE JUMP JUMPDEST PUSH1 0x0 DUP1 PUSH2 0x13FD DUP6 DUP6 DUP6 PUSH2 0x161C JUMP JUMPDEST SWAP1 POP PUSH1 0x1 PUSH1 0x1 PUSH1 0xA0 SHL SUB DUP2 AND PUSH2 0x145A JUMPI PUSH2 0x1455 DUP5 PUSH1 0x8 DUP1 SLOAD PUSH1 0x0 DUP4 DUP2 MSTORE PUSH1 0x9 PUSH1 0x20 MSTORE PUSH1 0x40 DUP2 KECCAK256 DUP3 SWAP1 SSTORE PUSH1 0x1 DUP3 ADD DUP4 SSTORE SWAP2 SWAP1 SWAP2 MSTORE PUSH32 0xF3F7A9FE364FAAB93B216DA50A3214154F22A0A2B415B23A84C8169E8B636EE3 ADD SSTORE JUMP JUMPDEST PUSH2 0x147D JUMP JUMPDEST DUP5 PUSH1 0x1 PUSH1 0x1 PUSH1 0xA0 SHL SUB AND DUP2 PUSH1 0x1 PUSH1 0x1 PUSH1 0xA0 SHL SUB AND EQ PUSH2 0x147D JUMPI PUSH2 0x147D DUP2 DUP6 PUSH2 0x1715 JUMP JUMPDEST PUSH1 0x1 PUSH1 0x1 PUSH1 0xA0 SHL SUB DUP6 AND PUSH2 0x1499 JUMPI PUSH2 0x1494 DUP5 PUSH2 0x17A6 JUMP JUMPDEST PUSH2 0xDD6 JUMP JUMPDEST DUP5 PUSH1 0x1 PUSH1 0x1 PUSH1 0xA0 SHL SUB AND DUP2 PUSH1 0x1 PUSH1 0x1 PUSH1 0xA0 SHL SUB AND EQ PUSH2 0xDD6 JUMPI PUSH2 0xDD6 DUP6 DUP6 PUSH2 0x1855 JUMP JUMPDEST PUSH1 0x60 PUSH32 0x92FD13387C7FE7BEFBC38D303D6468778FB9731BC4583F17D92989C6FCFDEAAA DUP3 PUSH1 0x40 MLOAD PUSH1 0x24 ADD PUSH2 0x14F5 SWAP2 MLOAD ISZERO ISZERO DUP2 MSTORE PUSH1 0x20 ADD SWAP1 JUMP JUMPDEST PUSH1 0x40 DUP1 MLOAD PUSH1 0x1F NOT DUP2 DUP5 SUB ADD DUP2 MSTORE SWAP2 SWAP1 MSTORE PUSH1 0x20 DUP2 ADD DUP1 MLOAD PUSH1 0x1 PUSH1 0x1 PUSH1 0xE0 SHL SUB AND PUSH1 0x1 PUSH1 0x1 PUSH1 0xE0 SHL SUB NOT SWAP1 SWAP4 AND SWAP3 SWAP1 SWAP3 OR SWAP1 SWAP2 MSTORE SWAP3 SWAP2 POP POP JUMP JUMPDEST PUSH2 0x1537 DUP4 DUP4 PUSH2 0x18A5 JUMP JUMPDEST PUSH2 0x5E2 PUSH1 0x0 DUP5 DUP5 DUP5 PUSH2 0xFDE JUMP JUMPDEST PUSH1 0x0 DUP1 PUSH19 0x184F03E93FF9F4DAA797ED6E38ED64BF6A1F01 PUSH1 0x40 SHL DUP4 LT PUSH2 0x1583 JUMPI PUSH19 0x184F03E93FF9F4DAA797ED6E38ED64BF6A1F01 PUSH1 0x40 SHL DUP4 DIV SWAP3 POP PUSH1 0x40 ADD JUMPDEST PUSH14 0x4EE2D6D415B85ACEF8100000000 DUP4 LT PUSH2 0x15AF JUMPI PUSH14 0x4EE2D6D415B85ACEF8100000000 DUP4 DIV SWAP3 POP PUSH1 0x20 ADD JUMPDEST PUSH7 0x2386F26FC10000 DUP4 LT PUSH2 0x15CD JUMPI PUSH7 0x2386F26FC10000 DUP4 DIV SWAP3 POP PUSH1 0x10 ADD JUMPDEST PUSH4 0x5F5E100 DUP4 LT PUSH2 0x15E5 JUMPI PUSH4 0x5F5E100 DUP4 DIV SWAP3 POP PUSH1 0x8 ADD JUMPDEST PUSH2 0x2710 DUP4 LT PUSH2 0x15F9 JUMPI PUSH2 0x2710 DUP4 DIV SWAP3 POP PUSH1 0x4 ADD JUMPDEST PUSH1 0x64 DUP4 LT PUSH2 0x160B JUMPI PUSH1 0x64 DUP4 DIV SWAP3 POP PUSH1 0x2 ADD JUMPDEST PUSH1 0xA DUP4 LT PUSH2 0x489 JUMPI PUSH1 0x1 ADD SWAP3 SWAP2 POP POP JUMP JUMPDEST PUSH1 0x0 DUP3 DUP2 MSTORE PUSH1 0x2 PUSH1 0x20 MSTORE PUSH1 0x40 DUP2 KECCAK256 SLOAD PUSH1 0x1 PUSH1 0x1 PUSH1 0xA0 SHL SUB SWAP1 DUP2 AND SWAP1 DUP4 AND ISZERO PUSH2 0x1649 JUMPI PUSH2 0x1649 DUP2 DUP5 DUP7 PUSH2 0x190A JUMP JUMPDEST PUSH1 0x1 PUSH1 0x1 PUSH1 0xA0 SHL SUB DUP2 AND ISZERO PUSH2 0x1687 JUMPI PUSH2 0x1666 PUSH1 0x0 DUP6 PUSH1 0x0 DUP1 PUSH2 0x12E9 JUMP JUMPDEST PUSH1 0x1 PUSH1 0x1 PUSH1 0xA0 SHL SUB DUP2 AND PUSH1 0x0 SWAP1 DUP2 MSTORE PUSH1 0x3 PUSH1 0x20 MSTORE PUSH1 0x40 SWAP1 KECCAK256 DUP1 SLOAD PUSH1 0x0 NOT ADD SWAP1 SSTORE JUMPDEST PUSH1 0x1 PUSH1 0x1 PUSH1 0xA0 SHL SUB DUP6 AND ISZERO PUSH2 0x16B6 JUMPI PUSH1 0x1 PUSH1 0x1 PUSH1 0xA0 SHL SUB DUP6 AND PUSH1 0x0 SWAP1 DUP2 MSTORE PUSH1 0x3 PUSH1 0x20 MSTORE PUSH1 0x40 SWAP1 KECCAK256 DUP1 SLOAD PUSH1 0x1 ADD SWAP1 SSTORE JUMPDEST PUSH1 0x0 DUP5 DUP2 MSTORE PUSH1 0x2 PUSH1 0x20 MSTORE PUSH1 0x40 DUP1 DUP3 KECCAK256 DUP1 SLOAD PUSH1 0x1 PUSH1 0x1 PUSH1 0xA0 SHL SUB NOT AND PUSH1 0x1 PUSH1 0x1 PUSH1 0xA0 SHL SUB DUP10 DUP2 AND SWAP2 DUP3 OR SWAP1 SWAP3 SSTORE SWAP2 MLOAD DUP8 SWAP4 SWAP2 DUP6 AND SWAP2 PUSH32 0xDDF252AD1BE2C89B69C2B068FC378DAA952BA7F163C4A11628F55A4DF523B3EF SWAP2 LOG4 SWAP5 SWAP4 POP POP POP POP JUMP JUMPDEST PUSH1 0x0 PUSH2 0x1720 DUP4 PUSH2 0x973 JUMP JUMPDEST PUSH1 0x0 DUP4 DUP2 MSTORE PUSH1 0x7 PUSH1 0x20 MSTORE PUSH1 0x40 SWAP1 KECCAK256 SLOAD SWAP1 SWAP2 POP DUP1 DUP3 EQ PUSH2 0x1773 JUMPI PUSH1 0x1 PUSH1 0x1 PUSH1 0xA0 SHL SUB DUP5 AND PUSH1 0x0 SWAP1 DUP2 MSTORE PUSH1 0x6 PUSH1 0x20 SWAP1 DUP2 MSTORE PUSH1 0x40 DUP1 DUP4 KECCAK256 DUP6 DUP5 MSTORE DUP3 MSTORE DUP1 DUP4 KECCAK256 SLOAD DUP5 DUP5 MSTORE DUP2 DUP5 KECCAK256 DUP2 SWAP1 SSTORE DUP4 MSTORE PUSH1 0x7 SWAP1 SWAP2 MSTORE SWAP1 KECCAK256 DUP2 SWAP1 SSTORE JUMPDEST POP PUSH1 0x0 SWAP2 DUP3 MSTORE PUSH1 0x7 PUSH1 0x20 SWAP1 DUP2 MSTORE PUSH1 0x40 DUP1 DUP5 KECCAK256 DUP5 SWAP1 SSTORE PUSH1 0x1 PUSH1 0x1 PUSH1 0xA0 SHL SUB SWAP1 SWAP5 AND DUP4 MSTORE PUSH1 0x6 DUP2 MSTORE DUP4 DUP4 KECCAK256 SWAP2 DUP4 MSTORE MSTORE SWAP1 DUP2 KECCAK256 SSTORE JUMP JUMPDEST PUSH1 0x8 SLOAD PUSH1 0x0 SWAP1 PUSH2 0x17B8 SWAP1 PUSH1 0x1 SWAP1 PUSH2 0x207B JUMP JUMPDEST PUSH1 0x0 DUP4 DUP2 MSTORE PUSH1 0x9 PUSH1 0x20 MSTORE PUSH1 0x40 DUP2 KECCAK256 SLOAD PUSH1 0x8 DUP1 SLOAD SWAP4 SWAP5 POP SWAP1 SWAP3 DUP5 SWAP1 DUP2 LT PUSH2 0x17E0 JUMPI PUSH2 0x17E0 PUSH2 0x1F88 JUMP JUMPDEST SWAP1 PUSH1 0x0 MSTORE PUSH1 0x20 PUSH1 0x0 KECCAK256 ADD SLOAD SWAP1 POP DUP1 PUSH1 0x8 DUP4 DUP2 SLOAD DUP2 LT PUSH2 0x1801 JUMPI PUSH2 0x1801 PUSH2 0x1F88 JUMP JUMPDEST PUSH1 0x0 SWAP2 DUP3 MSTORE PUSH1 0x20 DUP1 DUP4 KECCAK256 SWAP1 SWAP2 ADD SWAP3 SWAP1 SWAP3 SSTORE DUP3 DUP2 MSTORE PUSH1 0x9 SWAP1 SWAP2 MSTORE PUSH1 0x40 DUP1 DUP3 KECCAK256 DUP5 SWAP1 SSTORE DUP6 DUP3 MSTORE DUP2 KECCAK256 SSTORE PUSH1 0x8 DUP1 SLOAD DUP1 PUSH2 0x1839 JUMPI PUSH2 0x1839 PUSH2 0x215E JUMP JUMPDEST PUSH1 0x1 SWAP1 SUB DUP2 DUP2 SWAP1 PUSH1 0x0 MSTORE PUSH1 0x20 PUSH1 0x0 KECCAK256 ADD PUSH1 0x0 SWAP1 SSTORE SWAP1 SSTORE POP POP POP POP JUMP JUMPDEST PUSH1 0x0 PUSH1 0x1 PUSH2 0x1862 DUP5 PUSH2 0x973 JUMP JUMPDEST PUSH2 0x186C SWAP2 SWAP1 PUSH2 0x207B JUMP JUMPDEST PUSH1 0x1 PUSH1 0x1 PUSH1 0xA0 SHL SUB SWAP1 SWAP4 AND PUSH1 0x0 SWAP1 DUP2 MSTORE PUSH1 0x6 PUSH1 0x20 SWAP1 DUP2 MSTORE PUSH1 0x40 DUP1 DUP4 KECCAK256 DUP7 DUP5 MSTORE DUP3 MSTORE DUP1 DUP4 KECCAK256 DUP6 SWAP1 SSTORE SWAP4 DUP3 MSTORE PUSH1 0x7 SWAP1 MSTORE SWAP2 SWAP1 SWAP2 KECCAK256 SWAP2 SWAP1 SWAP2 SSTORE POP JUMP JUMPDEST PUSH1 0x1 PUSH1 0x1 PUSH1 0xA0 SHL SUB DUP3 AND PUSH2 0x18CF JUMPI PUSH1 0x40 MLOAD PUSH4 0x32505749 PUSH1 0xE1 SHL DUP2 MSTORE PUSH1 0x0 PUSH1 0x4 DUP3 ADD MSTORE PUSH1 0x24 ADD PUSH2 0x5CE JUMP JUMPDEST PUSH1 0x0 PUSH2 0x18DD DUP4 DUP4 PUSH1 0x0 PUSH2 0xDC9 JUMP JUMPDEST SWAP1 POP PUSH1 0x1 PUSH1 0x1 PUSH1 0xA0 SHL SUB DUP2 AND ISZERO PUSH2 0x5E2 JUMPI PUSH1 0x40 MLOAD PUSH4 0x39E35637 PUSH1 0xE1 SHL DUP2 MSTORE PUSH1 0x0 PUSH1 0x4 DUP3 ADD MSTORE PUSH1 0x24 ADD PUSH2 0x5CE JUMP JUMPDEST PUSH2 0x1915 DUP4 DUP4 DUP4 PUSH2 0x196E JUMP JUMPDEST PUSH2 0x5E2 JUMPI PUSH1 0x1 PUSH1 0x1 PUSH1 0xA0 SHL SUB DUP4 AND PUSH2 0x1943 JUMPI PUSH1 0x40 MLOAD PUSH4 0x7E273289 PUSH1 0xE0 SHL DUP2 MSTORE PUSH1 0x4 DUP2 ADD DUP3 SWAP1 MSTORE PUSH1 0x24 ADD PUSH2 0x5CE JUMP JUMPDEST PUSH1 0x40 MLOAD PUSH4 0x177E802F PUSH1 0xE0 SHL DUP2 MSTORE PUSH1 0x1 PUSH1 0x1 PUSH1 0xA0 SHL SUB DUP4 AND PUSH1 0x4 DUP3 ADD MSTORE PUSH1 0x24 DUP2 ADD DUP3 SWAP1 MSTORE PUSH1 0x44 ADD PUSH2 0x5CE JUMP JUMPDEST PUSH1 0x0 PUSH1 0x1 PUSH1 0x1 PUSH1 0xA0 SHL SUB DUP4 AND ISZERO DUP1 ISZERO SWAP1 PUSH2 0xDD6 JUMPI POP DUP3 PUSH1 0x1 PUSH1 0x1 PUSH1 0xA0 SHL SUB AND DUP5 PUSH1 0x1 PUSH1 0x1 PUSH1 0xA0 SHL SUB AND EQ DUP1 PUSH2 0x19A8 JUMPI POP PUSH2 0x19A8 DUP5 DUP5 PUSH2 0xC19 JUMP JUMPDEST DUP1 PUSH2 0xDD6 JUMPI POP POP PUSH1 0x0 SWAP1 DUP2 MSTORE PUSH1 0x4 PUSH1 0x20 MSTORE PUSH1 0x40 SWAP1 KECCAK256 SLOAD PUSH1 0x1 PUSH1 0x1 PUSH1 0xA0 SHL SUB SWAP1 DUP2 AND SWAP2 AND EQ SWAP2 SWAP1 POP JUMP JUMPDEST PUSH1 0x1 DUP4 ADD SWAP2 DUP4 SWAP1 DUP3 ISZERO PUSH2 0x1A54 JUMPI SWAP2 PUSH1 0x20 MUL DUP3 ADD PUSH1 0x0 JUMPDEST DUP4 DUP3 GT ISZERO PUSH2 0x1A25 JUMPI DUP4 MLOAD DUP4 DUP3 PUSH2 0x100 EXP DUP2 SLOAD DUP2 PUSH1 0xFF MUL NOT AND SWAP1 DUP4 PUSH1 0xFF AND MUL OR SWAP1 SSTORE POP SWAP3 PUSH1 0x20 ADD SWAP3 PUSH1 0x1 ADD PUSH1 0x20 DUP2 PUSH1 0x0 ADD DIV SWAP3 DUP4 ADD SWAP3 PUSH1 0x1 SUB MUL PUSH2 0x19E7 JUMP JUMPDEST DUP1 ISZERO PUSH2 0x1A52 JUMPI DUP3 DUP2 PUSH2 0x100 EXP DUP2 SLOAD SWAP1 PUSH1 0xFF MUL NOT AND SWAP1 SSTORE PUSH1 0x1 ADD PUSH1 0x20 DUP2 PUSH1 0x0 ADD DIV SWAP3 DUP4 ADD SWAP3 PUSH1 0x1 SUB MUL PUSH2 0x1A25 JUMP JUMPDEST POP JUMPDEST POP PUSH2 0x1A60 SWAP3 SWAP2 POP PUSH2 0x1A82 JUMP JUMPDEST POP SWAP1 JUMP JUMPDEST PUSH1 0x40 MLOAD DUP1 PUSH1 0x80 ADD PUSH1 0x40 MSTORE DUP1 PUSH1 0x4 SWAP1 PUSH1 0x20 DUP3 MUL DUP1 CALLDATASIZE DUP4 CALLDATACOPY POP SWAP2 SWAP3 SWAP2 POP POP JUMP JUMPDEST JUMPDEST DUP1 DUP3 GT ISZERO PUSH2 0x1A60 JUMPI PUSH1 0x0 DUP2 SSTORE PUSH1 0x1 ADD PUSH2 0x1A83 JUMP JUMPDEST PUSH1 0x1 PUSH1 0x1 PUSH1 0xE0 SHL SUB NOT DUP2 AND DUP2 EQ PUSH2 0x92F JUMPI PUSH1 0x0 DUP1 REVERT JUMPDEST PUSH1 0x0 PUSH1 0x20 DUP3 DUP5 SUB SLT ISZERO PUSH2 0x1ABF JUMPI PUSH1 0x0 DUP1 REVERT JUMPDEST DUP2 CALLDATALOAD PUSH2 0x1ACA DUP2 PUSH2 0x1A97 JUMP JUMPDEST SWAP4 SWAP3 POP POP POP JUMP JUMPDEST PUSH1 0x0 DUP1 PUSH1 0x40 DUP4 DUP6 SUB SLT ISZERO PUSH2 0x1AE4 JUMPI PUSH1 0x0 DUP1 REVERT JUMPDEST POP POP DUP1 CALLDATALOAD SWAP3 PUSH1 0x20 SWAP1 SWAP2 ADD CALLDATALOAD SWAP2 POP JUMP JUMPDEST PUSH1 0x0 JUMPDEST DUP4 DUP2 LT ISZERO PUSH2 0x1B0E JUMPI DUP2 DUP2 ADD MLOAD DUP4 DUP3 ADD MSTORE PUSH1 0x20 ADD PUSH2 0x1AF6 JUMP JUMPDEST POP POP PUSH1 0x0 SWAP2 ADD MSTORE JUMP JUMPDEST PUSH1 0x0 DUP2 MLOAD DUP1 DUP5 MSTORE PUSH2 0x1B2F DUP2 PUSH1 0x20 DUP7 ADD PUSH1 0x20 DUP7 ADD PUSH2 0x1AF3 JUMP JUMPDEST PUSH1 0x1F ADD PUSH1 0x1F NOT AND SWAP3 SWAP1 SWAP3 ADD PUSH1 0x20 ADD SWAP3 SWAP2 POP POP JUMP JUMPDEST PUSH1 0x20 DUP2 MSTORE PUSH1 0x0 PUSH2 0x1ACA PUSH1 0x20 DUP4 ADD DUP5 PUSH2 0x1B17 JUMP JUMPDEST PUSH1 0x0 PUSH1 0x20 DUP3 DUP5 SUB SLT ISZERO PUSH2 0x1B68 JUMPI PUSH1 0x0 DUP1 REVERT JUMPDEST POP CALLDATALOAD SWAP2 SWAP1 POP JUMP JUMPDEST DUP1 CALLDATALOAD PUSH1 0x1 PUSH1 0x1 PUSH1 0xA0 SHL SUB DUP2 AND DUP2 EQ PUSH2 0x1B86 JUMPI PUSH1 0x0 DUP1 REVERT JUMPDEST SWAP2 SWAP1 POP JUMP JUMPDEST PUSH1 0x0 DUP1 PUSH1 0x40 DUP4 DUP6 SUB SLT ISZERO PUSH2 0x1B9E JUMPI PUSH1 0x0 DUP1 REVERT JUMPDEST PUSH2 0x1BA7 DUP4 PUSH2 0x1B6F JUMP JUMPDEST SWAP5 PUSH1 0x20 SWAP4 SWAP1 SWAP4 ADD CALLDATALOAD SWAP4 POP POP POP JUMP JUMPDEST PUSH1 0x0 DUP1 PUSH1 0x0 PUSH1 0x40 DUP5 DUP7 SUB SLT ISZERO PUSH2 0x1BCA JUMPI PUSH1 0x0 DUP1 REVERT JUMPDEST DUP4 CALLDATALOAD SWAP3 POP PUSH1 0x20 DUP5 ADD CALLDATALOAD PUSH8 0xFFFFFFFFFFFFFFFF DUP1 DUP3 GT ISZERO PUSH2 0x1BE9 JUMPI PUSH1 0x0 DUP1 REVERT JUMPDEST DUP2 DUP7 ADD SWAP2 POP DUP7 PUSH1 0x1F DUP4 ADD SLT PUSH2 0x1BFD JUMPI PUSH1 0x0 DUP1 REVERT JUMPDEST DUP2 CALLDATALOAD DUP2 DUP2 GT ISZERO PUSH2 0x1C0C JUMPI PUSH1 0x0 DUP1 REVERT JUMPDEST DUP8 PUSH1 0x20 DUP3 PUSH1 0x5 SHL DUP6 ADD ADD GT ISZERO PUSH2 0x1C21 JUMPI PUSH1 0x0 DUP1 REVERT JUMPDEST PUSH1 0x20 DUP4 ADD SWAP5 POP DUP1 SWAP4 POP POP POP POP SWAP3 POP SWAP3 POP SWAP3 JUMP JUMPDEST PUSH1 0x0 DUP1 PUSH1 0x0 PUSH1 0x60 DUP5 DUP7 SUB SLT ISZERO PUSH2 0x1C49 JUMPI PUSH1 0x0 DUP1 REVERT JUMPDEST PUSH2 0x1C52 DUP5 PUSH2 0x1B6F JUMP JUMPDEST SWAP3 POP PUSH2 0x1C60 PUSH1 0x20 DUP6 ADD PUSH2 0x1B6F JUMP JUMPDEST SWAP2 POP PUSH1 0x40 DUP5 ADD CALLDATALOAD SWAP1 POP SWAP3 POP SWAP3 POP SWAP3 JUMP JUMPDEST PUSH1 0x0 DUP1 PUSH1 0x20 DUP4 DUP6 SUB SLT ISZERO PUSH2 0x1C83 JUMPI PUSH1 0x0 DUP1 REVERT JUMPDEST DUP3 CALLDATALOAD PUSH8 0xFFFFFFFFFFFFFFFF DUP1 DUP3 GT ISZERO PUSH2 0x1C9B JUMPI PUSH1 0x0 DUP1 REVERT JUMPDEST DUP2 DUP6 ADD SWAP2 POP DUP6 PUSH1 0x1F DUP4 ADD SLT PUSH2 0x1CAF JUMPI PUSH1 0x0 DUP1 REVERT JUMPDEST DUP2 CALLDATALOAD DUP2 DUP2 GT ISZERO PUSH2 0x1CBE JUMPI PUSH1 0x0 DUP1 REVERT JUMPDEST DUP7 PUSH1 0x20 DUP3 DUP6 ADD ADD GT ISZERO PUSH2 0x1CD0 JUMPI PUSH1 0x0 DUP1 REVERT JUMPDEST PUSH1 0x20 SWAP3 SWAP1 SWAP3 ADD SWAP7 SWAP2 SWAP6 POP SWAP1 SWAP4 POP POP POP POP JUMP JUMPDEST PUSH4 0x4E487B71 PUSH1 0xE0 SHL PUSH1 0x0 MSTORE PUSH1 0x41 PUSH1 0x4 MSTORE PUSH1 0x24 PUSH1 0x0 REVERT JUMPDEST PUSH1 0x40 MLOAD PUSH1 0x1F DUP3 ADD PUSH1 0x1F NOT AND DUP2 ADD PUSH8 0xFFFFFFFFFFFFFFFF DUP2 GT DUP3 DUP3 LT OR ISZERO PUSH2 0x1D21 JUMPI PUSH2 0x1D21 PUSH2 0x1CE2 JUMP JUMPDEST PUSH1 0x40 MSTORE SWAP2 SWAP1 POP JUMP JUMPDEST PUSH1 0x0 PUSH1 0x80 DUP3 DUP5 SUB SLT ISZERO PUSH2 0x1D3B JUMPI PUSH1 0x0 DUP1 REVERT JUMPDEST DUP3 PUSH1 0x1F DUP4 ADD SLT PUSH2 0x1D4A JUMPI PUSH1 0x0 DUP1 REVERT JUMPDEST PUSH1 0x40 MLOAD PUSH1 0x80 DUP2 ADD DUP2 DUP2 LT PUSH8 0xFFFFFFFFFFFFFFFF DUP3 GT OR ISZERO PUSH2 0x1D6D JUMPI PUSH2 0x1D6D PUSH2 0x1CE2 JUMP JUMPDEST PUSH1 0x40 MSTORE DUP1 PUSH1 0x80 DUP5 ADD DUP6 DUP2 GT ISZERO PUSH2 0x1D82 JUMPI PUSH1 0x0 DUP1 REVERT JUMPDEST DUP5 JUMPDEST DUP2 DUP2 LT ISZERO PUSH2 0x1DAC JUMPI DUP1 CALLDATALOAD PUSH1 0xFF DUP2 AND DUP2 EQ PUSH2 0x1D9E JUMPI PUSH1 0x0 DUP1 DUP2 REVERT JUMPDEST DUP4 MSTORE PUSH1 0x20 SWAP3 DUP4 ADD SWAP3 ADD PUSH2 0x1D84 JUMP JUMPDEST POP SWAP2 SWAP6 SWAP5 POP POP POP POP POP JUMP JUMPDEST DUP3 ISZERO ISZERO DUP2 MSTORE PUSH1 0x40 PUSH1 0x20 DUP3 ADD MSTORE PUSH1 0x0 PUSH2 0xDD6 PUSH1 0x40 DUP4 ADD DUP5 PUSH2 0x1B17 JUMP JUMPDEST PUSH1 0x0 PUSH1 0x20 DUP3 DUP5 SUB SLT ISZERO PUSH2 0x1DE4 JUMPI PUSH1 0x0 DUP1 REVERT JUMPDEST PUSH2 0x1ACA DUP3 PUSH2 0x1B6F JUMP JUMPDEST DUP1 ISZERO ISZERO DUP2 EQ PUSH2 0x92F JUMPI PUSH1 0x0 DUP1 REVERT JUMPDEST PUSH1 0x0 DUP1 PUSH1 0x40 DUP4 DUP6 SUB SLT ISZERO PUSH2 0x1E0E JUMPI PUSH1 0x0 DUP1 REVERT JUMPDEST PUSH2 0x1E17 DUP4 PUSH2 0x1B6F JUMP JUMPDEST SWAP2 POP PUSH1 0x20 DUP4 ADD CALLDATALOAD PUSH2 0x1E27 DUP2 PUSH2 0x1DED JUMP JUMPDEST DUP1 SWAP2 POP POP SWAP3 POP SWAP3 SWAP1 POP JUMP JUMPDEST PUSH1 0x0 DUP1 PUSH1 0x0 DUP1 PUSH1 0x80 DUP6 DUP8 SUB SLT ISZERO PUSH2 0x1E48 JUMPI PUSH1 0x0 DUP1 REVERT JUMPDEST PUSH2 0x1E51 DUP6 PUSH2 0x1B6F JUMP JUMPDEST SWAP4 POP PUSH1 0x20 PUSH2 0x1E60 DUP2 DUP8 ADD PUSH2 0x1B6F JUMP JUMPDEST SWAP4 POP PUSH1 0x40 DUP7 ADD CALLDATALOAD SWAP3 POP PUSH1 0x60 DUP7 ADD CALLDATALOAD PUSH8 0xFFFFFFFFFFFFFFFF DUP1 DUP3 GT ISZERO PUSH2 0x1E84 JUMPI PUSH1 0x0 DUP1 REVERT JUMPDEST DUP2 DUP9 ADD SWAP2 POP DUP9 PUSH1 0x1F DUP4 ADD SLT PUSH2 0x1E98 JUMPI PUSH1 0x0 DUP1 REVERT JUMPDEST DUP2 CALLDATALOAD DUP2 DUP2 GT ISZERO PUSH2 0x1EAA JUMPI PUSH2 0x1EAA PUSH2 0x1CE2 JUMP JUMPDEST PUSH2 0x1EBC PUSH1 0x1F DUP3 ADD PUSH1 0x1F NOT AND DUP6 ADD PUSH2 0x1CF8 JUMP JUMPDEST SWAP2 POP DUP1 DUP3 MSTORE DUP10 DUP5 DUP3 DUP6 ADD ADD GT ISZERO PUSH2 0x1ED2 JUMPI PUSH1 0x0 DUP1 REVERT JUMPDEST DUP1 DUP5 DUP5 ADD DUP6 DUP5 ADD CALLDATACOPY PUSH1 0x0 DUP5 DUP3 DUP5 ADD ADD MSTORE POP DUP1 SWAP4 POP POP POP POP SWAP3 SWAP6 SWAP2 SWAP5 POP SWAP3 POP JUMP JUMPDEST PUSH1 0x0 DUP1 PUSH1 0x40 DUP4 DUP6 SUB SLT ISZERO PUSH2 0x1F05 JUMPI PUSH1 0x0 DUP1 REVERT JUMPDEST PUSH2 0x1F0E DUP4 PUSH2 0x1B6F JUMP JUMPDEST SWAP2 POP PUSH2 0x1F1C PUSH1 0x20 DUP5 ADD PUSH2 0x1B6F JUMP JUMPDEST SWAP1 POP SWAP3 POP SWAP3 SWAP1 POP JUMP JUMPDEST PUSH1 0x1 DUP2 DUP2 SHR SWAP1 DUP3 AND DUP1 PUSH2 0x1F39 JUMPI PUSH1 0x7F DUP3 AND SWAP2 POP JUMPDEST PUSH1 0x20 DUP3 LT DUP2 SUB PUSH2 0x1F59 JUMPI PUSH4 0x4E487B71 PUSH1 0xE0 SHL PUSH1 0x0 MSTORE PUSH1 0x22 PUSH1 0x4 MSTORE PUSH1 0x24 PUSH1 0x0 REVERT JUMPDEST POP SWAP2 SWAP1 POP JUMP JUMPDEST PUSH4 0x4E487B71 PUSH1 0xE0 SHL PUSH1 0x0 MSTORE PUSH1 0x11 PUSH1 0x4 MSTORE PUSH1 0x24 PUSH1 0x0 REVERT JUMPDEST DUP1 DUP3 ADD DUP1 DUP3 GT ISZERO PUSH2 0x489 JUMPI PUSH2 0x489 PUSH2 0x1F5F JUMP JUMPDEST PUSH4 0x4E487B71 PUSH1 0xE0 SHL PUSH1 0x0 MSTORE PUSH1 0x32 PUSH1 0x4 MSTORE PUSH1 0x24 PUSH1 0x0 REVERT JUMPDEST PUSH1 0x0 PUSH1 0x20 DUP3 DUP5 SUB SLT ISZERO PUSH2 0x1FB0 JUMPI PUSH1 0x0 DUP1 REVERT JUMPDEST DUP2 MLOAD PUSH2 0x1ACA DUP2 PUSH2 0x1DED JUMP JUMPDEST PUSH1 0x0 PUSH1 0x1 DUP3 ADD PUSH2 0x1FCD JUMPI PUSH2 0x1FCD PUSH2 0x1F5F JUMP JUMPDEST POP PUSH1 0x1 ADD SWAP1 JUMP JUMPDEST PUSH1 0x80 DUP2 ADD DUP2 DUP4 PUSH1 0x0 JUMPDEST PUSH1 0x4 DUP2 LT ISZERO PUSH2 0x1FFF JUMPI DUP2 MLOAD PUSH1 0xFF AND DUP4 MSTORE PUSH1 0x20 SWAP3 DUP4 ADD SWAP3 SWAP1 SWAP2 ADD SWAP1 PUSH1 0x1 ADD PUSH2 0x1FDD JUMP JUMPDEST POP POP POP SWAP3 SWAP2 POP POP JUMP JUMPDEST PUSH32 0x68747470733A2F2F6C6F74746F6D6F6A692E636F6D2F6170692F6D6574616461 DUP2 MSTORE PUSH3 0x74612F PUSH1 0xE8 SHL PUSH1 0x20 DUP3 ADD MSTORE PUSH1 0x0 DUP3 MLOAD PUSH2 0x204C DUP2 PUSH1 0x23 DUP6 ADD PUSH1 0x20 DUP8 ADD PUSH2 0x1AF3 JUMP JUMPDEST SWAP2 SWAP1 SWAP2 ADD PUSH1 0x23 ADD SWAP3 SWAP2 POP POP JUMP JUMPDEST PUSH1 0x0 DUP3 PUSH2 0x2076 JUMPI PUSH4 0x4E487B71 PUSH1 0xE0 SHL PUSH1 0x0 MSTORE PUSH1 0x12 PUSH1 0x4 MSTORE PUSH1 0x24 PUSH1 0x0 REVERT JUMPDEST POP MOD SWAP1 JUMP JUMPDEST DUP2 DUP2 SUB DUP2 DUP2 GT ISZERO PUSH2 0x489 JUMPI PUSH2 0x489 PUSH2 0x1F5F JUMP JUMPDEST PUSH1 0x20 DUP2 MSTORE DUP2 MLOAD PUSH1 0x20 DUP3 ADD MSTORE PUSH1 0x20 DUP3 ADD MLOAD PUSH1 0x40 DUP3 ADD MSTORE PUSH2 0xFFFF PUSH1 0x40 DUP4 ADD MLOAD AND PUSH1 0x60 DUP3 ADD MSTORE PUSH1 0x0 PUSH1 0x60 DUP4 ADD MLOAD PUSH4 0xFFFFFFFF DUP1 DUP3 AND PUSH1 0x80 DUP6 ADD MSTORE DUP1 PUSH1 0x80 DUP7 ADD MLOAD AND PUSH1 0xA0 DUP6 ADD MSTORE POP POP PUSH1 0xA0 DUP4 ADD MLOAD PUSH1 0xC0 DUP1 DUP5 ADD MSTORE PUSH2 0xDD6 PUSH1 0xE0 DUP5 ADD DUP3 PUSH2 0x1B17 JUMP JUMPDEST PUSH1 0x0 PUSH1 0x20 DUP3 DUP5 SUB SLT ISZERO PUSH2 0x20FD JUMPI PUSH1 0x0 DUP1 REVERT JUMPDEST POP MLOAD SWAP2 SWAP1 POP JUMP JUMPDEST PUSH1 0x1 PUSH1 0x1 PUSH1 0xA0 SHL SUB DUP6 DUP2 AND DUP3 MSTORE DUP5 AND PUSH1 0x20 DUP3 ADD MSTORE PUSH1 0x40 DUP2 ADD DUP4 SWAP1 MSTORE PUSH1 0x80 PUSH1 0x60 DUP3 ADD DUP2 SWAP1 MSTORE PUSH1 0x0 SWAP1 PUSH2 0x2137 SWAP1 DUP4 ADD DUP5 PUSH2 0x1B17 JUMP JUMPDEST SWAP7 SWAP6 POP POP POP POP POP POP JUMP JUMPDEST PUSH1 0x0 PUSH1 0x20 DUP3 DUP5 SUB SLT ISZERO PUSH2 0x2153 JUMPI PUSH1 0x0 DUP1 REVERT JUMPDEST DUP2 MLOAD PUSH2 0x1ACA DUP2 PUSH2 0x1A97 JUMP JUMPDEST PUSH4 0x4E487B71 PUSH1 0xE0 SHL PUSH1 0x0 MSTORE PUSH1 0x31 PUSH1 0x4 MSTORE PUSH1 0x24 PUSH1 0x0 REVERT INVALID LOG2 PUSH5 0x6970667358 0x22 SLT KECCAK256 0xE2 DUP10 0xBD 0xDF PUSH11 0x970FF6A79C4FCC24338316 PUSH17 0xEE45352E507ADDE82FCDA0D8B83E906473 PUSH16 0x6C634300081400330000000000000000 "},"methodIdentifiers":{"TICKET_PRICE()":"1a95f15f","acceptOwnership()":"79ba5097","approve(address,uint256)":"095ea7b3","automationActive()":"6baf4a74","balanceOf(address)":"70a08231","checkUpkeep(bytes)":"6e04ff0d","getApproved(uint256)":"081812fc","isApprovedForAll(address,address)":"e985e9c5","lastDrawTime()":"5cbbd635","mint(uint8[4])":"673707cd","name()":"06fdde03","owner()":"8da5cb5b","ownerOf(uint256)":"6352211e","performUpkeep(bytes)":"4585e33b","rawFulfillRandomWords(uint256,uint256[])":"1fe543e3","roundWinners(uint256,uint256)":"03e3cd6a","s_vrfCoordinator()":"9eccacf6","safeTransferFrom(address,address,uint256)":"42842e0e","safeTransferFrom(address,address,uint256,bytes)":"b88d4fde","setApprovalForAll(address,bool)":"a22cb465","setCoordinator(address)":"8ea98117","supportsInterface(bytes4)":"01ffc9a7","symbol()":"95d89b41","ticketEmojis(uint256,uint256)":"ea666aa5","tokenByIndex(uint256)":"4f6ccce7","tokenOfOwnerByIndex(address,uint256)":"2f745c59","tokenURI(uint256)":"c87b56dd","totalDrawsExecuted()":"50152c4c","totalSupply()":"18160ddd","transferFrom(address,address,uint256)":"23b872dd","transferOwnership(address)":"f2fde38b","usdc()":"3e413bee"}}}}}