{
  "_format": "hh-sol-artifact-1",
  "contractName": "LottoMojiCoreV4",
  "sourceName": "contracts/LottoMojiCoreV4.sol",
  "abi": [
    {
      "inputs": [
        {
          "internalType": "uint8",
          "name": "_drawHourUTC",
          "type": "uint8"
        },
        {
          "internalType": "address",
          "name": "_paymentToken",
          "type": "address"
        },
        {
          "internalType": "uint256",
          "name": "_ticketPrice",
          "type": "uint256"
        },
        {
          "internalType": "address",
          "name": "_vrfCoordinator",
          "type": "address"
        },
        {
          "internalType": "bytes32",
          "name": "_keyHash",
          "type": "bytes32"
        },
        {
          "internalType": "uint256",
          "name": "_subId",
          "type": "uint256"
        }
      ],
      "stateMutability": "nonpayable",
      "type": "constructor"
    },
    {
      "inputs": [
        {
          "internalType": "address",
          "name": "target",
          "type": "address"
        }
      ],
      "name": "AddressEmptyCode",
      "type": "error"
    },
    {
      "inputs": [
        {
          "internalType": "address",
          "name": "account",
          "type": "address"
        }
      ],
      "name": "AddressInsufficientBalance",
      "type": "error"
    },
    {
      "inputs": [],
      "name": "AlreadyClaimed",
      "type": "error"
    },
    {
      "inputs": [],
      "name": "AutomationPaused",
      "type": "error"
    },
    {
      "inputs": [],
      "name": "BatchDone",
      "type": "error"
    },
    {
      "inputs": [],
      "name": "ERC721EnumerableForbiddenBatchMint",
      "type": "error"
    },
    {
      "inputs": [
        {
          "internalType": "address",
          "name": "sender",
          "type": "address"
        },
        {
          "internalType": "uint256",
          "name": "tokenId",
          "type": "uint256"
        },
        {
          "internalType": "address",
          "name": "owner",
          "type": "address"
        }
      ],
      "name": "ERC721IncorrectOwner",
      "type": "error"
    },
    {
      "inputs": [
        {
          "internalType": "address",
          "name": "operator",
          "type": "address"
        },
        {
          "internalType": "uint256",
          "name": "tokenId",
          "type": "uint256"
        }
      ],
      "name": "ERC721InsufficientApproval",
      "type": "error"
    },
    {
      "inputs": [
        {
          "internalType": "address",
          "name": "approver",
          "type": "address"
        }
      ],
      "name": "ERC721InvalidApprover",
      "type": "error"
    },
    {
      "inputs": [
        {
          "internalType": "address",
          "name": "operator",
          "type": "address"
        }
      ],
      "name": "ERC721InvalidOperator",
      "type": "error"
    },
    {
      "inputs": [
        {
          "internalType": "address",
          "name": "owner",
          "type": "address"
        }
      ],
      "name": "ERC721InvalidOwner",
      "type": "error"
    },
    {
      "inputs": [
        {
          "internalType": "address",
          "name": "receiver",
          "type": "address"
        }
      ],
      "name": "ERC721InvalidReceiver",
      "type": "error"
    },
    {
      "inputs": [
        {
          "internalType": "address",
          "name": "sender",
          "type": "address"
        }
      ],
      "name": "ERC721InvalidSender",
      "type": "error"
    },
    {
      "inputs": [
        {
          "internalType": "uint256",
          "name": "tokenId",
          "type": "uint256"
        }
      ],
      "name": "ERC721NonexistentToken",
      "type": "error"
    },
    {
      "inputs": [
        {
          "internalType": "address",
          "name": "owner",
          "type": "address"
        },
        {
          "internalType": "uint256",
          "name": "index",
          "type": "uint256"
        }
      ],
      "name": "ERC721OutOfBoundsIndex",
      "type": "error"
    },
    {
      "inputs": [],
      "name": "EmergencyPaused",
      "type": "error"
    },
    {
      "inputs": [],
      "name": "FailedInnerCall",
      "type": "error"
    },
    {
      "inputs": [],
      "name": "InvalidEmoji",
      "type": "error"
    },
    {
      "inputs": [],
      "name": "NotWinner",
      "type": "error"
    },
    {
      "inputs": [
        {
          "internalType": "address",
          "name": "have",
          "type": "address"
        },
        {
          "internalType": "address",
          "name": "want",
          "type": "address"
        }
      ],
      "name": "OnlyCoordinatorCanFulfill",
      "type": "error"
    },
    {
      "inputs": [
        {
          "internalType": "address",
          "name": "owner",
          "type": "address"
        }
      ],
      "name": "OwnableInvalidOwner",
      "type": "error"
    },
    {
      "inputs": [
        {
          "internalType": "address",
          "name": "account",
          "type": "address"
        }
      ],
      "name": "OwnableUnauthorizedAccount",
      "type": "error"
    },
    {
      "inputs": [],
      "name": "ReentrancyGuardReentrantCall",
      "type": "error"
    },
    {
      "inputs": [
        {
          "internalType": "address",
          "name": "token",
          "type": "address"
        }
      ],
      "name": "SafeERC20FailedOperation",
      "type": "error"
    },
    {
      "inputs": [],
      "name": "TooEarly",
      "type": "error"
    },
    {
      "inputs": [],
      "name": "TooLate",
      "type": "error"
    },
    {
      "anonymous": false,
      "inputs": [
        {
          "indexed": true,
          "internalType": "address",
          "name": "owner",
          "type": "address"
        },
        {
          "indexed": true,
          "internalType": "address",
          "name": "approved",
          "type": "address"
        },
        {
          "indexed": true,
          "internalType": "uint256",
          "name": "tokenId",
          "type": "uint256"
        }
      ],
      "name": "Approval",
      "type": "event"
    },
    {
      "anonymous": false,
      "inputs": [
        {
          "indexed": true,
          "internalType": "address",
          "name": "owner",
          "type": "address"
        },
        {
          "indexed": true,
          "internalType": "address",
          "name": "operator",
          "type": "address"
        },
        {
          "indexed": false,
          "internalType": "bool",
          "name": "approved",
          "type": "bool"
        }
      ],
      "name": "ApprovalForAll",
      "type": "event"
    },
    {
      "anonymous": false,
      "inputs": [
        {
          "indexed": true,
          "internalType": "uint24",
          "name": "day",
          "type": "uint24"
        },
        {
          "indexed": false,
          "internalType": "uint256",
          "name": "from",
          "type": "uint256"
        },
        {
          "indexed": false,
          "internalType": "uint256",
          "name": "to",
          "type": "uint256"
        }
      ],
      "name": "BatchProcessed",
      "type": "event"
    },
    {
      "anonymous": false,
      "inputs": [
        {
          "indexed": false,
          "internalType": "address",
          "name": "to",
          "type": "address"
        },
        {
          "indexed": false,
          "internalType": "uint256",
          "name": "amount",
          "type": "uint256"
        }
      ],
      "name": "DevelopmentWithdrawn",
      "type": "event"
    },
    {
      "anonymous": false,
      "inputs": [
        {
          "indexed": true,
          "internalType": "uint24",
          "name": "day",
          "type": "uint24"
        },
        {
          "indexed": false,
          "internalType": "uint8[4]",
          "name": "numbers",
          "type": "uint8[4]"
        }
      ],
      "name": "DrawNumbers",
      "type": "event"
    },
    {
      "anonymous": false,
      "inputs": [
        {
          "indexed": true,
          "internalType": "uint24",
          "name": "nextDay",
          "type": "uint24"
        },
        {
          "indexed": false,
          "internalType": "uint256",
          "name": "drawTimestamp",
          "type": "uint256"
        }
      ],
      "name": "NextDrawScheduled",
      "type": "event"
    },
    {
      "anonymous": false,
      "inputs": [
        {
          "indexed": true,
          "internalType": "address",
          "name": "previousOwner",
          "type": "address"
        },
        {
          "indexed": true,
          "internalType": "address",
          "name": "newOwner",
          "type": "address"
        }
      ],
      "name": "OwnershipTransferred",
      "type": "event"
    },
    {
      "anonymous": false,
      "inputs": [
        {
          "indexed": true,
          "internalType": "uint24",
          "name": "day",
          "type": "uint24"
        },
        {
          "indexed": true,
          "internalType": "uint256",
          "name": "ticketId",
          "type": "uint256"
        },
        {
          "indexed": false,
          "internalType": "address",
          "name": "winner",
          "type": "address"
        },
        {
          "indexed": false,
          "internalType": "uint8",
          "name": "level",
          "type": "uint8"
        },
        {
          "indexed": false,
          "internalType": "uint256",
          "name": "amount",
          "type": "uint256"
        }
      ],
      "name": "PrizeClaimed",
      "type": "event"
    },
    {
      "anonymous": false,
      "inputs": [
        {
          "indexed": true,
          "internalType": "uint24",
          "name": "day",
          "type": "uint24"
        },
        {
          "indexed": false,
          "internalType": "uint32",
          "name": "first",
          "type": "uint32"
        },
        {
          "indexed": false,
          "internalType": "uint32",
          "name": "second",
          "type": "uint32"
        },
        {
          "indexed": false,
          "internalType": "uint32",
          "name": "third",
          "type": "uint32"
        }
      ],
      "name": "PrizesCalculated",
      "type": "event"
    },
    {
      "anonymous": false,
      "inputs": [
        {
          "indexed": true,
          "internalType": "address",
          "name": "player",
          "type": "address"
        },
        {
          "indexed": true,
          "internalType": "uint256",
          "name": "ticketId",
          "type": "uint256"
        },
        {
          "indexed": true,
          "internalType": "uint24",
          "name": "day",
          "type": "uint24"
        }
      ],
      "name": "TicketPurchased",
      "type": "event"
    },
    {
      "anonymous": false,
      "inputs": [
        {
          "indexed": true,
          "internalType": "address",
          "name": "from",
          "type": "address"
        },
        {
          "indexed": true,
          "internalType": "address",
          "name": "to",
          "type": "address"
        },
        {
          "indexed": true,
          "internalType": "uint256",
          "name": "tokenId",
          "type": "uint256"
        }
      ],
      "name": "Transfer",
      "type": "event"
    },
    {
      "anonymous": false,
      "inputs": [
        {
          "indexed": true,
          "internalType": "uint256",
          "name": "requestId",
          "type": "uint256"
        },
        {
          "indexed": true,
          "internalType": "uint24",
          "name": "day",
          "type": "uint24"
        }
      ],
      "name": "VRFRequested",
      "type": "event"
    },
    {
      "inputs": [],
      "name": "VRF_CALLBACK_GAS_LIMIT",
      "outputs": [
        {
          "internalType": "uint32",
          "name": "",
          "type": "uint32"
        }
      ],
      "stateMutability": "view",
      "type": "function"
    },
    {
      "inputs": [],
      "name": "VRF_CONFIRMATIONS",
      "outputs": [
        {
          "internalType": "uint16",
          "name": "",
          "type": "uint16"
        }
      ],
      "stateMutability": "view",
      "type": "function"
    },
    {
      "inputs": [],
      "name": "VRF_NUM_WORDS",
      "outputs": [
        {
          "internalType": "uint32",
          "name": "",
          "type": "uint32"
        }
      ],
      "stateMutability": "view",
      "type": "function"
    },
    {
      "inputs": [
        {
          "internalType": "address",
          "name": "to",
          "type": "address"
        },
        {
          "internalType": "uint256",
          "name": "tokenId",
          "type": "uint256"
        }
      ],
      "name": "approve",
      "outputs": [],
      "stateMutability": "nonpayable",
      "type": "function"
    },
    {
      "inputs": [],
      "name": "automationActive",
      "outputs": [
        {
          "internalType": "bool",
          "name": "",
          "type": "bool"
        }
      ],
      "stateMutability": "view",
      "type": "function"
    },
    {
      "inputs": [
        {
          "internalType": "address",
          "name": "owner",
          "type": "address"
        }
      ],
      "name": "balanceOf",
      "outputs": [
        {
          "internalType": "uint256",
          "name": "",
          "type": "uint256"
        }
      ],
      "stateMutability": "view",
      "type": "function"
    },
    {
      "inputs": [
        {
          "internalType": "uint8[4]",
          "name": "emojiNumbers",
          "type": "uint8[4]"
        }
      ],
      "name": "buyTicket",
      "outputs": [],
      "stateMutability": "nonpayable",
      "type": "function"
    },
    {
      "inputs": [
        {
          "internalType": "bytes",
          "name": "",
          "type": "bytes"
        }
      ],
      "name": "checkUpkeep",
      "outputs": [
        {
          "internalType": "bool",
          "name": "upkeepNeeded",
          "type": "bool"
        },
        {
          "internalType": "bytes",
          "name": "performData",
          "type": "bytes"
        }
      ],
      "stateMutability": "view",
      "type": "function"
    },
    {
      "inputs": [
        {
          "internalType": "uint256",
          "name": "ticketId",
          "type": "uint256"
        }
      ],
      "name": "claimPrize",
      "outputs": [],
      "stateMutability": "nonpayable",
      "type": "function"
    },
    {
      "inputs": [],
      "name": "currentGameDay",
      "outputs": [
        {
          "internalType": "uint24",
          "name": "",
          "type": "uint24"
        }
      ],
      "stateMutability": "view",
      "type": "function"
    },
    {
      "inputs": [],
      "name": "dailyDrawHourUTC",
      "outputs": [
        {
          "internalType": "uint8",
          "name": "",
          "type": "uint8"
        }
      ],
      "stateMutability": "view",
      "type": "function"
    },
    {
      "inputs": [
        {
          "internalType": "uint24",
          "name": "",
          "type": "uint24"
        }
      ],
      "name": "dayResults",
      "outputs": [
        {
          "internalType": "uint32",
          "name": "processingIndex",
          "type": "uint32"
        },
        {
          "internalType": "uint32",
          "name": "winnersFirst",
          "type": "uint32"
        },
        {
          "internalType": "uint32",
          "name": "winnersSecond",
          "type": "uint32"
        },
        {
          "internalType": "uint32",
          "name": "winnersThird",
          "type": "uint32"
        },
        {
          "internalType": "bool",
          "name": "fullyProcessed",
          "type": "bool"
        }
      ],
      "stateMutability": "view",
      "type": "function"
    },
    {
      "inputs": [],
      "name": "emergencyPause",
      "outputs": [
        {
          "internalType": "bool",
          "name": "",
          "type": "bool"
        }
      ],
      "stateMutability": "view",
      "type": "function"
    },
    {
      "inputs": [
        {
          "internalType": "uint256",
          "name": "tokenId",
          "type": "uint256"
        }
      ],
      "name": "getApproved",
      "outputs": [
        {
          "internalType": "address",
          "name": "",
          "type": "address"
        }
      ],
      "stateMutability": "view",
      "type": "function"
    },
    {
      "inputs": [
        {
          "internalType": "address",
          "name": "owner",
          "type": "address"
        },
        {
          "internalType": "address",
          "name": "operator",
          "type": "address"
        }
      ],
      "name": "isApprovedForAll",
      "outputs": [
        {
          "internalType": "bool",
          "name": "",
          "type": "bool"
        }
      ],
      "stateMutability": "view",
      "type": "function"
    },
    {
      "inputs": [],
      "name": "name",
      "outputs": [
        {
          "internalType": "string",
          "name": "",
          "type": "string"
        }
      ],
      "stateMutability": "view",
      "type": "function"
    },
    {
      "inputs": [],
      "name": "nextDrawTs",
      "outputs": [
        {
          "internalType": "uint256",
          "name": "",
          "type": "uint256"
        }
      ],
      "stateMutability": "view",
      "type": "function"
    },
    {
      "inputs": [],
      "name": "owner",
      "outputs": [
        {
          "internalType": "address",
          "name": "",
          "type": "address"
        }
      ],
      "stateMutability": "view",
      "type": "function"
    },
    {
      "inputs": [
        {
          "internalType": "uint256",
          "name": "tokenId",
          "type": "uint256"
        }
      ],
      "name": "ownerOf",
      "outputs": [
        {
          "internalType": "address",
          "name": "",
          "type": "address"
        }
      ],
      "stateMutability": "view",
      "type": "function"
    },
    {
      "inputs": [],
      "name": "paymentToken",
      "outputs": [
        {
          "internalType": "contract IERC20",
          "name": "",
          "type": "address"
        }
      ],
      "stateMutability": "view",
      "type": "function"
    },
    {
      "inputs": [
        {
          "internalType": "bytes",
          "name": "",
          "type": "bytes"
        }
      ],
      "name": "performUpkeep",
      "outputs": [],
      "stateMutability": "nonpayable",
      "type": "function"
    },
    {
      "inputs": [],
      "name": "pools",
      "outputs": [
        {
          "internalType": "uint256",
          "name": "firstPrize",
          "type": "uint256"
        },
        {
          "internalType": "uint256",
          "name": "secondPrize",
          "type": "uint256"
        },
        {
          "internalType": "uint256",
          "name": "thirdPrize",
          "type": "uint256"
        },
        {
          "internalType": "uint256",
          "name": "devPool",
          "type": "uint256"
        },
        {
          "internalType": "uint256",
          "name": "firstReserve",
          "type": "uint256"
        },
        {
          "internalType": "uint256",
          "name": "secondReserve",
          "type": "uint256"
        },
        {
          "internalType": "uint256",
          "name": "thirdReserve",
          "type": "uint256"
        }
      ],
      "stateMutability": "view",
      "type": "function"
    },
    {
      "inputs": [
        {
          "internalType": "uint24",
          "name": "day",
          "type": "uint24"
        },
        {
          "internalType": "uint256",
          "name": "batchSize",
          "type": "uint256"
        }
      ],
      "name": "processDrawBatch",
      "outputs": [],
      "stateMutability": "nonpayable",
      "type": "function"
    },
    {
      "inputs": [
        {
          "internalType": "uint256",
          "name": "requestId",
          "type": "uint256"
        },
        {
          "internalType": "uint256[]",
          "name": "randomWords",
          "type": "uint256[]"
        }
      ],
      "name": "rawFulfillRandomWords",
      "outputs": [],
      "stateMutability": "nonpayable",
      "type": "function"
    },
    {
      "inputs": [],
      "name": "renounceOwnership",
      "outputs": [],
      "stateMutability": "nonpayable",
      "type": "function"
    },
    {
      "inputs": [
        {
          "internalType": "address",
          "name": "from",
          "type": "address"
        },
        {
          "internalType": "address",
          "name": "to",
          "type": "address"
        },
        {
          "internalType": "uint256",
          "name": "tokenId",
          "type": "uint256"
        }
      ],
      "name": "safeTransferFrom",
      "outputs": [],
      "stateMutability": "nonpayable",
      "type": "function"
    },
    {
      "inputs": [
        {
          "internalType": "address",
          "name": "from",
          "type": "address"
        },
        {
          "internalType": "address",
          "name": "to",
          "type": "address"
        },
        {
          "internalType": "uint256",
          "name": "tokenId",
          "type": "uint256"
        },
        {
          "internalType": "bytes",
          "name": "data",
          "type": "bytes"
        }
      ],
      "name": "safeTransferFrom",
      "outputs": [],
      "stateMutability": "nonpayable",
      "type": "function"
    },
    {
      "inputs": [
        {
          "internalType": "address",
          "name": "operator",
          "type": "address"
        },
        {
          "internalType": "bool",
          "name": "approved",
          "type": "bool"
        }
      ],
      "name": "setApprovalForAll",
      "outputs": [],
      "stateMutability": "nonpayable",
      "type": "function"
    },
    {
      "inputs": [
        {
          "internalType": "bytes4",
          "name": "interfaceId",
          "type": "bytes4"
        }
      ],
      "name": "supportsInterface",
      "outputs": [
        {
          "internalType": "bool",
          "name": "",
          "type": "bool"
        }
      ],
      "stateMutability": "view",
      "type": "function"
    },
    {
      "inputs": [],
      "name": "symbol",
      "outputs": [
        {
          "internalType": "string",
          "name": "",
          "type": "string"
        }
      ],
      "stateMutability": "view",
      "type": "function"
    },
    {
      "inputs": [],
      "name": "ticketPrice",
      "outputs": [
        {
          "internalType": "uint256",
          "name": "",
          "type": "uint256"
        }
      ],
      "stateMutability": "view",
      "type": "function"
    },
    {
      "inputs": [
        {
          "internalType": "uint256",
          "name": "",
          "type": "uint256"
        }
      ],
      "name": "tickets",
      "outputs": [
        {
          "internalType": "uint40",
          "name": "purchaseTime",
          "type": "uint40"
        },
        {
          "internalType": "uint24",
          "name": "gameDay",
          "type": "uint24"
        },
        {
          "internalType": "bool",
          "name": "claimed",
          "type": "bool"
        }
      ],
      "stateMutability": "view",
      "type": "function"
    },
    {
      "inputs": [],
      "name": "toggleAutomation",
      "outputs": [],
      "stateMutability": "nonpayable",
      "type": "function"
    },
    {
      "inputs": [],
      "name": "toggleEmergencyPause",
      "outputs": [],
      "stateMutability": "nonpayable",
      "type": "function"
    },
    {
      "inputs": [
        {
          "internalType": "uint256",
          "name": "index",
          "type": "uint256"
        }
      ],
      "name": "tokenByIndex",
      "outputs": [
        {
          "internalType": "uint256",
          "name": "",
          "type": "uint256"
        }
      ],
      "stateMutability": "view",
      "type": "function"
    },
    {
      "inputs": [
        {
          "internalType": "address",
          "name": "owner",
          "type": "address"
        },
        {
          "internalType": "uint256",
          "name": "index",
          "type": "uint256"
        }
      ],
      "name": "tokenOfOwnerByIndex",
      "outputs": [
        {
          "internalType": "uint256",
          "name": "",
          "type": "uint256"
        }
      ],
      "stateMutability": "view",
      "type": "function"
    },
    {
      "inputs": [
        {
          "internalType": "uint256",
          "name": "tokenId",
          "type": "uint256"
        }
      ],
      "name": "tokenURI",
      "outputs": [
        {
          "internalType": "string",
          "name": "",
          "type": "string"
        }
      ],
      "stateMutability": "view",
      "type": "function"
    },
    {
      "inputs": [],
      "name": "totalSupply",
      "outputs": [
        {
          "internalType": "uint256",
          "name": "",
          "type": "uint256"
        }
      ],
      "stateMutability": "view",
      "type": "function"
    },
    {
      "inputs": [
        {
          "internalType": "address",
          "name": "from",
          "type": "address"
        },
        {
          "internalType": "address",
          "name": "to",
          "type": "address"
        },
        {
          "internalType": "uint256",
          "name": "tokenId",
          "type": "uint256"
        }
      ],
      "name": "transferFrom",
      "outputs": [],
      "stateMutability": "nonpayable",
      "type": "function"
    },
    {
      "inputs": [
        {
          "internalType": "address",
          "name": "newOwner",
          "type": "address"
        }
      ],
      "name": "transferOwnership",
      "outputs": [],
      "stateMutability": "nonpayable",
      "type": "function"
    },
    {
      "inputs": [],
      "name": "vrfKeyHash",
      "outputs": [
        {
          "internalType": "bytes32",
          "name": "",
          "type": "bytes32"
        }
      ],
      "stateMutability": "view",
      "type": "function"
    },
    {
      "inputs": [],
      "name": "vrfSubId",
      "outputs": [
        {
          "internalType": "uint256",
          "name": "",
          "type": "uint256"
        }
      ],
      "stateMutability": "view",
      "type": "function"
    },
    {
      "inputs": [
        {
          "internalType": "address",
          "name": "to",
          "type": "address"
        }
      ],
      "name": "withdrawDevelopment",
      "outputs": [],
      "stateMutability": "nonpayable",
      "type": "function"
    }
  ],
  "bytecode": "0x610160604052600d805462ffffff19166001908117909155600e819055601a805461ffff191690911790553480156200003757600080fd5b50604051620038a3380380620038a38339810160408190526200005a91620002bb565b82336040518060400160405280601381526020017f4c6f74746f4d6f6a69205469636b65742056340000000000000000000000000081525060405180604001604052806005815260200164131352958d60da1b8152508160009081620000c19190620003cd565b506001620000d08282620003cd565b5050506001600160a01b0381166200010357604051631e4fbdf760e01b8152600060048201526024015b60405180910390fd5b6200010e81620001e4565b506001600b556001600160a01b0316608052601860ff8716106200015f5760405162461bcd60e51b81526020600482015260076024820152661a1bdd5c8f0c8d60ca1b6044820152606401620000fa565b60ff861660a0526001600160a01b0380861660e05260c085905283166101005261012082905261014081905262000197428762000236565b600c819055600d5460405191825262ffffff16907f70aba4eecfb00a70e5aae193521bc256fc3cbf7a91479f6bcda4b5a82f9869619060200160405180910390a250505050505062000502565b600a80546001600160a01b038381166001600160a01b0319831681179093556040519116919082907f8be0079c531659141344cd1fd0a4f28419497f9722a3daafe3b4186f6b6457e090600090a35050565b600080620002486201518085620004af565b620002579062015180620004d2565b905060006200026c60ff8516610e10620004d2565b620002789083620004ec565b90508481116200029457620002916201518082620004ec565b90505b9150505b92915050565b80516001600160a01b0381168114620002b657600080fd5b919050565b60008060008060008060c08789031215620002d557600080fd5b865160ff81168114620002e757600080fd5b9550620002f7602088016200029e565b9450604087015193506200030e606088016200029e565b92506080870151915060a087015190509295509295509295565b634e487b7160e01b600052604160045260246000fd5b600181811c908216806200035357607f821691505b6020821081036200037457634e487b7160e01b600052602260045260246000fd5b50919050565b601f821115620003c857600081815260208120601f850160051c81016020861015620003a35750805b601f850160051c820191505b81811015620003c457828155600101620003af565b5050505b505050565b81516001600160401b03811115620003e957620003e962000328565b6200040181620003fa84546200033e565b846200037a565b602080601f831160018114620004395760008415620004205750858301515b600019600386901b1c1916600185901b178555620003c4565b600085815260208120601f198616915b828110156200046a5788860151825594840194600190910190840162000449565b5085821015620004895787850151600019600388901b60f8161c191681555b5050505050600190811b01905550565b634e487b7160e01b600052601160045260246000fd5b600082620004cd57634e487b7160e01b600052601260045260246000fd5b500490565b808202811582820484141762000298576200029862000499565b8082018082111562000298576200029862000499565b60805160a05160c05160e0516101005161012051610140516133076200059c600039600081816103df0152611ade01526000818161029b0152611aaf01526000611b1f0152600081816103b801528181610a7d0152818161149f015261154601526000818161034801528181610aa10152818161144601526118f40152600061057c015260008181610851015261089301526133076000f3fe608060405234801561001057600080fd5b50600436106102695760003560e01c806351858e2711610151578063a22cb465116100c3578063d01ed8a311610087578063d01ed8a314610662578063d70981541461066c578063d96226a21461067f578063e8cfbe691461070d578063e985e9c514610720578063f2fde38b1461073357600080fd5b8063a22cb465146105c9578063b88d4fde146105dc578063c5c51dca146105ef578063c87b56dd14610646578063c8d519191461065957600080fd5b80636e04ff0d116101155780636e04ff0d1461053b57806370a082311461055c578063715018a61461056f5780638d6ef595146105775780638da5cb5b146105b057806395d89b41146105c157600080fd5b806351858e27146104d95780635c900a1a146104eb5780635d58f930146105085780636352211e1461051b5780636baf4a741461052e57600080fd5b806323b872dd116101ea57806340985c98116101ae57806340985c981461041457806342842e0e1461042f5780634585e33b146104425780634f687e91146104555780634f6ccce71461045d57806350b447121461047057600080fd5b806323b872dd1461038d5780632f745c59146103a05780633013ce29146103b357806332615640146103da5780633d4962ed1461040157600080fd5b80630d50cdb9116102315780630d50cdb9146103205780631209b1f614610343578063147e291f1461036a57806318160ddd146103725780631fe543e31461037a57600080fd5b806301ffc9a71461026e578063041d443e1461029657806306fdde03146102cb578063081812fc146102e0578063095ea7b31461030b575b600080fd5b61028161027c366004612c27565b610746565b60405190151581526020015b60405180910390f35b6102bd7f000000000000000000000000000000000000000000000000000000000000000081565b60405190815260200161028d565b6102d3610757565b60405161028d9190612c94565b6102f36102ee366004612ca7565b6107e9565b6040516001600160a01b03909116815260200161028d565b61031e610319366004612cdc565b610812565b005b600d5461032f9062ffffff1681565b60405162ffffff909116815260200161028d565b6102bd7f000000000000000000000000000000000000000000000000000000000000000081565b61031e610821565b6008546102bd565b61031e610388366004612d4d565b610846565b61031e61039b366004612dff565b6108cf565b6102bd6103ae366004612cdc565b61095a565b6102f37f000000000000000000000000000000000000000000000000000000000000000081565b6102bd7f000000000000000000000000000000000000000000000000000000000000000081565b61031e61040f366004612e3b565b6109bf565b61041c600381565b60405161ffff909116815260200161028d565b61031e61043d366004612dff565b610c12565b61031e610450366004612e63565b610c32565b61031e610d3d565b6102bd61046b366004612ca7565b610d59565b6104b061047e366004612ca7565b600f602052600090815260409020805460029091015464ffffffffff821691600160281b900462ffffff169060ff1683565b6040805164ffffffffff909416845262ffffff909216602084015215159082015260600161028d565b601a5461028190610100900460ff1681565b6104f3600181565b60405163ffffffff909116815260200161028d565b61031e610516366004612ee8565b610db2565b6102f3610529366004612ca7565b611041565b601a546102819060ff1681565b61054e610549366004612e63565b61104c565b60405161028d929190612f04565b6102bd61056a366004612f1f565b611095565b61031e6110dd565b61059e7f000000000000000000000000000000000000000000000000000000000000000081565b60405160ff909116815260200161028d565b600a546001600160a01b03166102f3565b6102d36110f1565b61031e6105d7366004612f48565b611100565b61031e6105ea366004612f7f565b61110b565b6011546012546013546014546015546016546017546106119695949392919087565b604080519788526020880196909652948601939093526060850191909152608084015260a083015260c082015260e00161028d565b6102d3610654366004612ca7565b611122565b6102bd600c5481565b6104f3620493e081565b61031e61067a366004612ca7565b611197565b6106d561068d36600461303f565b60186020526000908152604090206001015463ffffffff808216916401000000008104821691600160401b8204811691600160601b810490911690600160801b900460ff1685565b6040805163ffffffff96871681529486166020860152928516928401929092529092166060820152901515608082015260a00161028d565b61031e61071b366004612f1f565b611528565b61028161072e36600461305a565b6115b3565b61031e610741366004612f1f565b6115e1565b60006107518261161c565b92915050565b6060600080546107669061308d565b80601f01602080910402602001604051908101604052809291908181526020018280546107929061308d565b80156107df5780601f106107b4576101008083540402835291602001916107df565b820191906000526020600020905b8154815290600101906020018083116107c257829003601f168201915b5050505050905090565b60006107f482611641565b506000828152600460205260409020546001600160a01b0316610751565b61081d82823361167a565b5050565b610829611687565b601a805461ff001981166101009182900460ff1615909102179055565b336001600160a01b037f000000000000000000000000000000000000000000000000000000000000000016146108c55760405163073e64fd60e21b81523360048201526001600160a01b037f00000000000000000000000000000000000000000000000000000000000000001660248201526044015b60405180910390fd5b61081d82826116b4565b6001600160a01b0382166108f957604051633250574960e11b8152600060048201526024016108bc565b600061090683833361180c565b9050836001600160a01b0316816001600160a01b031614610954576040516364283d7b60e01b81526001600160a01b03808616600483015260248201849052821660448201526064016108bc565b50505050565b600061096583611095565b82106109965760405163295f44f760e21b81526001600160a01b0384166004820152602481018390526044016108bc565b506001600160a01b03919091166000908152600660209081526040808320938352929052205490565b6109c7611821565b601a54610100900460ff16156109f057604051634cb3183d60e01b815260040160405180910390fd5b600c544210610a125760405163ecdd1c2960e01b815260040160405180910390fd5b60005b6004811015610a6f576018828260048110610a3257610a326130c1565b602002016020810190610a4591906130d7565b60ff161115610a67576040516308214f1760e21b815260040160405180910390fd5b600101610a15565b50610ac56001600160a01b037f00000000000000000000000000000000000000000000000000000000000000001633307f000000000000000000000000000000000000000000000000000000000000000061184b565b600e805460009182610ad683613110565b919050559050610ae633826118b2565b604080516080808201835264ffffffffff42168252600d5462ffffff1660208301528251808201845291928301919085906004908390839080828437600092018290525092845250506020918201819052838152600f8252604090819020835181549385015162ffffff16600160281b0267ffffffffffffffff1990941664ffffffffff90911617929092178255820151610b879060018301906004612b4a565b50606091909101516002909101805460ff1916911515919091179055600d805462ffffff90811660009081526010602090815260408083208054600181018255908452918320909101859055925492519290911691839133917f12eee7f99ea5c9c160467d40a467f18c62607b8d43607d0840f168cc2b55b2e49190a450610c0f6001600b55565b50565b610c2d8383836040518060200160405280600081525061110b565b505050565b601a5460ff161580610c4b5750601a54610100900460ff165b15610c695760405163fc5eaefd60e01b815260040160405180910390fd5b600c54421015610c8c5760405163085de62560e01b815260040160405180910390fd5b600d5462ffffff16610c9d816118cc565b610ca681611aa0565b600d805460019190600090610cc190849062ffffff16613129565b92506101000a81548162ffffff021916908362ffffff16021790555062015180600c6000828254610cf2919061314c565b9091555050600d54600c5460405190815262ffffff909116907f70aba4eecfb00a70e5aae193521bc256fc3cbf7a91479f6bcda4b5a82f9869619060200160405180910390a2505050565b610d45611687565b601a805460ff19811660ff90911615179055565b6000610d6460085490565b8210610d8d5760405163295f44f760e21b815260006004820152602481018390526044016108bc565b60088281548110610da057610da06130c1565b90600052602060002001549050919050565b801580610dc0575061012c81115b15610dca575061012c5b62ffffff821660009081526018602052604090206001810154600160801b900460ff1615610e0b57604051631454e6c760e01b815260040160405180910390fd5b62ffffff831660009081526010602052604081206001830154909163ffffffff90911690610e39858361314c565b8354909150811115610e49575081545b815b81811015610e8957610e79848281548110610e6857610e686130c1565b906000526020600020015486611be6565b610e8281613110565b9050610e4b565b5060018401805463ffffffff191663ffffffff8316179055604080518381526020810183905262ffffff8816917f95f2647279697d92fbfbd24a0e306c284798157a253e2126ebf1451515f6fbd9910160405180910390a2825481036110395760018401805460ff60801b1916600160801b17908190556040805163ffffffff640100000000840481168252600160401b840481166020830152600160601b9093049092169082015262ffffff8716907f9094b2b67842abb4391fc6c54030e03d20642491efeb4eda225641eac3b101279060600160405180910390a26001840154640100000000900463ffffffff1615801590610f88575060155415155b15610fad5760155460118054600090610fa290849061314c565b909155505060006015555b6001840154600160401b900463ffffffff1615801590610fce575060165415155b15610ff35760165460128054600090610fe890849061314c565b909155505060006016555b6001840154600160601b900463ffffffff1615801590611014575060175415155b15611039576017546013805460009061102e90849061314c565b909155505060006017555b505050505050565b600061075182611641565b601a5460009060609060ff16801561106c5750601a54610100900460ff16155b801561107a5750600c544210155b91506040518060200160405280600081525090509250929050565b60006001600160a01b0382166110c1576040516322718ad960e21b8152600060048201526024016108bc565b506001600160a01b031660009081526003602052604090205490565b6110e5611687565b6110ef6000611e6d565b565b6060600180546107669061308d565b61081d338383611ebf565b6111168484846108cf565b61095484848484611f5e565b606061112d82611641565b50600061114560408051602081019091526000815290565b905060008151116111655760405180602001604052806000815250611190565b8061116f84612087565b60405160200161118092919061315f565b6040516020818303038152906040525b9392505050565b61119f611821565b6000818152600f60205260409020600281015460ff16156111d357604051630c8d9eab60e31b815260040160405180910390fd5b336111dd83611041565b6001600160a01b031614611204576040516330c6392160e11b815260040160405180910390fd5b8054600160281b900462ffffff1660009081526018602052604090206001810154600160801b900460ff1661126b5760405162461bcd60e51b815260206004820152600d60248201526c646179206e6f7420726561647960981b60448201526064016108bc565b60408051608081019182905260009161130d919060018601906004908286855b825461010083900a900460ff1681526020600192830181810494850194909303909202910180841161128b5750506040805160808101918290529450889350600492509050826000855b825461010083900a900460ff168152602060019283018181049485019490930390920291018084116112d5579050505050505061211a565b905060008160ff16600114801561133557506001830154640100000000900463ffffffff1615155b1561137c57600183015460115461135a91640100000000900463ffffffff16906131a4565b9050806011600001600082825461137191906131b8565b909155506114839050565b8160ff16600214801561139f57506001830154600160401b900463ffffffff1615155b156113da5760018301546012546113c391600160401b900463ffffffff16906131a4565b9050806011600101600082825461137191906131b8565b8160ff1660031480156113fd57506001830154600160601b900463ffffffff1615155b1561143857600183015460135461142191600160601b900463ffffffff16906131a4565b9050806011600201600082825461137191906131b8565b8160ff1660040361146a57507f0000000000000000000000000000000000000000000000000000000000000000611483565b6040516330c6392160e11b815260040160405180910390fd5b60028401805460ff191660011790556114c66001600160a01b037f00000000000000000000000000000000000000000000000000000000000000001633836122bf565b83546040805133815260ff851660208201529081018390528691600160281b900462ffffff16907ffa7d7e6fad77bb2eb32e03cd3103bcb3df591ea9338a7395a149d9c180a170c79060600160405180910390a350505050610c0f6001600b55565b611530611687565b60148054600090915561156d6001600160a01b037f00000000000000000000000000000000000000000000000000000000000000001683836122bf565b604080516001600160a01b0384168152602081018390527fc32a4a91927ebe92c55e1f8cd216c8a1d74e53b9b0a82b6b982e5dd3ac71af03910160405180910390a15050565b6001600160a01b03918216600090815260056020908152604080832093909416825291909152205460ff1690565b6115e9611687565b6001600160a01b03811661161357604051631e4fbdf760e01b8152600060048201526024016108bc565b610c0f81611e6d565b60006001600160e01b0319821663780e9d6360e01b14806107515750610751826122f0565b6000818152600260205260408120546001600160a01b03168061075157604051637e27328960e01b8152600481018490526024016108bc565b610c2d8383836001612340565b600a546001600160a01b031633146110ef5760405163118cdaa760e01b81523360048201526024016108bc565b60008281526019602090815260408083205462ffffff1680845260189092528220835191929091849082906116eb576116eb6130c1565b6020026020010151905060198161170291906131cb565b825460ff191660ff9190911617825560081c61171f6019826131cb565b825460ff919091166101000261ff001990911617825560081c6117436019826131cb565b825460ff91909116620100000262ff00001990911617825560081c6117696019826131cb565b825463ff000000198116630100000060ff9384160290811780865560018601805470ff000000000000000000000000ffffffff1916905560408051928516938516939093178252600881901c84166020830152601081901c84168284015260181c90921660608301525162ffffff8516917f9dedf238b51cb2f65e712b6f39ab9f3e89a6268d251b582c9ceec37e6ddfba63919081900360800190a25050505050565b6000611819848484612446565b949350505050565b6002600b540361184457604051633ee5aeb560e01b815260040160405180910390fd5b6002600b55565b6040516001600160a01b0384811660248301528381166044830152606482018390526109549186918216906323b872dd906084015b604051602081830303815290604052915060e01b6020820180516001600160e01b038381831617835250505050612513565b61081d828260405180602001604052806000815250612576565b62ffffff8116600090815260106020526040812054908190036118ed575050565b60006119197f0000000000000000000000000000000000000000000000000000000000000000836131df565b90506000606461192a6050846131df565b61193491906131a4565b9050600060646119456014856131df565b61194f91906131a4565b9050606461195e6050846131df565b61196891906131a4565b6011805460009061197a90849061314c565b909155506064905061198d600a846131df565b61199791906131a4565b601280546000906119a990849061314c565b90915550606490506119bc6005846131df565b6119c691906131a4565b601380546000906119d890849061314c565b90915550606490506119eb6005846131df565b6119f591906131a4565b60148054600090611a0790849061314c565b9091555060649050611a1a6050836131df565b611a2491906131a4565b60158054600090611a3690849061314c565b9091555060649050611a49600a836131df565b611a5391906131a4565b60168054600090611a6590849061314c565b9091555060649050611a78600a836131df565b611a8291906131a4565b60178054600090611a9490849061314c565b90915550505050505050565b6040516305d3b1d360e41b81527f0000000000000000000000000000000000000000000000000000000000000000600482015267ffffffffffffffff7f000000000000000000000000000000000000000000000000000000000000000016602482015260036044820152620493e06064820152600160848201526000907f00000000000000000000000000000000000000000000000000000000000000006001600160a01b031690635d3b1d309060a4016020604051808303816000875af1158015611b70573d6000803e3d6000fd5b505050506040513d601f19601f82011682018060405250810190611b9491906131f6565b600081815260196020526040808220805462ffffff191662ffffff871690811790915590519293509183917f6d9c99357d359ebc464c51fb3162f671b2bd8fecd626dd9f4f5e329076aa00f291a35050565b6000828152600f60205260408082208151608081019283905290929184906004908285855b825461010083900a900460ff16815260206001928301818104948501949093039092029101808411611c0b579050505050505090506000805b6004811015611ca657828160048110611c5f57611c5f6130c1565b602002015160ff16846001018260048110611c7c57611c7c6130c1565b602081049091015460ff601f9092166101000a90041603611c9e578160010191505b600101611c44565b508060ff16600403611cf757600184018054600490611cd290640100000000900463ffffffff1661320f565b91906101000a81548163ffffffff021916908363ffffffff1602179055505050505050565b8060ff16600303611d2157600184018054600c90611cd290600160601b900463ffffffff1661320f565b611d29612bdd565b6000805b6004811015611d895782866001018260048110611d4c57611d4c6130c1565b602081049091015460ff601f9092166101000a90041660198110611d7257611d726130c1565b60200201805160ff60019182011690915201611d2d565b5060005b6004811015611e1a57600083868360048110611dab57611dab6130c1565b602002015160ff1660198110611dc357611dc36130c1565b602002015160ff161115611e125781600101915082858260048110611dea57611dea6130c1565b602002015160ff1660198110611e0257611e026130c1565b6020020180516000190160ff1690525b600101611d8d565b508060ff16600403611e6457600186018054600890611e4590600160401b900463ffffffff1661320f565b91906101000a81548163ffffffff021916908363ffffffff1602179055505b50505050505050565b600a80546001600160a01b038381166001600160a01b0319831681179093556040519116919082907f8be0079c531659141344cd1fd0a4f28419497f9722a3daafe3b4186f6b6457e090600090a35050565b6001600160a01b038216611ef157604051630b61174360e31b81526001600160a01b03831660048201526024016108bc565b6001600160a01b03838116600081815260056020908152604080832094871680845294825291829020805460ff191686151590811790915591519182527f17307eab39ab6107e8899845ad3d59bd9653f200f220920489ca2b5937696c31910160405180910390a3505050565b6001600160a01b0383163b1561095457604051630a85bd0160e11b81526001600160a01b0384169063150b7a0290611fa0903390889087908790600401613232565b6020604051808303816000875af1925050508015611fdb575060408051601f3d908101601f19168201909252611fd891810190613265565b60015b612044573d808015612009576040519150601f19603f3d011682016040523d82523d6000602084013e61200e565b606091505b50805160000361203c57604051633250574960e11b81526001600160a01b03851660048201526024016108bc565b805181602001fd5b6001600160e01b03198116630a85bd0160e11b1461208057604051633250574960e11b81526001600160a01b03851660048201526024016108bc565b5050505050565b606060006120948361258d565b600101905060008167ffffffffffffffff8111156120b4576120b4612d06565b6040519080825280601f01601f1916602001820160405280156120de576020820181803683370190505b5090508181016020015b600019016f181899199a1a9b1b9c1cb0b131b232b360811b600a86061a8153600a85049450846120e857509392505050565b60008060005b60048110156121715783816004811061213b5761213b6130c1565b602002015160ff16858260048110612155576121556130c1565b602002015160ff1603612169578160010191505b600101612120565b508060ff16600403612187576001915050610751565b8060ff1660030361219c576003915050610751565b6121a4612bdd565b6000805b60048110156121f357828782600481106121c4576121c46130c1565b602002015160ff16601981106121dc576121dc6130c1565b60200201805160ff600191820116909152016121a8565b5060005b600481101561228457600083878360048110612215576122156130c1565b602002015160ff166019811061222d5761222d6130c1565b602002015160ff16111561227c5781600101915082868260048110612254576122546130c1565b602002015160ff166019811061226c5761226c6130c1565b6020020180516000190160ff1690525b6001016121f7565b508060ff1660040361229c5760029350505050610751565b8060ff166003036122b35760049350505050610751565b50600095945050505050565b6040516001600160a01b03838116602483015260448201839052610c2d91859182169063a9059cbb90606401611880565b60006001600160e01b031982166380ac58cd60e01b148061232157506001600160e01b03198216635b5e139f60e01b145b8061075157506301ffc9a760e01b6001600160e01b0319831614610751565b808061235457506001600160a01b03821615155b1561241657600061236484611641565b90506001600160a01b038316158015906123905750826001600160a01b0316816001600160a01b031614155b80156123a357506123a181846115b3565b155b156123cc5760405163a9fbf51f60e01b81526001600160a01b03841660048201526024016108bc565b81156124145783856001600160a01b0316826001600160a01b03167f8c5be1e5ebec7d5bd14f71427d1e84f3dd0314c0f7b2291e5b200ac8c7c3b92560405160405180910390a45b505b5050600090815260046020526040902080546001600160a01b0319166001600160a01b0392909216919091179055565b600080612454858585612665565b90506001600160a01b0381166124b1576124ac84600880546000838152600960205260408120829055600182018355919091527ff3f7a9fe364faab93b216da50a3214154f22a0a2b415b23a84c8169e8b636ee30155565b6124d4565b846001600160a01b0316816001600160a01b0316146124d4576124d4818561275e565b6001600160a01b0385166124f0576124eb846127ef565b611819565b846001600160a01b0316816001600160a01b03161461181957611819858561289e565b60006125286001600160a01b038416836128ee565b9050805160001415801561254d57508080602001905181019061254b9190613282565b155b15610c2d57604051635274afe760e01b81526001600160a01b03841660048201526024016108bc565b61258083836128fc565b610c2d6000848484611f5e565b60008072184f03e93ff9f4daa797ed6e38ed64bf6a1f0160401b83106125cc5772184f03e93ff9f4daa797ed6e38ed64bf6a1f0160401b830492506040015b6d04ee2d6d415b85acef810000000083106125f8576d04ee2d6d415b85acef8100000000830492506020015b662386f26fc10000831061261657662386f26fc10000830492506010015b6305f5e100831061262e576305f5e100830492506008015b612710831061264257612710830492506004015b60648310612654576064830492506002015b600a83106107515760010192915050565b6000828152600260205260408120546001600160a01b039081169083161561269257612692818486612961565b6001600160a01b038116156126d0576126af600085600080612340565b6001600160a01b038116600090815260036020526040902080546000190190555b6001600160a01b038516156126ff576001600160a01b0385166000908152600360205260409020805460010190555b60008481526002602052604080822080546001600160a01b0319166001600160a01b0389811691821790925591518793918516917fddf252ad1be2c89b69c2b068fc378daa952ba7f163c4a11628f55a4df523b3ef91a4949350505050565b600061276983611095565b6000838152600760205260409020549091508082146127bc576001600160a01b03841660009081526006602090815260408083208584528252808320548484528184208190558352600790915290208190555b5060009182526007602090815260408084208490556001600160a01b039094168352600681528383209183525290812055565b600854600090612801906001906131b8565b60008381526009602052604081205460088054939450909284908110612829576128296130c1565b90600052602060002001549050806008838154811061284a5761284a6130c1565b60009182526020808320909101929092558281526009909152604080822084905585825281205560088054806128825761288261329f565b6001900381819060005260206000200160009055905550505050565b600060016128ab84611095565b6128b591906131b8565b6001600160a01b039093166000908152600660209081526040808320868452825280832085905593825260079052919091209190915550565b6060611190838360006129c5565b6001600160a01b03821661292657604051633250574960e11b8152600060048201526024016108bc565b60006129348383600061180c565b90506001600160a01b03811615610c2d576040516339e3563760e11b8152600060048201526024016108bc565b61296c838383612a62565b610c2d576001600160a01b03831661299a57604051637e27328960e01b8152600481018290526024016108bc565b60405163177e802f60e01b81526001600160a01b0383166004820152602481018290526044016108bc565b6060814710156129ea5760405163cd78605960e01b81523060048201526024016108bc565b600080856001600160a01b03168486604051612a0691906132b5565b60006040518083038185875af1925050503d8060008114612a43576040519150601f19603f3d011682016040523d82523d6000602084013e612a48565b606091505b5091509150612a58868383612ac5565b9695505050505050565b60006001600160a01b038316158015906118195750826001600160a01b0316846001600160a01b03161480612a9c5750612a9c84846115b3565b806118195750506000908152600460205260409020546001600160a01b03908116911614919050565b606082612ada57612ad582612b21565b611190565b8151158015612af157506001600160a01b0384163b155b15612b1a57604051639996b31560e01b81526001600160a01b03851660048201526024016108bc565b5080611190565b805115612b315780518082602001fd5b604051630a12f52160e11b815260040160405180910390fd5b600183019183908215612bcd5791602002820160005b83821115612b9e57835183826101000a81548160ff021916908360ff1602179055509260200192600101602081600001049283019260010302612b60565b8015612bcb5782816101000a81549060ff0219169055600101602081600001049283019260010302612b9e565b505b50612bd9929150612bfc565b5090565b6040518061032001604052806019906020820280368337509192915050565b5b80821115612bd95760008155600101612bfd565b6001600160e01b031981168114610c0f57600080fd5b600060208284031215612c3957600080fd5b813561119081612c11565b60005b83811015612c5f578181015183820152602001612c47565b50506000910152565b60008151808452612c80816020860160208601612c44565b601f01601f19169290920160200192915050565b6020815260006111906020830184612c68565b600060208284031215612cb957600080fd5b5035919050565b80356001600160a01b0381168114612cd757600080fd5b919050565b60008060408385031215612cef57600080fd5b612cf883612cc0565b946020939093013593505050565b634e487b7160e01b600052604160045260246000fd5b604051601f8201601f1916810167ffffffffffffffff81118282101715612d4557612d45612d06565b604052919050565b60008060408385031215612d6057600080fd5b8235915060208084013567ffffffffffffffff80821115612d8057600080fd5b818601915086601f830112612d9457600080fd5b813581811115612da657612da6612d06565b8060051b9150612db7848301612d1c565b8181529183018401918481019089841115612dd157600080fd5b938501935b83851015612def57843582529385019390850190612dd6565b8096505050505050509250929050565b600080600060608486031215612e1457600080fd5b612e1d84612cc0565b9250612e2b60208501612cc0565b9150604084013590509250925092565b600060808284031215612e4d57600080fd5b82608083011115612e5d57600080fd5b50919050565b60008060208385031215612e7657600080fd5b823567ffffffffffffffff80821115612e8e57600080fd5b818501915085601f830112612ea257600080fd5b813581811115612eb157600080fd5b866020828501011115612ec357600080fd5b60209290920196919550909350505050565b803562ffffff81168114612cd757600080fd5b60008060408385031215612efb57600080fd5b612cf883612ed5565b82151581526040602082015260006118196040830184612c68565b600060208284031215612f3157600080fd5b61119082612cc0565b8015158114610c0f57600080fd5b60008060408385031215612f5b57600080fd5b612f6483612cc0565b91506020830135612f7481612f3a565b809150509250929050565b60008060008060808587031215612f9557600080fd5b612f9e85612cc0565b93506020612fad818701612cc0565b935060408601359250606086013567ffffffffffffffff80821115612fd157600080fd5b818801915088601f830112612fe557600080fd5b813581811115612ff757612ff7612d06565b613009601f8201601f19168501612d1c565b9150808252898482850101111561301f57600080fd5b808484018584013760008482840101525080935050505092959194509250565b60006020828403121561305157600080fd5b61119082612ed5565b6000806040838503121561306d57600080fd5b61307683612cc0565b915061308460208401612cc0565b90509250929050565b600181811c908216806130a157607f821691505b602082108103612e5d57634e487b7160e01b600052602260045260246000fd5b634e487b7160e01b600052603260045260246000fd5b6000602082840312156130e957600080fd5b813560ff8116811461119057600080fd5b634e487b7160e01b600052601160045260246000fd5b600060018201613122576131226130fa565b5060010190565b62ffffff818116838216019080821115613145576131456130fa565b5092915050565b80820180821115610751576107516130fa565b60008351613171818460208801612c44565b835190830190613185818360208801612c44565b01949350505050565b634e487b7160e01b600052601260045260246000fd5b6000826131b3576131b361318e565b500490565b81810381811115610751576107516130fa565b6000826131da576131da61318e565b500690565b8082028115828204841417610751576107516130fa565b60006020828403121561320857600080fd5b5051919050565b600063ffffffff808316818103613228576132286130fa565b6001019392505050565b6001600160a01b0385811682528416602082015260408101839052608060608201819052600090612a5890830184612c68565b60006020828403121561327757600080fd5b815161119081612c11565b60006020828403121561329457600080fd5b815161119081612f3a565b634e487b7160e01b600052603160045260246000fd5b600082516132c7818460208701612c44565b919091019291505056fea2646970667358221220d74f3cde9573cc8e36c12f58f5b9540d1c8b35803152178ae0d97d252b456a6f64736f6c63430008140033",
  "linkReferences": {},
  "deployedLinkReferences": {}
}