{
  "_format": "hh-sol-artifact-1",
  "contractName": "LottoMojiCoreV4",
  "sourceName": "contracts/LottoMojiCoreV4.sol",
  "abi": [
    {
      "inputs": [
        {
          "internalType": "uint8",
          "name": "_drawHourUTC",
          "type": "uint8"
        },
        {
          "internalType": "address",
          "name": "_paymentToken",
          "type": "address"
        },
        {
          "internalType": "uint256",
          "name": "_ticketPrice",
          "type": "uint256"
        },
        {
          "internalType": "address",
          "name": "_vrfCoordinator",
          "type": "address"
        },
        {
          "internalType": "bytes32",
          "name": "_keyHash",
          "type": "bytes32"
        },
        {
          "internalType": "uint256",
          "name": "_subId",
          "type": "uint256"
        }
      ],
      "stateMutability": "nonpayable",
      "type": "constructor"
    },
    {
      "inputs": [
        {
          "internalType": "address",
          "name": "target",
          "type": "address"
        }
      ],
      "name": "AddressEmptyCode",
      "type": "error"
    },
    {
      "inputs": [
        {
          "internalType": "address",
          "name": "account",
          "type": "address"
        }
      ],
      "name": "AddressInsufficientBalance",
      "type": "error"
    },
    {
      "inputs": [],
      "name": "AlreadyClaimed",
      "type": "error"
    },
    {
      "inputs": [],
      "name": "AutomationPaused",
      "type": "error"
    },
    {
      "inputs": [],
      "name": "BatchDone",
      "type": "error"
    },
    {
      "inputs": [],
      "name": "ERC721EnumerableForbiddenBatchMint",
      "type": "error"
    },
    {
      "inputs": [
        {
          "internalType": "address",
          "name": "sender",
          "type": "address"
        },
        {
          "internalType": "uint256",
          "name": "tokenId",
          "type": "uint256"
        },
        {
          "internalType": "address",
          "name": "owner",
          "type": "address"
        }
      ],
      "name": "ERC721IncorrectOwner",
      "type": "error"
    },
    {
      "inputs": [
        {
          "internalType": "address",
          "name": "operator",
          "type": "address"
        },
        {
          "internalType": "uint256",
          "name": "tokenId",
          "type": "uint256"
        }
      ],
      "name": "ERC721InsufficientApproval",
      "type": "error"
    },
    {
      "inputs": [
        {
          "internalType": "address",
          "name": "approver",
          "type": "address"
        }
      ],
      "name": "ERC721InvalidApprover",
      "type": "error"
    },
    {
      "inputs": [
        {
          "internalType": "address",
          "name": "operator",
          "type": "address"
        }
      ],
      "name": "ERC721InvalidOperator",
      "type": "error"
    },
    {
      "inputs": [
        {
          "internalType": "address",
          "name": "owner",
          "type": "address"
        }
      ],
      "name": "ERC721InvalidOwner",
      "type": "error"
    },
    {
      "inputs": [
        {
          "internalType": "address",
          "name": "receiver",
          "type": "address"
        }
      ],
      "name": "ERC721InvalidReceiver",
      "type": "error"
    },
    {
      "inputs": [
        {
          "internalType": "address",
          "name": "sender",
          "type": "address"
        }
      ],
      "name": "ERC721InvalidSender",
      "type": "error"
    },
    {
      "inputs": [
        {
          "internalType": "uint256",
          "name": "tokenId",
          "type": "uint256"
        }
      ],
      "name": "ERC721NonexistentToken",
      "type": "error"
    },
    {
      "inputs": [
        {
          "internalType": "address",
          "name": "owner",
          "type": "address"
        },
        {
          "internalType": "uint256",
          "name": "index",
          "type": "uint256"
        }
      ],
      "name": "ERC721OutOfBoundsIndex",
      "type": "error"
    },
    {
      "inputs": [],
      "name": "EmergencyPaused",
      "type": "error"
    },
    {
      "inputs": [],
      "name": "FailedInnerCall",
      "type": "error"
    },
    {
      "inputs": [],
      "name": "InvalidEmoji",
      "type": "error"
    },
    {
      "inputs": [],
      "name": "NotWinner",
      "type": "error"
    },
    {
      "inputs": [
        {
          "internalType": "address",
          "name": "have",
          "type": "address"
        },
        {
          "internalType": "address",
          "name": "want",
          "type": "address"
        }
      ],
      "name": "OnlyCoordinatorCanFulfill",
      "type": "error"
    },
    {
      "inputs": [
        {
          "internalType": "address",
          "name": "have",
          "type": "address"
        },
        {
          "internalType": "address",
          "name": "owner",
          "type": "address"
        },
        {
          "internalType": "address",
          "name": "coordinator",
          "type": "address"
        }
      ],
      "name": "OnlyOwnerOrCoordinator",
      "type": "error"
    },
    {
      "inputs": [],
      "name": "ReentrancyGuardReentrantCall",
      "type": "error"
    },
    {
      "inputs": [
        {
          "internalType": "address",
          "name": "token",
          "type": "address"
        }
      ],
      "name": "SafeERC20FailedOperation",
      "type": "error"
    },
    {
      "inputs": [],
      "name": "TooEarly",
      "type": "error"
    },
    {
      "inputs": [],
      "name": "TooLate",
      "type": "error"
    },
    {
      "inputs": [],
      "name": "ZeroAddress",
      "type": "error"
    },
    {
      "anonymous": false,
      "inputs": [
        {
          "indexed": true,
          "internalType": "address",
          "name": "owner",
          "type": "address"
        },
        {
          "indexed": true,
          "internalType": "address",
          "name": "approved",
          "type": "address"
        },
        {
          "indexed": true,
          "internalType": "uint256",
          "name": "tokenId",
          "type": "uint256"
        }
      ],
      "name": "Approval",
      "type": "event"
    },
    {
      "anonymous": false,
      "inputs": [
        {
          "indexed": true,
          "internalType": "address",
          "name": "owner",
          "type": "address"
        },
        {
          "indexed": true,
          "internalType": "address",
          "name": "operator",
          "type": "address"
        },
        {
          "indexed": false,
          "internalType": "bool",
          "name": "approved",
          "type": "bool"
        }
      ],
      "name": "ApprovalForAll",
      "type": "event"
    },
    {
      "anonymous": false,
      "inputs": [
        {
          "indexed": true,
          "internalType": "uint24",
          "name": "day",
          "type": "uint24"
        },
        {
          "indexed": false,
          "internalType": "uint256",
          "name": "from",
          "type": "uint256"
        },
        {
          "indexed": false,
          "internalType": "uint256",
          "name": "to",
          "type": "uint256"
        }
      ],
      "name": "BatchProcessed",
      "type": "event"
    },
    {
      "anonymous": false,
      "inputs": [
        {
          "indexed": false,
          "internalType": "address",
          "name": "vrfCoordinator",
          "type": "address"
        }
      ],
      "name": "CoordinatorSet",
      "type": "event"
    },
    {
      "anonymous": false,
      "inputs": [
        {
          "indexed": false,
          "internalType": "address",
          "name": "to",
          "type": "address"
        },
        {
          "indexed": false,
          "internalType": "uint256",
          "name": "amount",
          "type": "uint256"
        }
      ],
      "name": "DevelopmentWithdrawn",
      "type": "event"
    },
    {
      "anonymous": false,
      "inputs": [
        {
          "indexed": true,
          "internalType": "uint24",
          "name": "day",
          "type": "uint24"
        },
        {
          "indexed": false,
          "internalType": "uint8[4]",
          "name": "numbers",
          "type": "uint8[4]"
        }
      ],
      "name": "DrawNumbers",
      "type": "event"
    },
    {
      "anonymous": false,
      "inputs": [
        {
          "indexed": true,
          "internalType": "uint24",
          "name": "nextDay",
          "type": "uint24"
        },
        {
          "indexed": false,
          "internalType": "uint256",
          "name": "drawTimestamp",
          "type": "uint256"
        }
      ],
      "name": "NextDrawScheduled",
      "type": "event"
    },
    {
      "anonymous": false,
      "inputs": [
        {
          "indexed": true,
          "internalType": "address",
          "name": "from",
          "type": "address"
        },
        {
          "indexed": true,
          "internalType": "address",
          "name": "to",
          "type": "address"
        }
      ],
      "name": "OwnershipTransferRequested",
      "type": "event"
    },
    {
      "anonymous": false,
      "inputs": [
        {
          "indexed": true,
          "internalType": "address",
          "name": "from",
          "type": "address"
        },
        {
          "indexed": true,
          "internalType": "address",
          "name": "to",
          "type": "address"
        }
      ],
      "name": "OwnershipTransferred",
      "type": "event"
    },
    {
      "anonymous": false,
      "inputs": [
        {
          "indexed": true,
          "internalType": "uint24",
          "name": "day",
          "type": "uint24"
        },
        {
          "indexed": true,
          "internalType": "uint256",
          "name": "ticketId",
          "type": "uint256"
        },
        {
          "indexed": false,
          "internalType": "address",
          "name": "winner",
          "type": "address"
        },
        {
          "indexed": false,
          "internalType": "uint8",
          "name": "level",
          "type": "uint8"
        },
        {
          "indexed": false,
          "internalType": "uint256",
          "name": "amount",
          "type": "uint256"
        }
      ],
      "name": "PrizeClaimed",
      "type": "event"
    },
    {
      "anonymous": false,
      "inputs": [
        {
          "indexed": true,
          "internalType": "uint24",
          "name": "day",
          "type": "uint24"
        },
        {
          "indexed": false,
          "internalType": "uint32",
          "name": "first",
          "type": "uint32"
        },
        {
          "indexed": false,
          "internalType": "uint32",
          "name": "second",
          "type": "uint32"
        },
        {
          "indexed": false,
          "internalType": "uint32",
          "name": "third",
          "type": "uint32"
        }
      ],
      "name": "PrizesCalculated",
      "type": "event"
    },
    {
      "anonymous": false,
      "inputs": [
        {
          "indexed": true,
          "internalType": "address",
          "name": "player",
          "type": "address"
        },
        {
          "indexed": true,
          "internalType": "uint256",
          "name": "ticketId",
          "type": "uint256"
        },
        {
          "indexed": true,
          "internalType": "uint24",
          "name": "day",
          "type": "uint24"
        }
      ],
      "name": "TicketPurchased",
      "type": "event"
    },
    {
      "anonymous": false,
      "inputs": [
        {
          "indexed": true,
          "internalType": "address",
          "name": "from",
          "type": "address"
        },
        {
          "indexed": true,
          "internalType": "address",
          "name": "to",
          "type": "address"
        },
        {
          "indexed": true,
          "internalType": "uint256",
          "name": "tokenId",
          "type": "uint256"
        }
      ],
      "name": "Transfer",
      "type": "event"
    },
    {
      "anonymous": false,
      "inputs": [
        {
          "indexed": true,
          "internalType": "uint256",
          "name": "requestId",
          "type": "uint256"
        },
        {
          "indexed": true,
          "internalType": "uint24",
          "name": "day",
          "type": "uint24"
        }
      ],
      "name": "VRFRequested",
      "type": "event"
    },
    {
      "inputs": [],
      "name": "VRF_CALLBACK_GAS_LIMIT",
      "outputs": [
        {
          "internalType": "uint32",
          "name": "",
          "type": "uint32"
        }
      ],
      "stateMutability": "view",
      "type": "function"
    },
    {
      "inputs": [],
      "name": "VRF_CONFIRMATIONS",
      "outputs": [
        {
          "internalType": "uint16",
          "name": "",
          "type": "uint16"
        }
      ],
      "stateMutability": "view",
      "type": "function"
    },
    {
      "inputs": [],
      "name": "VRF_NUM_WORDS",
      "outputs": [
        {
          "internalType": "uint32",
          "name": "",
          "type": "uint32"
        }
      ],
      "stateMutability": "view",
      "type": "function"
    },
    {
      "inputs": [],
      "name": "acceptOwnership",
      "outputs": [],
      "stateMutability": "nonpayable",
      "type": "function"
    },
    {
      "inputs": [
        {
          "internalType": "address",
          "name": "to",
          "type": "address"
        },
        {
          "internalType": "uint256",
          "name": "tokenId",
          "type": "uint256"
        }
      ],
      "name": "approve",
      "outputs": [],
      "stateMutability": "nonpayable",
      "type": "function"
    },
    {
      "inputs": [],
      "name": "automationActive",
      "outputs": [
        {
          "internalType": "bool",
          "name": "",
          "type": "bool"
        }
      ],
      "stateMutability": "view",
      "type": "function"
    },
    {
      "inputs": [
        {
          "internalType": "address",
          "name": "owner",
          "type": "address"
        }
      ],
      "name": "balanceOf",
      "outputs": [
        {
          "internalType": "uint256",
          "name": "",
          "type": "uint256"
        }
      ],
      "stateMutability": "view",
      "type": "function"
    },
    {
      "inputs": [
        {
          "internalType": "uint8[4]",
          "name": "emojiNumbers",
          "type": "uint8[4]"
        }
      ],
      "name": "buyTicket",
      "outputs": [],
      "stateMutability": "nonpayable",
      "type": "function"
    },
    {
      "inputs": [
        {
          "internalType": "bytes",
          "name": "",
          "type": "bytes"
        }
      ],
      "name": "checkUpkeep",
      "outputs": [
        {
          "internalType": "bool",
          "name": "upkeepNeeded",
          "type": "bool"
        },
        {
          "internalType": "bytes",
          "name": "performData",
          "type": "bytes"
        }
      ],
      "stateMutability": "view",
      "type": "function"
    },
    {
      "inputs": [
        {
          "internalType": "uint256",
          "name": "ticketId",
          "type": "uint256"
        }
      ],
      "name": "claimPrize",
      "outputs": [],
      "stateMutability": "nonpayable",
      "type": "function"
    },
    {
      "inputs": [],
      "name": "currentGameDay",
      "outputs": [
        {
          "internalType": "uint24",
          "name": "",
          "type": "uint24"
        }
      ],
      "stateMutability": "view",
      "type": "function"
    },
    {
      "inputs": [],
      "name": "dailyDrawHourUTC",
      "outputs": [
        {
          "internalType": "uint8",
          "name": "",
          "type": "uint8"
        }
      ],
      "stateMutability": "view",
      "type": "function"
    },
    {
      "inputs": [
        {
          "internalType": "uint24",
          "name": "",
          "type": "uint24"
        }
      ],
      "name": "dayResults",
      "outputs": [
        {
          "internalType": "uint32",
          "name": "processingIndex",
          "type": "uint32"
        },
        {
          "internalType": "uint32",
          "name": "winnersFirst",
          "type": "uint32"
        },
        {
          "internalType": "uint32",
          "name": "winnersSecond",
          "type": "uint32"
        },
        {
          "internalType": "uint32",
          "name": "winnersThird",
          "type": "uint32"
        },
        {
          "internalType": "bool",
          "name": "fullyProcessed",
          "type": "bool"
        }
      ],
      "stateMutability": "view",
      "type": "function"
    },
    {
      "inputs": [],
      "name": "emergencyPause",
      "outputs": [
        {
          "internalType": "bool",
          "name": "",
          "type": "bool"
        }
      ],
      "stateMutability": "view",
      "type": "function"
    },
    {
      "inputs": [
        {
          "internalType": "uint256",
          "name": "tokenId",
          "type": "uint256"
        }
      ],
      "name": "getApproved",
      "outputs": [
        {
          "internalType": "address",
          "name": "",
          "type": "address"
        }
      ],
      "stateMutability": "view",
      "type": "function"
    },
    {
      "inputs": [
        {
          "internalType": "address",
          "name": "owner",
          "type": "address"
        },
        {
          "internalType": "address",
          "name": "operator",
          "type": "address"
        }
      ],
      "name": "isApprovedForAll",
      "outputs": [
        {
          "internalType": "bool",
          "name": "",
          "type": "bool"
        }
      ],
      "stateMutability": "view",
      "type": "function"
    },
    {
      "inputs": [],
      "name": "name",
      "outputs": [
        {
          "internalType": "string",
          "name": "",
          "type": "string"
        }
      ],
      "stateMutability": "view",
      "type": "function"
    },
    {
      "inputs": [],
      "name": "nextDrawTs",
      "outputs": [
        {
          "internalType": "uint256",
          "name": "",
          "type": "uint256"
        }
      ],
      "stateMutability": "view",
      "type": "function"
    },
    {
      "inputs": [],
      "name": "owner",
      "outputs": [
        {
          "internalType": "address",
          "name": "",
          "type": "address"
        }
      ],
      "stateMutability": "view",
      "type": "function"
    },
    {
      "inputs": [
        {
          "internalType": "uint256",
          "name": "tokenId",
          "type": "uint256"
        }
      ],
      "name": "ownerOf",
      "outputs": [
        {
          "internalType": "address",
          "name": "",
          "type": "address"
        }
      ],
      "stateMutability": "view",
      "type": "function"
    },
    {
      "inputs": [],
      "name": "paymentToken",
      "outputs": [
        {
          "internalType": "contract IERC20",
          "name": "",
          "type": "address"
        }
      ],
      "stateMutability": "view",
      "type": "function"
    },
    {
      "inputs": [
        {
          "internalType": "bytes",
          "name": "",
          "type": "bytes"
        }
      ],
      "name": "performUpkeep",
      "outputs": [],
      "stateMutability": "nonpayable",
      "type": "function"
    },
    {
      "inputs": [],
      "name": "pools",
      "outputs": [
        {
          "internalType": "uint256",
          "name": "firstPrize",
          "type": "uint256"
        },
        {
          "internalType": "uint256",
          "name": "secondPrize",
          "type": "uint256"
        },
        {
          "internalType": "uint256",
          "name": "thirdPrize",
          "type": "uint256"
        },
        {
          "internalType": "uint256",
          "name": "devPool",
          "type": "uint256"
        },
        {
          "internalType": "uint256",
          "name": "firstReserve",
          "type": "uint256"
        },
        {
          "internalType": "uint256",
          "name": "secondReserve",
          "type": "uint256"
        },
        {
          "internalType": "uint256",
          "name": "thirdReserve",
          "type": "uint256"
        }
      ],
      "stateMutability": "view",
      "type": "function"
    },
    {
      "inputs": [
        {
          "internalType": "uint24",
          "name": "day",
          "type": "uint24"
        },
        {
          "internalType": "uint256",
          "name": "batchSize",
          "type": "uint256"
        }
      ],
      "name": "processDrawBatch",
      "outputs": [],
      "stateMutability": "nonpayable",
      "type": "function"
    },
    {
      "inputs": [
        {
          "internalType": "uint256",
          "name": "requestId",
          "type": "uint256"
        },
        {
          "internalType": "uint256[]",
          "name": "randomWords",
          "type": "uint256[]"
        }
      ],
      "name": "rawFulfillRandomWords",
      "outputs": [],
      "stateMutability": "nonpayable",
      "type": "function"
    },
    {
      "inputs": [],
      "name": "s_vrfCoordinator",
      "outputs": [
        {
          "internalType": "contract IVRFCoordinatorV2Plus",
          "name": "",
          "type": "address"
        }
      ],
      "stateMutability": "view",
      "type": "function"
    },
    {
      "inputs": [
        {
          "internalType": "address",
          "name": "from",
          "type": "address"
        },
        {
          "internalType": "address",
          "name": "to",
          "type": "address"
        },
        {
          "internalType": "uint256",
          "name": "tokenId",
          "type": "uint256"
        }
      ],
      "name": "safeTransferFrom",
      "outputs": [],
      "stateMutability": "nonpayable",
      "type": "function"
    },
    {
      "inputs": [
        {
          "internalType": "address",
          "name": "from",
          "type": "address"
        },
        {
          "internalType": "address",
          "name": "to",
          "type": "address"
        },
        {
          "internalType": "uint256",
          "name": "tokenId",
          "type": "uint256"
        },
        {
          "internalType": "bytes",
          "name": "data",
          "type": "bytes"
        }
      ],
      "name": "safeTransferFrom",
      "outputs": [],
      "stateMutability": "nonpayable",
      "type": "function"
    },
    {
      "inputs": [
        {
          "internalType": "address",
          "name": "operator",
          "type": "address"
        },
        {
          "internalType": "bool",
          "name": "approved",
          "type": "bool"
        }
      ],
      "name": "setApprovalForAll",
      "outputs": [],
      "stateMutability": "nonpayable",
      "type": "function"
    },
    {
      "inputs": [
        {
          "internalType": "address",
          "name": "_vrfCoordinator",
          "type": "address"
        }
      ],
      "name": "setCoordinator",
      "outputs": [],
      "stateMutability": "nonpayable",
      "type": "function"
    },
    {
      "inputs": [
        {
          "internalType": "bytes4",
          "name": "interfaceId",
          "type": "bytes4"
        }
      ],
      "name": "supportsInterface",
      "outputs": [
        {
          "internalType": "bool",
          "name": "",
          "type": "bool"
        }
      ],
      "stateMutability": "view",
      "type": "function"
    },
    {
      "inputs": [],
      "name": "symbol",
      "outputs": [
        {
          "internalType": "string",
          "name": "",
          "type": "string"
        }
      ],
      "stateMutability": "view",
      "type": "function"
    },
    {
      "inputs": [],
      "name": "ticketPrice",
      "outputs": [
        {
          "internalType": "uint256",
          "name": "",
          "type": "uint256"
        }
      ],
      "stateMutability": "view",
      "type": "function"
    },
    {
      "inputs": [
        {
          "internalType": "uint256",
          "name": "",
          "type": "uint256"
        }
      ],
      "name": "tickets",
      "outputs": [
        {
          "internalType": "uint40",
          "name": "purchaseTime",
          "type": "uint40"
        },
        {
          "internalType": "uint24",
          "name": "gameDay",
          "type": "uint24"
        },
        {
          "internalType": "bool",
          "name": "claimed",
          "type": "bool"
        }
      ],
      "stateMutability": "view",
      "type": "function"
    },
    {
      "inputs": [],
      "name": "toggleAutomation",
      "outputs": [],
      "stateMutability": "nonpayable",
      "type": "function"
    },
    {
      "inputs": [],
      "name": "toggleEmergencyPause",
      "outputs": [],
      "stateMutability": "nonpayable",
      "type": "function"
    },
    {
      "inputs": [
        {
          "internalType": "uint256",
          "name": "index",
          "type": "uint256"
        }
      ],
      "name": "tokenByIndex",
      "outputs": [
        {
          "internalType": "uint256",
          "name": "",
          "type": "uint256"
        }
      ],
      "stateMutability": "view",
      "type": "function"
    },
    {
      "inputs": [
        {
          "internalType": "address",
          "name": "owner",
          "type": "address"
        },
        {
          "internalType": "uint256",
          "name": "index",
          "type": "uint256"
        }
      ],
      "name": "tokenOfOwnerByIndex",
      "outputs": [
        {
          "internalType": "uint256",
          "name": "",
          "type": "uint256"
        }
      ],
      "stateMutability": "view",
      "type": "function"
    },
    {
      "inputs": [
        {
          "internalType": "uint256",
          "name": "tokenId",
          "type": "uint256"
        }
      ],
      "name": "tokenURI",
      "outputs": [
        {
          "internalType": "string",
          "name": "",
          "type": "string"
        }
      ],
      "stateMutability": "view",
      "type": "function"
    },
    {
      "inputs": [],
      "name": "totalSupply",
      "outputs": [
        {
          "internalType": "uint256",
          "name": "",
          "type": "uint256"
        }
      ],
      "stateMutability": "view",
      "type": "function"
    },
    {
      "inputs": [
        {
          "internalType": "address",
          "name": "from",
          "type": "address"
        },
        {
          "internalType": "address",
          "name": "to",
          "type": "address"
        },
        {
          "internalType": "uint256",
          "name": "tokenId",
          "type": "uint256"
        }
      ],
      "name": "transferFrom",
      "outputs": [],
      "stateMutability": "nonpayable",
      "type": "function"
    },
    {
      "inputs": [
        {
          "internalType": "address",
          "name": "to",
          "type": "address"
        }
      ],
      "name": "transferOwnership",
      "outputs": [],
      "stateMutability": "nonpayable",
      "type": "function"
    },
    {
      "inputs": [],
      "name": "vrfKeyHash",
      "outputs": [
        {
          "internalType": "bytes32",
          "name": "",
          "type": "bytes32"
        }
      ],
      "stateMutability": "view",
      "type": "function"
    },
    {
      "inputs": [],
      "name": "vrfSubId",
      "outputs": [
        {
          "internalType": "uint256",
          "name": "",
          "type": "uint256"
        }
      ],
      "stateMutability": "view",
      "type": "function"
    },
    {
      "inputs": [
        {
          "internalType": "address",
          "name": "to",
          "type": "address"
        }
      ],
      "name": "withdrawDevelopment",
      "outputs": [],
      "stateMutability": "nonpayable",
      "type": "function"
    }
  ],
  "bytecode": "0x610140604052600f805462ffffff191660019081179091556010819055601c805461ffff191690911790553480156200003757600080fd5b5060405162003c1d38038062003c1d8339810160408190526200005a91620003a9565b82338060006040518060400160405280601381526020017f4c6f74746f4d6f6a69205469636b65742056340000000000000000000000000081525060405180604001604052806005815260200164131352958d60da1b8152508160009081620000c49190620004bb565b506001620000d38282620004bb565b50506001600a55506001600160a01b038216620001375760405162461bcd60e51b815260206004820152601860248201527f43616e6e6f7420736574206f776e657220746f207a65726f000000000000000060448201526064015b60405180910390fd5b600b80546001600160a01b0319166001600160a01b03848116919091179091558116156200016a576200016a8162000278565b5050506001600160a01b038116620001955760405163d92e233d60e01b815260040160405180910390fd5b600d80546001600160a01b0319166001600160a01b0392909216919091179055601860ff871610620001f45760405162461bcd60e51b81526020600482015260076024820152661a1bdd5c8f0c8d60ca1b60448201526064016200012e565b60ff86166080526001600160a01b0380861660c05260a0859052831660e0526101008290526101208190526200022b428762000324565b600e819055600f5460405191825262ffffff16907f70aba4eecfb00a70e5aae193521bc256fc3cbf7a91479f6bcda4b5a82f9869619060200160405180910390a2505050505050620005f0565b336001600160a01b03821603620002d25760405162461bcd60e51b815260206004820152601760248201527f43616e6e6f74207472616e7366657220746f2073656c6600000000000000000060448201526064016200012e565b600c80546001600160a01b0319166001600160a01b03838116918217909255600b54604051919216907fed8889f560326eb138920d842192f0eb3dd22b4f139c87a2c57538e05bae127890600090a350565b6000806200033662015180856200059d565b620003459062015180620005c0565b905060006200035a60ff8516610e10620005c0565b620003669083620005da565b905084811162000382576200037f6201518082620005da565b90505b9150505b92915050565b80516001600160a01b0381168114620003a457600080fd5b919050565b60008060008060008060c08789031215620003c357600080fd5b865160ff81168114620003d557600080fd5b9550620003e5602088016200038c565b945060408701519350620003fc606088016200038c565b92506080870151915060a087015190509295509295509295565b634e487b7160e01b600052604160045260246000fd5b600181811c908216806200044157607f821691505b6020821081036200046257634e487b7160e01b600052602260045260246000fd5b50919050565b601f821115620004b657600081815260208120601f850160051c81016020861015620004915750805b601f850160051c820191505b81811015620004b2578281556001016200049d565b5050505b505050565b81516001600160401b03811115620004d757620004d762000416565b620004ef81620004e884546200042c565b8462000468565b602080601f8311600181146200052757600084156200050e5750858301515b600019600386901b1c1916600185901b178555620004b2565b600085815260208120601f198616915b82811015620005585788860151825594840194600190910190840162000537565b5085821015620005775787850151600019600388901b60f8161c191681555b5050505050600190811b01905550565b634e487b7160e01b600052601160045260246000fd5b600082620005bb57634e487b7160e01b600052601260045260246000fd5b500490565b808202811582820484141762000386576200038662000587565b8082018082111562000386576200038662000587565b60805160a05160c05160e05161010051610120516135a562000678600039600081816103f50152611c8d0152600081816102b10152611c6701526000611c2d0152600081816103ce01528181610a850152818161162e01526116d501526000818161035e01528181610aa9015281816115d50152611a7d0152600061059201526135a56000f3fe608060405234801561001057600080fd5b506004361061027f5760003560e01c80635c900a1a1161015c5780639eccacf6116100ce578063d01ed8a311610087578063d01ed8a31461069e578063d7098154146106a8578063d96226a2146106bb578063e8cfbe6914610749578063e985e9c51461075c578063f2fde38b1461076f57600080fd5b80639eccacf6146105f2578063a22cb46514610605578063b88d4fde14610618578063c5c51dca1461062b578063c87b56dd14610682578063c8d519191461069557600080fd5b806370a082311161012057806370a082311461057257806379ba5097146105855780638d6ef5951461058d5780638da5cb5b146105c65780638ea98117146105d757806395d89b41146105ea57600080fd5b80635c900a1a146105015780635d58f9301461051e5780636352211e146105315780636baf4a74146105445780636e04ff0d1461055157600080fd5b80632f745c59116101f557806342842e0e116101b957806342842e0e146104455780634585e33b146104585780634f687e911461046b5780634f6ccce71461047357806350b447121461048657806351858e27146104ef57600080fd5b80632f745c59146103b65780633013ce29146103c957806332615640146103f05780633d4962ed1461041757806340985c981461042a57600080fd5b80630d50cdb9116102475780630d50cdb9146103365780631209b1f614610359578063147e291f1461038057806318160ddd146103885780631fe543e31461039057806323b872dd146103a357600080fd5b806301ffc9a714610284578063041d443e146102ac57806306fdde03146102e1578063081812fc146102f6578063095ea7b314610321575b600080fd5b610297610292366004612eb0565b610782565b60405190151581526020015b60405180910390f35b6102d37f000000000000000000000000000000000000000000000000000000000000000081565b6040519081526020016102a3565b6102e9610793565b6040516102a39190612f1d565b610309610304366004612f30565b610825565b6040516001600160a01b0390911681526020016102a3565b61033461032f366004612f65565b61084e565b005b600f546103459062ffffff1681565b60405162ffffff90911681526020016102a3565b6102d37f000000000000000000000000000000000000000000000000000000000000000081565b61033461085d565b6008546102d3565b61033461039e366004612f8f565b610882565b6103346103b136600461300e565b6108d7565b6102d36103c4366004612f65565b610962565b6103097f000000000000000000000000000000000000000000000000000000000000000081565b6102d37f000000000000000000000000000000000000000000000000000000000000000081565b61033461042536600461304a565b6109c7565b610432600381565b60405161ffff90911681526020016102a3565b61033461045336600461300e565b610c1a565b610334610466366004613072565b610c35565b610334610d40565b6102d3610481366004612f30565b610d5c565b6104c6610494366004612f30565b6011602052600090815260409020805460029091015464ffffffffff821691600160281b900462ffffff169060ff1683565b6040805164ffffffffff909416845262ffffff90921660208401521515908201526060016102a3565b601c5461029790610100900460ff1681565b610509600181565b60405163ffffffff90911681526020016102a3565b61033461052c3660046130f7565b610db5565b61030961053f366004612f30565b611044565b601c546102979060ff1681565b61056461055f366004613072565b61104f565b6040516102a3929190613113565b6102d361058036600461312e565b611098565b6103346110e0565b6105b47f000000000000000000000000000000000000000000000000000000000000000081565b60405160ff90911681526020016102a3565b600b546001600160a01b0316610309565b6103346105e536600461312e565b61118e565b6102e9611280565b600d54610309906001600160a01b031681565b610334610613366004613157565b61128f565b6103346106263660046131a4565b61129a565b60135460145460155460165460175460185460195461064d9695949392919087565b604080519788526020880196909652948601939093526060850191909152608084015260a083015260c082015260e0016102a3565b6102e9610690366004612f30565b6112b1565b6102d3600e5481565b610509620493e081565b6103346106b6366004612f30565b611326565b6107116106c9366004613280565b601a6020526000908152604090206001015463ffffffff808216916401000000008104821691600160401b8204811691600160601b810490911690600160801b900460ff1685565b6040805163ffffffff96871681529486166020860152928516928401929092529092166060820152901515608082015260a0016102a3565b61033461075736600461312e565b6116b7565b61029761076a36600461329b565b611742565b61033461077d36600461312e565b611770565b600061078d82611781565b92915050565b6060600080546107a2906132ce565b80601f01602080910402602001604051908101604052809291908181526020018280546107ce906132ce565b801561081b5780601f106107f05761010080835404028352916020019161081b565b820191906000526020600020905b8154815290600101906020018083116107fe57829003601f168201915b5050505050905090565b6000610830826117a6565b506000828152600460205260409020546001600160a01b031661078d565b6108598282336117df565b5050565b6108656117ec565b601c805461ff001981166101009182900460ff1615909102179055565b600d546001600160a01b031633146108c757600d5460405163073e64fd60e21b81523360048201526001600160a01b0390911660248201526044015b60405180910390fd5b6108d2838383611841565b505050565b6001600160a01b03821661090157604051633250574960e11b8152600060048201526024016108be565b600061090e838333611995565b9050836001600160a01b0316816001600160a01b03161461095c576040516364283d7b60e01b81526001600160a01b03808616600483015260248201849052821660448201526064016108be565b50505050565b600061096d83611098565b821061099e5760405163295f44f760e21b81526001600160a01b0384166004820152602481018390526044016108be565b506001600160a01b03919091166000908152600660209081526040808320938352929052205490565b6109cf6119aa565b601c54610100900460ff16156109f857604051634cb3183d60e01b815260040160405180910390fd5b600e544210610a1a5760405163ecdd1c2960e01b815260040160405180910390fd5b60005b6004811015610a77576018828260048110610a3a57610a3a613302565b602002016020810190610a4d9190613318565b60ff161115610a6f576040516308214f1760e21b815260040160405180910390fd5b600101610a1d565b50610acd6001600160a01b037f00000000000000000000000000000000000000000000000000000000000000001633307f00000000000000000000000000000000000000000000000000000000000000006119d4565b6010805460009182610ade83613351565b919050559050610aee3382611a3b565b604080516080808201835264ffffffffff42168252600f5462ffffff166020830152825180820184529192830191908590600490839083908082843760009201829052509284525050602091820181905283815260118252604090819020835181549385015162ffffff16600160281b0267ffffffffffffffff1990941664ffffffffff90911617929092178255820151610b8f9060018301906004612dd3565b50606091909101516002909101805460ff1916911515919091179055600f805462ffffff90811660009081526012602090815260408083208054600181018255908452918320909101859055925492519290911691839133917f12eee7f99ea5c9c160467d40a467f18c62607b8d43607d0840f168cc2b55b2e49190a450610c176001600a55565b50565b6108d28383836040518060200160405280600081525061129a565b601c5460ff161580610c4e5750601c54610100900460ff165b15610c6c5760405163fc5eaefd60e01b815260040160405180910390fd5b600e54421015610c8f5760405163085de62560e01b815260040160405180910390fd5b600f5462ffffff16610ca081611a55565b610ca981611c29565b600f805460019190600090610cc490849062ffffff1661336a565b92506101000a81548162ffffff021916908362ffffff16021790555062015180600e6000828254610cf5919061338d565b9091555050600f54600e5460405190815262ffffff909116907f70aba4eecfb00a70e5aae193521bc256fc3cbf7a91479f6bcda4b5a82f9869619060200160405180910390a2505050565b610d486117ec565b601c805460ff19811660ff90911615179055565b6000610d6760085490565b8210610d905760405163295f44f760e21b815260006004820152602481018390526044016108be565b60088281548110610da357610da3613302565b90600052602060002001549050919050565b801580610dc3575061012c81115b15610dcd575061012c5b62ffffff82166000908152601a602052604090206001810154600160801b900460ff1615610e0e57604051631454e6c760e01b815260040160405180910390fd5b62ffffff831660009081526012602052604081206001830154909163ffffffff90911690610e3c858361338d565b8354909150811115610e4c575081545b815b81811015610e8c57610e7c848281548110610e6b57610e6b613302565b906000526020600020015486611da6565b610e8581613351565b9050610e4e565b5060018401805463ffffffff191663ffffffff8316179055604080518381526020810183905262ffffff8816917f95f2647279697d92fbfbd24a0e306c284798157a253e2126ebf1451515f6fbd9910160405180910390a28254810361103c5760018401805460ff60801b1916600160801b17908190556040805163ffffffff640100000000840481168252600160401b840481166020830152600160601b9093049092169082015262ffffff8716907f9094b2b67842abb4391fc6c54030e03d20642491efeb4eda225641eac3b101279060600160405180910390a26001840154640100000000900463ffffffff1615801590610f8b575060175415155b15610fb05760175460138054600090610fa590849061338d565b909155505060006017555b6001840154600160401b900463ffffffff1615801590610fd1575060185415155b15610ff65760185460148054600090610feb90849061338d565b909155505060006018555b6001840154600160601b900463ffffffff1615801590611017575060195415155b1561103c576019546015805460009061103190849061338d565b909155505060006019555b505050505050565b600061078d826117a6565b601c5460009060609060ff16801561106f5750601c54610100900460ff16155b801561107d5750600e544210155b91506040518060200160405280600081525090509250929050565b60006001600160a01b0382166110c4576040516322718ad960e21b8152600060048201526024016108be565b506001600160a01b031660009081526003602052604090205490565b600c546001600160a01b031633146111335760405162461bcd60e51b815260206004820152601660248201527526bab9ba10313290383937b837b9b2b21037bbb732b960511b60448201526064016108be565b600b80546001600160a01b031980821633908117909355600c805490911690556040516001600160a01b03909116919082907f8be0079c531659141344cd1fd0a4f28419497f9722a3daafe3b4186f6b6457e090600090a350565b600b546001600160a01b031633148015906111b45750600d546001600160a01b03163314155b1561120557336111cc600b546001600160a01b031690565b600d5460405163061db9c160e01b81526001600160a01b03938416600482015291831660248301529190911660448201526064016108be565b6001600160a01b03811661122c5760405163d92e233d60e01b815260040160405180910390fd5b600d80546001600160a01b0319166001600160a01b0383169081179091556040519081527fd1a6a14209a385a964d036e404cb5cfb71f4000cdb03c9366292430787261be69060200160405180910390a150565b6060600180546107a2906132ce565b61085933838361202d565b6112a58484846108d7565b61095c848484846120cc565b60606112bc826117a6565b5060006112d460408051602081019091526000815290565b905060008151116112f4576040518060200160405280600081525061131f565b806112fe846121f5565b60405160200161130f9291906133a0565b6040516020818303038152906040525b9392505050565b61132e6119aa565b6000818152601160205260409020600281015460ff161561136257604051630c8d9eab60e31b815260040160405180910390fd5b3361136c83611044565b6001600160a01b031614611393576040516330c6392160e11b815260040160405180910390fd5b8054600160281b900462ffffff166000908152601a602052604090206001810154600160801b900460ff166113fa5760405162461bcd60e51b815260206004820152600d60248201526c646179206e6f7420726561647960981b60448201526064016108be565b60408051608081019182905260009161149c919060018601906004908286855b825461010083900a900460ff1681526020600192830181810494850194909303909202910180841161141a5750506040805160808101918290529450889350600492509050826000855b825461010083900a900460ff168152602060019283018181049485019490930390920291018084116114645790505050505050612288565b905060008160ff1660011480156114c457506001830154640100000000900463ffffffff1615155b1561150b5760018301546013546114e991640100000000900463ffffffff16906133e5565b9050806013600001600082825461150091906133f9565b909155506116129050565b8160ff16600214801561152e57506001830154600160401b900463ffffffff1615155b1561156957600183015460145461155291600160401b900463ffffffff16906133e5565b9050806013600101600082825461150091906133f9565b8160ff16600314801561158c57506001830154600160601b900463ffffffff1615155b156115c75760018301546015546115b091600160601b900463ffffffff16906133e5565b9050806013600201600082825461150091906133f9565b8160ff166004036115f957507f0000000000000000000000000000000000000000000000000000000000000000611612565b6040516330c6392160e11b815260040160405180910390fd5b60028401805460ff191660011790556116556001600160a01b037f000000000000000000000000000000000000000000000000000000000000000016338361242d565b83546040805133815260ff851660208201529081018390528691600160281b900462ffffff16907ffa7d7e6fad77bb2eb32e03cd3103bcb3df591ea9338a7395a149d9c180a170c79060600160405180910390a350505050610c176001600a55565b6116bf6117ec565b6016805460009091556116fc6001600160a01b037f000000000000000000000000000000000000000000000000000000000000000016838361242d565b604080516001600160a01b0384168152602081018390527fc32a4a91927ebe92c55e1f8cd216c8a1d74e53b9b0a82b6b982e5dd3ac71af03910160405180910390a15050565b6001600160a01b03918216600090815260056020908152604080832093909416825291909152205460ff1690565b6117786117ec565b610c178161245e565b60006001600160e01b0319821663780e9d6360e01b148061078d575061078d82612508565b6000818152600260205260408120546001600160a01b03168061078d57604051637e27328960e01b8152600481018490526024016108be565b6108d28383836001612558565b600b546001600160a01b0316331461183f5760405162461bcd60e51b815260206004820152601660248201527527b7363c9031b0b63630b1363290313c9037bbb732b960511b60448201526064016108be565b565b6000838152601b602090815260408083205462ffffff16808452601a909252822090918484828161187457611874613302565b90506020020135905060198161188a919061340c565b825460ff191660ff9190911617825560081c6118a760198261340c565b825460ff919091166101000261ff001990911617825560081c6118cb60198261340c565b825460ff91909116620100000262ff00001990911617825560081c6118f160198261340c565b825463ff000000198116630100000060ff9384160290811780865560018601805470ff000000000000000000000000ffffffff1916905560408051928516938516939093178252600881901c84166020830152601081901c84168284015260181c90921660608301525162ffffff8516917f9dedf238b51cb2f65e712b6f39ab9f3e89a6268d251b582c9ceec37e6ddfba63919081900360800190a2505050505050565b60006119a284848461265e565b949350505050565b6002600a54036119cd57604051633ee5aeb560e01b815260040160405180910390fd5b6002600a55565b6040516001600160a01b03848116602483015283811660448301526064820183905261095c9186918216906323b872dd906084015b604051602081830303815290604052915060e01b6020820180516001600160e01b03838183161783525050505061272b565b61085982826040518060200160405280600081525061278e565b62ffffff811660009081526012602052604081205490819003611a76575050565b6000611aa27f000000000000000000000000000000000000000000000000000000000000000083613420565b905060006064611ab3605084613420565b611abd91906133e5565b905060006064611ace601485613420565b611ad891906133e5565b90506064611ae7605084613420565b611af191906133e5565b60138054600090611b0390849061338d565b9091555060649050611b16600a84613420565b611b2091906133e5565b60148054600090611b3290849061338d565b9091555060649050611b45600584613420565b611b4f91906133e5565b60158054600090611b6190849061338d565b9091555060649050611b74600584613420565b611b7e91906133e5565b60168054600090611b9090849061338d565b9091555060649050611ba3605083613420565b611bad91906133e5565b60178054600090611bbf90849061338d565b9091555060649050611bd2600a83613420565b611bdc91906133e5565b60188054600090611bee90849061338d565b9091555060649050611c01600a83613420565b611c0b91906133e5565b60198054600090611c1d90849061338d565b90915550505050505050565b60007f00000000000000000000000000000000000000000000000000000000000000006001600160a01b0316639b1c385e6040518060c001604052807f000000000000000000000000000000000000000000000000000000000000000081526020017f00000000000000000000000000000000000000000000000000000000000000008152602001600361ffff168152602001620493e063ffffffff168152602001600163ffffffff168152602001611cf26040518060200160405280600015158152506127a5565b8152506040518263ffffffff1660e01b8152600401611d119190613437565b6020604051808303816000875af1158015611d30573d6000803e3d6000fd5b505050506040513d601f19601f82011682018060405250810190611d549190613494565b6000818152601b6020526040808220805462ffffff191662ffffff871690811790915590519293509183917f6d9c99357d359ebc464c51fb3162f671b2bd8fecd626dd9f4f5e329076aa00f291a35050565b6000828152601160205260408082208151608081019283905290929184906004908285855b825461010083900a900460ff16815260206001928301818104948501949093039092029101808411611dcb579050505050505090506000805b6004811015611e6657828160048110611e1f57611e1f613302565b602002015160ff16846001018260048110611e3c57611e3c613302565b602081049091015460ff601f9092166101000a90041603611e5e578160010191505b600101611e04565b508060ff16600403611eb757600184018054600490611e9290640100000000900463ffffffff166134ad565b91906101000a81548163ffffffff021916908363ffffffff1602179055505050505050565b8060ff16600303611ee157600184018054600c90611e9290600160601b900463ffffffff166134ad565b611ee9612e66565b6000805b6004811015611f495782866001018260048110611f0c57611f0c613302565b602081049091015460ff601f9092166101000a90041660198110611f3257611f32613302565b60200201805160ff60019182011690915201611eed565b5060005b6004811015611fda57600083868360048110611f6b57611f6b613302565b602002015160ff1660198110611f8357611f83613302565b602002015160ff161115611fd25781600101915082858260048110611faa57611faa613302565b602002015160ff1660198110611fc257611fc2613302565b6020020180516000190160ff1690525b600101611f4d565b508060ff166004036120245760018601805460089061200590600160401b900463ffffffff166134ad565b91906101000a81548163ffffffff021916908363ffffffff1602179055505b50505050505050565b6001600160a01b03821661205f57604051630b61174360e31b81526001600160a01b03831660048201526024016108be565b6001600160a01b03838116600081815260056020908152604080832094871680845294825291829020805460ff191686151590811790915591519182527f17307eab39ab6107e8899845ad3d59bd9653f200f220920489ca2b5937696c31910160405180910390a3505050565b6001600160a01b0383163b1561095c57604051630a85bd0160e11b81526001600160a01b0384169063150b7a029061210e9033908890879087906004016134d0565b6020604051808303816000875af1925050508015612149575060408051601f3d908101601f1916820190925261214691810190613503565b60015b6121b2573d808015612177576040519150601f19603f3d011682016040523d82523d6000602084013e61217c565b606091505b5080516000036121aa57604051633250574960e11b81526001600160a01b03851660048201526024016108be565b805181602001fd5b6001600160e01b03198116630a85bd0160e11b146121ee57604051633250574960e11b81526001600160a01b03851660048201526024016108be565b5050505050565b6060600061220283612816565b600101905060008167ffffffffffffffff8111156122225761222261318e565b6040519080825280601f01601f19166020018201604052801561224c576020820181803683370190505b5090508181016020015b600019016f181899199a1a9b1b9c1cb0b131b232b360811b600a86061a8153600a850494508461225657509392505050565b60008060005b60048110156122df578381600481106122a9576122a9613302565b602002015160ff168582600481106122c3576122c3613302565b602002015160ff16036122d7578160010191505b60010161228e565b508060ff166004036122f557600191505061078d565b8060ff1660030361230a57600391505061078d565b612312612e66565b6000805b6004811015612361578287826004811061233257612332613302565b602002015160ff166019811061234a5761234a613302565b60200201805160ff60019182011690915201612316565b5060005b60048110156123f25760008387836004811061238357612383613302565b602002015160ff166019811061239b5761239b613302565b602002015160ff1611156123ea57816001019150828682600481106123c2576123c2613302565b602002015160ff16601981106123da576123da613302565b6020020180516000190160ff1690525b600101612365565b508060ff1660040361240a576002935050505061078d565b8060ff16600303612421576004935050505061078d565b50600095945050505050565b6040516001600160a01b038381166024830152604482018390526108d291859182169063a9059cbb90606401611a09565b336001600160a01b038216036124b65760405162461bcd60e51b815260206004820152601760248201527f43616e6e6f74207472616e7366657220746f2073656c6600000000000000000060448201526064016108be565b600c80546001600160a01b0319166001600160a01b03838116918217909255600b54604051919216907fed8889f560326eb138920d842192f0eb3dd22b4f139c87a2c57538e05bae127890600090a350565b60006001600160e01b031982166380ac58cd60e01b148061253957506001600160e01b03198216635b5e139f60e01b145b8061078d57506301ffc9a760e01b6001600160e01b031983161461078d565b808061256c57506001600160a01b03821615155b1561262e57600061257c846117a6565b90506001600160a01b038316158015906125a85750826001600160a01b0316816001600160a01b031614155b80156125bb57506125b98184611742565b155b156125e45760405163a9fbf51f60e01b81526001600160a01b03841660048201526024016108be565b811561262c5783856001600160a01b0316826001600160a01b03167f8c5be1e5ebec7d5bd14f71427d1e84f3dd0314c0f7b2291e5b200ac8c7c3b92560405160405180910390a45b505b5050600090815260046020526040902080546001600160a01b0319166001600160a01b0392909216919091179055565b60008061266c8585856128ee565b90506001600160a01b0381166126c9576126c484600880546000838152600960205260408120829055600182018355919091527ff3f7a9fe364faab93b216da50a3214154f22a0a2b415b23a84c8169e8b636ee30155565b6126ec565b846001600160a01b0316816001600160a01b0316146126ec576126ec81856129e7565b6001600160a01b0385166127085761270384612a78565b6119a2565b846001600160a01b0316816001600160a01b0316146119a2576119a28585612b27565b60006127406001600160a01b03841683612b77565b905080516000141580156127655750808060200190518101906127639190613520565b155b156108d257604051635274afe760e01b81526001600160a01b03841660048201526024016108be565b6127988383612b85565b6108d260008484846120cc565b60607f92fd13387c7fe7befbc38d303d6468778fb9731bc4583f17d92989c6fcfdeaaa826040516024016127de91511515815260200190565b60408051601f198184030181529190526020810180516001600160e01b03166001600160e01b03199093169290921790915292915050565b60008072184f03e93ff9f4daa797ed6e38ed64bf6a1f0160401b83106128555772184f03e93ff9f4daa797ed6e38ed64bf6a1f0160401b830492506040015b6d04ee2d6d415b85acef81000000008310612881576d04ee2d6d415b85acef8100000000830492506020015b662386f26fc10000831061289f57662386f26fc10000830492506010015b6305f5e10083106128b7576305f5e100830492506008015b61271083106128cb57612710830492506004015b606483106128dd576064830492506002015b600a831061078d5760010192915050565b6000828152600260205260408120546001600160a01b039081169083161561291b5761291b818486612bea565b6001600160a01b0381161561295957612938600085600080612558565b6001600160a01b038116600090815260036020526040902080546000190190555b6001600160a01b03851615612988576001600160a01b0385166000908152600360205260409020805460010190555b60008481526002602052604080822080546001600160a01b0319166001600160a01b0389811691821790925591518793918516917fddf252ad1be2c89b69c2b068fc378daa952ba7f163c4a11628f55a4df523b3ef91a4949350505050565b60006129f283611098565b600083815260076020526040902054909150808214612a45576001600160a01b03841660009081526006602090815260408083208584528252808320548484528184208190558352600790915290208190555b5060009182526007602090815260408084208490556001600160a01b039094168352600681528383209183525290812055565b600854600090612a8a906001906133f9565b60008381526009602052604081205460088054939450909284908110612ab257612ab2613302565b906000526020600020015490508060088381548110612ad357612ad3613302565b6000918252602080832090910192909255828152600990915260408082208490558582528120556008805480612b0b57612b0b61353d565b6001900381819060005260206000200160009055905550505050565b60006001612b3484611098565b612b3e91906133f9565b6001600160a01b039093166000908152600660209081526040808320868452825280832085905593825260079052919091209190915550565b606061131f83836000612c4e565b6001600160a01b038216612baf57604051633250574960e11b8152600060048201526024016108be565b6000612bbd83836000611995565b90506001600160a01b038116156108d2576040516339e3563760e11b8152600060048201526024016108be565b612bf5838383612ceb565b6108d2576001600160a01b038316612c2357604051637e27328960e01b8152600481018290526024016108be565b60405163177e802f60e01b81526001600160a01b0383166004820152602481018290526044016108be565b606081471015612c735760405163cd78605960e01b81523060048201526024016108be565b600080856001600160a01b03168486604051612c8f9190613553565b60006040518083038185875af1925050503d8060008114612ccc576040519150601f19603f3d011682016040523d82523d6000602084013e612cd1565b606091505b5091509150612ce1868383612d4e565b9695505050505050565b60006001600160a01b038316158015906119a25750826001600160a01b0316846001600160a01b03161480612d255750612d258484611742565b806119a25750506000908152600460205260409020546001600160a01b03908116911614919050565b606082612d6357612d5e82612daa565b61131f565b8151158015612d7a57506001600160a01b0384163b155b15612da357604051639996b31560e01b81526001600160a01b03851660048201526024016108be565b508061131f565b805115612dba5780518082602001fd5b604051630a12f52160e11b815260040160405180910390fd5b600183019183908215612e565791602002820160005b83821115612e2757835183826101000a81548160ff021916908360ff1602179055509260200192600101602081600001049283019260010302612de9565b8015612e545782816101000a81549060ff0219169055600101602081600001049283019260010302612e27565b505b50612e62929150612e85565b5090565b6040518061032001604052806019906020820280368337509192915050565b5b80821115612e625760008155600101612e86565b6001600160e01b031981168114610c1757600080fd5b600060208284031215612ec257600080fd5b813561131f81612e9a565b60005b83811015612ee8578181015183820152602001612ed0565b50506000910152565b60008151808452612f09816020860160208601612ecd565b601f01601f19169290920160200192915050565b60208152600061131f6020830184612ef1565b600060208284031215612f4257600080fd5b5035919050565b80356001600160a01b0381168114612f6057600080fd5b919050565b60008060408385031215612f7857600080fd5b612f8183612f49565b946020939093013593505050565b600080600060408486031215612fa457600080fd5b83359250602084013567ffffffffffffffff80821115612fc357600080fd5b818601915086601f830112612fd757600080fd5b813581811115612fe657600080fd5b8760208260051b8501011115612ffb57600080fd5b6020830194508093505050509250925092565b60008060006060848603121561302357600080fd5b61302c84612f49565b925061303a60208501612f49565b9150604084013590509250925092565b60006080828403121561305c57600080fd5b8260808301111561306c57600080fd5b50919050565b6000806020838503121561308557600080fd5b823567ffffffffffffffff8082111561309d57600080fd5b818501915085601f8301126130b157600080fd5b8135818111156130c057600080fd5b8660208285010111156130d257600080fd5b60209290920196919550909350505050565b803562ffffff81168114612f6057600080fd5b6000806040838503121561310a57600080fd5b612f81836130e4565b82151581526040602082015260006119a26040830184612ef1565b60006020828403121561314057600080fd5b61131f82612f49565b8015158114610c1757600080fd5b6000806040838503121561316a57600080fd5b61317383612f49565b9150602083013561318381613149565b809150509250929050565b634e487b7160e01b600052604160045260246000fd5b600080600080608085870312156131ba57600080fd5b6131c385612f49565b93506131d160208601612f49565b925060408501359150606085013567ffffffffffffffff808211156131f557600080fd5b818701915087601f83011261320957600080fd5b81358181111561321b5761321b61318e565b604051601f8201601f19908116603f011681019083821181831017156132435761324361318e565b816040528281528a602084870101111561325c57600080fd5b82602086016020830137600060208483010152809550505050505092959194509250565b60006020828403121561329257600080fd5b61131f826130e4565b600080604083850312156132ae57600080fd5b6132b783612f49565b91506132c560208401612f49565b90509250929050565b600181811c908216806132e257607f821691505b60208210810361306c57634e487b7160e01b600052602260045260246000fd5b634e487b7160e01b600052603260045260246000fd5b60006020828403121561332a57600080fd5b813560ff8116811461131f57600080fd5b634e487b7160e01b600052601160045260246000fd5b6000600182016133635761336361333b565b5060010190565b62ffffff8181168382160190808211156133865761338661333b565b5092915050565b8082018082111561078d5761078d61333b565b600083516133b2818460208801612ecd565b8351908301906133c6818360208801612ecd565b01949350505050565b634e487b7160e01b600052601260045260246000fd5b6000826133f4576133f46133cf565b500490565b8181038181111561078d5761078d61333b565b60008261341b5761341b6133cf565b500690565b808202811582820484141761078d5761078d61333b565b60208152815160208201526020820151604082015261ffff60408301511660608201526000606083015163ffffffff80821660808501528060808601511660a0850152505060a083015160c0808401526119a260e0840182612ef1565b6000602082840312156134a657600080fd5b5051919050565b600063ffffffff8083168181036134c6576134c661333b565b6001019392505050565b6001600160a01b0385811682528416602082015260408101839052608060608201819052600090612ce190830184612ef1565b60006020828403121561351557600080fd5b815161131f81612e9a565b60006020828403121561353257600080fd5b815161131f81613149565b634e487b7160e01b600052603160045260246000fd5b60008251613565818460208701612ecd565b919091019291505056fea26469706673582212208c629a803ec22170eb012cce169bdf1476d52cb0077b3860a447ef6df02dd48364736f6c63430008140033",
  "linkReferences": {},
  "deployedLinkReferences": {}
}