{
  "_format": "hh-sol-artifact-1",
  "contractName": "LottoMojiMain",
  "sourceName": "contracts/LottoMojiMain.sol",
  "abi": [
    {
      "inputs": [
        {
          "internalType": "address",
          "name": "_usdcToken",
          "type": "address"
        },
        {
          "internalType": "address",
          "name": "_ticketNFT",
          "type": "address"
        },
        {
          "internalType": "address",
          "name": "_reserveContract",
          "type": "address"
        },
        {
          "internalType": "address",
          "name": "_randomContract",
          "type": "address"
        }
      ],
      "stateMutability": "nonpayable",
      "type": "constructor"
    },
    {
      "inputs": [
        {
          "internalType": "address",
          "name": "owner",
          "type": "address"
        }
      ],
      "name": "OwnableInvalidOwner",
      "type": "error"
    },
    {
      "inputs": [
        {
          "internalType": "address",
          "name": "account",
          "type": "address"
        }
      ],
      "name": "OwnableUnauthorizedAccount",
      "type": "error"
    },
    {
      "inputs": [],
      "name": "ReentrancyGuardReentrantCall",
      "type": "error"
    },
    {
      "anonymous": false,
      "inputs": [
        {
          "indexed": true,
          "internalType": "uint256",
          "name": "gameDay",
          "type": "uint256"
        },
        {
          "indexed": false,
          "internalType": "uint256",
          "name": "firstReserveAmount",
          "type": "uint256"
        },
        {
          "indexed": false,
          "internalType": "uint256",
          "name": "secondReserveAmount",
          "type": "uint256"
        },
        {
          "indexed": false,
          "internalType": "uint256",
          "name": "thirdReserveAmount",
          "type": "uint256"
        },
        {
          "indexed": false,
          "internalType": "uint256",
          "name": "totalSent",
          "type": "uint256"
        }
      ],
      "name": "DailyReservesSent",
      "type": "event"
    },
    {
      "anonymous": false,
      "inputs": [
        {
          "indexed": true,
          "internalType": "uint256",
          "name": "gameDay",
          "type": "uint256"
        },
        {
          "indexed": false,
          "internalType": "uint8[4]",
          "name": "winningNumbers",
          "type": "uint8[4]"
        },
        {
          "indexed": false,
          "internalType": "uint256",
          "name": "totalMainPools",
          "type": "uint256"
        }
      ],
      "name": "DrawExecuted",
      "type": "event"
    },
    {
      "anonymous": false,
      "inputs": [
        {
          "indexed": true,
          "internalType": "address",
          "name": "previousOwner",
          "type": "address"
        },
        {
          "indexed": true,
          "internalType": "address",
          "name": "newOwner",
          "type": "address"
        }
      ],
      "name": "OwnershipTransferred",
      "type": "event"
    },
    {
      "anonymous": false,
      "inputs": [
        {
          "indexed": true,
          "internalType": "uint256",
          "name": "gameDay",
          "type": "uint256"
        },
        {
          "indexed": false,
          "internalType": "uint8",
          "name": "prizeLevel",
          "type": "uint8"
        },
        {
          "indexed": false,
          "internalType": "uint256",
          "name": "accumulatedAmount",
          "type": "uint256"
        },
        {
          "indexed": false,
          "internalType": "uint256",
          "name": "newTotalAccumulated",
          "type": "uint256"
        }
      ],
      "name": "PoolsAccumulated",
      "type": "event"
    },
    {
      "anonymous": false,
      "inputs": [
        {
          "indexed": true,
          "internalType": "uint256",
          "name": "gameDay",
          "type": "uint256"
        },
        {
          "indexed": false,
          "internalType": "uint8",
          "name": "prizeLevel",
          "type": "uint8"
        },
        {
          "indexed": false,
          "internalType": "uint256",
          "name": "amountUsed",
          "type": "uint256"
        },
        {
          "indexed": false,
          "internalType": "uint256",
          "name": "remainingReserve",
          "type": "uint256"
        }
      ],
      "name": "PoolsRefilledFromReserves",
      "type": "event"
    },
    {
      "anonymous": false,
      "inputs": [
        {
          "indexed": true,
          "internalType": "uint256",
          "name": "ticketId",
          "type": "uint256"
        },
        {
          "indexed": true,
          "internalType": "address",
          "name": "winner",
          "type": "address"
        },
        {
          "indexed": false,
          "internalType": "uint256",
          "name": "amount",
          "type": "uint256"
        },
        {
          "indexed": false,
          "internalType": "uint8",
          "name": "prizeLevel",
          "type": "uint8"
        },
        {
          "indexed": false,
          "internalType": "bool",
          "name": "reserveUsedForRefill",
          "type": "bool"
        }
      ],
      "name": "PrizeClaimed",
      "type": "event"
    },
    {
      "anonymous": false,
      "inputs": [
        {
          "indexed": true,
          "internalType": "uint256",
          "name": "ticketId",
          "type": "uint256"
        },
        {
          "indexed": true,
          "internalType": "address",
          "name": "buyer",
          "type": "address"
        },
        {
          "indexed": false,
          "internalType": "uint8[4]",
          "name": "numbers",
          "type": "uint8[4]"
        },
        {
          "indexed": false,
          "internalType": "uint256",
          "name": "gameDay",
          "type": "uint256"
        }
      ],
      "name": "TicketPurchased",
      "type": "event"
    },
    {
      "inputs": [],
      "name": "DAILY_RESERVE_PERCENTAGE",
      "outputs": [
        {
          "internalType": "uint256",
          "name": "",
          "type": "uint256"
        }
      ],
      "stateMutability": "view",
      "type": "function"
    },
    {
      "inputs": [],
      "name": "DEVELOPMENT_PERCENTAGE",
      "outputs": [
        {
          "internalType": "uint256",
          "name": "",
          "type": "uint256"
        }
      ],
      "stateMutability": "view",
      "type": "function"
    },
    {
      "inputs": [
        {
          "internalType": "uint256",
          "name": "",
          "type": "uint256"
        }
      ],
      "name": "EMOJIS",
      "outputs": [
        {
          "internalType": "string",
          "name": "",
          "type": "string"
        }
      ],
      "stateMutability": "view",
      "type": "function"
    },
    {
      "inputs": [],
      "name": "FIRST_PRIZE_PERCENTAGE",
      "outputs": [
        {
          "internalType": "uint256",
          "name": "",
          "type": "uint256"
        }
      ],
      "stateMutability": "view",
      "type": "function"
    },
    {
      "inputs": [],
      "name": "MAIN_POOL_PERCENTAGE",
      "outputs": [
        {
          "internalType": "uint256",
          "name": "",
          "type": "uint256"
        }
      ],
      "stateMutability": "view",
      "type": "function"
    },
    {
      "inputs": [],
      "name": "SECOND_PRIZE_PERCENTAGE",
      "outputs": [
        {
          "internalType": "uint256",
          "name": "",
          "type": "uint256"
        }
      ],
      "stateMutability": "view",
      "type": "function"
    },
    {
      "inputs": [],
      "name": "THIRD_PRIZE_PERCENTAGE",
      "outputs": [
        {
          "internalType": "uint256",
          "name": "",
          "type": "uint256"
        }
      ],
      "stateMutability": "view",
      "type": "function"
    },
    {
      "inputs": [],
      "name": "TICKET_PRICE",
      "outputs": [
        {
          "internalType": "uint256",
          "name": "",
          "type": "uint256"
        }
      ],
      "stateMutability": "view",
      "type": "function"
    },
    {
      "inputs": [
        {
          "internalType": "uint8[4]",
          "name": "_numbers",
          "type": "uint8[4]"
        }
      ],
      "name": "buyTicket",
      "outputs": [],
      "stateMutability": "nonpayable",
      "type": "function"
    },
    {
      "inputs": [],
      "name": "canExecuteDraw",
      "outputs": [
        {
          "internalType": "bool",
          "name": "",
          "type": "bool"
        }
      ],
      "stateMutability": "view",
      "type": "function"
    },
    {
      "inputs": [
        {
          "internalType": "uint8[4]",
          "name": "ticket",
          "type": "uint8[4]"
        },
        {
          "internalType": "uint8[4]",
          "name": "winning",
          "type": "uint8[4]"
        }
      ],
      "name": "checkPrizeLevel",
      "outputs": [
        {
          "internalType": "uint8",
          "name": "",
          "type": "uint8"
        }
      ],
      "stateMutability": "pure",
      "type": "function"
    },
    {
      "inputs": [
        {
          "internalType": "uint256",
          "name": "ticketId",
          "type": "uint256"
        }
      ],
      "name": "claimPrize",
      "outputs": [],
      "stateMutability": "nonpayable",
      "type": "function"
    },
    {
      "inputs": [],
      "name": "currentGameDay",
      "outputs": [
        {
          "internalType": "uint256",
          "name": "",
          "type": "uint256"
        }
      ],
      "stateMutability": "view",
      "type": "function"
    },
    {
      "inputs": [
        {
          "internalType": "uint256",
          "name": "",
          "type": "uint256"
        }
      ],
      "name": "dailyPools",
      "outputs": [
        {
          "internalType": "uint256",
          "name": "totalCollected",
          "type": "uint256"
        },
        {
          "internalType": "uint256",
          "name": "mainPoolPortion",
          "type": "uint256"
        },
        {
          "internalType": "uint256",
          "name": "reservePortion",
          "type": "uint256"
        },
        {
          "internalType": "uint256",
          "name": "firstPrizeDaily",
          "type": "uint256"
        },
        {
          "internalType": "uint256",
          "name": "secondPrizeDaily",
          "type": "uint256"
        },
        {
          "internalType": "uint256",
          "name": "thirdPrizeDaily",
          "type": "uint256"
        },
        {
          "internalType": "uint256",
          "name": "developmentDaily",
          "type": "uint256"
        },
        {
          "internalType": "bool",
          "name": "distributed",
          "type": "bool"
        },
        {
          "internalType": "uint256",
          "name": "distributionTime",
          "type": "uint256"
        },
        {
          "internalType": "bool",
          "name": "drawn",
          "type": "bool"
        },
        {
          "internalType": "bool",
          "name": "reservesSent",
          "type": "bool"
        }
      ],
      "stateMutability": "view",
      "type": "function"
    },
    {
      "inputs": [],
      "name": "emergencyWithdraw",
      "outputs": [],
      "stateMutability": "nonpayable",
      "type": "function"
    },
    {
      "inputs": [],
      "name": "executeDrawWithChainlink",
      "outputs": [],
      "stateMutability": "nonpayable",
      "type": "function"
    },
    {
      "inputs": [],
      "name": "gameActive",
      "outputs": [
        {
          "internalType": "bool",
          "name": "",
          "type": "bool"
        }
      ],
      "stateMutability": "view",
      "type": "function"
    },
    {
      "inputs": [
        {
          "internalType": "uint256",
          "name": "",
          "type": "uint256"
        },
        {
          "internalType": "uint256",
          "name": "",
          "type": "uint256"
        }
      ],
      "name": "gameDayTickets",
      "outputs": [
        {
          "internalType": "uint256",
          "name": "",
          "type": "uint256"
        }
      ],
      "stateMutability": "view",
      "type": "function"
    },
    {
      "inputs": [],
      "name": "getAccumulatedPools",
      "outputs": [
        {
          "components": [
            {
              "internalType": "uint256",
              "name": "firstPrizeAccumulated",
              "type": "uint256"
            },
            {
              "internalType": "uint256",
              "name": "secondPrizeAccumulated",
              "type": "uint256"
            },
            {
              "internalType": "uint256",
              "name": "thirdPrizeAccumulated",
              "type": "uint256"
            },
            {
              "internalType": "uint256",
              "name": "developmentAccumulated",
              "type": "uint256"
            }
          ],
          "internalType": "struct LottoMojiMain.AccumulatedPools",
          "name": "",
          "type": "tuple"
        }
      ],
      "stateMutability": "view",
      "type": "function"
    },
    {
      "inputs": [],
      "name": "getCurrentDay",
      "outputs": [
        {
          "internalType": "uint256",
          "name": "",
          "type": "uint256"
        }
      ],
      "stateMutability": "view",
      "type": "function"
    },
    {
      "inputs": [],
      "name": "getCurrentPool",
      "outputs": [
        {
          "components": [
            {
              "internalType": "uint256",
              "name": "totalCollected",
              "type": "uint256"
            },
            {
              "internalType": "uint256",
              "name": "mainPoolPortion",
              "type": "uint256"
            },
            {
              "internalType": "uint256",
              "name": "reservePortion",
              "type": "uint256"
            },
            {
              "internalType": "uint256",
              "name": "firstPrizeDaily",
              "type": "uint256"
            },
            {
              "internalType": "uint256",
              "name": "secondPrizeDaily",
              "type": "uint256"
            },
            {
              "internalType": "uint256",
              "name": "thirdPrizeDaily",
              "type": "uint256"
            },
            {
              "internalType": "uint256",
              "name": "developmentDaily",
              "type": "uint256"
            },
            {
              "internalType": "bool",
              "name": "distributed",
              "type": "bool"
            },
            {
              "internalType": "uint256",
              "name": "distributionTime",
              "type": "uint256"
            },
            {
              "internalType": "uint8[4]",
              "name": "winningNumbers",
              "type": "uint8[4]"
            },
            {
              "internalType": "bool",
              "name": "drawn",
              "type": "bool"
            },
            {
              "internalType": "bool",
              "name": "reservesSent",
              "type": "bool"
            }
          ],
          "internalType": "struct LottoMojiMain.DailyPool",
          "name": "",
          "type": "tuple"
        }
      ],
      "stateMutability": "view",
      "type": "function"
    },
    {
      "inputs": [
        {
          "internalType": "uint256",
          "name": "gameDay",
          "type": "uint256"
        }
      ],
      "name": "getGameDayTickets",
      "outputs": [
        {
          "internalType": "uint256[]",
          "name": "",
          "type": "uint256[]"
        }
      ],
      "stateMutability": "view",
      "type": "function"
    },
    {
      "inputs": [
        {
          "internalType": "uint256",
          "name": "ticketId",
          "type": "uint256"
        }
      ],
      "name": "getTicket",
      "outputs": [
        {
          "components": [
            {
              "internalType": "uint256",
              "name": "tokenId",
              "type": "uint256"
            },
            {
              "internalType": "address",
              "name": "owner",
              "type": "address"
            },
            {
              "internalType": "uint8[4]",
              "name": "numbers",
              "type": "uint8[4]"
            },
            {
              "internalType": "uint256",
              "name": "gameDay",
              "type": "uint256"
            },
            {
              "internalType": "bool",
              "name": "isActive",
              "type": "bool"
            },
            {
              "internalType": "uint256",
              "name": "purchaseTime",
              "type": "uint256"
            },
            {
              "internalType": "bool",
              "name": "eligibleForReserve",
              "type": "bool"
            }
          ],
          "internalType": "struct LottoMojiMain.Ticket",
          "name": "",
          "type": "tuple"
        }
      ],
      "stateMutability": "view",
      "type": "function"
    },
    {
      "inputs": [
        {
          "internalType": "address",
          "name": "user",
          "type": "address"
        }
      ],
      "name": "getUserTickets",
      "outputs": [
        {
          "internalType": "uint256[]",
          "name": "",
          "type": "uint256[]"
        }
      ],
      "stateMutability": "view",
      "type": "function"
    },
    {
      "inputs": [],
      "name": "lastDrawTime",
      "outputs": [
        {
          "internalType": "uint256",
          "name": "",
          "type": "uint256"
        }
      ],
      "stateMutability": "view",
      "type": "function"
    },
    {
      "inputs": [],
      "name": "mainPools",
      "outputs": [
        {
          "internalType": "uint256",
          "name": "firstPrizeAccumulated",
          "type": "uint256"
        },
        {
          "internalType": "uint256",
          "name": "secondPrizeAccumulated",
          "type": "uint256"
        },
        {
          "internalType": "uint256",
          "name": "thirdPrizeAccumulated",
          "type": "uint256"
        },
        {
          "internalType": "uint256",
          "name": "developmentAccumulated",
          "type": "uint256"
        }
      ],
      "stateMutability": "view",
      "type": "function"
    },
    {
      "inputs": [],
      "name": "owner",
      "outputs": [
        {
          "internalType": "address",
          "name": "",
          "type": "address"
        }
      ],
      "stateMutability": "view",
      "type": "function"
    },
    {
      "inputs": [],
      "name": "randomContract",
      "outputs": [
        {
          "internalType": "contract LottoMojiRandom",
          "name": "",
          "type": "address"
        }
      ],
      "stateMutability": "view",
      "type": "function"
    },
    {
      "inputs": [],
      "name": "renounceOwnership",
      "outputs": [],
      "stateMutability": "nonpayable",
      "type": "function"
    },
    {
      "inputs": [],
      "name": "reserveContract",
      "outputs": [
        {
          "internalType": "contract LottoMojiReserves",
          "name": "",
          "type": "address"
        }
      ],
      "stateMutability": "view",
      "type": "function"
    },
    {
      "inputs": [
        {
          "internalType": "uint256",
          "name": "gameDay",
          "type": "uint256"
        }
      ],
      "name": "sendDailyReservesToContract",
      "outputs": [],
      "stateMutability": "nonpayable",
      "type": "function"
    },
    {
      "inputs": [
        {
          "internalType": "bool",
          "name": "_active",
          "type": "bool"
        }
      ],
      "name": "setGameActive",
      "outputs": [],
      "stateMutability": "nonpayable",
      "type": "function"
    },
    {
      "inputs": [],
      "name": "ticketCounter",
      "outputs": [
        {
          "internalType": "uint256",
          "name": "",
          "type": "uint256"
        }
      ],
      "stateMutability": "view",
      "type": "function"
    },
    {
      "inputs": [],
      "name": "ticketNFT",
      "outputs": [
        {
          "internalType": "contract LottoMojiTickets",
          "name": "",
          "type": "address"
        }
      ],
      "stateMutability": "view",
      "type": "function"
    },
    {
      "inputs": [
        {
          "internalType": "uint256",
          "name": "",
          "type": "uint256"
        }
      ],
      "name": "tickets",
      "outputs": [
        {
          "internalType": "uint256",
          "name": "tokenId",
          "type": "uint256"
        },
        {
          "internalType": "address",
          "name": "owner",
          "type": "address"
        },
        {
          "internalType": "uint256",
          "name": "gameDay",
          "type": "uint256"
        },
        {
          "internalType": "bool",
          "name": "isActive",
          "type": "bool"
        },
        {
          "internalType": "uint256",
          "name": "purchaseTime",
          "type": "uint256"
        },
        {
          "internalType": "bool",
          "name": "eligibleForReserve",
          "type": "bool"
        }
      ],
      "stateMutability": "view",
      "type": "function"
    },
    {
      "inputs": [
        {
          "internalType": "address",
          "name": "newOwner",
          "type": "address"
        }
      ],
      "name": "transferOwnership",
      "outputs": [],
      "stateMutability": "nonpayable",
      "type": "function"
    },
    {
      "inputs": [],
      "name": "usdcToken",
      "outputs": [
        {
          "internalType": "contract IERC20",
          "name": "",
          "type": "address"
        }
      ],
      "stateMutability": "view",
      "type": "function"
    },
    {
      "inputs": [
        {
          "internalType": "address",
          "name": "",
          "type": "address"
        },
        {
          "internalType": "uint256",
          "name": "",
          "type": "uint256"
        }
      ],
      "name": "userTickets",
      "outputs": [
        {
          "internalType": "uint256",
          "name": "",
          "type": "uint256"
        }
      ],
      "stateMutability": "view",
      "type": "function"
    },
    {
      "inputs": [
        {
          "internalType": "uint8[4]",
          "name": "emojis",
          "type": "uint8[4]"
        }
      ],
      "name": "validateEmojiSelection",
      "outputs": [
        {
          "internalType": "bool",
          "name": "",
          "type": "bool"
        }
      ],
      "stateMutability": "pure",
      "type": "function"
    }
  ],
  "bytecode": "0x6005610420818152644d4f4e455960d81b610440526101009081526007610460818152661112505353d39160ca1b610480526101205260066104a0818152651493d0d2d15560d21b6104c0526101405260046104e08181526314d313d560e21b6105005261016052610520818152634449434560e01b6105405261018052610560858152642527a5a2a960d91b610580526101a0526105a08181526308682a6960e31b6105c0526101c0526105e08281526554524f50485960d01b610600526101e0526106208281526515105491d15560d21b6106405261020052610660818152634649524560e01b610680526102205260096106a0908152684c494748544e494e4760b81b6106c052610240526106e08181526326a7a7a760e11b61070052610260526107208181526329aa20a960e11b610740526102805261076083815266535041524b4c4560c81b610780526102a0526107a08281526543495243555360d01b6107c0526102c05260036107e09081526210549560ea1b610800526102e052610820838152662aa724a1a7a92760c91b6108405261030052610860838152665241494e424f5760c81b61088052610320526108a08281526521a627ab22a960d11b6108c052610340526108e0838152662a2422a0aa22a960c91b6109005261036052610920918252652927a62622a960d11b61094052610380919091526109609081526347414d4560e01b610980526103a0526109a092835264135151105360da1b6109c0526103c09290925260086109e090815267434f4e464554544960c01b610a00526103e052610a60604052610a20918252662120a62627a7a760c91b610a4052610400919091526200027d90600290601962000396565b50601d805460ff191660011790553480156200029857600080fd5b50604051620034f7380380620034f7833981016040819052620002bb916200047d565b60016000553380620002e757604051631e4fbdf760e01b81526000600482015260240160405180910390fd5b620002f2816200032e565b506001600160a01b0380851660805283811660a05282811660c052811660e0526200031c62000380565b601b55505042601c55506200066e9050565b600180546001600160a01b038381166001600160a01b0319831681179093556040519116919082907f8be0079c531659141344cd1fd0a4f28419497f9722a3daafe3b4186f6b6457e090600090a35050565b6000620003916201518042620004da565b905090565b8260198101928215620003d4579160200282015b82811115620003d45782518290620003c39082620005a2565b5091602001919060010190620003aa565b50620003e2929150620003e6565b5090565b80821115620003e2576000620003fd828262000407565b50600101620003e6565b508054620004159062000513565b6000825580601f1062000426575050565b601f01602090049060005260206000209081019062000446919062000449565b50565b5b80821115620003e257600081556001016200044a565b80516001600160a01b03811681146200047857600080fd5b919050565b600080600080608085870312156200049457600080fd5b6200049f8562000460565b9350620004af6020860162000460565b9250620004bf6040860162000460565b9150620004cf6060860162000460565b905092959194509250565b600082620004f857634e487b7160e01b600052601260045260246000fd5b500490565b634e487b7160e01b600052604160045260246000fd5b600181811c908216806200052857607f821691505b6020821081036200054957634e487b7160e01b600052602260045260246000fd5b50919050565b601f8211156200059d57600081815260208120601f850160051c81016020861015620005785750805b601f850160051c820191505b81811015620005995782815560010162000584565b5050505b505050565b81516001600160401b03811115620005be57620005be620004fd565b620005d681620005cf845462000513565b846200054f565b602080601f8311600181146200060e5760008415620005f55750858301515b600019600386901b1c1916600185901b17855562000599565b600085815260208120601f198616915b828110156200063f578886015182559484019460019091019084016200061e565b50858210156200065e5787850151600019600388901b60f8161c191681555b5050505050600190811b01905550565b60805160a05160c05160e051612dfb620006fc6000396000818161061301526117e801526000818161058a01528181611be501528181611d550152818161213801526121ef0152600081816105b10152610b370152600081816102ab0152818161090c0152818161139b0152818161151c0152818161159301528181611c1701526125ba0152612dfb6000f3fe608060405234801561001057600080fd5b506004361061023d5760003560e01c80637dc379fa1161013b578063ccc08974116100b8578063db2e21bc1161007c578063db2e21bc1461066e578063dc85dced14610676578063e3d8b4a814610689578063f020044f14610691578063f2fde38b1461069e57600080fd5b8063ccc08974146105fb578063ccf69e9b1461060e578063cf260baf14610635578063d709815414610648578063d85c156c1461065b57600080fd5b8063a7f43acd116100ff578063a7f43acd14610585578063b393391b146105ac578063bc62b32d146103cc578063c4aa7245146105d3578063c72e7bed146105db57600080fd5b80637dc379fa146105135780638c4d59d0146105335780638da5cb5b1461053c578063946fee021461054d5780639897e3761461056057600080fd5b80632a1b4359116101c957806350b447121161018d57806350b44712146104275780635cbbd635146104b457806364e01cc4146104bd5780636f2b299c146104d0578063715018a61461050b57600080fd5b80632a1b43591461030457806333f0ef08146103cc5780633995326f146103d45780633d4962ed1461040a5780633e6968b61461041f57600080fd5b80630d50cdb9116102105780630d50cdb91461029d57806311eac855146102a65780631a595f65146102e55780631a95f15f146102fa5780632599399e1461027f57600080fd5b80630282f686146102425780630484a22f1461025f5780630bc75eb31461027f5780630cbed53a14610295575b600080fd5b61024a6106b1565b60405190151581526020015b60405180910390f35b61027261026d3660046128a2565b6106cc565b60405161025691906128c4565b610287600581565b604051908152602001610256565b610287601481565b610287601b5481565b6102cd7f000000000000000000000000000000000000000000000000000000000000000081565b6040516001600160a01b039091168152602001610256565b6102ed610738565b6040516102569190612934565b610287621e848081565b6103736103123660046129d2565b6022602052600090815260409020805460018201546002830154600384015460048501546005860154600687015460078801546008890154600a90990154979896979596949593949293919260ff918216929091818116916101009004168b565b604080519b8c5260208c019a909a52988a01979097526060890195909552608088019390935260a087019190915260c0860152151560e08501526101008401521515610120830152151561014082015261016001610256565b610287605081565b601e54601f546020546021546103ea9392919084565b604080519485526020850193909352918301526060820152608001610256565b61041d610418366004612a8a565b610842565b005b610287610bf6565b61047b6104353660046129d2565b60236020526000908152604090208054600182015460038301546004840154600585015460069095015493946001600160a01b0390931693919260ff9182169290911686565b604080519687526001600160a01b03909516602087015293850192909252151560608401526080830152151560a082015260c001610256565b610287601c5481565b61041d6104cb3660046129d2565b610c0a565b6104d8610c13565b60405161025691908151815260208083015190820152604080830151908201526060918201519181019190915260800190565b61041d610c6d565b6105266105213660046129d2565b610c81565b6040516102569190612aa6565b61028760265481565b6001546001600160a01b03166102cd565b61028761055b366004612b0a565b610d4b565b61057361056e366004612b2c565b610d7c565b60405160ff9091168152602001610256565b6102cd7f000000000000000000000000000000000000000000000000000000000000000081565b6102cd7f000000000000000000000000000000000000000000000000000000000000000081565b610287600a81565b6105ee6105e93660046129d2565b610eac565b6040516102569190612b62565b61041d610609366004612bbe565b610f4c565b6102cd7f000000000000000000000000000000000000000000000000000000000000000081565b610287610643366004612bdb565b610f67565b61041d6106563660046129d2565b610f83565b61024a610669366004612a8a565b6114a9565b61041d6114fc565b6102726106843660046129d2565b611683565b61041d6116e3565b601d5461024a9060ff1681565b61041d6106ac3660046128a2565b6118f8565b6000601c54620151806106c49190612c1b565b421015905090565b6001600160a01b03811660009081526025602090815260409182902080548351818402810184019094528084526060939283018282801561072c57602002820191906000526020600020905b815481526020019060010190808311610718575b50505050509050919050565b610740612716565b6022600061074c610bf6565b8152602080820192909252604090810160009081208251610180810184528154815260018201549481019490945260028101548484015260038101546060850152600480820154608080870191909152600583015460a0870152600683015460c0870152600783015460ff16151560e087015260088301546101008701528451908101948590529193610120860193600986019291908390855b825461010083900a900460ff168152602060019283018181049485019490930390920291018084116107e657505050928452505050600a919091015460ff80821615156020840152610100909104161515604090910152919050565b61084a611933565b601d5460ff166108935760405162461bcd60e51b815260206004820152600f60248201526e47616d65206e6f742061637469766560881b60448201526064015b60405180910390fd5b61089c816114a9565b6108e85760405162461bcd60e51b815260206004820152601760248201527f496e76616c696420656d6f6a692073656c656374696f6e000000000000000000604482015260640161088a565b6040516323b872dd60e01b8152336004820152306024820152621e848060448201527f00000000000000000000000000000000000000000000000000000000000000006001600160a01b0316906323b872dd906064016020604051808303816000875af115801561095d573d6000803e3d6000fd5b505050506040513d601f19601f820116820180604052508101906109819190612c2e565b6109c45760405162461bcd60e51b81526020600482015260146024820152731554d110c81d1c985b9cd9995c8819985a5b195960621b604482015260640161088a565b60006109ce610bf6565b6026805491925060006109e083612c4b565b90915550506040805160e081018252602654808252336020808401918252838501878152606085018790526001608086018190524260a087015260c08601819052600094855260239092529490922083518155905191810180546001600160a01b0319166001600160a01b03909316929092179091559151909190610a6b906002830190600461277f565b5060608201516003820155608082015160048201805491151560ff1992831617905560a0830151600583015560c090920151600690910180549115159190921617905560008181526024602090815260408083206026805482546001818101855593875285872001553385526025845282852090548154928301825590855283852090910155838352602290915281208054621e84809290610b0e908490612c1b565b90915550610b1d90508161195d565b6026546040516314c7022360e31b81526001600160a01b037f0000000000000000000000000000000000000000000000000000000000000000169163a638111891610b7091339187908790600401612c64565b600060405180830381600087803b158015610b8a57600080fd5b505af1158015610b9e573d6000803e3d6000fd5b50505050336001600160a01b03166026547f8d638e5fab80232bf709cdd14d918285207e67414f36a090fb409fde4eb5af358484604051610be0929190612c97565b60405180910390a350610bf36001600055565b50565b6000610c056201518042612cb2565b905090565b610bf381611a77565b610c3e6040518060800160405280600081526020016000815260200160008152602001600081525090565b5060408051608081018252601e548152601f546020808301919091525491810191909152602154606082015290565b610c75611e03565b610c7f6000611e30565b565b610c89612812565b6000828152602360209081526040808320815160e0810183528154815260018201546001600160a01b0316938101939093528151608081018084529394919392850192909160028501916004918390855b825461010083900a900460ff16815260206001928301818104948501949093039092029101808411610cda5750505092845250505060038201546020820152600482015460ff9081161515604083015260058301546060830152600690920154909116151560809091015292915050565b60246020528160005260406000208181548110610d6757600080fd5b90600052602060002001600091509150505481565b60006001815b6004811015610ddf57838160048110610d9d57610d9d612cd4565b602002015160ff16858260048110610db757610db7612cd4565b602002015160ff1614610dcd5760009150610ddf565b80610dd781612c4b565b915050610d82565b508015610df0576001915050610ea6565b610dfa8484611e82565b15610e09576002915050610ea6565b6000805b6004811015610e6f57848160048110610e2857610e28612cd4565b602002015160ff16868260048110610e4257610e42612cd4565b602002015160ff1603610e5d5781610e5981612c4b565b9250505b80610e6781612c4b565b915050610e0d565b5060038110610e8357600392505050610ea6565b6003610e8f8686611f1e565b10610e9f57600492505050610ea6565b6000925050505b92915050565b60028160198110610ebc57600080fd5b018054909150610ecb90612cea565b80601f0160208091040260200160405190810160405280929190818152602001828054610ef790612cea565b8015610f445780601f10610f1957610100808354040283529160200191610f44565b820191906000526020600020905b815481529060010190602001808311610f2757829003601f168201915b505050505081565b610f54611e03565b601d805460ff1916911515919091179055565b60256020528160005260406000208181548110610d6757600080fd5b610f8b611933565b6000818152602360205260409020600101546001600160a01b03163314610fe75760405162461bcd60e51b815260206004820152601060248201526f2737ba103a34b1b5b2ba1037bbb732b960811b604482015260640161088a565b60008181526023602052604090206004015460ff166110415760405162461bcd60e51b8152602060048201526016602482015275151a58dad95d08185b1c9958591e4818db185a5b595960521b604482015260640161088a565b6000818152602360209081526040808320600301548084526022909252909120600a015460ff166110a85760405162461bcd60e51b8152602060048201526011602482015270111c985dc81b9bdd08195e1958dd5d1959607a1b604482015260640161088a565b60008181526022602052604090206007015460ff166111025760405162461bcd60e51b8152602060048201526016602482015275141c9a5e995cc81b9bdd08191a5cdd1c9a589d5d195960521b604482015260640161088a565b600082815260236020526040808220815160808101928390526111bc929091600201906004908286855b825461010083900a900460ff1681526020600192830181810494850194909303909202910180841161112c57505050600087815260226020526040808220815160808101928390529550600901935060049250908390855b825461010083900a900460ff168152602060019283018181049485019490930390920291018084116111845790505050505050610d7c565b905060008160ff16116112085760405162461bcd60e51b8152602060048201526014602482015273139bdd0818481dda5b9b9a5b99c81d1a58dad95d60621b604482015260640161088a565b6000838152602360205260408120600401805460ff191690558060ff831660010361129b57600061123a856001611fb0565b601e5490915061124b908290612cb2565b601e5490935083111561127457601e546112719060019061126c9086612d24565b612116565b91505b601e548310611284576000611292565b601e54611292908490612d24565b601e555061137f565b8260ff1660020361130f5760006112b3856002611fb0565b601f549091506112c4908290612cb2565b601f549093508311156112e857601f546112e59060029061126c9086612d24565b91505b601f5483106112f8576000611306565b601f54611306908490612d24565b601f555061137f565b8260ff1660030361137f576000611327856003611fb0565b602054909150611338908290612cb2565b60205490935083111561135c576020546113599060039061126c9086612d24565b91505b602054831061136c57600061137a565b60205461137a908490612d24565b602055505b60405163a9059cbb60e01b8152336004820152602481018390527f00000000000000000000000000000000000000000000000000000000000000006001600160a01b03169063a9059cbb906044016020604051808303816000875af11580156113ec573d6000803e3d6000fd5b505050506040513d601f19601f820116820180604052508101906114109190612c2e565b6114545760405162461bcd60e51b8152602060048201526015602482015274141c9a5e99481d1c985b9cd9995c8819985a5b1959605a1b604482015260640161088a565b6040805183815260ff85166020820152821515818301529051339187917f026cdcc366814fb563cebc9794374e5d7aaa2f89b43f7f7661e5439f2c89f8f79181900360600190a350505050610bf36001600055565b6000805b60048110156114f35760188382600481106114ca576114ca612cd4565b602002015160ff1611156114e15750600092915050565b806114eb81612c4b565b9150506114ad565b50600192915050565b611504611e03565b6040516370a0823160e01b81523060048201526000907f00000000000000000000000000000000000000000000000000000000000000006001600160a01b0316906370a0823190602401602060405180830381865afa15801561156b573d6000803e3d6000fd5b505050506040513d601f19601f8201168201806040525081019061158f9190612d37565b90507f00000000000000000000000000000000000000000000000000000000000000006001600160a01b031663a9059cbb6115d26001546001600160a01b031690565b6040516001600160e01b031960e084901b1681526001600160a01b039091166004820152602481018490526044016020604051808303816000875af115801561161f573d6000803e3d6000fd5b505050506040513d601f19601f820116820180604052508101906116439190612c2e565b610bf35760405162461bcd60e51b815260206004820152601160248201527015da5d1a191c985dd85b0819985a5b1959607a1b604482015260640161088a565b60008181526024602090815260409182902080548351818402810184019094528084526060939283018282801561072c57602002820191906000526020600020908154815260200190600101908083116107185750505050509050919050565b6116eb6106b1565b6117375760405162461bcd60e51b815260206004820152601760248201527f43616e6e6f742065786563757465206472617720796574000000000000000000604482015260640161088a565b60006001611743610bf6565b61174d9190612d24565b6000818152602260205260409020600a015490915060ff16156117a25760405162461bcd60e51b815260206004820152600d60248201526c20b63932b0b23c90323930bbb760991b604482015260640161088a565b6000818152602260205260409020600a0154610100900460ff161580156117d6575060008181526022602052604090205415155b156117e4576117e481611a77565b60007f00000000000000000000000000000000000000000000000000000000000000006001600160a01b031663123d435e6040518163ffffffff1660e01b8152600401608060405180830381865afa158015611844573d6000803e3d6000fd5b505050506040513d601f19601f820116820180604052508101906118689190612d50565b60008381526022602052604090209091506118889060090182600461277f565b506000828152602260205260409020600a01805460ff1916600117905542601c556118b38282612284565b817fe69a20bd85247c3428aec726bfa23e80608f0c3fdc4cb8b85d1cf67cfa225162826118de6126e8565b6040516118ec929190612c97565b60405180910390a25050565b611900611e03565b6001600160a01b03811661192a57604051631e4fbdf760e01b81526000600482015260240161088a565b610bf381611e30565b60026000540361195657604051633ee5aeb560e01b815260040160405180910390fd5b6002600055565b6000818152602260205260409020546064611979605083612dae565b6119839190612cb2565b60008381526022602052604090206001015560646119a2601483612dae565b6119ac9190612cb2565b600083815260226020526040902060028101919091556001015460646119d3605083612dae565b6119dd9190612cb2565b60008481526022602052604090206003015560646119fc600a83612dae565b611a069190612cb2565b6000848152602260205260409020600401556064611a25600583612dae565b611a2f9190612cb2565b6000848152602260205260409020600590810191909155606490611a539083612dae565b611a5d9190612cb2565b600093845260226020526040909320600601929092555050565b6000818152602260205260409020600a0154610100900460ff1615611ae95760405162461bcd60e51b815260206004820152602260248201527f526573657276657320616c72656164792073656e7420666f7220746869732064604482015261617960f01b606482015260840161088a565b600081815260226020526040902054611b445760405162461bcd60e51b815260206004820152601b60248201527f4e6f2066756e647320636f6c6c65637465642074686973206461790000000000604482015260640161088a565b60008181526022602052604081206003810154909190606490611b6990601490612dae565b611b739190612cb2565b90506000606460148460040154611b8a9190612dae565b611b949190612cb2565b90506000606460148560050154611bab9190612dae565b611bb59190612cb2565b9050600081611bc48486612c1b565b611bce9190612c1b565b60405163a9059cbb60e01b81526001600160a01b037f000000000000000000000000000000000000000000000000000000000000000081166004830152602482018390529192507f00000000000000000000000000000000000000000000000000000000000000009091169063a9059cbb906044016020604051808303816000875af1158015611c62573d6000803e3d6000fd5b505050506040513d601f19601f82011682018060405250810190611c869190612c2e565b611cd25760405162461bcd60e51b815260206004820152601760248201527f52657365727665207472616e73666572206661696c6564000000000000000000604482015260640161088a565b838560030154611ce29190612d24565b60038601556004850154611cf7908490612d24565b60048601556005850154611d0c908390612d24565b6005860155600a8501805461ff001916610100179055604051637e9e08a560e01b8152600481018790526024810185905260448101849052606481018390526001600160a01b037f00000000000000000000000000000000000000000000000000000000000000001690637e9e08a590608401600060405180830381600087803b158015611d9957600080fd5b505af1158015611dad573d6000803e3d6000fd5b50506040805187815260208101879052908101859052606081018490528892507fa5d2656a8dcf8630609f3f5ce778cc220baea1b2e804fbc353c4ec0bfbae10ad915060800160405180910390a2505050505050565b6001546001600160a01b03163314610c7f5760405163118cdaa760e01b815233600482015260240161088a565b600180546001600160a01b038381166001600160a01b0319831681179093556040519116919082907f8be0079c531659141344cd1fd0a4f28419497f9722a3daafe3b4186f6b6457e090600090a35050565b6000805b6004811015611f14576000805b6004811015611ef057848160048110611eae57611eae612cd4565b602002015160ff16868460048110611ec857611ec8612cd4565b602002015160ff1603611ede5760019150611ef0565b80611ee881612c4b565b915050611e93565b5080611f0157600092505050610ea6565b5080611f0c81612c4b565b915050611e86565b5060019392505050565b600080805b6004811015611fa85760005b6004811015611f9557848160048110611f4a57611f4a612cd4565b602002015160ff16868360048110611f6457611f64612cd4565b602002015160ff1603611f835782611f7b81612c4b565b935050611f95565b80611f8d81612c4b565b915050611f2f565b5080611fa081612c4b565b915050611f23565b509392505050565b60008281526024602090815260408083208054825181850281018501909352808352849383018282801561200357602002820191906000526020600020905b815481526020019060010190808311611fef575b505050505090506000805b825181101561210d578460ff166120e56023600086858151811061203457612034612cd4565b6020908102919091018101518252810191909152604090810160002081516080810190925260020160048282826020028201916000905b825461010083900a900460ff1681526020600192830181810494850194909303909202910180841161206b5750505060008c815260226020908152604091829020825160808101938490526009909101805460ff168252909550935060049250839060019086018084116111845790505050505050610d7c565b60ff16036120fb57816120f781612c4b565b9250505b8061210581612c4b565b91505061200e565b50949350505050565b604051631178408960e01b815260ff83166004820152602481018290526000907f00000000000000000000000000000000000000000000000000000000000000006001600160a01b031690631178408990604401600060405180830381600087803b15801561218457600080fd5b505af1925050508015612195575060015b6121a157506000610ea6565b6121a9610bf6565b60405163bdb15a5760e01b815260ff851660048201527f6040931b4a8fcd197ba0c115c083954853fdfccb8afbbff47c59c21ea246a37e90859085906001600160a01b037f0000000000000000000000000000000000000000000000000000000000000000169063bdb15a5790602401602060405180830381865afa158015612236573d6000803e3d6000fd5b505050506040513d601f19601f8201168201806040525081019061225a9190612d37565b6040805160ff909416845260208401929092529082015260600160405180910390a2506001610ea6565b6000828152602460209081526040808320805482518185028101850190935280835291929091908301828280156122da57602002820191906000526020600020905b8154815260200190600101908083116122c6575b505050505090506000806000805b84518110156123e257600085828151811061230557612305612cd4565b6020908102919091018101516000818152602390925260408083208151608081019283905292945061237892916002909101906004908286855b825461010083900a900460ff1681526020600192830181810494850194909303909202910180841161233f579050505050505089610d7c565b90508060ff16600103612397578561238f81612c4b565b9650506123cd565b8060ff166002036123b457846123ac81612c4b565b9550506123cd565b8060ff166003036123cd57836123c981612c4b565b9450505b505080806123da90612c4b565b9150506122e8565b50600086815260226020526040812060030154601e805491929091612408908490612c1b565b9091555050600086815260226020526040812060040154601f805491929091612432908490612c1b565b90915550506000868152602260209081526040822060050154815490929061245b908490612c1b565b90915550506000868152602260205260408120600601546021805491929091612485908490612c1b565b909155505060008390036124ed5760008681526022602090815260409182902060030154601e548351600181529283019190915281830152905187917ff2e8ed8e461cebe6392aa442a58ec97a7aa5722617fe580552638de0fc3917e7919081900360600190a25b8160000361254f5760008681526022602090815260409182902060040154601f548351600281529283019190915281830152905187917ff2e8ed8e461cebe6392aa442a58ec97a7aa5722617fe580552638de0fc3917e7919081900360600190a25b806000036125b0576000868152602260209081526040918290206005015481548351600381529283019190915281830152905187917ff2e8ed8e461cebe6392aa442a58ec97a7aa5722617fe580552638de0fc3917e7919081900360600190a25b602154156126bd577f00000000000000000000000000000000000000000000000000000000000000006001600160a01b031663a9059cbb6125f96001546001600160a01b031690565b60215460405160e084901b6001600160e01b03191681526001600160a01b03909216600483015260248201526044016020604051808303816000875af1158015612647573d6000803e3d6000fd5b505050506040513d601f19601f8201168201806040525081019061266b9190612c2e565b6126b75760405162461bcd60e51b815260206004820152601a60248201527f446576656c6f706d656e74207061796d656e74206661696c6564000000000000604482015260640161088a565b60006021555b5050506000928352505060226020526040902060078101805460ff1916600117905542600890910155565b602154602054601f54601e54600093929161270291612c1b565b61270c9190612c1b565b610c059190612c1b565b604051806101800160405280600081526020016000815260200160008152602001600081526020016000815260200160008152602001600081526020016000151581526020016000815260200161276b612853565b815260006020820181905260409091015290565b6001830191839082156128025791602002820160005b838211156127d357835183826101000a81548160ff021916908360ff1602179055509260200192600101602081600001049283019260010302612795565b80156128005782816101000a81549060ff02191690556001016020816000010492830192600103026127d3565b505b5061280e929150612871565b5090565b6040805160e08101825260008082526020820152908101612831612853565b8152600060208201819052604082018190526060820181905260809091015290565b60405180608001604052806004906020820280368337509192915050565b5b8082111561280e5760008155600101612872565b80356001600160a01b038116811461289d57600080fd5b919050565b6000602082840312156128b457600080fd5b6128bd82612886565b9392505050565b6020808252825182820181905260009190848201906040850190845b818110156128fc578351835292840192918401916001016128e0565b50909695505050505050565b8060005b600481101561292e57815160ff1684526020938401939091019060010161290c565b50505050565b60006101e082019050825182526020830151602083015260408301516040830152606083015160608301526080830151608083015260a083015160a083015260c083015160c083015260e083015161299060e084018215159052565b506101008381015190830152610120808401516129af82850182612908565b505061014083015115156101a08301526101609092015115156101c09091015290565b6000602082840312156129e457600080fd5b5035919050565b6040516080810167ffffffffffffffff81118282101715612a1c57634e487b7160e01b600052604160045260246000fd5b60405290565b60ff81168114610bf357600080fd5b600082601f830112612a4257600080fd5b612a4a6129eb565b806080840185811115612a5c57600080fd5b845b81811015612a7f578035612a7181612a22565b845260209384019301612a5e565b509095945050505050565b600060808284031215612a9c57600080fd5b6128bd8383612a31565b815181526020808301516001600160a01b031690820152604080830151610140830191612ad590840182612908565b50606083015160c08301526080830151151560e083015260a083015161010083015260c0830151151561012083015292915050565b60008060408385031215612b1d57600080fd5b50508035926020909101359150565b6000806101008385031215612b4057600080fd5b612b4a8484612a31565b9150612b598460808501612a31565b90509250929050565b600060208083528351808285015260005b81811015612b8f57858101830151858201604001528201612b73565b506000604082860101526040601f19601f8301168501019250505092915050565b8015158114610bf357600080fd5b600060208284031215612bd057600080fd5b81356128bd81612bb0565b60008060408385031215612bee57600080fd5b612bf783612886565b946020939093013593505050565b634e487b7160e01b600052601160045260246000fd5b80820180821115610ea657610ea6612c05565b600060208284031215612c4057600080fd5b81516128bd81612bb0565b600060018201612c5d57612c5d612c05565b5060010190565b6001600160a01b03851681526020810184905260e08101612c886040830185612908565b8260c083015295945050505050565b60a08101612ca58285612908565b8260808301529392505050565b600082612ccf57634e487b7160e01b600052601260045260246000fd5b500490565b634e487b7160e01b600052603260045260246000fd5b600181811c90821680612cfe57607f821691505b602082108103612d1e57634e487b7160e01b600052602260045260246000fd5b50919050565b81810381811115610ea657610ea6612c05565b600060208284031215612d4957600080fd5b5051919050565b600060808284031215612d6257600080fd5b82601f830112612d7157600080fd5b612d796129eb565b806080840185811115612d8b57600080fd5b845b81811015612a7f578051612da081612a22565b845260209384019301612d8d565b8082028115828204841417610ea657610ea6612c0556fea2646970667358221220c0bb3da4d040c657b3ddcf6452faee8635a20f46991b728f5b7897950cea01bf64736f6c63430008140033",
  "linkReferences": {},
  "deployedLinkReferences": {}
}