{
  "_format": "hh-sol-artifact-1",
  "contractName": "LottoMojiCore",
  "sourceName": "contracts/LottoMojiCore.sol",
  "abi": [
    {
      "inputs": [
        {
          "internalType": "address",
          "name": "_vrfCoordinator",
          "type": "address"
        },
        {
          "internalType": "uint256",
          "name": "_subscriptionId",
          "type": "uint256"
        },
        {
          "internalType": "bytes32",
          "name": "_keyHash",
          "type": "bytes32"
        },
        {
          "internalType": "address",
          "name": "_ticketContract",
          "type": "address"
        },
        {
          "internalType": "address",
          "name": "_prizePoolContract",
          "type": "address"
        }
      ],
      "stateMutability": "nonpayable",
      "type": "constructor"
    },
    {
      "inputs": [],
      "name": "AccessControlBadConfirmation",
      "type": "error"
    },
    {
      "inputs": [
        {
          "internalType": "address",
          "name": "account",
          "type": "address"
        },
        {
          "internalType": "bytes32",
          "name": "neededRole",
          "type": "bytes32"
        }
      ],
      "name": "AccessControlUnauthorizedAccount",
      "type": "error"
    },
    {
      "inputs": [
        {
          "internalType": "address",
          "name": "have",
          "type": "address"
        },
        {
          "internalType": "address",
          "name": "want",
          "type": "address"
        }
      ],
      "name": "OnlyCoordinatorCanFulfill",
      "type": "error"
    },
    {
      "inputs": [],
      "name": "ReentrancyGuardReentrantCall",
      "type": "error"
    },
    {
      "anonymous": false,
      "inputs": [
        {
          "indexed": true,
          "internalType": "uint256",
          "name": "roundId",
          "type": "uint256"
        },
        {
          "indexed": false,
          "internalType": "uint256[4]",
          "name": "winningNumbers",
          "type": "uint256[4]"
        }
      ],
      "name": "NumbersDrawn",
      "type": "event"
    },
    {
      "anonymous": false,
      "inputs": [
        {
          "indexed": true,
          "internalType": "uint256",
          "name": "roundId",
          "type": "uint256"
        },
        {
          "indexed": false,
          "internalType": "uint256",
          "name": "vrfRequestId",
          "type": "uint256"
        }
      ],
      "name": "NumbersRequested",
      "type": "event"
    },
    {
      "anonymous": false,
      "inputs": [
        {
          "indexed": true,
          "internalType": "uint256",
          "name": "roundId",
          "type": "uint256"
        },
        {
          "indexed": false,
          "internalType": "uint256",
          "name": "totalWinners",
          "type": "uint256"
        }
      ],
      "name": "PrizesDistributed",
      "type": "event"
    },
    {
      "anonymous": false,
      "inputs": [
        {
          "indexed": true,
          "internalType": "bytes32",
          "name": "role",
          "type": "bytes32"
        },
        {
          "indexed": true,
          "internalType": "bytes32",
          "name": "previousAdminRole",
          "type": "bytes32"
        },
        {
          "indexed": true,
          "internalType": "bytes32",
          "name": "newAdminRole",
          "type": "bytes32"
        }
      ],
      "name": "RoleAdminChanged",
      "type": "event"
    },
    {
      "anonymous": false,
      "inputs": [
        {
          "indexed": true,
          "internalType": "bytes32",
          "name": "role",
          "type": "bytes32"
        },
        {
          "indexed": true,
          "internalType": "address",
          "name": "account",
          "type": "address"
        },
        {
          "indexed": true,
          "internalType": "address",
          "name": "sender",
          "type": "address"
        }
      ],
      "name": "RoleGranted",
      "type": "event"
    },
    {
      "anonymous": false,
      "inputs": [
        {
          "indexed": true,
          "internalType": "bytes32",
          "name": "role",
          "type": "bytes32"
        },
        {
          "indexed": true,
          "internalType": "address",
          "name": "account",
          "type": "address"
        },
        {
          "indexed": true,
          "internalType": "address",
          "name": "sender",
          "type": "address"
        }
      ],
      "name": "RoleRevoked",
      "type": "event"
    },
    {
      "anonymous": false,
      "inputs": [
        {
          "indexed": true,
          "internalType": "uint256",
          "name": "roundId",
          "type": "uint256"
        }
      ],
      "name": "RoundCompleted",
      "type": "event"
    },
    {
      "anonymous": false,
      "inputs": [
        {
          "indexed": true,
          "internalType": "uint256",
          "name": "roundId",
          "type": "uint256"
        },
        {
          "indexed": false,
          "internalType": "uint256",
          "name": "startTime",
          "type": "uint256"
        },
        {
          "indexed": false,
          "internalType": "uint256",
          "name": "endTime",
          "type": "uint256"
        }
      ],
      "name": "RoundStarted",
      "type": "event"
    },
    {
      "anonymous": false,
      "inputs": [
        {
          "indexed": true,
          "internalType": "uint256",
          "name": "roundId",
          "type": "uint256"
        },
        {
          "indexed": true,
          "internalType": "address",
          "name": "player",
          "type": "address"
        },
        {
          "indexed": false,
          "internalType": "uint256",
          "name": "ticketId",
          "type": "uint256"
        }
      ],
      "name": "TicketPurchased",
      "type": "event"
    },
    {
      "inputs": [],
      "name": "DEFAULT_ADMIN_ROLE",
      "outputs": [
        {
          "internalType": "bytes32",
          "name": "",
          "type": "bytes32"
        }
      ],
      "stateMutability": "view",
      "type": "function"
    },
    {
      "inputs": [
        {
          "internalType": "uint256",
          "name": "",
          "type": "uint256"
        }
      ],
      "name": "EMOJIS",
      "outputs": [
        {
          "internalType": "string",
          "name": "",
          "type": "string"
        }
      ],
      "stateMutability": "view",
      "type": "function"
    },
    {
      "inputs": [],
      "name": "OPERATOR_ROLE",
      "outputs": [
        {
          "internalType": "bytes32",
          "name": "",
          "type": "bytes32"
        }
      ],
      "stateMutability": "view",
      "type": "function"
    },
    {
      "inputs": [],
      "name": "ROUND_DURATION",
      "outputs": [
        {
          "internalType": "uint256",
          "name": "",
          "type": "uint256"
        }
      ],
      "stateMutability": "view",
      "type": "function"
    },
    {
      "inputs": [
        {
          "internalType": "uint256[4]",
          "name": "emojis",
          "type": "uint256[4]"
        }
      ],
      "name": "buyTicketWithETH",
      "outputs": [],
      "stateMutability": "payable",
      "type": "function"
    },
    {
      "inputs": [
        {
          "internalType": "uint256[4]",
          "name": "emojis",
          "type": "uint256[4]"
        }
      ],
      "name": "buyTicketWithUSDC",
      "outputs": [],
      "stateMutability": "nonpayable",
      "type": "function"
    },
    {
      "inputs": [
        {
          "internalType": "bytes",
          "name": "",
          "type": "bytes"
        }
      ],
      "name": "checkUpkeep",
      "outputs": [
        {
          "internalType": "bool",
          "name": "upkeepNeeded",
          "type": "bool"
        },
        {
          "internalType": "bytes",
          "name": "performData",
          "type": "bytes"
        }
      ],
      "stateMutability": "view",
      "type": "function"
    },
    {
      "inputs": [],
      "name": "currentRoundId",
      "outputs": [
        {
          "internalType": "uint256",
          "name": "",
          "type": "uint256"
        }
      ],
      "stateMutability": "view",
      "type": "function"
    },
    {
      "inputs": [
        {
          "internalType": "uint256",
          "name": "roundId",
          "type": "uint256"
        },
        {
          "internalType": "uint256[4]",
          "name": "winningNumbers",
          "type": "uint256[4]"
        }
      ],
      "name": "emergencyCompleteRound",
      "outputs": [],
      "stateMutability": "nonpayable",
      "type": "function"
    },
    {
      "inputs": [],
      "name": "getCurrentRoundInfo",
      "outputs": [
        {
          "internalType": "uint256",
          "name": "roundId",
          "type": "uint256"
        },
        {
          "internalType": "uint256",
          "name": "startTime",
          "type": "uint256"
        },
        {
          "internalType": "uint256",
          "name": "endTime",
          "type": "uint256"
        },
        {
          "internalType": "bool",
          "name": "isActive",
          "type": "bool"
        },
        {
          "internalType": "bool",
          "name": "numbersDrawn",
          "type": "bool"
        },
        {
          "internalType": "uint256[4]",
          "name": "winningNumbers",
          "type": "uint256[4]"
        }
      ],
      "stateMutability": "view",
      "type": "function"
    },
    {
      "inputs": [
        {
          "internalType": "uint256",
          "name": "index",
          "type": "uint256"
        }
      ],
      "name": "getEmoji",
      "outputs": [
        {
          "internalType": "string",
          "name": "",
          "type": "string"
        }
      ],
      "stateMutability": "view",
      "type": "function"
    },
    {
      "inputs": [
        {
          "internalType": "bytes32",
          "name": "role",
          "type": "bytes32"
        }
      ],
      "name": "getRoleAdmin",
      "outputs": [
        {
          "internalType": "bytes32",
          "name": "",
          "type": "bytes32"
        }
      ],
      "stateMutability": "view",
      "type": "function"
    },
    {
      "inputs": [
        {
          "internalType": "bytes32",
          "name": "role",
          "type": "bytes32"
        },
        {
          "internalType": "address",
          "name": "account",
          "type": "address"
        }
      ],
      "name": "grantRole",
      "outputs": [],
      "stateMutability": "nonpayable",
      "type": "function"
    },
    {
      "inputs": [
        {
          "internalType": "bytes32",
          "name": "role",
          "type": "bytes32"
        },
        {
          "internalType": "address",
          "name": "account",
          "type": "address"
        }
      ],
      "name": "hasRole",
      "outputs": [
        {
          "internalType": "bool",
          "name": "",
          "type": "bool"
        }
      ],
      "stateMutability": "view",
      "type": "function"
    },
    {
      "inputs": [],
      "name": "lastDrawTime",
      "outputs": [
        {
          "internalType": "uint256",
          "name": "",
          "type": "uint256"
        }
      ],
      "stateMutability": "view",
      "type": "function"
    },
    {
      "inputs": [
        {
          "internalType": "uint256",
          "name": "roundId",
          "type": "uint256"
        }
      ],
      "name": "manualDraw",
      "outputs": [],
      "stateMutability": "nonpayable",
      "type": "function"
    },
    {
      "inputs": [
        {
          "internalType": "bytes",
          "name": "performData",
          "type": "bytes"
        }
      ],
      "name": "performUpkeep",
      "outputs": [],
      "stateMutability": "nonpayable",
      "type": "function"
    },
    {
      "inputs": [],
      "name": "prizePoolContract",
      "outputs": [
        {
          "internalType": "contract LottoMojiPrizePool",
          "name": "",
          "type": "address"
        }
      ],
      "stateMutability": "view",
      "type": "function"
    },
    {
      "inputs": [
        {
          "internalType": "uint256",
          "name": "requestId",
          "type": "uint256"
        },
        {
          "internalType": "uint256[]",
          "name": "randomWords",
          "type": "uint256[]"
        }
      ],
      "name": "rawFulfillRandomWords",
      "outputs": [],
      "stateMutability": "nonpayable",
      "type": "function"
    },
    {
      "inputs": [
        {
          "internalType": "bytes32",
          "name": "role",
          "type": "bytes32"
        },
        {
          "internalType": "address",
          "name": "callerConfirmation",
          "type": "address"
        }
      ],
      "name": "renounceRole",
      "outputs": [],
      "stateMutability": "nonpayable",
      "type": "function"
    },
    {
      "inputs": [
        {
          "internalType": "bytes32",
          "name": "role",
          "type": "bytes32"
        },
        {
          "internalType": "address",
          "name": "account",
          "type": "address"
        }
      ],
      "name": "revokeRole",
      "outputs": [],
      "stateMutability": "nonpayable",
      "type": "function"
    },
    {
      "inputs": [
        {
          "internalType": "uint256",
          "name": "",
          "type": "uint256"
        }
      ],
      "name": "rounds",
      "outputs": [
        {
          "internalType": "uint256",
          "name": "id",
          "type": "uint256"
        },
        {
          "internalType": "uint256",
          "name": "startTime",
          "type": "uint256"
        },
        {
          "internalType": "uint256",
          "name": "endTime",
          "type": "uint256"
        },
        {
          "internalType": "bool",
          "name": "isActive",
          "type": "bool"
        },
        {
          "internalType": "bool",
          "name": "numbersDrawn",
          "type": "bool"
        },
        {
          "internalType": "uint256",
          "name": "vrfRequestId",
          "type": "uint256"
        },
        {
          "internalType": "bool",
          "name": "prizesDistributed",
          "type": "bool"
        }
      ],
      "stateMutability": "view",
      "type": "function"
    },
    {
      "inputs": [
        {
          "internalType": "bytes4",
          "name": "interfaceId",
          "type": "bytes4"
        }
      ],
      "name": "supportsInterface",
      "outputs": [
        {
          "internalType": "bool",
          "name": "",
          "type": "bool"
        }
      ],
      "stateMutability": "view",
      "type": "function"
    },
    {
      "inputs": [],
      "name": "ticketContract",
      "outputs": [
        {
          "internalType": "contract LottoMojiTickets",
          "name": "",
          "type": "address"
        }
      ],
      "stateMutability": "view",
      "type": "function"
    },
    {
      "inputs": [
        {
          "internalType": "uint256",
          "name": "",
          "type": "uint256"
        }
      ],
      "name": "vrfRequestToRound",
      "outputs": [
        {
          "internalType": "uint256",
          "name": "",
          "type": "uint256"
        }
      ],
      "stateMutability": "view",
      "type": "function"
    }
  ],
  "bytecode": "0x61014034620007e757601f62002c2738819003918201601f1916830191906001600160401b03831184841017620007d1578160a09285926040958652833981010312620007e75762000051826200080c565b60208301519180840151926200006a606086016200080c565b906200007a60808097016200080c565b8487526001805583519461032086016001600160401b03811187821017620007d1578552620000a8620007ec565b600480825263f09f8c9f60e01b602083015290875293620000c8620007ec565b858152631e13f1d160e31b60208201526020880152620000e7620007ec565b858152631e13f1d560e31b60208201528787015262000105620007ec565b858152631e13f19160e31b6020820152606088015262000124620007ec565b858152633c27e9a160e21b6020820152878a015262000142620007ec565b85815263f09f8dad60e01b602082015260a088015262000161620007ec565b85815263784fc75560e11b602082015260c088015262000180620007ec565b858152630784fc7560e51b602082015260e08801526200019f620007ec565b9785895263f09f8ea160e01b60208a01526101009889890152620001c2620007ec565b9786895263784fc75160e11b60208a01526101209889820152620001e5620007ec565b87815263784fc65d60e11b602082015261014082015262000205620007ec565b87815263f09fa68b60e01b602082015261016082015262000225620007ec565b878152633c27e42b60e21b602082015261018082015262000245620007ec565b878152631e13f19760e31b60208201526101a082015262000265620007ec565b87815263784fc6d360e11b60208201526101c082015262000285620007ec565b87815263f09f8eb560e01b60208201526101e0820152620002a5620007ec565b87815263f09f8eaf60e01b6020820152610200820152620002c5620007ec565b878152633c27e32d60e21b6020820152610220820152620002e5620007ec565b87815263f09f8ea960e01b602082015261024082015262000305620007ec565b87815263f09f8ead60e01b602082015261026082015262000325620007ec565b87815263f09f8e8160e01b602082015261028082015262000345620007ec565b87815263784fc75760e11b60208201526102a082015262000365620007ec565b8781526301e13f3560e71b60208201526102c082015262000385620007ec565b87815263f09f8c8d60e01b60208201526102e0820152620003a5620007ec565b8781526301e13f1b60e71b60208201526103008201526002906000905b60198210620006545750505060018060a01b03948580941660a05260c05260e052168652168352620003f43362000821565b506200040033620008a1565b50601c5460001981146200063f576001019081601c55620151804201918242116200063f578351918783016001600160401b038111848210176200062a57855260008084526020840181905283860181905260608401528451928784016001600160401b0381118582101762000615578652828452602084019142835286850190868252606086019283528a8601926001845260a08701926000845260c08801956000875260e089019760008952600052601b6020528a600020985189555160018901555160028801555160005b828110620005fd575050509184939160099362000502600762000534980192511515839060ff801983541691151516179055565b51151561ff0082549160081b169061ff00191617905551600884015551151591019060ff801983541691151516179055565b42601d557fa359b664a68acd8839e42112eb50eff3408165e15074fde89ddb58a0db2e691d82601c54928151904282526020820152a251916122c393846200094485395183610ccd015260a051836114bb015260c05183611466015260e051836114400152518281816104b5015281816108570152818161171e015281816117e601528181611adc01528181611b2701528181611b7e01528181611c7801526120c001525181818161042b015281816106290152818161093201528181611a5e01526121880152f35b600190602083519301926003828b01015501620004ce565b604183634e487b7160e01b6000525260246000fd5b604182634e487b7160e01b6000525260246000fd5b601182634e487b7160e01b6000525260246000fd5b80518051906001600160401b038211620007bc578454600181811c91168015620007b1575b60208210146200079c57601f811162000753575b50602090601f8311600114620006de579282600194936020938695600092620006d2575b5050600019600383901b1c191690841b1786555b01930191019091620003c2565b015190503880620006b1565b908560005260206000209160005b601f19851681106200073a575083602093600196938796938794601f1981161062000720575b505050811b018655620006c5565b015160001960f88460031b161c1916905538808062000712565b91926020600181928685015181550194019201620006ec565b856000526020600020601f840160051c81016020851062000794575b601f830160051c82018110620007875750506200068d565b600081556001016200076f565b50806200076f565b60228c634e487b7160e01b6000525260246000fd5b90607f169062000679565b60418b634e487b7160e01b6000525260246000fd5b634e487b7160e01b600052604160045260246000fd5b600080fd5b60408051919082016001600160401b03811183821017620007d157604052565b51906001600160a01b0382168203620007e757565b6001600160a01b031660008181527fad3228b676f7d3cd4284a5443f17f1962b36e491b30a40b2405849e597ba5fb5602052604081205490919060ff166200089d57818052816020526040822081835260205260408220600160ff19825416179055339160008051602062002c078339815191528180a4600190565b5090565b6001600160a01b031660008181527fee57cd81e84075558e8fcc182a1f4393f91fc97f963a136e66b7f949a62f319f60205260408120549091907f97667070c54ef182b0f5858b034beac1b6f3089aa2d3188bb1e8929f4fa9b9299060ff166200093e57808352826020526040832082845260205260408320600160ff1982541617905560008051602062002c07833981519152339380a4600190565b50509056fe61010060408181526004918236101561001757600080fd5b600092833560e01c91826301ffc9a714610e5f575081631fe543e314610c54578163248a9ca314610c2a5781632f2ff15d14610c0c5781633319c7b814610acf57816336568abe14610a945781634585e33b146109e257816354c976571461088657816358a86e1d146108425781635cbbd635146108235781636641ea08146108055781636e04ff0d14610754578163747dff42146106cd5781638c65c81f146106585781638ef030001461061457816391d14854146105d95781639cbe5efd146105ba578163a0c220bf14610370578163a217fddf14610355578163be7d97b3146102ec578163c72e7bed146102a4578163d547741f1461026f578163d5aa06fa14610247578163e02b23c014610176575063f5b541a61461013957600080fd5b34610172578160031936011261017257602090517f97667070c54ef182b0f5858b034beac1b6f3089aa2d3188bb1e8929f4fa9b9298152f35b5080fd5b8391503461017257602080600319360112610243578135917f97667070c54ef182b0f5858b034beac1b6f3089aa2d3188bb1e8929f4fa9b92980600052600083528560002033600052835260ff8660002054161561022657846102238561021e60ff60078b601b8a8689528181526101f48585858c20015416611370565b86895281815261020c6002848b2001544210156113af565b868952528620015460081c16156113ed565b611431565b80f35b6044925085519163e2517d3f60e01b835233908301526024820152fd5b8280fd5b905034610243576020366003190112610243576020928291358152601e845220549051908152f35b5050346101725760016102a09161029b61028836610f32565b939092838752866020528620015461111c565b6111de565b5080f35b90503461024357602036600319011261024357359160198310156102e957506102d26102e59260020161104b565b9051918291602083526020830190610fe3565b0390f35b80fd5b905082346102e95760203660031901126102e95750803590601982101561031d576102e5836102d28460020161104b565b606490602084519162461bcd60e51b83528201526012602482015271496e646578206f7574206f662072616e676560701b6044820152fd5b50503461017257816003193601126101725751908152602090f35b905060803660031901126102435761038736610f58565b91601c5484526020601b81526103a560ff6007848820015416611253565b6103ad61134d565b6103be6103b985612252565b611291565b601c5492838652601b82526103da6002848820015442106112dd565b825193828501953360601b87528160348701524260548701523460748701526074865260a086019686881067ffffffffffffffff8911176105a55787865286519020956001600160a01b03928991907f00000000000000000000000000000000000000000000000000000000000000008516803b156105a15763341cf31560e21b8b5260a483018a90523360c484015260e49092015281908990606490829034905af19788156105955785969798610578575b50601c54936104b18851998a9687958694630d28e54f60e41b865233908601611317565b03927f0000000000000000000000000000000000000000000000000000000000000000165af192831561056e57849361051a575b507fdbaaf4c87ce30816c961a81d110622a3227ede77953d4383d514ff88ab2e0fd390601c5492519384523393a36001805580f35b9080935081813d8311610567575b6105328183610ef8565b810103126105625751917fdbaaf4c87ce30816c961a81d110622a3227ede77953d4383d514ff88ab2e0fd36104e5565b600080fd5b503d610528565b82513d86823e3d90fd5b61058491929550610eb2565b610591578392873861048d565b8680fd5b508551903d90823e3d90fd5b8380fd5b604184634e487b7160e01b6000525260246000fd5b505034610172578160031936011261017257602090601c549051908152f35b50503461017257602091816105ed36610f32565b92908152808552209060018060a01b0316600052825260ff81600020541690519015158152f35b505034610172578160031936011261017257517f00000000000000000000000000000000000000000000000000000000000000006001600160a01b03168152602090f35b9050346102435760203660031901126102435760e0928291358152601b602052209081549160ff600182015492600283015460078401549183600960088701549601541695815197885260208801528601528181161515606086015260081c161515608084015260a0830152151560c0820152f35b5050346101725781600319360112610172576107528161012093608082516106f481610edc565b369037601c548152601b602052209160ff8354936001810154926002820154906107256003600785015494016115de565b94815197885260208801528601528181161515606086015260081c161515608084015260a0830190611023565bf35b8383346101725761076436610f99565b505080601c5492838152601b60205220600781015460ff811691826107f6575b50816107e7575b508151926020840152602083528183019383851067ffffffffffffffff8611176107d25750838252151583526060820152603f19906107cd6080820182610fe3565b030190f35b604190634e487b7160e01b6000525260246000fd5b60ff915060081c16158461078b565b60020154421015915085610784565b50503461017257816003193601126101725760209051620151808152f35b505034610172578160031936011261017257602090601d549051908152f35b505034610172578160031936011261017257517f00000000000000000000000000000000000000000000000000000000000000006001600160a01b03168152602090f35b91905034610243576080366003190112610243576108a336610f58565b91601c548452602090601b82526108c260ff6007858820015416611253565b6108ca61134d565b6108d66103b985612252565b601c54808652601b83526108f16002858820015442106112dd565b8351838101903360601b8252826034820152426054820152635553444360e01b60748201526058815261092381610edc565b519020946001600160a01b03917f00000000000000000000000000000000000000000000000000000000000000008316908890823b1561017257875163cc68082360e01b81528681018a8152336020820152604081019290925292839182908490829060600103925af180156109d8576109c1575b509083929187601c54936104b18851998a9687958694630d28e54f60e41b865233908601611317565b966109cf8594939298610eb2565b96909192610998565b86513d8a823e3d90fd5b839150346101725760206109f536610f99565b9080929181010312610243573590601c548203610a61575061021e60ff60078495846102239652601b602052610a318383838a20015416611370565b848752601b602052610a4b600282892001544210156113af565b848752601b6020528620015460081c16156113ed565b606490602085519162461bcd60e51b8352820152600d60248201526c125b9d985b1a59081c9bdd5b99609a1b6044820152fd5b83833461017257610aa436610f32565b91336001600160a01b03841603610ac05750906102a0916111de565b5163334bd91960e11b81528490fd5b8383346101725760a036600319011261017257823590366043121561024357805190610afa82610edc565b60a482368211610c08576024905b828210610bf857505050838052602094848652818520338652865260ff828620541615610bdc57838552601b8652610b4860ff6007848820015416611370565b838552601b8652610b6560ff6007848820015460081c16156113ed565b838552601b86528185209083865b828110610bc7578761022388807fd025e362bd409aa14015b69ee9ced59553aaddcb5d3ff31fce131bff9def6f0960808b610bc18c60078d0161010061ff0019825416179055518092611023565ba26116fc565b81518482016003015590880190600101610b73565b84604492519163e2517d3f60e01b835233908301526024820152fd5b8135815260209182019101610b08565b8580fd5b5050346101725760016102a091610c2561028836610f32565b611160565b90503461024357602036600319011261024357816020936001923581528085522001549051908152f35b83915034610172578260031936011261017257602480359367ffffffffffffffff85116105a157366023860112156105a1578483013592610c9484610f1a565b92610ca183519485610ef8565b84845260209687850182819760051b83010191368311610e5b5790838a9201905b838210610e4c5750507f00000000000000000000000000000000000000000000000000000000000000006001600160a01b031691505033819003610e32575081358652601e875282862054948515610dff57835194610d2086610edc565b60803687375115610ded575190865b838110610daa57505050838552601b86528185209083865b828110610d95578761022388807fd025e362bd409aa14015b69ee9ced59553aaddcb5d3ff31fce131bff9def6f0960808b610bc18c60078d0161010061ff0019825416179055518092611023565b81518482016003015590880190600101610d47565b8060031b81810460081482151715610ddb5790601984610dd6931c06610dd082896115cd565b526115a8565b610d2f565b634e487b7160e01b8952601185528289fd5b50634e487b7160e01b86526032825285fd5b50600f9087606494519362461bcd60e51b85528401528201526e125b9d985b1a59081c995c5d595cdd608a1b6044820152fd5b90604493519263073e64fd60e21b84523390840152820152fd5b81358152908201908201610cc2565b8880fd5b849134610243576020366003190112610243573563ffffffff60e01b81168091036102435760209250637965db0b60e01b8114908115610ea1575b5015158152f35b6301ffc9a760e01b14905083610e9a565b67ffffffffffffffff8111610ec657604052565b634e487b7160e01b600052604160045260246000fd5b6080810190811067ffffffffffffffff821117610ec657604052565b90601f8019910116810190811067ffffffffffffffff821117610ec657604052565b67ffffffffffffffff8111610ec65760051b60200190565b604090600319011261056257600435906024356001600160a01b03811681036105625790565b80602312156105625760405190610f6e82610edc565b816084918211610562576004905b828210610f895750505090565b8135815260209182019101610f7c565b9060206003198301126105625760043567ffffffffffffffff9283821161056257806023830112156105625781600401359384116105625760248483010111610562576024019190565b919082519283825260005b84811061100f575050826000602080949584010152601f8019910116010190565b602081830181015184830182015201610fee565b6000915b6004831061103457505050565b600190825181526020809101920192019190611027565b90604051906000835490600182811c90808416968715611112575b60209485841089146110fe57879884899798995290816000146110dc575060011461109d575b50505061109b92500383610ef8565b565b600090815285812095935091905b8183106110c457505061109b935082010138808061108c565b855488840185015294850194879450918301916110ab565b9250505061109b94925060ff191682840152151560051b82010138808061108c565b634e487b7160e01b85526022600452602485fd5b91607f1691611066565b80600052600060205260406000203360005260205260ff60406000205416156111425750565b6044906040519063e2517d3f60e01b82523360048301526024820152fd5b9060009180835282602052604083209160018060a01b03169182845260205260ff604084205416156000146111d957808352826020526040832082845260205260408320600160ff198254161790557f2f8788117e7eff1d82e926ec794901d17c78024a50270940304540a733656f0d339380a4600190565b505090565b9060009180835282602052604083209160018060a01b03169182845260205260ff6040842054166000146111d95780835282602052604083208284526020526040832060ff1981541690557ff6391f5c32d9c69d2a47ea670b442974b53935d1edc7fd64eb21e047a839171b339380a4600190565b1561125a57565b60405162461bcd60e51b815260206004820152600f60248201526e139bc81858dd1a5d99481c9bdd5b99608a1b6044820152606490fd5b1561129857565b60405162461bcd60e51b815260206004820152601760248201527f496e76616c696420656d6f6a692073656c656374696f6e0000000000000000006044820152606490fd5b156112e457565b60405162461bcd60e51b815260206004820152600b60248201526a149bdd5b9908195b99195960aa1b6044820152606490fd5b6001600160a01b039091168152610100810194939260e09261133d906020840190611023565b60a0820152600060c08201520152565b60026001541461135e576002600155565b604051633ee5aeb560e01b8152600490fd5b1561137757565b60405162461bcd60e51b815260206004820152601060248201526f526f756e64206e6f742061637469766560801b6044820152606490fd5b156113b657565b60405162461bcd60e51b815260206004820152600f60248201526e149bdd5b99081b9bdd08195b991959608a1b6044820152606490fd5b156113f457565b60405162461bcd60e51b8152602060048201526015602482015274273ab6b132b9399030b63932b0b23c90323930bbb760591b6044820152606490fd5b6040516305d3b1d360e41b81527f000000000000000000000000000000000000000000000000000000000000000060048201527f000000000000000000000000000000000000000000000000000000000000000067ffffffffffffffff16602482015260036044820152622625a06064820152600160848201526000929190602090818160a481887f00000000000000000000000000000000000000000000000000000000000000006001600160a01b03165af19081156115735794839495819261153e575b5092604084827ffbc2c07c28a9caf596b13f55caa7831abed30e5004fcf5953caea623599d54399652601b85528360088383200155838152601e85522055604051908152a2565b8380955081935091933d831161156c575b6115598183610ef8565b81010312610172575183929160406114f7565b503d61154f565b6040513d87823e3d90fd5b80518210156115925760209160051b010190565b634e487b7160e01b600052603260045260246000fd5b60001981146115b75760010190565b634e487b7160e01b600052601160045260246000fd5b9060048110156115925760051b0190565b60405191906000835b600482106115fb5750505061109b82610edc565b60016020819285548152019301910190916115e7565b9061161b82610f1a565b6116286040519182610ef8565b8281528092611639601f1991610f1a565b0190602036910137565b5190811515820361056257565b919091610160818403126105625782601f820112156105625760405161167581610edc565b80608083019485116105625782905b8582106116df575050925160a08201519092906001600160a01b038116810361056257916116b460c08201611643565b916116c160e08301611643565b916116cf6101008201611643565b9161014061012083015192015190565b8151815260209182019101611684565b919082018092116115b757565b608090815260405163124afd0b60e11b815290516004820152906000826024817f00000000000000000000000000000000000000000000000000000000000000006001600160a01b03165afa918215611a135760009261201f575b50608051600052601b60205261177360036040600020016115de565b60e0526117808251611611565b61178a8351611611565b906117958451611611565b906117a08551611611565b60a05260009060008096600060c05260005b8151811015611a1f576117c5818361157e565b51604051600162665f9d60e01b0319815260048101829052610160816024817f00000000000000000000000000000000000000000000000000000000000000006001600160a01b03165afa908115611a13576000916119db575b5060009060005b6004811061199a575060009060405161183e81610edc565b6000815260006020820152600060408201526000606082015260005b6004811061191b57505050906118a59392916004821491600482149081611912575b600380911492149283611909575b156118aa57505050610dd061189e886115a8565b978761157e565b6117b2565b156118c4575050610dd06118bd866115a8565b958a61157e565b156118dd5750610dd06118d68c6115a8565b9b8961157e565b6118e8575b506115a8565b61190260c0516118f7816115a8565b60c05260a05161157e565b52386118e2565b8215935061188a565b8315915061187c565b60005b60048110611936575b50611931906115a8565b61185a565b61194081846115cd565b51158061197b575b61195a57611955906115a8565b61191e565b9390600161197461196d611931946115a8565b96856115cd565b5290611927565b5061198682856115cd565b516119938260e0516115cd565b5114611948565b6119a481836115cd565b516119b18260e0516115cd565b51146119c6575b6119c1906115a8565b611826565b916119d36119c1916115a8565b9290506119b8565b6119ff91506101603d61016011611a0c575b6119f78183610ef8565b810190611650565b505050505050503861181f565b503d6119ed565b6040513d6000823e3d90fd5b5050959291936040519163599f8e7960e11b8352608051600484015285602484015287604484015284606484015260c083608481600060018060a01b037f0000000000000000000000000000000000000000000000000000000000000000165af1928315611a13578591896000946000926000968b60009260009760009b611fb8575b5092611aba969492611aba92611abf9d9997956120b3565b6120b3565b60005b60c051811015611d9057611ad88160a05161157e565b51907f00000000000000000000000000000000000000000000000000000000000000006001600160a01b03163b15610562576040516304cc0c8960e31b815260048101839052600081602481837f00000000000000000000000000000000000000000000000000000000000000006001600160a01b03165af18015611a1357611d81575b50604051600162665f9d60e01b031981526004810192909252610160826024817f00000000000000000000000000000000000000000000000000000000000000006001600160a01b03165afa918215611a1357600092611d56575b506080604051611bc681610edc565b36903760405191611bd683610edc565b60803684376040514260208201523360601b60408201526034815280606081011067ffffffffffffffff606083011117610ec657606081016040526020815191012060005b60048110611d29575050601c54604051630d28e54f60e41b81526001600160a01b038316600482015293611c53906024860190611023565b60a4840152600160c4840152600060e484015260208361010481600060018060a01b037f0000000000000000000000000000000000000000000000000000000000000000165af1908115611a1357600091611cf3575b601c54604051928352611cee94506001600160a01b03909116917fdbaaf4c87ce30816c961a81d110622a3227ede77953d4383d514ff88ab2e0fd390602090a36115a8565b611ac2565b90506020833d602011611d21575b81611d0e60209383610ef8565b8101031261056257611cee925190611ca9565b3d9150611d01565b808060031b04600814811517156115b75780601983611d519360031b1c06610dd082886115cd565b611c1b565b611d729192506101603d61016011611a0c576119f78183610ef8565b50505050509150509038611bb7565b611d8a90610eb2565b38611b5c565b5090611dd3611dd892611dd360209596608051600052601b875260406000206007600982019160ff19926001848254161790550190815416905560c051946116ef565b6116ef565b6040519081527f329f5cd0d1a0c708183708da49f688d169bfd6e9203310c8d56d4d26c144fafe608051928392a27f0de73690a4c6b6fe902021c5ae286d7c66033d85adcc569a99a208e64864c2e7600080a2611e36601c546115a8565b80601c5562015180420142116115b75760405190611e5382610edc565b60008252600060208301526000604083015260006060830152604051918261010081011067ffffffffffffffff61010085011117610ec65761010083016040528183524260208401526201518042016040840152606083015260016080830152600060a0830152600060c0830152600060e0830152600052601b602052604060002090805182556020810151600183015560408101516002830155606081015160005b60048110611fa157505090600960e0611f649360078401611f2960808301511515829060ff801983541691151516179055565b60a0820151151561ff0082549160081b169061ff00191617905560c081015160088501550151151591019060ff801983541691151516179055565b42601d55601c547fa359b664a68acd8839e42112eb50eff3408165e15074fde89ddb58a0db2e691d604080514281526201518042016020820152a2565b600190602083519301926003828701015501611ef6565b99509950505050935050505060c0823d60c011612017575b81611fdd60c09383610ef8565b81010312610562578151602083015160408401516060850151608086015160a090960151969195899590948d939192918c90611aba611aa2565b3d9150611fd0565b9091503d806000833e6120328183610ef8565b81019060209081818403126105625780519067ffffffffffffffff821161056257019180601f8401121561056257825161206b81610f1a565b936120796040519586610ef8565b818552838086019260051b820101928311610562578301905b8282106120a457505050509038611757565b81518152908301908301612092565b90916001600160a01b03917f000000000000000000000000000000000000000000000000000000000000000083169060005b8581106120f55750505050505050565b6120ff818361157e565b51833b1561056257604080516304cc0c8960e31b8152600480820184905260249390916000818681838c5af1801561223857612243575b5082519063ff99a06360e01b82528282015261016090818186818b5afa91821561223857600092612213575b5050871580159061220a575b612185575b50505050612180906115a8565b6120e5565b887f000000000000000000000000000000000000000000000000000000000000000016803b1561056257600092836064928e8c8851998a978896631272113b60e11b885287015285015260448401525af190811561220057509061218092916121f1575b819281612173565b6121fa90610eb2565b386121e9565b513d6000823e3d90fd5b508a151561216e565b6122299250803d10611a0c576119f78183610ef8565b96505050505050503880612162565b84513d6000823e3d90fd5b61224c90610eb2565b38612136565b6000805b6004811061226657505050600190565b601961227282856115cd565b51101561228757612282906115a8565b612256565b5090509056fea2646970667358221220184e8c3870346c21baa96ea98c4961d42f0163bbf05f2dfffebc528de0ebeaa864736f6c634300081400332f8788117e7eff1d82e926ec794901d17c78024a50270940304540a733656f0d",
  "linkReferences": {},
  "deployedLinkReferences": {}
}