{
  "_format": "hh-sol-artifact-1",
  "contractName": "LottoMojiCore",
  "sourceName": "contracts/LottoMojiCore.sol",
  "abi": [
    {
      "inputs": [
        {
          "internalType": "address",
          "name": "_usdcToken",
          "type": "address"
        },
        {
          "internalType": "uint256",
          "name": "_subscriptionId",
          "type": "uint256"
        },
        {
          "internalType": "uint256",
          "name": "_drawTimeUTC",
          "type": "uint256"
        }
      ],
      "stateMutability": "nonpayable",
      "type": "constructor"
    },
    {
      "inputs": [],
      "name": "ERC721EnumerableForbiddenBatchMint",
      "type": "error"
    },
    {
      "inputs": [
        {
          "internalType": "address",
          "name": "sender",
          "type": "address"
        },
        {
          "internalType": "uint256",
          "name": "tokenId",
          "type": "uint256"
        },
        {
          "internalType": "address",
          "name": "owner",
          "type": "address"
        }
      ],
      "name": "ERC721IncorrectOwner",
      "type": "error"
    },
    {
      "inputs": [
        {
          "internalType": "address",
          "name": "operator",
          "type": "address"
        },
        {
          "internalType": "uint256",
          "name": "tokenId",
          "type": "uint256"
        }
      ],
      "name": "ERC721InsufficientApproval",
      "type": "error"
    },
    {
      "inputs": [
        {
          "internalType": "address",
          "name": "approver",
          "type": "address"
        }
      ],
      "name": "ERC721InvalidApprover",
      "type": "error"
    },
    {
      "inputs": [
        {
          "internalType": "address",
          "name": "operator",
          "type": "address"
        }
      ],
      "name": "ERC721InvalidOperator",
      "type": "error"
    },
    {
      "inputs": [
        {
          "internalType": "address",
          "name": "owner",
          "type": "address"
        }
      ],
      "name": "ERC721InvalidOwner",
      "type": "error"
    },
    {
      "inputs": [
        {
          "internalType": "address",
          "name": "receiver",
          "type": "address"
        }
      ],
      "name": "ERC721InvalidReceiver",
      "type": "error"
    },
    {
      "inputs": [
        {
          "internalType": "address",
          "name": "sender",
          "type": "address"
        }
      ],
      "name": "ERC721InvalidSender",
      "type": "error"
    },
    {
      "inputs": [
        {
          "internalType": "uint256",
          "name": "tokenId",
          "type": "uint256"
        }
      ],
      "name": "ERC721NonexistentToken",
      "type": "error"
    },
    {
      "inputs": [
        {
          "internalType": "address",
          "name": "owner",
          "type": "address"
        },
        {
          "internalType": "uint256",
          "name": "index",
          "type": "uint256"
        }
      ],
      "name": "ERC721OutOfBoundsIndex",
      "type": "error"
    },
    {
      "inputs": [
        {
          "internalType": "address",
          "name": "have",
          "type": "address"
        },
        {
          "internalType": "address",
          "name": "want",
          "type": "address"
        }
      ],
      "name": "OnlyCoordinatorCanFulfill",
      "type": "error"
    },
    {
      "inputs": [
        {
          "internalType": "address",
          "name": "have",
          "type": "address"
        },
        {
          "internalType": "address",
          "name": "owner",
          "type": "address"
        },
        {
          "internalType": "address",
          "name": "coordinator",
          "type": "address"
        }
      ],
      "name": "OnlyOwnerOrCoordinator",
      "type": "error"
    },
    {
      "inputs": [],
      "name": "ReentrancyGuardReentrantCall",
      "type": "error"
    },
    {
      "inputs": [],
      "name": "ZeroAddress",
      "type": "error"
    },
    {
      "anonymous": false,
      "inputs": [
        {
          "indexed": true,
          "internalType": "address",
          "name": "owner",
          "type": "address"
        },
        {
          "indexed": true,
          "internalType": "address",
          "name": "approved",
          "type": "address"
        },
        {
          "indexed": true,
          "internalType": "uint256",
          "name": "tokenId",
          "type": "uint256"
        }
      ],
      "name": "Approval",
      "type": "event"
    },
    {
      "anonymous": false,
      "inputs": [
        {
          "indexed": true,
          "internalType": "address",
          "name": "owner",
          "type": "address"
        },
        {
          "indexed": true,
          "internalType": "address",
          "name": "operator",
          "type": "address"
        },
        {
          "indexed": false,
          "internalType": "bool",
          "name": "approved",
          "type": "bool"
        }
      ],
      "name": "ApprovalForAll",
      "type": "event"
    },
    {
      "anonymous": false,
      "inputs": [
        {
          "indexed": false,
          "internalType": "address",
          "name": "vrfCoordinator",
          "type": "address"
        }
      ],
      "name": "CoordinatorSet",
      "type": "event"
    },
    {
      "anonymous": false,
      "inputs": [
        {
          "indexed": true,
          "internalType": "uint256",
          "name": "gameDay",
          "type": "uint256"
        },
        {
          "indexed": false,
          "internalType": "uint256",
          "name": "firstReserveAmount",
          "type": "uint256"
        },
        {
          "indexed": false,
          "internalType": "uint256",
          "name": "secondReserveAmount",
          "type": "uint256"
        },
        {
          "indexed": false,
          "internalType": "uint256",
          "name": "thirdReserveAmount",
          "type": "uint256"
        },
        {
          "indexed": false,
          "internalType": "uint256",
          "name": "totalSent",
          "type": "uint256"
        }
      ],
      "name": "DailyReservesSent",
      "type": "event"
    },
    {
      "anonymous": false,
      "inputs": [
        {
          "indexed": true,
          "internalType": "uint256",
          "name": "gameDay",
          "type": "uint256"
        },
        {
          "indexed": false,
          "internalType": "uint8[4]",
          "name": "winningNumbers",
          "type": "uint8[4]"
        },
        {
          "indexed": false,
          "internalType": "uint256",
          "name": "totalMainPools",
          "type": "uint256"
        }
      ],
      "name": "DrawExecuted",
      "type": "event"
    },
    {
      "anonymous": false,
      "inputs": [
        {
          "indexed": false,
          "internalType": "uint256",
          "name": "oldTime",
          "type": "uint256"
        },
        {
          "indexed": false,
          "internalType": "uint256",
          "name": "newTime",
          "type": "uint256"
        },
        {
          "indexed": false,
          "internalType": "uint256",
          "name": "newGameDay",
          "type": "uint256"
        }
      ],
      "name": "DrawTimeUTCUpdated",
      "type": "event"
    },
    {
      "anonymous": false,
      "inputs": [
        {
          "indexed": false,
          "internalType": "uint256",
          "name": "oldTime",
          "type": "uint256"
        },
        {
          "indexed": false,
          "internalType": "uint256",
          "name": "newTime",
          "type": "uint256"
        },
        {
          "indexed": false,
          "internalType": "uint256",
          "name": "newGameDay",
          "type": "uint256"
        }
      ],
      "name": "LastDrawTimeUpdated",
      "type": "event"
    },
    {
      "anonymous": false,
      "inputs": [
        {
          "indexed": true,
          "internalType": "address",
          "name": "from",
          "type": "address"
        },
        {
          "indexed": true,
          "internalType": "address",
          "name": "to",
          "type": "address"
        }
      ],
      "name": "OwnershipTransferRequested",
      "type": "event"
    },
    {
      "anonymous": false,
      "inputs": [
        {
          "indexed": true,
          "internalType": "address",
          "name": "from",
          "type": "address"
        },
        {
          "indexed": true,
          "internalType": "address",
          "name": "to",
          "type": "address"
        }
      ],
      "name": "OwnershipTransferred",
      "type": "event"
    },
    {
      "anonymous": false,
      "inputs": [
        {
          "indexed": true,
          "internalType": "uint256",
          "name": "ticketId",
          "type": "uint256"
        },
        {
          "indexed": true,
          "internalType": "address",
          "name": "winner",
          "type": "address"
        },
        {
          "indexed": false,
          "internalType": "uint256",
          "name": "amount",
          "type": "uint256"
        },
        {
          "indexed": false,
          "internalType": "uint8",
          "name": "prizeLevel",
          "type": "uint8"
        },
        {
          "indexed": false,
          "internalType": "bool",
          "name": "reserveUsedForRefill",
          "type": "bool"
        }
      ],
      "name": "PrizeClaimed",
      "type": "event"
    },
    {
      "anonymous": false,
      "inputs": [
        {
          "indexed": true,
          "internalType": "uint256",
          "name": "gameDay",
          "type": "uint256"
        },
        {
          "indexed": false,
          "internalType": "uint8",
          "name": "prizeLevel",
          "type": "uint8"
        },
        {
          "indexed": false,
          "internalType": "uint256",
          "name": "amountTransferred",
          "type": "uint256"
        }
      ],
      "name": "ReserveUsedForRefill",
      "type": "event"
    },
    {
      "anonymous": false,
      "inputs": [
        {
          "indexed": true,
          "internalType": "uint256",
          "name": "ticketId",
          "type": "uint256"
        },
        {
          "indexed": true,
          "internalType": "address",
          "name": "buyer",
          "type": "address"
        },
        {
          "indexed": false,
          "internalType": "uint8[4]",
          "name": "numbers",
          "type": "uint8[4]"
        },
        {
          "indexed": false,
          "internalType": "uint256",
          "name": "gameDay",
          "type": "uint256"
        }
      ],
      "name": "TicketPurchased",
      "type": "event"
    },
    {
      "anonymous": false,
      "inputs": [
        {
          "indexed": true,
          "internalType": "address",
          "name": "from",
          "type": "address"
        },
        {
          "indexed": true,
          "internalType": "address",
          "name": "to",
          "type": "address"
        },
        {
          "indexed": true,
          "internalType": "uint256",
          "name": "tokenId",
          "type": "uint256"
        }
      ],
      "name": "Transfer",
      "type": "event"
    },
    {
      "inputs": [],
      "name": "DAILY_RESERVE_PERCENTAGE",
      "outputs": [
        {
          "internalType": "uint256",
          "name": "",
          "type": "uint256"
        }
      ],
      "stateMutability": "view",
      "type": "function"
    },
    {
      "inputs": [],
      "name": "DEVELOPMENT_PERCENTAGE",
      "outputs": [
        {
          "internalType": "uint256",
          "name": "",
          "type": "uint256"
        }
      ],
      "stateMutability": "view",
      "type": "function"
    },
    {
      "inputs": [],
      "name": "DRAW_INTERVAL",
      "outputs": [
        {
          "internalType": "uint256",
          "name": "",
          "type": "uint256"
        }
      ],
      "stateMutability": "view",
      "type": "function"
    },
    {
      "inputs": [],
      "name": "EMOJI_COUNT",
      "outputs": [
        {
          "internalType": "uint8",
          "name": "",
          "type": "uint8"
        }
      ],
      "stateMutability": "view",
      "type": "function"
    },
    {
      "inputs": [],
      "name": "FIRST_PRIZE_PERCENTAGE",
      "outputs": [
        {
          "internalType": "uint256",
          "name": "",
          "type": "uint256"
        }
      ],
      "stateMutability": "view",
      "type": "function"
    },
    {
      "inputs": [],
      "name": "MAIN_POOL_PERCENTAGE",
      "outputs": [
        {
          "internalType": "uint256",
          "name": "",
          "type": "uint256"
        }
      ],
      "stateMutability": "view",
      "type": "function"
    },
    {
      "inputs": [],
      "name": "SECOND_PRIZE_PERCENTAGE",
      "outputs": [
        {
          "internalType": "uint256",
          "name": "",
          "type": "uint256"
        }
      ],
      "stateMutability": "view",
      "type": "function"
    },
    {
      "inputs": [],
      "name": "THIRD_PRIZE_PERCENTAGE",
      "outputs": [
        {
          "internalType": "uint256",
          "name": "",
          "type": "uint256"
        }
      ],
      "stateMutability": "view",
      "type": "function"
    },
    {
      "inputs": [],
      "name": "TICKET_PRICE",
      "outputs": [
        {
          "internalType": "uint256",
          "name": "",
          "type": "uint256"
        }
      ],
      "stateMutability": "view",
      "type": "function"
    },
    {
      "inputs": [],
      "name": "acceptOwnership",
      "outputs": [],
      "stateMutability": "nonpayable",
      "type": "function"
    },
    {
      "inputs": [
        {
          "internalType": "address",
          "name": "to",
          "type": "address"
        },
        {
          "internalType": "uint256",
          "name": "tokenId",
          "type": "uint256"
        }
      ],
      "name": "approve",
      "outputs": [],
      "stateMutability": "nonpayable",
      "type": "function"
    },
    {
      "inputs": [],
      "name": "automationActive",
      "outputs": [
        {
          "internalType": "bool",
          "name": "",
          "type": "bool"
        }
      ],
      "stateMutability": "view",
      "type": "function"
    },
    {
      "inputs": [
        {
          "internalType": "address",
          "name": "owner",
          "type": "address"
        }
      ],
      "name": "balanceOf",
      "outputs": [
        {
          "internalType": "uint256",
          "name": "",
          "type": "uint256"
        }
      ],
      "stateMutability": "view",
      "type": "function"
    },
    {
      "inputs": [
        {
          "internalType": "uint8[4]",
          "name": "_numbers",
          "type": "uint8[4]"
        }
      ],
      "name": "buyTicket",
      "outputs": [],
      "stateMutability": "nonpayable",
      "type": "function"
    },
    {
      "inputs": [
        {
          "internalType": "bytes",
          "name": "",
          "type": "bytes"
        }
      ],
      "name": "checkUpkeep",
      "outputs": [
        {
          "internalType": "bool",
          "name": "upkeepNeeded",
          "type": "bool"
        },
        {
          "internalType": "bytes",
          "name": "",
          "type": "bytes"
        }
      ],
      "stateMutability": "view",
      "type": "function"
    },
    {
      "inputs": [
        {
          "internalType": "uint256",
          "name": "_ticketId",
          "type": "uint256"
        }
      ],
      "name": "claimPrize",
      "outputs": [],
      "stateMutability": "nonpayable",
      "type": "function"
    },
    {
      "inputs": [],
      "name": "currentGameDay",
      "outputs": [
        {
          "internalType": "uint256",
          "name": "",
          "type": "uint256"
        }
      ],
      "stateMutability": "view",
      "type": "function"
    },
    {
      "inputs": [
        {
          "internalType": "uint256",
          "name": "",
          "type": "uint256"
        }
      ],
      "name": "dailyPools",
      "outputs": [
        {
          "internalType": "uint256",
          "name": "totalCollected",
          "type": "uint256"
        },
        {
          "internalType": "uint256",
          "name": "mainPoolPortion",
          "type": "uint256"
        },
        {
          "internalType": "uint256",
          "name": "reservePortion",
          "type": "uint256"
        },
        {
          "internalType": "uint256",
          "name": "firstPrizeDaily",
          "type": "uint256"
        },
        {
          "internalType": "uint256",
          "name": "secondPrizeDaily",
          "type": "uint256"
        },
        {
          "internalType": "uint256",
          "name": "thirdPrizeDaily",
          "type": "uint256"
        },
        {
          "internalType": "uint256",
          "name": "developmentDaily",
          "type": "uint256"
        },
        {
          "internalType": "bool",
          "name": "distributed",
          "type": "bool"
        },
        {
          "internalType": "uint256",
          "name": "distributionTime",
          "type": "uint256"
        },
        {
          "internalType": "bool",
          "name": "drawn",
          "type": "bool"
        },
        {
          "internalType": "bool",
          "name": "reservesSent",
          "type": "bool"
        }
      ],
      "stateMutability": "view",
      "type": "function"
    },
    {
      "inputs": [],
      "name": "drawTimeUTC",
      "outputs": [
        {
          "internalType": "uint256",
          "name": "",
          "type": "uint256"
        }
      ],
      "stateMutability": "view",
      "type": "function"
    },
    {
      "inputs": [],
      "name": "emergencyPause",
      "outputs": [
        {
          "internalType": "bool",
          "name": "",
          "type": "bool"
        }
      ],
      "stateMutability": "view",
      "type": "function"
    },
    {
      "inputs": [],
      "name": "gameActive",
      "outputs": [
        {
          "internalType": "bool",
          "name": "",
          "type": "bool"
        }
      ],
      "stateMutability": "view",
      "type": "function"
    },
    {
      "inputs": [
        {
          "internalType": "uint256",
          "name": "",
          "type": "uint256"
        },
        {
          "internalType": "uint256",
          "name": "",
          "type": "uint256"
        }
      ],
      "name": "gameDayTickets",
      "outputs": [
        {
          "internalType": "uint256",
          "name": "",
          "type": "uint256"
        }
      ],
      "stateMutability": "view",
      "type": "function"
    },
    {
      "inputs": [
        {
          "internalType": "uint256",
          "name": "tokenId",
          "type": "uint256"
        }
      ],
      "name": "getApproved",
      "outputs": [
        {
          "internalType": "address",
          "name": "",
          "type": "address"
        }
      ],
      "stateMutability": "view",
      "type": "function"
    },
    {
      "inputs": [],
      "name": "getCurrentDay",
      "outputs": [
        {
          "internalType": "uint256",
          "name": "",
          "type": "uint256"
        }
      ],
      "stateMutability": "view",
      "type": "function"
    },
    {
      "inputs": [
        {
          "internalType": "uint256",
          "name": "gameDay",
          "type": "uint256"
        }
      ],
      "name": "getDailyPoolInfo",
      "outputs": [
        {
          "internalType": "uint256",
          "name": "totalCollected",
          "type": "uint256"
        },
        {
          "internalType": "uint256",
          "name": "mainPoolPortion",
          "type": "uint256"
        },
        {
          "internalType": "uint256",
          "name": "reservePortion",
          "type": "uint256"
        },
        {
          "internalType": "bool",
          "name": "distributed",
          "type": "bool"
        },
        {
          "internalType": "bool",
          "name": "drawn",
          "type": "bool"
        },
        {
          "internalType": "uint8[4]",
          "name": "winningNumbers",
          "type": "uint8[4]"
        }
      ],
      "stateMutability": "view",
      "type": "function"
    },
    {
      "inputs": [
        {
          "internalType": "uint256",
          "name": "ticketId",
          "type": "uint256"
        }
      ],
      "name": "getFullTicketInfo",
      "outputs": [
        {
          "internalType": "address",
          "name": "ticketOwner",
          "type": "address"
        },
        {
          "internalType": "uint8[4]",
          "name": "numbers",
          "type": "uint8[4]"
        },
        {
          "internalType": "uint256",
          "name": "gameDay",
          "type": "uint256"
        },
        {
          "internalType": "bool",
          "name": "isActive",
          "type": "bool"
        },
        {
          "internalType": "uint256",
          "name": "purchaseTime",
          "type": "uint256"
        },
        {
          "internalType": "bool",
          "name": "eligibleForReserve",
          "type": "bool"
        },
        {
          "internalType": "uint8",
          "name": "prizeLevel",
          "type": "uint8"
        }
      ],
      "stateMutability": "view",
      "type": "function"
    },
    {
      "inputs": [
        {
          "internalType": "uint256",
          "name": "gameDay",
          "type": "uint256"
        }
      ],
      "name": "getGameDayTickets",
      "outputs": [
        {
          "internalType": "uint256[]",
          "name": "",
          "type": "uint256[]"
        }
      ],
      "stateMutability": "view",
      "type": "function"
    },
    {
      "inputs": [],
      "name": "getMainPoolBalances",
      "outputs": [
        {
          "internalType": "uint256",
          "name": "firstPrizeAccumulated",
          "type": "uint256"
        },
        {
          "internalType": "uint256",
          "name": "secondPrizeAccumulated",
          "type": "uint256"
        },
        {
          "internalType": "uint256",
          "name": "thirdPrizeAccumulated",
          "type": "uint256"
        },
        {
          "internalType": "uint256",
          "name": "developmentAccumulated",
          "type": "uint256"
        }
      ],
      "stateMutability": "view",
      "type": "function"
    },
    {
      "inputs": [],
      "name": "getReserveBalances",
      "outputs": [
        {
          "internalType": "uint256",
          "name": "firstPrizeReserve",
          "type": "uint256"
        },
        {
          "internalType": "uint256",
          "name": "secondPrizeReserve",
          "type": "uint256"
        },
        {
          "internalType": "uint256",
          "name": "thirdPrizeReserve",
          "type": "uint256"
        }
      ],
      "stateMutability": "view",
      "type": "function"
    },
    {
      "inputs": [
        {
          "internalType": "uint256",
          "name": "ticketId",
          "type": "uint256"
        }
      ],
      "name": "getTicketInfo",
      "outputs": [
        {
          "internalType": "address",
          "name": "ticketOwner",
          "type": "address"
        },
        {
          "internalType": "uint8[4]",
          "name": "numbers",
          "type": "uint8[4]"
        },
        {
          "internalType": "uint256",
          "name": "gameDay",
          "type": "uint256"
        },
        {
          "internalType": "bool",
          "name": "isActive",
          "type": "bool"
        },
        {
          "internalType": "uint8",
          "name": "prizeLevel",
          "type": "uint8"
        }
      ],
      "stateMutability": "view",
      "type": "function"
    },
    {
      "inputs": [
        {
          "internalType": "uint256",
          "name": "ticketId",
          "type": "uint256"
        }
      ],
      "name": "getTicketPrizeDetails",
      "outputs": [
        {
          "internalType": "uint8",
          "name": "prizeLevel",
          "type": "uint8"
        },
        {
          "internalType": "uint8",
          "name": "exactMatches",
          "type": "uint8"
        },
        {
          "internalType": "uint8",
          "name": "anyOrderMatches",
          "type": "uint8"
        },
        {
          "internalType": "uint256",
          "name": "prizeAmount",
          "type": "uint256"
        },
        {
          "internalType": "string",
          "name": "prizeDescription",
          "type": "string"
        }
      ],
      "stateMutability": "view",
      "type": "function"
    },
    {
      "inputs": [
        {
          "internalType": "address",
          "name": "user",
          "type": "address"
        }
      ],
      "name": "getUserTickets",
      "outputs": [
        {
          "internalType": "uint256[]",
          "name": "",
          "type": "uint256[]"
        }
      ],
      "stateMutability": "view",
      "type": "function"
    },
    {
      "inputs": [
        {
          "internalType": "address",
          "name": "owner",
          "type": "address"
        },
        {
          "internalType": "address",
          "name": "operator",
          "type": "address"
        }
      ],
      "name": "isApprovedForAll",
      "outputs": [
        {
          "internalType": "bool",
          "name": "",
          "type": "bool"
        }
      ],
      "stateMutability": "view",
      "type": "function"
    },
    {
      "inputs": [],
      "name": "lastDrawTime",
      "outputs": [
        {
          "internalType": "uint256",
          "name": "",
          "type": "uint256"
        }
      ],
      "stateMutability": "view",
      "type": "function"
    },
    {
      "inputs": [
        {
          "internalType": "uint256",
          "name": "",
          "type": "uint256"
        }
      ],
      "name": "lastWinningNumbers",
      "outputs": [
        {
          "internalType": "uint8",
          "name": "",
          "type": "uint8"
        }
      ],
      "stateMutability": "view",
      "type": "function"
    },
    {
      "inputs": [],
      "name": "mainPools",
      "outputs": [
        {
          "internalType": "uint256",
          "name": "firstPrizeAccumulated",
          "type": "uint256"
        },
        {
          "internalType": "uint256",
          "name": "secondPrizeAccumulated",
          "type": "uint256"
        },
        {
          "internalType": "uint256",
          "name": "thirdPrizeAccumulated",
          "type": "uint256"
        },
        {
          "internalType": "uint256",
          "name": "developmentAccumulated",
          "type": "uint256"
        }
      ],
      "stateMutability": "view",
      "type": "function"
    },
    {
      "inputs": [],
      "name": "name",
      "outputs": [
        {
          "internalType": "string",
          "name": "",
          "type": "string"
        }
      ],
      "stateMutability": "view",
      "type": "function"
    },
    {
      "inputs": [],
      "name": "owner",
      "outputs": [
        {
          "internalType": "address",
          "name": "",
          "type": "address"
        }
      ],
      "stateMutability": "view",
      "type": "function"
    },
    {
      "inputs": [
        {
          "internalType": "uint256",
          "name": "tokenId",
          "type": "uint256"
        }
      ],
      "name": "ownerOf",
      "outputs": [
        {
          "internalType": "address",
          "name": "",
          "type": "address"
        }
      ],
      "stateMutability": "view",
      "type": "function"
    },
    {
      "inputs": [
        {
          "internalType": "bytes",
          "name": "performData",
          "type": "bytes"
        }
      ],
      "name": "performUpkeep",
      "outputs": [],
      "stateMutability": "nonpayable",
      "type": "function"
    },
    {
      "inputs": [
        {
          "internalType": "uint256",
          "name": "requestId",
          "type": "uint256"
        },
        {
          "internalType": "uint256[]",
          "name": "randomWords",
          "type": "uint256[]"
        }
      ],
      "name": "rawFulfillRandomWords",
      "outputs": [],
      "stateMutability": "nonpayable",
      "type": "function"
    },
    {
      "inputs": [],
      "name": "reserves",
      "outputs": [
        {
          "internalType": "uint256",
          "name": "firstPrizeReserve",
          "type": "uint256"
        },
        {
          "internalType": "uint256",
          "name": "secondPrizeReserve",
          "type": "uint256"
        },
        {
          "internalType": "uint256",
          "name": "thirdPrizeReserve",
          "type": "uint256"
        }
      ],
      "stateMutability": "view",
      "type": "function"
    },
    {
      "inputs": [],
      "name": "s_vrfCoordinator",
      "outputs": [
        {
          "internalType": "contract IVRFCoordinatorV2Plus",
          "name": "",
          "type": "address"
        }
      ],
      "stateMutability": "view",
      "type": "function"
    },
    {
      "inputs": [
        {
          "internalType": "address",
          "name": "from",
          "type": "address"
        },
        {
          "internalType": "address",
          "name": "to",
          "type": "address"
        },
        {
          "internalType": "uint256",
          "name": "tokenId",
          "type": "uint256"
        }
      ],
      "name": "safeTransferFrom",
      "outputs": [],
      "stateMutability": "nonpayable",
      "type": "function"
    },
    {
      "inputs": [
        {
          "internalType": "address",
          "name": "from",
          "type": "address"
        },
        {
          "internalType": "address",
          "name": "to",
          "type": "address"
        },
        {
          "internalType": "uint256",
          "name": "tokenId",
          "type": "uint256"
        },
        {
          "internalType": "bytes",
          "name": "data",
          "type": "bytes"
        }
      ],
      "name": "safeTransferFrom",
      "outputs": [],
      "stateMutability": "nonpayable",
      "type": "function"
    },
    {
      "inputs": [
        {
          "internalType": "address",
          "name": "operator",
          "type": "address"
        },
        {
          "internalType": "bool",
          "name": "approved",
          "type": "bool"
        }
      ],
      "name": "setApprovalForAll",
      "outputs": [],
      "stateMutability": "nonpayable",
      "type": "function"
    },
    {
      "inputs": [
        {
          "internalType": "address",
          "name": "_vrfCoordinator",
          "type": "address"
        }
      ],
      "name": "setCoordinator",
      "outputs": [],
      "stateMutability": "nonpayable",
      "type": "function"
    },
    {
      "inputs": [
        {
          "internalType": "uint256",
          "name": "_hours",
          "type": "uint256"
        }
      ],
      "name": "setDrawTimeUTC",
      "outputs": [],
      "stateMutability": "nonpayable",
      "type": "function"
    },
    {
      "inputs": [
        {
          "internalType": "uint256",
          "name": "_timestamp",
          "type": "uint256"
        }
      ],
      "name": "setLastDrawTime",
      "outputs": [],
      "stateMutability": "nonpayable",
      "type": "function"
    },
    {
      "inputs": [],
      "name": "subscriptionId",
      "outputs": [
        {
          "internalType": "uint256",
          "name": "",
          "type": "uint256"
        }
      ],
      "stateMutability": "view",
      "type": "function"
    },
    {
      "inputs": [
        {
          "internalType": "bytes4",
          "name": "interfaceId",
          "type": "bytes4"
        }
      ],
      "name": "supportsInterface",
      "outputs": [
        {
          "internalType": "bool",
          "name": "",
          "type": "bool"
        }
      ],
      "stateMutability": "view",
      "type": "function"
    },
    {
      "inputs": [],
      "name": "symbol",
      "outputs": [
        {
          "internalType": "string",
          "name": "",
          "type": "string"
        }
      ],
      "stateMutability": "view",
      "type": "function"
    },
    {
      "inputs": [],
      "name": "ticketCounter",
      "outputs": [
        {
          "internalType": "uint256",
          "name": "",
          "type": "uint256"
        }
      ],
      "stateMutability": "view",
      "type": "function"
    },
    {
      "inputs": [
        {
          "internalType": "uint256",
          "name": "",
          "type": "uint256"
        }
      ],
      "name": "tickets",
      "outputs": [
        {
          "internalType": "uint256",
          "name": "tokenId",
          "type": "uint256"
        },
        {
          "internalType": "address",
          "name": "ticketOwner",
          "type": "address"
        },
        {
          "internalType": "uint256",
          "name": "gameDay",
          "type": "uint256"
        },
        {
          "internalType": "bool",
          "name": "isActive",
          "type": "bool"
        },
        {
          "internalType": "uint256",
          "name": "purchaseTime",
          "type": "uint256"
        },
        {
          "internalType": "bool",
          "name": "eligibleForReserve",
          "type": "bool"
        }
      ],
      "stateMutability": "view",
      "type": "function"
    },
    {
      "inputs": [],
      "name": "toggleAutomation",
      "outputs": [],
      "stateMutability": "nonpayable",
      "type": "function"
    },
    {
      "inputs": [],
      "name": "toggleEmergencyPause",
      "outputs": [],
      "stateMutability": "nonpayable",
      "type": "function"
    },
    {
      "inputs": [
        {
          "internalType": "uint256",
          "name": "index",
          "type": "uint256"
        }
      ],
      "name": "tokenByIndex",
      "outputs": [
        {
          "internalType": "uint256",
          "name": "",
          "type": "uint256"
        }
      ],
      "stateMutability": "view",
      "type": "function"
    },
    {
      "inputs": [
        {
          "internalType": "address",
          "name": "owner",
          "type": "address"
        },
        {
          "internalType": "uint256",
          "name": "index",
          "type": "uint256"
        }
      ],
      "name": "tokenOfOwnerByIndex",
      "outputs": [
        {
          "internalType": "uint256",
          "name": "",
          "type": "uint256"
        }
      ],
      "stateMutability": "view",
      "type": "function"
    },
    {
      "inputs": [
        {
          "internalType": "uint256",
          "name": "tokenId",
          "type": "uint256"
        }
      ],
      "name": "tokenURI",
      "outputs": [
        {
          "internalType": "string",
          "name": "",
          "type": "string"
        }
      ],
      "stateMutability": "view",
      "type": "function"
    },
    {
      "inputs": [],
      "name": "totalDrawsExecuted",
      "outputs": [
        {
          "internalType": "uint256",
          "name": "",
          "type": "uint256"
        }
      ],
      "stateMutability": "view",
      "type": "function"
    },
    {
      "inputs": [],
      "name": "totalReservesProcessed",
      "outputs": [
        {
          "internalType": "uint256",
          "name": "",
          "type": "uint256"
        }
      ],
      "stateMutability": "view",
      "type": "function"
    },
    {
      "inputs": [],
      "name": "totalSupply",
      "outputs": [
        {
          "internalType": "uint256",
          "name": "",
          "type": "uint256"
        }
      ],
      "stateMutability": "view",
      "type": "function"
    },
    {
      "inputs": [
        {
          "internalType": "address",
          "name": "from",
          "type": "address"
        },
        {
          "internalType": "address",
          "name": "to",
          "type": "address"
        },
        {
          "internalType": "uint256",
          "name": "tokenId",
          "type": "uint256"
        }
      ],
      "name": "transferFrom",
      "outputs": [],
      "stateMutability": "nonpayable",
      "type": "function"
    },
    {
      "inputs": [
        {
          "internalType": "address",
          "name": "to",
          "type": "address"
        }
      ],
      "name": "transferOwnership",
      "outputs": [],
      "stateMutability": "nonpayable",
      "type": "function"
    },
    {
      "inputs": [],
      "name": "usdcToken",
      "outputs": [
        {
          "internalType": "contract IERC20",
          "name": "",
          "type": "address"
        }
      ],
      "stateMutability": "view",
      "type": "function"
    },
    {
      "inputs": [
        {
          "internalType": "address",
          "name": "",
          "type": "address"
        },
        {
          "internalType": "uint256",
          "name": "",
          "type": "uint256"
        }
      ],
      "name": "userTickets",
      "outputs": [
        {
          "internalType": "uint256",
          "name": "",
          "type": "uint256"
        }
      ],
      "stateMutability": "view",
      "type": "function"
    },
    {
      "inputs": [
        {
          "internalType": "uint8[4]",
          "name": "numbers",
          "type": "uint8[4]"
        }
      ],
      "name": "validateEmojiSelection",
      "outputs": [
        {
          "internalType": "bool",
          "name": "",
          "type": "bool"
        }
      ],
      "stateMutability": "pure",
      "type": "function"
    }
  ],
  "bytecode": "0x60e06040526011805462ffffff19166101011790553480156200002157600080fd5b50604051620047cd380380620047cd8339810160408190526200004491620002b1565b604080518082018252601081526f131bdd1d1bd35bda9a48151a58dad95d60821b602080830191909152825180840190935260058352644c4d4f4a4960d81b9083015290735c210ef41cd1a72de73bf76ec39637bb0d3d7bee3380600081620000f45760405162461bcd60e51b815260206004820152601860248201527f43616e6e6f7420736574206f776e657220746f207a65726f000000000000000060448201526064015b60405180910390fd5b600080546001600160a01b0319166001600160a01b038481169190911790915581161562000127576200012781620001e0565b5050506001600160a01b038116620001525760405163d92e233d60e01b815260040160405180910390fd5b600280546001600160a01b0319166001600160a01b0392909216919091179055600160035560046200018583826200039b565b5060056200019482826200039b565b5050735c210ef41cd1a72de73bf76ec39637bb0d3d7bee608052506001600160a01b03831660a05260c0829052600e819055620001d06200028b565b60105550504260205550620004b2565b336001600160a01b038216036200023a5760405162461bcd60e51b815260206004820152601760248201527f43616e6e6f74207472616e7366657220746f2073656c660000000000000000006044820152606401620000eb565b600180546001600160a01b0319166001600160a01b0383811691821790925560008054604051929316917fed8889f560326eb138920d842192f0eb3dd22b4f139c87a2c57538e05bae12789190a350565b6000610e10600e5442620002a0919062000467565b620002ac91906200048f565b905090565b600080600060608486031215620002c757600080fd5b83516001600160a01b0381168114620002df57600080fd5b602085015160409095015190969495509392505050565b634e487b7160e01b600052604160045260246000fd5b600181811c908216806200032157607f821691505b6020821081036200034257634e487b7160e01b600052602260045260246000fd5b50919050565b601f8211156200039657600081815260208120601f850160051c81016020861015620003715750805b601f850160051c820191505b8181101562000392578281556001016200037d565b5050505b505050565b81516001600160401b03811115620003b757620003b7620002f6565b620003cf81620003c884546200030c565b8462000348565b602080601f831160018114620004075760008415620003ee5750858301515b600019600386901b1c1916600185901b17855562000392565b600085815260208120601f198616915b82811015620004385788860151825594840194600190910190840162000417565b5085821015620004575787850151600019600388901b60f8161c191681555b5050505050600190811b01905550565b808201808211156200048957634e487b7160e01b600052601160045260246000fd5b92915050565b600082620004ad57634e487b7160e01b600052601260045260246000fd5b500490565b60805160a05160c0516142d6620004f76000396000818161049801526125b00152600081816104e601528181610fed0152611e7e0152600061262601526142d66000f3fe608060405234801561001057600080fd5b50600436106103f15760003560e01c80636352211e116102155780639eccacf611610125578063cf260baf116100b8578063e73dc02b11610087578063e73dc02b146109ce578063e985e9c5146109e1578063f020044f146109f4578063f2fde38b14610a01578063ff99a06314610a1457600080fd5b8063cf260baf14610982578063d709815414610995578063d85c156c146109a8578063dc85dced146109bb57600080fd5b8063c3708091116100f4578063c370809114610956578063c4aa72451461095e578063c6b749e214610966578063c87b56dd1461096f57600080fd5b80639eccacf61461091d578063a22cb46514610930578063b88d4fde14610943578063bc62b32d1461065b57600080fd5b806379ba5097116101a85780638ea98117116101775780638ea98117146108c05780638f8e6f55146108d3578063946fee02146108f957806395b1b4301461090c57806395d89b411461091557600080fd5b806379ba50971461088d5780637e8abef1146108955780638c4d59d0146108a65780638da5cb5b146108af57600080fd5b806370a08231116101e457806370a082311461081a57806375172a8b1461082d5780637624bb871461085a57806377d56a041461087f57600080fd5b80636352211e146107b05780636baf4a74146107c35780636e04ff0d146107d55780636ef9a600146107f657600080fd5b806329f9d9c4116103105780633e6968b6116102a35780634f6ccce7116102725780634f6ccce7146106eb57806350152c4c146106fe57806350b447121461070757806351858e27146107945780635cbbd635146107a757600080fd5b80633e6968b6146106b557806342842e0e146106bd5780634585e33b146106d05780634f687e91146106e357600080fd5b806333f0ef08116102df57806333f0ef081461065b57806338cdf7cc146106635780633995326f1461066c5780633d4962ed146106a257600080fd5b806329f9d9c4146105485780632a1b43591461055b5780632a9936e1146106235780632f745c591461064857600080fd5b80630d50cdb9116103885780631a95f15f116103575780631a95f15f146105185780631fe543e31461052257806323b872dd146105355780632599399e146104c857600080fd5b80630d50cdb9146104d857806311eac855146104e1578063147e291f1461050857806318160ddd1461051057600080fd5b8063095ea7b3116103c4578063095ea7b31461047e57806309c1ba2e146104935780630bc75eb3146104c85780630cbed53a146104d057600080fd5b806301ffc9a7146103f65780630484a22f1461041e57806306fdde031461043e578063081812fc14610453575b600080fd5b6104096104043660046139ca565b610a38565b60405190151581526020015b60405180910390f35b61043161042c366004613a03565b610a49565b6040516104159190613a1e565b610446610ab5565b6040516104159190613aa8565b610466610461366004613abb565b610b47565b6040516001600160a01b039091168152602001610415565b61049161048c366004613ad4565b610b70565b005b6104ba7f000000000000000000000000000000000000000000000000000000000000000081565b604051908152602001610415565b6104ba600581565b6104ba601481565b6104ba60105481565b6104667f000000000000000000000000000000000000000000000000000000000000000081565b610491610b7f565b600c546104ba565b6104ba62030d4081565b610491610530366004613afe565b610bd0565b610491610543366004613b7d565b610c20565b610491610556366004613abb565b610cab565b6105ca610569366004613abb565b6019602052600090815260409020805460018201546002830154600384015460048501546005860154600687015460078801546008890154600a90990154979896979596949593949293919260ff918216929091818116916101009004168b565b604080519b8c5260208c019a909a52988a01979097526060890195909552608088019390935260a087019190915260c0860152151560e08501526101008401521515610120830152151561014082015261016001610415565b610636610631366004613abb565b610d7c565b60405161041596959493929190613bdf565b6104ba610656366004613ad4565b610eae565b6104ba605081565b6104ba600e5481565b6012546013546014546015546106829392919084565b604080519485526020850193909352918301526060820152608001610415565b6104916106b0366004613c64565b610f13565b6104ba61125d565b6104916106cb366004613b7d565b61127f565b6104916106de366004613cf2565b61129a565b61049161136f565b6104ba6106f9366004613abb565b6113b5565b6104ba601e5481565b61075b610715366004613abb565b601a6020526000908152604090208054600182015460038301546004840154600585015460069095015493946001600160a01b0390931693919260ff9182169290911686565b604080519687526001600160a01b03909516602087015293850192909252151560608401526080830152151560a082015260c001610415565b6011546104099062010000900460ff1681565b6104ba60205481565b6104666107be366004613abb565b61140e565b60115461040990610100900460ff1681565b6107e86107e3366004613cf2565b611419565b604051610415929190613d64565b610809610804366004613abb565b6114aa565b604051610415959493929190613d7f565b6104ba610828366004613a03565b61168f565b60165460175460185461083f92919083565b60408051938452602084019290925290820152606001610415565b61086d610868366004613abb565b6116d7565b60405160ff9091168152602001610415565b60165460175460185461083f565b610491611701565b601254601354601454601554610682565b6104ba601d5481565b6000546001600160a01b0316610466565b6104916108ce366004613a03565b6117ab565b6108e66108e1366004613abb565b61189d565b6040516104159796959493929190613db3565b6104ba610907366004613e01565b6119bf565b6104ba601f5481565b6104466119f0565b600254610466906001600160a01b031681565b61049161093e366004613e31565b6119ff565b610491610951366004613e68565b611a0a565b61086d601981565b6104ba600a81565b6104ba610e1081565b61044661097d366004613abb565b611a21565b6104ba610990366004613ad4565b611bf5565b6104916109a3366004613abb565b611c11565b6104096109b6366004613c64565b611f8a565b6104316109c9366004613abb565b611fdc565b6104916109dc366004613abb565b61203c565b6104096109ef366004613f28565b6120b9565b6011546104099060ff1681565b610491610a0f366004613a03565b6120e7565b610a27610a22366004613abb565b6120f8565b604051610415959493929190613f5b565b6000610a43826121ff565b92915050565b6001600160a01b0381166000908152601c6020908152604091829020805483518184028101840190945280845260609392830182828015610aa957602002820191906000526020600020905b815481526020019060010190808311610a95575b50505050509050919050565b606060048054610ac490613f98565b80601f0160208091040260200160405190810160405280929190818152602001828054610af090613f98565b8015610b3d5780601f10610b1257610100808354040283529160200191610b3d565b820191906000526020600020905b815481529060010190602001808311610b2057829003601f168201915b5050505050905090565b6000610b5282612224565b506000828152600860205260409020546001600160a01b0316610a43565b610b7b82823361225d565b5050565b33301480610b8c57503332145b610bb15760405162461bcd60e51b8152600401610ba890613fd2565b60405180910390fd5b6011805462ff0000198116620100009182900460ff1615909102179055565b6002546001600160a01b03163314610c105760025460405163073e64fd60e21b81523360048201526001600160a01b039091166024820152604401610ba8565b610c1b83838361226a565b505050565b6001600160a01b038216610c4a57604051633250574960e11b815260006004820152602401610ba8565b6000610c578383336123e1565b9050836001600160a01b0316816001600160a01b031614610ca5576040516364283d7b60e01b81526001600160a01b0380861660048301526024820184905282166044820152606401610ba8565b50505050565b33301480610cb857503332145b610cd45760405162461bcd60e51b8152600401610ba890613fd2565b60188110610d135760405162461bcd60e51b815260206004820152600c60248201526b24b73b30b634b2103437bab960a11b6044820152606401610ba8565b600e54610d2282610e10614010565b600e55610d2d61125d565b6010819055600e546040805184815260208101929092528101919091527fe6316729d2573d521dd8a5bba7255a508adebbde04ef549afa0c66db8f26429c906060015b60405180910390a15050565b6000806000806000610d8c6138ee565b60008781526019602090815260408083208151610180810183528154815260018201549381019390935260028101548383015260038101546060840152600480820154608080860191909152600583015460a0860152600683015460c0860152600783015460ff16151560e0860152600883015461010086015283519081019384905291926101208501929160098501918288855b825461010083900a900460ff16815260206001928301818104948501949093039092029101808411610e2157505050928452505050600a919091015460ff80821615156020808501919091526101009092041615156040928301528251908301519183015160e084015161014085015161012090950151929d939c50909a50985091965090945092505050565b6000610eb98361168f565b8210610eea5760405163295f44f760e21b81526001600160a01b038416600482015260248101839052604401610ba8565b506001600160a01b03919091166000908152600a60209081526040808320938352929052205490565b610f1b6123f6565b60115460ff168015610f36575060115462010000900460ff16155b610f745760405162461bcd60e51b815260206004820152600f60248201526e47616d65206e6f742061637469766560881b6044820152606401610ba8565b610f7d81611f8a565b610fc95760405162461bcd60e51b815260206004820152601760248201527f496e76616c696420656d6f6a692073656c656374696f6e0000000000000000006044820152606401610ba8565b6040516323b872dd60e01b815233600482015230602482015262030d4060448201527f00000000000000000000000000000000000000000000000000000000000000006001600160a01b0316906323b872dd906064016020604051808303816000875af115801561103e573d6000803e3d6000fd5b505050506040513d601f19601f820116820180604052508101906110629190614027565b6110a55760405162461bcd60e51b81526020600482015260146024820152731554d110c81d1c985b9cd9995c8819985a5b195960621b6044820152606401610ba8565b601d80549060006110b583614044565b919050555060006110c461125d565b6040805160e081018252601d54808252336020808401918252838501888152606085018790526001608086018190524260a087015260c086018190526000948552601a9092529490922083518155905191810180546001600160a01b0319166001600160a01b039093169290921790915591519293509161114b906002830190600461390c565b5060608201516003820155608082015160048201805491151560ff1992831617905560a0830151600583015560c09092015160069091018054911515919092161790556000818152601b60209081526040808320601d80548254600181810185559387528587200155338552601c84528285209054815492830182559085528385209091015583835260199091528120805462030d4092906111ee90849061405d565b909155506111fd905081612420565b61120933601d54612500565b336001600160a01b0316601d547f8d638e5fab80232bf709cdd14d918285207e67414f36a090fb409fde4eb5af358484604051611247929190614070565b60405180910390a35061125a6001600355565b50565b6000610e10600e5442611270919061405d565b61127a91906140a1565b905090565b610c1b83838360405180602001604052806000815250611a0a565b601154610100900460ff1680156112ba575060115462010000900460ff16155b6112fa5760405162461bcd60e51b8152602060048201526011602482015270105d5d1bdb585d1a5bdb881c185d5cd959607a1b6044820152606401610ba8565b6000611308828401846140b5565b905080801561131a575061131a612565565b15610c1b57602054429060009061133190836140d2565b90506000611341610e10836140a1565b905061134f610e1082614010565b60205461135c919061405d565b602055611367612581565b505050505050565b3330148061137c57503332145b6113985760405162461bcd60e51b8152600401610ba890613fd2565b6011805461ff001981166101009182900460ff1615909102179055565b60006113c0600c5490565b82106113e95760405163295f44f760e21b81526000600482015260248101839052604401610ba8565b600c82815481106113fc576113fc6140e5565b90600052602060002001549050919050565b6000610a4382612224565b601154600090606090610100900460ff16158061143e575060115462010000900460ff165b1561145b57505060408051602081019091526000808252906114a3565b611463612565565b1561148f57604080516001602082018190529101604051602081830303815290604052915091506114a3565b505060408051602081019091526000808252905b9250929050565b60008060008060606000861180156114c45750601d548611155b6115045760405162461bcd60e51b8152602060048201526011602482015270125b9d985b1a59081d1a58dad95d081251607a1b6044820152606401610ba8565b6000868152601a6020908152604080832060030154808452601990925280832081516080810192839052929392916009909101906004908285855b825461010083900a900460ff1681526020600192830181810494850194909303909202910180841161153f579050505050505090506000611580898361269e565b9050600061158e8a8461276a565b9050600061159c8b85612880565b905060006115aa8c83612900565b905060608260ff166001036115d95760405180606001604052806025815260200161423660259139905061167b565b8260ff166002036116045760405180606001604052806021815260200161425b60219139905061167b565b8260ff1660030361162f5760405180606001604052806025815260200161427c60259139905061167b565b8260ff1660040361165a5760405180606001604052806021815260200161421560219139905061167b565b506040805180820190915260088152674e6f207072697a6560c01b60208201525b919c939b5091995090975095509350505050565b60006001600160a01b0382166116bb576040516322718ad960e21b815260006004820152602401610ba8565b506001600160a01b031660009081526007602052604090205490565b600f81600481106116e757600080fd5b60209182820401919006915054906101000a900460ff1681565b6001546001600160a01b031633146117545760405162461bcd60e51b815260206004820152601660248201527526bab9ba10313290383937b837b9b2b21037bbb732b960511b6044820152606401610ba8565b60008054336001600160a01b0319808316821784556001805490911690556040516001600160a01b0390921692909183917f8be0079c531659141344cd1fd0a4f28419497f9722a3daafe3b4186f6b6457e091a350565b6000546001600160a01b031633148015906117d157506002546001600160a01b03163314155b1561182257336117e96000546001600160a01b031690565b60025460405163061db9c160e01b81526001600160a01b0393841660048201529183166024830152919091166044820152606401610ba8565b6001600160a01b0381166118495760405163d92e233d60e01b815260040160405180910390fd5b600280546001600160a01b0319166001600160a01b0383169081179091556040519081527fd1a6a14209a385a964d036e404cb5cfb71f4000cdb03c9366292430787261be69060200160405180910390a150565b60006118a76138ee565b6000838152601a60209081526040808320815160e0810183528154815260018201546001600160a01b03169381019390935281516080810180845285948594859485948594919284019160028401906004908288855b825461010083900a900460ff168152602060019283018181049485019490930390920291018084116118fd57905050505050508152602001600382015481526020016004820160009054906101000a900460ff16151515158152602001600582015481526020016006820160009054906101000a900460ff161515151581525050905080602001518160400151826060015183608001518460a001518560c001516119a78f612a8a565b959f949e50929c50909a509850965090945092505050565b601b60205281600052604060002081815481106119db57600080fd5b90600052602060002001600091509150505481565b606060058054610ac490613f98565b610b7b338383612aed565b611a15848484610c20565b610ca584848484612b8c565b6060600082118015611a355750601d548211155b611a785760405162461bcd60e51b8152602060048201526014602482015273151bdad95b88191bd95cc81b9bdd08195e1a5cdd60621b6044820152606401610ba8565b6000828152601a60209081526040808320815160e0810183528154815260018201546001600160a01b031693810193909352815160808101808452919284019160028401906004908288855b825461010083900a900460ff16815260206001928301818104948501949093039092029101808411611ac457905050505091835250506003820154602080830191909152600483015460ff9081161515604080850191909152600585015460608501526006909401541615156080909201919091529051919250611bde91017f646174613a6170706c69636174696f6e2f6a736f6e3b6261736536342c00000081527f65794a755957316c496a6f69544739306447394e62327070494652705932746c601d8201527f64434973496d526c63324e796158423061573975496a6f69544739306447394e603d8201527f62327070494764686257556764476c6a61325630496e303d0000000000000000605d82015260750190565b604051602081830303815290604052915050919050565b601c60205281600052604060002081815481106119db57600080fd5b611c196123f6565b6000818152601a60205260409020600101546001600160a01b03163314611c755760405162461bcd60e51b815260206004820152601060248201526f2737ba103a34b1b5b2ba1037bbb732b960811b6044820152606401610ba8565b6000818152601a602052604090206004015460ff16611ccf5760405162461bcd60e51b8152602060048201526016602482015275151a58dad95d08185b1c9958591e4818db185a5b595960521b6044820152606401610ba8565b6000818152601a60209081526040808320600301548084526019909252909120600a015460ff16611d3a5760405162461bcd60e51b8152602060048201526015602482015274111c985dc81b9bdd08195e1958dd5d1959081e595d605a1b6044820152606401610ba8565b60008181526019602052604080822081516080810192839052611d9c928692600901906004908287855b825461010083900a900460ff16815260206001928301818104948501949093039092029101808411611d645790505050505050612880565b905060008160ff1611611df15760405162461bcd60e51b815260206004820152601860248201527f4e6f207072697a6520666f722074686973207469636b657400000000000000006044820152606401610ba8565b6000611dfd8483612900565b905060008111611e445760405162461bcd60e51b81526020600482015260126024820152714e6f207072697a6520617661696c61626c6560701b6044820152606401610ba8565b6000848152601a6020526040908190206004908101805460ff19169055905163a9059cbb60e01b81523391810191909152602481018290527f00000000000000000000000000000000000000000000000000000000000000006001600160a01b03169063a9059cbb906044016020604051808303816000875af1158015611ecf573d6000803e3d6000fd5b505050506040513d601f19601f82011682018060405250810190611ef39190614027565b611f375760405162461bcd60e51b8152602060048201526015602482015274141c9a5e99481d1c985b9cd9995c8819985a5b1959605a1b6044820152606401610ba8565b6040805182815260ff841660208201526000818301529051339186917f026cdcc366814fb563cebc9794374e5d7aaa2f89b43f7f7661e5439f2c89f8f79181900360600190a350505061125a6001600355565b6000805b6004811015611fd3576019838260048110611fab57611fab6140e5565b602002015160ff1610611fc15750600092915050565b80611fcb81614044565b915050611f8e565b50600192915050565b6000818152601b6020908152604091829020805483518184028101840190945280845260609392830182828015610aa95760200282019190600052602060002090815481526020019060010190808311610a955750505050509050919050565b3330148061204957503332145b6120655760405162461bcd60e51b8152600401610ba890613fd2565b602080549082905561207561125d565b60108190556040805183815260208101859052908101919091527f25e8c695044b1ba4042ca7a8cb42eefaeacad184bacbd43a253f5a68b839581090606001610d70565b6001600160a01b03918216600090815260096020908152604080832093909416825291909152205460ff1690565b6120ef612cb5565b61125a81612d0a565b60006121026138ee565b6000838152601a60209081526040808320815160e0810183528154815260018201546001600160a01b03169381019390935281516080810180845285948594859491939192908401919060028401906004908288855b825461010083900a900460ff16815260206001928301818104948501949093039092029101808411612158575050509284525050506003820154602080830191909152600483015460ff90811615156040808501919091526005850154606080860191909152600690950154909116151560809384015290840151908401519284015191840151939450926121ec8b612a8a565b939b929a50909850965090945092505050565b60006001600160e01b0319821663780e9d6360e01b1480610a435750610a4382612db3565b6000818152600660205260408120546001600160a01b031680610a4357604051637e27328960e01b815260048101849052602401610ba8565b610c1b8383836001612e03565b600481146122ba5760405162461bcd60e51b815260206004820152601e60248201527f496e76616c6964206e756d626572206f662072616e646f6d20776f72647300006044820152606401610ba8565b6122c26138ee565b60005b60048110156123245760198484838181106122e2576122e26140e5565b905060200201356122f391906140fb565b828260048110612305576123056140e5565b60ff90921660209290920201528061231c81614044565b9150506122c5565b50612332600f82600461390c565b50600061233d61125d565b600081815260196020526040902090915061235d9060090183600461390c565b506000818152601960205260409020600a01805460ff191660011790556123848183612f09565b601e805490600061239483614044565b9190505550807fe69a20bd85247c3428aec726bfa23e80608f0c3fdc4cb8b85d1cf67cfa225162836123c4612f26565b6040516123d2929190614070565b60405180910390a25050505050565b60006123ee848484612f54565b949350505050565b60026003540361241957604051633ee5aeb560e01b815260040160405180910390fd5b6002600355565b6000818152601960205260409020805460649061243f90605090614010565b61244991906140a1565b6001820155805460649061245f90601490614010565b61246991906140a1565b6002820155600181015460649061248290605090614010565b61248c91906140a1565b600382015560018101546064906124a590600a90614010565b6124af91906140a1565b600482015560018101546064906124c890600590614010565b6124d291906140a1565b81600501819055506064600582600101546124ed9190614010565b6124f791906140a1565b60069091015550565b6001600160a01b03821661252a57604051633250574960e11b815260006004820152602401610ba8565b6000612538838360006123e1565b90506001600160a01b03811615610c1b576040516339e3563760e11b815260006004820152602401610ba8565b600080610e10602054612578919061405d565b42101592915050565b6040805160c0810182527fc799bd1e3bd4d1a41cd4968997a4e03dfd2a3c7c04b695881138580163f4288781527f0000000000000000000000000000000000000000000000000000000000000000602080830191909152600182840152622625a0606083015260046080830152825190810190925260008083529160a082019061260a90613021565b9052604051634d8e1c2f60e11b81529091506001600160a01b037f00000000000000000000000000000000000000000000000000000000000000001690639b1c385e9061265b90849060040161410f565b6020604051808303816000875af115801561267a573d6000803e3d6000fd5b505050506040513d601f19601f82011682018060405250810190610b7b919061416c565b6000828152601a60205260408082208151608081019283905283929091600201906004908285855b825461010083900a900460ff168152602060019283018181049485019490930390920291018084116126c6579050505050505090506000805b60048110156127615784816004811061271a5761271a6140e5565b602002015160ff16838260048110612734576127346140e5565b602002015160ff160361274f578161274b81614185565b9250505b8061275981614044565b9150506126ff565b50949350505050565b6000828152601a60205260408082208151608081019283905283929091600201906004908285855b825461010083900a900460ff168152602060019283018181049485019490930390920291018084116127925790505050505050905060008390506000805b60048110156128765760005b6004811015612863578381600481106127f7576127f76140e5565b602002015160ff16858360048110612811576128116140e5565b602002015160ff1603612851578261282881614185565b93505060ff84826004811061283f5761283f6140e5565b60ff9092166020929092020152612863565b8061285b81614044565b9150506127dc565b508061286e81614044565b9150506127d0565b5095945050505050565b60008061288d848461269e565b9050600061289b858561276a565b90508160ff166004036128b357600192505050610a43565b8060ff166004036128c957600292505050610a43565b8160ff166003036128df57600392505050610a43565b8060ff166003036128f557600492505050610a43565b600092505050610a43565b6000828152601a602090815260408083206003908101548085526019845282852083516101808101855281548152600182015495810195909552600281015485850152918201546060850152600480830154608080870191909152600584015460a0870152600684015460c0870152600784015460ff16151560e087015260088401546101008701528451908101948590529194869490939261012085019290916009850191908288855b825461010083900a900460ff168152602060019283018181049485019490930390920291018084116129ab57505050928452505050600a919091015460ff80821615156020840152610100909104811615156040909201919091529091508416600103612a2d576012546060820151612a24919061405d565b92505050610a43565b8360ff16600203612a4a576013546080820151612a24919061405d565b8360ff16600303612a675760145460a0820151612a24919061405d565b8360ff16600403612a7f5762030d4092505050610a43565b506000949350505050565b6000818152601a602090815260408083206003015480845260198352818420825160808101938490526009909101805460ff1682529193612ae6938793916004919083906001908601808411611d645790505050505050612880565b9392505050565b6001600160a01b038216612b1f57604051630b61174360e31b81526001600160a01b0383166004820152602401610ba8565b6001600160a01b03838116600081815260096020908152604080832094871680845294825291829020805460ff191686151590811790915591519182527f17307eab39ab6107e8899845ad3d59bd9653f200f220920489ca2b5937696c31910160405180910390a3505050565b6001600160a01b0383163b15610ca557604051630a85bd0160e11b81526001600160a01b0384169063150b7a0290612bce9033908890879087906004016141a4565b6020604051808303816000875af1925050508015612c09575060408051601f3d908101601f19168201909252612c06918101906141e1565b60015b612c72573d808015612c37576040519150601f19603f3d011682016040523d82523d6000602084013e612c3c565b606091505b508051600003612c6a57604051633250574960e11b81526001600160a01b0385166004820152602401610ba8565b805181602001fd5b6001600160e01b03198116630a85bd0160e11b14612cae57604051633250574960e11b81526001600160a01b0385166004820152602401610ba8565b5050505050565b6000546001600160a01b03163314612d085760405162461bcd60e51b815260206004820152601660248201527527b7363c9031b0b63630b1363290313c9037bbb732b960511b6044820152606401610ba8565b565b336001600160a01b03821603612d625760405162461bcd60e51b815260206004820152601760248201527f43616e6e6f74207472616e7366657220746f2073656c660000000000000000006044820152606401610ba8565b600180546001600160a01b0319166001600160a01b0383811691821790925560008054604051929316917fed8889f560326eb138920d842192f0eb3dd22b4f139c87a2c57538e05bae12789190a350565b60006001600160e01b031982166380ac58cd60e01b1480612de457506001600160e01b03198216635b5e139f60e01b145b80610a4357506301ffc9a760e01b6001600160e01b0319831614610a43565b8080612e1757506001600160a01b03821615155b15612ed9576000612e2784612224565b90506001600160a01b03831615801590612e535750826001600160a01b0316816001600160a01b031614155b8015612e665750612e6481846120b9565b155b15612e8f5760405163a9fbf51f60e01b81526001600160a01b0384166004820152602401610ba8565b8115612ed75783856001600160a01b0316826001600160a01b03167f8c5be1e5ebec7d5bd14f71427d1e84f3dd0314c0f7b2291e5b200ac8c7c3b92560405160405180910390a45b505b5050600090815260086020526040902080546001600160a01b0319166001600160a01b0392909216919091179055565b612f1282613092565b612f1c82826131da565b610b7b828261336f565b6015546014546013546012546000939291612f409161405d565b612f4a919061405d565b61127a919061405d565b600080612f6285858561359e565b90506001600160a01b038116612fbf57612fba84600c80546000838152600d60205260408120829055600182018355919091527fdf6966c971051c3d54ec59162606531493a51404a002842f56009d7e5cf4a8c70155565b612fe2565b846001600160a01b0316816001600160a01b031614612fe257612fe28185613697565b6001600160a01b038516612ffe57612ff984613728565b6123ee565b846001600160a01b0316816001600160a01b0316146123ee576123ee85856137d7565b60607f92fd13387c7fe7befbc38d303d6468778fb9731bc4583f17d92989c6fcfdeaaa8260405160240161305a91511515815260200190565b60408051601f198184030181529190526020810180516001600160e01b03166001600160e01b03199093169290921790915292915050565b6000818152601960205260409020600a810154610100900460ff16156130b6575050565b60006064605083600201546130cb9190614010565b6130d591906140a1565b905060006064600a84600201546130ec9190614010565b6130f691906140a1565b9050600060646005856002015461310d9190614010565b61311791906140a1565b9050826016600001600082825461312e919061405d565b90915550506017805483919060009061314890849061405d565b90915550506018805482919060009061316290849061405d565b9091555050600a8401805461ff001916610100179055601f805490600061318883614044565b909155505060028401546040805185815260208101859052908101839052606081019190915285907fa5d2656a8dcf8630609f3f5ce778cc220baea1b2e804fbc353c4ec0bfbae10ad906080016123d2565b6000828152601b602090815260408083208054825181850281018501909352808352919290919083018282801561323057602002820191906000526020600020905b81548152602001906001019080831161321c575b505050505090506000806000805b84518110156132c057600085828151811061325b5761325b6140e5565b6020026020010151905060006132718289612880565b90508060ff1660010361328757600195506132ab565b8060ff1660020361329b57600194506132ab565b8060ff166003036132ab57600193505b505080806132b890614044565b91505061323e565b506000868152601960205260409020836132f1576003810154601280546000906132eb90849061405d565b90915550505b826133135760048101546013805460009061330d90849061405d565b90915550505b816133355760058101546014805460009061332f90849061405d565b90915550505b60068101546015805460009061334c90849061405d565b909155505060078101805460ff1916600117905542600890910155505050505050565b6000828152601b60209081526040808320805482518185028101850190935280835291929091908301828280156133c557602002820191906000526020600020905b8154815260200190600101908083116133b1575b505050505090506000806000805b84518110156134555760008582815181106133f0576133f06140e5565b6020026020010151905060006134068289612880565b90508060ff1660010361341c5760019550613440565b8060ff166002036134305760019450613440565b8060ff1660030361344057600193505b5050808061344d90614044565b9150506133d3565b508280156134635750601254155b8015613470575060165415155b156134c157601680546012819055600090915560408051600181526020810183905288917f5ca8a835db219361edcc1b27ab6e7593dcb41d1caa8ad58a3a44082acb0b5239910160405180910390a2505b8180156134ce5750601354155b80156134db575060175415155b1561352c57601780546013819055600090915560408051600281526020810183905288917f5ca8a835db219361edcc1b27ab6e7593dcb41d1caa8ad58a3a44082acb0b5239910160405180910390a2505b8080156135395750601454155b8015613546575060185415155b1561136757601880546014819055600090915560408051600381526020810183905288917f5ca8a835db219361edcc1b27ab6e7593dcb41d1caa8ad58a3a44082acb0b5239910160405180910390a250505050505050565b6000828152600660205260408120546001600160a01b03908116908316156135cb576135cb818486613827565b6001600160a01b03811615613609576135e8600085600080612e03565b6001600160a01b038116600090815260076020526040902080546000190190555b6001600160a01b03851615613638576001600160a01b0385166000908152600760205260409020805460010190555b60008481526006602052604080822080546001600160a01b0319166001600160a01b0389811691821790925591518793918516917fddf252ad1be2c89b69c2b068fc378daa952ba7f163c4a11628f55a4df523b3ef91a4949350505050565b60006136a28361168f565b6000838152600b60205260409020549091508082146136f5576001600160a01b0384166000908152600a602090815260408083208584528252808320548484528184208190558352600b90915290208190555b506000918252600b602090815260408084208490556001600160a01b039094168352600a81528383209183525290812055565b600c5460009061373a906001906140d2565b6000838152600d6020526040812054600c8054939450909284908110613762576137626140e5565b9060005260206000200154905080600c8381548110613783576137836140e5565b6000918252602080832090910192909255828152600d9091526040808220849055858252812055600c8054806137bb576137bb6141fe565b6001900381819060005260206000200160009055905550505050565b600060016137e48461168f565b6137ee91906140d2565b6001600160a01b039093166000908152600a602090815260408083208684528252808320859055938252600b9052919091209190915550565b61383283838361388b565b610c1b576001600160a01b03831661386057604051637e27328960e01b815260048101829052602401610ba8565b60405163177e802f60e01b81526001600160a01b038316600482015260248101829052604401610ba8565b60006001600160a01b038316158015906123ee5750826001600160a01b0316846001600160a01b031614806138c557506138c584846120b9565b806123ee5750506000908152600860205260409020546001600160a01b03908116911614919050565b60405180608001604052806004906020820280368337509192915050565b60018301918390821561398f5791602002820160005b8382111561396057835183826101000a81548160ff021916908360ff1602179055509260200192600101602081600001049283019260010302613922565b801561398d5782816101000a81549060ff0219169055600101602081600001049283019260010302613960565b505b5061399b92915061399f565b5090565b5b8082111561399b57600081556001016139a0565b6001600160e01b03198116811461125a57600080fd5b6000602082840312156139dc57600080fd5b8135612ae6816139b4565b80356001600160a01b03811681146139fe57600080fd5b919050565b600060208284031215613a1557600080fd5b612ae6826139e7565b6020808252825182820181905260009190848201906040850190845b81811015613a5657835183529284019291840191600101613a3a565b50909695505050505050565b6000815180845260005b81811015613a8857602081850181015186830182015201613a6c565b506000602082860101526020601f19601f83011685010191505092915050565b602081526000612ae66020830184613a62565b600060208284031215613acd57600080fd5b5035919050565b60008060408385031215613ae757600080fd5b613af0836139e7565b946020939093013593505050565b600080600060408486031215613b1357600080fd5b83359250602084013567ffffffffffffffff80821115613b3257600080fd5b818601915086601f830112613b4657600080fd5b813581811115613b5557600080fd5b8760208260051b8501011115613b6a57600080fd5b6020830194508093505050509250925092565b600080600060608486031215613b9257600080fd5b613b9b846139e7565b9250613ba9602085016139e7565b9150604084013590509250925092565b8060005b6004811015610ca557815160ff16845260209384019390910190600101613bbd565b8681526020810186905260408101859052831515606082015282151560808201526101208101613c1260a0830184613bb9565b979650505050505050565b634e487b7160e01b600052604160045260246000fd5b604051601f8201601f1916810167ffffffffffffffff81118282101715613c5c57613c5c613c1d565b604052919050565b600060808284031215613c7657600080fd5b82601f830112613c8557600080fd5b6040516080810181811067ffffffffffffffff82111715613ca857613ca8613c1d565b604052806080840185811115613cbd57600080fd5b845b81811015613ce757803560ff81168114613cd95760008081fd5b835260209283019201613cbf565b509195945050505050565b60008060208385031215613d0557600080fd5b823567ffffffffffffffff80821115613d1d57600080fd5b818501915085601f830112613d3157600080fd5b813581811115613d4057600080fd5b866020828501011115613d5257600080fd5b60209290920196919550909350505050565b82151581526040602082015260006123ee6040830184613a62565b60ff8616815260ff8516602082015260ff8416604082015282606082015260a060808201526000613c1260a0830184613a62565b6001600160a01b03881681526101408101613dd16020830189613bb9565b60a082019690965293151560c085015260e0840192909252151561010083015260ff166101209091015292915050565b60008060408385031215613e1457600080fd5b50508035926020909101359150565b801515811461125a57600080fd5b60008060408385031215613e4457600080fd5b613e4d836139e7565b91506020830135613e5d81613e23565b809150509250929050565b60008060008060808587031215613e7e57600080fd5b613e87856139e7565b93506020613e968187016139e7565b935060408601359250606086013567ffffffffffffffff80821115613eba57600080fd5b818801915088601f830112613ece57600080fd5b813581811115613ee057613ee0613c1d565b613ef2601f8201601f19168501613c33565b91508082528984828501011115613f0857600080fd5b808484018584013760008482840101525080935050505092959194509250565b60008060408385031215613f3b57600080fd5b613f44836139e7565b9150613f52602084016139e7565b90509250929050565b6001600160a01b03861681526101008101613f796020830187613bb9565b60a082019490945291151560c083015260ff1660e09091015292915050565b600181811c90821680613fac57607f821691505b602082108103613fcc57634e487b7160e01b600052602260045260246000fd5b50919050565b6020808252600e908201526d139bdd08185d5d1a1bdc9a5e995960921b604082015260600190565b634e487b7160e01b600052601160045260246000fd5b8082028115828204841417610a4357610a43613ffa565b60006020828403121561403957600080fd5b8151612ae681613e23565b60006001820161405657614056613ffa565b5060010190565b80820180821115610a4357610a43613ffa565b60a0810161407e8285613bb9565b8260808301529392505050565b634e487b7160e01b600052601260045260246000fd5b6000826140b0576140b061408b565b500490565b6000602082840312156140c757600080fd5b8135612ae681613e23565b81810381811115610a4357610a43613ffa565b634e487b7160e01b600052603260045260246000fd5b60008261410a5761410a61408b565b500690565b60208152815160208201526020820151604082015261ffff60408301511660608201526000606083015163ffffffff80821660808501528060808601511660a0850152505060a083015160c0808401526123ee60e0840182613a62565b60006020828403121561417e57600080fd5b5051919050565b600060ff821660ff810361419b5761419b613ffa565b60010192915050565b6001600160a01b03858116825284166020820152604081018390526080606082018190526000906141d790830184613a62565b9695505050505050565b6000602082840312156141f357600080fd5b8151612ae6816139b4565b634e487b7160e01b600052603160045260246000fdfe46726565205469636b657473202d203320656d6f6a697320616e79206f726465724669727374205072697a65202d203420656d6f6a697320657861637420706f736974696f6e5365636f6e64205072697a65202d203420656d6f6a697320616e79206f726465725468697264205072697a65202d203320656d6f6a697320657861637420706f736974696f6ea26469706673582212208cbadcc17d79126e273c4330e86e81cae50906664f0321ff0a3b7f0bee47b58d64736f6c63430008140033",
  "linkReferences": {},
  "deployedLinkReferences": {}
}