{
  "_format": "hh-sol-artifact-1",
  "contractName": "LottoMojiTickets",
  "sourceName": "contracts/LottoMojiTickets.sol",
  "abi": [
    {
      "inputs": [
        {
          "internalType": "address",
          "name": "_lotteryContract",
          "type": "address"
        }
      ],
      "stateMutability": "nonpayable",
      "type": "constructor"
    },
    {
      "inputs": [],
      "name": "AccessControlBadConfirmation",
      "type": "error"
    },
    {
      "inputs": [
        {
          "internalType": "address",
          "name": "account",
          "type": "address"
        },
        {
          "internalType": "bytes32",
          "name": "neededRole",
          "type": "bytes32"
        }
      ],
      "name": "AccessControlUnauthorizedAccount",
      "type": "error"
    },
    {
      "inputs": [
        {
          "internalType": "address",
          "name": "sender",
          "type": "address"
        },
        {
          "internalType": "uint256",
          "name": "tokenId",
          "type": "uint256"
        },
        {
          "internalType": "address",
          "name": "owner",
          "type": "address"
        }
      ],
      "name": "ERC721IncorrectOwner",
      "type": "error"
    },
    {
      "inputs": [
        {
          "internalType": "address",
          "name": "operator",
          "type": "address"
        },
        {
          "internalType": "uint256",
          "name": "tokenId",
          "type": "uint256"
        }
      ],
      "name": "ERC721InsufficientApproval",
      "type": "error"
    },
    {
      "inputs": [
        {
          "internalType": "address",
          "name": "approver",
          "type": "address"
        }
      ],
      "name": "ERC721InvalidApprover",
      "type": "error"
    },
    {
      "inputs": [
        {
          "internalType": "address",
          "name": "operator",
          "type": "address"
        }
      ],
      "name": "ERC721InvalidOperator",
      "type": "error"
    },
    {
      "inputs": [
        {
          "internalType": "address",
          "name": "owner",
          "type": "address"
        }
      ],
      "name": "ERC721InvalidOwner",
      "type": "error"
    },
    {
      "inputs": [
        {
          "internalType": "address",
          "name": "receiver",
          "type": "address"
        }
      ],
      "name": "ERC721InvalidReceiver",
      "type": "error"
    },
    {
      "inputs": [
        {
          "internalType": "address",
          "name": "sender",
          "type": "address"
        }
      ],
      "name": "ERC721InvalidSender",
      "type": "error"
    },
    {
      "inputs": [
        {
          "internalType": "uint256",
          "name": "tokenId",
          "type": "uint256"
        }
      ],
      "name": "ERC721NonexistentToken",
      "type": "error"
    },
    {
      "inputs": [],
      "name": "ReentrancyGuardReentrantCall",
      "type": "error"
    },
    {
      "anonymous": false,
      "inputs": [
        {
          "indexed": true,
          "internalType": "address",
          "name": "owner",
          "type": "address"
        },
        {
          "indexed": true,
          "internalType": "address",
          "name": "approved",
          "type": "address"
        },
        {
          "indexed": true,
          "internalType": "uint256",
          "name": "tokenId",
          "type": "uint256"
        }
      ],
      "name": "Approval",
      "type": "event"
    },
    {
      "anonymous": false,
      "inputs": [
        {
          "indexed": true,
          "internalType": "address",
          "name": "owner",
          "type": "address"
        },
        {
          "indexed": true,
          "internalType": "address",
          "name": "operator",
          "type": "address"
        },
        {
          "indexed": false,
          "internalType": "bool",
          "name": "approved",
          "type": "bool"
        }
      ],
      "name": "ApprovalForAll",
      "type": "event"
    },
    {
      "anonymous": false,
      "inputs": [
        {
          "indexed": true,
          "internalType": "bytes32",
          "name": "role",
          "type": "bytes32"
        },
        {
          "indexed": true,
          "internalType": "bytes32",
          "name": "previousAdminRole",
          "type": "bytes32"
        },
        {
          "indexed": true,
          "internalType": "bytes32",
          "name": "newAdminRole",
          "type": "bytes32"
        }
      ],
      "name": "RoleAdminChanged",
      "type": "event"
    },
    {
      "anonymous": false,
      "inputs": [
        {
          "indexed": true,
          "internalType": "bytes32",
          "name": "role",
          "type": "bytes32"
        },
        {
          "indexed": true,
          "internalType": "address",
          "name": "account",
          "type": "address"
        },
        {
          "indexed": true,
          "internalType": "address",
          "name": "sender",
          "type": "address"
        }
      ],
      "name": "RoleGranted",
      "type": "event"
    },
    {
      "anonymous": false,
      "inputs": [
        {
          "indexed": true,
          "internalType": "bytes32",
          "name": "role",
          "type": "bytes32"
        },
        {
          "indexed": true,
          "internalType": "address",
          "name": "account",
          "type": "address"
        },
        {
          "indexed": true,
          "internalType": "address",
          "name": "sender",
          "type": "address"
        }
      ],
      "name": "RoleRevoked",
      "type": "event"
    },
    {
      "anonymous": false,
      "inputs": [
        {
          "indexed": true,
          "internalType": "uint256",
          "name": "tokenId",
          "type": "uint256"
        },
        {
          "indexed": true,
          "internalType": "address",
          "name": "player",
          "type": "address"
        },
        {
          "indexed": false,
          "internalType": "uint256",
          "name": "roundId",
          "type": "uint256"
        }
      ],
      "name": "TicketBurned",
      "type": "event"
    },
    {
      "anonymous": false,
      "inputs": [
        {
          "indexed": true,
          "internalType": "uint256",
          "name": "tokenId",
          "type": "uint256"
        },
        {
          "indexed": true,
          "internalType": "address",
          "name": "player",
          "type": "address"
        },
        {
          "indexed": false,
          "internalType": "uint256",
          "name": "roundId",
          "type": "uint256"
        },
        {
          "indexed": false,
          "internalType": "uint256[4]",
          "name": "emojis",
          "type": "uint256[4]"
        },
        {
          "indexed": false,
          "internalType": "bool",
          "name": "isFreeTicket",
          "type": "bool"
        }
      ],
      "name": "TicketMinted",
      "type": "event"
    },
    {
      "anonymous": false,
      "inputs": [
        {
          "indexed": true,
          "internalType": "uint256",
          "name": "tokenId",
          "type": "uint256"
        },
        {
          "indexed": true,
          "internalType": "address",
          "name": "player",
          "type": "address"
        },
        {
          "indexed": false,
          "internalType": "uint256",
          "name": "prizeAmount",
          "type": "uint256"
        }
      ],
      "name": "TicketUsed",
      "type": "event"
    },
    {
      "anonymous": false,
      "inputs": [
        {
          "indexed": true,
          "internalType": "address",
          "name": "from",
          "type": "address"
        },
        {
          "indexed": true,
          "internalType": "address",
          "name": "to",
          "type": "address"
        },
        {
          "indexed": true,
          "internalType": "uint256",
          "name": "tokenId",
          "type": "uint256"
        }
      ],
      "name": "Transfer",
      "type": "event"
    },
    {
      "inputs": [],
      "name": "DEFAULT_ADMIN_ROLE",
      "outputs": [
        {
          "internalType": "bytes32",
          "name": "",
          "type": "bytes32"
        }
      ],
      "stateMutability": "view",
      "type": "function"
    },
    {
      "inputs": [],
      "name": "LOTTERY_ROLE",
      "outputs": [
        {
          "internalType": "bytes32",
          "name": "",
          "type": "bytes32"
        }
      ],
      "stateMutability": "view",
      "type": "function"
    },
    {
      "inputs": [],
      "name": "MINTER_ROLE",
      "outputs": [
        {
          "internalType": "bytes32",
          "name": "",
          "type": "bytes32"
        }
      ],
      "stateMutability": "view",
      "type": "function"
    },
    {
      "inputs": [
        {
          "internalType": "address",
          "name": "to",
          "type": "address"
        },
        {
          "internalType": "uint256",
          "name": "tokenId",
          "type": "uint256"
        }
      ],
      "name": "approve",
      "outputs": [],
      "stateMutability": "nonpayable",
      "type": "function"
    },
    {
      "inputs": [
        {
          "internalType": "address",
          "name": "owner",
          "type": "address"
        }
      ],
      "name": "balanceOf",
      "outputs": [
        {
          "internalType": "uint256",
          "name": "",
          "type": "uint256"
        }
      ],
      "stateMutability": "view",
      "type": "function"
    },
    {
      "inputs": [
        {
          "internalType": "uint256",
          "name": "roundId",
          "type": "uint256"
        }
      ],
      "name": "burnExpiredTickets",
      "outputs": [],
      "stateMutability": "nonpayable",
      "type": "function"
    },
    {
      "inputs": [
        {
          "internalType": "uint256",
          "name": "tokenId",
          "type": "uint256"
        }
      ],
      "name": "getApproved",
      "outputs": [
        {
          "internalType": "address",
          "name": "",
          "type": "address"
        }
      ],
      "stateMutability": "view",
      "type": "function"
    },
    {
      "inputs": [
        {
          "internalType": "address",
          "name": "player",
          "type": "address"
        },
        {
          "internalType": "uint256",
          "name": "roundId",
          "type": "uint256"
        }
      ],
      "name": "getPlayerTicketsForRound",
      "outputs": [
        {
          "internalType": "uint256[]",
          "name": "validTickets",
          "type": "uint256[]"
        }
      ],
      "stateMutability": "view",
      "type": "function"
    },
    {
      "inputs": [
        {
          "internalType": "bytes32",
          "name": "role",
          "type": "bytes32"
        }
      ],
      "name": "getRoleAdmin",
      "outputs": [
        {
          "internalType": "bytes32",
          "name": "",
          "type": "bytes32"
        }
      ],
      "stateMutability": "view",
      "type": "function"
    },
    {
      "inputs": [
        {
          "internalType": "uint256",
          "name": "roundId",
          "type": "uint256"
        }
      ],
      "name": "getRoundValidTickets",
      "outputs": [
        {
          "internalType": "uint256[]",
          "name": "",
          "type": "uint256[]"
        }
      ],
      "stateMutability": "view",
      "type": "function"
    },
    {
      "inputs": [
        {
          "internalType": "bytes32",
          "name": "paymentHash",
          "type": "bytes32"
        }
      ],
      "name": "getTicketByPayment",
      "outputs": [
        {
          "internalType": "uint256",
          "name": "",
          "type": "uint256"
        }
      ],
      "stateMutability": "view",
      "type": "function"
    },
    {
      "inputs": [
        {
          "internalType": "uint256",
          "name": "tokenId",
          "type": "uint256"
        }
      ],
      "name": "getTicketInfo",
      "outputs": [
        {
          "internalType": "uint256[4]",
          "name": "emojis",
          "type": "uint256[4]"
        },
        {
          "internalType": "uint256",
          "name": "roundId",
          "type": "uint256"
        },
        {
          "internalType": "address",
          "name": "player",
          "type": "address"
        },
        {
          "internalType": "bool",
          "name": "isUsed",
          "type": "bool"
        },
        {
          "internalType": "bool",
          "name": "isFreeTicket",
          "type": "bool"
        },
        {
          "internalType": "bool",
          "name": "isValid",
          "type": "bool"
        },
        {
          "internalType": "uint256",
          "name": "mintTimestamp",
          "type": "uint256"
        },
        {
          "internalType": "bytes32",
          "name": "paymentHash",
          "type": "bytes32"
        }
      ],
      "stateMutability": "view",
      "type": "function"
    },
    {
      "inputs": [
        {
          "internalType": "bytes32",
          "name": "role",
          "type": "bytes32"
        },
        {
          "internalType": "address",
          "name": "account",
          "type": "address"
        }
      ],
      "name": "grantRole",
      "outputs": [],
      "stateMutability": "nonpayable",
      "type": "function"
    },
    {
      "inputs": [
        {
          "internalType": "bytes32",
          "name": "role",
          "type": "bytes32"
        },
        {
          "internalType": "address",
          "name": "account",
          "type": "address"
        }
      ],
      "name": "hasRole",
      "outputs": [
        {
          "internalType": "bool",
          "name": "",
          "type": "bool"
        }
      ],
      "stateMutability": "view",
      "type": "function"
    },
    {
      "inputs": [
        {
          "internalType": "address",
          "name": "owner",
          "type": "address"
        },
        {
          "internalType": "address",
          "name": "operator",
          "type": "address"
        }
      ],
      "name": "isApprovedForAll",
      "outputs": [
        {
          "internalType": "bool",
          "name": "",
          "type": "bool"
        }
      ],
      "stateMutability": "view",
      "type": "function"
    },
    {
      "inputs": [
        {
          "internalType": "uint256",
          "name": "tokenId",
          "type": "uint256"
        }
      ],
      "name": "isTicketValid",
      "outputs": [
        {
          "internalType": "bool",
          "name": "",
          "type": "bool"
        }
      ],
      "stateMutability": "view",
      "type": "function"
    },
    {
      "inputs": [
        {
          "internalType": "address",
          "name": "player",
          "type": "address"
        },
        {
          "internalType": "uint256[4]",
          "name": "emojis",
          "type": "uint256[4]"
        },
        {
          "internalType": "uint256",
          "name": "roundId",
          "type": "uint256"
        },
        {
          "internalType": "bool",
          "name": "isFreeTicket",
          "type": "bool"
        },
        {
          "internalType": "bytes32",
          "name": "paymentHash",
          "type": "bytes32"
        }
      ],
      "name": "mintTicket",
      "outputs": [
        {
          "internalType": "uint256",
          "name": "",
          "type": "uint256"
        }
      ],
      "stateMutability": "nonpayable",
      "type": "function"
    },
    {
      "inputs": [],
      "name": "name",
      "outputs": [
        {
          "internalType": "string",
          "name": "",
          "type": "string"
        }
      ],
      "stateMutability": "view",
      "type": "function"
    },
    {
      "inputs": [
        {
          "internalType": "uint256",
          "name": "tokenId",
          "type": "uint256"
        }
      ],
      "name": "ownerOf",
      "outputs": [
        {
          "internalType": "address",
          "name": "",
          "type": "address"
        }
      ],
      "stateMutability": "view",
      "type": "function"
    },
    {
      "inputs": [
        {
          "internalType": "bytes32",
          "name": "",
          "type": "bytes32"
        }
      ],
      "name": "paymentToTicket",
      "outputs": [
        {
          "internalType": "uint256",
          "name": "",
          "type": "uint256"
        }
      ],
      "stateMutability": "view",
      "type": "function"
    },
    {
      "inputs": [
        {
          "internalType": "address",
          "name": "",
          "type": "address"
        },
        {
          "internalType": "uint256",
          "name": "",
          "type": "uint256"
        }
      ],
      "name": "playerTickets",
      "outputs": [
        {
          "internalType": "uint256",
          "name": "",
          "type": "uint256"
        }
      ],
      "stateMutability": "view",
      "type": "function"
    },
    {
      "inputs": [
        {
          "internalType": "bytes32",
          "name": "role",
          "type": "bytes32"
        },
        {
          "internalType": "address",
          "name": "callerConfirmation",
          "type": "address"
        }
      ],
      "name": "renounceRole",
      "outputs": [],
      "stateMutability": "nonpayable",
      "type": "function"
    },
    {
      "inputs": [
        {
          "internalType": "bytes32",
          "name": "role",
          "type": "bytes32"
        },
        {
          "internalType": "address",
          "name": "account",
          "type": "address"
        }
      ],
      "name": "revokeRole",
      "outputs": [],
      "stateMutability": "nonpayable",
      "type": "function"
    },
    {
      "inputs": [
        {
          "internalType": "uint256",
          "name": "",
          "type": "uint256"
        },
        {
          "internalType": "uint256",
          "name": "",
          "type": "uint256"
        }
      ],
      "name": "roundTickets",
      "outputs": [
        {
          "internalType": "uint256",
          "name": "",
          "type": "uint256"
        }
      ],
      "stateMutability": "view",
      "type": "function"
    },
    {
      "inputs": [
        {
          "internalType": "address",
          "name": "from",
          "type": "address"
        },
        {
          "internalType": "address",
          "name": "to",
          "type": "address"
        },
        {
          "internalType": "uint256",
          "name": "tokenId",
          "type": "uint256"
        }
      ],
      "name": "safeTransferFrom",
      "outputs": [],
      "stateMutability": "nonpayable",
      "type": "function"
    },
    {
      "inputs": [
        {
          "internalType": "address",
          "name": "from",
          "type": "address"
        },
        {
          "internalType": "address",
          "name": "to",
          "type": "address"
        },
        {
          "internalType": "uint256",
          "name": "tokenId",
          "type": "uint256"
        },
        {
          "internalType": "bytes",
          "name": "data",
          "type": "bytes"
        }
      ],
      "name": "safeTransferFrom",
      "outputs": [],
      "stateMutability": "nonpayable",
      "type": "function"
    },
    {
      "inputs": [
        {
          "internalType": "address",
          "name": "operator",
          "type": "address"
        },
        {
          "internalType": "bool",
          "name": "approved",
          "type": "bool"
        }
      ],
      "name": "setApprovalForAll",
      "outputs": [],
      "stateMutability": "nonpayable",
      "type": "function"
    },
    {
      "inputs": [
        {
          "internalType": "bytes4",
          "name": "interfaceId",
          "type": "bytes4"
        }
      ],
      "name": "supportsInterface",
      "outputs": [
        {
          "internalType": "bool",
          "name": "",
          "type": "bool"
        }
      ],
      "stateMutability": "view",
      "type": "function"
    },
    {
      "inputs": [],
      "name": "symbol",
      "outputs": [
        {
          "internalType": "string",
          "name": "",
          "type": "string"
        }
      ],
      "stateMutability": "view",
      "type": "function"
    },
    {
      "inputs": [
        {
          "internalType": "uint256",
          "name": "",
          "type": "uint256"
        }
      ],
      "name": "tickets",
      "outputs": [
        {
          "internalType": "uint256",
          "name": "roundId",
          "type": "uint256"
        },
        {
          "internalType": "address",
          "name": "player",
          "type": "address"
        },
        {
          "internalType": "bool",
          "name": "isUsed",
          "type": "bool"
        },
        {
          "internalType": "bool",
          "name": "isFreeTicket",
          "type": "bool"
        },
        {
          "internalType": "uint256",
          "name": "mintTimestamp",
          "type": "uint256"
        },
        {
          "internalType": "bytes32",
          "name": "paymentHash",
          "type": "bytes32"
        }
      ],
      "stateMutability": "view",
      "type": "function"
    },
    {
      "inputs": [
        {
          "internalType": "uint256",
          "name": "tokenId",
          "type": "uint256"
        }
      ],
      "name": "tokenURI",
      "outputs": [
        {
          "internalType": "string",
          "name": "",
          "type": "string"
        }
      ],
      "stateMutability": "view",
      "type": "function"
    },
    {
      "inputs": [],
      "name": "totalSupply",
      "outputs": [
        {
          "internalType": "uint256",
          "name": "",
          "type": "uint256"
        }
      ],
      "stateMutability": "view",
      "type": "function"
    },
    {
      "inputs": [
        {
          "internalType": "address",
          "name": "from",
          "type": "address"
        },
        {
          "internalType": "address",
          "name": "to",
          "type": "address"
        },
        {
          "internalType": "uint256",
          "name": "tokenId",
          "type": "uint256"
        }
      ],
      "name": "transferFrom",
      "outputs": [],
      "stateMutability": "nonpayable",
      "type": "function"
    },
    {
      "inputs": [
        {
          "internalType": "uint256",
          "name": "tokenId",
          "type": "uint256"
        }
      ],
      "name": "useTicket",
      "outputs": [],
      "stateMutability": "nonpayable",
      "type": "function"
    }
  ],
  "bytecode": "0x6080346200037857601f1990601f906001600160401b03620027203881900384810186168401838111858210176200036257849282916040528339602093849181010312620003785751926001600160a01b03841684036200037857620000656200037d565b92601084526f131bdd1d1bd35bda9a48151a58dad95d60821b818501526200008c6200037d565b90600582526413135512d560da1b8183015284519684881162000362576000978854966001978881811c9116801562000357575b858210146200034357908187849311620002f0575b5084908783116001146200028f578b9262000283575b5050600019600383901b1c191690871b1788555b82519485116200026f5785548681811c9116801562000264575b83821014620002505784811162000208575b50819385116001146200019f57505090829162000182969262000193575b5050600019600383901b1c191690821b1781555b806007556008556200016f336200039d565b506200017b816200041e565b50620004c1565b506040516121a09081620005608239f35b01519050388062000149565b8588528188209497908816915b828210620001f0575050918493918762000182989410620001d6575b505050811b0181556200015d565b015160001960f88460031b161c19169055388080620001c8565b808786978294978701518155019601940190620001ac565b8689528289208580880160051c82019285891062000246575b0160051c019087905b8281106200023a5750506200012b565b8a81550187906200022a565b9250819262000221565b634e487b7160e01b89526022600452602489fd5b90607f169062000119565b634e487b7160e01b88526041600452602488fd5b015190503880620000eb565b90848a9416918c8052868d20928d5b88828210620002d95750508411620002bf575b505050811b018855620000ff565b015160001960f88460031b161c19169055388080620002b1565b8385015186558d979095019493840193016200029e565b9091508a8052848b208780850160051c82019287861062000339575b918b91869594930160051c01915b8281106200032a575050620000d5565b8d81558594508b91016200031a565b925081926200030c565b634e487b7160e01b8b52602260045260248bfd5b90607f1690620000c0565b634e487b7160e01b600052604160045260246000fd5b600080fd5b60408051919082016001600160401b038111838210176200036257604052565b6001600160a01b031660008181527f54cdd369e4e8a8515e52ca72ec816c2101831ad1f18bf44102ed171459c9b4f8602052604081205490919060ff166200041a5781805260066020526040822081835260205260408220600160ff198254161790553391600080516020620027008339815191528180a4600190565b5090565b6001600160a01b031660008181527f2e5125f5cf5862bb743795be6b654cc7a33c5e64a28cff7ea149a15b2596f41160205260408120549091907f98121a24191e1fb000610027f4e133f798a7a0273dc182e08f2925d985a104cc9060ff16620004bc5780835260066020526040832082845260205260408320600160ff1982541617905560008051602062002700833981519152339380a4600190565b505090565b6001600160a01b031660008181527f3195c024b2ddd6d9b8f6c836aa52f67fe69376c8903d009b80229b3ce4425f5160205260408120549091907f9f2df0fed2c77648de5860a4cc508cd0818c85b8b8a1ab4ceeef8d981c8956a69060ff16620004bc5780835260066020526040832082845260205260408320600160ff1982541617905560008051602062002700833981519152339380a460019056fe608080604052600436101561001357600080fd5b60003560e01c90816301ffc9a7146118165750806306fdde0314611757578063081812fc14611719578063095ea7b31461163257806318160ddd146116145780632379ba3d146102f557806323b872dd146115fd578063248a9ca3146115ce5780632495fa16146114b157806326606448146113435780632f2ff15d1461130457806336568abe146112bd57806338090ec61461128257806342842e0e1461125457806344d855f11461120a5780634d8b462a14610f6c57806350b4471214610ef85780636352211e14610ec857806370a0823114610e6f5780637169c71114610e2857806391d1485414610ddb57806395d89b4114610cd0578063a217fddf14610cb4578063a22cb46514610c0f578063b88d4fde14610b7a578063c87b56dd14610b27578063ca5a3633146109aa578063d28e54f0146103f3578063d5391393146103b8578063d547741f14610377578063e985e9c514610321578063f4b475e0146102f5578063fb3ae56f146102cd5763ff99a0631461019557600080fd5b346102c8576020806003193601126102c85760043560806040516101b8816119f3565b36903760008181526002835260409020546001600160a01b0392906101e09084161515611fdc565b81600052600981526040600020604051906101fa826119a5565b60405193849582966000905b600482106102b3575050610160965061021e866119f3565b85845260048301548095850152600583015490811680604086015261027760ff808460a01c1615159384606089015260a81c1615159384608088015260c0600760068801549760a08a0198895201549701968752612020565b93519451956102896040518099611a4d565b608088015260a087015260c086015260e08501521515610100840152610120830152610140820152f35b60018781928b54815201990191019097610206565b600080fd5b346102c85760203660031901126102c85760206102eb600435612020565b6040519015158152f35b346102c85760203660031901126102c857600435600052600c6020526020604060002054604051908152f35b346102c85760403660031901126102c85761033a6118db565b6103426118f1565b9060018060a01b03809116600052600560205260406000209116600052602052602060ff604060002054166040519015158152f35b346102c85760403660031901126102c8576103b66004356103966118f1565b908060005260066020526103b1600160406000200154611a75565b611b1b565b005b346102c85760003660031901126102c85760206040517f9f2df0fed2c77648de5860a4cc508cd0818c85b8b8a1ab4ceeef8d981c8956a68152f35b346102c8576101003660031901126102c85761040d6118db565b36604312156102c85760405190610423826119f3565b60a4823682116102c8576024905b82821061099a57505060c4359182151583036102c8573360009081527f3195c024b2ddd6d9b8f6c836aa52f67fe69376c8903d009b80229b3ce4425f5160205260409020547f9f2df0fed2c77648de5860a4cc508cd0818c85b8b8a1ab4ceeef8d981c8956a69060ff161561097c57506001600160a01b0381161561093e5781351561090657600854926104c484611f39565b6008556040516104d3816119d7565b6000808252858152600260205260409020546001600160a01b03161580156108fe575b156108a1576000858152600260205260409020546001600160a01b03168015159086908261086a575b6001600160a01b0386166000818152600360209081526040808320805460010190558583526002909152812080546001600160a01b031916831790559091907fddf252ad1be2c89b69c2b068fc378daa952ba7f163c4a11628f55a4df523b3ef9080a461085157823b610712575b506040519461059b866119a5565b8086528335602087015260018060a01b03831660408701526000606087015281151560808701524260a087015260e43560c0870152846000526009602052604060002095805160005b600481106106fe575050927f535683c05bfa705555dc0e92f5928b05e7415060b4b8a73b7f369e2d783c3c04926106ce60c093602099600786898d8d9b015160048501556005840160018060a01b0360408301511681549060ff60a01b6060850151151560a01b169060ff60a81b6080860151151560a81b169269ffffffffffffffffffff60b01b16171717905560a08101516006850155015191015560018060a01b038416600052600a8a5261069f876040600020611f5e565b8735600052600b8a526106b6876040600020611f5e565b60e4356106e8575b6040519735885289880190611a4d565b151560a08601526001600160a01b031693a3604051908152f35b60e435600052600c8a52866040600020556106be565b60019060208351930192818b0155016105e4565b604095949392955160208180610751630a85bd0160e11b958683523360048401526000602484015289604484015260806064840152608483019061189b565b038160006001600160a01b038c165af16000918161080c575b506107d257863d156107ca573d9061078182611a31565b9161078f6040519384611a0f565b82523d6000602084013e5b815191826107c357604051633250574960e11b81526001600160a01b0383166004820152602490fd5b9050602001fd5b60609061079a565b63ffffffff60e097949596971b16036107eb578561058d565b604051633250574960e11b81526001600160a01b0383166004820152602490fd5b9091506020813d602011610849575b8161082860209383611a0f565b810103126102c857516001600160e01b0319811681036102c857908861076a565b3d915061081b565b6040516339e3563760e11b815260006004820152602490fd5b600082815260046020526040902080546001600160a01b03191690558060005260036020526040600020600019815401905561051f565b60405162461bcd60e51b815260206004820152602f60248201527f5469636b6574732061726520736f756c626f756e6420616e642063616e6e6f7460448201526e081899481d1c985b9cd9995c9c9959608a1b6064820152608490fd5b5060006104f6565b60405162461bcd60e51b815260206004820152601060248201526f125b9d985b1a59081c9bdd5b9908125160821b6044820152606490fd5b60405162461bcd60e51b8152602060048201526016602482015275496e76616c696420706c61796572206164647265737360501b6044820152606490fd5b6044906040519063e2517d3f60e01b82523360048301526024820152fd5b8135815260209182019101610431565b346102c85760403660031901126102c8576109c36118db565b6024359060018060a01b0316600052602090600a8252604060002091604051808483829654938481520190600052836000209260005b85828210610b1157505050610a1092500384611a0f565b60009060005b8451811015610a7d57610a29818661210c565b51806000526009835284600460406000200154149081610a6d575b50610a58575b610a5390611f39565b610a16565b91610a65610a5391611f39565b929050610a4a565b610a779150612020565b86610a44565b5090610a8890612138565b9060009060005b8551811015610aff57610aa2818761210c565b518060005260098352856004604060002001541480610af0575b610ad0575b50610acb90611f39565b610a8f565b83610ae991610ae3610acb94968861210c565b52611f39565b9290610ac1565b50610afa81612020565b610abc565b60405180610b0d868261193c565b0390f35b85548452600195860195899550930192016109f9565b346102c85760203660031901126102c857610b43600435611daf565b506000604051610b52816119d7565b52610b0d604051610b62816119d7565b6000815260405191829160208352602083019061189b565b346102c85760803660031901126102c857610b936118db565b610b9b6118f1565b906044356064359267ffffffffffffffff84116102c857366023850112156102c857836004013592610bcc84611a31565b93610bda6040519586611a0f565b80855236602482880101116102c85760208160009260246103b699018389013786010152610c09838383611b92565b33611dea565b346102c85760403660031901126102c857610c286118db565b602435908115158092036102c8576001600160a01b0316908115610c9b57336000526005602052604060002082600052602052604060002060ff1981541660ff83161790556040519081527f17307eab39ab6107e8899845ad3d59bd9653f200f220920489ca2b5937696c3160203392a3005b604051630b61174360e31b815260048101839052602490fd5b346102c85760003660031901126102c857602060405160008152f35b346102c85760003660031901126102c857604051600060019081549182811c91818416918215610dd1575b6020948585108414610dbb578587948686529182600014610d9b575050600114610d41575b50610d2d92500383611a0f565b610b0d60405192828493845283019061189b565b6000818152859250907fb10e2d527612073b26eecdfd717e6a320cf44b4afac2b0732d9fcbe2b7fa0cf65b858310610d83575050610d2d935082010185610d20565b80548389018501528794508693909201918101610d6c565b60ff191685820152610d2d95151560051b8501019250879150610d209050565b634e487b7160e01b600052602260045260246000fd5b92607f1692610cfb565b346102c85760403660031901126102c857610df46118f1565b600435600052600660205260406000209060018060a01b0316600052602052602060ff604060002054166040519015158152f35b346102c85760403660031901126102c857602435600435600052600b602052604060002080548210156102c857602091610e6191611977565b90546040519160031b1c8152f35b346102c85760203660031901126102c8576001600160a01b03610e906118db565b168015610eaf5760005260036020526020604060002054604051908152f35b6040516322718ad960e21b815260006004820152602490fd5b346102c85760203660031901126102c8576020610ee6600435611daf565b6040516001600160a01b039091168152f35b346102c85760203660031901126102c857600435600052600960205260c0604060002060048101549060058101549060ff600760068301549201549260405194855260018060a01b0381166020860152818160a01c161515604086015260a81c1615156060840152608083015260a0820152f35b346102c8576020806003193601126102c857600435907f98121a24191e1fb000610027f4e133f798a7a0273dc182e08f2925d985a104cc60005260068152604060002033600052815260ff91610fc88360406000205416611f98565b80600052600b8252604060002091604051808483829654938481520190600052836000209260005b858282106111f45750505061100792500384611a0f565b60005b83518110156103b65761101d818561210c565b518060005260029081845260018060a01b0380604060002054161515806111e4575b806111c7575b61105b575b50505061105690611f39565b61100a565b61106482611daf565b928260005280865281604060002054161580156111bf575b15611162578260005280865282600083604082205416801593841561112f575b83835289526040822080546001600160a01b03191690557fddf252ad1be2c89b69c2b068fc378daa952ba7f163c4a11628f55a4df523b3ef8280a461111657907fbeeb3d358dda3ae075433edfd10345f4fe04f511b474c4fef26fbd9616dedc6d85611056959493604051948986521693a390868061104a565b604051637e27328960e01b815260048101839052602490fd5b600084815260046020526040902080546001600160a01b031916905581835260038a52604083208319815401905561109c565b60405162461bcd60e51b815260048101879052602f60248201527f5469636b6574732061726520736f756c626f756e6420616e642063616e6e6f7460448201526e081899481d1c985b9cd9995c9c9959608a1b6064820152608490fd5b50600161107c565b5081600052600985528760056040600020015460a01c1615611045565b506111ee82612020565b1561103f565b8554845260019586019589955093019201610ff0565b346102c85760403660031901126102c8576112236118db565b6001600160a01b03166000908152600a60205260409020805460243591908210156102c857602091610e6191611977565b346102c8576103b661126536611907565b9060405192611273846119d7565b60008452610c09838383611b92565b346102c85760003660031901126102c85760206040517f98121a24191e1fb000610027f4e133f798a7a0273dc182e08f2925d985a104cc8152f35b346102c85760403660031901126102c8576112d66118f1565b336001600160a01b038216036112f2576103b690600435611b1b565b60405163334bd91960e11b8152600490fd5b346102c85760403660031901126102c8576103b66004356113236118f1565b9080600052600660205261133e600160406000200154611a75565b611a9b565b346102c8576020806003193601126102c8576004357f98121a24191e1fb000610027f4e133f798a7a0273dc182e08f2925d985a104cc60005260068252604060002033600052825261139c60ff60406000205416611f98565b60008181526002835260409020546001600160a01b0392906113c19084161515611fdc565b816000526009815260ff60056040600020015460a01c16611477576113e582612020565b1561143d576000828152600982526040808220600501805460ff60a01b198116600160a01b179091559051918252909316927f4f9c6210874b14266ea0f64418a0f7403a875226eae9483f5d9cd7663234db9a9190a3005b6064906040519062461bcd60e51b825260048201526013602482015272151a58dad95d081a5cc81b9bdd081d985b1a59606a1b6044820152fd5b6064906040519062461bcd60e51b825260048201526013602482015272151a58dad95d08185b1c9958591e481d5cd959606a1b6044820152fd5b346102c8576020806003193601126102c857600435600052600b81526040600020906040518092839183825491828152019160005283600020936000905b8282106115b4578461150381860382611a0f565b6000805b825181101561154b5761152361151d828561210c565b51612020565b611536575b61153190611f39565b611507565b9061154361153191611f39565b919050611528565b5061155590612138565b60009060005b83518110156115a65761156e818561210c565b5161157881612020565b61158c575b5061158790611f39565b61155b565b8361159f91610ae361158794968661210c565b929061157d565b60405180610b0d848261193c565b8554845260019586019587955093810193909101906114ef565b346102c85760203660031901126102c85760043560005260066020526020600160406000200154604051908152f35b346102c8576103b661160e36611907565b91611b92565b346102c85760003660031901126102c8576020600854604051908152f35b346102c85760403660031901126102c85761164b6118db565b60243561165781611daf565b33151580611706575b806116d9575b6116c1576001600160a01b039283169282918491167f8c5be1e5ebec7d5bd14f71427d1e84f3dd0314c0f7b2291e5b200ac8c7c3b925600080a4600090815260046020526040902080546001600160a01b0319169091179055005b60405163a9fbf51f60e01b8152336004820152602490fd5b5060018060a01b038116600052600560205260406000203360005260205260ff6040600020541615611666565b506001600160a01b038116331415611660565b346102c85760203660031901126102c85760043561173681611daf565b506000526004602052602060018060a01b0360406000205416604051908152f35b346102c85760003660031901126102c8576040516000805490600182811c9181841691821561180c575b6020948585108414610dbb578587948686529182600014610d9b5750506001146117b25750610d2d92500383611a0f565b6000808052859250907f290decd9548b62a8d60345a988386fc84ba6bc95484008f6362f93160ef3e5635b8583106117f4575050610d2d935082010185610d20565b805483890185015287945086939092019181016117dd565b92607f1692611781565b346102c85760203660031901126102c8576004359063ffffffff60e01b82168092036102c857602091637965db0b60e01b8114908115611858575b5015158152f35b6380ac58cd60e01b81149150811561188a575b8115611879575b5083611851565b6301ffc9a760e01b14905083611872565b635b5e139f60e01b8114915061186b565b919082519283825260005b8481106118c7575050826000602080949584010152601f8019910116010190565b6020818301810151848301820152016118a6565b600435906001600160a01b03821682036102c857565b602435906001600160a01b03821682036102c857565b60609060031901126102c8576001600160a01b039060043582811681036102c8579160243590811681036102c8579060443590565b6020908160408183019282815285518094520193019160005b828110611963575050505090565b835185529381019392810192600101611955565b805482101561198f5760005260206000200190600090565b634e487b7160e01b600052603260045260246000fd5b60e0810190811067ffffffffffffffff8211176119c157604052565b634e487b7160e01b600052604160045260246000fd5b6020810190811067ffffffffffffffff8211176119c157604052565b6080810190811067ffffffffffffffff8211176119c157604052565b90601f8019910116810190811067ffffffffffffffff8211176119c157604052565b67ffffffffffffffff81116119c157601f01601f191660200190565b6000915b60048310611a5e57505050565b600190825181526020809101920192019190611a51565b80600052600660205260406000203360005260205260ff604060002054161561097c5750565b906000918083526006602052604083209160018060a01b03169182845260205260ff60408420541615600014611b165780835260066020526040832082845260205260408320600160ff198254161790557f2f8788117e7eff1d82e926ec794901d17c78024a50270940304540a733656f0d339380a4600190565b505090565b906000918083526006602052604083209160018060a01b03169182845260205260ff604084205416600014611b16578083526006602052604083208284526020526040832060ff1981541690557ff6391f5c32d9c69d2a47ea670b442974b53935d1edc7fd64eb21e047a839171b339380a4600190565b6001600160a01b039182169290918315611d965760009282845260209460028652604095838787205416158015611d8f575b15611d34579084918287526002815284888820541696879133151580611c9e575b509060027fddf252ad1be2c89b69c2b068fc378daa952ba7f163c4a11628f55a4df523b3ef9284611c6b575b858352600381528b8320805460010190558683525289812080546001600160a01b0319168517905580a41692838303611c4a5750505050565b6064945051926364283d7b60e01b8452600484015260248301526044820152fd5b600087815260046020526040902080546001600160a01b0319169055848352600381528b83208054600019019055611c11565b91939450915080611cf3575b15611cba57859291879138611be5565b878688611cd7576024915190637e27328960e01b82526004820152fd5b604491519063177e802f60e01b82523360048301526024820152fd5b503387148015611d18575b80611caa5750858252600481523385898420541614611caa565b5086825260058152878220338352815260ff8883205416611cfe565b60849087519062461bcd60e51b82526004820152602f60248201527f5469636b6574732061726520736f756c626f756e6420616e642063616e6e6f7460448201526e081899481d1c985b9cd9995c9c9959608a1b6064820152fd5b5085611bc4565b604051633250574960e11b815260006004820152602490fd5b6000818152600260205260409020546001600160a01b0316908115611dd2575090565b60249060405190637e27328960e01b82526004820152fd5b909192833b611dfb575b5050505050565b604051630a85bd0160e11b8082526001600160a01b039384166004830152938316602482015260448101919091526080606482015260209591909316939091908390611e4b90608483019061189b565b039285816000958187895af1849181611ef5575b50611ebf575050503d600014611eb7573d611e7981611a31565b90611e876040519283611a0f565b81528091843d92013e5b80519283611eb257604051633250574960e11b815260048101849052602490fd5b019050fd5b506060611e91565b919450915063ffffffff60e01b1603611edd57503880808080611df4565b60249060405190633250574960e11b82526004820152fd5b9091508681813d8311611f32575b611f0d8183611a0f565b81010312611f2e57516001600160e01b031981168103611f2e579038611e5f565b8480fd5b503d611f03565b6000198114611f485760010190565b634e487b7160e01b600052601160045260246000fd5b8054680100000000000000008110156119c157611f8091600182018155611977565b819291549060031b91821b91600019901b1916179055565b15611f9f57565b60405162461bcd60e51b815260206004820152601560248201527413db9b1e481b1bdd1d195c9e4818dbdb9d1c9858dd605a1b6044820152606490fd5b15611fe357565b60405162461bcd60e51b8152602060048201526015602482015274151a58dad95d08191bd95cc81b9bdd08195e1a5cdd605a1b6044820152606490fd5b60009081526002602090815260408220546001600160a01b0390811615611b165760098252604083209160405190612057826119a5565b604051848683835b600483106120f55750505050612074816119f3565b82526004840154908201526005830154918216604082015260ff808360a01c1615159283606084015260a81c161515608082015260c060076006850154948560a085015201549101526120f1576201518081018091116120dd5742116120da5750600190565b90565b634e487b7160e01b82526011600452602482fd5b5090565b60019182918554815201930191019091849061205f565b805182101561198f5760209160051b010190565b67ffffffffffffffff81116119c15760051b60200190565b9061214282612120565b61214f6040519182611a0f565b8281528092612160601f1991612120565b019060203691013756fea2646970667358221220839f9868b2fb268c5fc255a4fc98468177d941d4ae557d6aabbe9ebeebfd35a464736f6c634300081400332f8788117e7eff1d82e926ec794901d17c78024a50270940304540a733656f0d",
  "linkReferences": {},
  "deployedLinkReferences": {}
}