{
  "_format": "hh-sol-artifact-1",
  "contractName": "LottoMojiPrizePool",
  "sourceName": "contracts/LottoMojiPrizePool.sol",
  "abi": [
    {
      "inputs": [
        {
          "internalType": "address",
          "name": "_usdc",
          "type": "address"
        },
        {
          "internalType": "address",
          "name": "_ethUsdFeed",
          "type": "address"
        },
        {
          "internalType": "address",
          "name": "_devWallet",
          "type": "address"
        },
        {
          "internalType": "address",
          "name": "_lotteryContract",
          "type": "address"
        }
      ],
      "stateMutability": "nonpayable",
      "type": "constructor"
    },
    {
      "inputs": [],
      "name": "AccessControlBadConfirmation",
      "type": "error"
    },
    {
      "inputs": [
        {
          "internalType": "address",
          "name": "account",
          "type": "address"
        },
        {
          "internalType": "bytes32",
          "name": "neededRole",
          "type": "bytes32"
        }
      ],
      "name": "AccessControlUnauthorizedAccount",
      "type": "error"
    },
    {
      "inputs": [],
      "name": "ReentrancyGuardReentrantCall",
      "type": "error"
    },
    {
      "anonymous": false,
      "inputs": [
        {
          "indexed": true,
          "internalType": "bytes32",
          "name": "ticketHash",
          "type": "bytes32"
        },
        {
          "indexed": true,
          "internalType": "address",
          "name": "winner",
          "type": "address"
        },
        {
          "indexed": false,
          "internalType": "uint256",
          "name": "ethAmount",
          "type": "uint256"
        },
        {
          "indexed": false,
          "internalType": "uint256",
          "name": "usdcAmount",
          "type": "uint256"
        }
      ],
      "name": "PrizeClaimed",
      "type": "event"
    },
    {
      "anonymous": false,
      "inputs": [
        {
          "indexed": true,
          "internalType": "uint256",
          "name": "roundId",
          "type": "uint256"
        },
        {
          "indexed": false,
          "internalType": "uint256",
          "name": "ethFirstPrize",
          "type": "uint256"
        },
        {
          "indexed": false,
          "internalType": "uint256",
          "name": "ethSecondPrize",
          "type": "uint256"
        },
        {
          "indexed": false,
          "internalType": "uint256",
          "name": "ethThirdPrize",
          "type": "uint256"
        },
        {
          "indexed": false,
          "internalType": "uint256",
          "name": "usdcFirstPrize",
          "type": "uint256"
        },
        {
          "indexed": false,
          "internalType": "uint256",
          "name": "usdcSecondPrize",
          "type": "uint256"
        },
        {
          "indexed": false,
          "internalType": "uint256",
          "name": "usdcThirdPrize",
          "type": "uint256"
        }
      ],
      "name": "PrizesDistributed",
      "type": "event"
    },
    {
      "anonymous": false,
      "inputs": [
        {
          "indexed": true,
          "internalType": "uint256",
          "name": "roundId",
          "type": "uint256"
        },
        {
          "indexed": false,
          "internalType": "string",
          "name": "prizeType",
          "type": "string"
        },
        {
          "indexed": false,
          "internalType": "uint256",
          "name": "ethReserveUsed",
          "type": "uint256"
        },
        {
          "indexed": false,
          "internalType": "uint256",
          "name": "usdcReserveUsed",
          "type": "uint256"
        }
      ],
      "name": "ReserveUsed",
      "type": "event"
    },
    {
      "anonymous": false,
      "inputs": [
        {
          "indexed": true,
          "internalType": "bytes32",
          "name": "role",
          "type": "bytes32"
        },
        {
          "indexed": true,
          "internalType": "bytes32",
          "name": "previousAdminRole",
          "type": "bytes32"
        },
        {
          "indexed": true,
          "internalType": "bytes32",
          "name": "newAdminRole",
          "type": "bytes32"
        }
      ],
      "name": "RoleAdminChanged",
      "type": "event"
    },
    {
      "anonymous": false,
      "inputs": [
        {
          "indexed": true,
          "internalType": "bytes32",
          "name": "role",
          "type": "bytes32"
        },
        {
          "indexed": true,
          "internalType": "address",
          "name": "account",
          "type": "address"
        },
        {
          "indexed": true,
          "internalType": "address",
          "name": "sender",
          "type": "address"
        }
      ],
      "name": "RoleGranted",
      "type": "event"
    },
    {
      "anonymous": false,
      "inputs": [
        {
          "indexed": true,
          "internalType": "bytes32",
          "name": "role",
          "type": "bytes32"
        },
        {
          "indexed": true,
          "internalType": "address",
          "name": "account",
          "type": "address"
        },
        {
          "indexed": true,
          "internalType": "address",
          "name": "sender",
          "type": "address"
        }
      ],
      "name": "RoleRevoked",
      "type": "event"
    },
    {
      "anonymous": false,
      "inputs": [
        {
          "indexed": true,
          "internalType": "bytes32",
          "name": "ticketHash",
          "type": "bytes32"
        },
        {
          "indexed": true,
          "internalType": "address",
          "name": "player",
          "type": "address"
        },
        {
          "indexed": false,
          "internalType": "uint256",
          "name": "roundId",
          "type": "uint256"
        },
        {
          "indexed": false,
          "internalType": "uint256",
          "name": "ethAmount",
          "type": "uint256"
        },
        {
          "indexed": false,
          "internalType": "uint256",
          "name": "usdcAmount",
          "type": "uint256"
        }
      ],
      "name": "TicketPurchased",
      "type": "event"
    },
    {
      "inputs": [],
      "name": "DEFAULT_ADMIN_ROLE",
      "outputs": [
        {
          "internalType": "bytes32",
          "name": "",
          "type": "bytes32"
        }
      ],
      "stateMutability": "view",
      "type": "function"
    },
    {
      "inputs": [],
      "name": "DEV_FEE",
      "outputs": [
        {
          "internalType": "uint256",
          "name": "",
          "type": "uint256"
        }
      ],
      "stateMutability": "view",
      "type": "function"
    },
    {
      "inputs": [],
      "name": "DEV_ROLE",
      "outputs": [
        {
          "internalType": "bytes32",
          "name": "",
          "type": "bytes32"
        }
      ],
      "stateMutability": "view",
      "type": "function"
    },
    {
      "inputs": [],
      "name": "ETH_USD_FEED",
      "outputs": [
        {
          "internalType": "contract AggregatorV3Interface",
          "name": "",
          "type": "address"
        }
      ],
      "stateMutability": "view",
      "type": "function"
    },
    {
      "inputs": [],
      "name": "FIRST_POOL",
      "outputs": [
        {
          "internalType": "uint256",
          "name": "",
          "type": "uint256"
        }
      ],
      "stateMutability": "view",
      "type": "function"
    },
    {
      "inputs": [],
      "name": "FIRST_RESERVE",
      "outputs": [
        {
          "internalType": "uint256",
          "name": "",
          "type": "uint256"
        }
      ],
      "stateMutability": "view",
      "type": "function"
    },
    {
      "inputs": [],
      "name": "LOTTERY_ROLE",
      "outputs": [
        {
          "internalType": "bytes32",
          "name": "",
          "type": "bytes32"
        }
      ],
      "stateMutability": "view",
      "type": "function"
    },
    {
      "inputs": [],
      "name": "SECOND_POOL",
      "outputs": [
        {
          "internalType": "uint256",
          "name": "",
          "type": "uint256"
        }
      ],
      "stateMutability": "view",
      "type": "function"
    },
    {
      "inputs": [],
      "name": "SECOND_RESERVE",
      "outputs": [
        {
          "internalType": "uint256",
          "name": "",
          "type": "uint256"
        }
      ],
      "stateMutability": "view",
      "type": "function"
    },
    {
      "inputs": [],
      "name": "THIRD_POOL",
      "outputs": [
        {
          "internalType": "uint256",
          "name": "",
          "type": "uint256"
        }
      ],
      "stateMutability": "view",
      "type": "function"
    },
    {
      "inputs": [],
      "name": "THIRD_RESERVE",
      "outputs": [
        {
          "internalType": "uint256",
          "name": "",
          "type": "uint256"
        }
      ],
      "stateMutability": "view",
      "type": "function"
    },
    {
      "inputs": [],
      "name": "TICKET_PRICE_USD",
      "outputs": [
        {
          "internalType": "uint256",
          "name": "",
          "type": "uint256"
        }
      ],
      "stateMutability": "view",
      "type": "function"
    },
    {
      "inputs": [],
      "name": "USDC",
      "outputs": [
        {
          "internalType": "contract IERC20",
          "name": "",
          "type": "address"
        }
      ],
      "stateMutability": "view",
      "type": "function"
    },
    {
      "inputs": [
        {
          "internalType": "bytes32",
          "name": "ticketHash",
          "type": "bytes32"
        },
        {
          "internalType": "uint256",
          "name": "ethAmount",
          "type": "uint256"
        },
        {
          "internalType": "uint256",
          "name": "usdcAmount",
          "type": "uint256"
        }
      ],
      "name": "claimPrize",
      "outputs": [],
      "stateMutability": "nonpayable",
      "type": "function"
    },
    {
      "inputs": [],
      "name": "devWallet",
      "outputs": [
        {
          "internalType": "address",
          "name": "",
          "type": "address"
        }
      ],
      "stateMutability": "view",
      "type": "function"
    },
    {
      "inputs": [
        {
          "internalType": "uint256",
          "name": "roundId",
          "type": "uint256"
        },
        {
          "internalType": "uint256",
          "name": "firstPrizeWinners",
          "type": "uint256"
        },
        {
          "internalType": "uint256",
          "name": "secondPrizeWinners",
          "type": "uint256"
        },
        {
          "internalType": "uint256",
          "name": "thirdPrizeWinners",
          "type": "uint256"
        }
      ],
      "name": "distributePrizes",
      "outputs": [
        {
          "internalType": "uint256",
          "name": "ethPerFirstWinner",
          "type": "uint256"
        },
        {
          "internalType": "uint256",
          "name": "ethPerSecondWinner",
          "type": "uint256"
        },
        {
          "internalType": "uint256",
          "name": "ethPerThirdWinner",
          "type": "uint256"
        },
        {
          "internalType": "uint256",
          "name": "usdcPerFirstWinner",
          "type": "uint256"
        },
        {
          "internalType": "uint256",
          "name": "usdcPerSecondWinner",
          "type": "uint256"
        },
        {
          "internalType": "uint256",
          "name": "usdcPerThirdWinner",
          "type": "uint256"
        }
      ],
      "stateMutability": "nonpayable",
      "type": "function"
    },
    {
      "inputs": [],
      "name": "emergencyWithdraw",
      "outputs": [],
      "stateMutability": "nonpayable",
      "type": "function"
    },
    {
      "inputs": [],
      "name": "ethPools",
      "outputs": [
        {
          "internalType": "uint256",
          "name": "firstPrize",
          "type": "uint256"
        },
        {
          "internalType": "uint256",
          "name": "secondPrize",
          "type": "uint256"
        },
        {
          "internalType": "uint256",
          "name": "thirdPrize",
          "type": "uint256"
        },
        {
          "internalType": "uint256",
          "name": "firstReserve",
          "type": "uint256"
        },
        {
          "internalType": "uint256",
          "name": "secondReserve",
          "type": "uint256"
        },
        {
          "internalType": "uint256",
          "name": "thirdReserve",
          "type": "uint256"
        }
      ],
      "stateMutability": "view",
      "type": "function"
    },
    {
      "inputs": [],
      "name": "getDetailedPoolsInfo",
      "outputs": [
        {
          "internalType": "uint256",
          "name": "ethFirstPrize",
          "type": "uint256"
        },
        {
          "internalType": "uint256",
          "name": "ethSecondPrize",
          "type": "uint256"
        },
        {
          "internalType": "uint256",
          "name": "ethThirdPrize",
          "type": "uint256"
        },
        {
          "internalType": "uint256",
          "name": "ethFirstReserve",
          "type": "uint256"
        },
        {
          "internalType": "uint256",
          "name": "ethSecondReserve",
          "type": "uint256"
        },
        {
          "internalType": "uint256",
          "name": "ethThirdReserve",
          "type": "uint256"
        },
        {
          "internalType": "uint256",
          "name": "usdcFirstPrize",
          "type": "uint256"
        },
        {
          "internalType": "uint256",
          "name": "usdcSecondPrize",
          "type": "uint256"
        },
        {
          "internalType": "uint256",
          "name": "usdcThirdPrize",
          "type": "uint256"
        },
        {
          "internalType": "uint256",
          "name": "usdcFirstReserve",
          "type": "uint256"
        },
        {
          "internalType": "uint256",
          "name": "usdcSecondReserve",
          "type": "uint256"
        },
        {
          "internalType": "uint256",
          "name": "usdcThirdReserve",
          "type": "uint256"
        }
      ],
      "stateMutability": "view",
      "type": "function"
    },
    {
      "inputs": [],
      "name": "getETHAmountForTicket",
      "outputs": [
        {
          "internalType": "uint256",
          "name": "",
          "type": "uint256"
        }
      ],
      "stateMutability": "view",
      "type": "function"
    },
    {
      "inputs": [],
      "name": "getETHPrice",
      "outputs": [
        {
          "internalType": "uint256",
          "name": "",
          "type": "uint256"
        }
      ],
      "stateMutability": "view",
      "type": "function"
    },
    {
      "inputs": [],
      "name": "getPoolsInfo",
      "outputs": [
        {
          "components": [
            {
              "internalType": "uint256",
              "name": "firstPrize",
              "type": "uint256"
            },
            {
              "internalType": "uint256",
              "name": "secondPrize",
              "type": "uint256"
            },
            {
              "internalType": "uint256",
              "name": "thirdPrize",
              "type": "uint256"
            },
            {
              "internalType": "uint256",
              "name": "firstReserve",
              "type": "uint256"
            },
            {
              "internalType": "uint256",
              "name": "secondReserve",
              "type": "uint256"
            },
            {
              "internalType": "uint256",
              "name": "thirdReserve",
              "type": "uint256"
            }
          ],
          "internalType": "struct LottoMojiPrizePool.PrizePools",
          "name": "ethPoolsInfo",
          "type": "tuple"
        },
        {
          "components": [
            {
              "internalType": "uint256",
              "name": "firstPrize",
              "type": "uint256"
            },
            {
              "internalType": "uint256",
              "name": "secondPrize",
              "type": "uint256"
            },
            {
              "internalType": "uint256",
              "name": "thirdPrize",
              "type": "uint256"
            },
            {
              "internalType": "uint256",
              "name": "firstReserve",
              "type": "uint256"
            },
            {
              "internalType": "uint256",
              "name": "secondReserve",
              "type": "uint256"
            },
            {
              "internalType": "uint256",
              "name": "thirdReserve",
              "type": "uint256"
            }
          ],
          "internalType": "struct LottoMojiPrizePool.PrizePools",
          "name": "usdcPoolsInfo",
          "type": "tuple"
        }
      ],
      "stateMutability": "view",
      "type": "function"
    },
    {
      "inputs": [
        {
          "internalType": "bytes32",
          "name": "role",
          "type": "bytes32"
        }
      ],
      "name": "getRoleAdmin",
      "outputs": [
        {
          "internalType": "bytes32",
          "name": "",
          "type": "bytes32"
        }
      ],
      "stateMutability": "view",
      "type": "function"
    },
    {
      "inputs": [
        {
          "internalType": "uint256",
          "name": "roundId",
          "type": "uint256"
        }
      ],
      "name": "getRoundStats",
      "outputs": [
        {
          "internalType": "uint256",
          "name": "totalTickets",
          "type": "uint256"
        },
        {
          "internalType": "uint256",
          "name": "totalETH",
          "type": "uint256"
        },
        {
          "internalType": "uint256",
          "name": "totalUSDC",
          "type": "uint256"
        }
      ],
      "stateMutability": "view",
      "type": "function"
    },
    {
      "inputs": [
        {
          "internalType": "bytes32",
          "name": "role",
          "type": "bytes32"
        },
        {
          "internalType": "address",
          "name": "account",
          "type": "address"
        }
      ],
      "name": "grantRole",
      "outputs": [],
      "stateMutability": "nonpayable",
      "type": "function"
    },
    {
      "inputs": [
        {
          "internalType": "bytes32",
          "name": "role",
          "type": "bytes32"
        },
        {
          "internalType": "address",
          "name": "account",
          "type": "address"
        }
      ],
      "name": "hasRole",
      "outputs": [
        {
          "internalType": "bool",
          "name": "",
          "type": "bool"
        }
      ],
      "stateMutability": "view",
      "type": "function"
    },
    {
      "inputs": [
        {
          "internalType": "bytes32",
          "name": "ticketHash",
          "type": "bytes32"
        }
      ],
      "name": "isTicketPaid",
      "outputs": [
        {
          "internalType": "bool",
          "name": "",
          "type": "bool"
        }
      ],
      "stateMutability": "view",
      "type": "function"
    },
    {
      "inputs": [
        {
          "internalType": "bytes32",
          "name": "ticketHash",
          "type": "bytes32"
        },
        {
          "internalType": "address",
          "name": "player",
          "type": "address"
        },
        {
          "internalType": "uint256",
          "name": "roundId",
          "type": "uint256"
        }
      ],
      "name": "processETHPayment",
      "outputs": [],
      "stateMutability": "payable",
      "type": "function"
    },
    {
      "inputs": [
        {
          "internalType": "bytes32",
          "name": "ticketHash",
          "type": "bytes32"
        },
        {
          "internalType": "address",
          "name": "player",
          "type": "address"
        },
        {
          "internalType": "uint256",
          "name": "roundId",
          "type": "uint256"
        }
      ],
      "name": "processUSDCPayment",
      "outputs": [],
      "stateMutability": "nonpayable",
      "type": "function"
    },
    {
      "inputs": [
        {
          "internalType": "bytes32",
          "name": "role",
          "type": "bytes32"
        },
        {
          "internalType": "address",
          "name": "callerConfirmation",
          "type": "address"
        }
      ],
      "name": "renounceRole",
      "outputs": [],
      "stateMutability": "nonpayable",
      "type": "function"
    },
    {
      "inputs": [
        {
          "internalType": "bytes32",
          "name": "role",
          "type": "bytes32"
        },
        {
          "internalType": "address",
          "name": "account",
          "type": "address"
        }
      ],
      "name": "revokeRole",
      "outputs": [],
      "stateMutability": "nonpayable",
      "type": "function"
    },
    {
      "inputs": [
        {
          "internalType": "uint256",
          "name": "",
          "type": "uint256"
        }
      ],
      "name": "roundTotalETH",
      "outputs": [
        {
          "internalType": "uint256",
          "name": "",
          "type": "uint256"
        }
      ],
      "stateMutability": "view",
      "type": "function"
    },
    {
      "inputs": [
        {
          "internalType": "uint256",
          "name": "",
          "type": "uint256"
        }
      ],
      "name": "roundTotalTickets",
      "outputs": [
        {
          "internalType": "uint256",
          "name": "",
          "type": "uint256"
        }
      ],
      "stateMutability": "view",
      "type": "function"
    },
    {
      "inputs": [
        {
          "internalType": "uint256",
          "name": "",
          "type": "uint256"
        }
      ],
      "name": "roundTotalUSDC",
      "outputs": [
        {
          "internalType": "uint256",
          "name": "",
          "type": "uint256"
        }
      ],
      "stateMutability": "view",
      "type": "function"
    },
    {
      "inputs": [
        {
          "internalType": "bytes4",
          "name": "interfaceId",
          "type": "bytes4"
        }
      ],
      "name": "supportsInterface",
      "outputs": [
        {
          "internalType": "bool",
          "name": "",
          "type": "bool"
        }
      ],
      "stateMutability": "view",
      "type": "function"
    },
    {
      "inputs": [
        {
          "internalType": "bytes32",
          "name": "",
          "type": "bytes32"
        }
      ],
      "name": "ticketPayments",
      "outputs": [
        {
          "internalType": "address",
          "name": "player",
          "type": "address"
        },
        {
          "internalType": "uint256",
          "name": "ethAmount",
          "type": "uint256"
        },
        {
          "internalType": "uint256",
          "name": "usdcAmount",
          "type": "uint256"
        },
        {
          "internalType": "uint256",
          "name": "roundId",
          "type": "uint256"
        },
        {
          "internalType": "bool",
          "name": "prizesClaimed",
          "type": "bool"
        }
      ],
      "stateMutability": "view",
      "type": "function"
    },
    {
      "inputs": [],
      "name": "usdcPools",
      "outputs": [
        {
          "internalType": "uint256",
          "name": "firstPrize",
          "type": "uint256"
        },
        {
          "internalType": "uint256",
          "name": "secondPrize",
          "type": "uint256"
        },
        {
          "internalType": "uint256",
          "name": "thirdPrize",
          "type": "uint256"
        },
        {
          "internalType": "uint256",
          "name": "firstReserve",
          "type": "uint256"
        },
        {
          "internalType": "uint256",
          "name": "secondReserve",
          "type": "uint256"
        },
        {
          "internalType": "uint256",
          "name": "thirdReserve",
          "type": "uint256"
        }
      ],
      "stateMutability": "view",
      "type": "function"
    },
    {
      "stateMutability": "payable",
      "type": "receive"
    }
  ],
  "bytecode": "0x60e0346200011757601f62001ed438819003918201601f19168301916001600160401b038311848410176200011c5780849260809460405283398101031262000117576200004d8162000132565b6200005b6020830162000132565b620000926200007b6060620000736040870162000132565b950162000132565b60016000556200008b3362000147565b50620001c8565b506200009e836200026b565b506001600160a01b039182166080521660a05260c052604051611baa90816200030a82396080518181816102b5015281816109b7015281816111fe0152611536015260a05181818161109b0152611996015260c051818181610321015281816103bc015281816107b201528181610b26015261115b0152f35b600080fd5b634e487b7160e01b600052604160045260246000fd5b51906001600160a01b03821682036200011757565b6001600160a01b031660008181527fa6eef7e35abe7026729641147f7915573c7e97b47efa546f5f6e3230263bcb49602052604081205490919060ff16620001c45781805260016020526040822081835260205260408220600160ff19825416179055339160008051602062001eb48339815191528180a4600190565b5090565b6001600160a01b031660008181527f073958672879cb212fd21aa9808c475a92efbc141596c45775d6cc1dedba2f0160205260408120549091907f98121a24191e1fb000610027f4e133f798a7a0273dc182e08f2925d985a104cc9060ff16620002665780835260016020526040832082845260205260408320600160ff1982541617905560008051602062001eb4833981519152339380a4600190565b505090565b6001600160a01b031660008181527f91ecd12c9eca9be961b39094264ff8858826027d38488a7e6ede7e274f7738cb60205260408120549091907f51b355059847d158e68950419dbcd54fad00bdfd0634c2515a5c533288c7f0a29060ff16620002665780835260016020526040832082845260205260408320600160ff1982541617905560008051602062001eb4833981519152339380a460019056fe6080604081815260049182361015610022575b505050361561002057600080fd5b005b600092833560e01c91826301ffc9a7146116f15750816304ba8c22146116a057816311de857414611683578163248a9ca31461165957816324e42276146114275781632cb36b51146113e15781632f2ff15d146113b757816336568abe1461137157816338090ec61461134857816339fc88751461132c578163436a88c114611310578163481951e6146112e85781634cf1219d146112675781634e7972531461124b57816359728bbf1461122d57816389a30271146111e95781638b19f56f1461118a5781638ea5220f1461114657816391d14854146110ff578163929a47e1146110ca57816394d8572a14611086578163a217fddf1461106b578163a607a8d91461104e578163b33f1cf214610d0d578163b7ddaa6c14610cf1578163bad6fb1214610c9d578163c293f72f14610c75578163cc68082314610960578163d073cc54146105dc578163d547741f1461059d578163d54d0c5314610571578163d728d2a014610456578163db2e21bc1461026a578163eb46edf01461024e578163ef1bc4db14610232578163f06cc54614610206575063fcf0f0d3146101c95780610012565b34610202578160031936011261020257602090517f51b355059847d158e68950419dbcd54fad00bdfd0634c2515a5c533288c7f0a28152f35b5080fd5b90503461022e57602036600319011261022e5760209282913581526011845220549051908152f35b8280fd5b5050346102025781600319360112610202576020905160508152f35b5050346102025781600319360112610202576020905160a08152f35b90503461022e578260031936011261022e5782805260209160018352808420338552835260ff8185205416156104395780516370a0823160e01b815230838201526001600160a01b037f000000000000000000000000000000000000000000000000000000000000000081169391908690479087846024818a5afa93841561042f578394610400575b5081159081156103ad575b505050508061030b578580f35b825163a9059cbb60e01b81526001600160a01b037f000000000000000000000000000000000000000000000000000000000000000016928101928352602083019190915292849184919082908890829060400103925af19081156103a45750610376575b8080808580f35b8161039592903d1061039d575b61038d8183611912565b810190611b0a565b50388061036f565b503d610383565b513d85823e3d90fd5b83928392839283916103f6575b7f00000000000000000000000000000000000000000000000000000000000000001690f1156103ec57853880806102fe565b82513d87823e3d90fd5b6108fc91506103ba565b9093508781813d8311610428575b6104188183611912565b8101031261022e575192386102f3565b503d61040e565b86513d85823e3d90fd5b9083604492519163e2517d3f60e01b835233908301526024820152fd5b9050823461056e578060031936011261056e575061056c61018092610479611b22565b50610482611b22565b5080519261048f846118f6565b6002548452600354602085015254818401526005546060840152600654608084015260075460a084015261052e8151916104c8836118f6565b60085483526009546020840152600a5481840152600b546060840152600c546080840152600d5460a084015251809460a0809180518452602081015160208501526040810151604085015260608101516060850152608081015160808501520151910152565b805160c0840152602081015160e084015260408101516101008401526060810151610120840152608081015161014084015260a00151610160830152565bf35b80fd5b505034610202578160031936011261020257602090610596610591611981565b61194b565b9051908152f35b9190503461022e578060031936011261022e576105d891356105d360016105c2611744565b938387528160205286200154611789565b61184d565b5080f35b83836105e73661175f565b9092600080516020611b55833981519152855260209560018752818620338752875261061860ff8388205416611a71565b610620611ae7565b61062b610591611981565b9081341061092a5782519561063f876118c4565b6001600160a01b039081168088528988018481528589018a815260608a0188815260808b018c81528a8d52600e8e52888d209b518c549087166001600160a01b0319909116178c55925160018c0155905160028b01555160038a015551978301805460ff191698151560ff16989098179097556032830290831591848104603214831715610917576103e8809104926028860286810460281482171561090457600a8702878104600a148317156108f15760508802918883046050148417156108de5760148902928984046014148517156108cb5761028091828b02928b8404148617156108b75760a08b02958b870460a01417156108b757948f9894876107989161078c828d9c988f828f9e999a8f9e826107a49d610780956107698361077495048254611ab5565b905504600354611ab5565b60035504600254611ab5565b60025504600754611ab5565b60075504600654611ab5565b60065504600554611ab5565b600555829082156108ad575b7f00000000000000000000000000000000000000000000000000000000000000001690f1156108a35781341161084a575b5091856060927ffa4bdd2ea03c565c5bdb3934d7a0f5e114365d0036439f866894e32cb2b6f68e9489848452600f815282842061081e8154611ad8565b905584845260108152828420610835838254611ab5565b90558251948552840152820152a36001815580f35b9681340334811161089057878080809b50809798999a938b82883414610887575bf11561087b5796959493926107e1565b505051903d90823e3d90fd5b506108fc61086b565b634e487b7160e01b885260118952602488fd5b82513d88823e3d90fd5b6108fc91506107b0565b50634e487b7160e01b8f526011895260248ffd5b634e487b7160e01b8f526011895260248ffd5b634e487b7160e01b8e526011885260248efd5b634e487b7160e01b8d526011875260248dfd5b634e487b7160e01b8c526011865260248cfd5b634e487b7160e01b8a526011845260248afd5b825162461bcd60e51b8152908101889052601060248201526f092dce6eaccccd2c6d2cadce8408aa8960831b6044820152606490fd5b83833461020257816109713661175f565b9291939095600080516020611b5583398151915283526020906001825282842033855282526109a560ff8486205416611a71565b6109ad611ae7565b60018060a01b03807f0000000000000000000000000000000000000000000000000000000000000000168451916323b872dd60e01b8352338484015260249230848201528581606481621e84809b8c6044830152875af1908115610c6b578b91610c4e575b5015610c1557899a848a8a8a858b5195610a2b876118c4565b169e8f8652868c8c880192808452818901948552606089019586528d60808a01978289528252600e9052209651166bffffffffffffffffffffffff60a01b875416178655516001860155516002850155516003840155511515910190610a9c919060ff801983541691151516179055565b600a54620138808101809111610c0357600a55600954620271008101809111610c0357600955600854621388008101809111610c0357600855600d54614e208101809111610c0357600d55600c54619c408101809111610c0357600c55600b546204e2008101809111610c035791604486928d94600b558851948593849263a9059cbb60e01b84527f00000000000000000000000000000000000000000000000000000000000000001689840152620186a0888401525af18015610bf957610bdc575b50858952600f8352838920610b748154611ad8565b90558589526011835283892090815492868401809411610bcb57505055815193845283018690528201527ffa4bdd2ea03c565c5bdb3934d7a0f5e114365d0036439f866894e32cb2b6f68e90606090a36001815580f35b634e487b7160e01b8b526011905289fd5b610bf290843d861161039d5761038d8183611912565b5089610b5f565b85513d8c823e3d90fd5b634e487b7160e01b8c5260118552838cfd5b855162461bcd60e51b8152808501869052601481850152731554d110c81d1c985b9cd9995c8819985a5b195960621b6044820152606490fd5b610c659150863d881161039d5761038d8183611912565b8c610a12565b87513d8d823e3d90fd5b90503461022e57602036600319011261022e576020928291358152600f845220549051908152f35b82843461056e578060031936011261056e575060025460035492546005546006546007549451938452602084019590955260408301919091526060820152608081019290925260a082015260c090f35b0390f35b5050346102025781600319360112610202576020905160288152f35b90503461022e57608036600319011261022e578035926024359260443560643592600080516020611b5583398151915281526001602052828120338252602052610d5c60ff8483205416611a71565b958693849384929091839081808b1561104557505060025495836005549788610d8491611ab5565b978c60085499600b549a8b610d9891611ab5565b91610da291611977565b9d610dac91611977565b98811580159061103c575b610fe9575b50505082600255826005558260085582600b555b80610f24575b5080610e5f575b50508151888152602081018a905260408101849052606081018590526080810186905260a08101879052610ced97507ff2e488aab7a2ee240f8cc49ca99a73c33243895749e99ab8cfa0f031d9caf2169060c090a251968796879260a094919796959260c0850198855260208501526040840152606083015260808201520152565b93509550865495806007549788610e7591611ab5565b988386600a549b600d549c8d610e8a91611ab5565b91610e9491611977565b97610e9e91611977565b9980159b8c15610ced9d610f1b575b610ec8575b505050558060075580600a55600d553880610ddd565b7f76a8adad51ef6bba5772879f550da7df7054ccd5451ccb6d5dffaa4f7ef4a3e89160a0918951916060835260056060840152641d1a1a5c9960da1b6080840152602083015289820152a2833880610eb2565b50801515610ead565b9a50955060035495826006549788610f3b91611ab5565b978c60095499600c549a8b610f4f91611ab5565b91610f5991611977565b9d610f6391611977565b988115801590610fe0575b610f8c575b50505081600355816006558160095581600c5538610dd6565b7f76a8adad51ef6bba5772879f550da7df7054ccd5451ccb6d5dffaa4f7ef4a3e89160a0918851916060835260066060840152651cd958dbdb9960d21b6080840152602083015288820152a2823880610f73565b50801515610f6e565b7f76a8adad51ef6bba5772879f550da7df7054ccd5451ccb6d5dffaa4f7ef4a3e89160a091895191606083526005606084015264199a5c9cdd60da1b6080840152602083015289820152a2833880610dbc565b50801515610db7565b96909a50610dd0565b505034610202578160031936011261020257602090610596611981565b50503461020257816003193601126102025751908152602090f35b505034610202578160031936011261020257517f00000000000000000000000000000000000000000000000000000000000000006001600160a01b03168152602090f35b90503461022e57602036600319011261022e57358252600e6020908152918190205490516001600160a01b0390911615158152f35b90503461022e578160031936011261022e578160209360ff92611120611744565b90358252600186528282206001600160a01b039091168252855220549151911615158152f35b505034610202578160031936011261020257517f00000000000000000000000000000000000000000000000000000000000000006001600160a01b03168152602090f35b9190503461022e57602036600319011261022e578060a09383358152600e60205220600180851b038154169260018201549260ff6002840154926003850154940154169381519586526020860152840152606083015215156080820152f35b505034610202578160031936011261020257517f00000000000000000000000000000000000000000000000000000000000000006001600160a01b03168152602090f35b50503461020257816003193601126102025760209051621e84808152f35b50503461020257816003193601126102025760209051600a8152f35b90503461022e578260031936011261022e5761018092506002549160035491546005546006546007546008549060095492600a5494600b5496600c5498600d549a81519c8d5260208d01528b015260608a0152608089015260a088015260c087015260e0860152610100850152610120840152610140830152610160820152f35b90503461022e57602036600319011261022e5760209282913581526010845220549051908152f35b5050346102025781600319360112610202576020905160328152f35b5050346102025781600319360112610202576020905160148152f35b50503461020257816003193601126102025760209051600080516020611b558339815191528152f35b83833461020257806003193601126102025761138b611744565b90336001600160a01b038316036113a857506105d891923561184d565b5163334bd91960e11b81528390fd5b9190503461022e578060031936011261022e576105d891356113dc60016105c2611744565b6117cd565b90503461022e57602036600319011261022e5791606092358152600f60205281812054916010602052808083205492601160205220549181519384526020840152820152f35b9190503461022e57606036600319011261022e5781356024359160443592600080516020611b55833981519152865260209360018552828720338852855261147460ff8489205416611a71565b61147c611ae7565b838752600e855282872080546001600160a01b0391908216801561162357888201805460ff81166115e85760ff1916600117905589908590811580156115b9575b50505050826114ff575b7fa3dd4a1386669cfcc372819ceaee69df2c1c14eb82976d79bd15c856666cb650959697505416958351928352820152a36001815580f35b8054855163a9059cbb60e01b81529083166001600160a01b0316988101988952602089018490529787908990819060400103818c867f0000000000000000000000000000000000000000000000000000000000000000165af19788156115af577fa3dd4a1386669cfcc372819ceaee69df2c1c14eb82976d79bd15c856666cb650969798611592575b50879695506114c7565b6115a890893d8b1161039d5761038d8183611912565b5038611588565b85513d8b823e3d90fd5b83928392839283906115df575bf1156115d557888438806114bd565b84513d8a823e3d90fd5b506108fc6115c6565b875162461bcd60e51b8152808c018b90526015602482015274141c9a5e9948185b1c9958591e4818db185a5b5959605a1b6044820152606490fd5b855162461bcd60e51b8152808a01899052601060248201526f151a58dad95d081b9bdd08199bdd5b9960821b6044820152606490fd5b90503461022e57602036600319011261022e57816020936001923581528285522001549051908152f35b505034610202578160031936011261020257602090516102808152f35b82843461056e578060031936011261056e5750600854600954600a54600b54600c54600d549551948552602085019390935260408401919091526060830152608082015260a081019190915260c090f35b84913461022e57602036600319011261022e573563ffffffff60e01b811680910361022e5760209250637965db0b60e01b8114908115611733575b5015158152f35b6301ffc9a760e01b1490508361172c565b602435906001600160a01b038216820361175a57565b600080fd5b606090600319011261175a57600435906024356001600160a01b038116810361175a579060443590565b80600052600160205260406000203360005260205260ff60406000205416156117af5750565b6044906040519063e2517d3f60e01b82523360048301526024820152fd5b906000918083526001602052604083209160018060a01b03169182845260205260ff604084205416156000146118485780835260016020526040832082845260205260408320600160ff198254161790557f2f8788117e7eff1d82e926ec794901d17c78024a50270940304540a733656f0d339380a4600190565b505090565b906000918083526001602052604083209160018060a01b03169182845260205260ff604084205416600014611848578083526001602052604083208284526020526040832060ff1981541690557ff6391f5c32d9c69d2a47ea670b442974b53935d1edc7fd64eb21e047a839171b339380a4600190565b60a0810190811067ffffffffffffffff8211176118e057604052565b634e487b7160e01b600052604160045260246000fd5b60c0810190811067ffffffffffffffff8211176118e057604052565b90601f8019910116810190811067ffffffffffffffff8211176118e057604052565b519069ffffffffffffffffffff8216820361175a57565b8015611961576a01a784379d99db420000000490565b634e487b7160e01b600052601260045260246000fd5b8115611961570490565b604051633fabe5a360e21b815260a0816004817f00000000000000000000000000000000000000000000000000000000000000006001600160a01b03165afa908115611a6557600091611a19575b5060008113156119e0576064900490565b60405162461bcd60e51b8152602060048201526011602482015270496e76616c69642045544820707269636560781b6044820152606490fd5b9060a0823d8211611a5d575b81611a3260a09383611912565b8101031261056e5750611a4481611934565b50611a56608060208301519201611934565b50386119cf565b3d9150611a25565b6040513d6000823e3d90fd5b15611a7857565b60405162461bcd60e51b815260206004820152601560248201527413db9b1e481b1bdd1d195c9e4818dbdb9d1c9858dd605a1b6044820152606490fd5b91908201809211611ac257565b634e487b7160e01b600052601160045260246000fd5b6000198114611ac25760010190565b600260005414611af8576002600055565b604051633ee5aeb560e01b8152600490fd5b9081602091031261175a5751801515810361175a5790565b60405190611b2f826118f6565b8160a0600091828152826020820152826040820152826060820152826080820152015256fe98121a24191e1fb000610027f4e133f798a7a0273dc182e08f2925d985a104cca2646970667358221220bd7587437f5eff1dd65d053fbe99fed8c4db6587cb17b2a542938c5e8b8aabc164736f6c634300081400332f8788117e7eff1d82e926ec794901d17c78024a50270940304540a733656f0d",
  "linkReferences": {},
  "deployedLinkReferences": {}
}